{"abi":[{"type":"constructor","inputs":[{"name":"_admin","type":"address","internalType":"address"}],"stateMutability":"nonpayable"},{"type":"function","name":"admin","inputs":[],"outputs":[{"name":"","type":"address","internalType":"address"}],"stateMutability":"view"},{"type":"function","name":"assets","inputs":[{"name":"","type":"bytes32","internalType":"bytes32"}],"outputs":[{"name":"","type":"address","internalType":"address"}],"stateMutability":"view"},{"type":"function","name":"delistAsset","inputs":[{"name":"ticker","type":"string","internalType":"string"}],"outputs":[],"stateMutability":"nonpayable"},{"type":"function","name":"getAsset","inputs":[{"name":"ticker","type":"string","internalType":"string"}],"outputs":[{"name":"","type":"address","internalType":"address"}],"stateMutability":"view"},{"type":"function","name":"keyToTicker","inputs":[{"name":"","type":"bytes32","internalType":"bytes32"}],"outputs":[{"name":"","type":"string","internalType":"string"}],"stateMutability":"view"},{"type":"function","name":"listAsset","inputs":[{"name":"ticker","type":"string","internalType":"string"},{"name":"assetName","type":"string","internalType":"string"},{"name":"vault","type":"address","internalType":"address"}],"outputs":[{"name":"asset","type":"address","internalType":"address"}],"stateMutability":"nonpayable"},{"type":"function","name":"listedCount","inputs":[],"outputs":[{"name":"","type":"uint256","internalType":"uint256"}],"stateMutability":"view"},{"type":"function","name":"listedKeys","inputs":[{"name":"","type":"uint256","internalType":"uint256"}],"outputs":[{"name":"","type":"bytes32","internalType":"bytes32"}],"stateMutability":"view"},{"type":"function","name":"setAdmin","inputs":[{"name":"newAdmin","type":"address","internalType":"address"}],"outputs":[],"stateMutability":"nonpayable"},{"type":"event","name":"AssetDelisted","inputs":[{"name":"ticker","type":"string","indexed":true,"internalType":"string"},{"name":"asset","type":"address","indexed":false,"internalType":"address"}],"anonymous":false},{"type":"event","name":"AssetListed","inputs":[{"name":"ticker","type":"string","indexed":true,"internalType":"string"},{"name":"asset","type":"address","indexed":false,"internalType":"address"},{"name":"vault","type":"address","indexed":false,"internalType":"address"}],"anonymous":false},{"type":"error","name":"AlreadyListed","inputs":[{"name":"ticker","type":"string","internalType":"string"}]},{"type":"error","name":"NotAdmin","inputs":[]},{"type":"error","name":"NotListed","inputs":[{"name":"ticker","type":"string","internalType":"string"}]},{"type":"error","name":"ZeroAddress","inputs":[]}],"bytecode":{"object":"0x608034608357601f6115af38819003918201601f19168301916001600160401b03831184841017608757808492602094604052833981010312608357516001600160a01b0381169081900360835780156074575f80546001600160a01b031916919091179055604051611513908161009c8239f35b63d92e233d60e01b5f5260045ffd5b5f80fd5b634e487b7160e01b5f52604160045260245ffdfe6080806040526004361015610012575f80fd5b5f3560e01c9081630b2262c614610721575080630f56add41461055f578063704b6c02146105125780639b7fd154146101895780639fda5b6614610157578063ccceb5691461011f578063cd5286d0146100c7578063f36065b3146100aa5763f851a4401461007f575f80fd5b346100a6575f3660031901126100a6575f546040516001600160a01b039091168152602090f35b5f80fd5b346100a6575f3660031901126100a6576020600254604051908152f35b346100a65760203660031901126100a65760043567ffffffffffffffff81116100a6576100fb610101913690600401610873565b906108ed565b5f526001602052602060018060a01b0360405f205416604051908152f35b346100a65760203660031901126100a6576004356002548110156100a6576101486020916108a1565b90549060031b1c604051908152f35b346100a65760203660031901126100a6576004355f526001602052602060018060a01b0360405f205416604051908152f35b346100a65760603660031901126100a65760043567ffffffffffffffff81116100a6576101ba903690600401610873565b60243567ffffffffffffffff81116100a6576101da903690600401610873565b916044356001600160a01b03811692908390036100a6575f546001600160a01b031633036105035782156104f45761021282866108ed565b5f818152600160205260409020549094906001600160a01b03166104cd5760405190607360f81b6020830152838760218401376102626021838681015f838201520301601f19810184528361082d565b60405192610bc2908185019285841067ffffffffffffffff8511176104ae5785946102a26040936102b0938b9661091c8a396060885260608801916108cd565b90858203602087015261084f565b92015203905ff080156104c25760018060a01b031692805f52600160205260405f20846bffffffffffffffffffffffff60a01b825416179055600254680100000000000000008110156104ae576103276103118260018594016002556108a1565b819391549060031b91821b915f19901b19161790565b90555f52600360205260405f209367ffffffffffffffff82116104ae5761034e85546107f5565b94601f861161045f575b602095505f601f84116001146103d9579183917fe5f9c5663822b3882e2fa8f5fcbc56db18ccc15ec0ad63010c1e27bff6eb9269946040945f916103ce575b508360011b905f198560031b1c19161790555b818351928392833781015f81520390209281519085825286820152a2604051908152f35b905082013589610397565b601f19841690825f52875f20915f5b8181106104485750918593917fe5f9c5663822b3882e2fa8f5fcbc56db18ccc15ec0ad63010c1e27bff6eb926996604096941061042f575b5050600183811b0190556103aa565b8301355f19600386901b60f8161c191690558880610420565b9192896001819286890135815501940192016103e8565b8286111561035857805f5260205f20601f840160051c90602085106104a6575b810196601f0160051c035f5b818110610499575050610358565b5f8882015560010161048b565b5f915061047f565b634e487b7160e01b5f52604160045260245ffd5b6040513d5f823e3d90fd5b604051630fd208c960e11b815260206004820152806104f060248201868a6108cd565b0390fd5b63d92e233d60e01b5f5260045ffd5b637bfa4b9f60e01b5f5260045ffd5b346100a65760203660031901126100a6576004356001600160a01b038116908190036100a6575f546001600160a01b03811633036105035781156104f4576001600160a01b031916175f55005b346100a65760203660031901126100a65760043567ffffffffffffffff81116100a657610590903690600401610873565b5f546001600160a01b03163303610503576105ab81836108ed565b5f818152600160205260409020546001600160a01b0316929083156106fb575f81815260016020526040812080546001600160a01b0319169055600254905b818110610633575b857f5bfa22150d2c3165c86da018685d9bd9dea01a28670324e4b6055b7b1edfde0d6020878781604051928392833781015f815203902092604051908152a2005b8261063d826108a1565b90549060031b1c14610651576001016105ea565b92939291505f1981019081116106e75761031161067061067d926108a1565b90549060031b1c926108a1565b90556002549081156106d3577f5bfa22150d2c3165c86da018685d9bd9dea01a28670324e4b6055b7b1edfde0d926020925f19016106ba816108a1565b8154905f199060031b1b191690556002559181936105f2565b634e487b7160e01b5f52603160045260245ffd5b634e487b7160e01b5f52601160045260245ffd5b5060405163654c681360e11b8152602060048201529182916104f09160248401916108cd565b346100a65760203660031901126100a6576004355f52600360205260405f205f9080549061074e826107f5565b80855291600181169081156107ce575060011461078e575b61078a846107768186038261082d565b60405191829160208352602083019061084f565b0390f35b5f90815260208120939250905b8082106107b45750909150810160200161077682610766565b91926001816020925483858801015201910190929161079b565b60ff191660208087019190915292151560051b850190920192506107769150839050610766565b90600182811c92168015610823575b602083101461080f57565b634e487b7160e01b5f52602260045260245ffd5b91607f1691610804565b90601f8019910116810190811067ffffffffffffffff8211176104ae57604052565b805180835260209291819084018484015e5f828201840152601f01601f1916010190565b9181601f840112156100a65782359167ffffffffffffffff83116100a657602083818601950101116100a657565b6002548110156108b95760025f5260205f2001905f90565b634e487b7160e01b5f52603260045260245ffd5b908060209392818452848401375f828201840152601f01601f1916010190565b90610915602060405183819483830196873781015f838201520301601f19810183528261082d565b5190209056fe60a06040523461036a57610bc2803803806100198161036e565b92833981019060608183031261036a5780516001600160401b03811161036a5782610045918301610393565b60208201519092906001600160401b03811161036a57604091610069918401610393565b9101516001600160a01b03811680820361036a571561035b5782516001600160401b038111610264575f54600181811c91168015610351575b602082101461024657601f81116102e4575b506020601f821160011461028357819293945f92610278575b50508160011b915f199060031b1c1916175f555b81516001600160401b03811161026457600154600181811c9116801561025a575b602082101461024657601f81116101d8575b50602092601f821160011461017757928192935f9261016c575b50508160011b915f199060031b1c1916176001555b6080526040516107dd90816103e582396080518181816101c2015281816103d301526106020152f35b015190505f8061012e565b601f1982169360015f52805f20915f5b8681106101c057508360019596106101a8575b505050811b01600155610143565b01515f1960f88460031b161c191690555f808061019a565b91926020600181928685015181550194019201610187565b818111156101145760015f52601f820160051c7fb10e2d527612073b26eecdfd717e6a320cf44b4afac2b0732d9fcbe2b7fa0cf66020841061023e575b81601f9101920160051c03905f5b828110610231575050610114565b5f82820155600101610223565b5f9150610215565b634e487b7160e01b5f52602260045260245ffd5b90607f1690610102565b634e487b7160e01b5f52604160045260245ffd5b015190505f806100cd565b601f198216905f8052805f20915f5b8181106102cc575095836001959697106102b4575b505050811b015f556100e1565b01515f1960f88460031b161c191690555f80806102a7565b9192602060018192868b015181550194019201610292565b818111156100b4575f8052601f820160051c7f290decd9548b62a8d60345a988386fc84ba6bc95484008f6362f93160ef3e56360208410610349575b81601f9101920160051c03905f5b82811061033c5750506100b4565b5f8282015560010161032e565b5f9150610320565b90607f16906100a2565b63d92e233d60e01b5f5260045ffd5b5f80fd5b6040519190601f01601f191682016001600160401b0381118382101761026457604052565b81601f8201121561036a578051906001600160401b038211610264576103c2601f8301601f191660200161036e565b928284526020838301011161036a57815f9260208093018386015e830101529056fe60806040526004361015610011575f80fd5b5f3560e01c806306fdde031461063157806307546172146105ed578063095ea7b31461057457806318160ddd1461055757806323b872dd1461045c578063313ce5671461044157806340c10f19146103b457806370a082311461037c57806395d89b411461025e5780639dc29fac146101a3578063a9059cbb146100f15763dd62ed3e1461009d575f80fd5b346100ed5760403660031901126100ed576100b661072d565b6100be610743565b6001600160a01b039182165f908152600460209081526040808320949093168252928352819020549051908152f35b5f80fd5b346100ed5760403660031901126100ed5761010a61072d565b6001600160a01b0316602435811561019457335f5260036020528060405f20541061018557335f52600360205260405f20610146828254610759565b9055815f52600360205260405f2061015f82825461077a565b90556040519081525f5160206107885f395f51905f5260203392a3602060405160018152f35b631e9acf1760e31b5f5260045ffd5b63d92e233d60e01b5f5260045ffd5b346100ed5760403660031901126100ed576101bc61072d565b602435907f00000000000000000000000000000000000000000000000000000000000000006001600160a01b0316330361024f576001600160a01b03165f818152600360205260409020548211610185575f5160206107885f395f51905f5260208361022b5f95600254610759565b6002558385526003825260408520610244828254610759565b9055604051908152a3005b633e34a41b60e21b5f5260045ffd5b346100ed575f3660031901126100ed576040515f6001548060011c90600181168015610372575b60208310811461035e5782855290811561034257506001146102ec575b50819003601f01601f191681019067ffffffffffffffff8211818310176102d857604082905281906102d49082610703565b0390f35b634e487b7160e01b5f52604160045260245ffd5b60015f9081529091507fb10e2d527612073b26eecdfd717e6a320cf44b4afac2b0732d9fcbe2b7fa0cf65b82821061032c575060209150820101826102a2565b6001816020925483858801015201910190610317565b90506020925060ff191682840152151560051b820101826102a2565b634e487b7160e01b5f52602260045260245ffd5b91607f1691610285565b346100ed5760203660031901126100ed576001600160a01b0361039d61072d565b165f526003602052602060405f2054604051908152f35b346100ed5760403660031901126100ed576103cd61072d565b602435907f00000000000000000000000000000000000000000000000000000000000000006001600160a01b0316330361024f575f5160206107885f395f51905f5260205f9261041f8560025461077a565b60025560018060a01b031693848452600382526040842061024482825461077a565b346100ed575f3660031901126100ed57602060405160128152f35b346100ed5760603660031901126100ed5761047561072d565b61047d610743565b6001600160a01b0316906044359082156101945760018060a01b031690815f5260036020528060405f205410610185575f82815260046020908152604080832033845290915290205481116105485760205f5160206107885f395f51905f5291835f526004825260405f2060018060a01b0333165f52825260405f20610504828254610759565b9055835f526003825260405f2061051c828254610759565b9055845f526003825260405f2061053482825461077a565b9055604051908152a3602060405160018152f35b6313be252b60e01b5f5260045ffd5b346100ed575f3660031901126100ed576020600254604051908152f35b346100ed5760403660031901126100ed5761058d61072d565b335f8181526004602090815260408083206001600160a01b03909516808452948252918290206024359081905591519182527f8c5be1e5ebec7d5bd14f71427d1e84f3dd0314c0f7b2291e5b200ac8c7c3b92591a3602060405160018152f35b346100ed575f3660031901126100ed576040517f00000000000000000000000000000000000000000000000000000000000000006001600160a01b03168152602090f35b346100ed575f3660031901126100ed576040515f5f548060011c906001811680156106f9575b60208310811461035e5782855290811561034257506001146106a55750819003601f01601f191681019067ffffffffffffffff8211818310176102d857604082905281906102d49082610703565b5f8080529091507f290decd9548b62a8d60345a988386fc84ba6bc95484008f6362f93160ef3e5635b8282106106e3575060209150820101826102a2565b60018160209254838588010152019101906106ce565b91607f1691610657565b602060409281835280519182918282860152018484015e5f828201840152601f01601f1916010190565b600435906001600160a01b03821682036100ed57565b602435906001600160a01b03821682036100ed57565b9190820391821161076657565b634e487b7160e01b5f52601160045260245ffd5b919082018092116107665756feddf252ad1be2c89b69c2b068fc378daa952ba7f163c4a11628f55a4df523b3efa264697066735822122022cb7e1cc910643121c845538ef90df51403ebde5f830a1c0101119cf05cfd3464736f6c63430008210033a26469706673582212200ca00d1248d311114911a022b91964f32f7383d2c8f4d2c3c43c51fa522dabf664736f6c63430008210033","linkReferences":{}},"methodIdentifiers":{"admin()":"f851a440","assets(bytes32)":"9fda5b66","delistAsset(string)":"0f56add4","getAsset(string)":"cd5286d0","keyToTicker(bytes32)":"0b2262c6","listAsset(string,string,address)":"9b7fd154","listedCount()":"f36065b3","listedKeys(uint256)":"ccceb569","setAdmin(address)":"704b6c02"},"id":64}