{"abi":[{"type":"constructor","inputs":[{"name":"_admin","type":"address","internalType":"address"}],"stateMutability":"nonpayable"},{"type":"function","name":"admin","inputs":[],"outputs":[{"name":"","type":"address","internalType":"address"}],"stateMutability":"view"},{"type":"function","name":"assets","inputs":[{"name":"","type":"bytes32","internalType":"bytes32"}],"outputs":[{"name":"","type":"address","internalType":"address"}],"stateMutability":"view"},{"type":"function","name":"delistAsset","inputs":[{"name":"ticker","type":"string","internalType":"string"}],"outputs":[],"stateMutability":"nonpayable"},{"type":"function","name":"getAsset","inputs":[{"name":"ticker","type":"string","internalType":"string"}],"outputs":[{"name":"","type":"address","internalType":"address"}],"stateMutability":"view"},{"type":"function","name":"keyToTicker","inputs":[{"name":"","type":"bytes32","internalType":"bytes32"}],"outputs":[{"name":"","type":"string","internalType":"string"}],"stateMutability":"view"},{"type":"function","name":"listAsset","inputs":[{"name":"ticker","type":"string","internalType":"string"},{"name":"assetName","type":"string","internalType":"string"},{"name":"vault","type":"address","internalType":"address"}],"outputs":[{"name":"asset","type":"address","internalType":"address"}],"stateMutability":"nonpayable"},{"type":"function","name":"listedCount","inputs":[],"outputs":[{"name":"","type":"uint256","internalType":"uint256"}],"stateMutability":"view"},{"type":"function","name":"listedKeys","inputs":[{"name":"","type":"uint256","internalType":"uint256"}],"outputs":[{"name":"","type":"bytes32","internalType":"bytes32"}],"stateMutability":"view"},{"type":"function","name":"setAdmin","inputs":[{"name":"newAdmin","type":"address","internalType":"address"}],"outputs":[],"stateMutability":"nonpayable"},{"type":"event","name":"AssetDelisted","inputs":[{"name":"ticker","type":"string","indexed":true,"internalType":"string"},{"name":"asset","type":"address","indexed":false,"internalType":"address"}],"anonymous":false},{"type":"event","name":"AssetListed","inputs":[{"name":"ticker","type":"string","indexed":true,"internalType":"string"},{"name":"asset","type":"address","indexed":false,"internalType":"address"},{"name":"vault","type":"address","indexed":false,"internalType":"address"}],"anonymous":false},{"type":"error","name":"AlreadyListed","inputs":[{"name":"ticker","type":"string","internalType":"string"}]},{"type":"error","name":"NotAdmin","inputs":[]},{"type":"error","name":"NotListed","inputs":[{"name":"ticker","type":"string","internalType":"string"}]},{"type":"error","name":"ZeroAddress","inputs":[]}],"bytecode":{"object":"0x608060405234801561000f575f5ffd5b50604051612bf8380380612bf883398181016040528101906100319190610139565b5f73ffffffffffffffffffffffffffffffffffffffff168173ffffffffffffffffffffffffffffffffffffffff1603610096576040517fd92e233d00000000000000000000000000000000000000000000000000000000815260040160405180910390fd5b805f5f6101000a81548173ffffffffffffffffffffffffffffffffffffffff021916908373ffffffffffffffffffffffffffffffffffffffff16021790555050610164565b5f5ffd5b5f73ffffffffffffffffffffffffffffffffffffffff82169050919050565b5f610108826100df565b9050919050565b610118816100fe565b8114610122575f5ffd5b50565b5f815190506101338161010f565b92915050565b5f6020828403121561014e5761014d6100db565b5b5f61015b84828501610125565b91505092915050565b612a87806101715f395ff3fe608060405234801561000f575f5ffd5b5060043610610091575f3560e01c80639fda5b66116100645780639fda5b661461012d578063ccceb5691461015d578063cd5286d01461018d578063f36065b3146101bd578063f851a440146101db57610091565b80630b2262c6146100955780630f56add4146100c5578063704b6c02146100e15780639b7fd154146100fd575b5f5ffd5b6100af60048036038101906100aa9190610a62565b6101f9565b6040516100bc9190610afd565b60405180910390f35b6100df60048036038101906100da9190610b7e565b610294565b005b6100fb60048036038101906100f69190610c23565b61050f565b005b61011760048036038101906101129190610c4e565b61063b565b6040516101249190610cee565b60405180910390f35b61014760048036038101906101429190610a62565b610925565b6040516101549190610cee565b60405180910390f35b61017760048036038101906101729190610d3a565b610955565b6040516101849190610d74565b60405180910390f35b6101a760048036038101906101a29190610b7e565b610975565b6040516101b49190610cee565b60405180910390f35b6101c56109b8565b6040516101d29190610d9c565b60405180910390f35b6101e36109c4565b6040516101f09190610cee565b60405180910390f35b6003602052805f5260405f205f91509050805461021590610de2565b80601f016020809104026020016040519081016040528092919081815260200182805461024190610de2565b801561028c5780601f106102635761010080835404028352916020019161028c565b820191905f5260205f20905b81548152906001019060200180831161026f57829003601f168201915b505050505081565b5f5f9054906101000a900473ffffffffffffffffffffffffffffffffffffffff1673ffffffffffffffffffffffffffffffffffffffff163373ffffffffffffffffffffffffffffffffffffffff1614610319576040517f7bfa4b9f00000000000000000000000000000000000000000000000000000000815260040160405180910390fd5b5f61032483836109e8565b90505f60015f8381526020019081526020015f205f9054906101000a900473ffffffffffffffffffffffffffffffffffffffff1690505f73ffffffffffffffffffffffffffffffffffffffff168173ffffffffffffffffffffffffffffffffffffffff16036103cc5783836040517fca98d0260000000000000000000000000000000000000000000000000000000081526004016103c3929190610e4c565b60405180910390fd5b60015f8381526020019081526020015f205f6101000a81549073ffffffffffffffffffffffffffffffffffffffff02191690555f60028054905090505f5f90505b818110156104b857836002828154811061042a57610429610e6e565b5b905f5260205f200154036104ab5760026001836104479190610ec8565b8154811061045857610457610e6e565b5b905f5260205f2001546002828154811061047557610474610e6e565b5b905f5260205f200181905550600280548061049357610492610efb565b5b600190038181905f5260205f20015f905590556104b8565b808060010191505061040d565b5084846040516104c9929190610f56565b60405180910390207f5bfa22150d2c3165c86da018685d9bd9dea01a28670324e4b6055b7b1edfde0d836040516105009190610cee565b60405180910390a25050505050565b5f5f9054906101000a900473ffffffffffffffffffffffffffffffffffffffff1673ffffffffffffffffffffffffffffffffffffffff163373ffffffffffffffffffffffffffffffffffffffff1614610594576040517f7bfa4b9f00000000000000000000000000000000000000000000000000000000815260040160405180910390fd5b5f73ffffffffffffffffffffffffffffffffffffffff168173ffffffffffffffffffffffffffffffffffffffff16036105f9576040517fd92e233d00000000000000000000000000000000000000000000000000000000815260040160405180910390fd5b805f5f6101000a81548173ffffffffffffffffffffffffffffffffffffffff021916908373ffffffffffffffffffffffffffffffffffffffff16021790555050565b5f5f5f9054906101000a900473ffffffffffffffffffffffffffffffffffffffff1673ffffffffffffffffffffffffffffffffffffffff163373ffffffffffffffffffffffffffffffffffffffff16146106c1576040517f7bfa4b9f00000000000000000000000000000000000000000000000000000000815260040160405180910390fd5b5f73ffffffffffffffffffffffffffffffffffffffff168273ffffffffffffffffffffffffffffffffffffffff1603610726576040517fd92e233d00000000000000000000000000000000000000000000000000000000815260040160405180910390fd5b5f61073187876109e8565b90505f73ffffffffffffffffffffffffffffffffffffffff1660015f8381526020019081526020015f205f9054906101000a900473ffffffffffffffffffffffffffffffffffffffff1673ffffffffffffffffffffffffffffffffffffffff16146107d55786866040517f1fa411920000000000000000000000000000000000000000000000000000000081526004016107cc929190610e4c565b60405180910390fd5b5f87876040516020016107e9929190610fb8565b60405160208183030381529060405290508585828660405161080a90610a1a565b6108179493929190610fdb565b604051809103905ff080158015610830573d5f5f3e3d5ffd5b5092508260015f8481526020019081526020015f205f6101000a81548173ffffffffffffffffffffffffffffffffffffffff021916908373ffffffffffffffffffffffffffffffffffffffff160217905550600282908060018154018082558091505060019003905f5260205f20015f9091909190915055878760035f8581526020019081526020015f2091826108c8929190611208565b5087876040516108d9929190610f56565b60405180910390207fe5f9c5663822b3882e2fa8f5fcbc56db18ccc15ec0ad63010c1e27bff6eb926984866040516109129291906112d5565b60405180910390a2505095945050505050565b6001602052805f5260405f205f915054906101000a900473ffffffffffffffffffffffffffffffffffffffff1681565b60028181548110610964575f80fd5b905f5260205f20015f915090505481565b5f60015f61098385856109e8565b81526020019081526020015f205f9054906101000a900473ffffffffffffffffffffffffffffffffffffffff16905092915050565b5f600280549050905090565b5f5f9054906101000a900473ffffffffffffffffffffffffffffffffffffffff1681565b5f82826040516020016109fc929190610f56565b60405160208183030381529060405280519060200120905092915050565b611755806112fd83390190565b5f5ffd5b5f5ffd5b5f819050919050565b610a4181610a2f565b8114610a4b575f5ffd5b50565b5f81359050610a5c81610a38565b92915050565b5f60208284031215610a7757610a76610a27565b5b5f610a8484828501610a4e565b91505092915050565b5f81519050919050565b5f82825260208201905092915050565b8281835e5f83830152505050565b5f601f19601f8301169050919050565b5f610acf82610a8d565b610ad98185610a97565b9350610ae9818560208601610aa7565b610af281610ab5565b840191505092915050565b5f6020820190508181035f830152610b158184610ac5565b905092915050565b5f5ffd5b5f5ffd5b5f5ffd5b5f5f83601f840112610b3e57610b3d610b1d565b5b8235905067ffffffffffffffff811115610b5b57610b5a610b21565b5b602083019150836001820283011115610b7757610b76610b25565b5b9250929050565b5f5f60208385031215610b9457610b93610a27565b5b5f83013567ffffffffffffffff811115610bb157610bb0610a2b565b5b610bbd85828601610b29565b92509250509250929050565b5f73ffffffffffffffffffffffffffffffffffffffff82169050919050565b5f610bf282610bc9565b9050919050565b610c0281610be8565b8114610c0c575f5ffd5b50565b5f81359050610c1d81610bf9565b92915050565b5f60208284031215610c3857610c37610a27565b5b5f610c4584828501610c0f565b91505092915050565b5f5f5f5f5f60608688031215610c6757610c66610a27565b5b5f86013567ffffffffffffffff811115610c8457610c83610a2b565b5b610c9088828901610b29565b9550955050602086013567ffffffffffffffff811115610cb357610cb2610a2b565b5b610cbf88828901610b29565b93509350506040610cd288828901610c0f565b9150509295509295909350565b610ce881610be8565b82525050565b5f602082019050610d015f830184610cdf565b92915050565b5f819050919050565b610d1981610d07565b8114610d23575f5ffd5b50565b5f81359050610d3481610d10565b92915050565b5f60208284031215610d4f57610d4e610a27565b5b5f610d5c84828501610d26565b91505092915050565b610d6e81610a2f565b82525050565b5f602082019050610d875f830184610d65565b92915050565b610d9681610d07565b82525050565b5f602082019050610daf5f830184610d8d565b92915050565b7f4e487b71000000000000000000000000000000000000000000000000000000005f52602260045260245ffd5b5f6002820490506001821680610df957607f821691505b602082108103610e0c57610e0b610db5565b5b50919050565b828183375f83830152505050565b5f610e2b8385610a97565b9350610e38838584610e12565b610e4183610ab5565b840190509392505050565b5f6020820190508181035f830152610e65818486610e20565b90509392505050565b7f4e487b71000000000000000000000000000000000000000000000000000000005f52603260045260245ffd5b7f4e487b71000000000000000000000000000000000000000000000000000000005f52601160045260245ffd5b5f610ed282610d07565b9150610edd83610d07565b9250828203905081811115610ef557610ef4610e9b565b5b92915050565b7f4e487b71000000000000000000000000000000000000000000000000000000005f52603160045260245ffd5b5f81905092915050565b5f610f3d8385610f28565b9350610f4a838584610e12565b82840190509392505050565b5f610f62828486610f32565b91508190509392505050565b7f73000000000000000000000000000000000000000000000000000000000000005f82015250565b5f610fa2600183610f28565b9150610fad82610f6e565b600182019050919050565b5f610fc282610f96565b9150610fcf828486610f32565b91508190509392505050565b5f6060820190508181035f830152610ff4818688610e20565b905081810360208301526110088185610ac5565b90506110176040830184610cdf565b95945050505050565b5f82905092915050565b7f4e487b71000000000000000000000000000000000000000000000000000000005f52604160045260245ffd5b5f819050815f5260205f209050919050565b5f6020601f8301049050919050565b5f82821b905092915050565b5f600883026110b37fffffffffffffffffffffffffffffffffffffffffffffffffffffffffffffffff82611078565b6110bd8683611078565b95508019841693508086168417925050509392505050565b5f819050919050565b5f6110f86110f36110ee84610d07565b6110d5565b610d07565b9050919050565b5f819050919050565b611111836110de565b61112561111d826110ff565b848454611084565b825550505050565b5f5f905090565b61113c61112d565b611147818484611108565b505050565b5f5b8281101561116d576111625f828401611134565b60018101905061114e565b505050565b601f8211156111c057828211156111bf5761118c81611057565b61119583611069565b61119e85611069565b60208610156111ab575f90505b8083016111ba8284038261114c565b505050505b5b505050565b5f82821c905092915050565b5f6111e05f19846008026111c5565b1980831691505092915050565b5f6111f883836111d1565b9150826002028217905092915050565b6112128383611020565b67ffffffffffffffff81111561122b5761122a61102a565b5b6112358254610de2565b611240828285611172565b5f601f83116001811461126d575f841561125b578287013590505b61126585826111ed565b8655506112cc565b601f19841661127b86611057565b5f5b828110156112a25784890135825560018201915060208501945060208101905061127d565b868310156112bf57848901356112bb601f8916826111d1565b8355505b6001600288020188555050505b50505050505050565b5f6040820190506112e85f830185610cdf565b6112f56020830184610cdf565b939250505056fe60a060405234801561000f575f5ffd5b5060405161175538038061175583398181016040528101906100319190610298565b5f73ffffffffffffffffffffffffffffffffffffffff168173ffffffffffffffffffffffffffffffffffffffff1603610096576040517fd92e233d00000000000000000000000000000000000000000000000000000000815260040160405180910390fd5b825f90816100a49190610541565b5081600190816100b49190610541565b508073ffffffffffffffffffffffffffffffffffffffff1660808173ffffffffffffffffffffffffffffffffffffffff1681525050505050610610565b5f604051905090565b5f5ffd5b5f5ffd5b5f5ffd5b5f5ffd5b5f601f19601f8301169050919050565b7f4e487b71000000000000000000000000000000000000000000000000000000005f52604160045260245ffd5b6101508261010a565b810181811067ffffffffffffffff8211171561016f5761016e61011a565b5b80604052505050565b5f6101816100f1565b905061018d8282610147565b919050565b5f67ffffffffffffffff8211156101ac576101ab61011a565b5b6101b58261010a565b9050602081019050919050565b8281835e5f83830152505050565b5f6101e26101dd84610192565b610178565b9050828152602081018484840111156101fe576101fd610106565b5b6102098482856101c2565b509392505050565b5f82601f83011261022557610224610102565b5b81516102358482602086016101d0565b91505092915050565b5f73ffffffffffffffffffffffffffffffffffffffff82169050919050565b5f6102678261023e565b9050919050565b6102778161025d565b8114610281575f5ffd5b50565b5f815190506102928161026e565b92915050565b5f5f5f606084860312156102af576102ae6100fa565b5b5f84015167ffffffffffffffff8111156102cc576102cb6100fe565b5b6102d886828701610211565b935050602084015167ffffffffffffffff8111156102f9576102f86100fe565b5b61030586828701610211565b925050604061031686828701610284565b9150509250925092565b5f81519050919050565b7f4e487b71000000000000000000000000000000000000000000000000000000005f52602260045260245ffd5b5f600282049050600182168061036e57607f821691505b6020821081036103815761038061032a565b5b50919050565b5f819050815f5260205f209050919050565b5f6020601f8301049050919050565b5f82821b905092915050565b5f600883026103e37fffffffffffffffffffffffffffffffffffffffffffffffffffffffffffffffff826103a8565b6103ed86836103a8565b95508019841693508086168417925050509392505050565b5f819050919050565b5f819050919050565b5f61043161042c61042784610405565b61040e565b610405565b9050919050565b5f819050919050565b61044a83610417565b61045e61045682610438565b8484546103b4565b825550505050565b5f5f905090565b610475610466565b610480818484610441565b505050565b5f5b828110156104a65761049b5f82840161046d565b600181019050610487565b505050565b601f8211156104f957828211156104f8576104c581610387565b6104ce83610399565b6104d785610399565b60208610156104e4575f90505b8083016104f382840382610485565b505050505b5b505050565b5f82821c905092915050565b5f6105195f19846008026104fe565b1980831691505092915050565b5f610531838361050a565b9150826002028217905092915050565b61054a82610320565b67ffffffffffffffff8111156105635761056261011a565b5b61056d8254610357565b6105788282856104ab565b5f60209050601f8311600181146105a9575f8415610597578287015190505b6105a18582610526565b865550610608565b601f1984166105b786610387565b5f5b828110156105de578489015182556001820191506020850194506020810190506105b9565b868310156105fb57848901516105f7601f89168261050a565b8355505b6001600288020188555050505b505050505050565b60805161111f6106365f395f818161030101528181610750015261094a015261111f5ff3fe608060405234801561000f575f5ffd5b50600436106100b2575f3560e01c806340c10f191161006f57806340c10f191461018e57806370a08231146101aa57806395d89b41146101da5780639dc29fac146101f8578063a9059cbb14610214578063dd62ed3e14610244576100b2565b806306fdde03146100b657806307546172146100d4578063095ea7b3146100f257806318160ddd1461012257806323b872dd14610140578063313ce56714610170575b5f5ffd5b6100be610274565b6040516100cb9190610d9a565b60405180910390f35b6100dc6102ff565b6040516100e99190610df9565b60405180910390f35b61010c60048036038101906101079190610e73565b610323565b6040516101199190610ecb565b60405180910390f35b61012a610410565b6040516101379190610ef3565b60405180910390f35b61015a60048036038101906101559190610f0c565b610416565b6040516101679190610ecb565b60405180910390f35b610178610749565b6040516101859190610f77565b60405180910390f35b6101a860048036038101906101a39190610e73565b61074e565b005b6101c460048036038101906101bf9190610f90565b6108a7565b6040516101d19190610ef3565b60405180910390f35b6101e26108bc565b6040516101ef9190610d9a565b60405180910390f35b610212600480360381019061020d9190610e73565b610948565b005b61022e60048036038101906102299190610e73565b610b18565b60405161023b9190610ecb565b60405180910390f35b61025e60048036038101906102599190610fbb565b610d0a565b60405161026b9190610ef3565b60405180910390f35b5f805461028090611026565b80601f01602080910402602001604051908101604052809291908181526020018280546102ac90611026565b80156102f75780601f106102ce576101008083540402835291602001916102f7565b820191905f5260205f20905b8154815290600101906020018083116102da57829003601f168201915b505050505081565b7f000000000000000000000000000000000000000000000000000000000000000081565b5f8160045f3373ffffffffffffffffffffffffffffffffffffffff1673ffffffffffffffffffffffffffffffffffffffff1681526020019081526020015f205f8573ffffffffffffffffffffffffffffffffffffffff1673ffffffffffffffffffffffffffffffffffffffff1681526020019081526020015f20819055508273ffffffffffffffffffffffffffffffffffffffff163373ffffffffffffffffffffffffffffffffffffffff167f8c5be1e5ebec7d5bd14f71427d1e84f3dd0314c0f7b2291e5b200ac8c7c3b925846040516103fe9190610ef3565b60405180910390a36001905092915050565b60025481565b5f5f73ffffffffffffffffffffffffffffffffffffffff168373ffffffffffffffffffffffffffffffffffffffff160361047c576040517fd92e233d00000000000000000000000000000000000000000000000000000000815260040160405180910390fd5b8160035f8673ffffffffffffffffffffffffffffffffffffffff1673ffffffffffffffffffffffffffffffffffffffff1681526020019081526020015f205410156104f3576040517ff4d678b800000000000000000000000000000000000000000000000000000000815260040160405180910390fd5b8160045f8673ffffffffffffffffffffffffffffffffffffffff1673ffffffffffffffffffffffffffffffffffffffff1681526020019081526020015f205f3373ffffffffffffffffffffffffffffffffffffffff1673ffffffffffffffffffffffffffffffffffffffff1681526020019081526020015f205410156105a5576040517f13be252b00000000000000000000000000000000000000000000000000000000815260040160405180910390fd5b8160045f8673ffffffffffffffffffffffffffffffffffffffff1673ffffffffffffffffffffffffffffffffffffffff1681526020019081526020015f205f3373ffffffffffffffffffffffffffffffffffffffff1673ffffffffffffffffffffffffffffffffffffffff1681526020019081526020015f205f82825461062c9190611083565b925050819055508160035f8673ffffffffffffffffffffffffffffffffffffffff1673ffffffffffffffffffffffffffffffffffffffff1681526020019081526020015f205f82825461067f9190611083565b925050819055508160035f8573ffffffffffffffffffffffffffffffffffffffff1673ffffffffffffffffffffffffffffffffffffffff1681526020019081526020015f205f8282546106d291906110b6565b925050819055508273ffffffffffffffffffffffffffffffffffffffff168473ffffffffffffffffffffffffffffffffffffffff167fddf252ad1be2c89b69c2b068fc378daa952ba7f163c4a11628f55a4df523b3ef846040516107369190610ef3565b60405180910390a3600190509392505050565b601281565b7f000000000000000000000000000000000000000000000000000000000000000073ffffffffffffffffffffffffffffffffffffffff163373ffffffffffffffffffffffffffffffffffffffff16146107d3576040517ff8d2906c00000000000000000000000000000000000000000000000000000000815260040160405180910390fd5b8060025f8282546107e491906110b6565b925050819055508060035f8473ffffffffffffffffffffffffffffffffffffffff1673ffffffffffffffffffffffffffffffffffffffff1681526020019081526020015f205f82825461083791906110b6565b925050819055508173ffffffffffffffffffffffffffffffffffffffff165f73ffffffffffffffffffffffffffffffffffffffff167fddf252ad1be2c89b69c2b068fc378daa952ba7f163c4a11628f55a4df523b3ef8360405161089b9190610ef3565b60405180910390a35050565b6003602052805f5260405f205f915090505481565b600180546108c990611026565b80601f01602080910402602001604051908101604052809291908181526020018280546108f590611026565b80156109405780601f1061091757610100808354040283529160200191610940565b820191905f5260205f20905b81548152906001019060200180831161092357829003601f168201915b505050505081565b7f000000000000000000000000000000000000000000000000000000000000000073ffffffffffffffffffffffffffffffffffffffff163373ffffffffffffffffffffffffffffffffffffffff16146109cd576040517ff8d2906c00000000000000000000000000000000000000000000000000000000815260040160405180910390fd5b8060035f8473ffffffffffffffffffffffffffffffffffffffff1673ffffffffffffffffffffffffffffffffffffffff1681526020019081526020015f20541015610a44576040517ff4d678b800000000000000000000000000000000000000000000000000000000815260040160405180910390fd5b8060025f828254610a559190611083565b925050819055508060035f8473ffffffffffffffffffffffffffffffffffffffff1673ffffffffffffffffffffffffffffffffffffffff1681526020019081526020015f205f828254610aa89190611083565b925050819055505f73ffffffffffffffffffffffffffffffffffffffff168273ffffffffffffffffffffffffffffffffffffffff167fddf252ad1be2c89b69c2b068fc378daa952ba7f163c4a11628f55a4df523b3ef83604051610b0c9190610ef3565b60405180910390a35050565b5f5f73ffffffffffffffffffffffffffffffffffffffff168373ffffffffffffffffffffffffffffffffffffffff1603610b7e576040517fd92e233d00000000000000000000000000000000000000000000000000000000815260040160405180910390fd5b8160035f3373ffffffffffffffffffffffffffffffffffffffff1673ffffffffffffffffffffffffffffffffffffffff1681526020019081526020015f20541015610bf5576040517ff4d678b800000000000000000000000000000000000000000000000000000000815260040160405180910390fd5b8160035f3373ffffffffffffffffffffffffffffffffffffffff1673ffffffffffffffffffffffffffffffffffffffff1681526020019081526020015f205f828254610c419190611083565b925050819055508160035f8573ffffffffffffffffffffffffffffffffffffffff1673ffffffffffffffffffffffffffffffffffffffff1681526020019081526020015f205f828254610c9491906110b6565b925050819055508273ffffffffffffffffffffffffffffffffffffffff163373ffffffffffffffffffffffffffffffffffffffff167fddf252ad1be2c89b69c2b068fc378daa952ba7f163c4a11628f55a4df523b3ef84604051610cf89190610ef3565b60405180910390a36001905092915050565b6004602052815f5260405f20602052805f5260405f205f91509150505481565b5f81519050919050565b5f82825260208201905092915050565b8281835e5f83830152505050565b5f601f19601f8301169050919050565b5f610d6c82610d2a565b610d768185610d34565b9350610d86818560208601610d44565b610d8f81610d52565b840191505092915050565b5f6020820190508181035f830152610db28184610d62565b905092915050565b5f73ffffffffffffffffffffffffffffffffffffffff82169050919050565b5f610de382610dba565b9050919050565b610df381610dd9565b82525050565b5f602082019050610e0c5f830184610dea565b92915050565b5f5ffd5b610e1f81610dd9565b8114610e29575f5ffd5b50565b5f81359050610e3a81610e16565b92915050565b5f819050919050565b610e5281610e40565b8114610e5c575f5ffd5b50565b5f81359050610e6d81610e49565b92915050565b5f5f60408385031215610e8957610e88610e12565b5b5f610e9685828601610e2c565b9250506020610ea785828601610e5f565b9150509250929050565b5f8115159050919050565b610ec581610eb1565b82525050565b5f602082019050610ede5f830184610ebc565b92915050565b610eed81610e40565b82525050565b5f602082019050610f065f830184610ee4565b92915050565b5f5f5f60608486031215610f2357610f22610e12565b5b5f610f3086828701610e2c565b9350506020610f4186828701610e2c565b9250506040610f5286828701610e5f565b9150509250925092565b5f60ff82169050919050565b610f7181610f5c565b82525050565b5f602082019050610f8a5f830184610f68565b92915050565b5f60208284031215610fa557610fa4610e12565b5b5f610fb284828501610e2c565b91505092915050565b5f5f60408385031215610fd157610fd0610e12565b5b5f610fde85828601610e2c565b9250506020610fef85828601610e2c565b9150509250929050565b7f4e487b71000000000000000000000000000000000000000000000000000000005f52602260045260245ffd5b5f600282049050600182168061103d57607f821691505b6020821081036110505761104f610ff9565b5b50919050565b7f4e487b71000000000000000000000000000000000000000000000000000000005f52601160045260245ffd5b5f61108d82610e40565b915061109883610e40565b92508282039050818111156110b0576110af611056565b5b92915050565b5f6110c082610e40565b91506110cb83610e40565b92508282019050808211156110e3576110e2611056565b5b9291505056fea2646970667358221220f814e527ea7e07c0a828e22a70743011a1bfcf71b9dfe9c13959eadae93b32b964736f6c63430008210033a2646970667358221220928f2429374ffb050c0d52db9eb262a748831fc69fb919adf4b320b9ad48cfb664736f6c63430008210033","linkReferences":{}},"methodIdentifiers":{"admin()":"f851a440","assets(bytes32)":"9fda5b66","delistAsset(string)":"0f56add4","getAsset(string)":"cd5286d0","keyToTicker(bytes32)":"0b2262c6","listAsset(string,string,address)":"9b7fd154","listedCount()":"f36065b3","listedKeys(uint256)":"ccceb569","setAdmin(address)":"704b6c02"},"id":38}