{"abi":[{"type":"constructor","inputs":[{"name":"_asset","type":"address","internalType":"address"},{"name":"_strategy","type":"address","internalType":"address"},{"name":"_ubiFee","type":"address","internalType":"address"},{"name":"_name","type":"string","internalType":"string"},{"name":"_symbol","type":"string","internalType":"string"},{"name":"_depositCap","type":"uint256","internalType":"uint256"}],"stateMutability":"nonpayable"},{"type":"function","name":"acceptAdmin","inputs":[],"outputs":[],"stateMutability":"nonpayable"},{"type":"function","name":"admin","inputs":[],"outputs":[{"name":"","type":"address","internalType":"address"}],"stateMutability":"view"},{"type":"function","name":"allowance","inputs":[{"name":"","type":"address","internalType":"address"},{"name":"","type":"address","internalType":"address"}],"outputs":[{"name":"","type":"uint256","internalType":"uint256"}],"stateMutability":"view"},{"type":"function","name":"approve","inputs":[{"name":"spender","type":"address","internalType":"address"},{"name":"amount","type":"uint256","internalType":"uint256"}],"outputs":[{"name":"","type":"bool","internalType":"bool"}],"stateMutability":"nonpayable"},{"type":"function","name":"asset","inputs":[],"outputs":[{"name":"","type":"address","internalType":"contract IERC20"}],"stateMutability":"view"},{"type":"function","name":"balanceOf","inputs":[{"name":"","type":"address","internalType":"address"}],"outputs":[{"name":"","type":"uint256","internalType":"uint256"}],"stateMutability":"view"},{"type":"function","name":"convertToAssets","inputs":[{"name":"shares","type":"uint256","internalType":"uint256"}],"outputs":[{"name":"","type":"uint256","internalType":"uint256"}],"stateMutability":"view"},{"type":"function","name":"convertToShares","inputs":[{"name":"assets","type":"uint256","internalType":"uint256"}],"outputs":[{"name":"","type":"uint256","internalType":"uint256"}],"stateMutability":"view"},{"type":"function","name":"decimals","inputs":[],"outputs":[{"name":"","type":"uint8","internalType":"uint8"}],"stateMutability":"view"},{"type":"function","name":"deposit","inputs":[{"name":"assets","type":"uint256","internalType":"uint256"},{"name":"receiver","type":"address","internalType":"address"}],"outputs":[{"name":"shares","type":"uint256","internalType":"uint256"}],"stateMutability":"nonpayable"},{"type":"function","name":"depositCap","inputs":[],"outputs":[{"name":"","type":"uint256","internalType":"uint256"}],"stateMutability":"view"},{"type":"function","name":"emergencyShutdown","inputs":[],"outputs":[],"stateMutability":"nonpayable"},{"type":"function","name":"harvest","inputs":[],"outputs":[{"name":"profit","type":"uint256","internalType":"uint256"},{"name":"loss","type":"uint256","internalType":"uint256"}],"stateMutability":"nonpayable"},{"type":"function","name":"lastReport","inputs":[],"outputs":[{"name":"","type":"uint256","internalType":"uint256"}],"stateMutability":"view"},{"type":"function","name":"managementFeeBPS","inputs":[],"outputs":[{"name":"","type":"uint256","internalType":"uint256"}],"stateMutability":"view"},{"type":"function","name":"maxDeposit","inputs":[{"name":"","type":"address","internalType":"address"}],"outputs":[{"name":"","type":"uint256","internalType":"uint256"}],"stateMutability":"view"},{"type":"function","name":"maxWithdraw","inputs":[{"name":"owner","type":"address","internalType":"address"}],"outputs":[{"name":"","type":"uint256","internalType":"uint256"}],"stateMutability":"view"},{"type":"function","name":"migrateStrategy","inputs":[{"name":"newStrategy","type":"address","internalType":"address"}],"outputs":[],"stateMutability":"nonpayable"},{"type":"function","name":"name","inputs":[],"outputs":[{"name":"","type":"string","internalType":"string"}],"stateMutability":"view"},{"type":"function","name":"paused","inputs":[],"outputs":[{"name":"","type":"bool","internalType":"bool"}],"stateMutability":"view"},{"type":"function","name":"pendingAdmin","inputs":[],"outputs":[{"name":"","type":"address","internalType":"address"}],"stateMutability":"view"},{"type":"function","name":"performanceFeeBPS","inputs":[],"outputs":[{"name":"","type":"uint256","internalType":"uint256"}],"stateMutability":"view"},{"type":"function","name":"previewDeposit","inputs":[{"name":"assets","type":"uint256","internalType":"uint256"}],"outputs":[{"name":"","type":"uint256","internalType":"uint256"}],"stateMutability":"view"},{"type":"function","name":"previewRedeem","inputs":[{"name":"shares","type":"uint256","internalType":"uint256"}],"outputs":[{"name":"","type":"uint256","internalType":"uint256"}],"stateMutability":"view"},{"type":"function","name":"previewWithdraw","inputs":[{"name":"assets","type":"uint256","internalType":"uint256"}],"outputs":[{"name":"","type":"uint256","internalType":"uint256"}],"stateMutability":"view"},{"type":"function","name":"redeem","inputs":[{"name":"shares","type":"uint256","internalType":"uint256"},{"name":"receiver","type":"address","internalType":"address"},{"name":"owner","type":"address","internalType":"address"}],"outputs":[{"name":"assets","type":"uint256","internalType":"uint256"}],"stateMutability":"nonpayable"},{"type":"function","name":"setDepositCap","inputs":[{"name":"_cap","type":"uint256","internalType":"uint256"}],"outputs":[],"stateMutability":"nonpayable"},{"type":"function","name":"setFees","inputs":[{"name":"_perfBPS","type":"uint256","internalType":"uint256"},{"name":"_mgmtBPS","type":"uint256","internalType":"uint256"}],"outputs":[],"stateMutability":"nonpayable"},{"type":"function","name":"strategy","inputs":[],"outputs":[{"name":"","type":"address","internalType":"address"}],"stateMutability":"view"},{"type":"function","name":"symbol","inputs":[],"outputs":[{"name":"","type":"string","internalType":"string"}],"stateMutability":"view"},{"type":"function","name":"totalAssets","inputs":[],"outputs":[{"name":"","type":"uint256","internalType":"uint256"}],"stateMutability":"view"},{"type":"function","name":"totalDebt","inputs":[],"outputs":[{"name":"","type":"uint256","internalType":"uint256"}],"stateMutability":"view"},{"type":"function","name":"totalGainSinceInception","inputs":[],"outputs":[{"name":"","type":"uint256","internalType":"uint256"}],"stateMutability":"view"},{"type":"function","name":"totalSupply","inputs":[],"outputs":[{"name":"","type":"uint256","internalType":"uint256"}],"stateMutability":"view"},{"type":"function","name":"totalUBIFunded","inputs":[],"outputs":[{"name":"","type":"uint256","internalType":"uint256"}],"stateMutability":"view"},{"type":"function","name":"transfer","inputs":[{"name":"to","type":"address","internalType":"address"},{"name":"amount","type":"uint256","internalType":"uint256"}],"outputs":[{"name":"","type":"bool","internalType":"bool"}],"stateMutability":"nonpayable"},{"type":"function","name":"transferAdmin","inputs":[{"name":"newAdmin","type":"address","internalType":"address"}],"outputs":[],"stateMutability":"nonpayable"},{"type":"function","name":"transferFrom","inputs":[{"name":"from","type":"address","internalType":"address"},{"name":"to","type":"address","internalType":"address"},{"name":"amount","type":"uint256","internalType":"uint256"}],"outputs":[{"name":"","type":"bool","internalType":"bool"}],"stateMutability":"nonpayable"},{"type":"function","name":"ubiFee","inputs":[],"outputs":[{"name":"","type":"address","internalType":"contract IUBIFeeSplitter"}],"stateMutability":"view"},{"type":"function","name":"unpause","inputs":[],"outputs":[],"stateMutability":"nonpayable"},{"type":"function","name":"withdraw","inputs":[{"name":"assets","type":"uint256","internalType":"uint256"},{"name":"receiver","type":"address","internalType":"address"},{"name":"owner","type":"address","internalType":"address"}],"outputs":[{"name":"shares","type":"uint256","internalType":"uint256"}],"stateMutability":"nonpayable"},{"type":"event","name":"Approval","inputs":[{"name":"owner","type":"address","indexed":true,"internalType":"address"},{"name":"spender","type":"address","indexed":true,"internalType":"address"},{"name":"value","type":"uint256","indexed":false,"internalType":"uint256"}],"anonymous":false},{"type":"event","name":"Deposit","inputs":[{"name":"sender","type":"address","indexed":true,"internalType":"address"},{"name":"owner","type":"address","indexed":true,"internalType":"address"},{"name":"assets","type":"uint256","indexed":false,"internalType":"uint256"},{"name":"shares","type":"uint256","indexed":false,"internalType":"uint256"}],"anonymous":false},{"type":"event","name":"EmergencyShutdown","inputs":[{"name":"returned","type":"uint256","indexed":false,"internalType":"uint256"}],"anonymous":false},{"type":"event","name":"Harvested","inputs":[{"name":"profit","type":"uint256","indexed":false,"internalType":"uint256"},{"name":"loss","type":"uint256","indexed":false,"internalType":"uint256"},{"name":"ubiFee","type":"uint256","indexed":false,"internalType":"uint256"},{"name":"mgmtFee","type":"uint256","indexed":false,"internalType":"uint256"}],"anonymous":false},{"type":"event","name":"StrategyMigrated","inputs":[{"name":"oldStrategy","type":"address","indexed":true,"internalType":"address"},{"name":"newStrategy","type":"address","indexed":true,"internalType":"address"}],"anonymous":false},{"type":"event","name":"Transfer","inputs":[{"name":"from","type":"address","indexed":true,"internalType":"address"},{"name":"to","type":"address","indexed":true,"internalType":"address"},{"name":"value","type":"uint256","indexed":false,"internalType":"uint256"}],"anonymous":false},{"type":"event","name":"Withdraw","inputs":[{"name":"sender","type":"address","indexed":true,"internalType":"address"},{"name":"receiver","type":"address","indexed":true,"internalType":"address"},{"name":"owner","type":"address","indexed":true,"internalType":"address"},{"name":"assets","type":"uint256","indexed":false,"internalType":"uint256"},{"name":"shares","type":"uint256","indexed":false,"internalType":"uint256"}],"anonymous":false},{"type":"error","name":"DepositCapExceeded","inputs":[]},{"type":"error","name":"InsufficientAllowance","inputs":[]},{"type":"error","name":"InsufficientBalance","inputs":[]},{"type":"error","name":"NotAdmin","inputs":[]},{"type":"error","name":"Paused","inputs":[]},{"type":"error","name":"StrategyAssetMismatch","inputs":[]},{"type":"error","name":"ZeroAssets","inputs":[]},{"type":"error","name":"ZeroShares","inputs":[]}],"bytecode":{"object":"0x60a08060405234610282576121a0803803809161001c828561049c565b8339810160c08282031261028257610033826104bf565b90610040602084016104bf565b9161004d604085016104bf565b60608501519092906001600160401b038111610282578161006f9187016104d3565b60808601519091906001600160401b0381116102825760a0916100939188016104d3565b9501516107d060095560c8600a556001600160a01b039283166080819052600680546001600160a01b03199081169786169788179091556005805490911695909416949094179092558051929392906001600160401b03821161039b575f5490600182811c92168015610492575b602083101461037d5781601f84931161041d575b50602090601f83116001146103ba575f926103af575b50508160011b915f199060031b1c1916175f555b83516001600160401b03811161039b57600154600181811c91168015610391575b602082101461037d57601f811161030f575b506020601f82116001146102a45790806020949392600496975f92610299575b50508160011b915f199060031b1c1916176001555b600b55600780546001600160a01b0319163317905542600d556040516338d52e0f60e01b815292839182905afa90811561028e575f91610250575b506001600160a01b03160361024157604051611c7790816105298239608051818181610265015281816105820152818161074001528181610bd401528181610ef80152818161110e0152818161176b0152818161196c0152611ad80152f35b636bda787360e11b5f5260045ffd5b90506020813d602011610286575b8161026b6020938361049c565b810103126102825761027c906104bf565b5f6101e2565b5f80fd5b3d915061025e565b6040513d5f823e3d90fd5b015190505f80610192565b601f1982169560015f52815f20965f5b8181106102f7575096600192849260209796956004999a106102df575b505050811b016001556101a7565b01515f1960f88460031b161c191690555f80806102d1565b838301518955600190980197602093840193016102b4565b818111156101725760015f52601f820160051c7fb10e2d527612073b26eecdfd717e6a320cf44b4afac2b0732d9fcbe2b7fa0cf660208410610375575b81601f9101920160051c03905f5b828110610368575050610172565b5f8282015560010161035a565b5f915061034c565b634e487b7160e01b5f52602260045260245ffd5b90607f1690610160565b634e487b7160e01b5f52604160045260245ffd5b015190505f8061012b565b5f8080528281209350601f198516905b81811061040557509084600195949392106103ed575b505050811b015f5561013f565b01515f1960f88460031b161c191690555f80806103e0565b929360206001819287860151815501950193016103ca565b82811115610115575f8052909150601f830160051c7f290decd9548b62a8d60345a988386fc84ba6bc95484008f6362f93160ef3e5636020851061048a575b849392601f0160051c82900391015f5b82811061047a575050610115565b5f8183015585945060010161046c565b5f915061045c565b91607f1691610101565b601f909101601f19168101906001600160401b0382119082101761039b57604052565b51906001600160a01b038216820361028257565b81601f82011215610282578051906001600160401b03821161039b5760405192610507601f8401601f19166020018561049c565b8284526020838301011161028257815f9260208093018386015e830101529056fe60806040526004361015610011575f80fd5b5f5f3560e01c806301e1d1141461164f57806306fdde031461155e57806307a2d13a14611540578063095ea7b3146114c75780630a28a477146114a95780630b78f9c0146114075780630e18b6811461139357806314424a581461137657806318160ddd1461135957806323b872dd146112595780632678224714611231578063313ce567146112165780633403c2fc1461113d57806338d52e0f146110f95780633f4ba83a146110bc578063402d267d1461109857806343fda031146110705780634641257d14610d2f5780634cdad50614610d105780635c975abb14610ced5780636e553f6514610b5357806370a0823114610b1a57806375829def14610acb5780638581ddf514610aad5780638665120314610a7157806395d89b4114610968578063a8c62e761461093f578063a9059cbb1461089e578063ac32416614610880578063b460af94146106b8578063ba087652146104f1578063c3535b52146104d3578063c6e6f592146103e3578063ce96cb7714610499578063d7c16b801461047b578063dbd5edc71461045d578063dd62ed3e1461040a578063ef8b30f7146103e3578063f851a440146103ba578063fafa6c69146101fd5763fc7b9c18146101dd575f80fd5b346101fa57806003193601126101fa576020600c54604051908152f35b80fd5b50346101fa5760203660031901126101fa576102176116c9565b6007546001600160a01b031633036103ab576040516338d52e0f60e01b81526001600160a01b039190911690602081600481855afa9081156103a057839161035a575b506001600160a01b037f0000000000000000000000000000000000000000000000000000000000000000811691160361034b5760018060a01b0360065416600c546102e1575b600680546001600160a01b031916831790556102ba611957565b7f100b69bb6b504e1252e36b375233158edee64d071b399e2f81473a695fd1b0218380a380f35b6040516336cb886f60e21b815260208160048187865af180156103405761030d575b5082600c556102a0565b6020813d602011610338575b8161032660209383611669565b810103126103345751610303565b5f80fd5b3d9150610319565b6040513d86823e3d90fd5b636bda787360e11b8252600482fd5b90506020813d602011610398575b8161037560209383611669565b8101031261039457516001600160a01b0381168103610394575f61025a565b8280fd5b3d9150610368565b6040513d85823e3d90fd5b637bfa4b9f60e01b8252600482fd5b50346101fa57806003193601126101fa576007546040516001600160a01b039091168152602090f35b50346101fa5760203660031901126101fa576020610402600435611939565b604051908152f35b50346101fa5760403660031901126101fa5760406104266116c9565b9161042f6116df565b9260018060a01b031681526004602052209060018060a01b03165f52602052602060405f2054604051908152f35b50346101fa57806003193601126101fa576020600b54604051908152f35b50346101fa57806003193601126101fa576020600e54604051908152f35b50346101fa5760203660031901126101fa57602090610402906040906001600160a01b036104c56116c9565b168152600384522054611886565b50346101fa57806003193601126101fa576020600d54604051908152f35b50346101fa57610500366116f5565b909180156106a95761051181611886565b92831561069a576001600160a01b0383169233849003610643575b83865260036020528260408720541061063457826105529161054d87611abd565b611bd5565b60405163a9059cbb60e01b81526001600160a01b03821660048201526024810185905260208180604481010381897f00000000000000000000000000000000000000000000000000000000000000006001600160a01b03165af1801561062957602096506105fe575b50604051918483528583015260018060a01b0316907ffbde797d201c681b91056529119e0b02407c7bb96a4a2c75c01fc9667232c8db60403392a4604051908152f35b61061d90863d8811610622575b6106158183611669565b810190611921565b6105bb565b503d61060b565b6040513d88823e3d90fd5b631e9acf1760e31b8652600486fd5b838652600460209081526040808820335f908152925290205483811061068b578361066d916118a9565b848752600460209081526040808920335f908152925290205561052c565b6313be252b60e01b8752600487fd5b630cb65c7760e21b8552600485fd5b639811e0c760e01b8452600484fd5b50346101fa576106c7366116f5565b90918015610871576002548061081f575080925b6001600160a01b03831692338490036107d7575b83865260036020528460408720541061063457846107109161054d85611abd565b60405163a9059cbb60e01b81526001600160a01b03821660048201526024810183905260208180604481010381897f00000000000000000000000000000000000000000000000000000000000000006001600160a01b03165af1801561062957602096506107bc575b50604051918252838583015260018060a01b0316907ffbde797d201c681b91056529119e0b02407c7bb96a4a2c75c01fc9667232c8db60403392a4604051908152f35b6107d290863d8811610622576106158183611669565b610779565b838652600460209081526040808820335f908152925290205485811061068b5785610801916118a9565b848752600460209081526040808920335f90815292529020556106ef565b61082c61083a9183611855565b610834611750565b9061172f565b5f19810190811161085d5761085790610851611750565b90611868565b926106db565b634e487b7160e01b85526011600452602485fd5b630cb65c7760e21b8452600484fd5b50346101fa57806003193601126101fa576020600954604051908152f35b50346101fa5760403660031901126101fa576108b86116c9565b602435903383526003602052816040842054106109305760409033845260036020528184206108e88482546118a9565b90556001600160a01b031680845260036020529220805461090a90839061172f565b90556040519081525f516020611c225f395f51905f5260203392a3602060405160018152f35b631e9acf1760e31b8352600483fd5b50346101fa57806003193601126101fa576006546040516001600160a01b039091168152602090f35b50346101fa57806003193601126101fa576040519080600154908160011c91600181168015610a67575b602084108114610a5357838652908115610a2c57506001146109cf575b6109cb846109bf81860382611669565b6040519182918261169f565b0390f35b600181527fb10e2d527612073b26eecdfd717e6a320cf44b4afac2b0732d9fcbe2b7fa0cf6939250905b808210610a12575090915081016020016109bf826109af565b9192600181602092548385880101520191019092916109f9565b60ff191660208087019190915292151560051b850190920192506109bf91508390506109af565b634e487b7160e01b83526022600452602483fd5b92607f1692610992565b50346101fa5760203660031901126101fa576007546001600160a01b03163303610a9e57600435600b5580f35b637bfa4b9f60e01b8152600490fd5b50346101fa57806003193601126101fa576020600f54604051908152f35b50346101fa5760203660031901126101fa57610ae56116c9565b6007546001600160a01b031633036103ab5760018060a01b03166bffffffffffffffffffffffff60a01b600854161760085580f35b50346101fa5760203660031901126101fa576020906040906001600160a01b03610b426116c9565b168152600383522054604051908152f35b50346101fa5760403660031901126101fa57600435610b706116df565b9160ff60105416610cde578115610ccf57610b8a82611939565b918215610cc057610ba281610b9d611750565b61172f565b600b5410610cb1576040516323b872dd60e01b81523360048201523060248201526044810182905293602085606481867f00000000000000000000000000000000000000000000000000000000000000006001600160a01b03165af19485156103a057602095610c96575b50610c1a8460025461172f565b60025560018060a01b031682818094526003865260408120610c3d86825461172f565b90555f516020611c225f395f51905f5286604051878152a3610c5d611957565b60405190815282848201527fdcbc1c05240f31ff3ad067ef1ee35ce4997762752e3a095284754544f4c709d760403392a3604051908152f35b610cac90863d8811610622576106158183611669565b610c0d565b6324d758c360e21b8252600482fd5b639811e0c760e01b8252600482fd5b630cb65c7760e21b8152600490fd5b6313d0ff5960e31b8152600490fd5b50346101fa57806003193601126101fa57602060ff601054166040519015158152f35b50346101fa5760203660031901126101fa576020610402600435611886565b34610334575f3660031901126103345760065460408051634641257d60e01b815291829060049082905f906001600160a01b03165af1908115610fd8575f905f92611036575b505f5f82610de6575b608084927f4c0f499ffe6befa0ca7c826b0916cf87bea98de658013e76938489368d60d50992604096610dd2575b42600d55865191868352856020840152878301526060820152a182519182526020820152f35b610dde85600c546118a9565b600c55610dac565b5050612710610df760095483611855565b049164496cebb800610e22610e0e600d54426118a9565b610e1d600c54600a5490611855565b611855565b04610e2d818561172f565b83811161102f575b80610e85575b6040947f4c0f499ffe6befa0ca7c826b0916cf87bea98de658013e76938489368d60d50992610e77610e6f608094886118a9565b600e5461172f565b600e55925092945050610d7e565b600654604051632e1a7d4d60e01b81526004810183905290602090829060249082905f906001600160a01b03165af18015610fd857611000575b50610ecc81600c546118a9565b600c5560055460405163095ea7b360e01b81526001600160a01b039182166004820152602481018390527f000000000000000000000000000000000000000000000000000000000000000090911695906020816044815f8b5af18015610fd857610fe3575b506005546001600160a01b031695863b15610334575f9660648892604051998a9384926357812d3160e01b845260048401528760248401523060448401525af1928315610fd857610e77610e6f6080946040997f4c0f499ffe6befa0ca7c826b0916cf87bea98de658013e76938489368d60d50997610fc8575b50610fb881600f5461172f565b600f559450505092509450610e3b565b5f610fd291611669565b5f610fab565b6040513d5f823e3d90fd5b610ffb9060203d602011610622576106158183611669565b610f31565b6020813d602011611027575b8161101960209383611669565b810103126103345751610ebf565b3d915061100c565b5082610e35565b9150506040813d604011611068575b8161105260409383611669565b8101031261033457602081519101519082610d75565b3d9150611045565b34610334575f366003190112610334576005546040516001600160a01b039091168152602090f35b34610334576020366003190112610334576110b16116c9565b5060206104026118f1565b34610334575f366003190112610334576007546001600160a01b031633036110ea576010805460ff19169055005b637bfa4b9f60e01b5f5260045ffd5b34610334575f366003190112610334576040517f00000000000000000000000000000000000000000000000000000000000000006001600160a01b03168152602090f35b34610334575f366003190112610334576007546001600160a01b031633036110ea57600160ff1960105416176010555f600c546111a2575b60207f5107bb6a8ff24e65eb96e6007aa42503de321b5fccfda5ba2eafbbf8ee5fd36091604051908152a1005b506006546040516336cb886f60e21b815290602090829060049082905f906001600160a01b03165af1908115610fd8575f916111e3575b505f600c55611175565b90506020813d60201161120e575b816111fe60209383611669565b81010312610334575160206111d9565b3d91506111f1565b34610334575f36600319011261033457602060405160128152f35b34610334575f366003190112610334576008546040516001600160a01b039091168152602090f35b34610334576060366003190112610334576112726116c9565b61127a6116df565b6001600160a01b039091165f818152600460209081526040808320338452909152902054604435929083811061134a57825f5260036020528360405f20541061133b575f516020611c225f395f51905f52916112d8856020936118a9565b5f858152600484526040808220338352855280822092909255858152600384522080546113069087906118a9565b905560018060a01b031693845f526003825260405f2061132782825461172f565b9055604051908152a3602060405160018152f35b631e9acf1760e31b5f5260045ffd5b6313be252b60e01b5f5260045ffd5b34610334575f366003190112610334576020600254604051908152f35b34610334575f366003190112610334576020600a54604051908152f35b34610334575f366003190112610334576008546001600160a01b038116338190036113d457600780546001600160a01b031990811692909217905516600855005b60405162461bcd60e51b815260206004820152600b60248201526a6e6f742070656e64696e6760a81b6044820152606490fd5b346103345760403660031901126103345760075460243590600435906001600160a01b031633036110ea57611388811161147a576101f4821161144c57600955600a55005b60405162461bcd60e51b81526020600482015260066024820152656d617820352560d01b6044820152606490fd5b60405162461bcd60e51b81526020600482015260076024820152666d61782035302560c81b6044820152606490fd5b346103345760203660031901126103345760206104026004356118b6565b34610334576040366003190112610334576114e06116c9565b335f8181526004602090815260408083206001600160a01b03909516808452948252918290206024359081905591519182527f8c5be1e5ebec7d5bd14f71427d1e84f3dd0314c0f7b2291e5b200ac8c7c3b92591a3602060405160018152f35b34610334576020366003190112610334576020610402600435611886565b34610334575f366003190112610334576040515f5f548060011c90600181168015611645575b6020831081146116315782855290811561160d57506001146115b1575b6109cb836109bf81850382611669565b5f8080527f290decd9548b62a8d60345a988386fc84ba6bc95484008f6362f93160ef3e563939250905b8082106115f3575090915081016020016109bf6115a1565b9192600181602092548385880101520191019092916115db565b60ff191660208086019190915291151560051b840190910191506109bf90506115a1565b634e487b7160e01b5f52602260045260245ffd5b91607f1691611584565b34610334575f366003190112610334576020610402611750565b90601f8019910116810190811067ffffffffffffffff82111761168b57604052565b634e487b7160e01b5f52604160045260245ffd5b602060409281835280519182918282860152018484015e5f828201840152601f01601f1916010190565b600435906001600160a01b038216820361033457565b602435906001600160a01b038216820361033457565b606090600319011261033457600435906024356001600160a01b038116810361033457906044356001600160a01b03811681036103345790565b9190820180921161173c57565b634e487b7160e01b5f52601160045260245ffd5b6040516370a0823160e01b81523060048201526020816024817f00000000000000000000000000000000000000000000000000000000000000006001600160a01b03165afa908115610fd8575f91611823575b506006546001600160a01b0316801561181f57906020600492604051938480926278744560e21b82525afa908115610fd8575f916117e9575b6117e6925061172f565b90565b90506020823d602011611817575b8161180460209383611669565b81010312610334576117e69151906117dc565b3d91506117f7565b5090565b90506020813d60201161184d575b8161183e60209383611669565b8101031261033457515f6117a3565b3d9150611831565b8181029291811591840414171561173c57565b8115611872570490565b634e487b7160e01b5f52601260045260245ffd5b600254801561181f576118a46117e69261189e611750565b90611855565b611868565b9190820391821161173c57565b6002549081156118ec576118d790610b9d6118cf611750565b938492611855565b5f1981019190821161173c576117e691611868565b905090565b60ff6010541661191d57611903611750565b600b54908181106119145750505f90565b6117e6916118a9565b5f90565b90816020910312610334575180151581036103345790565b600254801561181f5761194f906117e692611855565b610851611750565b6040516370a0823160e01b81523060048201527f00000000000000000000000000000000000000000000000000000000000000006001600160a01b0316602082602481845afa918215610fd8575f92611a89575b5081151580611a7c575b6119bd575050565b60065460405163095ea7b360e01b81526001600160a01b0390911660048201526024810183905290602090829060449082905f905af18015610fd857611a5f575b506006546001600160a01b031690813b15610334575f809260246040518095819363b6b55f2560e01b83528660048401525af1918215610fd857611a4a92611a4f575b50600c5461172f565b600c55565b5f611a5991611669565b5f611a41565b611a779060203d602011610622576106158183611669565b6119fe565b5060ff60105416156119b5565b9091506020813d602011611ab5575b81611aa560209383611669565b810103126103345751905f6119ab565b3d9150611a98565b6040516370a0823160e01b81523060048201526020816024817f00000000000000000000000000000000000000000000000000000000000000006001600160a01b03165afa908115610fd8575f91611ba3575b50818110611b1c575050565b611b296020915f936118a9565b600654604051632e1a7d4d60e01b815260048101929092529092839160249183916001600160a01b03165af18015610fd8575f90611b6f575b611a4a9150600c546118a9565b506020813d602011611b9b575b81611b8960209383611669565b8101031261033457611a4a9051611b62565b3d9150611b7c565b90506020813d602011611bcd575b81611bbe60209383611669565b8101031261033457515f611b10565b3d9150611bb1565b905f516020611c225f395f51905f5260205f9360018060a01b0316928385526003825260408520611c078282546118a9565b9055611c15816002546118a9565b600255604051908152a356feddf252ad1be2c89b69c2b068fc378daa952ba7f163c4a11628f55a4df523b3efa2646970667358221220779253020ac58c6a262da14235ee92e29f30958656e9508f6090312a61a6240e64736f6c63430008210033","linkReferences":{}},"methodIdentifiers":{"acceptAdmin()":"0e18b681","admin()":"f851a440","allowance(address,address)":"dd62ed3e","approve(address,uint256)":"095ea7b3","asset()":"38d52e0f","balanceOf(address)":"70a08231","convertToAssets(uint256)":"07a2d13a","convertToShares(uint256)":"c6e6f592","decimals()":"313ce567","deposit(uint256,address)":"6e553f65","depositCap()":"dbd5edc7","emergencyShutdown()":"3403c2fc","harvest()":"4641257d","lastReport()":"c3535b52","managementFeeBPS()":"14424a58","maxDeposit(address)":"402d267d","maxWithdraw(address)":"ce96cb77","migrateStrategy(address)":"fafa6c69","name()":"06fdde03","paused()":"5c975abb","pendingAdmin()":"26782247","performanceFeeBPS()":"ac324166","previewDeposit(uint256)":"ef8b30f7","previewRedeem(uint256)":"4cdad506","previewWithdraw(uint256)":"0a28a477","redeem(uint256,address,address)":"ba087652","setDepositCap(uint256)":"86651203","setFees(uint256,uint256)":"0b78f9c0","strategy()":"a8c62e76","symbol()":"95d89b41","totalAssets()":"01e1d114","totalDebt()":"fc7b9c18","totalGainSinceInception()":"d7c16b80","totalSupply()":"18160ddd","totalUBIFunded()":"8581ddf5","transfer(address,uint256)":"a9059cbb","transferAdmin(address)":"75829def","transferFrom(address,address,uint256)":"23b872dd","ubiFee()":"43fda031","unpause()":"3f4ba83a","withdraw(uint256,address,address)":"b460af94"},"id":97}