{"abi":[{"type":"constructor","inputs":[{"name":"_goodDollar","type":"address","internalType":"address"},{"name":"_feeSplitter","type":"address","internalType":"address"},{"name":"_admin","type":"address","internalType":"address"}],"stateMutability":"nonpayable"},{"type":"function","name":"EPOCH_DURATION","inputs":[],"outputs":[{"name":"","type":"uint256","internalType":"uint256"}],"stateMutability":"view"},{"type":"function","name":"admin","inputs":[],"outputs":[{"name":"","type":"address","internalType":"address"}],"stateMutability":"view"},{"type":"function","name":"batchClaim","inputs":[{"name":"users","type":"address[]","internalType":"address[]"}],"outputs":[{"name":"claimed","type":"uint256","internalType":"uint256"}],"stateMutability":"nonpayable"},{"type":"function","name":"canClaim","inputs":[{"name":"account","type":"address","internalType":"address"}],"outputs":[{"name":"","type":"bool","internalType":"bool"}],"stateMutability":"view"},{"type":"function","name":"claim","inputs":[],"outputs":[],"stateMutability":"nonpayable"},{"type":"function","name":"claimFor","inputs":[{"name":"user","type":"address","internalType":"address"}],"outputs":[],"stateMutability":"nonpayable"},{"type":"function","name":"currentEpoch","inputs":[],"outputs":[{"name":"","type":"uint256","internalType":"uint256"}],"stateMutability":"view"},{"type":"function","name":"feeSplitter","inputs":[],"outputs":[{"name":"","type":"address","internalType":"contract IUBIFeeSplitter"}],"stateMutability":"view"},{"type":"function","name":"goodDollar","inputs":[],"outputs":[{"name":"","type":"address","internalType":"contract IGoodDollarToken"}],"stateMutability":"view"},{"type":"function","name":"lastClaimEpoch","inputs":[{"name":"","type":"address","internalType":"address"}],"outputs":[{"name":"","type":"uint256","internalType":"uint256"}],"stateMutability":"view"},{"type":"function","name":"selfClaimEnabled","inputs":[],"outputs":[{"name":"","type":"bool","internalType":"bool"}],"stateMutability":"view"},{"type":"function","name":"setFeeSplitter","inputs":[{"name":"_feeSplitter","type":"address","internalType":"address"}],"outputs":[],"stateMutability":"nonpayable"},{"type":"function","name":"setRelayer","inputs":[{"name":"relayer","type":"address","internalType":"address"},{"name":"authorized","type":"bool","internalType":"bool"}],"outputs":[],"stateMutability":"nonpayable"},{"type":"function","name":"setSelfClaimEnabled","inputs":[{"name":"enabled","type":"bool","internalType":"bool"}],"outputs":[],"stateMutability":"nonpayable"},{"type":"function","name":"supplementPool","inputs":[],"outputs":[],"stateMutability":"nonpayable"},{"type":"function","name":"totalClaims","inputs":[],"outputs":[{"name":"","type":"uint256","internalType":"uint256"}],"stateMutability":"view"},{"type":"function","name":"totalMinted","inputs":[],"outputs":[{"name":"","type":"uint256","internalType":"uint256"}],"stateMutability":"view"},{"type":"function","name":"transferAdmin","inputs":[{"name":"newAdmin","type":"address","internalType":"address"}],"outputs":[],"stateMutability":"nonpayable"},{"type":"function","name":"trustedRelayers","inputs":[{"name":"","type":"address","internalType":"address"}],"outputs":[{"name":"","type":"bool","internalType":"bool"}],"stateMutability":"view"},{"type":"event","name":"AdminTransferred","inputs":[{"name":"oldAdmin","type":"address","indexed":true,"internalType":"address"},{"name":"newAdmin","type":"address","indexed":true,"internalType":"address"}],"anonymous":false},{"type":"event","name":"BatchClaimed","inputs":[{"name":"count","type":"uint256","indexed":false,"internalType":"uint256"},{"name":"totalAmount","type":"uint256","indexed":false,"internalType":"uint256"},{"name":"epoch","type":"uint256","indexed":false,"internalType":"uint256"}],"anonymous":false},{"type":"event","name":"RelayerSet","inputs":[{"name":"relayer","type":"address","indexed":true,"internalType":"address"},{"name":"authorized","type":"bool","indexed":false,"internalType":"bool"}],"anonymous":false},{"type":"event","name":"UBIClaimed","inputs":[{"name":"claimer","type":"address","indexed":true,"internalType":"address"},{"name":"amount","type":"uint256","indexed":false,"internalType":"uint256"},{"name":"epoch","type":"uint256","indexed":false,"internalType":"uint256"}],"anonymous":false},{"type":"error","name":"AlreadyClaimedThisEpoch","inputs":[{"name":"account","type":"address","internalType":"address"},{"name":"epoch","type":"uint256","internalType":"uint256"}]},{"type":"error","name":"NotAuthorizedRelayer","inputs":[]},{"type":"error","name":"NotVerifiedHuman","inputs":[{"name":"account","type":"address","internalType":"address"}]},{"type":"error","name":"SelfClaimDisabled","inputs":[]},{"type":"error","name":"ZeroAddress","inputs":[]}],"bytecode":{"object":"0x60a03461010957601f610dcc38819003918201601f19168301916001600160401b0383118484101761010d578084926060946040528339810103126101095761004781610121565b90610060604061005960208401610121565b9201610121565b6004805460ff19166001179055916001600160a01b0316801580156100f8575b6100e9576080525f80546001600160a01b039283166001600160a01b03199182161790915560018054939092169216919091179055604051610c96908161013682396080518181816101730152818161056f01528181610880015281816109760152610abb0152f35b63d92e233d60e01b5f5260045ffd5b506001600160a01b03831615610080565b5f80fd5b634e487b7160e01b5f52604160045260245ffd5b51906001600160a01b03821682036101095756fe6080806040526004361015610012575f80fd5b5f3560e01c908163119e5bf31461086e575080631b39786f1461085657806341c61383146108395780634e71d92d146108065780636052970c146107df57806375829def1461076757806376671808146107475780637c17ec0a14610702578063928d08c0146106ca578063a2309ff8146106ad578063a70b9f0c14610690578063b17fb9d61461062a578063b9b48f50146105ed578063bf3506c11461052b578063c3c6a40e14610509578063ddeae033146104d0578063ecd8dc3a14610446578063f851a4401461041e5763fb5f749f146100ed575f80fd5b346102be5760203660031901126102be5760043567ffffffffffffffff81116102be57366023820112156102be57806004013567ffffffffffffffff81116102be573660248260051b840101116102be57335f52600260205260ff60405f2054161561040f575f6103e882116103d857604051631c9b973760e21b8152620151804204937f00000000000000000000000000000000000000000000000000000000000000006001600160a01b0316929091602081600481875afa9081156102b3575f916103a6575b5090915f9190825b86841015610344576024600585901b830101356001600160a01b03811694908581036102be57851580156102e4575b80156102ce575b6102c257855f5260036020528960405f2055873b156102be576040516340c10f1960e01b81526001600160a01b03919091166004820152602481018590525f81604481838c5af180156102b3576102a3575b5083820180921161028f57600180929601947fa265860bad5040e1bef830652f782ec55a23a74fc92eb2c770e61d7d50cbb015604080518781528c6020820152a25b0192936101bd565b634e487b7160e01b5f52601160045260245ffd5b5f6102ad916108c5565b5f610245565b6040513d5f823e3d90fd5b5f80fd5b50600191959450610287565b50855f5260036020528960405f205410156101f3565b506040516263fa2760e01b8152600481018790526020816024818c5afa9081156102b3575f91610316575b50156101ec565b610337915060203d811161033d575b61032f81836108c5565b810190610a81565b5f61030f565b503d610325565b846020918982610359575b5050604051908152f35b7f61a5a92a0b111ed50938e8a2c768049e084bbdea9dd341cd1cdd47ba40cc54f6916060918460055401600555816006540160065560405191858352868301526040820152a1828061034f565b90506020813d6020116103d0575b816103c1602093836108c5565b810103126102be57515f6101b5565b3d91506103b4565b60405162461bcd60e51b815260206004820152600f60248201526e426174636820746f6f206c6172676560881b6044820152606490fd5b630bfd903360e11b5f5260045ffd5b346102be575f3660031901126102be576001546040516001600160a01b039091168152602090f35b346102be5760403660031901126102be5761045f6108af565b602435908115158092036102be5760207fee42947bc760229eeff964017ac68eddb00ba98b0defcd90a1bc85a5afceb057916104a660018060a01b03600154163314610a49565b60018060a01b031692835f526002825260405f2060ff1981541660ff8316179055604051908152a2005b346102be5760203660031901126102be576104e96108af565b335f52600260205260ff60405f2054161561040f5761050790610a99565b005b346102be575f3660031901126102be57602060ff600454166040519015158152f35b346102be5760203660031901126102be576105446108af565b6040516263fa2760e01b81526001600160a01b039182166004820181905291602090829060249082907f0000000000000000000000000000000000000000000000000000000000000000165afa9081156102b3575f916105ce575b50806105b3575b6020906040519015158152f35b505f526003602052602060405f2054620151804204116105a6565b6105e7915060203d60201161033d5761032f81836108c5565b8261059f565b346102be5760203660031901126102be576001600160a01b0361060e6108af565b165f526002602052602060ff60405f2054166040519015158152f35b346102be5760203660031901126102be576106436108af565b61065860018060a01b03600154163314610a49565b6001600160a01b03168015610681576bffffffffffffffffffffffff60a01b5f5416175f555f80f35b63d92e233d60e01b5f5260045ffd5b346102be575f3660031901126102be576020604051620151808152f35b346102be575f3660031901126102be576020600654604051908152f35b346102be5760203660031901126102be576001600160a01b036106eb6108af565b165f526003602052602060405f2054604051908152f35b346102be5760203660031901126102be576004358015158091036102be5761073560018060a01b03600154163314610a49565b60ff8019600454169116176004555f80f35b346102be575f3660031901126102be576020620151804204604051908152f35b346102be5760203660031901126102be576107806108af565b6001546001600160a01b03811691610799338414610a49565b6001600160a01b03169182156106815782907ff8ccb027dfcd135e000e9d45e6cc2d662578a8825d4c45b5e32e0adf67e79ec65f80a36001600160a01b03191617600155005b346102be575f3660031901126102be575f546040516001600160a01b039091168152602090f35b346102be575f3660031901126102be5760ff600454161561082a5761050733610a99565b631f18ee6160e11b5f5260045ffd5b346102be575f3660031901126102be576020600554604051908152f35b346102be575f3660031901126102be576105076108fb565b346102be575f3660031901126102be577f00000000000000000000000000000000000000000000000000000000000000006001600160a01b03168152602090f35b600435906001600160a01b03821682036102be57565b90601f8019910116810190811067ffffffffffffffff8211176108e757604052565b634e487b7160e01b5f52604160045260245ffd5b5f80546001600160a01b03168015610a455760405163c4f4542360e01b815290602082600481845afa9182156102b3575f92610a11575b508115610a0c57803b156102be5760405163212e7c3160e01b815230600482015260248101839052905f908290604490829084905af180156102b3576109f7575b507f00000000000000000000000000000000000000000000000000000000000000006001600160a01b031690813b156109f35782916024839260405194859384926383adc2ff60e01b845260048401525af180156109e8576109d3575050565b6109de8280926108c5565b6109e55750565b80fd5b6040513d84823e3d90fd5b8280fd5b610a049192505f906108c5565b5f905f610973565b505050565b9091506020813d602011610a3d575b81610a2d602093836108c5565b810103126102be5751905f610932565b3d9150610a20565b5050565b15610a5057565b60405162461bcd60e51b81526020600482015260096024820152682737ba1030b236b4b760b91b6044820152606490fd5b908160209103126102be575180151581036102be5790565b6040516263fa2760e01b81526001600160a01b038281166004830181905292917f000000000000000000000000000000000000000000000000000000000000000090911690602081602481855afa9081156102b3575f91610c41575b5015610c2e5762015180420490835f5260036020528160405f20541015610c1757835f5260036020528160405f205560405190631c9b973760e21b8252602082600481845afa9182156102b3575f92610be3575b50803b156102be576040516340c10f1960e01b81526001600160a01b03949094166004850152602484018290525f908490604490829084905af19182156102b3577fa265860bad5040e1bef830652f782ec55a23a74fc92eb2c770e61d7d50cbb01593604093610bd3575b50600160055401600555816006540160065582519182526020820152a2565b5f610bdd916108c5565b5f610bb4565b9091506020813d602011610c0f575b81610bff602093836108c5565b810103126102be5751905f610b49565b3d9150610bf2565b50826306b9852160e31b5f5260045260245260445ffd5b82633f40de5d60e21b5f5260045260245ffd5b610c5a915060203d60201161033d5761032f81836108c5565b5f610af556fea26469706673582212209435a5eb4a86318c86505a3062789897f3dc909a7303cc8e727e23387948c40064736f6c63430008210033","linkReferences":{}},"methodIdentifiers":{"EPOCH_DURATION()":"a70b9f0c","admin()":"f851a440","batchClaim(address[])":"fb5f749f","canClaim(address)":"bf3506c1","claim()":"4e71d92d","claimFor(address)":"ddeae033","currentEpoch()":"76671808","feeSplitter()":"6052970c","goodDollar()":"119e5bf3","lastClaimEpoch(address)":"928d08c0","selfClaimEnabled()":"c3c6a40e","setFeeSplitter(address)":"b17fb9d6","setRelayer(address,bool)":"ecd8dc3a","setSelfClaimEnabled(bool)":"7c17ec0a","supplementPool()":"1b39786f","totalClaims()":"41c61383","totalMinted()":"a2309ff8","transferAdmin(address)":"75829def","trustedRelayers(address)":"b9b48f50"},"id":23}