{"abi":[{"type":"constructor","inputs":[{"name":"_goodDollar","type":"address","internalType":"address"},{"name":"_feeSplitter","type":"address","internalType":"address"},{"name":"_admin","type":"address","internalType":"address"}],"stateMutability":"nonpayable"},{"type":"function","name":"EPOCH_DURATION","inputs":[],"outputs":[{"name":"","type":"uint256","internalType":"uint256"}],"stateMutability":"view"},{"type":"function","name":"admin","inputs":[],"outputs":[{"name":"","type":"address","internalType":"address"}],"stateMutability":"view"},{"type":"function","name":"batchClaim","inputs":[{"name":"users","type":"address[]","internalType":"address[]"}],"outputs":[{"name":"claimed","type":"uint256","internalType":"uint256"}],"stateMutability":"nonpayable"},{"type":"function","name":"canClaim","inputs":[{"name":"account","type":"address","internalType":"address"}],"outputs":[{"name":"","type":"bool","internalType":"bool"}],"stateMutability":"view"},{"type":"function","name":"claim","inputs":[],"outputs":[],"stateMutability":"nonpayable"},{"type":"function","name":"claimFor","inputs":[{"name":"user","type":"address","internalType":"address"}],"outputs":[],"stateMutability":"nonpayable"},{"type":"function","name":"currentEpoch","inputs":[],"outputs":[{"name":"","type":"uint256","internalType":"uint256"}],"stateMutability":"view"},{"type":"function","name":"feeSplitter","inputs":[],"outputs":[{"name":"","type":"address","internalType":"contract IUBIFeeSplitter"}],"stateMutability":"view"},{"type":"function","name":"goodDollar","inputs":[],"outputs":[{"name":"","type":"address","internalType":"contract IGoodDollarToken"}],"stateMutability":"view"},{"type":"function","name":"lastClaimEpoch","inputs":[{"name":"","type":"address","internalType":"address"}],"outputs":[{"name":"","type":"uint256","internalType":"uint256"}],"stateMutability":"view"},{"type":"function","name":"selfClaimEnabled","inputs":[],"outputs":[{"name":"","type":"bool","internalType":"bool"}],"stateMutability":"view"},{"type":"function","name":"setFeeSplitter","inputs":[{"name":"_feeSplitter","type":"address","internalType":"address"}],"outputs":[],"stateMutability":"nonpayable"},{"type":"function","name":"setRelayer","inputs":[{"name":"relayer","type":"address","internalType":"address"},{"name":"authorized","type":"bool","internalType":"bool"}],"outputs":[],"stateMutability":"nonpayable"},{"type":"function","name":"setSelfClaimEnabled","inputs":[{"name":"enabled","type":"bool","internalType":"bool"}],"outputs":[],"stateMutability":"nonpayable"},{"type":"function","name":"totalClaims","inputs":[],"outputs":[{"name":"","type":"uint256","internalType":"uint256"}],"stateMutability":"view"},{"type":"function","name":"totalMinted","inputs":[],"outputs":[{"name":"","type":"uint256","internalType":"uint256"}],"stateMutability":"view"},{"type":"function","name":"transferAdmin","inputs":[{"name":"newAdmin","type":"address","internalType":"address"}],"outputs":[],"stateMutability":"nonpayable"},{"type":"function","name":"trustedRelayers","inputs":[{"name":"","type":"address","internalType":"address"}],"outputs":[{"name":"","type":"bool","internalType":"bool"}],"stateMutability":"view"},{"type":"event","name":"AdminTransferred","inputs":[{"name":"oldAdmin","type":"address","indexed":true,"internalType":"address"},{"name":"newAdmin","type":"address","indexed":true,"internalType":"address"}],"anonymous":false},{"type":"event","name":"BatchClaimed","inputs":[{"name":"count","type":"uint256","indexed":false,"internalType":"uint256"},{"name":"totalAmount","type":"uint256","indexed":false,"internalType":"uint256"},{"name":"epoch","type":"uint256","indexed":false,"internalType":"uint256"}],"anonymous":false},{"type":"event","name":"RelayerSet","inputs":[{"name":"relayer","type":"address","indexed":true,"internalType":"address"},{"name":"authorized","type":"bool","indexed":false,"internalType":"bool"}],"anonymous":false},{"type":"event","name":"UBIClaimed","inputs":[{"name":"claimer","type":"address","indexed":true,"internalType":"address"},{"name":"amount","type":"uint256","indexed":false,"internalType":"uint256"},{"name":"epoch","type":"uint256","indexed":false,"internalType":"uint256"}],"anonymous":false},{"type":"error","name":"AlreadyClaimedThisEpoch","inputs":[{"name":"account","type":"address","internalType":"address"},{"name":"epoch","type":"uint256","internalType":"uint256"}]},{"type":"error","name":"NotAuthorizedRelayer","inputs":[]},{"type":"error","name":"NotVerifiedHuman","inputs":[{"name":"account","type":"address","internalType":"address"}]},{"type":"error","name":"SelfClaimDisabled","inputs":[]},{"type":"error","name":"ZeroAddress","inputs":[]}],"bytecode":{"object":"0x60a03461010257601f610c4c38819003918201601f19168301916001600160401b0383118484101761010657808492606094604052833981010312610102576100478161011a565b9061006060406100596020840161011a565b920161011a565b6004805460ff19166001179055916001600160a01b0316801580156100f1575b6100e2576080525f80546001600160a01b039283166001600160a01b03199182161790915560018054939092169216919091179055604051610b1d908161012f8239608051818181610168015281816105640152818161085501526109420152f35b63d92e233d60e01b5f5260045ffd5b506001600160a01b03831615610080565b5f80fd5b634e487b7160e01b5f52604160045260245ffd5b51906001600160a01b03821682036101025756fe6080806040526004361015610012575f80fd5b5f3560e01c908163119e5bf3146108435750806341c61383146108265780634e71d92d146107f35780636052970c146107cc57806375829def1461074557806376671808146107255780637c17ec0a146106e0578063928d08c0146106a8578063a2309ff81461068b578063a70b9f0c1461066e578063b17fb9d61461061f578063b9b48f50146105e2578063bf3506c114610520578063c3c6a40e146104fe578063ddeae033146104c5578063ecd8dc3a1461043b578063f851a440146104135763fb5f749f146100e2575f80fd5b346102b35760203660031901126102b35760043567ffffffffffffffff81116102b357366023820112156102b357806004013567ffffffffffffffff81116102b3573660248260051b840101116102b357335f52600260205260ff60405f20541615610404575f6103e882116103cd57604051631c9b973760e21b8152620151804204937f00000000000000000000000000000000000000000000000000000000000000006001600160a01b0316929091602081600481875afa9081156102a8575f9161039b575b5090915f9190825b86841015610339576024600585901b830101356001600160a01b03811694908581036102b357851580156102d9575b80156102c3575b6102b757855f5260036020528960405f2055873b156102b3576040516340c10f1960e01b81526001600160a01b03919091166004820152602481018590525f81604481838c5af180156102a857610298575b5083820180921161028457600180929601947fa265860bad5040e1bef830652f782ec55a23a74fc92eb2c770e61d7d50cbb015604080518781528c6020820152a25b0192936101b2565b634e487b7160e01b5f52601160045260245ffd5b5f6102a2916108d2565b5f61023a565b6040513d5f823e3d90fd5b5f80fd5b5060019195945061027c565b50855f5260036020528960405f205410156101e8565b506040516263fa2760e01b8152600481018790526020816024818c5afa9081156102a8575f9161030b575b50156101e1565b61032c915060203d8111610332575b61032481836108d2565b810190610908565b5f610304565b503d61031a565b84602091898261034e575b5050604051908152f35b7f61a5a92a0b111ed50938e8a2c768049e084bbdea9dd341cd1cdd47ba40cc54f6916060918460055401600555816006540160065560405191858352868301526040820152a18280610344565b90506020813d6020116103c5575b816103b6602093836108d2565b810103126102b357515f6101aa565b3d91506103a9565b60405162461bcd60e51b815260206004820152600f60248201526e426174636820746f6f206c6172676560881b6044820152606490fd5b630bfd903360e11b5f5260045ffd5b346102b3575f3660031901126102b3576001546040516001600160a01b039091168152602090f35b346102b35760403660031901126102b357610454610884565b602435908115158092036102b35760207fee42947bc760229eeff964017ac68eddb00ba98b0defcd90a1bc85a5afceb0579161049b60018060a01b0360015416331461089a565b60018060a01b031692835f526002825260405f2060ff1981541660ff8316179055604051908152a2005b346102b35760203660031901126102b3576104de610884565b335f52600260205260ff60405f20541615610404576104fc90610920565b005b346102b3575f3660031901126102b357602060ff600454166040519015158152f35b346102b35760203660031901126102b357610539610884565b6040516263fa2760e01b81526001600160a01b039182166004820181905291602090829060249082907f0000000000000000000000000000000000000000000000000000000000000000165afa9081156102a8575f916105c3575b50806105a8575b6020906040519015158152f35b505f526003602052602060405f20546201518042041161059b565b6105dc915060203d6020116103325761032481836108d2565b82610594565b346102b35760203660031901126102b3576001600160a01b03610603610884565b165f526002602052602060ff60405f2054166040519015158152f35b346102b35760203660031901126102b357610638610884565b61064d60018060a01b0360015416331461089a565b5f80546001600160a01b0319166001600160a01b0392909216919091179055005b346102b3575f3660031901126102b3576020604051620151808152f35b346102b3575f3660031901126102b3576020600654604051908152f35b346102b35760203660031901126102b3576001600160a01b036106c9610884565b165f526003602052602060405f2054604051908152f35b346102b35760203660031901126102b3576004358015158091036102b35761071360018060a01b0360015416331461089a565b60ff8019600454169116176004555f80f35b346102b3575f3660031901126102b3576020620151804204604051908152f35b346102b35760203660031901126102b35761075e610884565b6001546001600160a01b0381169161077733841461089a565b6001600160a01b03169182156107bd5782907ff8ccb027dfcd135e000e9d45e6cc2d662578a8825d4c45b5e32e0adf67e79ec65f80a36001600160a01b03191617600155005b63d92e233d60e01b5f5260045ffd5b346102b3575f3660031901126102b3575f546040516001600160a01b039091168152602090f35b346102b3575f3660031901126102b35760ff6004541615610817576104fc33610920565b631f18ee6160e11b5f5260045ffd5b346102b3575f3660031901126102b3576020600554604051908152f35b346102b3575f3660031901126102b3577f00000000000000000000000000000000000000000000000000000000000000006001600160a01b03168152602090f35b600435906001600160a01b03821682036102b357565b156108a157565b60405162461bcd60e51b81526020600482015260096024820152682737ba1030b236b4b760b91b6044820152606490fd5b90601f8019910116810190811067ffffffffffffffff8211176108f457604052565b634e487b7160e01b5f52604160045260245ffd5b908160209103126102b3575180151581036102b35790565b6040516263fa2760e01b81526001600160a01b038281166004830181905292917f000000000000000000000000000000000000000000000000000000000000000090911690602081602481855afa9081156102a8575f91610ac8575b5015610ab55762015180420490835f5260036020528160405f20541015610a9e57835f5260036020528160405f205560405190631c9b973760e21b8252602082600481845afa9182156102a8575f92610a6a575b50803b156102b3576040516340c10f1960e01b81526001600160a01b03949094166004850152602484018290525f908490604490829084905af19182156102a8577fa265860bad5040e1bef830652f782ec55a23a74fc92eb2c770e61d7d50cbb01593604093610a5a575b50600160055401600555816006540160065582519182526020820152a2565b5f610a64916108d2565b5f610a3b565b9091506020813d602011610a96575b81610a86602093836108d2565b810103126102b35751905f6109d0565b3d9150610a79565b50826306b9852160e31b5f5260045260245260445ffd5b82633f40de5d60e21b5f5260045260245ffd5b610ae1915060203d6020116103325761032481836108d2565b5f61097c56fea26469706673582212209f3537251edff6a8dce116721b4c0d7a454e9cba0da51fd8530b238ad65f5c2664736f6c63430008210033","linkReferences":{}},"methodIdentifiers":{"EPOCH_DURATION()":"a70b9f0c","admin()":"f851a440","batchClaim(address[])":"fb5f749f","canClaim(address)":"bf3506c1","claim()":"4e71d92d","claimFor(address)":"ddeae033","currentEpoch()":"76671808","feeSplitter()":"6052970c","goodDollar()":"119e5bf3","lastClaimEpoch(address)":"928d08c0","selfClaimEnabled()":"c3c6a40e","setFeeSplitter(address)":"b17fb9d6","setRelayer(address,bool)":"ecd8dc3a","setSelfClaimEnabled(bool)":"7c17ec0a","totalClaims()":"41c61383","totalMinted()":"a2309ff8","transferAdmin(address)":"75829def","trustedRelayers(address)":"b9b48f50"},"id":24}