{"abi":[{"type":"constructor","inputs":[{"name":"_asset","type":"address","internalType":"address"},{"name":"_stabilityPool","type":"address","internalType":"address"},{"name":"_gainToken","type":"address","internalType":"address"},{"name":"_vault","type":"address","internalType":"address"}],"stateMutability":"nonpayable"},{"type":"function","name":"asset","inputs":[],"outputs":[{"name":"","type":"address","internalType":"address"}],"stateMutability":"view"},{"type":"function","name":"deposit","inputs":[{"name":"amount","type":"uint256","internalType":"uint256"}],"outputs":[],"stateMutability":"nonpayable"},{"type":"function","name":"emergencyWithdraw","inputs":[],"outputs":[{"name":"","type":"uint256","internalType":"uint256"}],"stateMutability":"nonpayable"},{"type":"function","name":"gainToken","inputs":[],"outputs":[{"name":"","type":"address","internalType":"address"}],"stateMutability":"view"},{"type":"function","name":"harvest","inputs":[],"outputs":[{"name":"profit","type":"uint256","internalType":"uint256"},{"name":"loss","type":"uint256","internalType":"uint256"}],"stateMutability":"nonpayable"},{"type":"function","name":"paused","inputs":[],"outputs":[{"name":"","type":"bool","internalType":"bool"}],"stateMutability":"view"},{"type":"function","name":"setVault","inputs":[{"name":"_vault","type":"address","internalType":"address"}],"outputs":[],"stateMutability":"nonpayable"},{"type":"function","name":"stabilityPool","inputs":[],"outputs":[{"name":"","type":"address","internalType":"contract IStabilityPool"}],"stateMutability":"view"},{"type":"function","name":"totalAssets","inputs":[],"outputs":[{"name":"","type":"uint256","internalType":"uint256"}],"stateMutability":"view"},{"type":"function","name":"totalDeposited","inputs":[],"outputs":[{"name":"","type":"uint256","internalType":"uint256"}],"stateMutability":"view"},{"type":"function","name":"vault","inputs":[],"outputs":[{"name":"","type":"address","internalType":"address"}],"stateMutability":"view"},{"type":"function","name":"withdraw","inputs":[{"name":"amount","type":"uint256","internalType":"uint256"}],"outputs":[{"name":"","type":"uint256","internalType":"uint256"}],"stateMutability":"nonpayable"},{"type":"event","name":"Deposited","inputs":[{"name":"amount","type":"uint256","indexed":false,"internalType":"uint256"}],"anonymous":false},{"type":"event","name":"GainsClaimed","inputs":[{"name":"ethGain","type":"uint256","indexed":false,"internalType":"uint256"}],"anonymous":false},{"type":"event","name":"Harvested","inputs":[{"name":"profit","type":"uint256","indexed":false,"internalType":"uint256"},{"name":"loss","type":"uint256","indexed":false,"internalType":"uint256"}],"anonymous":false},{"type":"event","name":"Withdrawn","inputs":[{"name":"amount","type":"uint256","indexed":false,"internalType":"uint256"}],"anonymous":false},{"type":"error","name":"IsPaused","inputs":[]},{"type":"error","name":"NotVault","inputs":[]}],"bytecode":{"object":"0x60a0346100db57601f610d2338819003918201601f19168301916001600160401b038311848410176100df578084926080946040528339810103126100db57610047816100f3565b90610054602082016100f3565b61006c6060610065604085016100f3565b93016100f3565b608093909352600180546001600160a01b039283166001600160a01b03199182161790915560028054938316938216939093179092555f8054919093169116179055604051610c1b908161010882396080518181816101cc01528181610308015281816108ab01526109b90152f35b5f80fd5b634e487b7160e01b5f52604160045260245ffd5b51906001600160a01b03821682036100db5756fe6080806040526004361015610012575f80fd5b5f905f3560e01c90816301e1d11414610af357508063048c661d14610acb5780632e1a7d4d146108da57806338d52e0f146108955780634641257d146105df5780635c975abb146105bc5780636817031b146104d75780636b0c9cb6146104ae578063b6b55f25146102b1578063db2e21bc146100e9578063fbfa77cf146100c25763ff50abdc146100a2575f80fd5b346100bf57806003193601126100bf576020600354604051908152f35b80fd5b50346100bf57806003193601126100bf57546040516001600160a01b039091168152602090f35b50346100bf57806003193601126100bf5780546001600160a01b031633036102a2576004805460ff19166001908117825554604051635bc90aeb60e11b815230928101929092526001600160a01b0316602082602481845afa91821561025f57839261026a575b5081610166575b50602091600355604051908152f35b8083913b1561025b578190602460405180948193632e1a7d4d60e01b83528760048401525af1801561025f57610246575b50815460405163a9059cbb60e01b81526001600160a01b039091166004820152602481018290529160208380604481010381847f00000000000000000000000000000000000000000000000000000000000000006001600160a01b03165af19283156102395760209361020c575b5091610157565b61022b90843d8611610232575b6102238183610b76565b810190610bac565b505f610205565b503d610219565b50604051903d90823e3d90fd5b610251838092610b76565b61025b575f610197565b5080fd5b6040513d85823e3d90fd5b9091506020813d60201161029a575b8161028660209383610b76565b810103126102965751905f610150565b5f80fd5b3d9150610279565b6362df054560e01b8152600490fd5b50346100bf5760203660031901126100bf578054600435906001600160a01b03163381900361049f5760ff60045416610490576040516323b872dd60e01b81526004810191909152306024820152604481018290527f00000000000000000000000000000000000000000000000000000000000000006001600160a01b03169060208160648187865af180156104855761038a92602092859261046a575b5060015460405163095ea7b360e01b81526001600160a01b039091166004820152602481019290925290928391908290879082906044820190565b03925af1801561025f5761044d575b5060015482906001600160a01b0316803b1561025b5781809160246040518094819363b6b55f2560e01b83528860048401525af180156104425761042d575b5050600354818101809111610419577f2a89b2e3d580398d6dc2db5e0f336b52602bbaa51afa9bb5cdf59239cf0d2bea91602091600355604051908152a180f35b634e487b7160e01b83526011600452602483fd5b8161043791610b76565b61025b57815f6103d8565b6040513d84823e3d90fd5b6104659060203d602011610232576102238183610b76565b610399565b61048090843d8611610232576102238183610b76565b61034f565b6040513d86823e3d90fd5b631309a56360e01b8352600483fd5b6362df054560e01b8352600483fd5b50346100bf57806003193601126100bf576002546040516001600160a01b039091168152602090f35b50346100bf5760203660031901126100bf576004356001600160a01b0381169081900361025b5781546001600160a01b038116610569578115610524576001600160a01b03191617815580f35b60405162461bcd60e51b815260206004820152601e60248201527f537461626c65636f696e53747261746567793a207a65726f207661756c7400006044820152606490fd5b60405162461bcd60e51b815260206004820152602560248201527f537461626c65636f696e53747261746567793a207661756c7420616c726561646044820152641e481cd95d60da1b6064820152608490fd5b50346100bf57806003193601126100bf57602060ff600454166040519015158152f35b50346100bf57806003193601126100bf5780546001600160a01b031633036102a257600154604051635bc90aeb60e11b81523060048201526001600160a01b03909116918080602084602481885afa938415610239578194610861575b5060405163025115ed60e41b815230600482015294602086602481845afa95861561044257829661082d575b50856106f6575b505060035460409450808411156106cd57505061068e60035483610bc4565b916003555b7ffa07446fad45314351eb89109a154880278451332bb87f1824d435fe58da5939838051848152836020820152a182519182526020820152f35b80849294106106de575b5050610693565b819250906106eb91610bc4565b906003555f806106d7565b60208291600460405180948193630876f06d60e41b83525af18015610442576107fe575b506002546001600160a01b031680610762575b50507fe24343fc6979cece69f62e8d9d827d532db345ca26167f66ef270d7e6d3f793860206040958651908152a15f8061066f565b815460405163a9059cbb60e01b81526001600160a01b0390911660048201526024810187905291906020908390604490829085905af19081156107f257506040957fe24343fc6979cece69f62e8d9d827d532db345ca26167f66ef270d7e6d3f7938926020926107d5575b50955061072d565b6107eb90833d8511610232576102238183610b76565b505f6107cd565b604051903d90823e3d90fd5b6020813d602011610825575b8161081760209383610b76565b81010312610296575161071a565b3d915061080a565b9095506020813d602011610859575b8161084960209383610b76565b810103126102965751945f610668565b3d915061083c565b9093506020813d60201161088d575b8161087d60209383610b76565b810103126102965751925f61063c565b3d9150610870565b50346100bf57806003193601126100bf576040517f00000000000000000000000000000000000000000000000000000000000000006001600160a01b03168152602090f35b5034610296576020366003190112610296575f5460043591906001600160a01b03163303610abc57600154604051635bc90aeb60e11b81523060048201526001600160a01b039091169291908290602081602481885afa908115610a77575f91610a8a575b50809111610a82575b50823b15610296575f8093602460405180968193632e1a7d4d60e01b83528760048401525af1928315610a77576109b493610a64575b50805460405163a9059cbb60e01b81526001600160a01b0390911660048201526024810183905292602090849081906044820190565b0381847f00000000000000000000000000000000000000000000000000000000000000006001600160a01b03165af192831561023957602093610a49575b50816003548082115f14610a375750506003555b7f430648de173157e069201c943adb2d4e340e7cf5b27b1b09c9cb852f03d63b5682604051838152a1604051908152f35b610a419250610bc4565b600355610a06565b610a5f90843d8611610232576102238183610b76565b6109f2565b610a7091505f90610b76565b5f5f61097e565b6040513d5f823e3d90fd5b91505f610948565b90506020813d602011610ab4575b81610aa560209383610b76565b8101031261029657515f61093f565b3d9150610a98565b6362df054560e01b5f5260045ffd5b34610296575f366003190112610296576001546040516001600160a01b039091168152602090f35b34610296575f36600319011261029657600154635bc90aeb60e11b8252306004830152602090829060249082906001600160a01b03165afa8015610a77575f90610b43575b602090604051908152f35b506020813d602011610b6e575b81610b5d60209383610b76565b810103126102965760209051610b38565b3d9150610b50565b90601f8019910116810190811067ffffffffffffffff821117610b9857604052565b634e487b7160e01b5f52604160045260245ffd5b90816020910312610296575180151581036102965790565b91908203918211610bd157565b634e487b7160e01b5f52601160045260245ffdfea26469706673582212201e6903440297091a6262519ef948f393849b46b2f9c942497648e731d2df471f64736f6c63430008210033","linkReferences":{}},"methodIdentifiers":{"asset()":"38d52e0f","deposit(uint256)":"b6b55f25","emergencyWithdraw()":"db2e21bc","gainToken()":"6b0c9cb6","harvest()":"4641257d","paused()":"5c975abb","setVault(address)":"6817031b","stabilityPool()":"048c661d","totalAssets()":"01e1d114","totalDeposited()":"ff50abdc","vault()":"fbfa77cf","withdraw(uint256)":"2e1a7d4d"},"id":23}