{"abi":[{"type":"constructor","inputs":[{"name":"_asset","type":"address","internalType":"address"},{"name":"_stabilityPool","type":"address","internalType":"address"},{"name":"_gainToken","type":"address","internalType":"address"},{"name":"_vault","type":"address","internalType":"address"}],"stateMutability":"nonpayable"},{"type":"function","name":"asset","inputs":[],"outputs":[{"name":"","type":"address","internalType":"address"}],"stateMutability":"view"},{"type":"function","name":"deposit","inputs":[{"name":"amount","type":"uint256","internalType":"uint256"}],"outputs":[],"stateMutability":"nonpayable"},{"type":"function","name":"emergencyWithdraw","inputs":[],"outputs":[{"name":"","type":"uint256","internalType":"uint256"}],"stateMutability":"nonpayable"},{"type":"function","name":"gainToken","inputs":[],"outputs":[{"name":"","type":"address","internalType":"address"}],"stateMutability":"view"},{"type":"function","name":"harvest","inputs":[],"outputs":[{"name":"profit","type":"uint256","internalType":"uint256"},{"name":"loss","type":"uint256","internalType":"uint256"}],"stateMutability":"nonpayable"},{"type":"function","name":"paused","inputs":[],"outputs":[{"name":"","type":"bool","internalType":"bool"}],"stateMutability":"view"},{"type":"function","name":"stabilityPool","inputs":[],"outputs":[{"name":"","type":"address","internalType":"contract IStabilityPool"}],"stateMutability":"view"},{"type":"function","name":"totalAssets","inputs":[],"outputs":[{"name":"","type":"uint256","internalType":"uint256"}],"stateMutability":"view"},{"type":"function","name":"totalDeposited","inputs":[],"outputs":[{"name":"","type":"uint256","internalType":"uint256"}],"stateMutability":"view"},{"type":"function","name":"vault","inputs":[],"outputs":[{"name":"","type":"address","internalType":"address"}],"stateMutability":"view"},{"type":"function","name":"withdraw","inputs":[{"name":"amount","type":"uint256","internalType":"uint256"}],"outputs":[{"name":"","type":"uint256","internalType":"uint256"}],"stateMutability":"nonpayable"},{"type":"event","name":"Deposited","inputs":[{"name":"amount","type":"uint256","indexed":false,"internalType":"uint256"}],"anonymous":false},{"type":"event","name":"GainsClaimed","inputs":[{"name":"ethGain","type":"uint256","indexed":false,"internalType":"uint256"}],"anonymous":false},{"type":"event","name":"Harvested","inputs":[{"name":"profit","type":"uint256","indexed":false,"internalType":"uint256"},{"name":"loss","type":"uint256","indexed":false,"internalType":"uint256"}],"anonymous":false},{"type":"event","name":"Withdrawn","inputs":[{"name":"amount","type":"uint256","indexed":false,"internalType":"uint256"}],"anonymous":false},{"type":"error","name":"IsPaused","inputs":[]},{"type":"error","name":"NotVault","inputs":[]}],"bytecode":{"object":"0x60a0346100db57601f610c3338819003918201601f19168301916001600160401b038311848410176100df578084926080946040528339810103126100db57610047816100f3565b90610054602082016100f3565b61006c6060610065604085016100f3565b93016100f3565b608093909352600180546001600160a01b039283166001600160a01b03199182161790915560028054938316938216939093179092555f8054919093169116179055604051610b2b908161010882396080518181816101c1015281816102fd015281816107bb01526108c90152f35b5f80fd5b634e487b7160e01b5f52604160045260245ffd5b51906001600160a01b03821682036100db5756fe6080806040526004361015610012575f80fd5b5f905f3560e01c90816301e1d11414610a0357508063048c661d146109db5780632e1a7d4d146107ea57806338d52e0f146107a55780634641257d146104ef5780635c975abb146104cc5780636b0c9cb6146104a3578063b6b55f25146102a6578063db2e21bc146100de578063fbfa77cf146100b75763ff50abdc14610097575f80fd5b346100b457806003193601126100b4576020600354604051908152f35b80fd5b50346100b457806003193601126100b457546040516001600160a01b039091168152602090f35b50346100b457806003193601126100b45780546001600160a01b03163303610297576004805460ff19166001908117825554604051635bc90aeb60e11b815230928101929092526001600160a01b0316602082602481845afa91821561025457839261025f575b508161015b575b50602091600355604051908152f35b8083913b15610250578190602460405180948193632e1a7d4d60e01b83528760048401525af180156102545761023b575b50815460405163a9059cbb60e01b81526001600160a01b039091166004820152602481018290529160208380604481010381847f00000000000000000000000000000000000000000000000000000000000000006001600160a01b03165af192831561022e57602093610201575b509161014c565b61022090843d8611610227575b6102188183610a86565b810190610abc565b505f6101fa565b503d61020e565b50604051903d90823e3d90fd5b610246838092610a86565b610250575f61018c565b5080fd5b6040513d85823e3d90fd5b9091506020813d60201161028f575b8161027b60209383610a86565b8101031261028b5751905f610145565b5f80fd5b3d915061026e565b6362df054560e01b8152600490fd5b50346100b45760203660031901126100b4578054600435906001600160a01b0316338190036104945760ff60045416610485576040516323b872dd60e01b81526004810191909152306024820152604481018290527f00000000000000000000000000000000000000000000000000000000000000006001600160a01b03169060208160648187865af1801561047a5761037f92602092859261045f575b5060015460405163095ea7b360e01b81526001600160a01b039091166004820152602481019290925290928391908290879082906044820190565b03925af1801561025457610442575b5060015482906001600160a01b0316803b156102505781809160246040518094819363b6b55f2560e01b83528860048401525af1801561043757610422575b505060035481810180911161040e577f2a89b2e3d580398d6dc2db5e0f336b52602bbaa51afa9bb5cdf59239cf0d2bea91602091600355604051908152a180f35b634e487b7160e01b83526011600452602483fd5b8161042c91610a86565b61025057815f6103cd565b6040513d84823e3d90fd5b61045a9060203d602011610227576102188183610a86565b61038e565b61047590843d8611610227576102188183610a86565b610344565b6040513d86823e3d90fd5b631309a56360e01b8352600483fd5b6362df054560e01b8352600483fd5b50346100b457806003193601126100b4576002546040516001600160a01b039091168152602090f35b50346100b457806003193601126100b457602060ff600454166040519015158152f35b50346100b457806003193601126100b45780546001600160a01b0316330361029757600154604051635bc90aeb60e11b81523060048201526001600160a01b03909116918080602084602481885afa93841561022e578194610771575b5060405163025115ed60e41b815230600482015294602086602481845afa95861561043757829661073d575b5085610606575b505060035460409450808411156105dd57505061059e60035483610ad4565b916003555b7ffa07446fad45314351eb89109a154880278451332bb87f1824d435fe58da5939838051848152836020820152a182519182526020820152f35b80849294106105ee575b50506105a3565b819250906105fb91610ad4565b906003555f806105e7565b60208291600460405180948193630876f06d60e41b83525af180156104375761070e575b506002546001600160a01b031680610672575b50507fe24343fc6979cece69f62e8d9d827d532db345ca26167f66ef270d7e6d3f793860206040958651908152a15f8061057f565b815460405163a9059cbb60e01b81526001600160a01b0390911660048201526024810187905291906020908390604490829085905af190811561070257506040957fe24343fc6979cece69f62e8d9d827d532db345ca26167f66ef270d7e6d3f7938926020926106e5575b50955061063d565b6106fb90833d8511610227576102188183610a86565b505f6106dd565b604051903d90823e3d90fd5b6020813d602011610735575b8161072760209383610a86565b8101031261028b575161062a565b3d915061071a565b9095506020813d602011610769575b8161075960209383610a86565b8101031261028b5751945f610578565b3d915061074c565b9093506020813d60201161079d575b8161078d60209383610a86565b8101031261028b5751925f61054c565b3d9150610780565b50346100b457806003193601126100b4576040517f00000000000000000000000000000000000000000000000000000000000000006001600160a01b03168152602090f35b503461028b57602036600319011261028b575f5460043591906001600160a01b031633036109cc57600154604051635bc90aeb60e11b81523060048201526001600160a01b039091169291908290602081602481885afa908115610987575f9161099a575b50809111610992575b50823b1561028b575f8093602460405180968193632e1a7d4d60e01b83528760048401525af1928315610987576108c493610974575b50805460405163a9059cbb60e01b81526001600160a01b0390911660048201526024810183905292602090849081906044820190565b0381847f00000000000000000000000000000000000000000000000000000000000000006001600160a01b03165af192831561022e57602093610959575b50816003548082115f146109475750506003555b7f430648de173157e069201c943adb2d4e340e7cf5b27b1b09c9cb852f03d63b5682604051838152a1604051908152f35b6109519250610ad4565b600355610916565b61096f90843d8611610227576102188183610a86565b610902565b61098091505f90610a86565b5f5f61088e565b6040513d5f823e3d90fd5b91505f610858565b90506020813d6020116109c4575b816109b560209383610a86565b8101031261028b57515f61084f565b3d91506109a8565b6362df054560e01b5f5260045ffd5b3461028b575f36600319011261028b576001546040516001600160a01b039091168152602090f35b3461028b575f36600319011261028b57600154635bc90aeb60e11b8252306004830152602090829060249082906001600160a01b03165afa8015610987575f90610a53575b602090604051908152f35b506020813d602011610a7e575b81610a6d60209383610a86565b8101031261028b5760209051610a48565b3d9150610a60565b90601f8019910116810190811067ffffffffffffffff821117610aa857604052565b634e487b7160e01b5f52604160045260245ffd5b9081602091031261028b5751801515810361028b5790565b91908203918211610ae157565b634e487b7160e01b5f52601160045260245ffdfea2646970667358221220e49adfc61891e5abb44f484103087ca917a163679a042d17294210bd3e06abca64736f6c63430008210033","linkReferences":{}},"methodIdentifiers":{"asset()":"38d52e0f","deposit(uint256)":"b6b55f25","emergencyWithdraw()":"db2e21bc","gainToken()":"6b0c9cb6","harvest()":"4641257d","paused()":"5c975abb","stabilityPool()":"048c661d","totalAssets()":"01e1d114","totalDeposited()":"ff50abdc","vault()":"fbfa77cf","withdraw(uint256)":"2e1a7d4d"},"id":23}