{"abi":[{"type":"constructor","inputs":[{"name":"_gusd","type":"address","internalType":"address"},{"name":"_usdc","type":"address","internalType":"address"},{"name":"_feeSplitter","type":"address","internalType":"address"},{"name":"_admin","type":"address","internalType":"address"}],"stateMutability":"nonpayable"},{"type":"function","name":"BPS","inputs":[],"outputs":[{"name":"","type":"uint256","internalType":"uint256"}],"stateMutability":"view"},{"type":"function","name":"GUSD_DECIMALS","inputs":[],"outputs":[{"name":"","type":"uint256","internalType":"uint256"}],"stateMutability":"view"},{"type":"function","name":"SCALE","inputs":[],"outputs":[{"name":"","type":"uint256","internalType":"uint256"}],"stateMutability":"view"},{"type":"function","name":"USDC_DECIMALS","inputs":[],"outputs":[{"name":"","type":"uint256","internalType":"uint256"}],"stateMutability":"view"},{"type":"function","name":"admin","inputs":[],"outputs":[{"name":"","type":"address","internalType":"address"}],"stateMutability":"view"},{"type":"function","name":"feeBPS","inputs":[],"outputs":[{"name":"","type":"uint256","internalType":"uint256"}],"stateMutability":"view"},{"type":"function","name":"feeSplitter","inputs":[],"outputs":[{"name":"","type":"address","internalType":"contract IUBIFeeSplitter"}],"stateMutability":"view"},{"type":"function","name":"gusd","inputs":[],"outputs":[{"name":"","type":"address","internalType":"contract IgUSDMinter"}],"stateMutability":"view"},{"type":"function","name":"paused","inputs":[],"outputs":[{"name":"","type":"bool","internalType":"bool"}],"stateMutability":"view"},{"type":"function","name":"previewGUSDForUSDC","inputs":[{"name":"gusdAmount","type":"uint256","internalType":"uint256"}],"outputs":[{"name":"usdcOut","type":"uint256","internalType":"uint256"},{"name":"fee","type":"uint256","internalType":"uint256"}],"stateMutability":"view"},{"type":"function","name":"previewUSDCForGUSD","inputs":[{"name":"usdcAmount","type":"uint256","internalType":"uint256"}],"outputs":[{"name":"gusdOut","type":"uint256","internalType":"uint256"},{"name":"fee","type":"uint256","internalType":"uint256"}],"stateMutability":"view"},{"type":"function","name":"setFeeBPS","inputs":[{"name":"_feeBPS","type":"uint256","internalType":"uint256"}],"outputs":[],"stateMutability":"nonpayable"},{"type":"function","name":"setPaused","inputs":[{"name":"_paused","type":"bool","internalType":"bool"}],"outputs":[],"stateMutability":"nonpayable"},{"type":"function","name":"setSwapCap","inputs":[{"name":"_cap","type":"uint256","internalType":"uint256"}],"outputs":[],"stateMutability":"nonpayable"},{"type":"function","name":"swapCap","inputs":[],"outputs":[{"name":"","type":"uint256","internalType":"uint256"}],"stateMutability":"view"},{"type":"function","name":"swapGUSDForUSDC","inputs":[{"name":"gusdAmount","type":"uint256","internalType":"uint256"}],"outputs":[],"stateMutability":"nonpayable"},{"type":"function","name":"swapUSDCForGUSD","inputs":[{"name":"usdcAmount","type":"uint256","internalType":"uint256"}],"outputs":[],"stateMutability":"nonpayable"},{"type":"function","name":"totalFeesCollected","inputs":[],"outputs":[{"name":"","type":"uint256","internalType":"uint256"}],"stateMutability":"view"},{"type":"function","name":"totalUSDCReserves","inputs":[],"outputs":[{"name":"","type":"uint256","internalType":"uint256"}],"stateMutability":"view"},{"type":"function","name":"transferAdmin","inputs":[{"name":"newAdmin","type":"address","internalType":"address"}],"outputs":[],"stateMutability":"nonpayable"},{"type":"function","name":"usdc","inputs":[],"outputs":[{"name":"","type":"address","internalType":"contract IUSDC"}],"stateMutability":"view"},{"type":"function","name":"withdrawReserves","inputs":[{"name":"to","type":"address","internalType":"address"},{"name":"usdcAmount","type":"uint256","internalType":"uint256"}],"outputs":[],"stateMutability":"nonpayable"},{"type":"event","name":"AdminTransferred","inputs":[{"name":"oldAdmin","type":"address","indexed":true,"internalType":"address"},{"name":"newAdmin","type":"address","indexed":true,"internalType":"address"}],"anonymous":false},{"type":"event","name":"FeeBPSUpdated","inputs":[{"name":"oldBPS","type":"uint256","indexed":false,"internalType":"uint256"},{"name":"newBPS","type":"uint256","indexed":false,"internalType":"uint256"}],"anonymous":false},{"type":"event","name":"Paused","inputs":[{"name":"status","type":"bool","indexed":false,"internalType":"bool"}],"anonymous":false},{"type":"event","name":"SwapCapUpdated","inputs":[{"name":"cap","type":"uint256","indexed":false,"internalType":"uint256"}],"anonymous":false},{"type":"event","name":"SwapGUSDForUSDC","inputs":[{"name":"user","type":"address","indexed":true,"internalType":"address"},{"name":"gusdIn","type":"uint256","indexed":false,"internalType":"uint256"},{"name":"usdcOut","type":"uint256","indexed":false,"internalType":"uint256"},{"name":"fee","type":"uint256","indexed":false,"internalType":"uint256"}],"anonymous":false},{"type":"event","name":"SwapUSDCForGUSD","inputs":[{"name":"user","type":"address","indexed":true,"internalType":"address"},{"name":"usdcIn","type":"uint256","indexed":false,"internalType":"uint256"},{"name":"gusdOut","type":"uint256","indexed":false,"internalType":"uint256"},{"name":"fee","type":"uint256","indexed":false,"internalType":"uint256"}],"anonymous":false}],"bytecode":{"object":"0x60e03461020757601f61134438819003918201601f19168301916001600160401b0383118484101761020b57808492608094604052833981010312610207576100478161021f565b6100536020830161021f565b9161006c60606100656040840161021f565b920161021f565b6001600160a01b039092169283156101d1576001600160a01b031690811561019b576001600160a01b0316918215610161576001600160a01b031692831561012a5760805260a05260c0525f80546001600160a01b031916919091179055600a600155604051611110908161023482396080518181816101db015281816107c10152610a96015260a051818181610293015281816105e4015281816107390152610d14015260c051818181610364015281816108b70152610c0e0152f35b60405162461bcd60e51b815260206004820152600f60248201526e2829a69d103d32b9379030b236b4b760891b6044820152606490fd5b60405162461bcd60e51b81526020600482015260126024820152712829a69d103d32b9379039b83634ba3a32b960711b6044820152606490fd5b60405162461bcd60e51b815260206004820152600e60248201526d50534d3a207a65726f205553444360901b6044820152606490fd5b60405162461bcd60e51b815260206004820152600e60248201526d1414d34e881e995c9bc819d554d160921b6044820152606490fd5b5f80fd5b634e487b7160e01b5f52604160045260245ffd5b51906001600160a01b03821682036102075756fe6080806040526004361015610012575f80fd5b5f905f3560e01c90816302df9df114610e565750806316c38b3c14610de85780631a1c6e5314610dcb578063215f0f9814610db0578063249d39e914610d945780632660369314610d435780633e413bee14610cff5780635c975abb14610cdd578063604b6a9c14610c3d5780636052970c14610bf957806360c6d8ae14610bdc57806375829def14610b615780637d706da014610b0957806384891c5014610ac55780638c87ee9014610a81578063bf79ef7214610a64578063c1419def14610a49578063cc999017146106bd578063e478795d1461054a578063eced55261461052a578063ee84f2fe146101395763f851a44014610110575f80fd5b34610136578060031936011261013657546040516001600160a01b039091168152602090f35b80fd5b50346101365760203660031901126101365760043561015a60065415610f23565b600160065561016e60ff6003541615610f5b565b610179811515610f95565b61271061018860015483610ec3565b046101938183610ed6565b9064e8d4a510008204916101a883151561107b565b82600454106104e5576040516323b872dd60e01b8152336004820152306024820152604481018590526001600160a01b037f00000000000000000000000000000000000000000000000000000000000000001691906020816064818a875af19081156104da5787916104bb575b5015610476578590823b156104725760405190630852cd8d60e31b82526004820152818160248183875af180156104675761044e575b50508161034d575b5061026082600454610ed6565b600490815560405163a9059cbb60e01b815233918101919091526024810183905291602083604481886001600160a01b037f0000000000000000000000000000000000000000000000000000000000000000165af1928315610342577f19d6baaf4008076fefde90765b8965de468a3f462d7d146e5a9d1468008c890d936102ef918791610313575b5061102f565b604080519485526020850191909152830152339180606081015b0390a28060065580f35b610335915060203d60201161033b575b61032d8183610fe1565b810190611017565b5f6102e9565b503d610323565b6040513d87823e3d90fd5b60405163095ea7b360e01b81526001600160a01b037f000000000000000000000000000000000000000000000000000000000000000016600482018190526024820184905291602090829060449082908a905af1801561044357610426575b506040516364d6def960e01b815260048101839052306024820152906060908290604490829089905af18015610342576103f7575b506103ee81600554610fd4565b6005555f610253565b6104189060603d60601161041f575b6104108183610fe1565b8101906110bf565b50506103e1565b503d610406565b61043e9060203d60201161033b5761032d8183610fe1565b6103ac565b6040513d88823e3d90fd5b8161045891610fe1565b61046357845f61024b565b8480fd5b6040513d84823e3d90fd5b5080fd5b60405162461bcd60e51b815260206004820152601960248201527f50534d3a2067555344207472616e73666572206661696c6564000000000000006044820152606490fd5b6104d4915060203d60201161033b5761032d8183610fe1565b5f610215565b6040513d89823e3d90fd5b60405162461bcd60e51b815260206004820152601a60248201527f50534d3a20696e73756666696369656e742072657365727665730000000000006044820152606490fd5b5034610136578060031936011261013657602060405164e8d4a510008152f35b503461013657604036600319011261013657610564610e70565b60243561057b60018060a01b038454163314610e86565b61058f6001600160a01b0383161515610ee3565b60045490818111610680576105df926105aa82602094610ed6565b600490815560405163a9059cbb60e01b81526001600160a01b0390921690820152602481019190915291829081906044820190565b0381857f00000000000000000000000000000000000000000000000000000000000000006001600160a01b03165af1908115610467578291610661575b50156106255780f35b60405162461bcd60e51b81526020600482015260146024820152731414d34e881d1c985b9cd9995c8819985a5b195960621b6044820152606490fd5b61067a915060203d60201161033b5761032d8183610fe1565b5f61061c565b60405162461bcd60e51b815260206004820152601560248201527450534d3a206578636565647320726573657276657360581b6044820152606490fd5b50346109dd5760203660031901126109dd576004356106de60065415610f23565b60016006556106f260ff6003541615610f5b565b80156106fe8115610f95565b600254806109f5575b506040516323b872dd60e01b8152336004820152306024820152604481018390526020816064815f6001600160a01b037f0000000000000000000000000000000000000000000000000000000000000000165af180156109d257610771915f91610313575061102f565b61077d82600454610fd4565b60045564e8d4a5100082029082820464e8d4a510001417156109e1576107b36127106107ab60015484610ec3565b048092610ed6565b906107bf82151561107b565b7f00000000000000000000000000000000000000000000000000000000000000006001600160a01b031691823b156109dd576040516340c10f1960e01b8152336004820152602481018290525f8160448183885af180156109d2576109bd575b5081610867575b6040805194855260208501919091528301525033907fc91682597e50d783bf81329b763263cef72b0cda71f5e617e0bd4b4150f84403908060608101610309565b823b15610463576040516340c10f1960e01b8152306004820152602481018390528590818160448183895af18015610467576109a8575b505060405163095ea7b360e01b81526001600160a01b037f000000000000000000000000000000000000000000000000000000000000000016600482018190526024820184905293602090829060449082908a905af180156104435761098b575b506040516364d6def960e01b815260048101839052306024820152926060908490604490829089905af1928315610342577fc91682597e50d783bf81329b763263cef72b0cda71f5e617e0bd4b4150f844039361096c575b5061096482600554610fd4565b600555610826565b6109849060603d60601161041f576104108183610fe1565b5050610957565b6109a39060203d60201161033b5761032d8183610fe1565b6108ff565b816109b291610fe1565b61046357845f61089e565b6109ca9195505f90610fe1565b5f935f61081f565b6040513d5f823e3d90fd5b5f80fd5b634e487b7160e01b5f52601160045260245ffd5b610a0183600454610fd4565b11610a0c575f610707565b60405162461bcd60e51b81526020600482015260156024820152741414d34e881cddd85c0818d85c081c995858da1959605a1b6044820152606490fd5b346109dd575f3660031901126109dd57602060405160068152f35b346109dd575f3660031901126109dd576020600454604051908152f35b346109dd575f3660031901126109dd576040517f00000000000000000000000000000000000000000000000000000000000000006001600160a01b03168152602090f35b346109dd5760203660031901126109dd57604060043564e8d4a51000610afb612710610af360015485610ec3565b048093610ed6565b049082519182526020820152f35b346109dd5760203660031901126109dd577f334538d502feb3f0c7fab3f05496f1f17cfd920a1f428b3ff468292cfb0a41046020600435610b5460018060a01b035f54163314610e86565b80600255604051908152a1005b346109dd5760203660031901126109dd57610b7a610e70565b5f546001600160a01b03811691610b92338414610e86565b6001600160a01b0316918290610ba9821515610ee3565b7ff8ccb027dfcd135e000e9d45e6cc2d662578a8825d4c45b5e32e0adf67e79ec65f80a36001600160a01b031916175f55005b346109dd575f3660031901126109dd576020600554604051908152f35b346109dd575f3660031901126109dd576040517f00000000000000000000000000000000000000000000000000000000000000006001600160a01b03168152602090f35b346109dd5760203660031901126109dd57600435610c6560018060a01b035f54163314610e86565b60c88111610ca4577fb04438781e840362c78ce8cc4b97de7afc9aaccde53ad4c035c61d532474c66060406001548151908152836020820152a1600155005b60405162461bcd60e51b81526020600482015260116024820152700a0a69a7440cccaca40e8dede40d0d2ced607b1b6044820152606490fd5b346109dd575f3660031901126109dd57602060ff600354166040519015158152f35b346109dd575f3660031901126109dd576040517f00000000000000000000000000000000000000000000000000000000000000006001600160a01b03168152602090f35b346109dd5760203660031901126109dd5760043564e8d4a5100081029080820464e8d4a5100014901517156109e157604090610d876127106107ab60015484610ec3565b9082519182526020820152f35b346109dd575f3660031901126109dd5760206040516127108152f35b346109dd575f3660031901126109dd57602060405160128152f35b346109dd575f3660031901126109dd576020600154604051908152f35b346109dd5760203660031901126109dd576004358015158091036109dd5760207f0e2fb031ee032dc02d8011dc50b816eb450cf856abd8261680dac74f72165bd291610e3e60018060a01b035f54163314610e86565b60ff196003541660ff821617600355604051908152a1005b346109dd575f3660031901126109dd576020906002548152f35b600435906001600160a01b03821682036109dd57565b15610e8d57565b60405162461bcd60e51b815260206004820152600e60248201526d2829a69d103737ba1030b236b4b760911b6044820152606490fd5b818102929181159184041417156109e157565b919082039182116109e157565b15610eea57565b60405162461bcd60e51b815260206004820152601160248201527050534d3a207a65726f206164647265737360781b6044820152606490fd5b15610f2a57565b60405162461bcd60e51b81526020600482015260096024820152681499595b9d1c985b9d60ba1b6044820152606490fd5b15610f6257565b60405162461bcd60e51b815260206004820152600b60248201526a1414d34e881c185d5cd95960aa1b6044820152606490fd5b15610f9c57565b60405162461bcd60e51b815260206004820152601060248201526f1414d34e881e995c9bc8185b5bdd5b9d60821b6044820152606490fd5b919082018092116109e157565b90601f8019910116810190811067ffffffffffffffff82111761100357604052565b634e487b7160e01b5f52604160045260245ffd5b908160209103126109dd575180151581036109dd5790565b1561103657565b60405162461bcd60e51b815260206004820152601960248201527f50534d3a2055534443207472616e73666572206661696c6564000000000000006044820152606490fd5b1561108257565b60405162461bcd60e51b81526020600482015260156024820152741414d34e881bdd5d1c1d5d081d1bdbc81cdb585b1b605a1b6044820152606490fd5b908160609103126109dd57805191604060208301519201519056fea26469706673582212207c03b0637b23f6fce45fc9d774f4e2145adfa4a6c120ec8aeab6bf9de44083ae64736f6c63430008210033","linkReferences":{}},"methodIdentifiers":{"BPS()":"249d39e9","GUSD_DECIMALS()":"215f0f98","SCALE()":"eced5526","USDC_DECIMALS()":"c1419def","admin()":"f851a440","feeBPS()":"1a1c6e53","feeSplitter()":"6052970c","gusd()":"8c87ee90","paused()":"5c975abb","previewGUSDForUSDC(uint256)":"84891c50","previewUSDCForGUSD(uint256)":"26603693","setFeeBPS(uint256)":"604b6a9c","setPaused(bool)":"16c38b3c","setSwapCap(uint256)":"7d706da0","swapCap()":"02df9df1","swapGUSDForUSDC(uint256)":"ee84f2fe","swapUSDCForGUSD(uint256)":"cc999017","totalFeesCollected()":"60c6d8ae","totalUSDCReserves()":"bf79ef72","transferAdmin(address)":"75829def","usdc()":"3e413bee","withdrawReserves(address,uint256)":"e478795d"},"id":56}