{"abi":[{"type":"constructor","inputs":[{"name":"_messenger","type":"address","internalType":"address"},{"name":"_goodDollar","type":"address","internalType":"address"},{"name":"_usdc","type":"address","internalType":"address"},{"name":"_admin","type":"address","internalType":"address"}],"stateMutability":"nonpayable"},{"type":"receive","stateMutability":"payable"},{"type":"function","name":"admin","inputs":[],"outputs":[{"name":"","type":"address","internalType":"address"}],"stateMutability":"view"},{"type":"function","name":"depositETH","inputs":[{"name":"to","type":"address","internalType":"address"}],"outputs":[],"stateMutability":"payable"},{"type":"function","name":"depositGDollar","inputs":[{"name":"to","type":"address","internalType":"address"},{"name":"amount","type":"uint256","internalType":"uint256"}],"outputs":[],"stateMutability":"nonpayable"},{"type":"function","name":"depositUSDC","inputs":[{"name":"to","type":"address","internalType":"address"},{"name":"amount","type":"uint256","internalType":"uint256"}],"outputs":[],"stateMutability":"nonpayable"},{"type":"function","name":"deposits","inputs":[{"name":"","type":"address","internalType":"address"},{"name":"","type":"address","internalType":"address"}],"outputs":[{"name":"","type":"uint256","internalType":"uint256"}],"stateMutability":"view"},{"type":"function","name":"finalizeETHWithdrawal","inputs":[{"name":"to","type":"address","internalType":"address"},{"name":"amount","type":"uint256","internalType":"uint256"}],"outputs":[],"stateMutability":"nonpayable"},{"type":"function","name":"finalizeGDollarWithdrawal","inputs":[{"name":"to","type":"address","internalType":"address"},{"name":"amount","type":"uint256","internalType":"uint256"}],"outputs":[],"stateMutability":"nonpayable"},{"type":"function","name":"finalizeUSDCWithdrawal","inputs":[{"name":"to","type":"address","internalType":"address"},{"name":"amount","type":"uint256","internalType":"uint256"}],"outputs":[],"stateMutability":"nonpayable"},{"type":"function","name":"goodDollar","inputs":[],"outputs":[{"name":"","type":"address","internalType":"contract IBridgeToken"}],"stateMutability":"view"},{"type":"function","name":"l2Bridge","inputs":[],"outputs":[{"name":"","type":"address","internalType":"address"}],"stateMutability":"view"},{"type":"function","name":"messenger","inputs":[],"outputs":[{"name":"","type":"address","internalType":"contract IL1CrossDomainMessenger"}],"stateMutability":"view"},{"type":"function","name":"paused","inputs":[],"outputs":[{"name":"","type":"bool","internalType":"bool"}],"stateMutability":"view"},{"type":"function","name":"setAdmin","inputs":[{"name":"newAdmin","type":"address","internalType":"address"}],"outputs":[],"stateMutability":"nonpayable"},{"type":"function","name":"setL2Bridge","inputs":[{"name":"_l2Bridge","type":"address","internalType":"address"}],"outputs":[],"stateMutability":"nonpayable"},{"type":"function","name":"setPaused","inputs":[{"name":"_paused","type":"bool","internalType":"bool"}],"outputs":[],"stateMutability":"nonpayable"},{"type":"function","name":"totalETHLocked","inputs":[],"outputs":[{"name":"","type":"uint256","internalType":"uint256"}],"stateMutability":"view"},{"type":"function","name":"totalGDollarLocked","inputs":[],"outputs":[{"name":"","type":"uint256","internalType":"uint256"}],"stateMutability":"view"},{"type":"function","name":"totalUSDCLocked","inputs":[],"outputs":[{"name":"","type":"uint256","internalType":"uint256"}],"stateMutability":"view"},{"type":"function","name":"usdc","inputs":[],"outputs":[{"name":"","type":"address","internalType":"contract IBridgeToken"}],"stateMutability":"view"},{"type":"event","name":"DepositInitiated","inputs":[{"name":"token","type":"address","indexed":true,"internalType":"address"},{"name":"from","type":"address","indexed":true,"internalType":"address"},{"name":"to","type":"address","indexed":true,"internalType":"address"},{"name":"amount","type":"uint256","indexed":false,"internalType":"uint256"},{"name":"depositHash","type":"bytes32","indexed":false,"internalType":"bytes32"}],"anonymous":false},{"type":"event","name":"ETHDepositInitiated","inputs":[{"name":"from","type":"address","indexed":true,"internalType":"address"},{"name":"to","type":"address","indexed":true,"internalType":"address"},{"name":"amount","type":"uint256","indexed":false,"internalType":"uint256"}],"anonymous":false},{"type":"event","name":"ETHWithdrawalFinalized","inputs":[{"name":"to","type":"address","indexed":true,"internalType":"address"},{"name":"amount","type":"uint256","indexed":false,"internalType":"uint256"}],"anonymous":false},{"type":"event","name":"WithdrawalFinalized","inputs":[{"name":"token","type":"address","indexed":true,"internalType":"address"},{"name":"to","type":"address","indexed":true,"internalType":"address"},{"name":"amount","type":"uint256","indexed":false,"internalType":"uint256"},{"name":"withdrawalHash","type":"bytes32","indexed":false,"internalType":"bytes32"}],"anonymous":false},{"type":"error","name":"BridgePaused","inputs":[]},{"type":"error","name":"InsufficientETH","inputs":[]},{"type":"error","name":"NotAdmin","inputs":[]},{"type":"error","name":"NotL2Bridge","inputs":[]},{"type":"error","name":"NotMessenger","inputs":[]},{"type":"error","name":"PeerNotConfigured","inputs":[]},{"type":"error","name":"TransferFailed","inputs":[]},{"type":"error","name":"ZeroAddress","inputs":[]},{"type":"error","name":"ZeroAmount","inputs":[]}],"bytecode":{"object":"0x60e03461014357601f6111e838819003918201601f19168301916001600160401b0383118484101761014757808492608094604052833981010312610143576100478161015b565b6100536020830161015b565b9161006c60606100656040840161015b565b920161015b565b6001600160a01b03909216928315610134576001600160a01b0316908115610134576001600160a01b0316918215610134576001600160a01b03169283156101345760805260a05260c052600180546001600160a01b031916919091179055604051611078908161017082396080518181816102b00152818161054a015281816106f801528181610aeb01528181610bdc0152610ced015260a0518181816101dd015281816107980152610f1e015260c05181818161094901528181610a3b0152610d910152f35b63d92e233d60e01b5f5260045ffd5b5f80fd5b634e487b7160e01b5f52604160045260245ffd5b51906001600160a01b03821682036101435756fe608080604052600436101561001c575b50361561001a575f80fd5b005b5f905f3560e01c908163119e5bf314610f0c5750806316c38b3c14610ebb5780632010e87514610cce5780632d2da80614610b385780633aacc0bc14610b1a5780633cb747bf14610ad55780633d36d97114610a6a5780633e413bee14610a2557806356b22bf2146108d15780635c975abb146108ae57806362a98843146106d85780636fe9b25c1461052a578063704b6c02146104bd5780638f601f6614610459578063a1420cb01461043b578063a26601a614610165578063ae1f6aaf1461013e578063c6de96c0146101205763f851a4400361000f573461011d578060031936011261011d576001546040516001600160a01b039091168152602090f35b80fd5b503461011d578060031936011261011d576020600354604051908152f35b503461011d578060031936011261011d57546040516001600160a01b039091168152602090f35b503461011d57604036600319011261011d5761017f610f4d565b60243560ff6006541661042c5782546001600160a01b03161561041d57801561040e576001600160a01b0382169182156103ff576040516323b872dd60e01b8152336004820152306024820152604481018390526001600160a01b037f000000000000000000000000000000000000000000000000000000000000000016919060208160648189875af19081156103f45786916103c5575b50156103b65781855260026020526040852060018060a01b0333165f5260205260405f20610246848254610ff1565b905561025483600354610ff1565b600355604051635ff2e69360e01b60208201526001600160a01b038084166024830152336044830152821660648201526084810184905285906102a48160a481015b03601f198101835282610f63565b81546001600160a01b037f0000000000000000000000000000000000000000000000000000000000000000811692911690823b156103b2576102ff92849283604051809681958294633dbb202b60e01b845260048401610ffe565b03925af180156103a75761038e575b50506040516001600160601b0319606084811b82166020840190815233821b8316603485015293901b166048820152605c810184905243607c82015261035781609c8101610296565b51902060405192835260208301527f11fedc05f5463ca3f5e2fdd38d982eb1e12cc6ab5846509d7de2dff9a494b25460403393a480f35b8161039891610f63565b6103a357845f61030e565b8480fd5b6040513d84823e3d90fd5b8380fd5b6312171d8360e31b8552600485fd5b6103e7915060203d6020116103ed575b6103df8183610f63565b810190610fd9565b5f610217565b503d6103d5565b6040513d88823e3d90fd5b63d92e233d60e01b8452600484fd5b631f2a200560e01b8352600483fd5b63507a6c5560e01b8352600483fd5b63a792dfa360e01b8352600483fd5b503461011d578060031936011261011d576020600454604051908152f35b503461011d57604036600319011261011d57610473610f4d565b60243591906001600160a01b03831683036104b9579060409160018060a01b031681526002602052209060018060a01b03165f52602052602060405f2054604051908152f35b5080fd5b503461011d57602036600319011261011d576104d7610f4d565b600154906001600160a01b038216330361051b576001600160a01b031690811561050c576001600160a01b0319161760015580f35b63d92e233d60e01b8352600483fd5b637bfa4b9f60e01b8352600483fd5b503461011d57604036600319011261011d57610544610f4d565b602435907f00000000000000000000000000000000000000000000000000000000000000006001600160a01b0316338190036106c957602060049160405192838092636e296e4560e01b82525afa9081156106be57849161068f575b5083546001600160a01b0390811691160361068057814710610671576105c882600554610fb8565b6005558280808085855af13d1561066c573d67ffffffffffffffff81116106585760405190610601601f8201601f191660200183610f63565b81528460203d92013e5b15610649576040519182526001600160a01b0316907f7d11bbbfa84342dfa4c0036a81ce20f5335ea725840dfe036f7c16308d0a05cf90602090a280f35b6312171d8360e31b8352600483fd5b634e487b7160e01b85526041600452602485fd5b61060b565b631a84bc4160e21b8352600483fd5b63855c2ab760e01b8352600483fd5b6106b1915060203d6020116106b7575b6106a98183610f63565b810190610f99565b5f6105a0565b503d61069f565b6040513d86823e3d90fd5b631e51e47d60e01b8452600484fd5b503461011d57604036600319011261011d576106f2610f4d565b602435907f00000000000000000000000000000000000000000000000000000000000000006001600160a01b0316338190036106c957602060049160405192838092636e296e4560e01b82525afa9081156106be57849161088f575b5083546001600160a01b039081169116036106805761076f82600354610fb8565b60035560405163a9059cbb60e01b81526001600160a01b038281166004830152602482018490527f000000000000000000000000000000000000000000000000000000000000000016919060208160448188875af1908115610884578591610865575b50156108565760408051606084811b6001600160601b0319908116602084019081529185901b166034830152604882018690524360688301527f1e3df6586885d8604476133503293be4a2fb372f7042128337be331439b77505939161083b8160888101610296565b519020825195865260208601526001600160a01b031693a380f35b6312171d8360e31b8452600484fd5b61087e915060203d6020116103ed576103df8183610f63565b5f6107d2565b6040513d87823e3d90fd5b6108a8915060203d6020116106b7576106a98183610f63565b5f61074e565b503461011d578060031936011261011d57602060ff600654166040519015158152f35b503461011d57604036600319011261011d576108eb610f4d565b60243560ff6006541661042c5782546001600160a01b03161561041d57801561040e576001600160a01b0382169182156103ff576040516323b872dd60e01b8152336004820152306024820152604481018390526001600160a01b037f000000000000000000000000000000000000000000000000000000000000000016919060208160648189875af19081156103f4578691610a06575b50156103b65781855260026020526040852060018060a01b0333165f5260205260405f206109b2848254610ff1565b90556109c083600454610ff1565b600455604051635ff2e69360e01b60208201526001600160a01b038084166024830152336044830152821660648201526084810184905285906102a48160a48101610296565b610a1f915060203d6020116103ed576103df8183610f63565b5f610983565b503461011d578060031936011261011d576040517f00000000000000000000000000000000000000000000000000000000000000006001600160a01b03168152602090f35b503461011d57602036600319011261011d57610a84610f4d565b6001546001600160a01b03163303610ac6576001600160a01b03168015610ab75781546001600160a01b03191617815580f35b63d92e233d60e01b8252600482fd5b637bfa4b9f60e01b8252600482fd5b503461011d578060031936011261011d576040517f00000000000000000000000000000000000000000000000000000000000000006001600160a01b03168152602090f35b503461011d578060031936011261011d576020600554604051908152f35b506020366003190112610c8e57610b4d610f4d565b60ff60065416610cbf575f546001600160a01b0316908115610cb0573415610ca1576001600160a01b038116918215610c9257610bda610bcc92610b9334600554610ff1565b60055560405163a6a1be4f60e01b60208201523360248201526001600160a01b0390911660448201523460648201529283906084820190565b03601f198101845283610f63565b7f00000000000000000000000000000000000000000000000000000000000000006001600160a01b031691823b15610c8e57610c2f925f9283604051809681958294633dbb202b60e01b845260048401610ffe565b03925af18015610c8357610c6e575b506040513481527f3ce91e485243f97b13e443f325782afdb4ec30c867f8b9b31ac72d76e6e8d81f60203392a380f35b610c7b9192505f90610f63565b5f905f610c3e565b6040513d5f823e3d90fd5b5f80fd5b63d92e233d60e01b5f5260045ffd5b631f2a200560e01b5f5260045ffd5b63507a6c5560e01b5f5260045ffd5b63a792dfa360e01b5f5260045ffd5b34610c8e576040366003190112610c8e57610ce7610f4d565b602435907f00000000000000000000000000000000000000000000000000000000000000006001600160a01b031633819003610eac57602060049160405192838092636e296e4560e01b82525afa908115610c83575f91610e8d575b505f546001600160a01b03908116911603610e7e57610d6482600454610fb8565b600490815560405163a9059cbb60e01b81526001600160a01b0383811692820192909252602481018490527f000000000000000000000000000000000000000000000000000000000000000090911691906020816044815f875af1908115610c83575f91610e5f575b5015610e505760408051606084811b6001600160601b0319908116602084019081529185901b166034830152604882018690524360688301527f1e3df6586885d8604476133503293be4a2fb372f7042128337be331439b775059391610e368160888101610296565b519020825195865260208601526001600160a01b031693a3005b6312171d8360e31b5f5260045ffd5b610e78915060203d6020116103ed576103df8183610f63565b84610dcd565b63855c2ab760e01b5f5260045ffd5b610ea6915060203d6020116106b7576106a98183610f63565b83610d43565b631e51e47d60e01b5f5260045ffd5b34610c8e576020366003190112610c8e57600435801515809103610c8e576001546001600160a01b03163303610efd5760ff8019600654169116176006555f80f35b637bfa4b9f60e01b5f5260045ffd5b34610c8e575f366003190112610c8e577f00000000000000000000000000000000000000000000000000000000000000006001600160a01b03168152602090f35b600435906001600160a01b0382168203610c8e57565b90601f8019910116810190811067ffffffffffffffff821117610f8557604052565b634e487b7160e01b5f52604160045260245ffd5b90816020910312610c8e57516001600160a01b0381168103610c8e5790565b91908203918211610fc557565b634e487b7160e01b5f52601160045260245ffd5b90816020910312610c8e57518015158103610c8e5790565b91908201809211610fc557565b92916080602060409262030d409460018060a01b0316875260608288015280519182918260608a0152018388015e5f828288010152601f801991011685010193015256fea264697066735822122018dba4629ba3f3b5d51cd48db551991ada5ba1d4b89c46b022d44e1db8abc64864736f6c63430008210033","linkReferences":{}},"methodIdentifiers":{"admin()":"f851a440","depositETH(address)":"2d2da806","depositGDollar(address,uint256)":"a26601a6","depositUSDC(address,uint256)":"56b22bf2","deposits(address,address)":"8f601f66","finalizeETHWithdrawal(address,uint256)":"6fe9b25c","finalizeGDollarWithdrawal(address,uint256)":"62a98843","finalizeUSDCWithdrawal(address,uint256)":"2010e875","goodDollar()":"119e5bf3","l2Bridge()":"ae1f6aaf","messenger()":"3cb747bf","paused()":"5c975abb","setAdmin(address)":"704b6c02","setL2Bridge(address)":"3d36d971","setPaused(bool)":"16c38b3c","totalETHLocked()":"3aacc0bc","totalGDollarLocked()":"c6de96c0","totalUSDCLocked()":"a1420cb0","usdc()":"3e413bee"},"id":24}