{"abi":[{"type":"constructor","inputs":[{"name":"_messenger","type":"address","internalType":"address"},{"name":"_goodDollar","type":"address","internalType":"address"},{"name":"_usdc","type":"address","internalType":"address"},{"name":"_admin","type":"address","internalType":"address"}],"stateMutability":"nonpayable"},{"type":"receive","stateMutability":"payable"},{"type":"function","name":"admin","inputs":[],"outputs":[{"name":"","type":"address","internalType":"address"}],"stateMutability":"view"},{"type":"function","name":"depositETH","inputs":[{"name":"to","type":"address","internalType":"address"}],"outputs":[],"stateMutability":"payable"},{"type":"function","name":"depositGDollar","inputs":[{"name":"to","type":"address","internalType":"address"},{"name":"amount","type":"uint256","internalType":"uint256"}],"outputs":[],"stateMutability":"nonpayable"},{"type":"function","name":"depositUSDC","inputs":[{"name":"to","type":"address","internalType":"address"},{"name":"amount","type":"uint256","internalType":"uint256"}],"outputs":[],"stateMutability":"nonpayable"},{"type":"function","name":"deposits","inputs":[{"name":"","type":"address","internalType":"address"},{"name":"","type":"address","internalType":"address"}],"outputs":[{"name":"","type":"uint256","internalType":"uint256"}],"stateMutability":"view"},{"type":"function","name":"finalizeETHWithdrawal","inputs":[{"name":"to","type":"address","internalType":"address"},{"name":"amount","type":"uint256","internalType":"uint256"}],"outputs":[],"stateMutability":"nonpayable"},{"type":"function","name":"finalizeGDollarWithdrawal","inputs":[{"name":"to","type":"address","internalType":"address"},{"name":"amount","type":"uint256","internalType":"uint256"}],"outputs":[],"stateMutability":"nonpayable"},{"type":"function","name":"finalizeUSDCWithdrawal","inputs":[{"name":"to","type":"address","internalType":"address"},{"name":"amount","type":"uint256","internalType":"uint256"}],"outputs":[],"stateMutability":"nonpayable"},{"type":"function","name":"goodDollar","inputs":[],"outputs":[{"name":"","type":"address","internalType":"contract IBridgeToken"}],"stateMutability":"view"},{"type":"function","name":"l2Bridge","inputs":[],"outputs":[{"name":"","type":"address","internalType":"address"}],"stateMutability":"view"},{"type":"function","name":"messenger","inputs":[],"outputs":[{"name":"","type":"address","internalType":"contract IL1CrossDomainMessenger"}],"stateMutability":"view"},{"type":"function","name":"paused","inputs":[],"outputs":[{"name":"","type":"bool","internalType":"bool"}],"stateMutability":"view"},{"type":"function","name":"setAdmin","inputs":[{"name":"newAdmin","type":"address","internalType":"address"}],"outputs":[],"stateMutability":"nonpayable"},{"type":"function","name":"setL2Bridge","inputs":[{"name":"_l2Bridge","type":"address","internalType":"address"}],"outputs":[],"stateMutability":"nonpayable"},{"type":"function","name":"setPaused","inputs":[{"name":"_paused","type":"bool","internalType":"bool"}],"outputs":[],"stateMutability":"nonpayable"},{"type":"function","name":"totalETHLocked","inputs":[],"outputs":[{"name":"","type":"uint256","internalType":"uint256"}],"stateMutability":"view"},{"type":"function","name":"totalGDollarLocked","inputs":[],"outputs":[{"name":"","type":"uint256","internalType":"uint256"}],"stateMutability":"view"},{"type":"function","name":"totalUSDCLocked","inputs":[],"outputs":[{"name":"","type":"uint256","internalType":"uint256"}],"stateMutability":"view"},{"type":"function","name":"usdc","inputs":[],"outputs":[{"name":"","type":"address","internalType":"contract IBridgeToken"}],"stateMutability":"view"},{"type":"event","name":"DepositInitiated","inputs":[{"name":"token","type":"address","indexed":true,"internalType":"address"},{"name":"from","type":"address","indexed":true,"internalType":"address"},{"name":"to","type":"address","indexed":true,"internalType":"address"},{"name":"amount","type":"uint256","indexed":false,"internalType":"uint256"},{"name":"depositHash","type":"bytes32","indexed":false,"internalType":"bytes32"}],"anonymous":false},{"type":"event","name":"ETHDepositInitiated","inputs":[{"name":"from","type":"address","indexed":true,"internalType":"address"},{"name":"to","type":"address","indexed":true,"internalType":"address"},{"name":"amount","type":"uint256","indexed":false,"internalType":"uint256"}],"anonymous":false},{"type":"event","name":"ETHWithdrawalFinalized","inputs":[{"name":"to","type":"address","indexed":true,"internalType":"address"},{"name":"amount","type":"uint256","indexed":false,"internalType":"uint256"}],"anonymous":false},{"type":"event","name":"WithdrawalFinalized","inputs":[{"name":"token","type":"address","indexed":true,"internalType":"address"},{"name":"to","type":"address","indexed":true,"internalType":"address"},{"name":"amount","type":"uint256","indexed":false,"internalType":"uint256"},{"name":"withdrawalHash","type":"bytes32","indexed":false,"internalType":"bytes32"}],"anonymous":false},{"type":"error","name":"BridgePaused","inputs":[]},{"type":"error","name":"InsufficientETH","inputs":[]},{"type":"error","name":"NotAdmin","inputs":[]},{"type":"error","name":"NotL2Bridge","inputs":[]},{"type":"error","name":"NotMessenger","inputs":[]},{"type":"error","name":"TransferFailed","inputs":[]},{"type":"error","name":"ZeroAddress","inputs":[]},{"type":"error","name":"ZeroAmount","inputs":[]}],"bytecode":{"object":"0x60e060405234801561000f575f5ffd5b506040516128e73803806128e783398181016040528101906100319190610308565b5f73ffffffffffffffffffffffffffffffffffffffff168473ffffffffffffffffffffffffffffffffffffffff1603610096576040517fd92e233d00000000000000000000000000000000000000000000000000000000815260040160405180910390fd5b5f73ffffffffffffffffffffffffffffffffffffffff168373ffffffffffffffffffffffffffffffffffffffff16036100fb576040517fd92e233d00000000000000000000000000000000000000000000000000000000815260040160405180910390fd5b5f73ffffffffffffffffffffffffffffffffffffffff168273ffffffffffffffffffffffffffffffffffffffff1603610160576040517fd92e233d00000000000000000000000000000000000000000000000000000000815260040160405180910390fd5b5f73ffffffffffffffffffffffffffffffffffffffff168173ffffffffffffffffffffffffffffffffffffffff16036101c5576040517fd92e233d00000000000000000000000000000000000000000000000000000000815260040160405180910390fd5b8373ffffffffffffffffffffffffffffffffffffffff1660808173ffffffffffffffffffffffffffffffffffffffff16815250508273ffffffffffffffffffffffffffffffffffffffff1660a08173ffffffffffffffffffffffffffffffffffffffff16815250508173ffffffffffffffffffffffffffffffffffffffff1660c08173ffffffffffffffffffffffffffffffffffffffff16815250508060015f6101000a81548173ffffffffffffffffffffffffffffffffffffffff021916908373ffffffffffffffffffffffffffffffffffffffff1602179055505050505061036c565b5f5ffd5b5f73ffffffffffffffffffffffffffffffffffffffff82169050919050565b5f6102d7826102ae565b9050919050565b6102e7816102cd565b81146102f1575f5ffd5b50565b5f81519050610302816102de565b92915050565b5f5f5f5f608085870312156103205761031f6102aa565b5b5f61032d878288016102f4565b945050602061033e878288016102f4565b935050604061034f878288016102f4565b9250506060610360878288016102f4565b91505092959194509250565b60805160a05160c0516124a26104455f395f81816106ab01528181610780015281816107e601528181610c2201528181610d2b01528181610e0501528181610ec801528181610ff4015261107301525f8181610436015281816112ab01528181611380015281816113e60152818161196f01528181611a4901528181611b0c01528181611c380152611cb701525f81816104fc015281816105b8015281816109b501528181610ad101528181610f46015281816110fc015281816111b80152818161145c015281816115180152611b8a01526124a25ff3fe608060405260043610610117575f3560e01c80635c975abb1161009f578063a1420cb011610063578063a1420cb014610364578063a26601a61461038e578063ae1f6aaf146103b6578063c6de96c0146103e0578063f851a4401461040a5761011e565b80635c975abb1461028657806362a98843146102b05780636fe9b25c146102d8578063704b6c02146103005780638f601f66146103285761011e565b80633aacc0bc116100e65780633aacc0bc146101b85780633cb747bf146101e25780633d36d9711461020c5780633e413bee1461023457806356b22bf21461025e5761011e565b8063119e5bf31461012257806316c38b3c1461014c5780632010e875146101745780632d2da8061461019c5761011e565b3661011e57005b5f5ffd5b34801561012d575f5ffd5b50610136610434565b6040516101439190611df5565b60405180910390f35b348015610157575f5ffd5b50610172600480360381019061016d9190611e47565b610458565b005b34801561017f575f5ffd5b5061019a60048036038101906101959190611ee0565b6104fa565b005b6101b660048036038101906101b19190611f1e565b61085a565b005b3480156101c3575f5ffd5b506101cc610ac9565b6040516101d99190611f58565b60405180910390f35b3480156101ed575f5ffd5b506101f6610acf565b6040516102039190611f91565b60405180910390f35b348015610217575f5ffd5b50610232600480360381019061022d9190611f1e565b610af3565b005b34801561023f575f5ffd5b50610248610c20565b6040516102559190611df5565b60405180910390f35b348015610269575f5ffd5b50610284600480360381019061027f9190611ee0565b610c44565b005b348015610291575f5ffd5b5061029a6110e8565b6040516102a79190611fb9565b60405180910390f35b3480156102bb575f5ffd5b506102d660048036038101906102d19190611ee0565b6110fa565b005b3480156102e3575f5ffd5b506102fe60048036038101906102f99190611ee0565b61145a565b005b34801561030b575f5ffd5b5061032660048036038101906103219190611f1e565b611734565b005b348015610333575f5ffd5b5061034e60048036038101906103499190611fd2565b611862565b60405161035b9190611f58565b60405180910390f35b34801561036f575f5ffd5b50610378611882565b6040516103859190611f58565b60405180910390f35b348015610399575f5ffd5b506103b460048036038101906103af9190611ee0565b611888565b005b3480156103c1575f5ffd5b506103ca611d2c565b6040516103d7919061201f565b60405180910390f35b3480156103eb575f5ffd5b506103f4611d50565b6040516104019190611f58565b60405180910390f35b348015610415575f5ffd5b5061041e611d56565b60405161042b919061201f565b60405180910390f35b7f000000000000000000000000000000000000000000000000000000000000000081565b60015f9054906101000a900473ffffffffffffffffffffffffffffffffffffffff1673ffffffffffffffffffffffffffffffffffffffff163373ffffffffffffffffffffffffffffffffffffffff16146104de576040517f7bfa4b9f00000000000000000000000000000000000000000000000000000000815260040160405180910390fd5b8060065f6101000a81548160ff02191690831515021790555050565b7f000000000000000000000000000000000000000000000000000000000000000073ffffffffffffffffffffffffffffffffffffffff163373ffffffffffffffffffffffffffffffffffffffff161461057f576040517f1e51e47d00000000000000000000000000000000000000000000000000000000815260040160405180910390fd5b5f5f9054906101000a900473ffffffffffffffffffffffffffffffffffffffff1673ffffffffffffffffffffffffffffffffffffffff167f000000000000000000000000000000000000000000000000000000000000000073ffffffffffffffffffffffffffffffffffffffff16636e296e456040518163ffffffff1660e01b8152600401602060405180830381865afa15801561061f573d5f5f3e3d5ffd5b505050506040513d601f19601f82011682018060405250810190610643919061204c565b73ffffffffffffffffffffffffffffffffffffffff1614610690576040517f855c2ab700000000000000000000000000000000000000000000000000000000815260040160405180910390fd5b8060045f8282546106a191906120a4565b925050819055505f7f000000000000000000000000000000000000000000000000000000000000000073ffffffffffffffffffffffffffffffffffffffff1663a9059cbb84846040518363ffffffff1660e01b81526004016107049291906120d7565b6020604051808303815f875af1158015610720573d5f5f3e3d5ffd5b505050506040513d601f19601f820116820180604052508101906107449190612112565b90508061077d576040517f90b8ec1800000000000000000000000000000000000000000000000000000000815260040160405180910390fd5b5f7f00000000000000000000000000000000000000000000000000000000000000008484436040516020016107b594939291906121a2565b6040516020818303038152906040528051906020012090508373ffffffffffffffffffffffffffffffffffffffff167f000000000000000000000000000000000000000000000000000000000000000073ffffffffffffffffffffffffffffffffffffffff167f1e3df6586885d8604476133503293be4a2fb372f7042128337be331439b77505858460405161084c929190612207565b60405180910390a350505050565b60065f9054906101000a900460ff16156108a0576040517fa792dfa300000000000000000000000000000000000000000000000000000000815260040160405180910390fd5b5f34036108d9576040517f1f2a200500000000000000000000000000000000000000000000000000000000815260040160405180910390fd5b5f73ffffffffffffffffffffffffffffffffffffffff168173ffffffffffffffffffffffffffffffffffffffff160361093e576040517fd92e233d00000000000000000000000000000000000000000000000000000000815260040160405180910390fd5b3460055f82825461094f919061222e565b925050819055505f33823460405160240161096c93929190612261565b60405160208183030381529060405263a6a1be4f60e01b6020820180517bffffffffffffffffffffffffffffffffffffffffffffffffffffffff838183161783525050505090507f000000000000000000000000000000000000000000000000000000000000000073ffffffffffffffffffffffffffffffffffffffff16633dbb202b5f5f9054906101000a900473ffffffffffffffffffffffffffffffffffffffff168362030d406040518463ffffffff1660e01b8152600401610a339392919061234e565b5f604051808303815f87803b158015610a4a575f5ffd5b505af1158015610a5c573d5f5f3e3d5ffd5b505050508173ffffffffffffffffffffffffffffffffffffffff163373ffffffffffffffffffffffffffffffffffffffff167f3ce91e485243f97b13e443f325782afdb4ec30c867f8b9b31ac72d76e6e8d81f34604051610abd9190611f58565b60405180910390a35050565b60055481565b7f000000000000000000000000000000000000000000000000000000000000000081565b60015f9054906101000a900473ffffffffffffffffffffffffffffffffffffffff1673ffffffffffffffffffffffffffffffffffffffff163373ffffffffffffffffffffffffffffffffffffffff1614610b79576040517f7bfa4b9f00000000000000000000000000000000000000000000000000000000815260040160405180910390fd5b5f73ffffffffffffffffffffffffffffffffffffffff168173ffffffffffffffffffffffffffffffffffffffff1603610bde576040517fd92e233d00000000000000000000000000000000000000000000000000000000815260040160405180910390fd5b805f5f6101000a81548173ffffffffffffffffffffffffffffffffffffffff021916908373ffffffffffffffffffffffffffffffffffffffff16021790555050565b7f000000000000000000000000000000000000000000000000000000000000000081565b60065f9054906101000a900460ff1615610c8a576040517fa792dfa300000000000000000000000000000000000000000000000000000000815260040160405180910390fd5b5f8103610cc3576040517f1f2a200500000000000000000000000000000000000000000000000000000000815260040160405180910390fd5b5f73ffffffffffffffffffffffffffffffffffffffff168273ffffffffffffffffffffffffffffffffffffffff1603610d28576040517fd92e233d00000000000000000000000000000000000000000000000000000000815260040160405180910390fd5b5f7f000000000000000000000000000000000000000000000000000000000000000073ffffffffffffffffffffffffffffffffffffffff166323b872dd3330856040518463ffffffff1660e01b8152600401610d8693929190612261565b6020604051808303815f875af1158015610da2573d5f5f3e3d5ffd5b505050506040513d601f19601f82011682018060405250810190610dc69190612112565b905080610dff576040517f90b8ec1800000000000000000000000000000000000000000000000000000000815260040160405180910390fd5b8160025f7f000000000000000000000000000000000000000000000000000000000000000073ffffffffffffffffffffffffffffffffffffffff1673ffffffffffffffffffffffffffffffffffffffff1681526020019081526020015f205f3373ffffffffffffffffffffffffffffffffffffffff1673ffffffffffffffffffffffffffffffffffffffff1681526020019081526020015f205f828254610ea6919061222e565b925050819055508160045f828254610ebe919061222e565b925050819055505f7f0000000000000000000000000000000000000000000000000000000000000000338585604051602401610efd949392919061238a565b604051602081830303815290604052635ff2e69360e01b6020820180517bffffffffffffffffffffffffffffffffffffffffffffffffffffffff838183161783525050505090507f000000000000000000000000000000000000000000000000000000000000000073ffffffffffffffffffffffffffffffffffffffff16633dbb202b5f5f9054906101000a900473ffffffffffffffffffffffffffffffffffffffff168362030d406040518463ffffffff1660e01b8152600401610fc49392919061234e565b5f604051808303815f87803b158015610fdb575f5ffd5b505af1158015610fed573d5f5f3e3d5ffd5b505050505f7f00000000000000000000000000000000000000000000000000000000000000003386864360405160200161102b9594939291906123cd565b6040516020818303038152906040528051906020012090508473ffffffffffffffffffffffffffffffffffffffff163373ffffffffffffffffffffffffffffffffffffffff167f000000000000000000000000000000000000000000000000000000000000000073ffffffffffffffffffffffffffffffffffffffff167f11fedc05f5463ca3f5e2fdd38d982eb1e12cc6ab5846509d7de2dff9a494b25487856040516110d9929190612207565b60405180910390a45050505050565b60065f9054906101000a900460ff1681565b7f000000000000000000000000000000000000000000000000000000000000000073ffffffffffffffffffffffffffffffffffffffff163373ffffffffffffffffffffffffffffffffffffffff161461117f576040517f1e51e47d00000000000000000000000000000000000000000000000000000000815260040160405180910390fd5b5f5f9054906101000a900473ffffffffffffffffffffffffffffffffffffffff1673ffffffffffffffffffffffffffffffffffffffff167f000000000000000000000000000000000000000000000000000000000000000073ffffffffffffffffffffffffffffffffffffffff16636e296e456040518163ffffffff1660e01b8152600401602060405180830381865afa15801561121f573d5f5f3e3d5ffd5b505050506040513d601f19601f82011682018060405250810190611243919061204c565b73ffffffffffffffffffffffffffffffffffffffff1614611290576040517f855c2ab700000000000000000000000000000000000000000000000000000000815260040160405180910390fd5b8060035f8282546112a191906120a4565b925050819055505f7f000000000000000000000000000000000000000000000000000000000000000073ffffffffffffffffffffffffffffffffffffffff1663a9059cbb84846040518363ffffffff1660e01b81526004016113049291906120d7565b6020604051808303815f875af1158015611320573d5f5f3e3d5ffd5b505050506040513d601f19601f820116820180604052508101906113449190612112565b90508061137d576040517f90b8ec1800000000000000000000000000000000000000000000000000000000815260040160405180910390fd5b5f7f00000000000000000000000000000000000000000000000000000000000000008484436040516020016113b594939291906121a2565b6040516020818303038152906040528051906020012090508373ffffffffffffffffffffffffffffffffffffffff167f000000000000000000000000000000000000000000000000000000000000000073ffffffffffffffffffffffffffffffffffffffff167f1e3df6586885d8604476133503293be4a2fb372f7042128337be331439b77505858460405161144c929190612207565b60405180910390a350505050565b7f000000000000000000000000000000000000000000000000000000000000000073ffffffffffffffffffffffffffffffffffffffff163373ffffffffffffffffffffffffffffffffffffffff16146114df576040517f1e51e47d00000000000000000000000000000000000000000000000000000000815260040160405180910390fd5b5f5f9054906101000a900473ffffffffffffffffffffffffffffffffffffffff1673ffffffffffffffffffffffffffffffffffffffff167f000000000000000000000000000000000000000000000000000000000000000073ffffffffffffffffffffffffffffffffffffffff16636e296e456040518163ffffffff1660e01b8152600401602060405180830381865afa15801561157f573d5f5f3e3d5ffd5b505050506040513d601f19601f820116820180604052508101906115a3919061204c565b73ffffffffffffffffffffffffffffffffffffffff16146115f0576040517f855c2ab700000000000000000000000000000000000000000000000000000000815260040160405180910390fd5b8047101561162a576040517f6a12f10400000000000000000000000000000000000000000000000000000000815260040160405180910390fd5b8060055f82825461163b91906120a4565b925050819055505f8273ffffffffffffffffffffffffffffffffffffffff168260405161166790612458565b5f6040518083038185875af1925050503d805f81146116a1576040519150601f19603f3d011682016040523d82523d5f602084013e6116a6565b606091505b50509050806116e1576040517f90b8ec1800000000000000000000000000000000000000000000000000000000815260040160405180910390fd5b8273ffffffffffffffffffffffffffffffffffffffff167f7d11bbbfa84342dfa4c0036a81ce20f5335ea725840dfe036f7c16308d0a05cf836040516117279190611f58565b60405180910390a2505050565b60015f9054906101000a900473ffffffffffffffffffffffffffffffffffffffff1673ffffffffffffffffffffffffffffffffffffffff163373ffffffffffffffffffffffffffffffffffffffff16146117ba576040517f7bfa4b9f00000000000000000000000000000000000000000000000000000000815260040160405180910390fd5b5f73ffffffffffffffffffffffffffffffffffffffff168173ffffffffffffffffffffffffffffffffffffffff160361181f576040517fd92e233d00000000000000000000000000000000000000000000000000000000815260040160405180910390fd5b8060015f6101000a81548173ffffffffffffffffffffffffffffffffffffffff021916908373ffffffffffffffffffffffffffffffffffffffff16021790555050565b6002602052815f5260405f20602052805f5260405f205f91509150505481565b60045481565b60065f9054906101000a900460ff16156118ce576040517fa792dfa300000000000000000000000000000000000000000000000000000000815260040160405180910390fd5b5f8103611907576040517f1f2a200500000000000000000000000000000000000000000000000000000000815260040160405180910390fd5b5f73ffffffffffffffffffffffffffffffffffffffff168273ffffffffffffffffffffffffffffffffffffffff160361196c576040517fd92e233d00000000000000000000000000000000000000000000000000000000815260040160405180910390fd5b5f7f000000000000000000000000000000000000000000000000000000000000000073ffffffffffffffffffffffffffffffffffffffff166323b872dd3330856040518463ffffffff1660e01b81526004016119ca93929190612261565b6020604051808303815f875af11580156119e6573d5f5f3e3d5ffd5b505050506040513d601f19601f82011682018060405250810190611a0a9190612112565b905080611a43576040517f90b8ec1800000000000000000000000000000000000000000000000000000000815260040160405180910390fd5b8160025f7f000000000000000000000000000000000000000000000000000000000000000073ffffffffffffffffffffffffffffffffffffffff1673ffffffffffffffffffffffffffffffffffffffff1681526020019081526020015f205f3373ffffffffffffffffffffffffffffffffffffffff1673ffffffffffffffffffffffffffffffffffffffff1681526020019081526020015f205f828254611aea919061222e565b925050819055508160035f828254611b02919061222e565b925050819055505f7f0000000000000000000000000000000000000000000000000000000000000000338585604051602401611b41949392919061238a565b604051602081830303815290604052635ff2e69360e01b6020820180517bffffffffffffffffffffffffffffffffffffffffffffffffffffffff838183161783525050505090507f000000000000000000000000000000000000000000000000000000000000000073ffffffffffffffffffffffffffffffffffffffff16633dbb202b5f5f9054906101000a900473ffffffffffffffffffffffffffffffffffffffff168362030d406040518463ffffffff1660e01b8152600401611c089392919061234e565b5f604051808303815f87803b158015611c1f575f5ffd5b505af1158015611c31573d5f5f3e3d5ffd5b505050505f7f000000000000000000000000000000000000000000000000000000000000000033868643604051602001611c6f9594939291906123cd565b6040516020818303038152906040528051906020012090508473ffffffffffffffffffffffffffffffffffffffff163373ffffffffffffffffffffffffffffffffffffffff167f000000000000000000000000000000000000000000000000000000000000000073ffffffffffffffffffffffffffffffffffffffff167f11fedc05f5463ca3f5e2fdd38d982eb1e12cc6ab5846509d7de2dff9a494b2548785604051611d1d929190612207565b60405180910390a45050505050565b5f5f9054906101000a900473ffffffffffffffffffffffffffffffffffffffff1681565b60035481565b60015f9054906101000a900473ffffffffffffffffffffffffffffffffffffffff1681565b5f73ffffffffffffffffffffffffffffffffffffffff82169050919050565b5f819050919050565b5f611dbd611db8611db384611d7b565b611d9a565b611d7b565b9050919050565b5f611dce82611da3565b9050919050565b5f611ddf82611dc4565b9050919050565b611def81611dd5565b82525050565b5f602082019050611e085f830184611de6565b92915050565b5f5ffd5b5f8115159050919050565b611e2681611e12565b8114611e30575f5ffd5b50565b5f81359050611e4181611e1d565b92915050565b5f60208284031215611e5c57611e5b611e0e565b5b5f611e6984828501611e33565b91505092915050565b5f611e7c82611d7b565b9050919050565b611e8c81611e72565b8114611e96575f5ffd5b50565b5f81359050611ea781611e83565b92915050565b5f819050919050565b611ebf81611ead565b8114611ec9575f5ffd5b50565b5f81359050611eda81611eb6565b92915050565b5f5f60408385031215611ef657611ef5611e0e565b5b5f611f0385828601611e99565b9250506020611f1485828601611ecc565b9150509250929050565b5f60208284031215611f3357611f32611e0e565b5b5f611f4084828501611e99565b91505092915050565b611f5281611ead565b82525050565b5f602082019050611f6b5f830184611f49565b92915050565b5f611f7b82611dc4565b9050919050565b611f8b81611f71565b82525050565b5f602082019050611fa45f830184611f82565b92915050565b611fb381611e12565b82525050565b5f602082019050611fcc5f830184611faa565b92915050565b5f5f60408385031215611fe857611fe7611e0e565b5b5f611ff585828601611e99565b925050602061200685828601611e99565b9150509250929050565b61201981611e72565b82525050565b5f6020820190506120325f830184612010565b92915050565b5f8151905061204681611e83565b92915050565b5f6020828403121561206157612060611e0e565b5b5f61206e84828501612038565b91505092915050565b7f4e487b71000000000000000000000000000000000000000000000000000000005f52601160045260245ffd5b5f6120ae82611ead565b91506120b983611ead565b92508282039050818111156120d1576120d0612077565b5b92915050565b5f6040820190506120ea5f830185612010565b6120f76020830184611f49565b9392505050565b5f8151905061210c81611e1d565b92915050565b5f6020828403121561212757612126611e0e565b5b5f612134848285016120fe565b91505092915050565b5f8160601b9050919050565b5f6121538261213d565b9050919050565b5f61216482612149565b9050919050565b61217c61217782611e72565b61215a565b82525050565b5f819050919050565b61219c61219782611ead565b612182565b82525050565b5f6121ad828761216b565b6014820191506121bd828661216b565b6014820191506121cd828561218b565b6020820191506121dd828461218b565b60208201915081905095945050505050565b5f819050919050565b612201816121ef565b82525050565b5f60408201905061221a5f830185611f49565b61222760208301846121f8565b9392505050565b5f61223882611ead565b915061224383611ead565b925082820190508082111561225b5761225a612077565b5b92915050565b5f6060820190506122745f830186612010565b6122816020830185612010565b61228e6040830184611f49565b949350505050565b5f81519050919050565b5f82825260208201905092915050565b8281835e5f83830152505050565b5f601f19601f8301169050919050565b5f6122d882612296565b6122e281856122a0565b93506122f28185602086016122b0565b6122fb816122be565b840191505092915050565b5f819050919050565b5f63ffffffff82169050919050565b5f61233861233361232e84612306565b611d9a565b61230f565b9050919050565b6123488161231e565b82525050565b5f6060820190506123615f830186612010565b818103602083015261237381856122ce565b9050612382604083018461233f565b949350505050565b5f60808201905061239d5f830187612010565b6123aa6020830186612010565b6123b76040830185612010565b6123c46060830184611f49565b95945050505050565b5f6123d8828861216b565b6014820191506123e8828761216b565b6014820191506123f8828661216b565b601482019150612408828561218b565b602082019150612418828461218b565b6020820191508190509695505050505050565b5f81905092915050565b50565b5f6124435f8361242b565b915061244e82612435565b5f82019050919050565b5f61246282612438565b915081905091905056fea2646970667358221220801e6e600599a0bed3648048a75b119d417eed3d0773cfcedf28f251ed56439b64736f6c63430008210033","linkReferences":{}},"methodIdentifiers":{"admin()":"f851a440","depositETH(address)":"2d2da806","depositGDollar(address,uint256)":"a26601a6","depositUSDC(address,uint256)":"56b22bf2","deposits(address,address)":"8f601f66","finalizeETHWithdrawal(address,uint256)":"6fe9b25c","finalizeGDollarWithdrawal(address,uint256)":"62a98843","finalizeUSDCWithdrawal(address,uint256)":"2010e875","goodDollar()":"119e5bf3","l2Bridge()":"ae1f6aaf","messenger()":"3cb747bf","paused()":"5c975abb","setAdmin(address)":"704b6c02","setL2Bridge(address)":"3d36d971","setPaused(bool)":"16c38b3c","totalETHLocked()":"3aacc0bc","totalGDollarLocked()":"c6de96c0","totalUSDCLocked()":"a1420cb0","usdc()":"3e413bee"},"id":27}