{"abi":[{"type":"constructor","inputs":[{"name":"_admin","type":"address","internalType":"address"}],"stateMutability":"nonpayable"},{"type":"function","name":"admin","inputs":[],"outputs":[{"name":"","type":"address","internalType":"address"}],"stateMutability":"view"},{"type":"function","name":"allowance","inputs":[{"name":"","type":"address","internalType":"address"},{"name":"","type":"address","internalType":"address"}],"outputs":[{"name":"","type":"uint256","internalType":"uint256"}],"stateMutability":"view"},{"type":"function","name":"approve","inputs":[{"name":"spender","type":"address","internalType":"address"},{"name":"amount","type":"uint256","internalType":"uint256"}],"outputs":[{"name":"","type":"bool","internalType":"bool"}],"stateMutability":"nonpayable"},{"type":"function","name":"balanceOf","inputs":[{"name":"","type":"address","internalType":"address"}],"outputs":[{"name":"","type":"uint256","internalType":"uint256"}],"stateMutability":"view"},{"type":"function","name":"burn","inputs":[{"name":"amount","type":"uint256","internalType":"uint256"}],"outputs":[],"stateMutability":"nonpayable"},{"type":"function","name":"burnFrom","inputs":[{"name":"from","type":"address","internalType":"address"},{"name":"amount","type":"uint256","internalType":"uint256"}],"outputs":[],"stateMutability":"nonpayable"},{"type":"function","name":"decimals","inputs":[],"outputs":[{"name":"","type":"uint8","internalType":"uint8"}],"stateMutability":"view"},{"type":"function","name":"isBurner","inputs":[{"name":"","type":"address","internalType":"address"}],"outputs":[{"name":"","type":"bool","internalType":"bool"}],"stateMutability":"view"},{"type":"function","name":"isMinter","inputs":[{"name":"","type":"address","internalType":"address"}],"outputs":[{"name":"","type":"bool","internalType":"bool"}],"stateMutability":"view"},{"type":"function","name":"mint","inputs":[{"name":"to","type":"address","internalType":"address"},{"name":"amount","type":"uint256","internalType":"uint256"}],"outputs":[],"stateMutability":"nonpayable"},{"type":"function","name":"name","inputs":[],"outputs":[{"name":"","type":"string","internalType":"string"}],"stateMutability":"view"},{"type":"function","name":"setBurner","inputs":[{"name":"account","type":"address","internalType":"address"},{"name":"status","type":"bool","internalType":"bool"}],"outputs":[],"stateMutability":"nonpayable"},{"type":"function","name":"setMinter","inputs":[{"name":"account","type":"address","internalType":"address"},{"name":"status","type":"bool","internalType":"bool"}],"outputs":[],"stateMutability":"nonpayable"},{"type":"function","name":"symbol","inputs":[],"outputs":[{"name":"","type":"string","internalType":"string"}],"stateMutability":"view"},{"type":"function","name":"totalSupply","inputs":[],"outputs":[{"name":"","type":"uint256","internalType":"uint256"}],"stateMutability":"view"},{"type":"function","name":"transfer","inputs":[{"name":"to","type":"address","internalType":"address"},{"name":"amount","type":"uint256","internalType":"uint256"}],"outputs":[{"name":"","type":"bool","internalType":"bool"}],"stateMutability":"nonpayable"},{"type":"function","name":"transferAdmin","inputs":[{"name":"newAdmin","type":"address","internalType":"address"}],"outputs":[],"stateMutability":"nonpayable"},{"type":"function","name":"transferFrom","inputs":[{"name":"from","type":"address","internalType":"address"},{"name":"to","type":"address","internalType":"address"},{"name":"amount","type":"uint256","internalType":"uint256"}],"outputs":[{"name":"","type":"bool","internalType":"bool"}],"stateMutability":"nonpayable"},{"type":"event","name":"AdminTransferred","inputs":[{"name":"oldAdmin","type":"address","indexed":true,"internalType":"address"},{"name":"newAdmin","type":"address","indexed":true,"internalType":"address"}],"anonymous":false},{"type":"event","name":"Approval","inputs":[{"name":"owner","type":"address","indexed":true,"internalType":"address"},{"name":"spender","type":"address","indexed":true,"internalType":"address"},{"name":"value","type":"uint256","indexed":false,"internalType":"uint256"}],"anonymous":false},{"type":"event","name":"BurnerSet","inputs":[{"name":"account","type":"address","indexed":true,"internalType":"address"},{"name":"status","type":"bool","indexed":false,"internalType":"bool"}],"anonymous":false},{"type":"event","name":"MinterSet","inputs":[{"name":"account","type":"address","indexed":true,"internalType":"address"},{"name":"status","type":"bool","indexed":false,"internalType":"bool"}],"anonymous":false},{"type":"event","name":"Transfer","inputs":[{"name":"from","type":"address","indexed":true,"internalType":"address"},{"name":"to","type":"address","indexed":true,"internalType":"address"},{"name":"value","type":"uint256","indexed":false,"internalType":"uint256"}],"anonymous":false}],"bytecode":{"object":"0x60803460ad57601f610d7b38819003918201601f19168301916001600160401b0383118484101760b15780849260209460405283398101031260ad57516001600160a01b0381169081900360ad578015607557600380546001600160a01b031916919091179055604051610cb590816100c68239f35b60405162461bcd60e51b815260206004820152601060248201526f33aaa9a21d103d32b9379030b236b4b760811b6044820152606490fd5b5f80fd5b634e487b7160e01b5f52604160045260245ffdfe60806040526004361015610011575f80fd5b5f3560e01c806306fdde0314610983578063095ea7b3146108cc5780630d895ee11461084f57806318160ddd1461083357806323b872dd14610722578063313ce5671461070757806340c10f19146105f357806342966c68146105655780634334614a1461052857806370a08231146104f057806375829def1461047357806379cc67901461033c57806395d89b41146102d5578063a9059cbb14610220578063aa271e1a146101e3578063cf456ae71461015b578063dd62ed3e1461010b5763f851a440146100df575f80fd5b34610107575f366003190112610107576003546040516001600160a01b039091168152602090f35b5f80fd5b3461010757604036600319011261010757610124610a02565b61012c610a18565b6001600160a01b039182165f908152600260209081526040808320949093168252928352819020549051908152f35b346101075760207f583b0aa0e528532caf4b907c11d7a8158a122fe2a6fb80cd9b09776ebea8d92d61018c36610a2e565b92906101a360018060a01b03600354163314610a5d565b6001600160a01b0316926101b8841515610a9b565b835f52600482526101d88160405f209060ff801983541691151516179055565b6040519015158152a2005b34610107576020366003190112610107576001600160a01b03610204610a02565b165f526004602052602060ff60405f2054166040519015158152f35b3461010757604036600319011261010757610239610a02565b6024359061024960065415610adc565b60016006556001600160a01b031690610263821515610b14565b335f52600160205261027b8160405f20541015610bc6565b335f52600160205260405f20610292828254610ba5565b9055815f52600160205260405f206102ab828254610c12565b90556040519081525f516020610c605f395f51905f5260203392a35f600655602060405160018152f35b34610107575f36600319011261010757604051604081019080821067ffffffffffffffff8311176103285761032491604052600481526319d554d160e21b6020820152604051918291826109d8565b0390f35b634e487b7160e01b5f52604160045260245ffd5b3461010757604036600319011261010757610355610a02565b60243561036460065415610adc565b6001600655335f52600560205260ff60405f2054161561043b575f516020610c605f395f51905f5260205f9361039b841515610c1f565b6001600160a01b031692338490036103f7575b838552600182526103c58160408720541015610bc6565b83855260018252604085206103db828254610ba5565b90556103e8818654610ba5565b8555604051908152a35f600655005b838552600282526040808620338752835285205461042290829061041d82821015610b59565b610ba5565b84865260028352604080872033885284528620556103ae565b60405162461bcd60e51b815260206004820152601060248201526f33aaa9a21d103737ba10313ab93732b960811b6044820152606490fd5b346101075760203660031901126101075761048c610a02565b6003546001600160a01b038116916104a5338414610a5d565b6001600160a01b03169182906104bc821515610a9b565b7ff8ccb027dfcd135e000e9d45e6cc2d662578a8825d4c45b5e32e0adf67e79ec65f80a36001600160a01b03191617600355005b34610107576020366003190112610107576001600160a01b03610511610a02565b165f526001602052602060405f2054604051908152f35b34610107576020366003190112610107576001600160a01b03610549610a02565b165f526005602052602060ff60405f2054166040519015158152f35b34610107576020366003190112610107575f60043561058660065415610adc565b6001600655610596811515610c1f565b33825260016020526105ae8160408420541015610bc6565b3382526001602052604082206105c5828254610ba5565b90556105d2818354610ba5565b82556040519081525f516020610c605f395f51905f5260203392a35f600655005b346101075760403660031901126101075761060c610a02565b6024359061061c60065415610adc565b6001600655335f52600460205260ff60405f205416156106cf576001600160a01b0316908115610695575f516020610c605f395f51905f526020826106635f941515610c1f565b61066e818554610c12565b84558484526001825260408420610686828254610c12565b9055604051908152a35f600655005b60405162461bcd60e51b8152602060048201526012602482015271675553443a206d696e7420746f207a65726f60701b6044820152606490fd5b60405162461bcd60e51b815260206004820152601060248201526f33aaa9a21d103737ba1036b4b73a32b960811b6044820152606490fd5b34610107575f36600319011261010757602060405160128152f35b346101075760603660031901126101075761073b610a02565b610743610a18565b5f516020610c605f395f51905f5260206044359261076360065415610adc565b60016006556001600160a01b03169361077d851515610b14565b6001600160a01b03165f81815260028352604080822033835284529020549093908160018201610807575b5050835f52600182526107c18160405f20541015610bc6565b835f526001825260405f206107d7828254610ba5565b9055845f526001825260405f206107ef828254610c12565b9055604051908152a35f600655602060405160018152f35b8161041d82610817941015610b59565b5f858152600284526040808220338352855290205585816107a8565b34610107575f3660031901126101075760205f54604051908152f35b346101075760207fd28dc1379d750c7c8137c7ef7b074f62f1361b9becc7f9d77d8c0d6e46a3cd0661088036610a2e565b929061089760018060a01b03600354163314610a5d565b6001600160a01b0316926108ac841515610a9b565b835f52600582526101d88160405f209060ff801983541691151516179055565b34610107576040366003190112610107576108e5610a02565b6001600160a01b0316602435811561094657335f52600260205260405f20825f526020528060405f20556040519081527f8c5be1e5ebec7d5bd14f71427d1e84f3dd0314c0f7b2291e5b200ac8c7c3b92560203392a3602060405160018152f35b60405162461bcd60e51b8152602060048201526015602482015274675553443a20617070726f766520746f207a65726f60581b6044820152606490fd5b34610107575f36600319011261010757604051604081019080821067ffffffffffffffff8311176103285761032491604052600e81526d11dbdbd9111bdb1b185c881554d160921b6020820152604051918291825b602060409281835280519182918282860152018484015e5f828201840152601f01601f1916010190565b600435906001600160a01b038216820361010757565b602435906001600160a01b038216820361010757565b6040906003190112610107576004356001600160a01b0381168103610107579060243580151581036101075790565b15610a6457565b60405162461bcd60e51b815260206004820152600f60248201526e33aaa9a21d103737ba1030b236b4b760891b6044820152606490fd5b15610aa257565b60405162461bcd60e51b8152602060048201526012602482015271675553443a207a65726f206164647265737360701b6044820152606490fd5b15610ae357565b60405162461bcd60e51b81526020600482015260096024820152681499595b9d1c985b9d60ba1b6044820152606490fd5b15610b1b57565b60405162461bcd60e51b8152602060048201526016602482015275675553443a207472616e7366657220746f207a65726f60501b6044820152606490fd5b15610b6057565b60405162461bcd60e51b815260206004820152601c60248201527f675553443a20696e73756666696369656e7420616c6c6f77616e6365000000006044820152606490fd5b91908203918211610bb257565b634e487b7160e01b5f52601160045260245ffd5b15610bcd57565b60405162461bcd60e51b815260206004820152601a60248201527f675553443a20696e73756666696369656e742062616c616e63650000000000006044820152606490fd5b91908201809211610bb257565b15610c2657565b60405162461bcd60e51b815260206004820152601160248201527019d554d10e881e995c9bc8185b5bdd5b9d607a1b6044820152606490fdfeddf252ad1be2c89b69c2b068fc378daa952ba7f163c4a11628f55a4df523b3efa264697066735822122071b3a7b80db2125a936c310b730cd5550b3bb0ec84319faa89f6886da763d91e64736f6c63430008210033","linkReferences":{}},"methodIdentifiers":{"admin()":"f851a440","allowance(address,address)":"dd62ed3e","approve(address,uint256)":"095ea7b3","balanceOf(address)":"70a08231","burn(uint256)":"42966c68","burnFrom(address,uint256)":"79cc6790","decimals()":"313ce567","isBurner(address)":"4334614a","isMinter(address)":"aa271e1a","mint(address,uint256)":"40c10f19","name()":"06fdde03","setBurner(address,bool)":"0d895ee1","setMinter(address,bool)":"cf456ae7","symbol()":"95d89b41","totalSupply()":"18160ddd","transfer(address,uint256)":"a9059cbb","transferAdmin(address)":"75829def","transferFrom(address,address,uint256)":"23b872dd"},"id":51}