{"abi":[{"type":"constructor","inputs":[],"stateMutability":"nonpayable"},{"type":"function","name":"challenger","inputs":[],"outputs":[{"name":"","type":"address","internalType":"address"}],"stateMutability":"view"},{"type":"function","name":"deleteL2Outputs","inputs":[{"name":"_l2OutputIndex","type":"uint256","internalType":"uint256"}],"outputs":[],"stateMutability":"nonpayable"},{"type":"function","name":"getL2Output","inputs":[{"name":"_l2OutputIndex","type":"uint256","internalType":"uint256"}],"outputs":[{"name":"","type":"tuple","internalType":"struct L2OutputOracle.OutputProposal","components":[{"name":"outputRoot","type":"bytes32","internalType":"bytes32"},{"name":"timestamp","type":"uint128","internalType":"uint128"},{"name":"l2BlockNumber","type":"uint128","internalType":"uint128"}]}],"stateMutability":"view"},{"type":"function","name":"l2BlockTime","inputs":[],"outputs":[{"name":"","type":"uint256","internalType":"uint256"}],"stateMutability":"view"},{"type":"function","name":"l2Outputs","inputs":[{"name":"","type":"uint256","internalType":"uint256"}],"outputs":[{"name":"outputRoot","type":"bytes32","internalType":"bytes32"},{"name":"timestamp","type":"uint128","internalType":"uint128"},{"name":"l2BlockNumber","type":"uint128","internalType":"uint128"}],"stateMutability":"view"},{"type":"function","name":"latestBlockNumber","inputs":[],"outputs":[{"name":"","type":"uint256","internalType":"uint256"}],"stateMutability":"view"},{"type":"function","name":"latestOutputIndex","inputs":[],"outputs":[{"name":"","type":"uint256","internalType":"uint256"}],"stateMutability":"view"},{"type":"function","name":"nextBlockNumber","inputs":[],"outputs":[{"name":"","type":"uint256","internalType":"uint256"}],"stateMutability":"view"},{"type":"function","name":"proposeL2Output","inputs":[{"name":"_outputRoot","type":"bytes32","internalType":"bytes32"},{"name":"_l2BlockNumber","type":"uint256","internalType":"uint256"},{"name":"","type":"bytes32","internalType":"bytes32"},{"name":"","type":"uint256","internalType":"uint256"}],"outputs":[],"stateMutability":"nonpayable"},{"type":"function","name":"proposer","inputs":[],"outputs":[{"name":"","type":"address","internalType":"address"}],"stateMutability":"view"},{"type":"function","name":"startingBlockNumber","inputs":[],"outputs":[{"name":"","type":"uint256","internalType":"uint256"}],"stateMutability":"view"},{"type":"function","name":"startingTimestamp","inputs":[],"outputs":[{"name":"","type":"uint256","internalType":"uint256"}],"stateMutability":"view"},{"type":"function","name":"submissionInterval","inputs":[],"outputs":[{"name":"","type":"uint256","internalType":"uint256"}],"stateMutability":"view"},{"type":"event","name":"OutputDeleted","inputs":[{"name":"outputRoot","type":"bytes32","indexed":true,"internalType":"bytes32"},{"name":"l2OutputIndex","type":"uint256","indexed":true,"internalType":"uint256"}],"anonymous":false},{"type":"event","name":"OutputProposed","inputs":[{"name":"outputRoot","type":"bytes32","indexed":true,"internalType":"bytes32"},{"name":"l2OutputIndex","type":"uint256","indexed":true,"internalType":"uint256"},{"name":"l2BlockNumber","type":"uint256","indexed":true,"internalType":"uint256"},{"name":"l1Timestamp","type":"uint256","indexed":false,"internalType":"uint256"}],"anonymous":false}],"bytecode":{"object":"0x608080604052346044575f8054336001600160a01b0319918216811783556001805490921617905560786002908155600355600455426005556106b990816100498239f35b5f80fdfe60806040526004361015610011575f80fd5b5f3560e01c806302be8bfe146105345780634599c7881461051a578063534db0e2146104f257806369f16eec1461046a57806370872aa51461044d578063887862721461043057806389c44cbb1461035357806393991af3146103365780639aaab64814610199578063a25ae55714610112578063a8e4fb90146100eb578063dcec3348146100c95763e1a41bcf146100a8575f80fd5b346100c5575f3660031901126100c5576020600254604051908152f35b5f80fd5b346100c5575f3660031901126100c55760206100e361064f565b604051908152f35b346100c5575f3660031901126100c5575f546040516001600160a01b039091168152602090f35b346100c55760203660031901126100c55760606101536004355f604061013661062f565b828152826020820152015261014e60065482106105e3565b610584565b506001600160801b0361016461062f565b816001845494858452015491604060208201918385168352019260801c83526040519485525116602084015251166040820152f35b346100c55760803660031901126100c5575f5460243590600435906001600160a01b031633036102f1576101cb61064f565b82106102a057600654906101dd61062f565b818152602081016001600160801b0342168152604082016001600160801b03861681526801000000000000000085101561028c576001850160065561022185610584565b939093610279576001926001600160801b03915185555116906001600160801b0319905160801b16179101557fa7aaf2512769da4e444e3de247be2564225c2e7a8f74cfe528e46e17d24868e26020604051428152a4005b634e487b7160e01b5f525f60045260245ffd5b634e487b7160e01b5f52604160045260245ffd5b60405162461bcd60e51b8152602060048201526024808201527f4c324f75747075744f7261636c653a20626c6f636b206e756d62657220746f6f604482015263206c6f7760e01b6064820152608490fd5b60405162461bcd60e51b815260206004820152601d60248201527f4c324f75747075744f7261636c653a206f6e6c792070726f706f7365720000006044820152606490fd5b346100c5575f3660031901126100c5576020600354604051908152f35b346100c55760203660031901126100c557600154600435906001600160a01b031633036103eb5761038760065482106105e3565b61039081610584565b505490805b6006548110156103bf576103a881610584565b919091610279575f60018382829555015501610395565b5090816006557f20c159d28ca188c9459b46c32624bb9e43d1ea4f27b8d3da023bce0401d29ae45f80a3005b60405162461bcd60e51b815260206004820152601f60248201527f4c324f75747075744f7261636c653a206f6e6c79206368616c6c656e676572006044820152606490fd5b346100c5575f3660031901126100c5576020600554604051908152f35b346100c5575f3660031901126100c5576020600454604051908152f35b346100c5575f3660031901126100c55760065480156104ad575f19810190811161049957602090604051908152f35b634e487b7160e01b5f52601160045260245ffd5b60405162461bcd60e51b815260206004820152601a60248201527f4c324f75747075744f7261636c653a206e6f206f7574707574730000000000006044820152606490fd5b346100c5575f3660031901126100c5576001546040516001600160a01b039091168152602090f35b346100c5575f3660031901126100c55760206100e36105b4565b346100c55760203660031901126100c5576004356006548110156100c55761055d606091610584565b50600181549101546040519182526001600160801b038116602083015260801c6040820152f35b6006548110156105a05760065f5260205f209060011b01905f90565b634e487b7160e01b5f52603260045260245ffd5b60065480156105dc575f198101908111610499576105d3600191610584565b50015460801c90565b5060045490565b156105ea57565b60405162461bcd60e51b815260206004820152601d60248201527f4c324f75747075744f7261636c653a20696e76616c696420696e6465780000006044820152606490fd5b604051906060820182811067ffffffffffffffff82111761028c57604052565b60065480156105dc575f1981019081116104995761066e600191610584565b50015460801c6002548101809111610499579056fea2646970667358221220c0258a8df39998813942560fc74d7efcbcdd4da676c40e034c74af1efe443f8364736f6c63430008210033","linkReferences":{}},"methodIdentifiers":{"challenger()":"534db0e2","deleteL2Outputs(uint256)":"89c44cbb","getL2Output(uint256)":"a25ae557","l2BlockTime()":"93991af3","l2Outputs(uint256)":"02be8bfe","latestBlockNumber()":"4599c788","latestOutputIndex()":"69f16eec","nextBlockNumber()":"dcec3348","proposeL2Output(bytes32,uint256,bytes32,uint256)":"9aaab648","proposer()":"a8e4fb90","startingBlockNumber()":"70872aa5","startingTimestamp()":"88786272","submissionInterval()":"e1a41bcf"},"id":30}