{"abi":[{"type":"constructor","inputs":[{"name":"_owner","type":"address","internalType":"address"}],"stateMutability":"nonpayable"},{"type":"function","name":"getAmountIn","inputs":[{"name":"amountOut","type":"uint256","internalType":"uint256"},{"name":"tokenIn","type":"address","internalType":"address"},{"name":"tokenOut","type":"address","internalType":"address"}],"outputs":[{"name":"amountIn","type":"uint256","internalType":"uint256"}],"stateMutability":"view"},{"type":"function","name":"getAmountOut","inputs":[{"name":"amountIn","type":"uint256","internalType":"uint256"},{"name":"tokenIn","type":"address","internalType":"address"},{"name":"tokenOut","type":"address","internalType":"address"}],"outputs":[{"name":"amountOut","type":"uint256","internalType":"uint256"}],"stateMutability":"view"},{"type":"function","name":"getPool","inputs":[{"name":"tokenIn","type":"address","internalType":"address"},{"name":"tokenOut","type":"address","internalType":"address"}],"outputs":[{"name":"","type":"address","internalType":"address"}],"stateMutability":"view"},{"type":"function","name":"owner","inputs":[],"outputs":[{"name":"","type":"address","internalType":"address"}],"stateMutability":"view"},{"type":"function","name":"pools","inputs":[{"name":"","type":"bytes32","internalType":"bytes32"}],"outputs":[{"name":"","type":"address","internalType":"address"}],"stateMutability":"view"},{"type":"function","name":"registerPool","inputs":[{"name":"pool","type":"address","internalType":"address"}],"outputs":[],"stateMutability":"nonpayable"},{"type":"function","name":"removePool","inputs":[{"name":"tokenA","type":"address","internalType":"address"},{"name":"tokenB","type":"address","internalType":"address"}],"outputs":[],"stateMutability":"nonpayable"},{"type":"function","name":"swapExactTokensForTokens","inputs":[{"name":"amountIn","type":"uint256","internalType":"uint256"},{"name":"amountOutMin","type":"uint256","internalType":"uint256"},{"name":"path","type":"address[]","internalType":"address[]"},{"name":"to","type":"address","internalType":"address"},{"name":"deadline","type":"uint256","internalType":"uint256"}],"outputs":[{"name":"amountOut","type":"uint256","internalType":"uint256"}],"stateMutability":"nonpayable"},{"type":"function","name":"swapTokensForExactTokens","inputs":[{"name":"amountOut","type":"uint256","internalType":"uint256"},{"name":"amountInMax","type":"uint256","internalType":"uint256"},{"name":"path","type":"address[]","internalType":"address[]"},{"name":"to","type":"address","internalType":"address"},{"name":"deadline","type":"uint256","internalType":"uint256"}],"outputs":[{"name":"amountIn","type":"uint256","internalType":"uint256"}],"stateMutability":"nonpayable"},{"type":"function","name":"transferOwnership","inputs":[{"name":"newOwner","type":"address","internalType":"address"}],"outputs":[],"stateMutability":"nonpayable"},{"type":"event","name":"PoolRegistered","inputs":[{"name":"tokenA","type":"address","indexed":true,"internalType":"address"},{"name":"tokenB","type":"address","indexed":true,"internalType":"address"},{"name":"pool","type":"address","indexed":true,"internalType":"address"}],"anonymous":false},{"type":"event","name":"PoolRemoved","inputs":[{"name":"tokenA","type":"address","indexed":true,"internalType":"address"},{"name":"tokenB","type":"address","indexed":true,"internalType":"address"}],"anonymous":false},{"type":"event","name":"Swap","inputs":[{"name":"tokenIn","type":"address","indexed":true,"internalType":"address"},{"name":"tokenOut","type":"address","indexed":true,"internalType":"address"},{"name":"amountIn","type":"uint256","indexed":false,"internalType":"uint256"},{"name":"amountOut","type":"uint256","indexed":false,"internalType":"uint256"},{"name":"to","type":"address","indexed":true,"internalType":"address"}],"anonymous":false},{"type":"error","name":"ExcessiveInputAmount","inputs":[]},{"type":"error","name":"Expired","inputs":[]},{"type":"error","name":"InsufficientOutputAmount","inputs":[]},{"type":"error","name":"InvalidPath","inputs":[]},{"type":"error","name":"NotOwner","inputs":[]},{"type":"error","name":"PoolNotFound","inputs":[{"name":"tokenIn","type":"address","internalType":"address"},{"name":"tokenOut","type":"address","internalType":"address"}]},{"type":"error","name":"ZeroAddress","inputs":[]}],"bytecode":{"object":"0x608034608357601f610e3a38819003918201601f19168301916001600160401b03831184841017608757808492602094604052833981010312608357516001600160a01b0381169081900360835780156074575f80546001600160a01b031916919091179055604051610d9e908161009c8239f35b63d92e233d60e01b5f5260045ffd5b5f80fd5b634e487b7160e01b5f52604160045260245ffdfe60806040526004361015610011575f80fd5b5f3560e01c80630a9a2b721461094c57806338ed1739146106cc578063531aa03e1461068e5780635e1e6325146105ca578063744b92e21461053d5780638803dbee146102855780638da5cb5b1461025e578063abd9084614610126578063b5217bb4146100f45763f2fde38b14610087575f80fd5b346100f05760203660031901126100f0576100a061096d565b5f54906001600160a01b03821633036100e1576001600160a01b03169081156100d2576001600160a01b031916175f55005b63d92e233d60e01b5f5260045ffd5b6330cd747160e01b5f5260045ffd5b5f80fd5b346100f05760203660031901126100f0576004355f526001602052602060018060a01b0360405f205416604051908152f35b346100f05760203660031901126100f05761013f61096d565b5f546001600160a01b031633036100e1576001600160a01b031680156100d25760405162fc63d160e41b8152602081600481855afa908115610234575f9161023f575b50604051635f64b55b60e01b8152602081600481865afa908115610234575f91610205575b506101b28183610d02565b5f90815260016020526040812080546001600160a01b031916851790556001600160a01b0391821692909116907f61afef2e121f71511fab2583c5ac49a5dc1d7a8ad8ad91c44c8465f073a73ac49080a4005b610227915060203d60201161022d575b61021f8183610c71565b810190610ce3565b836101a7565b503d610215565b6040513d5f823e3d90fd5b610258915060203d60201161022d5761021f8183610c71565b82610182565b346100f0575f3660031901126100f0575f546040516001600160a01b039091168152602090f35b346100f057610293366109d3565b9492909194421161052e576002850361051f57841561050b576102b581610c5d565b946001101561050b5760206102ca9101610c5d565b6001600160a01b038216929083156100d2576102e7818784610a47565b9485116104fc576102f88187610cbf565b6040516323b872dd60e01b8152336004820152306024820152604481018790526001600160a01b0388169391906020816064815f895af18015610234576104df575b5060405163095ea7b360e01b81526001600160a01b038216600482015260248101889052976020896044815f895af191821561023457885f85936103bc9c6020966104c4575b50604051639f1d0f5960e01b81526001600160a01b03909116600482015260248101929092526044820193909352998a92839182906064820190565b03926001600160a01b03165af1968715610234575f97610490575b5086106104815760405163a9059cbb60e01b81526001600160a01b039384166004820152602481018790529216916020816044815f875af18015610234576020967fb39c9bc43f811e1a7ce159c5f147458fdb80266bf23c17322013316e27e086d092604092610456575b5081519087825288820152a4604051908152f35b61047590893d8b1161047a575b61046d8183610c71565b810190610ca7565b610442565b503d610463565b6342301c2360e01b5f5260045ffd5b9096506020813d6020116104bc575b816104ac60209383610c71565b810103126100f0575195876103d7565b3d915061049f565b6104da90873d891161047a5761046d8183610c71565b610380565b6104f79060203d60201161047a5761046d8183610c71565b61033a565b63e1b0da4f60e01b5f5260045ffd5b634e487b7160e01b5f52603260045260245ffd5b6320db826760e01b5f5260045ffd5b630407b05b60e31b5f5260045ffd5b346100f05760403660031901126100f05761055661096d565b61055e610983565b5f546001600160a01b031633036100e1576105798183610d02565b5f90815260016020526040812080546001600160a01b03191690556001600160a01b0391821692909116907f987eb3c2f78454541205f72f34839b434c306c9eaf4922efd7c0c3060fdb2e4c9080a3005b346100f0576105d836610999565b906001600160a01b036105eb8383610cbf565b1691821561066a5760405163ca706bcf60e01b81526001600160a01b038316600482015260248101859052602081604481875afa8015610234575f90610637575b602090604051908152f35b506020813d602011610662575b8161065160209383610c71565b810103126100f0576020905161062c565b3d9150610644565b631b27a82d60e11b5f9081526001600160a01b039283166004529116602452604490fd5b346100f05760403660031901126100f05760206106ba6106ac61096d565b6106b4610983565b90610cbf565b6040516001600160a01b039091168152f35b346100f0576106da366109d3565b92909192421161052e576002830361051f57821561050b576106fb81610c5d565b926001101561050b5760206107109101610c5d565b6001600160a01b038216929083156100d25761072c8183610cbf565b946001600160a01b0386168015610928576040516323b872dd60e01b8152336004820152306024820152604481018990526001600160a01b03851694906020816064815f8a5af18015610234576107b9996020928c9261090d575b5060405163095ea7b360e01b81526001600160a01b039091166004820152602481019190915298899081906044820190565b03815f895af191821561023457895f85936108129b6020966108f2575b50604051639f1d0f5960e01b81526001600160a01b03909116600482015260248101929092526044820193909352988992839182906064820190565b03925af1958615610234575f966108be575b5085106104815760405163a9059cbb60e01b81526001600160a01b039384166004820152602481018690529216916020816044815f875af18015610234576020967fb39c9bc43f811e1a7ce159c5f147458fdb80266bf23c17322013316e27e086d0926040926108a3575b5081519081528688820152a4604051908152f35b6108b990893d8b1161047a5761046d8183610c71565b61088f565b9095506020813d6020116108ea575b816108da60209383610c71565b810103126100f057519487610824565b3d91506108cd565b61090890873d891161047a5761046d8183610c71565b6107d6565b61092390843d861161047a5761046d8183610c71565b610787565b631b27a82d60e11b5f9081526001600160a01b038086166004528416602452604490fd5b346100f057602061096561095f36610999565b91610a47565b604051908152f35b600435906001600160a01b03821682036100f057565b602435906001600160a01b03821682036100f057565b60609060031901126100f057600435906024356001600160a01b03811681036100f057906044356001600160a01b03811681036100f05790565b9060a06003198301126100f057600435916024359160443567ffffffffffffffff81116100f057826023820112156100f05780600401359267ffffffffffffffff84116100f05760248460051b830101116100f05760240191906064356001600160a01b03811681036100f0579060843590565b91906001600160a01b03610a5b8383610cbf565b1691821561066a575060405163dc5fa6c560e01b815290602082600481865afa918215610234575f92610c29575b506040516319e36f3b60e01b815292602084600481845afa938415610234575f94610bf4575b5060206004916040519283809262fc63d160e41b82525afa908115610234575f91610bd5575b506001600160a01b03918216911603610bd057905b80831015610b7d57818302918383041483151715610b69576127108202918083046127101490151715610b695782810392818411610b69576126f284029384046126f21491141715610b6957818101809111610b69575f198101908111610b69578115610b55570490565b634e487b7160e01b5f52601260045260245ffd5b634e487b7160e01b5f52601160045260245ffd5b60405162461bcd60e51b815260206004820152602560248201527f476f6f6453776170526f757465723a20696e73756666696369656e7420726573604482015264657276657360d81b6064820152608490fd5b610aea565b610bee915060203d60201161022d5761021f8183610c71565b5f610ad5565b9093506020813d602011610c21575b81610c1060209383610c71565b810103126100f05751926020610aaf565b3d9150610c03565b9091506020813d602011610c55575b81610c4560209383610c71565b810103126100f05751905f610a89565b3d9150610c38565b356001600160a01b03811681036100f05790565b90601f8019910116810190811067ffffffffffffffff821117610c9357604052565b634e487b7160e01b5f52604160045260245ffd5b908160209103126100f0575180151581036100f05790565b90610cc991610d02565b5f908152600160205260409020546001600160a01b031690565b908160209103126100f057516001600160a01b03811681036100f05790565b6001600160a01b038281169082161015610d6357905b6040519060208201926bffffffffffffffffffffffff199060601b1683526bffffffffffffffffffffffff199060601b16603482015260288152610d5d604882610c71565b51902090565b610d1856fea2646970667358221220dec8907a71e5016bc5fda3b51d686a7ae93889c99a07f61efc5274afe1ab652564736f6c63430008210033","linkReferences":{}},"methodIdentifiers":{"getAmountIn(uint256,address,address)":"0a9a2b72","getAmountOut(uint256,address,address)":"5e1e6325","getPool(address,address)":"531aa03e","owner()":"8da5cb5b","pools(bytes32)":"b5217bb4","registerPool(address)":"abd90846","removePool(address,address)":"744b92e2","swapExactTokensForTokens(uint256,uint256,address[],address,uint256)":"38ed1739","swapTokensForExactTokens(uint256,uint256,address[],address,uint256)":"8803dbee","transferOwnership(address)":"f2fde38b"},"id":79}