{"abi":[{"type":"constructor","inputs":[{"name":"_collateral","type":"address","internalType":"address"},{"name":"_admin","type":"address","internalType":"address"}],"stateMutability":"nonpayable"},{"type":"function","name":"admin","inputs":[],"outputs":[{"name":"","type":"address","internalType":"address"}],"stateMutability":"view"},{"type":"function","name":"balances","inputs":[{"name":"","type":"address","internalType":"address"}],"outputs":[{"name":"","type":"uint256","internalType":"uint256"}],"stateMutability":"view"},{"type":"function","name":"collateral","inputs":[],"outputs":[{"name":"","type":"address","internalType":"contract IMarginToken"}],"stateMutability":"view"},{"type":"function","name":"credit","inputs":[{"name":"user","type":"address","internalType":"address"},{"name":"amount","type":"uint256","internalType":"uint256"}],"outputs":[],"stateMutability":"nonpayable"},{"type":"function","name":"debit","inputs":[{"name":"user","type":"address","internalType":"address"},{"name":"amount","type":"uint256","internalType":"uint256"}],"outputs":[],"stateMutability":"nonpayable"},{"type":"function","name":"deposit","inputs":[{"name":"amount","type":"uint256","internalType":"uint256"}],"outputs":[],"stateMutability":"nonpayable"},{"type":"function","name":"perpEngine","inputs":[],"outputs":[{"name":"","type":"address","internalType":"address"}],"stateMutability":"view"},{"type":"function","name":"setAdmin","inputs":[{"name":"newAdmin","type":"address","internalType":"address"}],"outputs":[],"stateMutability":"nonpayable"},{"type":"function","name":"setPerpEngine","inputs":[{"name":"engine","type":"address","internalType":"address"}],"outputs":[],"stateMutability":"nonpayable"},{"type":"function","name":"totalDeposited","inputs":[],"outputs":[{"name":"","type":"uint256","internalType":"uint256"}],"stateMutability":"view"},{"type":"function","name":"transfer","inputs":[{"name":"from","type":"address","internalType":"address"},{"name":"to","type":"address","internalType":"address"},{"name":"amount","type":"uint256","internalType":"uint256"}],"outputs":[],"stateMutability":"nonpayable"},{"type":"function","name":"withdraw","inputs":[{"name":"amount","type":"uint256","internalType":"uint256"}],"outputs":[],"stateMutability":"nonpayable"},{"type":"event","name":"Deposited","inputs":[{"name":"user","type":"address","indexed":true,"internalType":"address"},{"name":"amount","type":"uint256","indexed":false,"internalType":"uint256"}],"anonymous":false},{"type":"event","name":"EngineCredit","inputs":[{"name":"user","type":"address","indexed":true,"internalType":"address"},{"name":"amount","type":"uint256","indexed":false,"internalType":"uint256"}],"anonymous":false},{"type":"event","name":"EngineDebit","inputs":[{"name":"user","type":"address","indexed":true,"internalType":"address"},{"name":"amount","type":"uint256","indexed":false,"internalType":"uint256"}],"anonymous":false},{"type":"event","name":"Withdrawn","inputs":[{"name":"user","type":"address","indexed":true,"internalType":"address"},{"name":"amount","type":"uint256","indexed":false,"internalType":"uint256"}],"anonymous":false},{"type":"error","name":"InsufficientBalance","inputs":[{"name":"have","type":"uint256","internalType":"uint256"},{"name":"need","type":"uint256","internalType":"uint256"}]},{"type":"error","name":"NotAdmin","inputs":[]},{"type":"error","name":"NotEngine","inputs":[]},{"type":"error","name":"TransferFailed","inputs":[]},{"type":"error","name":"ZeroAddress","inputs":[]},{"type":"error","name":"ZeroAmount","inputs":[]}],"bytecode":{"object":"0x60a060405234801561000f575f5ffd5b506040516114b13803806114b1833981810160405281019061003191906101d4565b5f73ffffffffffffffffffffffffffffffffffffffff168273ffffffffffffffffffffffffffffffffffffffff1603610096576040517fd92e233d00000000000000000000000000000000000000000000000000000000815260040160405180910390fd5b5f73ffffffffffffffffffffffffffffffffffffffff168173ffffffffffffffffffffffffffffffffffffffff16036100fb576040517fd92e233d00000000000000000000000000000000000000000000000000000000815260040160405180910390fd5b8173ffffffffffffffffffffffffffffffffffffffff1660808173ffffffffffffffffffffffffffffffffffffffff16815250508060015f6101000a81548173ffffffffffffffffffffffffffffffffffffffff021916908373ffffffffffffffffffffffffffffffffffffffff1602179055505050610212565b5f5ffd5b5f73ffffffffffffffffffffffffffffffffffffffff82169050919050565b5f6101a38261017a565b9050919050565b6101b381610199565b81146101bd575f5ffd5b50565b5f815190506101ce816101aa565b92915050565b5f5f604083850312156101ea576101e9610176565b5b5f6101f7858286016101c0565b9250506020610208858286016101c0565b9150509250929050565b6080516112796102385f395f818161039f015281816109810152610d0501526112795ff3fe608060405234801561000f575f5ffd5b50600436106100b2575f3560e01c8063b6b55f251161006f578063b6b55f2514610174578063beabacc814610190578063d8dfeb45146101ac578063ef6506db146101ca578063f851a440146101e6578063ff50abdc14610204576100b2565b806327e235e3146100b65780632e1a7d4d146100e657806348ba4d2b14610102578063636be27a14610120578063704b6c021461013c578063b619daf714610158575b5f5ffd5b6100d060048036038101906100cb9190610ef2565b610222565b6040516100dd9190610f35565b60405180910390f35b61010060048036038101906100fb9190610f78565b610237565b005b61010a6104c3565b6040516101179190610fb2565b60405180910390f35b61013a60048036038101906101359190610fcb565b6104e7565b005b61015660048036038101906101519190610ef2565b6106ea565b005b610172600480360381019061016d9190610ef2565b610818565b005b61018e60048036038101906101899190610f78565b610945565b005b6101aa60048036038101906101a59190611009565b610b12565b005b6101b4610d03565b6040516101c191906110b4565b60405180910390f35b6101e460048036038101906101df9190610fcb565b610d27565b005b6101ee610e69565b6040516101fb9190610fb2565b60405180910390f35b61020c610e8e565b6040516102199190610f35565b60405180910390f35b6002602052805f5260405f205f915090505481565b5f8103610270576040517f1f2a200500000000000000000000000000000000000000000000000000000000815260040160405180910390fd5b8060025f3373ffffffffffffffffffffffffffffffffffffffff1673ffffffffffffffffffffffffffffffffffffffff1681526020019081526020015f205410156103315760025f3373ffffffffffffffffffffffffffffffffffffffff1673ffffffffffffffffffffffffffffffffffffffff1681526020019081526020015f2054816040517fcf4791810000000000000000000000000000000000000000000000000000000081526004016103289291906110cd565b60405180910390fd5b8060025f3373ffffffffffffffffffffffffffffffffffffffff1673ffffffffffffffffffffffffffffffffffffffff1681526020019081526020015f205f82825461037d9190611121565b925050819055508060035f8282546103959190611121565b925050819055505f7f000000000000000000000000000000000000000000000000000000000000000073ffffffffffffffffffffffffffffffffffffffff1663a9059cbb33846040518363ffffffff1660e01b81526004016103f8929190611154565b6020604051808303815f875af1158015610414573d5f5f3e3d5ffd5b505050506040513d601f19601f8201168201806040525081019061043891906111b0565b905080610471576040517f90b8ec1800000000000000000000000000000000000000000000000000000000815260040160405180910390fd5b3373ffffffffffffffffffffffffffffffffffffffff167f7084f5476618d8e60b11ef0d7d3f06914655adb8793e28ff7f018d4c76d505d5836040516104b79190610f35565b60405180910390a25050565b5f5f9054906101000a900473ffffffffffffffffffffffffffffffffffffffff1681565b5f5f9054906101000a900473ffffffffffffffffffffffffffffffffffffffff1673ffffffffffffffffffffffffffffffffffffffff163373ffffffffffffffffffffffffffffffffffffffff161461056c576040517f27da199000000000000000000000000000000000000000000000000000000000815260040160405180910390fd5b8060025f8473ffffffffffffffffffffffffffffffffffffffff1673ffffffffffffffffffffffffffffffffffffffff1681526020019081526020015f2054101561062d5760025f8373ffffffffffffffffffffffffffffffffffffffff1673ffffffffffffffffffffffffffffffffffffffff1681526020019081526020015f2054816040517fcf4791810000000000000000000000000000000000000000000000000000000081526004016106249291906110cd565b60405180910390fd5b8060025f8473ffffffffffffffffffffffffffffffffffffffff1673ffffffffffffffffffffffffffffffffffffffff1681526020019081526020015f205f8282546106799190611121565b925050819055508060035f8282546106919190611121565b925050819055508173ffffffffffffffffffffffffffffffffffffffff167fc1bcf241560b7da56189cf02ba2c78298ad5afb7dd45b8a47e3c6930b389a230826040516106de9190610f35565b60405180910390a25050565b60015f9054906101000a900473ffffffffffffffffffffffffffffffffffffffff1673ffffffffffffffffffffffffffffffffffffffff163373ffffffffffffffffffffffffffffffffffffffff1614610770576040517f7bfa4b9f00000000000000000000000000000000000000000000000000000000815260040160405180910390fd5b5f73ffffffffffffffffffffffffffffffffffffffff168173ffffffffffffffffffffffffffffffffffffffff16036107d5576040517fd92e233d00000000000000000000000000000000000000000000000000000000815260040160405180910390fd5b8060015f6101000a81548173ffffffffffffffffffffffffffffffffffffffff021916908373ffffffffffffffffffffffffffffffffffffffff16021790555050565b60015f9054906101000a900473ffffffffffffffffffffffffffffffffffffffff1673ffffffffffffffffffffffffffffffffffffffff163373ffffffffffffffffffffffffffffffffffffffff161461089e576040517f7bfa4b9f00000000000000000000000000000000000000000000000000000000815260040160405180910390fd5b5f73ffffffffffffffffffffffffffffffffffffffff168173ffffffffffffffffffffffffffffffffffffffff1603610903576040517fd92e233d00000000000000000000000000000000000000000000000000000000815260040160405180910390fd5b805f5f6101000a81548173ffffffffffffffffffffffffffffffffffffffff021916908373ffffffffffffffffffffffffffffffffffffffff16021790555050565b5f810361097e576040517f1f2a200500000000000000000000000000000000000000000000000000000000815260040160405180910390fd5b5f7f000000000000000000000000000000000000000000000000000000000000000073ffffffffffffffffffffffffffffffffffffffff166323b872dd3330856040518463ffffffff1660e01b81526004016109dc939291906111db565b6020604051808303815f875af11580156109f8573d5f5f3e3d5ffd5b505050506040513d601f19601f82011682018060405250810190610a1c91906111b0565b905080610a55576040517f90b8ec1800000000000000000000000000000000000000000000000000000000815260040160405180910390fd5b8160025f3373ffffffffffffffffffffffffffffffffffffffff1673ffffffffffffffffffffffffffffffffffffffff1681526020019081526020015f205f828254610aa19190611210565b925050819055508160035f828254610ab99190611210565b925050819055503373ffffffffffffffffffffffffffffffffffffffff167f2da466a7b24304f47e87fa2e1e5a81b9831ce54fec19055ce277ca2f39ba42c483604051610b069190610f35565b60405180910390a25050565b5f5f9054906101000a900473ffffffffffffffffffffffffffffffffffffffff1673ffffffffffffffffffffffffffffffffffffffff163373ffffffffffffffffffffffffffffffffffffffff1614610b97576040517f27da199000000000000000000000000000000000000000000000000000000000815260040160405180910390fd5b8060025f8573ffffffffffffffffffffffffffffffffffffffff1673ffffffffffffffffffffffffffffffffffffffff1681526020019081526020015f20541015610c585760025f8473ffffffffffffffffffffffffffffffffffffffff1673ffffffffffffffffffffffffffffffffffffffff1681526020019081526020015f2054816040517fcf479181000000000000000000000000000000000000000000000000000000008152600401610c4f9291906110cd565b60405180910390fd5b8060025f8573ffffffffffffffffffffffffffffffffffffffff1673ffffffffffffffffffffffffffffffffffffffff1681526020019081526020015f205f828254610ca49190611121565b925050819055508060025f8473ffffffffffffffffffffffffffffffffffffffff1673ffffffffffffffffffffffffffffffffffffffff1681526020019081526020015f205f828254610cf79190611210565b92505081905550505050565b7f000000000000000000000000000000000000000000000000000000000000000081565b5f5f9054906101000a900473ffffffffffffffffffffffffffffffffffffffff1673ffffffffffffffffffffffffffffffffffffffff163373ffffffffffffffffffffffffffffffffffffffff1614610dac576040517f27da199000000000000000000000000000000000000000000000000000000000815260040160405180910390fd5b8060025f8473ffffffffffffffffffffffffffffffffffffffff1673ffffffffffffffffffffffffffffffffffffffff1681526020019081526020015f205f828254610df89190611210565b925050819055508060035f828254610e109190611210565b925050819055508173ffffffffffffffffffffffffffffffffffffffff167f9f7132b931bb99c5679b120dd9dc04eab8b1e91f4be7f2c40da4c0876823f4dc82604051610e5d9190610f35565b60405180910390a25050565b60015f9054906101000a900473ffffffffffffffffffffffffffffffffffffffff1681565b60035481565b5f5ffd5b5f73ffffffffffffffffffffffffffffffffffffffff82169050919050565b5f610ec182610e98565b9050919050565b610ed181610eb7565b8114610edb575f5ffd5b50565b5f81359050610eec81610ec8565b92915050565b5f60208284031215610f0757610f06610e94565b5b5f610f1484828501610ede565b91505092915050565b5f819050919050565b610f2f81610f1d565b82525050565b5f602082019050610f485f830184610f26565b92915050565b610f5781610f1d565b8114610f61575f5ffd5b50565b5f81359050610f7281610f4e565b92915050565b5f60208284031215610f8d57610f8c610e94565b5b5f610f9a84828501610f64565b91505092915050565b610fac81610eb7565b82525050565b5f602082019050610fc55f830184610fa3565b92915050565b5f5f60408385031215610fe157610fe0610e94565b5b5f610fee85828601610ede565b9250506020610fff85828601610f64565b9150509250929050565b5f5f5f606084860312156110205761101f610e94565b5b5f61102d86828701610ede565b935050602061103e86828701610ede565b925050604061104f86828701610f64565b9150509250925092565b5f819050919050565b5f61107c61107761107284610e98565b611059565b610e98565b9050919050565b5f61108d82611062565b9050919050565b5f61109e82611083565b9050919050565b6110ae81611094565b82525050565b5f6020820190506110c75f8301846110a5565b92915050565b5f6040820190506110e05f830185610f26565b6110ed6020830184610f26565b9392505050565b7f4e487b71000000000000000000000000000000000000000000000000000000005f52601160045260245ffd5b5f61112b82610f1d565b915061113683610f1d565b925082820390508181111561114e5761114d6110f4565b5b92915050565b5f6040820190506111675f830185610fa3565b6111746020830184610f26565b9392505050565b5f8115159050919050565b61118f8161117b565b8114611199575f5ffd5b50565b5f815190506111aa81611186565b92915050565b5f602082840312156111c5576111c4610e94565b5b5f6111d28482850161119c565b91505092915050565b5f6060820190506111ee5f830186610fa3565b6111fb6020830185610fa3565b6112086040830184610f26565b949350505050565b5f61121a82610f1d565b915061122583610f1d565b925082820190508082111561123d5761123c6110f4565b5b9291505056fea2646970667358221220ca8fcb5b6aaada5c9d3154551051e016547fc63db0b33cdbc543b6874422b0c864736f6c63430008210033","linkReferences":{}},"methodIdentifiers":{"admin()":"f851a440","balances(address)":"27e235e3","collateral()":"d8dfeb45","credit(address,uint256)":"ef6506db","debit(address,uint256)":"636be27a","deposit(uint256)":"b6b55f25","perpEngine()":"48ba4d2b","setAdmin(address)":"704b6c02","setPerpEngine(address)":"b619daf7","totalDeposited()":"ff50abdc","transfer(address,address,uint256)":"beabacc8","withdraw(uint256)":"2e1a7d4d"},"id":31}