{"abi":[{"type":"constructor","inputs":[{"name":"_collateral","type":"address","internalType":"address"},{"name":"_admin","type":"address","internalType":"address"}],"stateMutability":"nonpayable"},{"type":"function","name":"admin","inputs":[],"outputs":[{"name":"","type":"address","internalType":"address"}],"stateMutability":"view"},{"type":"function","name":"balances","inputs":[{"name":"","type":"address","internalType":"address"}],"outputs":[{"name":"","type":"uint256","internalType":"uint256"}],"stateMutability":"view"},{"type":"function","name":"collateral","inputs":[],"outputs":[{"name":"","type":"address","internalType":"contract IMarginToken"}],"stateMutability":"view"},{"type":"function","name":"credit","inputs":[{"name":"user","type":"address","internalType":"address"},{"name":"amount","type":"uint256","internalType":"uint256"}],"outputs":[],"stateMutability":"nonpayable"},{"type":"function","name":"debit","inputs":[{"name":"user","type":"address","internalType":"address"},{"name":"amount","type":"uint256","internalType":"uint256"}],"outputs":[],"stateMutability":"nonpayable"},{"type":"function","name":"deposit","inputs":[{"name":"amount","type":"uint256","internalType":"uint256"}],"outputs":[],"stateMutability":"nonpayable"},{"type":"function","name":"flushFee","inputs":[{"name":"to","type":"address","internalType":"address"},{"name":"amount","type":"uint256","internalType":"uint256"}],"outputs":[],"stateMutability":"nonpayable"},{"type":"function","name":"perpEngine","inputs":[],"outputs":[{"name":"","type":"address","internalType":"address"}],"stateMutability":"view"},{"type":"function","name":"setAdmin","inputs":[{"name":"newAdmin","type":"address","internalType":"address"}],"outputs":[],"stateMutability":"nonpayable"},{"type":"function","name":"setPerpEngine","inputs":[{"name":"engine","type":"address","internalType":"address"}],"outputs":[],"stateMutability":"nonpayable"},{"type":"function","name":"totalDeposited","inputs":[],"outputs":[{"name":"","type":"uint256","internalType":"uint256"}],"stateMutability":"view"},{"type":"function","name":"transfer","inputs":[{"name":"from","type":"address","internalType":"address"},{"name":"to","type":"address","internalType":"address"},{"name":"amount","type":"uint256","internalType":"uint256"}],"outputs":[],"stateMutability":"nonpayable"},{"type":"function","name":"withdraw","inputs":[{"name":"amount","type":"uint256","internalType":"uint256"}],"outputs":[],"stateMutability":"nonpayable"},{"type":"event","name":"Deposited","inputs":[{"name":"user","type":"address","indexed":true,"internalType":"address"},{"name":"amount","type":"uint256","indexed":false,"internalType":"uint256"}],"anonymous":false},{"type":"event","name":"EngineCredit","inputs":[{"name":"user","type":"address","indexed":true,"internalType":"address"},{"name":"amount","type":"uint256","indexed":false,"internalType":"uint256"}],"anonymous":false},{"type":"event","name":"EngineDebit","inputs":[{"name":"user","type":"address","indexed":true,"internalType":"address"},{"name":"amount","type":"uint256","indexed":false,"internalType":"uint256"}],"anonymous":false},{"type":"event","name":"Withdrawn","inputs":[{"name":"user","type":"address","indexed":true,"internalType":"address"},{"name":"amount","type":"uint256","indexed":false,"internalType":"uint256"}],"anonymous":false},{"type":"error","name":"InsufficientBalance","inputs":[{"name":"have","type":"uint256","internalType":"uint256"},{"name":"need","type":"uint256","internalType":"uint256"}]},{"type":"error","name":"NotAdmin","inputs":[]},{"type":"error","name":"NotEngine","inputs":[]},{"type":"error","name":"TransferFailed","inputs":[]},{"type":"error","name":"ZeroAddress","inputs":[]},{"type":"error","name":"ZeroAmount","inputs":[]}],"bytecode":{"object":"0x60a060405234801561000f575f5ffd5b506040516116b33803806116b3833981810160405281019061003191906101d4565b5f73ffffffffffffffffffffffffffffffffffffffff168273ffffffffffffffffffffffffffffffffffffffff1603610096576040517fd92e233d00000000000000000000000000000000000000000000000000000000815260040160405180910390fd5b5f73ffffffffffffffffffffffffffffffffffffffff168173ffffffffffffffffffffffffffffffffffffffff16036100fb576040517fd92e233d00000000000000000000000000000000000000000000000000000000815260040160405180910390fd5b8173ffffffffffffffffffffffffffffffffffffffff1660808173ffffffffffffffffffffffffffffffffffffffff16815250508060015f6101000a81548173ffffffffffffffffffffffffffffffffffffffff021916908373ffffffffffffffffffffffffffffffffffffffff1602179055505050610212565b5f5ffd5b5f73ffffffffffffffffffffffffffffffffffffffff82169050919050565b5f6101a38261017a565b9050919050565b6101b381610199565b81146101bd575f5ffd5b50565b5f815190506101ce816101aa565b92915050565b5f5f604083850312156101ea576101e9610176565b5b5f6101f7858286016101c0565b9250506020610208858286016101c0565b9150509250929050565b60805161147461023f5f395f81816103d6015281816109b801528181610d3c0152610f8d01526114745ff3fe608060405234801561000f575f5ffd5b50600436106100cd575f3560e01c8063b6b55f251161008a578063ef6506db11610064578063ef6506db146101e5578063f40818b614610201578063f851a4401461021d578063ff50abdc1461023b576100cd565b8063b6b55f251461018f578063beabacc8146101ab578063d8dfeb45146101c7576100cd565b806327e235e3146100d15780632e1a7d4d1461010157806348ba4d2b1461011d578063636be27a1461013b578063704b6c0214610157578063b619daf714610173575b5f5ffd5b6100eb60048036038101906100e691906110ed565b610259565b6040516100f89190611130565b60405180910390f35b61011b60048036038101906101169190611173565b61026e565b005b6101256104fa565b60405161013291906111ad565b60405180910390f35b610155600480360381019061015091906111c6565b61051e565b005b610171600480360381019061016c91906110ed565b610721565b005b61018d600480360381019061018891906110ed565b61084f565b005b6101a960048036038101906101a49190611173565b61097c565b005b6101c560048036038101906101c09190611204565b610b49565b005b6101cf610d3a565b6040516101dc91906112af565b60405180910390f35b6101ff60048036038101906101fa91906111c6565b610d5e565b005b61021b600480360381019061021691906111c6565b610ea0565b005b610225611064565b60405161023291906111ad565b60405180910390f35b610243611089565b6040516102509190611130565b60405180910390f35b6002602052805f5260405f205f915090505481565b5f81036102a7576040517f1f2a200500000000000000000000000000000000000000000000000000000000815260040160405180910390fd5b8060025f3373ffffffffffffffffffffffffffffffffffffffff1673ffffffffffffffffffffffffffffffffffffffff1681526020019081526020015f205410156103685760025f3373ffffffffffffffffffffffffffffffffffffffff1673ffffffffffffffffffffffffffffffffffffffff1681526020019081526020015f2054816040517fcf47918100000000000000000000000000000000000000000000000000000000815260040161035f9291906112c8565b60405180910390fd5b8060025f3373ffffffffffffffffffffffffffffffffffffffff1673ffffffffffffffffffffffffffffffffffffffff1681526020019081526020015f205f8282546103b4919061131c565b925050819055508060035f8282546103cc919061131c565b925050819055505f7f000000000000000000000000000000000000000000000000000000000000000073ffffffffffffffffffffffffffffffffffffffff1663a9059cbb33846040518363ffffffff1660e01b815260040161042f92919061134f565b6020604051808303815f875af115801561044b573d5f5f3e3d5ffd5b505050506040513d601f19601f8201168201806040525081019061046f91906113ab565b9050806104a8576040517f90b8ec1800000000000000000000000000000000000000000000000000000000815260040160405180910390fd5b3373ffffffffffffffffffffffffffffffffffffffff167f7084f5476618d8e60b11ef0d7d3f06914655adb8793e28ff7f018d4c76d505d5836040516104ee9190611130565b60405180910390a25050565b5f5f9054906101000a900473ffffffffffffffffffffffffffffffffffffffff1681565b5f5f9054906101000a900473ffffffffffffffffffffffffffffffffffffffff1673ffffffffffffffffffffffffffffffffffffffff163373ffffffffffffffffffffffffffffffffffffffff16146105a3576040517f27da199000000000000000000000000000000000000000000000000000000000815260040160405180910390fd5b8060025f8473ffffffffffffffffffffffffffffffffffffffff1673ffffffffffffffffffffffffffffffffffffffff1681526020019081526020015f205410156106645760025f8373ffffffffffffffffffffffffffffffffffffffff1673ffffffffffffffffffffffffffffffffffffffff1681526020019081526020015f2054816040517fcf47918100000000000000000000000000000000000000000000000000000000815260040161065b9291906112c8565b60405180910390fd5b8060025f8473ffffffffffffffffffffffffffffffffffffffff1673ffffffffffffffffffffffffffffffffffffffff1681526020019081526020015f205f8282546106b0919061131c565b925050819055508060035f8282546106c8919061131c565b925050819055508173ffffffffffffffffffffffffffffffffffffffff167fc1bcf241560b7da56189cf02ba2c78298ad5afb7dd45b8a47e3c6930b389a230826040516107159190611130565b60405180910390a25050565b60015f9054906101000a900473ffffffffffffffffffffffffffffffffffffffff1673ffffffffffffffffffffffffffffffffffffffff163373ffffffffffffffffffffffffffffffffffffffff16146107a7576040517f7bfa4b9f00000000000000000000000000000000000000000000000000000000815260040160405180910390fd5b5f73ffffffffffffffffffffffffffffffffffffffff168173ffffffffffffffffffffffffffffffffffffffff160361080c576040517fd92e233d00000000000000000000000000000000000000000000000000000000815260040160405180910390fd5b8060015f6101000a81548173ffffffffffffffffffffffffffffffffffffffff021916908373ffffffffffffffffffffffffffffffffffffffff16021790555050565b60015f9054906101000a900473ffffffffffffffffffffffffffffffffffffffff1673ffffffffffffffffffffffffffffffffffffffff163373ffffffffffffffffffffffffffffffffffffffff16146108d5576040517f7bfa4b9f00000000000000000000000000000000000000000000000000000000815260040160405180910390fd5b5f73ffffffffffffffffffffffffffffffffffffffff168173ffffffffffffffffffffffffffffffffffffffff160361093a576040517fd92e233d00000000000000000000000000000000000000000000000000000000815260040160405180910390fd5b805f5f6101000a81548173ffffffffffffffffffffffffffffffffffffffff021916908373ffffffffffffffffffffffffffffffffffffffff16021790555050565b5f81036109b5576040517f1f2a200500000000000000000000000000000000000000000000000000000000815260040160405180910390fd5b5f7f000000000000000000000000000000000000000000000000000000000000000073ffffffffffffffffffffffffffffffffffffffff166323b872dd3330856040518463ffffffff1660e01b8152600401610a13939291906113d6565b6020604051808303815f875af1158015610a2f573d5f5f3e3d5ffd5b505050506040513d601f19601f82011682018060405250810190610a5391906113ab565b905080610a8c576040517f90b8ec1800000000000000000000000000000000000000000000000000000000815260040160405180910390fd5b8160025f3373ffffffffffffffffffffffffffffffffffffffff1673ffffffffffffffffffffffffffffffffffffffff1681526020019081526020015f205f828254610ad8919061140b565b925050819055508160035f828254610af0919061140b565b925050819055503373ffffffffffffffffffffffffffffffffffffffff167f2da466a7b24304f47e87fa2e1e5a81b9831ce54fec19055ce277ca2f39ba42c483604051610b3d9190611130565b60405180910390a25050565b5f5f9054906101000a900473ffffffffffffffffffffffffffffffffffffffff1673ffffffffffffffffffffffffffffffffffffffff163373ffffffffffffffffffffffffffffffffffffffff1614610bce576040517f27da199000000000000000000000000000000000000000000000000000000000815260040160405180910390fd5b8060025f8573ffffffffffffffffffffffffffffffffffffffff1673ffffffffffffffffffffffffffffffffffffffff1681526020019081526020015f20541015610c8f5760025f8473ffffffffffffffffffffffffffffffffffffffff1673ffffffffffffffffffffffffffffffffffffffff1681526020019081526020015f2054816040517fcf479181000000000000000000000000000000000000000000000000000000008152600401610c869291906112c8565b60405180910390fd5b8060025f8573ffffffffffffffffffffffffffffffffffffffff1673ffffffffffffffffffffffffffffffffffffffff1681526020019081526020015f205f828254610cdb919061131c565b925050819055508060025f8473ffffffffffffffffffffffffffffffffffffffff1673ffffffffffffffffffffffffffffffffffffffff1681526020019081526020015f205f828254610d2e919061140b565b92505081905550505050565b7f000000000000000000000000000000000000000000000000000000000000000081565b5f5f9054906101000a900473ffffffffffffffffffffffffffffffffffffffff1673ffffffffffffffffffffffffffffffffffffffff163373ffffffffffffffffffffffffffffffffffffffff1614610de3576040517f27da199000000000000000000000000000000000000000000000000000000000815260040160405180910390fd5b8060025f8473ffffffffffffffffffffffffffffffffffffffff1673ffffffffffffffffffffffffffffffffffffffff1681526020019081526020015f205f828254610e2f919061140b565b925050819055508060035f828254610e47919061140b565b925050819055508173ffffffffffffffffffffffffffffffffffffffff167f9f7132b931bb99c5679b120dd9dc04eab8b1e91f4be7f2c40da4c0876823f4dc82604051610e949190611130565b60405180910390a25050565b5f5f9054906101000a900473ffffffffffffffffffffffffffffffffffffffff1673ffffffffffffffffffffffffffffffffffffffff163373ffffffffffffffffffffffffffffffffffffffff1614610f25576040517f27da199000000000000000000000000000000000000000000000000000000000815260040160405180910390fd5b5f73ffffffffffffffffffffffffffffffffffffffff168273ffffffffffffffffffffffffffffffffffffffff1603610f8a576040517fd92e233d00000000000000000000000000000000000000000000000000000000815260040160405180910390fd5b5f7f000000000000000000000000000000000000000000000000000000000000000073ffffffffffffffffffffffffffffffffffffffff1663a9059cbb84846040518363ffffffff1660e01b8152600401610fe692919061134f565b6020604051808303815f875af1158015611002573d5f5f3e3d5ffd5b505050506040513d601f19601f8201168201806040525081019061102691906113ab565b90508061105f576040517f90b8ec1800000000000000000000000000000000000000000000000000000000815260040160405180910390fd5b505050565b60015f9054906101000a900473ffffffffffffffffffffffffffffffffffffffff1681565b60035481565b5f5ffd5b5f73ffffffffffffffffffffffffffffffffffffffff82169050919050565b5f6110bc82611093565b9050919050565b6110cc816110b2565b81146110d6575f5ffd5b50565b5f813590506110e7816110c3565b92915050565b5f602082840312156111025761110161108f565b5b5f61110f848285016110d9565b91505092915050565b5f819050919050565b61112a81611118565b82525050565b5f6020820190506111435f830184611121565b92915050565b61115281611118565b811461115c575f5ffd5b50565b5f8135905061116d81611149565b92915050565b5f602082840312156111885761118761108f565b5b5f6111958482850161115f565b91505092915050565b6111a7816110b2565b82525050565b5f6020820190506111c05f83018461119e565b92915050565b5f5f604083850312156111dc576111db61108f565b5b5f6111e9858286016110d9565b92505060206111fa8582860161115f565b9150509250929050565b5f5f5f6060848603121561121b5761121a61108f565b5b5f611228868287016110d9565b9350506020611239868287016110d9565b925050604061124a8682870161115f565b9150509250925092565b5f819050919050565b5f61127761127261126d84611093565b611254565b611093565b9050919050565b5f6112888261125d565b9050919050565b5f6112998261127e565b9050919050565b6112a98161128f565b82525050565b5f6020820190506112c25f8301846112a0565b92915050565b5f6040820190506112db5f830185611121565b6112e86020830184611121565b9392505050565b7f4e487b71000000000000000000000000000000000000000000000000000000005f52601160045260245ffd5b5f61132682611118565b915061133183611118565b9250828203905081811115611349576113486112ef565b5b92915050565b5f6040820190506113625f83018561119e565b61136f6020830184611121565b9392505050565b5f8115159050919050565b61138a81611376565b8114611394575f5ffd5b50565b5f815190506113a581611381565b92915050565b5f602082840312156113c0576113bf61108f565b5b5f6113cd84828501611397565b91505092915050565b5f6060820190506113e95f83018661119e565b6113f6602083018561119e565b6114036040830184611121565b949350505050565b5f61141582611118565b915061142083611118565b9250828201905080821115611438576114376112ef565b5b9291505056fea2646970667358221220a4444624008c6e6a22b0862cbcb340dc2741f120278bb7daa1a8903bf79cd02164736f6c63430008210033","linkReferences":{}},"methodIdentifiers":{"admin()":"f851a440","balances(address)":"27e235e3","collateral()":"d8dfeb45","credit(address,uint256)":"ef6506db","debit(address,uint256)":"636be27a","deposit(uint256)":"b6b55f25","flushFee(address,uint256)":"f40818b6","perpEngine()":"48ba4d2b","setAdmin(address)":"704b6c02","setPerpEngine(address)":"b619daf7","totalDeposited()":"ff50abdc","transfer(address,address,uint256)":"beabacc8","withdraw(uint256)":"2e1a7d4d"},"id":0}