{"abi":[{"type":"constructor","inputs":[{"name":"_collateral","type":"address","internalType":"address"},{"name":"_admin","type":"address","internalType":"address"}],"stateMutability":"nonpayable"},{"type":"function","name":"admin","inputs":[],"outputs":[{"name":"","type":"address","internalType":"address"}],"stateMutability":"view"},{"type":"function","name":"balances","inputs":[{"name":"","type":"address","internalType":"address"}],"outputs":[{"name":"","type":"uint256","internalType":"uint256"}],"stateMutability":"view"},{"type":"function","name":"collateral","inputs":[],"outputs":[{"name":"","type":"address","internalType":"contract IMarginToken"}],"stateMutability":"view"},{"type":"function","name":"credit","inputs":[{"name":"user","type":"address","internalType":"address"},{"name":"amount","type":"uint256","internalType":"uint256"}],"outputs":[],"stateMutability":"nonpayable"},{"type":"function","name":"debit","inputs":[{"name":"user","type":"address","internalType":"address"},{"name":"amount","type":"uint256","internalType":"uint256"}],"outputs":[],"stateMutability":"nonpayable"},{"type":"function","name":"deposit","inputs":[{"name":"amount","type":"uint256","internalType":"uint256"}],"outputs":[],"stateMutability":"nonpayable"},{"type":"function","name":"flushFee","inputs":[{"name":"to","type":"address","internalType":"address"},{"name":"amount","type":"uint256","internalType":"uint256"}],"outputs":[],"stateMutability":"nonpayable"},{"type":"function","name":"perpEngine","inputs":[],"outputs":[{"name":"","type":"address","internalType":"address"}],"stateMutability":"view"},{"type":"function","name":"setAdmin","inputs":[{"name":"newAdmin","type":"address","internalType":"address"}],"outputs":[],"stateMutability":"nonpayable"},{"type":"function","name":"setPerpEngine","inputs":[{"name":"engine","type":"address","internalType":"address"}],"outputs":[],"stateMutability":"nonpayable"},{"type":"function","name":"totalDeposited","inputs":[],"outputs":[{"name":"","type":"uint256","internalType":"uint256"}],"stateMutability":"view"},{"type":"function","name":"transfer","inputs":[{"name":"from","type":"address","internalType":"address"},{"name":"to","type":"address","internalType":"address"},{"name":"amount","type":"uint256","internalType":"uint256"}],"outputs":[],"stateMutability":"nonpayable"},{"type":"function","name":"withdraw","inputs":[{"name":"amount","type":"uint256","internalType":"uint256"}],"outputs":[],"stateMutability":"nonpayable"},{"type":"event","name":"Deposited","inputs":[{"name":"user","type":"address","indexed":true,"internalType":"address"},{"name":"amount","type":"uint256","indexed":false,"internalType":"uint256"}],"anonymous":false},{"type":"event","name":"EngineCredit","inputs":[{"name":"user","type":"address","indexed":true,"internalType":"address"},{"name":"amount","type":"uint256","indexed":false,"internalType":"uint256"}],"anonymous":false},{"type":"event","name":"EngineDebit","inputs":[{"name":"user","type":"address","indexed":true,"internalType":"address"},{"name":"amount","type":"uint256","indexed":false,"internalType":"uint256"}],"anonymous":false},{"type":"event","name":"Withdrawn","inputs":[{"name":"user","type":"address","indexed":true,"internalType":"address"},{"name":"amount","type":"uint256","indexed":false,"internalType":"uint256"}],"anonymous":false},{"type":"error","name":"InsufficientBalance","inputs":[{"name":"have","type":"uint256","internalType":"uint256"},{"name":"need","type":"uint256","internalType":"uint256"}]},{"type":"error","name":"NotAdmin","inputs":[]},{"type":"error","name":"NotEngine","inputs":[]},{"type":"error","name":"TransferFailed","inputs":[]},{"type":"error","name":"ZeroAddress","inputs":[]},{"type":"error","name":"ZeroAmount","inputs":[]}],"bytecode":{"object":"0x60a0346100c757601f61093338819003918201601f19168301916001600160401b038311848410176100cb5780849260409485528339810103126100c757610052602061004b836100df565b92016100df565b6001600160a01b039091169081156100b8576001600160a01b03169081156100b857608052600180546001600160a01b03191691909117905560405161083f90816100f4823960805181818161015f015281816102a7015281816103cf015261069e0152f35b63d92e233d60e01b5f5260045ffd5b5f80fd5b634e487b7160e01b5f52604160045260245ffd5b51906001600160a01b03821682036100c75756fe6080806040526004361015610012575f80fd5b5f3560e01c90816327e235e314610743575080632e1a7d4d1461061e57806348ba4d2b146105f7578063636be27a14610541578063704b6c02146104f4578063b619daf714610491578063b6b55f251461038c578063beabacc8146102d6578063d8dfeb4514610292578063ef6506db14610206578063f40818b6146100f4578063f851a440146100cc5763ff50abdc146100ab575f80fd5b346100c8575f3660031901126100c8576020600354604051908152f35b5f80fd5b346100c8575f3660031901126100c8576001546040516001600160a01b039091168152602090f35b346100c85760403660031901126100c85761010d610777565b5f546001600160a01b031633036101f7576001600160a01b038116156101e85760405163a9059cbb60e01b81526001600160a01b0390911660048201526024803590820152602081806044810103815f7f00000000000000000000000000000000000000000000000000000000000000006001600160a01b03165af19081156101dd575f916101ae575b501561019f57005b6312171d8360e31b5f5260045ffd5b6101d0915060203d6020116101d6575b6101c881836107ae565b8101906107e4565b81610197565b503d6101be565b6040513d5f823e3d90fd5b63d92e233d60e01b5f5260045ffd5b63027da19960e41b5f5260045ffd5b346100c85760403660031901126100c85761021f610777565b5f5460243591906001600160a01b031633036101f75760207f9f7132b931bb99c5679b120dd9dc04eab8b1e91f4be7f2c40da4c0876823f4dc9160018060a01b031692835f526002825260405f206102788282546107fc565b9055610286816003546107fc565b600355604051908152a2005b346100c8575f3660031901126100c8576040517f00000000000000000000000000000000000000000000000000000000000000006001600160a01b03168152602090f35b346100c85760603660031901126100c8576102ef610777565b6024356001600160a01b038116908190036100c8575f5460443592906001600160a01b031633036101f7576001600160a01b03165f818152600260205260409020548311610369575f52600260205260405f2061034d83825461078d565b90555f52600260205261036560405f209182546107fc565b9055005b90505f52600260205260405f205463cf47918160e01b5f5260045260245260445ffd5b346100c85760203660031901126100c8576004358015610482576040516323b872dd60e01b8152336004820152306024820152604481018290526020816064815f7f00000000000000000000000000000000000000000000000000000000000000006001600160a01b03165af19081156101dd575f91610463575b501561019f57335f52600260205260405f206104248282546107fc565b9055610432816003546107fc565b6003556040519081527f2da466a7b24304f47e87fa2e1e5a81b9831ce54fec19055ce277ca2f39ba42c460203392a2005b61047c915060203d6020116101d6576101c881836107ae565b82610407565b631f2a200560e01b5f5260045ffd5b346100c85760203660031901126100c8576104aa610777565b6001546001600160a01b031633036104e5576001600160a01b031680156101e8576bffffffffffffffffffffffff60a01b5f5416175f555f80f35b637bfa4b9f60e01b5f5260045ffd5b346100c85760203660031901126100c85761050d610777565b600154906001600160a01b03821633036104e5576001600160a01b03169081156101e8576001600160a01b03191617600155005b346100c85760403660031901126100c85761055a610777565b5f5460243591906001600160a01b031633036101f75760018060a01b031690815f5260026020528060405f2054106105d45760207fc1bcf241560b7da56189cf02ba2c78298ad5afb7dd45b8a47e3c6930b389a23091835f526002825260405f206105c682825461078d565b90556102868160035461078d565b5f9182526002602052604082205463cf47918160e01b8352600452602452604490fd5b346100c8575f3660031901126100c8575f546040516001600160a01b039091168152602090f35b346100c85760203660031901126100c857600435801561048257335f5260026020528060405f20541061072157335f52600260205260405f2061066282825461078d565b90556106708160035461078d565b60035560405163a9059cbb60e01b8152336004820152602481018290526020816044815f6001600160a01b037f0000000000000000000000000000000000000000000000000000000000000000165af19081156101dd575f91610702575b501561019f576040519081527f7084f5476618d8e60b11ef0d7d3f06914655adb8793e28ff7f018d4c76d505d560203392a2005b61071b915060203d6020116101d6576101c881836107ae565b826106ce565b335f52600260205260405f205463cf47918160e01b5f5260045260245260445ffd5b346100c85760203660031901126100c8576020906001600160a01b03610767610777565b165f526002825260405f20548152f35b600435906001600160a01b03821682036100c857565b9190820391821161079a57565b634e487b7160e01b5f52601160045260245ffd5b90601f8019910116810190811067ffffffffffffffff8211176107d057604052565b634e487b7160e01b5f52604160045260245ffd5b908160209103126100c8575180151581036100c85790565b9190820180921161079a5756fea264697066735822122085429181f284a2a187ef9be8e12659ae149674914907e5251cde5066f815992e64736f6c63430008210033","linkReferences":{}},"methodIdentifiers":{"admin()":"f851a440","balances(address)":"27e235e3","collateral()":"d8dfeb45","credit(address,uint256)":"ef6506db","debit(address,uint256)":"636be27a","deposit(uint256)":"b6b55f25","flushFee(address,uint256)":"f40818b6","perpEngine()":"48ba4d2b","setAdmin(address)":"704b6c02","setPerpEngine(address)":"b619daf7","totalDeposited()":"ff50abdc","transfer(address,address,uint256)":"beabacc8","withdraw(uint256)":"2e1a7d4d"},"id":33}