{"abi":[{"type":"constructor","inputs":[{"name":"_token0","type":"address","internalType":"address"},{"name":"_token1","type":"address","internalType":"address"}],"stateMutability":"nonpayable"},{"type":"function","name":"MINIMUM_LIQUIDITY","inputs":[],"outputs":[{"name":"","type":"uint256","internalType":"uint256"}],"stateMutability":"view"},{"type":"function","name":"balanceOf","inputs":[{"name":"","type":"address","internalType":"address"}],"outputs":[{"name":"","type":"uint256","internalType":"uint256"}],"stateMutability":"view"},{"type":"function","name":"burn","inputs":[{"name":"to","type":"address","internalType":"address"}],"outputs":[{"name":"amount0","type":"uint256","internalType":"uint256"},{"name":"amount1","type":"uint256","internalType":"uint256"}],"stateMutability":"nonpayable"},{"type":"function","name":"factory","inputs":[],"outputs":[{"name":"","type":"address","internalType":"address"}],"stateMutability":"view"},{"type":"function","name":"getReserves","inputs":[],"outputs":[{"name":"reserve0","type":"uint112","internalType":"uint112"},{"name":"reserve1","type":"uint112","internalType":"uint112"},{"name":"blockTimestampLast","type":"uint32","internalType":"uint32"}],"stateMutability":"view"},{"type":"function","name":"kLast","inputs":[],"outputs":[{"name":"","type":"uint256","internalType":"uint256"}],"stateMutability":"view"},{"type":"function","name":"mint","inputs":[{"name":"to","type":"address","internalType":"address"}],"outputs":[{"name":"liquidity","type":"uint256","internalType":"uint256"}],"stateMutability":"nonpayable"},{"type":"function","name":"price0CumulativeLast","inputs":[],"outputs":[{"name":"","type":"uint256","internalType":"uint256"}],"stateMutability":"view"},{"type":"function","name":"price1CumulativeLast","inputs":[],"outputs":[{"name":"","type":"uint256","internalType":"uint256"}],"stateMutability":"view"},{"type":"function","name":"skim","inputs":[{"name":"to","type":"address","internalType":"address"}],"outputs":[],"stateMutability":"nonpayable"},{"type":"function","name":"swap","inputs":[{"name":"amount0Out","type":"uint256","internalType":"uint256"},{"name":"amount1Out","type":"uint256","internalType":"uint256"},{"name":"to","type":"address","internalType":"address"},{"name":"data","type":"bytes","internalType":"bytes"}],"outputs":[],"stateMutability":"nonpayable"},{"type":"function","name":"sync","inputs":[],"outputs":[],"stateMutability":"nonpayable"},{"type":"function","name":"token0","inputs":[],"outputs":[{"name":"","type":"address","internalType":"address"}],"stateMutability":"view"},{"type":"function","name":"token1","inputs":[],"outputs":[{"name":"","type":"address","internalType":"address"}],"stateMutability":"view"},{"type":"function","name":"totalSupply","inputs":[],"outputs":[{"name":"","type":"uint256","internalType":"uint256"}],"stateMutability":"view"},{"type":"event","name":"Burn","inputs":[{"name":"sender","type":"address","indexed":true,"internalType":"address"},{"name":"amount0","type":"uint256","indexed":false,"internalType":"uint256"},{"name":"amount1","type":"uint256","indexed":false,"internalType":"uint256"},{"name":"to","type":"address","indexed":true,"internalType":"address"}],"anonymous":false},{"type":"event","name":"Mint","inputs":[{"name":"sender","type":"address","indexed":true,"internalType":"address"},{"name":"amount0","type":"uint256","indexed":false,"internalType":"uint256"},{"name":"amount1","type":"uint256","indexed":false,"internalType":"uint256"}],"anonymous":false},{"type":"event","name":"Swap","inputs":[{"name":"sender","type":"address","indexed":true,"internalType":"address"},{"name":"amount0In","type":"uint256","indexed":false,"internalType":"uint256"},{"name":"amount1In","type":"uint256","indexed":false,"internalType":"uint256"},{"name":"amount0Out","type":"uint256","indexed":false,"internalType":"uint256"},{"name":"amount1Out","type":"uint256","indexed":false,"internalType":"uint256"},{"name":"to","type":"address","indexed":true,"internalType":"address"}],"anonymous":false},{"type":"event","name":"Sync","inputs":[{"name":"reserve0","type":"uint112","indexed":false,"internalType":"uint112"},{"name":"reserve1","type":"uint112","indexed":false,"internalType":"uint112"}],"anonymous":false},{"type":"error","name":"InsufficientInputAmount","inputs":[]},{"type":"error","name":"InsufficientLiquidity","inputs":[]},{"type":"error","name":"InsufficientLiquidityBurned","inputs":[]},{"type":"error","name":"InsufficientLiquidityMinted","inputs":[]},{"type":"error","name":"InsufficientOutputAmount","inputs":[]},{"type":"error","name":"InvalidRecipient","inputs":[]},{"type":"error","name":"InvariantViolated","inputs":[]},{"type":"error","name":"Locked","inputs":[]},{"type":"error","name":"Overflow","inputs":[]}],"bytecode":{"object":"0x608034609657601f61150738819003918201601f19168301916001600160401b03831184841017609a578084926040948552833981010312609657604b602060458360ae565b920160ae565b600160098190555f8054336001600160a01b03199182161790915581546001600160a01b03948516908216179091556002805492909316911617905560405161144590816100c28239f35b5f80fd5b634e487b7160e01b5f52604160045260245ffd5b51906001600160a01b038216820360965756fe6080806040526004361015610012575f80fd5b5f905f3560e01c908163022c0d9f14610cb8575080630902f1ac14610c5a5780630dfe168114610c3157806318160ddd14610c135780635909c0d514610bf55780635a3d549314610bd75780636a627842146108d457806370a082311461089b5780637464fc3d1461087d57806389afcb44146104bc578063ba9a7a561461049f578063bc25cf7714610262578063c45a01551461023b578063d21220a7146102125763fff6cae9146100c3575f80fd5b3461020f578060031936011261020f576001600954036102005760026009556001546040516370a0823160e01b815230600482015290602090829060249082906001600160a01b03165afa80156101f55782906101c2575b6002546040516370a0823160e01b81523060048201529250602090839060249082906001600160a01b03165afa9081156101b757839161017d575b6101759250600354916001600160701b03808460701c169316916112ec565b600160095580f35b90506020823d6020116101af575b816101986020938361123f565b810103126101ab57610175915190610156565b5f80fd5b3d915061018b565b6040513d85823e3d90fd5b506020813d6020116101ed575b816101dc6020938361123f565b810103126101ab576024905161011b565b3d91506101cf565b6040513d84823e3d90fd5b6303cb96db60e21b8152600490fd5b80fd5b503461020f578060031936011261020f576002546040516001600160a01b039091168152602090f35b503461020f578060031936011261020f57546040516001600160a01b039091168152602090f35b503461020f57602036600319011261020f5761027c611229565b6001600954036104905760026009556001546040516370a0823160e01b815230600482015283916001600160a01b031690602081602481855afa9081156101b7578391610458575b506020916102e1610314926001600160701b03600354169061128d565b60405163a9059cbb60e01b81526001600160a01b0387166004820152602481019190915293849283919082906044820190565b03925af180156101b75761043b575b506002546040516370a0823160e01b81523060048201526001600160a01b039091169190602081602481865afa9081156104305784916103fa575b50906103b39261037f6020936001600160701b0360035460701c169061128d565b60405163a9059cbb60e01b81526001600160a01b039093166004840152602483015290928391908290869082906044820190565b03925af180156101f5576103cb575b50600160095580f35b6103ec9060203d6020116103f3575b6103e4818361123f565b810190611275565b505f6103c2565b503d6103da565b9190506020823d602011610428575b816104166020938361123f565b810103126101ab5790516103b361035e565b3d9150610409565b6040513d86823e3d90fd5b6104539060203d6020116103f3576103e4818361123f565b610323565b9250506020823d602011610488575b816104746020938361123f565b810103126101ab57905183919060206102c4565b3d9150610467565b6303cb96db60e21b8252600482fd5b503461020f578060031936011261020f5760206040516103e88152f35b503461020f57602036600319011261020f576104d6611229565b6001600954036104905760249060026009553083526008602052604083205490600754602060018060a01b0360015416604051958680926370a0823160e01b82523060048301525afa80156107e557859061084a575b6002546040516370a0823160e01b81523060048201529550602090869060249082906001600160a01b03165afa94851561083f578695610807575b509061057d6105828261057d61058995886112ae565b6112c1565b95856112ae565b91831580156107ff575b6107f0576105bc903086526008602052604086206105b282825461128d565b905560075461128d565b60075560015460405163a9059cbb60e01b81526001600160a01b038381166004830152602482018690529091602091839160449183918a91165af180156107e5576107c8575b5060025460405163a9059cbb60e01b81526001600160a01b03838116600483015260248201859052909591602091879160449183918691165af194851561079e576024956107ab575b506001546040516370a0823160e01b81523060048201529560209187919082906001600160a01b03165afa94851561079e57819561076a575b506002546040516370a0823160e01b815230600482015290602090829060249082906001600160a01b03165afa91821561075e579161072b575b506106e090604095600354916001600160701b03808460701c169316916112ec565b83519083825282602083015260018060a01b0316907fdccd412f0b1252819cb1fd330b93224ca42612892bb3f4f789976e6d81936496853392a3600160095582519182526020820152f35b90506020813d602011610756575b816107466020938361123f565b810103126101ab575160406106be565b3d9150610739565b604051903d90823e3d90fd5b9094506020813d602011610796575b816107866020938361123f565b810103126101ab5751935f610684565b3d9150610779565b50604051903d90823e3d90fd5b6107c39060203d6020116103f3576103e4818361123f565b61064b565b6107e09060203d6020116103f3576103e4818361123f565b610602565b6040513d87823e3d90fd5b63749383ad60e01b8552600485fd5b508215610593565b919094506020823d602011610837575b816108246020938361123f565b810103126101ab5790519361057d610567565b3d9150610817565b6040513d88823e3d90fd5b506020843d602011610875575b816108646020938361123f565b810103126101ab576024935161052c565b3d9150610857565b503461020f578060031936011261020f576020600654604051908152f35b503461020f57602036600319011261020f576020906040906001600160a01b036108c3611229565b168152600883522054604051908152f35b503461020f57602036600319011261020f576108ee611229565b60016009540361049057600260095560246109246003546001600160701b038116916001600160701b038260701c169160e01c90565b506001546040516370a0823160e01b8152306004820152929360209184919082906001600160a01b03165afa9182156107e5578592610ba2575b506002546040516370a0823160e01b8152306004820152929390602090849060249082906001600160a01b03165afa92831561083f578693610b6e575b506001600160701b038116926109b1848661128d565b946001600160701b0384166109c6818461128d565b956007549182155f14610b3c575050506109e085876112ae565b886003821115610b2e5750808060011c60018101809111610ae757905b828210610b0f5750505b6103e7198101908111610afb57968880526008602052604089208054906103e88201809211610ae757556007546103e88101809111610ad3576007555b8715610ac457906040602099610a879695949360018060a01b0316815260088b5220610a718982546112df565b9055610a7f886007546112df565b6007556112ec565b604051918252838201527f4c209b5fc8ad50758f13e2e1088ba56a560dff690a1c6fef26394f4c03821c4f60403392a26001600955604051908152f35b633489be7560e21b8952600489fd5b634e487b7160e01b8a52601160045260248afd5b634e487b7160e01b8b52601160045260248bfd5b634e487b7160e01b89526011600452602489fd5b909150610b2582610b2081846112c1565b6112df565b60011c906109fd565b9015610a0757506001610a07565b61057d610b50610b579361057d868d6112ae565b93896112ae565b80821015610b6757505b96610a44565b9050610b61565b9092506020813d602011610b9a575b81610b8a6020938361123f565b810103126101ab5751915f61099b565b3d9150610b7d565b91506020823d602011610bcf575b81610bbd6020938361123f565b810103126101ab57602491519161095e565b3d9150610bb0565b503461020f578060031936011261020f576020600554604051908152f35b503461020f578060031936011261020f576020600454604051908152f35b503461020f578060031936011261020f576020600754604051908152f35b503461020f578060031936011261020f576001546040516001600160a01b039091168152602090f35b503461020f578060031936011261020f5760606001600160701b0363ffffffff610c9f6003546001600160701b038116916001600160701b038260701c169160e01c90565b9193908160405195168552166020840152166040820152f35b82346101ab5760803660031901126101ab57604435916001600160a01b0383169060243590600435908386036101ab5760643567ffffffffffffffff81116101ab57366023820112156101ab57806004013567ffffffffffffffff81116101ab5736602482840101116101ab5760016009540361121a5760026009558315918280611212575b61120357610d676003546001600160701b038116916001600160701b038260701c169160e01c90565b509390996001600160701b038b16958688108015906111f0575b6111e1576001546001600160a01b03168a811480156111cd575b6111be5789931561115a575b5050816110f2575b505081611064575b50506001546040516370a0823160e01b8152306004820152969795969590602090879060249082906001600160a01b03165afa958615611059578896611025575b506002546040516370a0823160e01b815230600482015290602090829060249082906001600160a01b03165afa90811561101a578991610fe8575b50610e3e858561128d565b871115610fe157610e58610e52868661128d565b8861128d565b965b6001600160701b03841694610e6f888761128d565b831115610fda57610e89610e83898861128d565b8461128d565b955b89158080610fd2575b610fc3576103e884028481046103e81485151715610faf5760038c02918c83046003141715610faf5790610ec79161128d565b6103e885028581046103e81486151715610faf5760038902908982046003148a151715610f9b5791610f00610f0692610f0c959461128d565b906112ae565b926112ae565b90620f4240820291808304620f42401490151715610f875710610f785790610f359392916112ec565b6040519384526020840152604083015260608201527fd78ad95fa46c994b6551d0da85fc275fe613ce37657fb8d5e3d130840159d82260803392a3600160095580f35b631228c0d560e11b8a5260048afd5b634e487b7160e01b8c52601160045260248cfd5b634e487b7160e01b8f52601160045260248ffd5b634e487b7160e01b8e52601160045260248efd5b63098fb56160e01b8d5260048dfd5b508715610e94565b8a95610e8b565b8896610e5a565b90506020813d602011611012575b816110036020938361123f565b810103126101ab575189610e33565b3d9150610ff6565b6040513d8b823e3d90fd5b9095506020813d602011611051575b816110416020938361123f565b810103126101ab57519488610df8565b3d9150611034565b6040513d8a823e3d90fd5b863b156101ab57602460a45f92846040519586948593632288696f60e01b85523360048601528b828601528c60448601526080606486015282608486015201848401378181018301859052601f01601f19168101030181838a5af180156110e7576110d0575b80610db7565b60249596505f6110df9161123f565b5f95946110ca565b6040513d5f823e3d90fd5b60025460405163a9059cbb60e01b81526001600160a01b0392831660048201526024810193909352602091839160449183915f91165af180156110e75761113b575b8690610daf565b6111539060203d6020116103f3576103e4818361123f565b5089611134565b63a9059cbb60e01b82526001600160a01b038316600483015260248201899052909250602090839060449082905f905af19182156110e757889261119f575b80610da7565b6111b79060203d6020116103f3576103e4818361123f565b508b611199565b634e46966960e11b5f5260045ffd5b506002546001600160a01b03168b14610d9b565b63bb55fd2760e01b5f5260045ffd5b506001600160701b038616891015610d81565b6342301c2360e01b5f5260045ffd5b508515610d3e565b6303cb96db60e21b5f5260045ffd5b600435906001600160a01b03821682036101ab57565b90601f8019910116810190811067ffffffffffffffff82111761126157604052565b634e487b7160e01b5f52604160045260245ffd5b908160209103126101ab575180151581036101ab5790565b9190820391821161129a57565b634e487b7160e01b5f52601160045260245ffd5b8181029291811591840414171561129a57565b81156112cb570490565b634e487b7160e01b5f52601260045260245ffd5b9190820180921161129a57565b926001600160701b03841180156113ff575b6113f05760035460e01c63ffffffff42160363ffffffff811161129a577f1c411e9a96e071241c2f21f7726b17ae89e3cab4c78be50e062b03a9fffbbad1946040946001600160701b039363ffffffff85941691821515806113e5575b806113da575b61139a575b50505016918263ffffffff60e01b4260e01b16918360701b9060701b16171780600355835192835260701c166020820152a1565b6113ca918590846113b284841683851660701b6112c1565b026004540160045516908560701b9060701b166112c1565b02600554016005555f8080611366565b508482161515611361565b50848116151561135b565b631a93c68960e11b5f5260045ffd5b506001600160701b0382116112fe56fea26469706673582212200d917379c166cfba85c45d70df4397a9e16d1d91989f82ce115c1d4878a842ca64736f6c63430008210033","linkReferences":{}},"methodIdentifiers":{"MINIMUM_LIQUIDITY()":"ba9a7a56","balanceOf(address)":"70a08231","burn(address)":"89afcb44","factory()":"c45a0155","getReserves()":"0902f1ac","kLast()":"7464fc3d","mint(address)":"6a627842","price0CumulativeLast()":"5909c0d5","price1CumulativeLast()":"5a3d5493","skim(address)":"bc25cf77","swap(uint256,uint256,address,bytes)":"022c0d9f","sync()":"fff6cae9","token0()":"0dfe1681","token1()":"d21220a7","totalSupply()":"18160ddd"},"id":20}