{"abi":[{"type":"constructor","inputs":[{"name":"_gusd","type":"address","internalType":"address"},{"name":"_admin","type":"address","internalType":"address"}],"stateMutability":"nonpayable"},{"type":"function","name":"PRECISION","inputs":[],"outputs":[{"name":"","type":"uint256","internalType":"uint256"}],"stateMutability":"view"},{"type":"function","name":"admin","inputs":[],"outputs":[{"name":"","type":"address","internalType":"address"}],"stateMutability":"view"},{"type":"function","name":"claimCollateral","inputs":[{"name":"ilk","type":"bytes32","internalType":"bytes32"}],"outputs":[],"stateMutability":"nonpayable"},{"type":"function","name":"collateralDust","inputs":[{"name":"","type":"bytes32","internalType":"bytes32"}],"outputs":[{"name":"","type":"uint256","internalType":"uint256"}],"stateMutability":"view"},{"type":"function","name":"collateralTokens","inputs":[{"name":"","type":"bytes32","internalType":"bytes32"}],"outputs":[{"name":"","type":"address","internalType":"address"}],"stateMutability":"view"},{"type":"function","name":"cumulativeGainPerGUSD","inputs":[{"name":"","type":"bytes32","internalType":"bytes32"}],"outputs":[{"name":"","type":"uint256","internalType":"uint256"}],"stateMutability":"view"},{"type":"function","name":"deposit","inputs":[{"name":"amount","type":"uint256","internalType":"uint256"}],"outputs":[],"stateMutability":"nonpayable"},{"type":"function","name":"deposits","inputs":[{"name":"","type":"address","internalType":"address"}],"outputs":[{"name":"","type":"uint256","internalType":"uint256"}],"stateMutability":"view"},{"type":"function","name":"gainSnapshots","inputs":[{"name":"","type":"address","internalType":"address"},{"name":"","type":"bytes32","internalType":"bytes32"}],"outputs":[{"name":"","type":"uint256","internalType":"uint256"}],"stateMutability":"view"},{"type":"function","name":"gusd","inputs":[],"outputs":[{"name":"","type":"address","internalType":"contract IgUSD"}],"stateMutability":"view"},{"type":"function","name":"offset","inputs":[{"name":"debtAmount","type":"uint256","internalType":"uint256"},{"name":"ilk","type":"bytes32","internalType":"bytes32"},{"name":"collAmount","type":"uint256","internalType":"uint256"}],"outputs":[],"stateMutability":"nonpayable"},{"type":"function","name":"pendingGain","inputs":[{"name":"user","type":"address","internalType":"address"},{"name":"ilk","type":"bytes32","internalType":"bytes32"}],"outputs":[{"name":"","type":"uint256","internalType":"uint256"}],"stateMutability":"view"},{"type":"function","name":"poolSize","inputs":[],"outputs":[{"name":"","type":"uint256","internalType":"uint256"}],"stateMutability":"view"},{"type":"function","name":"registerCollateralToken","inputs":[{"name":"ilk","type":"bytes32","internalType":"bytes32"},{"name":"token","type":"address","internalType":"address"}],"outputs":[],"stateMutability":"nonpayable"},{"type":"function","name":"setVaultManager","inputs":[{"name":"_vm","type":"address","internalType":"address"}],"outputs":[],"stateMutability":"nonpayable"},{"type":"function","name":"totalDeposits","inputs":[],"outputs":[{"name":"","type":"uint256","internalType":"uint256"}],"stateMutability":"view"},{"type":"function","name":"transferAdmin","inputs":[{"name":"newAdmin","type":"address","internalType":"address"}],"outputs":[],"stateMutability":"nonpayable"},{"type":"function","name":"vaultManager","inputs":[],"outputs":[{"name":"","type":"address","internalType":"address"}],"stateMutability":"view"},{"type":"function","name":"withdraw","inputs":[{"name":"amount","type":"uint256","internalType":"uint256"}],"outputs":[],"stateMutability":"nonpayable"},{"type":"event","name":"CollateralClaimed","inputs":[{"name":"user","type":"address","indexed":true,"internalType":"address"},{"name":"ilk","type":"bytes32","indexed":true,"internalType":"bytes32"},{"name":"amount","type":"uint256","indexed":false,"internalType":"uint256"}],"anonymous":false},{"type":"event","name":"CollateralTokenRegistered","inputs":[{"name":"ilk","type":"bytes32","indexed":true,"internalType":"bytes32"},{"name":"token","type":"address","indexed":false,"internalType":"address"}],"anonymous":false},{"type":"event","name":"Deposited","inputs":[{"name":"user","type":"address","indexed":true,"internalType":"address"},{"name":"amount","type":"uint256","indexed":false,"internalType":"uint256"}],"anonymous":false},{"type":"event","name":"Offset","inputs":[{"name":"ilk","type":"bytes32","indexed":true,"internalType":"bytes32"},{"name":"debtBurned","type":"uint256","indexed":false,"internalType":"uint256"},{"name":"collateral","type":"uint256","indexed":false,"internalType":"uint256"}],"anonymous":false},{"type":"event","name":"VaultManagerSet","inputs":[{"name":"vm","type":"address","indexed":true,"internalType":"address"}],"anonymous":false},{"type":"event","name":"Withdrawn","inputs":[{"name":"user","type":"address","indexed":true,"internalType":"address"},{"name":"amount","type":"uint256","indexed":false,"internalType":"uint256"}],"anonymous":false}],"bytecode":{"object":"0x60a03461012357601f6110c338819003918201601f19168301916001600160401b0383118484101761012757808492604094855283398101031261012357610052602061004b8361013b565b920161013b565b6001600160a01b039091169081156100ee576001600160a01b03169081156100b857608052600180546001600160a01b031916919091179055604051610f739081610150823960805181818161022301528181610496015281816106770152610a0f0152f35b60405162461bcd60e51b815260206004820152600e60248201526d29a81d103d32b9379030b236b4b760911b6044820152606490fd5b60405162461bcd60e51b815260206004820152600d60248201526c14d40e881e995c9bc819d554d1609a1b6044820152606490fd5b5f80fd5b634e487b7160e01b5f52604160045260245ffd5b51906001600160a01b03821682036101235756fe60806040526004361015610011575f80fd5b5f5f3560e01c80632e1a7d4d14610970578063310599be1461092c5780633b5b7e3d14610902578063484be514146108d35780634ec18db9146108b6578063742f9e711461056257806375829def1461050a5780637d882097146104ec5780638a4adf24146104c55780638c87ee9014610480578063997dc62e146104565780639ff552631461038e578063aaf5eb681461036b578063b543503e146102f1578063b6b55f25146101b8578063d1a294c414610185578063e3fc028d1461014f578063f851a440146101265763fc7e286d146100eb575f80fd5b34610123576020366003190112610123576020906040906001600160a01b03610112610add565b168152600383522054604051908152f35b80fd5b50346101235780600319360112610123576001546040516001600160a01b039091168152602090f35b50346101235760203660031901126101235761016d60085415610af3565b600160085561017e60043533610d6f565b8060085580f35b503461012357602036600319011261012357602090600435815260068252604060018060a01b0391205416604051908152f35b5034610123576020366003190112610123576004356101d960085415610af3565b60016008556101e9811515610b2b565b6101f233610d4f565b6040516323b872dd60e01b815233600482015230602482015260448101829052602081606481866001600160a01b037f0000000000000000000000000000000000000000000000000000000000000000165af180156102e65761025c9184916102b7575b50610bc4565b338252600360205260408220610273828254610cc7565b905561028181600254610cc7565b6002556040519081527f2da466a7b24304f47e87fa2e1e5a81b9831ce54fec19055ce277ca2f39ba42c460203392a28060085580f35b6102d9915060203d6020116102df575b6102d18183610b76565b810190610bac565b5f610256565b503d6102c7565b6040513d85823e3d90fd5b50346101235760203660031901126101235761030b610add565b61032060018060a01b03600154163314610cd4565b6001600160a01b0316610334811515610d10565b81546001600160a01b031916811782557f8e902340d35762a5a36507c20fe38e5d549a721d9f846d6de7f397b5c26ab8538280a280f35b50346101235780600319360112610123576020604051670de0b6b3a76400008152f35b5034610123576040366003190112610123576004356024356001600160a01b03811690819003610452576103cd60018060a01b03600154163314610cd4565b801561041c5781835260066020908152604080852080546001600160a01b03191684179055519182527f7b02323155ee1835f3ad82fb0682024a2f6ea1380e110430fc6eb75fbffc866591a280f35b60405162461bcd60e51b815260206004820152600e60248201526d29a81d103d32b937903a37b5b2b760911b6044820152606490fd5b8280fd5b50346101235760203660031901126101235760406020916004358152600783522054604051908152f35b50346101235780600319360112610123576040517f00000000000000000000000000000000000000000000000000000000000000006001600160a01b03168152602090f35b5034610123578060031936011261012357546040516001600160a01b039091168152602090f35b50346101235780600319360112610123576020600254604051908152f35b503461012357602036600319011261012357610524610add565b6001549061053c336001600160a01b03841614610cd4565b6001600160a01b031690610551821515610d10565b6001600160a01b0319161760015580f35b503461075c57606036600319011261075c576004356024359060443561058a60085415610af3565b60016008555f546001600160a01b0316330361087957811561084457816002541061080a575f838152600660205260409020546105d1906001600160a01b03161515610c82565b5f8381526006602090815260408083205490516323b872dd60e01b81523360048201523060248201526044810185905292839160649183916001600160a01b03165af1908115610751575f916107eb575b50156107a6576002541561078857670de0b6b3a76400008102818104670de0b6b3a76400001482151715610774576002549081156107605704835f52600560205261067260405f20918254610cc7565b90555b7f00000000000000000000000000000000000000000000000000000000000000006001600160a01b0316803b1561075c575f8091602460405180948193630852cd8d60e31b83528860048401525af1801561075157610716575b50816040916107017f9f0e2e27f318babf40f39455bf2da36279d485bbb154091390dab5c7e946359e94600254610b69565b60025582519182526020820152a28060085580f35b6040919450916107475f7f9f0e2e27f318babf40f39455bf2da36279d485bbb154091390dab5c7e946359e94610b76565b5f949150916106cf565b6040513d5f823e3d90fd5b5f80fd5b634e487b7160e01b5f52601260045260245ffd5b634e487b7160e01b5f52601160045260245ffd5b825f52600760205260405f2061079f828254610cc7565b9055610675565b60405162461bcd60e51b815260206004820152601e60248201527f53503a20636f6c6c61746572616c207472616e73666572206661696c656400006044820152606490fd5b610804915060203d6020116102df576102d18183610b76565b5f610622565b60405162461bcd60e51b815260206004820152601260248201527114d40e881c1bdbdb081d1bdbc81cdb585b1b60721b6044820152606490fd5b60405162461bcd60e51b815260206004820152600d60248201526c14d40e881e995c9bc81919589d609a1b6044820152606490fd5b60405162461bcd60e51b815260206004820152601560248201527429a81d103737ba103b30bab63a1036b0b730b3b2b960591b6044820152606490fd5b3461075c575f36600319011261075c576020600254604051908152f35b3461075c57604036600319011261075c5760206108fa6108f1610add565b60243590610c19565b604051908152f35b3461075c57602036600319011261075c576004355f526005602052602060405f2054604051908152f35b3461075c57604036600319011261075c576001600160a01b0361094d610add565b165f52600460205260405f206024355f52602052602060405f2054604051908152f35b3461075c57602036600319011261075c5760043561099060085415610af3565b60016008556109a0811515610b2b565b335f5260036020528060405f205410610a98576109bc33610d4f565b335f52600360205260405f206109d3828254610b69565b90556109e181600254610b69565b60025560405163a9059cbb60e01b8152336004820152602481018290526020816044815f6001600160a01b037f0000000000000000000000000000000000000000000000000000000000000000165af1801561075157610a47915f91610a795750610bc4565b6040519081527f7084f5476618d8e60b11ef0d7d3f06914655adb8793e28ff7f018d4c76d505d560203392a25f600855005b610a92915060203d6020116102df576102d18183610b76565b83610256565b60405162461bcd60e51b815260206004820152601860248201527f53503a20696e73756666696369656e74206465706f73697400000000000000006044820152606490fd5b600435906001600160a01b038216820361075c57565b15610afa57565b60405162461bcd60e51b81526020600482015260096024820152681499595b9d1c985b9d60ba1b6044820152606490fd5b15610b3257565b60405162461bcd60e51b815260206004820152600f60248201526e14d40e881e995c9bc8185b5bdd5b9d608a1b6044820152606490fd5b9190820391821161077457565b90601f8019910116810190811067ffffffffffffffff821117610b9857604052565b634e487b7160e01b5f52604160045260245ffd5b9081602091031261075c5751801515810361075c5790565b15610bcb57565b60405162461bcd60e51b815260206004820152601360248201527214d40e881d1c985b9cd9995c8819985a5b1959606a1b6044820152606490fd5b8181029291811591840414171561077457565b6001600160a01b03165f818152600360205260409020548015610c7b57610c71610c779284670de0b6b3a7640000955f52600560205260405f2054915f52600460205260405f20905f5260205260405f205490610b69565b90610c06565b0490565b5050505f90565b15610c8957565b60405162461bcd60e51b815260206004820152601660248201527514d40e881a5b1ac81b9bdd081c9959da5cdd195c995960521b6044820152606490fd5b9190820180921161077457565b15610cdb57565b60405162461bcd60e51b815260206004820152600d60248201526c29a81d103737ba1030b236b4b760991b6044820152606490fd5b15610d1757565b60405162461bcd60e51b815260206004820152601060248201526f53503a207a65726f206164647265737360801b6044820152606490fd5b6001600160a01b03165f9081526003602052604090205415610d6d57565b565b5f82815260066020526040902054610d91906001600160a01b03161515610c82565b6001600160a01b0381165f8181526003602052604090205490918115610f1457835f52600560205260405f205491835f52600460205260405f20855f52602052610ddf60405f205484610b69565b908115610f0c57670de0b6b3a764000091610df991610c06565b0491835f52600460205260405f20855f5260205260405f205581610e1e575b50505050565b5f84815260066020908152604080832054905163a9059cbb60e01b81526001600160a01b039485166004820152602481018690529391928492604492849291165af1908115610751575f91610eed575b5015610ea85760207f85e429e8a0bf56d9ab471a80ddf210f520769a1bda3ee3946bab002feb6d0e8d91604051908152a35f808080610e18565b60405162461bcd60e51b815260206004820152601a60248201527f53503a20636f6c6c61746572616c2073656e64206661696c65640000000000006044820152606490fd5b610f06915060203d6020116102df576102d18183610b76565b5f610e6e565b505050505050565b505090805f52600560205260405f2054915f52600460205260405f20905f5260205260405f205556fea26469706673582212201a9c3abe876d9c9b8452411c607aa7e460e6c7bc93157829b520f4d2df29128a64736f6c63430008210033","linkReferences":{}},"methodIdentifiers":{"PRECISION()":"aaf5eb68","admin()":"f851a440","claimCollateral(bytes32)":"e3fc028d","collateralDust(bytes32)":"997dc62e","collateralTokens(bytes32)":"d1a294c4","cumulativeGainPerGUSD(bytes32)":"3b5b7e3d","deposit(uint256)":"b6b55f25","deposits(address)":"fc7e286d","gainSnapshots(address,bytes32)":"310599be","gusd()":"8c87ee90","offset(uint256,bytes32,uint256)":"742f9e71","pendingGain(address,bytes32)":"484be514","poolSize()":"4ec18db9","registerCollateralToken(bytes32,address)":"9ff55263","setVaultManager(address)":"b543503e","totalDeposits()":"7d882097","transferAdmin(address)":"75829def","vaultManager()":"8a4adf24","withdraw(uint256)":"2e1a7d4d"},"id":49}