{"abi":[{"type":"constructor","inputs":[{"name":"_vault","type":"address","internalType":"address"},{"name":"_funding","type":"address","internalType":"address"},{"name":"_oracle","type":"address","internalType":"address"},{"name":"_feeSplitter","type":"address","internalType":"address"},{"name":"_admin","type":"address","internalType":"address"}],"stateMutability":"nonpayable"},{"type":"function","name":"BPS","inputs":[],"outputs":[{"name":"","type":"uint256","internalType":"uint256"}],"stateMutability":"view"},{"type":"function","name":"LIQUIDATION_BONUS_BPS","inputs":[],"outputs":[{"name":"","type":"uint256","internalType":"uint256"}],"stateMutability":"view"},{"type":"function","name":"MAINTENANCE_MARGIN_BPS","inputs":[],"outputs":[{"name":"","type":"uint256","internalType":"uint256"}],"stateMutability":"view"},{"type":"function","name":"TRADE_FEE_BPS","inputs":[],"outputs":[{"name":"","type":"uint256","internalType":"uint256"}],"stateMutability":"view"},{"type":"function","name":"admin","inputs":[],"outputs":[{"name":"","type":"address","internalType":"address"}],"stateMutability":"view"},{"type":"function","name":"closePosition","inputs":[{"name":"marketId","type":"uint256","internalType":"uint256"}],"outputs":[],"stateMutability":"nonpayable"},{"type":"function","name":"createMarket","inputs":[{"name":"oracleKey","type":"bytes32","internalType":"bytes32"},{"name":"maxLeverage","type":"uint256","internalType":"uint256"}],"outputs":[{"name":"marketId","type":"uint256","internalType":"uint256"}],"stateMutability":"nonpayable"},{"type":"function","name":"feeSplitter","inputs":[],"outputs":[{"name":"","type":"address","internalType":"address"}],"stateMutability":"view"},{"type":"function","name":"funding","inputs":[],"outputs":[{"name":"","type":"address","internalType":"contract FundingRate"}],"stateMutability":"view"},{"type":"function","name":"liquidate","inputs":[{"name":"trader","type":"address","internalType":"address"},{"name":"marketId","type":"uint256","internalType":"uint256"}],"outputs":[],"stateMutability":"nonpayable"},{"type":"function","name":"marginRatio","inputs":[{"name":"trader","type":"address","internalType":"address"},{"name":"marketId","type":"uint256","internalType":"uint256"}],"outputs":[{"name":"","type":"uint256","internalType":"uint256"}],"stateMutability":"view"},{"type":"function","name":"marketCount","inputs":[],"outputs":[{"name":"","type":"uint256","internalType":"uint256"}],"stateMutability":"view"},{"type":"function","name":"markets","inputs":[{"name":"","type":"uint256","internalType":"uint256"}],"outputs":[{"name":"oracleKey","type":"bytes32","internalType":"bytes32"},{"name":"maxLeverage","type":"uint256","internalType":"uint256"},{"name":"active","type":"bool","internalType":"bool"},{"name":"openInterestLong","type":"uint256","internalType":"uint256"},{"name":"openInterestShort","type":"uint256","internalType":"uint256"}],"stateMutability":"view"},{"type":"function","name":"openPosition","inputs":[{"name":"marketId","type":"uint256","internalType":"uint256"},{"name":"size","type":"uint256","internalType":"uint256"},{"name":"isLong","type":"bool","internalType":"bool"},{"name":"margin","type":"uint256","internalType":"uint256"}],"outputs":[],"stateMutability":"nonpayable"},{"type":"function","name":"oracle","inputs":[],"outputs":[{"name":"","type":"address","internalType":"contract IPriceOraclePerp"}],"stateMutability":"view"},{"type":"function","name":"paused","inputs":[],"outputs":[{"name":"","type":"bool","internalType":"bool"}],"stateMutability":"view"},{"type":"function","name":"positions","inputs":[{"name":"","type":"address","internalType":"address"},{"name":"","type":"uint256","internalType":"uint256"}],"outputs":[{"name":"isOpen","type":"bool","internalType":"bool"},{"name":"isLong","type":"bool","internalType":"bool"},{"name":"size","type":"uint256","internalType":"uint256"},{"name":"entryPrice","type":"uint256","internalType":"uint256"},{"name":"margin","type":"uint256","internalType":"uint256"},{"name":"entryFundingIdx","type":"int256","internalType":"int256"},{"name":"marketId","type":"uint256","internalType":"uint256"}],"stateMutability":"view"},{"type":"function","name":"setAdmin","inputs":[{"name":"newAdmin","type":"address","internalType":"address"}],"outputs":[],"stateMutability":"nonpayable"},{"type":"function","name":"setPaused","inputs":[{"name":"_paused","type":"bool","internalType":"bool"}],"outputs":[],"stateMutability":"nonpayable"},{"type":"function","name":"unrealizedPnL","inputs":[{"name":"trader","type":"address","internalType":"address"},{"name":"marketId","type":"uint256","internalType":"uint256"}],"outputs":[{"name":"pnl","type":"int256","internalType":"int256"}],"stateMutability":"view"},{"type":"function","name":"vault","inputs":[],"outputs":[{"name":"","type":"address","internalType":"contract MarginVault"}],"stateMutability":"view"},{"type":"event","name":"MarketCreated","inputs":[{"name":"marketId","type":"uint256","indexed":true,"internalType":"uint256"},{"name":"oracleKey","type":"bytes32","indexed":false,"internalType":"bytes32"},{"name":"maxLeverage","type":"uint256","indexed":false,"internalType":"uint256"}],"anonymous":false},{"type":"event","name":"PositionClosed","inputs":[{"name":"trader","type":"address","indexed":true,"internalType":"address"},{"name":"marketId","type":"uint256","indexed":true,"internalType":"uint256"},{"name":"pnl","type":"int256","indexed":false,"internalType":"int256"},{"name":"exitPrice","type":"uint256","indexed":false,"internalType":"uint256"}],"anonymous":false},{"type":"event","name":"PositionLiquidated","inputs":[{"name":"liquidator","type":"address","indexed":true,"internalType":"address"},{"name":"trader","type":"address","indexed":true,"internalType":"address"},{"name":"marketId","type":"uint256","indexed":true,"internalType":"uint256"},{"name":"exitPrice","type":"uint256","indexed":false,"internalType":"uint256"}],"anonymous":false},{"type":"event","name":"PositionOpened","inputs":[{"name":"trader","type":"address","indexed":true,"internalType":"address"},{"name":"marketId","type":"uint256","indexed":true,"internalType":"uint256"},{"name":"isLong","type":"bool","indexed":false,"internalType":"bool"},{"name":"size","type":"uint256","indexed":false,"internalType":"uint256"},{"name":"margin","type":"uint256","indexed":false,"internalType":"uint256"},{"name":"entryPrice","type":"uint256","indexed":false,"internalType":"uint256"}],"anonymous":false},{"type":"error","name":"InsufficientMargin","inputs":[{"name":"have","type":"uint256","internalType":"uint256"},{"name":"need","type":"uint256","internalType":"uint256"}]},{"type":"error","name":"LeverageTooHigh","inputs":[{"name":"leverage","type":"uint256","internalType":"uint256"},{"name":"max","type":"uint256","internalType":"uint256"}]},{"type":"error","name":"MarketNotActive","inputs":[]},{"type":"error","name":"NoOpenPosition","inputs":[]},{"type":"error","name":"NotAdmin","inputs":[]},{"type":"error","name":"Paused","inputs":[]},{"type":"error","name":"PositionAlreadyOpen","inputs":[]},{"type":"error","name":"PositionHealthy","inputs":[{"name":"marginRatio","type":"uint256","internalType":"uint256"},{"name":"threshold","type":"uint256","internalType":"uint256"}]},{"type":"error","name":"TransferFailed","inputs":[]},{"type":"error","name":"ZeroAddress","inputs":[]},{"type":"error","name":"ZeroAmount","inputs":[]}],"bytecode":{"object":"0x610100604052348015610010575f5ffd5b50604051613015380380613015833981810160405281019061003291906103a2565b5f73ffffffffffffffffffffffffffffffffffffffff168573ffffffffffffffffffffffffffffffffffffffff1603610097576040517fd92e233d00000000000000000000000000000000000000000000000000000000815260040160405180910390fd5b5f73ffffffffffffffffffffffffffffffffffffffff168473ffffffffffffffffffffffffffffffffffffffff16036100fc576040517fd92e233d00000000000000000000000000000000000000000000000000000000815260040160405180910390fd5b5f73ffffffffffffffffffffffffffffffffffffffff168373ffffffffffffffffffffffffffffffffffffffff1603610161576040517fd92e233d00000000000000000000000000000000000000000000000000000000815260040160405180910390fd5b5f73ffffffffffffffffffffffffffffffffffffffff168273ffffffffffffffffffffffffffffffffffffffff16036101c6576040517fd92e233d00000000000000000000000000000000000000000000000000000000815260040160405180910390fd5b5f73ffffffffffffffffffffffffffffffffffffffff168173ffffffffffffffffffffffffffffffffffffffff160361022b576040517fd92e233d00000000000000000000000000000000000000000000000000000000815260040160405180910390fd5b8473ffffffffffffffffffffffffffffffffffffffff1660808173ffffffffffffffffffffffffffffffffffffffff16815250508373ffffffffffffffffffffffffffffffffffffffff1660a08173ffffffffffffffffffffffffffffffffffffffff16815250508273ffffffffffffffffffffffffffffffffffffffff1660c08173ffffffffffffffffffffffffffffffffffffffff16815250508173ffffffffffffffffffffffffffffffffffffffff1660e08173ffffffffffffffffffffffffffffffffffffffff1681525050805f5f6101000a81548173ffffffffffffffffffffffffffffffffffffffff021916908373ffffffffffffffffffffffffffffffffffffffff1602179055505050505050610419565b5f5ffd5b5f73ffffffffffffffffffffffffffffffffffffffff82169050919050565b5f61037182610348565b9050919050565b61038181610367565b811461038b575f5ffd5b50565b5f8151905061039c81610378565b92915050565b5f5f5f5f5f60a086880312156103bb576103ba610344565b5b5f6103c88882890161038e565b95505060206103d98882890161038e565b94505060406103ea8882890161038e565b93505060606103fb8882890161038e565b925050608061040c8882890161038e565b9150509295509295909350565b60805160a05160c05160e051612b3d6104d85f395f8181610b3701528181610bb70152610e0801525f818161083c01528181610fc6015281816110970152818161114901528181611343015261154d01525f81816108d901528181610ca70152818161185c015281816119a70152611bbb01525f81816106c7015281816107650152818161097f01528181610a0701528181610a8f015281816116e601528181611aa301528181611d4701528181611dfb0152611e8c0152612b3d5ff3fe608060405234801561000f575f5ffd5b5060043610610135575f3560e01c80639185f598116100b6578063cb4c86b71161007a578063cb4c86b714610343578063d288332514610361578063ec97908214610391578063ecd1dae6146103af578063f851a440146103cd578063fbfa77cf146103eb57610135565b80639185f59814610283578063a126d601146102a1578063b1283e77146102bd578063bcbaf487146102f1578063c1be66771461030d57610135565b80636052970c116100fd5780636052970c146101cb578063704b6c02146101e957806371a5c554146102055780637dc0d1d01461023557806383c666dc1461025357610135565b806316c38b3c14610139578063249d39e9146101555780633dc8f144146101735780635838bff71461018f5780635c975abb146101ad575b5f5ffd5b610153600480360381019061014e9190612040565b610409565b005b61015d6104aa565b60405161016a9190612083565b60405180910390f35b61018d600480360381019061018891906120c6565b6104b0565b005b610197610def565b6040516101a49190612083565b60405180910390f35b6101b5610df4565b6040516101c29190612139565b60405180910390f35b6101d3610e06565b6040516101e09190612191565b60405180910390f35b61020360048036038101906101fe91906121d4565b610e2a565b005b61021f600480360381019061021a91906121ff565b610f56565b60405161022c9190612255565b60405180910390f35b61023d611095565b60405161024a91906122c9565b60405180910390f35b61026d600480360381019061026891906121ff565b6110b9565b60405161027a9190612083565b60405180910390f35b61028b611260565b6040516102989190612083565b60405180910390f35b6102bb60048036038101906102b691906122e2565b611265565b005b6102d760048036038101906102d291906122e2565b611422565b6040516102e8959493929190612325565b60405180910390f35b61030b600480360381019061030691906121ff565b61146f565b005b610327600480360381019061032291906121ff565b6117f9565b60405161033a9796959493929190612376565b60405180910390f35b61034b61185a565b6040516103589190612403565b60405180910390f35b61037b60048036038101906103769190612446565b61187e565b6040516103889190612083565b60405180910390f35b610399611a6b565b6040516103a69190612083565b60405180910390f35b6103b7611a77565b6040516103c49190612083565b60405180910390f35b6103d5611a7d565b6040516103e29190612191565b60405180910390f35b6103f3611aa1565b60405161040091906124a4565b60405180910390f35b5f5f9054906101000a900473ffffffffffffffffffffffffffffffffffffffff1673ffffffffffffffffffffffffffffffffffffffff163373ffffffffffffffffffffffffffffffffffffffff161461048e576040517f7bfa4b9f00000000000000000000000000000000000000000000000000000000815260040160405180910390fd5b805f60146101000a81548160ff02191690831515021790555050565b61271081565b5f60149054906101000a900460ff16156104f6576040517f9e87fac800000000000000000000000000000000000000000000000000000000815260040160405180910390fd5b5f83148061050357505f81145b1561053a576040517f1f2a200500000000000000000000000000000000000000000000000000000000815260040160405180910390fd5b5f6001858154811061054f5761054e6124bd565b5b905f5260205f2090600502019050806002015f9054906101000a900460ff166105a4576040517fb521771a00000000000000000000000000000000000000000000000000000000815260040160405180910390fd5b5f60025f3373ffffffffffffffffffffffffffffffffffffffff1673ffffffffffffffffffffffffffffffffffffffff1681526020019081526020015f205f8781526020019081526020015f209050805f015f9054906101000a900460ff161561063a576040517f1f19c11d00000000000000000000000000000000000000000000000000000000815260040160405180910390fd5b5f83866106479190612544565b90508260010154811115610698578083600101546040517f3b7b1e4b00000000000000000000000000000000000000000000000000000000815260040161068f929190612574565b60405180910390fd5b5f612710600a886106a9919061259b565b6106b39190612544565b90505f81866106c291906125dc565b9050807f000000000000000000000000000000000000000000000000000000000000000073ffffffffffffffffffffffffffffffffffffffff166327e235e3336040518263ffffffff1660e01b815260040161071e9190612191565b602060405180830381865afa158015610739573d5f5f3e3d5ffd5b505050506040513d601f19601f8201168201806040525081019061075d9190612623565b1015610839577f000000000000000000000000000000000000000000000000000000000000000073ffffffffffffffffffffffffffffffffffffffff166327e235e3336040518263ffffffff1660e01b81526004016107bc9190612191565b602060405180830381865afa1580156107d7573d5f5f3e3d5ffd5b505050506040513d601f19601f820116820180604052508101906107fb9190612623565b816040517f3af8647b000000000000000000000000000000000000000000000000000000008152600401610830929190612574565b60405180910390fd5b5f7f000000000000000000000000000000000000000000000000000000000000000073ffffffffffffffffffffffffffffffffffffffff1663832321bf875f01546040518263ffffffff1660e01b8152600401610896919061264e565b602060405180830381865afa1580156108b1573d5f5f3e3d5ffd5b505050506040513d601f19601f820116820180604052508101906108d59190612623565b90507f000000000000000000000000000000000000000000000000000000000000000073ffffffffffffffffffffffffffffffffffffffff166302429b988b83846040518463ffffffff1660e01b815260040161093493929190612667565b6020604051808303815f875af1158015610950573d5f5f3e3d5ffd5b505050506040513d601f19601f8201168201806040525081019061097491906126c6565b505f831115610c54577f000000000000000000000000000000000000000000000000000000000000000073ffffffffffffffffffffffffffffffffffffffff1663636be27a33856040518363ffffffff1660e01b81526004016109d89291906126f1565b5f604051808303815f87803b1580156109ef575f5ffd5b505af1158015610a01573d5f5f3e3d5ffd5b505050507f000000000000000000000000000000000000000000000000000000000000000073ffffffffffffffffffffffffffffffffffffffff1663f40818b630856040518363ffffffff1660e01b8152600401610a609291906126f1565b5f604051808303815f87803b158015610a77575f5ffd5b505af1158015610a89573d5f5f3e3d5ffd5b505050507f000000000000000000000000000000000000000000000000000000000000000073ffffffffffffffffffffffffffffffffffffffff1663d8dfeb456040518163ffffffff1660e01b8152600401602060405180830381865afa158015610af6573d5f5f3e3d5ffd5b505050506040513d601f19601f82011682018060405250810190610b1a9190612753565b73ffffffffffffffffffffffffffffffffffffffff1663095ea7b37f0000000000000000000000000000000000000000000000000000000000000000856040518363ffffffff1660e01b8152600401610b749291906126f1565b6020604051808303815f875af1158015610b90573d5f5f3e3d5ffd5b505050506040513d601f19601f82011682018060405250810190610bb49190612792565b507f000000000000000000000000000000000000000000000000000000000000000073ffffffffffffffffffffffffffffffffffffffff166364d6def984306040518363ffffffff1660e01b8152600401610c109291906127bd565b6060604051808303815f875af1158015610c2c573d5f5f3e3d5ffd5b505050506040513d601f19601f82011682018060405250810190610c5091906127e4565b5050505b6001855f015f6101000a81548160ff02191690831515021790555087855f0160016101000a81548160ff0219169083151502179055508885600101819055508085600201819055508685600301819055507f000000000000000000000000000000000000000000000000000000000000000073ffffffffffffffffffffffffffffffffffffffff166326ef1b728b6040518263ffffffff1660e01b8152600401610cfe9190612083565b602060405180830381865afa158015610d19573d5f5f3e3d5ffd5b505050506040513d601f19601f82011682018060405250810190610d3d91906126c6565b85600401819055508985600501819055508715610d735788866003015f828254610d6791906125dc565b92505081905550610d8e565b88866004015f828254610d8691906125dc565b925050819055505b893373ffffffffffffffffffffffffffffffffffffffff167f5cf8fa4a8e333990018876ad3a82065e68b3859d46c3198b692b77fc3043808b8a8c8b86604051610ddb9493929190612834565b60405180910390a350505050505050505050565b60c881565b5f60149054906101000a900460ff1681565b7f000000000000000000000000000000000000000000000000000000000000000081565b5f5f9054906101000a900473ffffffffffffffffffffffffffffffffffffffff1673ffffffffffffffffffffffffffffffffffffffff163373ffffffffffffffffffffffffffffffffffffffff1614610eaf576040517f7bfa4b9f00000000000000000000000000000000000000000000000000000000815260040160405180910390fd5b5f73ffffffffffffffffffffffffffffffffffffffff168173ffffffffffffffffffffffffffffffffffffffff1603610f14576040517fd92e233d00000000000000000000000000000000000000000000000000000000815260040160405180910390fd5b805f5f6101000a81548173ffffffffffffffffffffffffffffffffffffffff021916908373ffffffffffffffffffffffffffffffffffffffff16021790555050565b5f5f60025f8573ffffffffffffffffffffffffffffffffffffffff1673ffffffffffffffffffffffffffffffffffffffff1681526020019081526020015f205f8481526020019081526020015f209050805f015f9054906101000a900460ff16610fc3575f91505061108f565b5f7f000000000000000000000000000000000000000000000000000000000000000073ffffffffffffffffffffffffffffffffffffffff1663832321bf60018681548110611014576110136124bd565b5b905f5260205f2090600502015f01546040518263ffffffff1660e01b815260040161103f919061264e565b602060405180830381865afa15801561105a573d5f5f3e3d5ffd5b505050506040513d601f19601f8201168201806040525081019061107e9190612623565b905061108a8282611ac5565b925050505b92915050565b7f000000000000000000000000000000000000000000000000000000000000000081565b5f5f60025f8573ffffffffffffffffffffffffffffffffffffffff1673ffffffffffffffffffffffffffffffffffffffff1681526020019081526020015f205f8481526020019081526020015f209050805f015f9054906101000a900460ff16611146577fffffffffffffffffffffffffffffffffffffffffffffffffffffffffffffffff91505061125a565b5f7f000000000000000000000000000000000000000000000000000000000000000073ffffffffffffffffffffffffffffffffffffffff1663832321bf60018681548110611197576111966124bd565b5b905f5260205f2090600502015f01546040518263ffffffff1660e01b81526004016111c2919061264e565b602060405180830381865afa1580156111dd573d5f5f3e3d5ffd5b505050506040513d601f19601f820116820180604052508101906112019190612623565b90505f61120e8383611ac5565b90505f8184600301546112219190612877565b90505f8113611236575f94505050505061125a565b836001015461271082611249919061259b565b6112539190612544565b9450505050505b92915050565b600a81565b5f60149054906101000a900460ff16156112ab576040517f9e87fac800000000000000000000000000000000000000000000000000000000815260040160405180910390fd5b5f60025f3373ffffffffffffffffffffffffffffffffffffffff1673ffffffffffffffffffffffffffffffffffffffff1681526020019081526020015f205f8381526020019081526020015f209050805f015f9054906101000a900460ff16611340576040517f556729af00000000000000000000000000000000000000000000000000000000815260040160405180910390fd5b5f7f000000000000000000000000000000000000000000000000000000000000000073ffffffffffffffffffffffffffffffffffffffff1663832321bf60018581548110611391576113906124bd565b5b905f5260205f2090600502015f01546040518263ffffffff1660e01b81526004016113bc919061264e565b602060405180830381865afa1580156113d7573d5f5f3e3d5ffd5b505050506040513d601f19601f820116820180604052508101906113fb9190612623565b90505f5f61140a338685611b2b565b9150915061141b3386848487611c65565b5050505050565b60018181548110611431575f80fd5b905f5260205f2090600502015f91509050805f015490806001015490806002015f9054906101000a900460ff16908060030154908060040154905085565b5f60149054906101000a900460ff16156114b5576040517f9e87fac800000000000000000000000000000000000000000000000000000000815260040160405180910390fd5b5f60025f8473ffffffffffffffffffffffffffffffffffffffff1673ffffffffffffffffffffffffffffffffffffffff1681526020019081526020015f205f8381526020019081526020015f209050805f015f9054906101000a900460ff1661154a576040517f556729af00000000000000000000000000000000000000000000000000000000815260040160405180910390fd5b5f7f000000000000000000000000000000000000000000000000000000000000000073ffffffffffffffffffffffffffffffffffffffff1663832321bf6001858154811061159b5761159a6124bd565b5b905f5260205f2090600502015f01546040518263ffffffff1660e01b81526004016115c6919061264e565b602060405180830381865afa1580156115e1573d5f5f3e3d5ffd5b505050506040513d601f19601f820116820180604052508101906116059190612623565b90505f5f611614868685611b2b565b915091505f818361162591906128b8565b90505f8186600301546116389190612877565b90505f5f8213611648575f611666565b86600101546127108361165b919061259b565b6116659190612544565b5b905060c881106116b0578060c86040517f07df44440000000000000000000000000000000000000000000000000000000081526004016116a7929190612574565b60405180910390fd5b5f5f83136116be575f6116da565b6127106101f4846116cf919061259b565b6116d99190612544565b5b90505f81111561176f577f000000000000000000000000000000000000000000000000000000000000000073ffffffffffffffffffffffffffffffffffffffff1663beabacc88b33846040518463ffffffff1660e01b8152600401611741939291906128f8565b5f604051808303815f87803b158015611758575f5ffd5b505af115801561176a573d5f5f3e3d5ffd5b505050505b6117878a8a838961178091906128b8565b888b611c65565b888a73ffffffffffffffffffffffffffffffffffffffff163373ffffffffffffffffffffffffffffffffffffffff167fa457abeae7105eb8bccbb20968069d940e939bc0c8d8b9c2c13aaed4755e68c38a6040516117e59190612083565b60405180910390a450505050505050505050565b6002602052815f5260405f20602052805f5260405f205f9150915050805f015f9054906101000a900460ff1690805f0160019054906101000a900460ff16908060010154908060020154908060030154908060040154908060050154905087565b7f000000000000000000000000000000000000000000000000000000000000000081565b5f5f5f9054906101000a900473ffffffffffffffffffffffffffffffffffffffff1673ffffffffffffffffffffffffffffffffffffffff163373ffffffffffffffffffffffffffffffffffffffff1614611904576040517f7bfa4b9f00000000000000000000000000000000000000000000000000000000815260040160405180910390fd5b600180549050905060016040518060a001604052808581526020018481526020016001151581526020015f81526020015f815250908060018154018082558091505060019003905f5260205f2090600502015f909190919091505f820151815f0155602082015181600101556040820151816002015f6101000a81548160ff021916908315150217905550606082015181600301556080820151816004015550507f000000000000000000000000000000000000000000000000000000000000000073ffffffffffffffffffffffffffffffffffffffff1663f11db845826040518263ffffffff1660e01b81526004016119fe9190612083565b5f604051808303815f87803b158015611a15575f5ffd5b505af1158015611a27573d5f5f3e3d5ffd5b50505050807ff7154dd385fd97f5acd402bbddfc43353a65d67ed869dc6e507a9f99d6a2040d8484604051611a5d92919061292d565b60405180910390a292915050565b5f600180549050905090565b6101f481565b5f5f9054906101000a900473ffffffffffffffffffffffffffffffffffffffff1681565b7f000000000000000000000000000000000000000000000000000000000000000081565b5f5f836002015483611ad791906128b8565b90505f8460020154828660010154611aef9190612954565b611af991906129ca565b9050845f0160019054906101000a900460ff16611b1f5780611b1a90612a32565b611b21565b805b9250505092915050565b5f5f5f60025f8773ffffffffffffffffffffffffffffffffffffffff1673ffffffffffffffffffffffffffffffffffffffff1681526020019081526020015f205f8681526020019081526020015f209050611b868185611ac5565b92505f815f0160019054906101000a900460ff16611bb1578160010154611bac90612a32565b611bb7565b81600101545b90507f000000000000000000000000000000000000000000000000000000000000000073ffffffffffffffffffffffffffffffffffffffff166345eab495828460040154896040518463ffffffff1660e01b8152600401611c1a93929190612a78565b602060405180830381865afa158015611c35573d5f5f3e3d5ffd5b505050506040513d601f19601f82011682018060405250810190611c5991906126c6565b92505050935093915050565b5f60025f8773ffffffffffffffffffffffffffffffffffffffff1673ffffffffffffffffffffffffffffffffffffffff1681526020019081526020015f205f8681526020019081526020015f2090505f60018681548110611cc957611cc86124bd565b5b905f5260205f2090600502019050815f0160019054906101000a900460ff1615611d10578160010154816003015f828254611d049190612aad565b92505081905550611d2f565b8160010154816004015f828254611d279190612aad565b925050819055505b5f8486611d3c91906128b8565b90505f8112611de1577f000000000000000000000000000000000000000000000000000000000000000073ffffffffffffffffffffffffffffffffffffffff1663ef6506db89838660030154611d9291906125dc565b6040518363ffffffff1660e01b8152600401611daf9291906126f1565b5f604051808303815f87803b158015611dc6575f5ffd5b505af1158015611dd8573d5f5f3e3d5ffd5b50505050611f15565b5f81611dec90612a32565b905083600301548110611e8a577f000000000000000000000000000000000000000000000000000000000000000073ffffffffffffffffffffffffffffffffffffffff1663636be27a8a86600301546040518363ffffffff1660e01b8152600401611e589291906126f1565b5f604051808303815f87803b158015611e6f575f5ffd5b505af1158015611e81573d5f5f3e3d5ffd5b50505050611f13565b7f000000000000000000000000000000000000000000000000000000000000000073ffffffffffffffffffffffffffffffffffffffff1663636be27a8a836040518363ffffffff1660e01b8152600401611ee59291906126f1565b5f604051808303815f87803b158015611efc575f5ffd5b505af1158015611f0e573d5f5f3e3d5ffd5b505050505b505b868873ffffffffffffffffffffffffffffffffffffffff167f16783b3f0676d6e63220b161cedd5415bd909d2f96353db363fbd217a00971b48887604051611f5e929190612ae0565b60405180910390a360025f8973ffffffffffffffffffffffffffffffffffffffff1673ffffffffffffffffffffffffffffffffffffffff1681526020019081526020015f205f8881526020019081526020015f205f5f82015f6101000a81549060ff02191690555f820160016101000a81549060ff0219169055600182015f9055600282015f9055600382015f9055600482015f9055600582015f905550505050505050505050565b5f5ffd5b5f8115159050919050565b61201f8161200b565b8114612029575f5ffd5b50565b5f8135905061203a81612016565b92915050565b5f6020828403121561205557612054612007565b5b5f6120628482850161202c565b91505092915050565b5f819050919050565b61207d8161206b565b82525050565b5f6020820190506120965f830184612074565b92915050565b6120a58161206b565b81146120af575f5ffd5b50565b5f813590506120c08161209c565b92915050565b5f5f5f5f608085870312156120de576120dd612007565b5b5f6120eb878288016120b2565b94505060206120fc878288016120b2565b935050604061210d8782880161202c565b925050606061211e878288016120b2565b91505092959194509250565b6121338161200b565b82525050565b5f60208201905061214c5f83018461212a565b92915050565b5f73ffffffffffffffffffffffffffffffffffffffff82169050919050565b5f61217b82612152565b9050919050565b61218b81612171565b82525050565b5f6020820190506121a45f830184612182565b92915050565b6121b381612171565b81146121bd575f5ffd5b50565b5f813590506121ce816121aa565b92915050565b5f602082840312156121e9576121e8612007565b5b5f6121f6848285016121c0565b91505092915050565b5f5f6040838503121561221557612214612007565b5b5f612222858286016121c0565b9250506020612233858286016120b2565b9150509250929050565b5f819050919050565b61224f8161223d565b82525050565b5f6020820190506122685f830184612246565b92915050565b5f819050919050565b5f61229161228c61228784612152565b61226e565b612152565b9050919050565b5f6122a282612277565b9050919050565b5f6122b382612298565b9050919050565b6122c3816122a9565b82525050565b5f6020820190506122dc5f8301846122ba565b92915050565b5f602082840312156122f7576122f6612007565b5b5f612304848285016120b2565b91505092915050565b5f819050919050565b61231f8161230d565b82525050565b5f60a0820190506123385f830188612316565b6123456020830187612074565b612352604083018661212a565b61235f6060830185612074565b61236c6080830184612074565b9695505050505050565b5f60e0820190506123895f83018a61212a565b612396602083018961212a565b6123a36040830188612074565b6123b06060830187612074565b6123bd6080830186612074565b6123ca60a0830185612246565b6123d760c0830184612074565b98975050505050505050565b5f6123ed82612298565b9050919050565b6123fd816123e3565b82525050565b5f6020820190506124165f8301846123f4565b92915050565b6124258161230d565b811461242f575f5ffd5b50565b5f813590506124408161241c565b92915050565b5f5f6040838503121561245c5761245b612007565b5b5f61246985828601612432565b925050602061247a858286016120b2565b9150509250929050565b5f61248e82612298565b9050919050565b61249e81612484565b82525050565b5f6020820190506124b75f830184612495565b92915050565b7f4e487b71000000000000000000000000000000000000000000000000000000005f52603260045260245ffd5b7f4e487b71000000000000000000000000000000000000000000000000000000005f52601260045260245ffd5b7f4e487b71000000000000000000000000000000000000000000000000000000005f52601160045260245ffd5b5f61254e8261206b565b91506125598361206b565b925082612569576125686124ea565b5b828204905092915050565b5f6040820190506125875f830185612074565b6125946020830184612074565b9392505050565b5f6125a58261206b565b91506125b08361206b565b92508282026125be8161206b565b915082820484148315176125d5576125d4612517565b5b5092915050565b5f6125e68261206b565b91506125f18361206b565b925082820190508082111561260957612608612517565b5b92915050565b5f8151905061261d8161209c565b92915050565b5f6020828403121561263857612637612007565b5b5f6126458482850161260f565b91505092915050565b5f6020820190506126615f830184612316565b92915050565b5f60608201905061267a5f830186612074565b6126876020830185612074565b6126946040830184612074565b949350505050565b6126a58161223d565b81146126af575f5ffd5b50565b5f815190506126c08161269c565b92915050565b5f602082840312156126db576126da612007565b5b5f6126e8848285016126b2565b91505092915050565b5f6040820190506127045f830185612182565b6127116020830184612074565b9392505050565b5f61272282612171565b9050919050565b61273281612718565b811461273c575f5ffd5b50565b5f8151905061274d81612729565b92915050565b5f6020828403121561276857612767612007565b5b5f6127758482850161273f565b91505092915050565b5f8151905061278c81612016565b92915050565b5f602082840312156127a7576127a6612007565b5b5f6127b48482850161277e565b91505092915050565b5f6040820190506127d05f830185612074565b6127dd6020830184612182565b9392505050565b5f5f5f606084860312156127fb576127fa612007565b5b5f6128088682870161260f565b93505060206128198682870161260f565b925050604061282a8682870161260f565b9150509250925092565b5f6080820190506128475f83018761212a565b6128546020830186612074565b6128616040830185612074565b61286e6060830184612074565b95945050505050565b5f6128818261223d565b915061288c8361223d565b92508282019050828112155f8312168382125f8412151617156128b2576128b1612517565b5b92915050565b5f6128c28261223d565b91506128cd8361223d565b925082820390508181125f8412168282135f8512151617156128f2576128f1612517565b5b92915050565b5f60608201905061290b5f830186612182565b6129186020830185612182565b6129256040830184612074565b949350505050565b5f6040820190506129405f830185612316565b61294d6020830184612074565b9392505050565b5f61295e8261223d565b91506129698361223d565b92508282026129778161223d565b91507f800000000000000000000000000000000000000000000000000000000000000084145f841216156129ae576129ad612517565b5b82820584148315176129c3576129c2612517565b5b5092915050565b5f6129d48261223d565b91506129df8361223d565b9250826129ef576129ee6124ea565b5b60015f0383147f800000000000000000000000000000000000000000000000000000000000000083141615612a2757612a26612517565b5b828205905092915050565b5f612a3c8261223d565b91507f80000000000000000000000000000000000000000000000000000000000000008203612a6e57612a6d612517565b5b815f039050919050565b5f606082019050612a8b5f830186612246565b612a986020830185612246565b612aa56040830184612074565b949350505050565b5f612ab78261206b565b9150612ac28361206b565b9250828203905081811115612ada57612ad9612517565b5b92915050565b5f604082019050612af35f830185612246565b612b006020830184612074565b939250505056fea26469706673582212209236468fb1485342c894cd1a058da13e3142c211b7d65eee2443b06cbcdc47c564736f6c63430008210033","linkReferences":{}},"methodIdentifiers":{"BPS()":"249d39e9","LIQUIDATION_BONUS_BPS()":"ecd1dae6","MAINTENANCE_MARGIN_BPS()":"5838bff7","TRADE_FEE_BPS()":"9185f598","admin()":"f851a440","closePosition(uint256)":"a126d601","createMarket(bytes32,uint256)":"d2883325","feeSplitter()":"6052970c","funding()":"cb4c86b7","liquidate(address,uint256)":"bcbaf487","marginRatio(address,uint256)":"83c666dc","marketCount()":"ec979082","markets(uint256)":"b1283e77","openPosition(uint256,uint256,bool,uint256)":"3dc8f144","oracle()":"7dc0d1d0","paused()":"5c975abb","positions(address,uint256)":"c1be6677","setAdmin(address)":"704b6c02","setPaused(bool)":"16c38b3c","unrealizedPnL(address,uint256)":"71a5c554","vault()":"fbfa77cf"},"id":2}