{"abi":[{"type":"constructor","inputs":[{"name":"_vault","type":"address","internalType":"address"},{"name":"_funding","type":"address","internalType":"address"},{"name":"_oracle","type":"address","internalType":"address"},{"name":"_feeSplitter","type":"address","internalType":"address"},{"name":"_admin","type":"address","internalType":"address"}],"stateMutability":"nonpayable"},{"type":"function","name":"BPS","inputs":[],"outputs":[{"name":"","type":"uint256","internalType":"uint256"}],"stateMutability":"view"},{"type":"function","name":"LIQUIDATION_BONUS_BPS","inputs":[],"outputs":[{"name":"","type":"uint256","internalType":"uint256"}],"stateMutability":"view"},{"type":"function","name":"MAINTENANCE_MARGIN_BPS","inputs":[],"outputs":[{"name":"","type":"uint256","internalType":"uint256"}],"stateMutability":"view"},{"type":"function","name":"TRADE_FEE_BPS","inputs":[],"outputs":[{"name":"","type":"uint256","internalType":"uint256"}],"stateMutability":"view"},{"type":"function","name":"admin","inputs":[],"outputs":[{"name":"","type":"address","internalType":"address"}],"stateMutability":"view"},{"type":"function","name":"closePosition","inputs":[{"name":"marketId","type":"uint256","internalType":"uint256"}],"outputs":[],"stateMutability":"nonpayable"},{"type":"function","name":"createMarket","inputs":[{"name":"oracleKey","type":"bytes32","internalType":"bytes32"},{"name":"maxLeverage","type":"uint256","internalType":"uint256"}],"outputs":[{"name":"marketId","type":"uint256","internalType":"uint256"}],"stateMutability":"nonpayable"},{"type":"function","name":"feeSplitter","inputs":[],"outputs":[{"name":"","type":"address","internalType":"address"}],"stateMutability":"view"},{"type":"function","name":"funding","inputs":[],"outputs":[{"name":"","type":"address","internalType":"contract FundingRate"}],"stateMutability":"view"},{"type":"function","name":"liquidate","inputs":[{"name":"trader","type":"address","internalType":"address"},{"name":"marketId","type":"uint256","internalType":"uint256"}],"outputs":[],"stateMutability":"nonpayable"},{"type":"function","name":"marginRatio","inputs":[{"name":"trader","type":"address","internalType":"address"},{"name":"marketId","type":"uint256","internalType":"uint256"}],"outputs":[{"name":"","type":"uint256","internalType":"uint256"}],"stateMutability":"view"},{"type":"function","name":"marketCount","inputs":[],"outputs":[{"name":"","type":"uint256","internalType":"uint256"}],"stateMutability":"view"},{"type":"function","name":"markets","inputs":[{"name":"","type":"uint256","internalType":"uint256"}],"outputs":[{"name":"oracleKey","type":"bytes32","internalType":"bytes32"},{"name":"maxLeverage","type":"uint256","internalType":"uint256"},{"name":"active","type":"bool","internalType":"bool"},{"name":"openInterestLong","type":"uint256","internalType":"uint256"},{"name":"openInterestShort","type":"uint256","internalType":"uint256"}],"stateMutability":"view"},{"type":"function","name":"openPosition","inputs":[{"name":"marketId","type":"uint256","internalType":"uint256"},{"name":"size","type":"uint256","internalType":"uint256"},{"name":"isLong","type":"bool","internalType":"bool"},{"name":"margin","type":"uint256","internalType":"uint256"}],"outputs":[],"stateMutability":"nonpayable"},{"type":"function","name":"oracle","inputs":[],"outputs":[{"name":"","type":"address","internalType":"contract IPriceOraclePerp"}],"stateMutability":"view"},{"type":"function","name":"paused","inputs":[],"outputs":[{"name":"","type":"bool","internalType":"bool"}],"stateMutability":"view"},{"type":"function","name":"positions","inputs":[{"name":"","type":"address","internalType":"address"},{"name":"","type":"uint256","internalType":"uint256"}],"outputs":[{"name":"isOpen","type":"bool","internalType":"bool"},{"name":"isLong","type":"bool","internalType":"bool"},{"name":"size","type":"uint256","internalType":"uint256"},{"name":"entryPrice","type":"uint256","internalType":"uint256"},{"name":"margin","type":"uint256","internalType":"uint256"},{"name":"entryFundingIdx","type":"int256","internalType":"int256"},{"name":"marketId","type":"uint256","internalType":"uint256"}],"stateMutability":"view"},{"type":"function","name":"setAdmin","inputs":[{"name":"newAdmin","type":"address","internalType":"address"}],"outputs":[],"stateMutability":"nonpayable"},{"type":"function","name":"setPaused","inputs":[{"name":"_paused","type":"bool","internalType":"bool"}],"outputs":[],"stateMutability":"nonpayable"},{"type":"function","name":"unrealizedPnL","inputs":[{"name":"trader","type":"address","internalType":"address"},{"name":"marketId","type":"uint256","internalType":"uint256"}],"outputs":[{"name":"pnl","type":"int256","internalType":"int256"}],"stateMutability":"view"},{"type":"function","name":"vault","inputs":[],"outputs":[{"name":"","type":"address","internalType":"contract MarginVault"}],"stateMutability":"view"},{"type":"event","name":"MarketCreated","inputs":[{"name":"marketId","type":"uint256","indexed":true,"internalType":"uint256"},{"name":"oracleKey","type":"bytes32","indexed":false,"internalType":"bytes32"},{"name":"maxLeverage","type":"uint256","indexed":false,"internalType":"uint256"}],"anonymous":false},{"type":"event","name":"PositionClosed","inputs":[{"name":"trader","type":"address","indexed":true,"internalType":"address"},{"name":"marketId","type":"uint256","indexed":true,"internalType":"uint256"},{"name":"pnl","type":"int256","indexed":false,"internalType":"int256"},{"name":"exitPrice","type":"uint256","indexed":false,"internalType":"uint256"}],"anonymous":false},{"type":"event","name":"PositionLiquidated","inputs":[{"name":"liquidator","type":"address","indexed":true,"internalType":"address"},{"name":"trader","type":"address","indexed":true,"internalType":"address"},{"name":"marketId","type":"uint256","indexed":true,"internalType":"uint256"},{"name":"exitPrice","type":"uint256","indexed":false,"internalType":"uint256"}],"anonymous":false},{"type":"event","name":"PositionOpened","inputs":[{"name":"trader","type":"address","indexed":true,"internalType":"address"},{"name":"marketId","type":"uint256","indexed":true,"internalType":"uint256"},{"name":"isLong","type":"bool","indexed":false,"internalType":"bool"},{"name":"size","type":"uint256","indexed":false,"internalType":"uint256"},{"name":"margin","type":"uint256","indexed":false,"internalType":"uint256"},{"name":"entryPrice","type":"uint256","indexed":false,"internalType":"uint256"}],"anonymous":false},{"type":"error","name":"InsufficientMargin","inputs":[{"name":"have","type":"uint256","internalType":"uint256"},{"name":"need","type":"uint256","internalType":"uint256"}]},{"type":"error","name":"LeverageTooHigh","inputs":[{"name":"leverage","type":"uint256","internalType":"uint256"},{"name":"max","type":"uint256","internalType":"uint256"}]},{"type":"error","name":"MarketNotActive","inputs":[]},{"type":"error","name":"NoOpenPosition","inputs":[]},{"type":"error","name":"NotAdmin","inputs":[]},{"type":"error","name":"Paused","inputs":[]},{"type":"error","name":"PositionAlreadyOpen","inputs":[]},{"type":"error","name":"PositionHealthy","inputs":[{"name":"marginRatio","type":"uint256","internalType":"uint256"},{"name":"threshold","type":"uint256","internalType":"uint256"}]},{"type":"error","name":"TransferFailed","inputs":[]},{"type":"error","name":"ZeroAddress","inputs":[]},{"type":"error","name":"ZeroAmount","inputs":[]}],"bytecode":{"object":"0x6101003461018e57601f611a6f38819003918201601f19168301916001600160401b038311848410176101925780849260a09460405283398101031261018e57610048816101a6565b90610055602082016101a6565b91610062604083016101a6565b61007a6080610073606086016101a6565b94016101a6565b6001600160a01b0390921693841561017f576001600160a01b031690811561017f576001600160a01b031691821561017f576001600160a01b0384161561017f576001600160a01b031693841561017f5760805260a05260c05260e0525f80546001600160a01b0319169190911790556040516118b490816101bb8239608051818181610116015281816105c501528181610b08015281816115cd015281816116e1015261178f015260a0518181816102780152818161038801528181610bce01526114d2015260c0518181816104c3015281816107e1015281816108f401528181610b720152818161123f015261132b015260e0518181816109cc0152610dd20152f35b63d92e233d60e01b5f5260045ffd5b5f80fd5b634e487b7160e01b5f52604160045260245ffd5b51906001600160a01b038216820361018e5756fe60806040526004361015610011575f80fd5b5f5f3560e01c806316c38b3c146110ed578063249d39e9146110d15780633dc8f14414610a3c5780635838bff714610a205780635c975abb146109fb5780636052970c146109b6578063704b6c021461094b57806371a5c554146109235780637dc0d1d0146108de57806383c666dc146108ae5780639185f59814610892578063a126d60114610778578063b1283e7714610712578063bcbaf48714610445578063c1be6677146103b7578063cb4c86b714610372578063d2883325146101aa578063ec9790821461018c578063ecd1dae61461016f578063f851a440146101485763fbfa77cf14610101575f80fd5b346101455780600319360112610145576040517f00000000000000000000000000000000000000000000000000000000000000006001600160a01b03168152602090f35b80fd5b5034610145578060031936011261014557546040516001600160a01b039091168152602090f35b503461014557806003193601126101455760206040516101f48152f35b50346101455780600319360112610145576020600154604051908152f35b50346101455760403660031901126101455780546004359190602435906001600160a01b03163303610363576001549160405160a0810181811067ffffffffffffffff82111761034f57604052848152602081018381526040820160018152606083019084825260808401928584526801000000000000000088101561033b576001880160015561023a8861115d565b9590956103275790600494939291518655516001860155600285019051151560ff801983541691161790555160038401555191015560018060a01b037f000000000000000000000000000000000000000000000000000000000000000016803b156103235781809160246040518094819363f11db84560e01b83528960048401525af1801561031857610303575b602084807ff7154dd385fd97f5acd402bbddfc43353a65d67ed869dc6e507a9f99d6a2040d60408988825191825286820152a2604051908152f35b61030e8280926111b8565b61014557806102c8565b6040513d84823e3d90fd5b5080fd5b634e487b7160e01b87526004879052602487fd5b634e487b7160e01b86526041600452602486fd5b634e487b7160e01b83526041600452602483fd5b637bfa4b9f60e01b8252600482fd5b50346101455780600319360112610145576040517f00000000000000000000000000000000000000000000000000000000000000006001600160a01b03168152602090f35b50346101455760403660031901126101455760e0906040906001600160a01b036103df611147565b16815260026020528181206024358252602052208054906001810154906002810154600382015490600560048401549301549360ff604051968181161515885260081c161515602087015260408601526060850152608084015260a083015260c0820152f35b50346101455760403660031901126101455761045f611147565b6024359060ff835460a01c166107035760018060a01b03811690818452600260205260408420838552602052604084209060ff825416156106f4576104a38461115d565b505460405163832321bf60e01b81526004810191909152916020836024817f00000000000000000000000000000000000000000000000000000000000000006001600160a01b03165afa9283156106e95786936106b1575b50610507838684611466565b9161051f61051584846113d7565b60038301546112c0565b908882139081156106aa576127108302908382046127101484151715610696576001015461054c9161118d565b60c881101561067f575085901561067357506101f48102908082046101f4149015171561065f57908688612710879594045b806105be575b505061058f9461155e565b6040519081527fa457abeae7105eb8bccbb20968069d940e939bc0c8d8b9c2c13aaed4755e68c360203392a480f35b90945090507f00000000000000000000000000000000000000000000000000000000000000006001600160a01b0316803b1561065b576064859260405196879384926317d5759960e31b84528c600485015233602485015260448401525af188811561064f57869489921561058457819396955061063c92506111b8565b61064b5783919286885f610584565b8680fd5b604051903d90823e3d90fd5b8480fd5b634e487b7160e01b88526011600452602488fd5b9291905086888061057e565b6301f7d11160e21b8a5260045260c8602452604489fd5b634e487b7160e01b8b52601160045260248bfd5b508861054c565b9092506020813d6020116106e1575b816106cd602093836111b8565b810103126106dd5751915f6104fb565b5f80fd5b3d91506106c0565b6040513d88823e3d90fd5b63556729af60e01b8552600485fd5b6313d0ff5960e31b8352600483fd5b503461014557602036600319011261014557600435906001548210156101455760a061073d8361115d565b5080549060018101549060ff600282015416600460038301549201549260405194855260208501521515604084015260608301526080820152f35b50346101455760203660031901126101455760043560ff825460a01c166108835733825260026020526040822081835260205260ff60408320541615610874576107c18161115d565b505460405163832321bf60e01b81526004810191909152906020826024817f00000000000000000000000000000000000000000000000000000000000000006001600160a01b03165afa908115610869578391610833575b6108309250610829828233611466565b913361155e565b80f35b90506020823d602011610861575b8161084e602093836111b8565b810103126106dd57610830915190610819565b3d9150610841565b6040513d85823e3d90fd5b63556729af60e01b8252600482fd5b6313d0ff5960e31b8252600482fd5b50346101455780600319360112610145576020604051600a8152f35b50346101455760403660031901126101455760206108d66108cd611147565b602435906112db565b604051908152f35b50346101455780600319360112610145576040517f00000000000000000000000000000000000000000000000000000000000000006001600160a01b03168152602090f35b50346101455760403660031901126101455760206108d6610942611147565b602435906111ee565b503461014557602036600319011261014557610965611147565b8154906001600160a01b03821633036109a7576001600160a01b0316908115610998576001600160a01b03191617815580f35b63d92e233d60e01b8352600483fd5b637bfa4b9f60e01b8352600483fd5b50346101455780600319360112610145576040517f00000000000000000000000000000000000000000000000000000000000000006001600160a01b03168152602090f35b503461014557806003193601126101455760ff6020915460a01c166040519015158152f35b5034610145578060031936011261014557602060405160c88152f35b50346106dd5760803660031901126106dd57600435602435604435801515918282036106dd576064359060ff5f5460a01c166110c2578015928380156110ba575b6110ab57610a8a8661115d565b509060ff6002830154161561109c57335f52600260205260405f20875f5260205260405f209460ff86541661108d57610ac3858561118d565b600184015490818111611078575050600a840290848204600a14171561106457612710900494610af386866111ab565b6040516327e235e360e01b81523360048201527f00000000000000000000000000000000000000000000000000000000000000006001600160a01b0316929190602081602481875afa8015610f4f5782915f9161102f575b5010610fbd5750835460405163832321bf60e01b81526004810191909152966020886024817f00000000000000000000000000000000000000000000000000000000000000006001600160a01b03165afa978815610f4f575f98610f89575b506040516248537360e31b8152600481018b905260248101899052604481018990527f00000000000000000000000000000000000000000000000000000000000000006001600160a01b031693906020816064815f895af18015610f4f57610f5a575b5081610d21575b505060206024926001835461ff008c60081b169061ffff191617178355866001840155886002840155876003840155604051938480926313778db960e11b82528d60048301525afa8015610d165789928b91610cde575b5060048201556005015515610cc957600301610c888282546111ab565b90555b6040519384526020840152604083015260608201527f5cf8fa4a8e333990018876ad3a82065e68b3859d46c3198b692b77fc3043808b60803392a380f35b600401610cd78282546111ab565b9055610c8b565b919250506020813d602011610d0e575b81610cfb602093836111b8565b810103126106dd57518891906005610c6b565b3d9150610cee565b6040513d8c823e3d90fd5b803b156106dd576040516331b5f13d60e11b8152336004820152602481018390525f8160448183865af18015610f4f57610f38575b5090818c923b15610f1757604051637a040c5b60e11b815230600482015260248101839052838160448183865af1908115610ed2578491610f23575b505060206004916040519283809263d8dfeb4560e01b82525afa908115610869578391610edd575b5060405163095ea7b360e01b81526001600160a01b037f000000000000000000000000000000000000000000000000000000000000000081811660048401526024830185905292602091839160449183918991165af18015610ed257610e93575b50604460609260405194859384926364d6def960e01b8452600484015230602484015260018060a01b03165af18015610e8857610e59575b80610c14565b606090813d8311610e81575b610e6f81836111b8565b81010312610e7d575f610e53565b8980fd5b503d610e65565b6040513d8d823e3d90fd5b6020813d602011610eca575b81610eac602093836111b8565b81010312610ec657518015158103610ec657506044610e1b565b8380fd5b3d9150610e9f565b6040513d86823e3d90fd5b90506020813d602011610f1b575b81610ef8602093836111b8565b81010312610f1757516001600160a01b0381168103610f17575f610dba565b8280fd5b3d9150610eeb565b81610f2d916111b8565b610f1757825f610d92565b610f4691929c505f906111b8565b5f9a905f610d56565b6040513d5f823e3d90fd5b6020813d602011610f81575b81610f73602093836111b8565b810103126106dd5751610c0d565b3d9150610f66565b9097506020813d602011610fb5575b81610fa5602093836111b8565b810103126106dd5751965f610baa565b3d9150610f98565b6040516327e235e360e01b8152336004820152602081602481875afa908115610f4f575f91610ffd575b50633af8647b60e01b5f5260045260245260445ffd5b90506020813d602011611027575b81611018602093836111b8565b810103126106dd575182610fe7565b3d915061100b565b9150506020813d60201161105c575b8161104b602093836111b8565b810103126106dd578190515f610b4b565b3d915061103e565b634e487b7160e01b5f52601160045260245ffd5b633b7b1e4b60e01b5f5260045260245260445ffd5b631f19c11d60e01b5f5260045ffd5b635a90bb8d60e11b5f5260045ffd5b631f2a200560e01b5f5260045ffd5b508215610a7d565b6313d0ff5960e31b5f5260045ffd5b346106dd575f3660031901126106dd5760206040516127108152f35b346106dd5760203660031901126106dd576004358015158091036106dd575f54906001600160a01b03821633036111385760ff60a01b1990911660a09190911b60ff60a01b16175f55005b637bfa4b9f60e01b5f5260045ffd5b600435906001600160a01b03821682036106dd57565b6001548110156111795760015f52600560205f20910201905f90565b634e487b7160e01b5f52603260045260245ffd5b8115611197570490565b634e487b7160e01b5f52601260045260245ffd5b9190820180921161106457565b90601f8019910116810190811067ffffffffffffffff8211176111da57604052565b634e487b7160e01b5f52604160045260245ffd5b60018060a01b03165f52600260205260405f20815f5260205260405f209060ff825416156112ba5761121f9061115d565b505460405163832321bf60e01b81526004810191909152906020826024817f00000000000000000000000000000000000000000000000000000000000000006001600160a01b03165afa908115610f4f575f91611284575b61128192506113ff565b90565b90506020823d6020116112b2575b8161129f602093836111b8565b810103126106dd57611281915190611277565b3d9150611292565b50505f90565b9190915f838201938412911290801582169115161761106457565b60018060a01b03165f52600260205260405f20815f5260205260405f209060ff825416156113d05761130c9061115d565b505460405163832321bf60e01b815260048101919091526020816024817f00000000000000000000000000000000000000000000000000000000000000006001600160a01b03165afa908115610f4f575f9161139c575b5061051561137191836113ff565b5f8113156112ba5761271081029080820461271014901517156110645760016112819201549061118d565b90506020813d6020116113c8575b816113b7602093836111b8565b810103126106dd5751610515611363565b3d91506113aa565b50505f1990565b81810392915f13801582851316918412161761106457565b600160ff1b8114611064575f0390565b9061140f600283015480926113d7565b600183015480820292915f8212600160ff1b82141661106457818405149015171561106457801561119757600160ff1b82145f198214166110645760ff9105915460081c165f1461145d5790565b611281906113ef565b9291909260018060a01b03165f52600260205260405f20835f5260205261149160405f2091826113ff565b9260ff825460081c165f1461153c5760046001830154925b01546040516345eab49560e01b81526004810193909352602483015260448201526020816064817f00000000000000000000000000000000000000000000000000000000000000006001600160a01b03165afa908115610f4f575f9161150d575090565b90506020813d602011611534575b81611528602093836111b8565b810103126106dd575190565b3d915061151b565b600461154b60018401546113ef565b926114a9565b9190820391821161106457565b93929190925f9460018060a01b03811693845f52600260205260405f20865f526020526115bd60405f20916115928861115d565b50835460081c60ff1615611843576115b4600360018601549201918254611551565b90555b856113d7565b5f81126116c457600391909101547f00000000000000000000000000000000000000000000000000000000000000006001600160a01b0316916115ff916111ab565b91813b156116c05760405163ef6506db60e01b81526001600160a01b03919091166004820152602481019290925286908290604490829084905af180156106e957918686949286946116a2575b50505f51602061185f5f395f51905f52916040915b82519182526020820152a382526002602052604082209082526020526005604082208281558260018201558260028201558260038201558260048201550155565b819395506116b19294506111b8565b61065b5783918391865f61164c565b8780fd5b6116cf6003916113ef565b91018054909190811061178d575054907f00000000000000000000000000000000000000000000000000000000000000006001600160a01b031690813b156116c0576040516331b5f13d60e11b81526001600160a01b03919091166004820152602481019290925286908290604490829084905af180156106e9579186869492869461176f575b50505f51602061185f5f395f51905f5291604091611661565b8193955061177e9294506111b8565b61065b5783918391865f611756565b7f00000000000000000000000000000000000000000000000000000000000000006001600160a01b0316929150823b156106dd576040516331b5f13d60e11b81526001600160a01b039290921660048301526024820152905f908290604490829084905af18015610f4f57611817575b505f51602061185f5f395f51905f52604085938593611661565b83919550604085936118375f5f51602061185f5f395f51905f52946111b8565b5f9793509350506117fd565b611857600460018601549201918254611551565b90556115b756fe16783b3f0676d6e63220b161cedd5415bd909d2f96353db363fbd217a00971b4a26469706673582212209c6b1fed18e176e2ddd6aec14f85f08a8b944aabcd28a7f4e57a26998fc4135a64736f6c63430008210033","linkReferences":{}},"methodIdentifiers":{"BPS()":"249d39e9","LIQUIDATION_BONUS_BPS()":"ecd1dae6","MAINTENANCE_MARGIN_BPS()":"5838bff7","TRADE_FEE_BPS()":"9185f598","admin()":"f851a440","closePosition(uint256)":"a126d601","createMarket(bytes32,uint256)":"d2883325","feeSplitter()":"6052970c","funding()":"cb4c86b7","liquidate(address,uint256)":"bcbaf487","marginRatio(address,uint256)":"83c666dc","marketCount()":"ec979082","markets(uint256)":"b1283e77","openPosition(uint256,uint256,bool,uint256)":"3dc8f144","oracle()":"7dc0d1d0","paused()":"5c975abb","positions(address,uint256)":"c1be6677","setAdmin(address)":"704b6c02","setPaused(bool)":"16c38b3c","unrealizedPnL(address,uint256)":"71a5c554","vault()":"fbfa77cf"},"id":50}