{"abi":[{"type":"constructor","inputs":[{"name":"_messenger","type":"address","internalType":"address"},{"name":"_admin","type":"address","internalType":"address"}],"stateMutability":"nonpayable"},{"type":"receive","stateMutability":"payable"},{"type":"function","name":"admin","inputs":[],"outputs":[{"name":"","type":"address","internalType":"address"}],"stateMutability":"view"},{"type":"function","name":"finalizeDeposit","inputs":[{"name":"l1Token","type":"address","internalType":"address"},{"name":"","type":"address","internalType":"address"},{"name":"to","type":"address","internalType":"address"},{"name":"amount","type":"uint256","internalType":"uint256"}],"outputs":[],"stateMutability":"nonpayable"},{"type":"function","name":"finalizeETHDeposit","inputs":[{"name":"","type":"address","internalType":"address"},{"name":"to","type":"address","internalType":"address"},{"name":"amount","type":"uint256","internalType":"uint256"}],"outputs":[],"stateMutability":"nonpayable"},{"type":"function","name":"l1Bridge","inputs":[],"outputs":[{"name":"","type":"address","internalType":"address"}],"stateMutability":"view"},{"type":"function","name":"l1ToL2Token","inputs":[{"name":"","type":"address","internalType":"address"}],"outputs":[{"name":"","type":"address","internalType":"address"}],"stateMutability":"view"},{"type":"function","name":"mapToken","inputs":[{"name":"l1Token","type":"address","internalType":"address"},{"name":"l2Token","type":"address","internalType":"address"}],"outputs":[],"stateMutability":"nonpayable"},{"type":"function","name":"messenger","inputs":[],"outputs":[{"name":"","type":"address","internalType":"contract IL2CrossDomainMessenger"}],"stateMutability":"view"},{"type":"function","name":"paused","inputs":[],"outputs":[{"name":"","type":"bool","internalType":"bool"}],"stateMutability":"view"},{"type":"function","name":"setAdmin","inputs":[{"name":"newAdmin","type":"address","internalType":"address"}],"outputs":[],"stateMutability":"nonpayable"},{"type":"function","name":"setL1Bridge","inputs":[{"name":"_l1Bridge","type":"address","internalType":"address"}],"outputs":[],"stateMutability":"nonpayable"},{"type":"function","name":"setPaused","inputs":[{"name":"_paused","type":"bool","internalType":"bool"}],"outputs":[],"stateMutability":"nonpayable"},{"type":"function","name":"totalMinted","inputs":[{"name":"","type":"address","internalType":"address"}],"outputs":[{"name":"","type":"uint256","internalType":"uint256"}],"stateMutability":"view"},{"type":"function","name":"withdrawETH","inputs":[{"name":"to","type":"address","internalType":"address"},{"name":"amount","type":"uint256","internalType":"uint256"}],"outputs":[],"stateMutability":"payable"},{"type":"function","name":"withdrawGDollar","inputs":[{"name":"l1Token","type":"address","internalType":"address"},{"name":"to","type":"address","internalType":"address"},{"name":"amount","type":"uint256","internalType":"uint256"}],"outputs":[],"stateMutability":"nonpayable"},{"type":"function","name":"withdrawUSDC","inputs":[{"name":"l1Token","type":"address","internalType":"address"},{"name":"to","type":"address","internalType":"address"},{"name":"amount","type":"uint256","internalType":"uint256"}],"outputs":[],"stateMutability":"nonpayable"},{"type":"event","name":"DepositFinalized","inputs":[{"name":"l1Token","type":"address","indexed":true,"internalType":"address"},{"name":"l2Token","type":"address","indexed":true,"internalType":"address"},{"name":"to","type":"address","indexed":true,"internalType":"address"},{"name":"amount","type":"uint256","indexed":false,"internalType":"uint256"}],"anonymous":false},{"type":"event","name":"ETHDepositFinalized","inputs":[{"name":"to","type":"address","indexed":true,"internalType":"address"},{"name":"amount","type":"uint256","indexed":false,"internalType":"uint256"}],"anonymous":false},{"type":"event","name":"ETHWithdrawalInitiated","inputs":[{"name":"from","type":"address","indexed":true,"internalType":"address"},{"name":"to","type":"address","indexed":true,"internalType":"address"},{"name":"amount","type":"uint256","indexed":false,"internalType":"uint256"}],"anonymous":false},{"type":"event","name":"WithdrawalInitiated","inputs":[{"name":"l1Token","type":"address","indexed":true,"internalType":"address"},{"name":"from","type":"address","indexed":true,"internalType":"address"},{"name":"to","type":"address","indexed":true,"internalType":"address"},{"name":"amount","type":"uint256","indexed":false,"internalType":"uint256"}],"anonymous":false},{"type":"error","name":"BridgePaused","inputs":[]},{"type":"error","name":"InsufficientETH","inputs":[]},{"type":"error","name":"NotAdmin","inputs":[]},{"type":"error","name":"NotL1Bridge","inputs":[]},{"type":"error","name":"NotMessenger","inputs":[]},{"type":"error","name":"TokenNotMapped","inputs":[]},{"type":"error","name":"TransferFailed","inputs":[]},{"type":"error","name":"ZeroAddress","inputs":[]},{"type":"error","name":"ZeroAmount","inputs":[]}],"bytecode":{"object":"0x60a060405234801561000f575f5ffd5b50604051612159380380612159833981810160405281019061003191906101d4565b5f73ffffffffffffffffffffffffffffffffffffffff168273ffffffffffffffffffffffffffffffffffffffff1603610096576040517fd92e233d00000000000000000000000000000000000000000000000000000000815260040160405180910390fd5b5f73ffffffffffffffffffffffffffffffffffffffff168173ffffffffffffffffffffffffffffffffffffffff16036100fb576040517fd92e233d00000000000000000000000000000000000000000000000000000000815260040160405180910390fd5b8173ffffffffffffffffffffffffffffffffffffffff1660808173ffffffffffffffffffffffffffffffffffffffff16815250508060015f6101000a81548173ffffffffffffffffffffffffffffffffffffffff021916908373ffffffffffffffffffffffffffffffffffffffff1602179055505050610212565b5f5ffd5b5f73ffffffffffffffffffffffffffffffffffffffff82169050919050565b5f6101a38261017a565b9050919050565b6101b381610199565b81146101bd575f5ffd5b50565b5f815190506101ce816101aa565b92915050565b5f5f604083850312156101ea576101e9610176565b5b5f6101f7858286016101c0565b9250506020610208858286016101c0565b9150509250929050565b608051611efe61025b5f395f81816106470152818161094601528181610c8301528181610dac01528181610e6801528181611532015281816116b601526117720152611efe5ff3fe6080604052600436106100ea575f3560e01c80635c975abb116100895780638a2dc014116100585780638a2dc014146102b9578063969b53da146102f5578063a6a1be4f1461031f578063f851a44014610347576100f1565b80635c975abb146102175780635ff2e69314610241578063704b6c02146102695780637922620914610291576100f1565b80631a050376116100c55780631a050376146101815780633cb747bf146101a957806347400269146101d35780634782f779146101fb576100f1565b80623d4790146100f55780630f6cb0ae1461013157806316c38b3c14610159576100f1565b366100f157005b5f5ffd5b348015610100575f5ffd5b5061011b600480360381019061011691906119c0565b610371565b6040516101289190611a03565b60405180910390f35b34801561013c575f5ffd5b5061015760048036038101906101529190611a46565b610386565b005b348015610164575f5ffd5b5061017f600480360381019061017a9190611acb565b610775565b005b34801561018c575f5ffd5b506101a760048036038101906101a291906119c0565b610817565b005b3480156101b4575f5ffd5b506101bd610944565b6040516101ca9190611b51565b60405180910390f35b3480156101de575f5ffd5b506101f960048036038101906101f49190611b6a565b610968565b005b61021560048036038101906102109190611ba8565b610b09565b005b348015610222575f5ffd5b5061022b610d98565b6040516102389190611bf5565b60405180910390f35b34801561024c575f5ffd5b5061026760048036038101906102629190611c0e565b610daa565b005b348015610274575f5ffd5b5061028f600480360381019061028a91906119c0565b611143565b005b34801561029c575f5ffd5b506102b760048036038101906102b29190611a46565b611271565b005b3480156102c4575f5ffd5b506102df60048036038101906102da91906119c0565b611660565b6040516102ec9190611c81565b60405180910390f35b348015610300575f5ffd5b50610309611690565b6040516103169190611c81565b60405180910390f35b34801561032a575f5ffd5b5061034560048036038101906103409190611a46565b6116b4565b005b348015610352575f5ffd5b5061035b61193d565b6040516103689190611c81565b60405180910390f35b6003602052805f5260405f205f915090505481565b60045f9054906101000a900460ff16156103cc576040517fa792dfa300000000000000000000000000000000000000000000000000000000815260040160405180910390fd5b5f8103610405576040517f1f2a200500000000000000000000000000000000000000000000000000000000815260040160405180910390fd5b5f73ffffffffffffffffffffffffffffffffffffffff168273ffffffffffffffffffffffffffffffffffffffff160361046a576040517fd92e233d00000000000000000000000000000000000000000000000000000000815260040160405180910390fd5b5f60025f8573ffffffffffffffffffffffffffffffffffffffff1673ffffffffffffffffffffffffffffffffffffffff1681526020019081526020015f205f9054906101000a900473ffffffffffffffffffffffffffffffffffffffff1690505f73ffffffffffffffffffffffffffffffffffffffff168173ffffffffffffffffffffffffffffffffffffffff160361052f576040517f828d566300000000000000000000000000000000000000000000000000000000815260040160405180910390fd5b8073ffffffffffffffffffffffffffffffffffffffff16639dc29fac33846040518363ffffffff1660e01b815260040161056a929190611c9a565b5f604051808303815f87803b158015610581575f5ffd5b505af1158015610593573d5f5f3e3d5ffd5b505050508160035f8673ffffffffffffffffffffffffffffffffffffffff1673ffffffffffffffffffffffffffffffffffffffff1681526020019081526020015f205f8282546105e39190611cee565b925050819055505f83836040516024016105fe929190611c9a565b6040516020818303038152906040526362a9884360e01b6020820180517bffffffffffffffffffffffffffffffffffffffffffffffffffffffff838183161783525050505090507f000000000000000000000000000000000000000000000000000000000000000073ffffffffffffffffffffffffffffffffffffffff16633dbb202b5f5f9054906101000a900473ffffffffffffffffffffffffffffffffffffffff168362030d406040518463ffffffff1660e01b81526004016106c593929190611dd9565b5f604051808303815f87803b1580156106dc575f5ffd5b505af11580156106ee573d5f5f3e3d5ffd5b505050508373ffffffffffffffffffffffffffffffffffffffff163373ffffffffffffffffffffffffffffffffffffffff168673ffffffffffffffffffffffffffffffffffffffff167f2fc3848834aac8e883a2d2a17a7514dc4f2d3dd268089df9b9f5d918259ef3b0866040516107669190611a03565b60405180910390a45050505050565b60015f9054906101000a900473ffffffffffffffffffffffffffffffffffffffff1673ffffffffffffffffffffffffffffffffffffffff163373ffffffffffffffffffffffffffffffffffffffff16146107fb576040517f7bfa4b9f00000000000000000000000000000000000000000000000000000000815260040160405180910390fd5b8060045f6101000a81548160ff02191690831515021790555050565b60015f9054906101000a900473ffffffffffffffffffffffffffffffffffffffff1673ffffffffffffffffffffffffffffffffffffffff163373ffffffffffffffffffffffffffffffffffffffff161461089d576040517f7bfa4b9f00000000000000000000000000000000000000000000000000000000815260040160405180910390fd5b5f73ffffffffffffffffffffffffffffffffffffffff168173ffffffffffffffffffffffffffffffffffffffff1603610902576040517fd92e233d00000000000000000000000000000000000000000000000000000000815260040160405180910390fd5b805f5f6101000a81548173ffffffffffffffffffffffffffffffffffffffff021916908373ffffffffffffffffffffffffffffffffffffffff16021790555050565b7f000000000000000000000000000000000000000000000000000000000000000081565b60015f9054906101000a900473ffffffffffffffffffffffffffffffffffffffff1673ffffffffffffffffffffffffffffffffffffffff163373ffffffffffffffffffffffffffffffffffffffff16146109ee576040517f7bfa4b9f00000000000000000000000000000000000000000000000000000000815260040160405180910390fd5b5f73ffffffffffffffffffffffffffffffffffffffff168273ffffffffffffffffffffffffffffffffffffffff161480610a5357505f73ffffffffffffffffffffffffffffffffffffffff168173ffffffffffffffffffffffffffffffffffffffff16145b15610a8a576040517fd92e233d00000000000000000000000000000000000000000000000000000000815260040160405180910390fd5b8060025f8473ffffffffffffffffffffffffffffffffffffffff1673ffffffffffffffffffffffffffffffffffffffff1681526020019081526020015f205f6101000a81548173ffffffffffffffffffffffffffffffffffffffff021916908373ffffffffffffffffffffffffffffffffffffffff1602179055505050565b60045f9054906101000a900460ff1615610b4f576040517fa792dfa300000000000000000000000000000000000000000000000000000000815260040160405180910390fd5b5f8103610b88576040517f1f2a200500000000000000000000000000000000000000000000000000000000815260040160405180910390fd5b5f73ffffffffffffffffffffffffffffffffffffffff168273ffffffffffffffffffffffffffffffffffffffff1603610bed576040517fd92e233d00000000000000000000000000000000000000000000000000000000815260040160405180910390fd5b803414610c26576040517f6a12f10400000000000000000000000000000000000000000000000000000000815260040160405180910390fd5b5f8282604051602401610c3a929190611c9a565b604051602081830303815290604052636fe9b25c60e01b6020820180517bffffffffffffffffffffffffffffffffffffffffffffffffffffffff838183161783525050505090507f000000000000000000000000000000000000000000000000000000000000000073ffffffffffffffffffffffffffffffffffffffff16633dbb202b5f5f9054906101000a900473ffffffffffffffffffffffffffffffffffffffff168362030d406040518463ffffffff1660e01b8152600401610d0193929190611dd9565b5f604051808303815f87803b158015610d18575f5ffd5b505af1158015610d2a573d5f5f3e3d5ffd5b505050508273ffffffffffffffffffffffffffffffffffffffff163373ffffffffffffffffffffffffffffffffffffffff167fac665e40cc66048bbdbd717fd4c3a47b08ba458030de22b7ad9a9462bd026e8f84604051610d8b9190611a03565b60405180910390a3505050565b60045f9054906101000a900460ff1681565b7f000000000000000000000000000000000000000000000000000000000000000073ffffffffffffffffffffffffffffffffffffffff163373ffffffffffffffffffffffffffffffffffffffff1614610e2f576040517f1e51e47d00000000000000000000000000000000000000000000000000000000815260040160405180910390fd5b5f5f9054906101000a900473ffffffffffffffffffffffffffffffffffffffff1673ffffffffffffffffffffffffffffffffffffffff167f000000000000000000000000000000000000000000000000000000000000000073ffffffffffffffffffffffffffffffffffffffff16636e296e456040518163ffffffff1660e01b8152600401602060405180830381865afa158015610ecf573d5f5f3e3d5ffd5b505050506040513d601f19601f82011682018060405250810190610ef39190611e29565b73ffffffffffffffffffffffffffffffffffffffff1614610f40576040517fa51ca66900000000000000000000000000000000000000000000000000000000815260040160405180910390fd5b5f60025f8673ffffffffffffffffffffffffffffffffffffffff1673ffffffffffffffffffffffffffffffffffffffff1681526020019081526020015f205f9054906101000a900473ffffffffffffffffffffffffffffffffffffffff1690505f73ffffffffffffffffffffffffffffffffffffffff168173ffffffffffffffffffffffffffffffffffffffff1603611005576040517f828d566300000000000000000000000000000000000000000000000000000000815260040160405180910390fd5b8073ffffffffffffffffffffffffffffffffffffffff166340c10f1984846040518363ffffffff1660e01b8152600401611040929190611c9a565b5f604051808303815f87803b158015611057575f5ffd5b505af1158015611069573d5f5f3e3d5ffd5b505050508160035f8773ffffffffffffffffffffffffffffffffffffffff1673ffffffffffffffffffffffffffffffffffffffff1681526020019081526020015f205f8282546110b99190611e54565b925050819055508273ffffffffffffffffffffffffffffffffffffffff168173ffffffffffffffffffffffffffffffffffffffff168673ffffffffffffffffffffffffffffffffffffffff167fc7f2e9c55c40a50fbc217dfc70cd39a222940dfa62145aa0ca49eb9535d4fcb2856040516111349190611a03565b60405180910390a45050505050565b60015f9054906101000a900473ffffffffffffffffffffffffffffffffffffffff1673ffffffffffffffffffffffffffffffffffffffff163373ffffffffffffffffffffffffffffffffffffffff16146111c9576040517f7bfa4b9f00000000000000000000000000000000000000000000000000000000815260040160405180910390fd5b5f73ffffffffffffffffffffffffffffffffffffffff168173ffffffffffffffffffffffffffffffffffffffff160361122e576040517fd92e233d00000000000000000000000000000000000000000000000000000000815260040160405180910390fd5b8060015f6101000a81548173ffffffffffffffffffffffffffffffffffffffff021916908373ffffffffffffffffffffffffffffffffffffffff16021790555050565b60045f9054906101000a900460ff16156112b7576040517fa792dfa300000000000000000000000000000000000000000000000000000000815260040160405180910390fd5b5f81036112f0576040517f1f2a200500000000000000000000000000000000000000000000000000000000815260040160405180910390fd5b5f73ffffffffffffffffffffffffffffffffffffffff168273ffffffffffffffffffffffffffffffffffffffff1603611355576040517fd92e233d00000000000000000000000000000000000000000000000000000000815260040160405180910390fd5b5f60025f8573ffffffffffffffffffffffffffffffffffffffff1673ffffffffffffffffffffffffffffffffffffffff1681526020019081526020015f205f9054906101000a900473ffffffffffffffffffffffffffffffffffffffff1690505f73ffffffffffffffffffffffffffffffffffffffff168173ffffffffffffffffffffffffffffffffffffffff160361141a576040517f828d566300000000000000000000000000000000000000000000000000000000815260040160405180910390fd5b8073ffffffffffffffffffffffffffffffffffffffff16639dc29fac33846040518363ffffffff1660e01b8152600401611455929190611c9a565b5f604051808303815f87803b15801561146c575f5ffd5b505af115801561147e573d5f5f3e3d5ffd5b505050508160035f8673ffffffffffffffffffffffffffffffffffffffff1673ffffffffffffffffffffffffffffffffffffffff1681526020019081526020015f205f8282546114ce9190611cee565b925050819055505f83836040516024016114e9929190611c9a565b604051602081830303815290604052632010e87560e01b6020820180517bffffffffffffffffffffffffffffffffffffffffffffffffffffffff838183161783525050505090507f000000000000000000000000000000000000000000000000000000000000000073ffffffffffffffffffffffffffffffffffffffff16633dbb202b5f5f9054906101000a900473ffffffffffffffffffffffffffffffffffffffff168362030d406040518463ffffffff1660e01b81526004016115b093929190611dd9565b5f604051808303815f87803b1580156115c7575f5ffd5b505af11580156115d9573d5f5f3e3d5ffd5b505050508373ffffffffffffffffffffffffffffffffffffffff163373ffffffffffffffffffffffffffffffffffffffff168673ffffffffffffffffffffffffffffffffffffffff167f2fc3848834aac8e883a2d2a17a7514dc4f2d3dd268089df9b9f5d918259ef3b0866040516116519190611a03565b60405180910390a45050505050565b6002602052805f5260405f205f915054906101000a900473ffffffffffffffffffffffffffffffffffffffff1681565b5f5f9054906101000a900473ffffffffffffffffffffffffffffffffffffffff1681565b7f000000000000000000000000000000000000000000000000000000000000000073ffffffffffffffffffffffffffffffffffffffff163373ffffffffffffffffffffffffffffffffffffffff1614611739576040517f1e51e47d00000000000000000000000000000000000000000000000000000000815260040160405180910390fd5b5f5f9054906101000a900473ffffffffffffffffffffffffffffffffffffffff1673ffffffffffffffffffffffffffffffffffffffff167f000000000000000000000000000000000000000000000000000000000000000073ffffffffffffffffffffffffffffffffffffffff16636e296e456040518163ffffffff1660e01b8152600401602060405180830381865afa1580156117d9573d5f5f3e3d5ffd5b505050506040513d601f19601f820116820180604052508101906117fd9190611e29565b73ffffffffffffffffffffffffffffffffffffffff161461184a576040517fa51ca66900000000000000000000000000000000000000000000000000000000815260040160405180910390fd5b5f8273ffffffffffffffffffffffffffffffffffffffff168260405161186f90611eb4565b5f6040518083038185875af1925050503d805f81146118a9576040519150601f19603f3d011682016040523d82523d5f602084013e6118ae565b606091505b50509050806118e9576040517f90b8ec1800000000000000000000000000000000000000000000000000000000815260040160405180910390fd5b8273ffffffffffffffffffffffffffffffffffffffff167f4dac4df9005824b3ae59eb193a9100f02f7acd900d427609a45758ffe64891598360405161192f9190611a03565b60405180910390a250505050565b60015f9054906101000a900473ffffffffffffffffffffffffffffffffffffffff1681565b5f5ffd5b5f73ffffffffffffffffffffffffffffffffffffffff82169050919050565b5f61198f82611966565b9050919050565b61199f81611985565b81146119a9575f5ffd5b50565b5f813590506119ba81611996565b92915050565b5f602082840312156119d5576119d4611962565b5b5f6119e2848285016119ac565b91505092915050565b5f819050919050565b6119fd816119eb565b82525050565b5f602082019050611a165f8301846119f4565b92915050565b611a25816119eb565b8114611a2f575f5ffd5b50565b5f81359050611a4081611a1c565b92915050565b5f5f5f60608486031215611a5d57611a5c611962565b5b5f611a6a868287016119ac565b9350506020611a7b868287016119ac565b9250506040611a8c86828701611a32565b9150509250925092565b5f8115159050919050565b611aaa81611a96565b8114611ab4575f5ffd5b50565b5f81359050611ac581611aa1565b92915050565b5f60208284031215611ae057611adf611962565b5b5f611aed84828501611ab7565b91505092915050565b5f819050919050565b5f611b19611b14611b0f84611966565b611af6565b611966565b9050919050565b5f611b2a82611aff565b9050919050565b5f611b3b82611b20565b9050919050565b611b4b81611b31565b82525050565b5f602082019050611b645f830184611b42565b92915050565b5f5f60408385031215611b8057611b7f611962565b5b5f611b8d858286016119ac565b9250506020611b9e858286016119ac565b9150509250929050565b5f5f60408385031215611bbe57611bbd611962565b5b5f611bcb858286016119ac565b9250506020611bdc85828601611a32565b9150509250929050565b611bef81611a96565b82525050565b5f602082019050611c085f830184611be6565b92915050565b5f5f5f5f60808587031215611c2657611c25611962565b5b5f611c33878288016119ac565b9450506020611c44878288016119ac565b9350506040611c55878288016119ac565b9250506060611c6687828801611a32565b91505092959194509250565b611c7b81611985565b82525050565b5f602082019050611c945f830184611c72565b92915050565b5f604082019050611cad5f830185611c72565b611cba60208301846119f4565b9392505050565b7f4e487b71000000000000000000000000000000000000000000000000000000005f52601160045260245ffd5b5f611cf8826119eb565b9150611d03836119eb565b9250828203905081811115611d1b57611d1a611cc1565b5b92915050565b5f81519050919050565b5f82825260208201905092915050565b8281835e5f83830152505050565b5f601f19601f8301169050919050565b5f611d6382611d21565b611d6d8185611d2b565b9350611d7d818560208601611d3b565b611d8681611d49565b840191505092915050565b5f819050919050565b5f63ffffffff82169050919050565b5f611dc3611dbe611db984611d91565b611af6565b611d9a565b9050919050565b611dd381611da9565b82525050565b5f606082019050611dec5f830186611c72565b8181036020830152611dfe8185611d59565b9050611e0d6040830184611dca565b949350505050565b5f81519050611e2381611996565b92915050565b5f60208284031215611e3e57611e3d611962565b5b5f611e4b84828501611e15565b91505092915050565b5f611e5e826119eb565b9150611e69836119eb565b9250828201905080821115611e8157611e80611cc1565b5b92915050565b5f81905092915050565b50565b5f611e9f5f83611e87565b9150611eaa82611e91565b5f82019050919050565b5f611ebe82611e94565b915081905091905056fea26469706673582212200c347b22f8f619fcd40d281c14e56560f4c9b9a8b22f6158c29c6082beacc63e64736f6c63430008210033","linkReferences":{}},"methodIdentifiers":{"admin()":"f851a440","finalizeDeposit(address,address,address,uint256)":"5ff2e693","finalizeETHDeposit(address,address,uint256)":"a6a1be4f","l1Bridge()":"969b53da","l1ToL2Token(address)":"8a2dc014","mapToken(address,address)":"47400269","messenger()":"3cb747bf","paused()":"5c975abb","setAdmin(address)":"704b6c02","setL1Bridge(address)":"1a050376","setPaused(bool)":"16c38b3c","totalMinted(address)":"003d4790","withdrawETH(address,uint256)":"4782f779","withdrawGDollar(address,address,uint256)":"0f6cb0ae","withdrawUSDC(address,address,uint256)":"79226209"},"id":28}