{"abi":[{"type":"constructor","inputs":[{"name":"_gusd","type":"address","internalType":"address"},{"name":"_registry","type":"address","internalType":"address"},{"name":"_oracle","type":"address","internalType":"address"},{"name":"_feeSplitter","type":"address","internalType":"address"},{"name":"_dAppRecipient","type":"address","internalType":"address"},{"name":"_admin","type":"address","internalType":"address"}],"stateMutability":"nonpayable"},{"type":"function","name":"RAY","inputs":[],"outputs":[{"name":"","type":"uint256","internalType":"uint256"}],"stateMutability":"view"},{"type":"function","name":"WAD","inputs":[],"outputs":[{"name":"","type":"uint256","internalType":"uint256"}],"stateMutability":"view"},{"type":"function","name":"accumulators","inputs":[{"name":"","type":"bytes32","internalType":"bytes32"}],"outputs":[{"name":"chi","type":"uint256","internalType":"uint256"},{"name":"lastDrip","type":"uint256","internalType":"uint256"},{"name":"totalNormalizedDebt","type":"uint256","internalType":"uint256"}],"stateMutability":"view"},{"type":"function","name":"admin","inputs":[],"outputs":[{"name":"","type":"address","internalType":"address"}],"stateMutability":"view"},{"type":"function","name":"closeVault","inputs":[{"name":"ilk","type":"bytes32","internalType":"bytes32"}],"outputs":[],"stateMutability":"nonpayable"},{"type":"function","name":"dAppRecipient","inputs":[],"outputs":[{"name":"","type":"address","internalType":"address"}],"stateMutability":"view"},{"type":"function","name":"depositCollateral","inputs":[{"name":"ilk","type":"bytes32","internalType":"bytes32"},{"name":"amount","type":"uint256","internalType":"uint256"}],"outputs":[],"stateMutability":"nonpayable"},{"type":"function","name":"drip","inputs":[{"name":"ilk","type":"bytes32","internalType":"bytes32"}],"outputs":[],"stateMutability":"nonpayable"},{"type":"function","name":"feeSplitter","inputs":[],"outputs":[{"name":"","type":"address","internalType":"contract IUBIFeeSplitter"}],"stateMutability":"view"},{"type":"function","name":"gusd","inputs":[],"outputs":[{"name":"","type":"address","internalType":"contract IgUSD"}],"stateMutability":"view"},{"type":"function","name":"healthFactor","inputs":[{"name":"ilk","type":"bytes32","internalType":"bytes32"},{"name":"owner","type":"address","internalType":"address"}],"outputs":[{"name":"","type":"uint256","internalType":"uint256"}],"stateMutability":"view"},{"type":"function","name":"ilkDebt","inputs":[{"name":"","type":"bytes32","internalType":"bytes32"}],"outputs":[{"name":"","type":"uint256","internalType":"uint256"}],"stateMutability":"view"},{"type":"function","name":"liquidate","inputs":[{"name":"ilk","type":"bytes32","internalType":"bytes32"},{"name":"owner","type":"address","internalType":"address"}],"outputs":[],"stateMutability":"nonpayable"},{"type":"function","name":"mintGUSD","inputs":[{"name":"ilk","type":"bytes32","internalType":"bytes32"},{"name":"amount","type":"uint256","internalType":"uint256"}],"outputs":[],"stateMutability":"nonpayable"},{"type":"function","name":"openVault","inputs":[{"name":"ilk","type":"bytes32","internalType":"bytes32"}],"outputs":[],"stateMutability":"nonpayable"},{"type":"function","name":"oracle","inputs":[],"outputs":[{"name":"","type":"address","internalType":"contract IPriceOracle"}],"stateMutability":"view"},{"type":"function","name":"paused","inputs":[],"outputs":[{"name":"","type":"bool","internalType":"bool"}],"stateMutability":"view"},{"type":"function","name":"pendingFee","inputs":[{"name":"ilk","type":"bytes32","internalType":"bytes32"}],"outputs":[{"name":"","type":"uint256","internalType":"uint256"}],"stateMutability":"view"},{"type":"function","name":"registry","inputs":[],"outputs":[{"name":"","type":"address","internalType":"contract ICollateralRegistry"}],"stateMutability":"view"},{"type":"function","name":"repayGUSD","inputs":[{"name":"ilk","type":"bytes32","internalType":"bytes32"},{"name":"amount","type":"uint256","internalType":"uint256"}],"outputs":[],"stateMutability":"nonpayable"},{"type":"function","name":"setDAppRecipient","inputs":[{"name":"_recipient","type":"address","internalType":"address"}],"outputs":[],"stateMutability":"nonpayable"},{"type":"function","name":"setPaused","inputs":[{"name":"_paused","type":"bool","internalType":"bool"}],"outputs":[],"stateMutability":"nonpayable"},{"type":"function","name":"setStabilityPool","inputs":[{"name":"_pool","type":"address","internalType":"address"}],"outputs":[],"stateMutability":"nonpayable"},{"type":"function","name":"stabilityPool","inputs":[],"outputs":[{"name":"","type":"address","internalType":"contract IStabilityPool"}],"stateMutability":"view"},{"type":"function","name":"transferAdmin","inputs":[{"name":"newAdmin","type":"address","internalType":"address"}],"outputs":[],"stateMutability":"nonpayable"},{"type":"function","name":"vaultDebt","inputs":[{"name":"ilk","type":"bytes32","internalType":"bytes32"},{"name":"owner","type":"address","internalType":"address"}],"outputs":[{"name":"","type":"uint256","internalType":"uint256"}],"stateMutability":"view"},{"type":"function","name":"vaults","inputs":[{"name":"","type":"bytes32","internalType":"bytes32"},{"name":"","type":"address","internalType":"address"}],"outputs":[{"name":"collateral","type":"uint256","internalType":"uint256"},{"name":"normalizedDebt","type":"uint256","internalType":"uint256"}],"stateMutability":"view"},{"type":"function","name":"withdrawCollateral","inputs":[{"name":"ilk","type":"bytes32","internalType":"bytes32"},{"name":"amount","type":"uint256","internalType":"uint256"}],"outputs":[],"stateMutability":"nonpayable"},{"type":"event","name":"CollateralDeposited","inputs":[{"name":"owner","type":"address","indexed":true,"internalType":"address"},{"name":"ilk","type":"bytes32","indexed":true,"internalType":"bytes32"},{"name":"amount","type":"uint256","indexed":false,"internalType":"uint256"}],"anonymous":false},{"type":"event","name":"CollateralWithdrawn","inputs":[{"name":"owner","type":"address","indexed":true,"internalType":"address"},{"name":"ilk","type":"bytes32","indexed":true,"internalType":"bytes32"},{"name":"amount","type":"uint256","indexed":false,"internalType":"uint256"}],"anonymous":false},{"type":"event","name":"Drip","inputs":[{"name":"ilk","type":"bytes32","indexed":true,"internalType":"bytes32"},{"name":"newChi","type":"uint256","indexed":false,"internalType":"uint256"},{"name":"feeAccrued","type":"uint256","indexed":false,"internalType":"uint256"}],"anonymous":false},{"type":"event","name":"FeeCollected","inputs":[{"name":"ilk","type":"bytes32","indexed":true,"internalType":"bytes32"},{"name":"feeGUSD","type":"uint256","indexed":false,"internalType":"uint256"}],"anonymous":false},{"type":"event","name":"GUSDMinted","inputs":[{"name":"owner","type":"address","indexed":true,"internalType":"address"},{"name":"ilk","type":"bytes32","indexed":true,"internalType":"bytes32"},{"name":"amount","type":"uint256","indexed":false,"internalType":"uint256"}],"anonymous":false},{"type":"event","name":"GUSDRepaid","inputs":[{"name":"owner","type":"address","indexed":true,"internalType":"address"},{"name":"ilk","type":"bytes32","indexed":true,"internalType":"bytes32"},{"name":"amount","type":"uint256","indexed":false,"internalType":"uint256"}],"anonymous":false},{"type":"event","name":"StabilityPoolSet","inputs":[{"name":"pool","type":"address","indexed":false,"internalType":"address"}],"anonymous":false},{"type":"event","name":"VaultClosed","inputs":[{"name":"owner","type":"address","indexed":true,"internalType":"address"},{"name":"ilk","type":"bytes32","indexed":true,"internalType":"bytes32"}],"anonymous":false},{"type":"event","name":"VaultLiquidated","inputs":[{"name":"liquidator","type":"address","indexed":true,"internalType":"address"},{"name":"owner","type":"address","indexed":true,"internalType":"address"},{"name":"ilk","type":"bytes32","indexed":true,"internalType":"bytes32"},{"name":"debtRepaid","type":"uint256","indexed":false,"internalType":"uint256"},{"name":"collSeized","type":"uint256","indexed":false,"internalType":"uint256"}],"anonymous":false},{"type":"event","name":"VaultOpened","inputs":[{"name":"owner","type":"address","indexed":true,"internalType":"address"},{"name":"ilk","type":"bytes32","indexed":true,"internalType":"bytes32"}],"anonymous":false}],"bytecode":{"object":"0x6101003461032557601f612b0038819003918201601f19168301916001600160401b038311848410176103295780849260c094604052833981010312610325576100488161033d565b6100546020830161033d565b916100616040820161033d565b61006d6060830161033d565b9061008660a061007f6080860161033d565b940161033d565b6001600160a01b039094169485156102f0576001600160a01b03169081156102b7576001600160a01b0316918215610280576001600160a01b0316928315610247576001600160a01b0316938415610202576001600160a01b03169485156101cc5760805260a05260c05260e05260018060a01b0319600254161760025560018060a01b031960015416176001556040516127ae908161035282396080518181816103c6015281816106f701528181610c4701528181610fcc015281816116480152611c66015260a051818181610605015281816109e901528181610eb1015281816111480152818161131c015281816115540152818161176b015281816119a501528181611be4015281816120890152612560015260c051818181610a7f01528181610ef5015281816120df01526125b6015260e0518181816108620152611cdc0152f35b60405162461bcd60e51b815260206004820152600e60248201526d2b269d103d32b9379030b236b4b760911b6044820152606490fd5b60405162461bcd60e51b815260206004820152601760248201527f564d3a207a65726f206441707020726563697069656e740000000000000000006044820152606490fd5b60405162461bcd60e51b81526020600482015260116024820152702b269d103d32b9379039b83634ba3a32b960791b6044820152606490fd5b60405162461bcd60e51b815260206004820152600f60248201526e564d3a207a65726f206f7261636c6560881b6044820152606490fd5b60405162461bcd60e51b8152602060048201526011602482015270564d3a207a65726f20726567697374727960781b6044820152606490fd5b60405162461bcd60e51b815260206004820152600d60248201526c15934e881e995c9bc819d554d1609a1b6044820152606490fd5b5f80fd5b634e487b7160e01b5f52604160045260245ffd5b51906001600160a01b03821682036103255756fe60806040526004361015610011575f80fd5b5f3560e01c8063048c661d146101d4578063050296e9146101cf57806316c38b3c146101ca5780631c5d3796146101c55780632e5f62a0146101c05780633363b7d9146101bb57806344e2a5a8146101b65780634627e7c0146101b1578063468c9bd1146101ac5780634afa3af7146101a7578063552033c4146101a25780635c975abb1461019d5780636052970c146101985780636a1460241461019357806375829def1461018e578063771b51d2146101895780637b103999146101845780637dc0d1d01461017f57806381845f631461017a5780638c87ee901461017557806393991a931461017057806398d721e01461016b578063a1e9348214610166578063abaf004214610161578063dea9b4641461015c578063e0537cee14610157578063f851a440146101525763fab9bd5e1461014d575f80fd5b611729565b611701565b611458565b6112bc565b61125a565b6110a6565b611023565b610ffb565b610fb7565b610f24565b610ee0565b610e9c565b61090d565b6108b3565b610891565b61084d565b610828565b610803565b6107d9565b61059c565b610539565b61050c565b6104cb565b6104a1565b6102a5565b61023e565b61020e565b6101e7565b5f9103126101e357565b5f80fd5b346101e3575f3660031901126101e3575f546040516001600160a01b039091168152602090f35b346101e35760203660031901126101e357602061022c60043561195e565b604051908152f35b801515036101e357565b346101e35760203660031901126101e35760043561025b81610234565b61027060018060a01b03600154163314611a64565b6002805460ff60a01b191691151560a01b60ff60a01b16919091179055005b60409060031901126101e3576004359060243590565b346101e3576102b33661028f565b6102bf60065415611aa0565b60016006556102d660ff60025460a01c1615611ad8565b806102e083611b91565b6103076102f5845f52600360205260405f2090565b335f9081526020919091526040902090565b9061031a845f52600460205260405f2090565b80548061049857506001676765c793fa10079d601b1b935b01805492610354610343868661192d565b676765c793fa10079d601b1b900490565b80911161048e575b50916103b1939161034393610372871515611b11565b6103848461037f896118df565b611940565b92808411610486575b9160029161039e856103a9956118cd565b9055019182546118cd565b81555461192d565b6103c3835f52600560205260405f2090565b557f00000000000000000000000000000000000000000000000000000000000000006001600160a01b0316803b156101e35760405163079cc67960e41b815233600482015260248101839052905f908290604490829084905af1801561048157610467575b5060405190815233907f8293a3003da468402b46b778420ac0fa8c2291bed4eeb36f56768a9d2220be769080602081015b0390a36104655f600655565b005b806104755f61047b93611803565b806101d9565b5f610428565b6118ae565b92508261038d565b94506103b161035c565b60019093610332565b346101e35760203660031901126101e3576004355f526005602052602060405f2054604051908152f35b346101e35760203660031901126101e3576004355f526004602052606060405f20805490600260018201549101549060405192835260208301526040820152f35b346101e35760203660031901126101e357610465600435611b91565b6001600160a01b038116036101e357565b346101e35760403660031901126101e35761057c60243560043561055c82610528565b5f52600360205260405f209060018060a01b03165f5260205260405f2090565b8054600190910154604080519283526020830191909152819081015b0390f35b346101e3576105aa3661028f565b6105b660065415611aa0565b60016006556105cd60ff60025460a01c1615611ad8565b6105d8811515611ee3565b6105e182611b91565b604051636dd5b69d60e01b81526004810183905260c0816024816001600160a01b037f0000000000000000000000000000000000000000000000000000000000000000165afa801561048157826106f0916106f5935f916107aa575b5061065361064e60a0830151151590565b611f21565b6106d760606106cc61034361037f8a6103a960026106b16102f56106a2610682865f52600460205260405f2090565b9c8d5480155f146107a25750676765c793fa10079d601b1b9788916118df565b945f52600360205260405f2090565b9960018b016106c1858254611b84565b905501918254611b84565b920151821115611f62565b6106e9865f52600560205260405f2090565b558461250f565b611fae565b7f00000000000000000000000000000000000000000000000000000000000000006001600160a01b0316803b156101e3576040516340c10f1960e01b815233600482015260248101839052905f908290604490829084905af180156104815761078e575b5060405190815233907f7ee657a21ac7f39b81c23a6f713ab60c53f4c04479e9a7847c08e2bc69862e80908060208101610459565b806104755f61079c93611803565b5f610759565b9788916118df565b6107cc915060c03d60c0116107d2575b6107c48183611803565b810190611839565b5f61063d565b503d6107ba565b346101e35760403660031901126101e357602061022c6024356004356107fe82610528565b612009565b346101e3575f3660031901126101e3576020604051676765c793fa10079d601b1b8152f35b346101e3575f3660031901126101e357602060ff60025460a01c166040519015158152f35b346101e3575f3660031901126101e3576040517f00000000000000000000000000000000000000000000000000000000000000006001600160a01b03168152602090f35b346101e3575f3660031901126101e3576020604051670de0b6b3a76400008152f35b346101e35760203660031901126101e3576004356108d081610528565b600154906108e8336001600160a01b03841614611a64565b6001600160a01b0316906108fd8215156121bd565b6001600160a01b03191617600155005b346101e35760403660031901126101e35760043560243561092d81610528565b61093960065415611aa0565b600160065561095060ff60025460a01c1615611ad8565b6001600160a01b0381169061099a9061096a8315156121fc565b61097384611b91565b610985845f52600360205260405f2090565b9060018060a01b03165f5260205260405f2090565b600181018054906109ac821515612239565b6109c56109c06109bc858861250f565b1590565b61227d565b604051636dd5b69d60e01b81526004810186905260c0816024816001600160a01b037f0000000000000000000000000000000000000000000000000000000000000000165afa908115610481575f91610e7d575b50610a2c865f52600460205260405f2090565b91825480155f14610e775750676765c793fa10079d601b1b945b610a53610343878761192d565b81546040516331d98b3f60e01b8152600481018b90529197909690916020816024816001600160a01b037f0000000000000000000000000000000000000000000000000000000000000000165afa938415610481575f610aee96610ae46002610b0e9b610ada8e6103439b8e889a8992610e52575b50516001600160a01b03165b916126b5565b50019586546118cd565b855555555461192d565b610b00875f52600560205260405f2090565b55516001600160a01b031690565b5f80548391908190610b30906001600160a01b03165b6001600160a01b031690565b906001600160a01b038216610cbd575b5050610b4c90856118cd565b80610c45575b5080610b9f575b505060408051928352602083019190915233917f4ecef300dc49115373f12d5ca31f017d1104f91d9fefeda602a1c42550af910991819081015b0390a46104655f600655565b60405163a9059cbb60e01b815233600482015260248101919091529190602090839060449082905f906001600160a01b03165af190811561048157610c10610b93927f4ecef300dc49115373f12d5ca31f017d1104f91d9fefeda602a1c42550af9109945f91610c16575b506122c0565b91610b59565b610c38915060203d602011610c3e575b610c308183611803565b810190611b54565b5f610c0a565b503d610c26565b7f00000000000000000000000000000000000000000000000000000000000000006001600160a01b0316803b156101e35760405163079cc67960e41b815233600482015260248101929092525f908290604490829084905af180156104815715610b5257806104755f610cb793611803565b5f610b52565b604051637d88209760e01b8152602081600481865afa908115610481575f91610e23575b5080610cee575b50610b40565b919350915080861015610e1e5750845b8086610e08575b610d0f83876118cd565b9383151580610dff575b610d26575b829350610ce8565b60405163095ea7b360e01b81526001600160a01b03909116600482015260248101849052602081806044810103815f6001600160a01b038b165af1801561048157610de2575b505f54610d81906001600160a01b0316610b24565b92833b156101e35760405163742f9e7160e01b81526004810192909252602482018a90526044820152915f908390606490829084905af191821561048157610b4c92610dce575b80610d1e565b806104755f610ddc93611803565b5f610dc8565b610dfa9060203d602011610c3e57610c308183611803565b610d6c565b50811515610d19565b9150610e188661037f848861192d565b91610d05565b610cfe565b610e45915060203d602011610e4b575b610e3d8183611803565b810190611ffa565b5f610ce1565b503d610e33565b610ad4919250610e709060203d602011610e4b57610e3d8183611803565b9190610ac8565b94610a46565b610e96915060c03d60c0116107d2576107c48183611803565b5f610a19565b346101e3575f3660031901126101e3576040517f00000000000000000000000000000000000000000000000000000000000000006001600160a01b03168152602090f35b346101e3575f3660031901126101e3576040517f00000000000000000000000000000000000000000000000000000000000000006001600160a01b03168152602090f35b346101e35760403660031901126101e357610598676765c793fa10079d601b1b610f9c600435610f7a602435610f5981610528565b825f52600360205260405f209060018060a01b03165f5260205260405f2090565b905f52600460205260405f205480155f14610fae5750600183915b015461192d565b04604051918291829190602083019252565b60019091610f95565b346101e3575f3660031901126101e3576040517f00000000000000000000000000000000000000000000000000000000000000006001600160a01b03168152602090f35b346101e3575f3660031901126101e3576002546040516001600160a01b039091168152602090f35b346101e35760203660031901126101e3577f51f43ead43c9a90d53ec229fbf48feb76b24efa7a147089ad9ed34ad384a94d3602060043561106381610528565b61107860018060a01b03600154163314611a64565b6001600160a01b031661108c8115156121bd565b5f80546001600160a01b03191682179055604051908152a1005b346101e3576110b43661028f565b6110c060065415611aa0565b60016006556110d760ff60025460a01c1615611ad8565b6110e2811515611ee3565b6110eb82611b91565b6111006102f5835f52600360205260405f2090565b6111178282546111128282101561231a565b6118cd565b81556001810154611242575b50604051636dd5b69d60e01b81526004810183905260c0816024816001600160a01b037f0000000000000000000000000000000000000000000000000000000000000000165afa801561048157610b24610b2491611190935f91611223575b50516001600160a01b031690565b60405163a9059cbb60e01b81523360048201526024810183905290602090829060449082905f905af18015610481576111d0915f91611204575b506123a8565b60405190815233907fe69cdf29a59dd324317b598bee3a9ed1fcffb99cc506db72633ed07b59dc6d04908060208101610459565b61121d915060203d602011610c3e57610c308183611803565b5f6111ca565b61123c915060c03d60c0116107d2576107c48183611803565b5f611182565b61124f611254918461250f565b612366565b5f611123565b346101e35760203660031901126101e35760043561127781610528565b61128c60018060a01b03600154163314611a64565b6001600160a01b03166112a08115156121bd565b6bffffffffffffffffffffffff60a01b60025416176002555f80f35b346101e3576112ca3661028f565b6112d660065415611aa0565b60016006556112ed60ff60025460a01c1615611ad8565b6112f8811515611ee3565b604051636dd5b69d60e01b81526004810183905260c0816024816001600160a01b037f0000000000000000000000000000000000000000000000000000000000000000165afa801561048157610b24610b249161137d935f91611439575b5061136761064e60a0830151151590565b61137086611b91565b516001600160a01b031690565b6040516323b872dd60e01b81523360048201523060248201526044810183905290602090829060649082905f905af18015610481576113c3915f9161141a575b506123f4565b6113d933610985845f52600360205260405f2090565b6113e4828254611b84565b905560405190815233907f88df26d296ecbf594c8609f433503d1436d24afe03c0d9e5e29c8f6ed92ef9b4908060208101610459565b611433915060203d602011610c3e57610c308183611803565b5f6113bd565b611452915060c03d60c0116107d2576107c48183611803565b5f611356565b346101e35760203660031901126101e35760043561147860065415611aa0565b600160065561148f60ff60025460a01c1615611ad8565b61149881611b91565b6114ad6102f5825f52600360205260405f2090565b6114bf825f52600460205260405f2090565b8054806116fb5750676765c793fa10079d601b1b905b600183018054926114e9610343828661192d565b9384611613575b50505050508054908161152d575b82337f45741dfe35116d540a34618f113e41a5092e64d6b09a503ede64ff9058a0e6055f80a36104655f600655565b5f9055604051636dd5b69d60e01b81526004810183905260c0816024816001600160a01b037f0000000000000000000000000000000000000000000000000000000000000000165afa801561048157610b24610b249161159b935f916112235750516001600160a01b031690565b60405163a9059cbb60e01b8152336004820152602481018390529190602090839060449082905f905af19182156104815783926115de915f9161120457506123a8565b60405190815233907fe69cdf29a59dd324317b598bee3a9ed1fcffb99cc506db72633ed07b59dc6d0490602090a35f806114fe565b5f6103439361162a600261163397019384546118cd565b8355555461192d565b611645845f52600560205260405f2090565b557f00000000000000000000000000000000000000000000000000000000000000006001600160a01b031690813b156101e35760405163079cc67960e41b815233600482015260248101829052915f908390604490829084905af19182156104815784926116e7575b5060405190815233907f8293a3003da468402b46b778420ac0fa8c2291bed4eeb36f56768a9d2220be7690602090a35f808080806114f0565b806104755f6116f593611803565b5f6116ae565b906114d5565b346101e3575f3660031901126101e3576001546040516001600160a01b039091168152602090f35b346101e35760203660031901126101e35760043561174f60ff60025460a01c1615611ad8565b604051636dd5b69d60e01b81526004810182905260c0816024817f00000000000000000000000000000000000000000000000000000000000000006001600160a01b03165afa80156104815760a061064e916117b4935f916117e4575b500151151590565b6117bd81611b91565b337f1b3a3b641448ea38df4f27c3b71159ff387dfd96db4bfa0678a500dff874eb615f80a3005b6117fd915060c03d60c0116107d2576107c48183611803565b5f6117ac565b90601f8019910116810190811067ffffffffffffffff82111761182557604052565b634e487b7160e01b5f52604160045260245ffd5b908160c09103126101e3576040519060c082019082821067ffffffffffffffff8311176118255760a091604052805161187181610528565b83526020810151602084015260408101516040840152606081015160608401526080810151608084015201516118a681610234565b60a082015290565b6040513d5f823e3d90fd5b634e487b7160e01b5f52601160045260245ffd5b919082039182116118da57565b6118b9565b90676765c793fa10079d601b1b820291808304676765c793fa10079d601b1b14901517156118da57565b90670de0b6b3a7640000820291808304670de0b6b3a764000014901517156118da57565b818102929181159184041417156118da57565b811561194a570490565b634e487b7160e01b5f52601260045260245ffd5b611970815f52600460205260405f2090565b80549182158015611a58575b611a2a57604051636dd5b69d60e01b8152600481019190915260c0816024816001600160a01b037f0000000000000000000000000000000000000000000000000000000000000000165afa908115610481575f91611a39575b506119e46001830154426118cd565b8015611a31576119fe610343916080611a04940151612440565b8461192d565b9082821115611a2a576002611a1f611a2794610343946118cd565b91015461192d565b90565b5050505f90565b505050505f90565b611a52915060c03d60c0116107d2576107c48183611803565b5f6119d5565b5060028201541561197c565b15611a6b57565b60405162461bcd60e51b815260206004820152600d60248201526c2b269d103737ba1030b236b4b760991b6044820152606490fd5b15611aa757565b60405162461bcd60e51b81526020600482015260096024820152681499595b9d1c985b9d60ba1b6044820152606490fd5b15611adf57565b60405162461bcd60e51b815260206004820152600a60248201526915934e881c185d5cd95960b21b6044820152606490fd5b15611b1857565b60405162461bcd60e51b8152602060048201526014602482015273564d3a206e6f7468696e6720746f20726570617960601b6044820152606490fd5b908160209103126101e35751611a2781610234565b908160609103126101e3578051916040602083015192015190565b919082018092116118da57565b611ba3815f52600460205260405f2090565b805415611ecb5760018101611bb98154426118cd565b8015611ec557604051636dd5b69d60e01b8152600481018590529060c0826024816001600160a01b037f0000000000000000000000000000000000000000000000000000000000000000165afa91821561048157611c23926080915f91611ea6575b500151612440565b91611c336103438254948561192d565b92831115611e9e57611c5e91600282611c506103439454876118cd565b92868255429055015461192d565b8015611e64577f00000000000000000000000000000000000000000000000000000000000000006001600160a01b031691823b156101e3576040516340c10f1960e01b8152306004820152602481018390525f8160448183885af1801561048157611e50575b5060405163095ea7b360e01b81526001600160a01b037f000000000000000000000000000000000000000000000000000000000000000016600482018190526024820184905290936020856044815f855af191821561048157611d6a95606093611e33575b50600254604051633e5a775160e11b8152600481018790526001600160a01b03918216602482015292166044830152909485919082905f9082906064820190565b03925af1928315610481577f3b9f4ab0566d9d10726a6f7f34cdc9e4b7f03a20a878ed293de4e6ed1b41985893611e04575b50611daf845f52600560205260405f2090565b611dba838254611b84565b905560405182815284907f156e588d1067ba3c8a6a7f4376ef70794f8afed114dc9d1421e054b65743e63090602090a260408051918252602082019290925290819081015b0390a2565b611e259060603d606011611e2c575b611e1d8183611803565b810190611b69565b5050611d9c565b503d611e13565b611e4b9060203d602011610c3e57610c308183611803565b611d29565b806104755f611e5e93611803565b5f611cc4565b50604080519182525f60208301527f3b9f4ab0566d9d10726a6f7f34cdc9e4b7f03a20a878ed293de4e6ed1b419858919081908101611dff565b504290555050565b611ebf915060c03d60c0116107d2576107c48183611803565b5f611c1b565b50505050565b676765c793fa10079d601b1b81559050600142910155565b15611eea57565b60405162461bcd60e51b815260206004820152600f60248201526e15934e881e995c9bc8185b5bdd5b9d608a1b6044820152606490fd5b15611f2857565b60405162461bcd60e51b8152602060048201526012602482015271564d3a20696c6b206e6f742061637469766560701b6044820152606490fd5b15611f6957565b60405162461bcd60e51b815260206004820152601960248201527f564d3a2064656274206365696c696e67206578636565646564000000000000006044820152606490fd5b15611fb557565b60405162461bcd60e51b815260206004820152601c60248201527f564d3a20636f6c6c61746572616c20726174696f20746f6f206c6f77000000006044820152606490fd5b908160209103126101e3575190565b9061202090610985835f52600360205260405f2090565b600181015480156121af5761034361205d91612044855f52600460205260405f2090565b54806121b75750676765c793fa10079d601b1b9061192d565b9081156121af57604051636dd5b69d60e01b8152600481018490529160c0836024816001600160a01b037f0000000000000000000000000000000000000000000000000000000000000000165afa928315610481575f93612189575b506040516331d98b3f60e01b8152600481019490945291929160208380602481015b03817f00000000000000000000000000000000000000000000000000000000000000006001600160a01b03165afa9182156104815761213a61214393602092612151965f9261216a575b505487519091906001600160a01b0316610ad4565b9401519061192d565b670de0b6b3a7640000900490565b80156121635761037f611a2792611909565b50505f1990565b612182919250843d8611610e4b57610e3d8183611803565b905f612125565b6120db93506121a860209160c03d60c0116107d2576107c48183611803565b93506120b9565b5050505f1990565b9061192d565b156121c457565b60405162461bcd60e51b815260206004820152601060248201526f564d3a207a65726f206164647265737360801b6044820152606490fd5b1561220357565b60405162461bcd60e51b815260206004820152600e60248201526d2b269d103d32b9379037bbb732b960911b6044820152606490fd5b1561224057565b60405162461bcd60e51b815260206004820152601560248201527415934e881d985d5b1d081a185cc81b9bc81919589d605a1b6044820152606490fd5b1561228457565b60405162461bcd60e51b8152602060048201526014602482015273564d3a207661756c74206973206865616c74687960601b6044820152606490fd5b156122c757565b60405162461bcd60e51b815260206004820152602560248201527f564d3a206c697175696461746f7220636f6c6c61746572616c2073656e642066604482015264185a5b195960da1b6064820152608490fd5b1561232157565b60405162461bcd60e51b815260206004820152601b60248201527f564d3a20696e73756666696369656e7420636f6c6c61746572616c00000000006044820152606490fd5b1561236d57565b60405162461bcd60e51b8152602060048201526013602482015272564d3a207661756c7420756e6865616c74687960681b6044820152606490fd5b156123af57565b60405162461bcd60e51b815260206004820152601a60248201527f564d3a20636f6c6c61746572616c2073656e64206661696c65640000000000006044820152606490fd5b156123fb57565b60405162461bcd60e51b815260206004820152601e60248201527f564d3a20636f6c6c61746572616c207472616e73666572206661696c656400006044820152606490fd5b90919080156124f55760018316156124e35780925b60011c90815b612463575050565b80800290808204036101e3576b019d971e4fe8401e7400000081019081106101e357676765c793fa10079d601b1b900490600181166124a7575b60011c908161245b565b92818102908282041415821515166101e3576b019d971e4fe8401e7400000081019081106101e357676765c793fa10079d601b1b90049261249d565b676765c793fa10079d601b1b92612455565b509015612500575f90565b676765c793fa10079d601b1b90565b906001810154801561265f5761034361253491612044855f52600460205260405f2090565b90811561265f57604051636dd5b69d60e01b8152600481018490529160c0836024816001600160a01b037f0000000000000000000000000000000000000000000000000000000000000000165afa928315610481575f93612639575b506040516331d98b3f60e01b8152600481019490945291929160208380602481015b03817f00000000000000000000000000000000000000000000000000000000000000006001600160a01b03165afa9182156104815761213a61214393602092612610965f9261216a57505487519091906001600160a01b0316610ad4565b90811561263257670de0b6b3a76400009161037f61262d92611909565b101590565b5050600190565b6125b2935061265860209160c03d60c0116107d2576107c48183611803565b9350612590565b505050600190565b908160209103126101e3575160ff811681036101e35790565b60ff6011199116019060ff82116118da57565b60ff166012039060ff82116118da57565b60ff16604d81116118da57600a0a90565b60405163313ce56760e01b8152611a2793612143939291601291602090829060049082906001600160a01b03165afa5f9181612747575b5061273f575b5060ff8116601281101561271b5750906121b761271161271693612693565b6126a4565b61192d565b60121015612739579061273361271161271693612680565b90611940565b5061192d565b90505f6126f2565b61276a91925060203d602011612771575b6127628183611803565b810190612667565b905f6126ec565b503d61275856fea2646970667358221220bbbac14961178bc7af08272dc467071431d5cdadd2eb3b79c412e38ebb5dd5da64736f6c63430008210033","linkReferences":{}},"methodIdentifiers":{"RAY()":"552033c4","WAD()":"6a146024","accumulators(bytes32)":"3363b7d9","admin()":"f851a440","closeVault(bytes32)":"e0537cee","dAppRecipient()":"93991a93","depositCollateral(bytes32,uint256)":"dea9b464","drip(bytes32)":"44e2a5a8","feeSplitter()":"6052970c","gusd()":"8c87ee90","healthFactor(bytes32,address)":"4afa3af7","ilkDebt(bytes32)":"2e5f62a0","liquidate(bytes32,address)":"771b51d2","mintGUSD(bytes32,uint256)":"468c9bd1","openVault(bytes32)":"fab9bd5e","oracle()":"7dc0d1d0","paused()":"5c975abb","pendingFee(bytes32)":"050296e9","registry()":"7b103999","repayGUSD(bytes32,uint256)":"1c5d3796","setDAppRecipient(address)":"abaf0042","setPaused(bool)":"16c38b3c","setStabilityPool(address)":"98d721e0","stabilityPool()":"048c661d","transferAdmin(address)":"75829def","vaultDebt(bytes32,address)":"81845f63","vaults(bytes32,address)":"4627e7c0","withdrawCollateral(bytes32,uint256)":"a1e93482"},"id":31}