{"abi":[{"type":"constructor","inputs":[{"name":"_gusd","type":"address","internalType":"address"},{"name":"_registry","type":"address","internalType":"address"},{"name":"_oracle","type":"address","internalType":"address"},{"name":"_feeSplitter","type":"address","internalType":"address"},{"name":"_dAppRecipient","type":"address","internalType":"address"},{"name":"_admin","type":"address","internalType":"address"}],"stateMutability":"nonpayable"},{"type":"function","name":"RAY","inputs":[],"outputs":[{"name":"","type":"uint256","internalType":"uint256"}],"stateMutability":"view"},{"type":"function","name":"WAD","inputs":[],"outputs":[{"name":"","type":"uint256","internalType":"uint256"}],"stateMutability":"view"},{"type":"function","name":"accumulators","inputs":[{"name":"","type":"bytes32","internalType":"bytes32"}],"outputs":[{"name":"chi","type":"uint256","internalType":"uint256"},{"name":"lastDrip","type":"uint256","internalType":"uint256"},{"name":"totalNormalizedDebt","type":"uint256","internalType":"uint256"}],"stateMutability":"view"},{"type":"function","name":"admin","inputs":[],"outputs":[{"name":"","type":"address","internalType":"address"}],"stateMutability":"view"},{"type":"function","name":"closeVault","inputs":[{"name":"ilk","type":"bytes32","internalType":"bytes32"}],"outputs":[],"stateMutability":"nonpayable"},{"type":"function","name":"dAppRecipient","inputs":[],"outputs":[{"name":"","type":"address","internalType":"address"}],"stateMutability":"view"},{"type":"function","name":"depositCollateral","inputs":[{"name":"ilk","type":"bytes32","internalType":"bytes32"},{"name":"amount","type":"uint256","internalType":"uint256"}],"outputs":[],"stateMutability":"nonpayable"},{"type":"function","name":"drip","inputs":[{"name":"ilk","type":"bytes32","internalType":"bytes32"}],"outputs":[],"stateMutability":"nonpayable"},{"type":"function","name":"feeSplitter","inputs":[],"outputs":[{"name":"","type":"address","internalType":"contract IUBIFeeSplitter"}],"stateMutability":"view"},{"type":"function","name":"gusd","inputs":[],"outputs":[{"name":"","type":"address","internalType":"contract IgUSD"}],"stateMutability":"view"},{"type":"function","name":"healthFactor","inputs":[{"name":"ilk","type":"bytes32","internalType":"bytes32"},{"name":"owner","type":"address","internalType":"address"}],"outputs":[{"name":"","type":"uint256","internalType":"uint256"}],"stateMutability":"view"},{"type":"function","name":"ilkDebt","inputs":[{"name":"","type":"bytes32","internalType":"bytes32"}],"outputs":[{"name":"","type":"uint256","internalType":"uint256"}],"stateMutability":"view"},{"type":"function","name":"liquidate","inputs":[{"name":"ilk","type":"bytes32","internalType":"bytes32"},{"name":"owner","type":"address","internalType":"address"}],"outputs":[],"stateMutability":"nonpayable"},{"type":"function","name":"mintGUSD","inputs":[{"name":"ilk","type":"bytes32","internalType":"bytes32"},{"name":"amount","type":"uint256","internalType":"uint256"}],"outputs":[],"stateMutability":"nonpayable"},{"type":"function","name":"openVault","inputs":[{"name":"ilk","type":"bytes32","internalType":"bytes32"}],"outputs":[],"stateMutability":"nonpayable"},{"type":"function","name":"oracle","inputs":[],"outputs":[{"name":"","type":"address","internalType":"contract IPriceOracle"}],"stateMutability":"view"},{"type":"function","name":"paused","inputs":[],"outputs":[{"name":"","type":"bool","internalType":"bool"}],"stateMutability":"view"},{"type":"function","name":"pendingFee","inputs":[{"name":"ilk","type":"bytes32","internalType":"bytes32"}],"outputs":[{"name":"","type":"uint256","internalType":"uint256"}],"stateMutability":"view"},{"type":"function","name":"registry","inputs":[],"outputs":[{"name":"","type":"address","internalType":"contract ICollateralRegistry"}],"stateMutability":"view"},{"type":"function","name":"repayGUSD","inputs":[{"name":"ilk","type":"bytes32","internalType":"bytes32"},{"name":"amount","type":"uint256","internalType":"uint256"}],"outputs":[],"stateMutability":"nonpayable"},{"type":"function","name":"setDAppRecipient","inputs":[{"name":"_recipient","type":"address","internalType":"address"}],"outputs":[],"stateMutability":"nonpayable"},{"type":"function","name":"setPaused","inputs":[{"name":"_paused","type":"bool","internalType":"bool"}],"outputs":[],"stateMutability":"nonpayable"},{"type":"function","name":"setStabilityPool","inputs":[{"name":"_pool","type":"address","internalType":"address"}],"outputs":[],"stateMutability":"nonpayable"},{"type":"function","name":"stabilityPool","inputs":[],"outputs":[{"name":"","type":"address","internalType":"contract IStabilityPool"}],"stateMutability":"view"},{"type":"function","name":"transferAdmin","inputs":[{"name":"newAdmin","type":"address","internalType":"address"}],"outputs":[],"stateMutability":"nonpayable"},{"type":"function","name":"vaultDebt","inputs":[{"name":"ilk","type":"bytes32","internalType":"bytes32"},{"name":"owner","type":"address","internalType":"address"}],"outputs":[{"name":"","type":"uint256","internalType":"uint256"}],"stateMutability":"view"},{"type":"function","name":"vaults","inputs":[{"name":"","type":"bytes32","internalType":"bytes32"},{"name":"","type":"address","internalType":"address"}],"outputs":[{"name":"collateral","type":"uint256","internalType":"uint256"},{"name":"normalizedDebt","type":"uint256","internalType":"uint256"}],"stateMutability":"view"},{"type":"function","name":"withdrawCollateral","inputs":[{"name":"ilk","type":"bytes32","internalType":"bytes32"},{"name":"amount","type":"uint256","internalType":"uint256"}],"outputs":[],"stateMutability":"nonpayable"},{"type":"event","name":"CollateralDeposited","inputs":[{"name":"owner","type":"address","indexed":true,"internalType":"address"},{"name":"ilk","type":"bytes32","indexed":true,"internalType":"bytes32"},{"name":"amount","type":"uint256","indexed":false,"internalType":"uint256"}],"anonymous":false},{"type":"event","name":"CollateralWithdrawn","inputs":[{"name":"owner","type":"address","indexed":true,"internalType":"address"},{"name":"ilk","type":"bytes32","indexed":true,"internalType":"bytes32"},{"name":"amount","type":"uint256","indexed":false,"internalType":"uint256"}],"anonymous":false},{"type":"event","name":"Drip","inputs":[{"name":"ilk","type":"bytes32","indexed":true,"internalType":"bytes32"},{"name":"newChi","type":"uint256","indexed":false,"internalType":"uint256"},{"name":"feeAccrued","type":"uint256","indexed":false,"internalType":"uint256"}],"anonymous":false},{"type":"event","name":"FeeCollected","inputs":[{"name":"ilk","type":"bytes32","indexed":true,"internalType":"bytes32"},{"name":"feeGUSD","type":"uint256","indexed":false,"internalType":"uint256"}],"anonymous":false},{"type":"event","name":"GUSDMinted","inputs":[{"name":"owner","type":"address","indexed":true,"internalType":"address"},{"name":"ilk","type":"bytes32","indexed":true,"internalType":"bytes32"},{"name":"amount","type":"uint256","indexed":false,"internalType":"uint256"}],"anonymous":false},{"type":"event","name":"GUSDRepaid","inputs":[{"name":"owner","type":"address","indexed":true,"internalType":"address"},{"name":"ilk","type":"bytes32","indexed":true,"internalType":"bytes32"},{"name":"amount","type":"uint256","indexed":false,"internalType":"uint256"}],"anonymous":false},{"type":"event","name":"StabilityPoolSet","inputs":[{"name":"pool","type":"address","indexed":false,"internalType":"address"}],"anonymous":false},{"type":"event","name":"VaultClosed","inputs":[{"name":"owner","type":"address","indexed":true,"internalType":"address"},{"name":"ilk","type":"bytes32","indexed":true,"internalType":"bytes32"}],"anonymous":false},{"type":"event","name":"VaultLiquidated","inputs":[{"name":"liquidator","type":"address","indexed":true,"internalType":"address"},{"name":"owner","type":"address","indexed":true,"internalType":"address"},{"name":"ilk","type":"bytes32","indexed":true,"internalType":"bytes32"},{"name":"debtRepaid","type":"uint256","indexed":false,"internalType":"uint256"},{"name":"collSeized","type":"uint256","indexed":false,"internalType":"uint256"}],"anonymous":false},{"type":"event","name":"VaultOpened","inputs":[{"name":"owner","type":"address","indexed":true,"internalType":"address"},{"name":"ilk","type":"bytes32","indexed":true,"internalType":"bytes32"}],"anonymous":false}],"bytecode":{"object":"0x6101003461032357601f612b2838819003918201601f19168301916001600160401b038311848410176103275780849260c094604052833981010312610323576100488161033b565b6100546020830161033b565b916100616040820161033b565b61006d6060830161033b565b9061008660a061007f6080860161033b565b940161033b565b60016006556001600160a01b039094169485156102ee576001600160a01b03169081156102b5576001600160a01b031691821561027e576001600160a01b0316928315610245576001600160a01b0316938415610200576001600160a01b03169485156101ca5760805260a05260c05260e05260018060a01b0319600254161760025560018060a01b031960015416176001556040516127d8908161035082396080518181816104d501528181610b0701528181610ee10152818161130b0152818161168e0152611c2d015260a0518181816101940152818161037301528181610605015281816108a201528181610c1101528181610cea015281816111ed015281816119b201528181611b8e01528181611f92015261237e015260c051818181610bcc01528181611fe801526123d4015260e0518181816110dd0152611ca20152f35b60405162461bcd60e51b815260206004820152600e60248201526d2b269d103d32b9379030b236b4b760911b6044820152606490fd5b60405162461bcd60e51b815260206004820152601760248201527f564d3a207a65726f206441707020726563697069656e740000000000000000006044820152606490fd5b60405162461bcd60e51b81526020600482015260116024820152702b269d103d32b9379039b83634ba3a32b960791b6044820152606490fd5b60405162461bcd60e51b815260206004820152600f60248201526e564d3a207a65726f206f7261636c6560881b6044820152606490fd5b60405162461bcd60e51b8152602060048201526011602482015270564d3a207a65726f20726567697374727960781b6044820152606490fd5b60405162461bcd60e51b815260206004820152600d60248201526c15934e881e995c9bc819d554d1609a1b6044820152606490fd5b5f80fd5b634e487b7160e01b5f52604160045260245ffd5b51906001600160a01b03821682036103235756fe6080806040526004361015610012575f80fd5b5f905f3560e01c908163048c661d1461181a57508063050296e9146117fc57806316c38b3c146117aa5780631c5d3796146115665780632e5f62a01461153c5780633363b7d9146114fa57806344e2a5a8146114da5780634627e7c01461148c578063468c9bd1146111875780634afa3af714611158578063552033c4146111325780635c975abb1461110c5780636052970c146110c75780636a146024146110a457806375829def1461104c578063771b51d214610c405780637b10399914610bfb5780637dc0d1d014610bb657806381845f6314610b365780638c87ee9014610af157806393991a9314610ac857806398d721e014610a48578063a1e9348214610806578063abaf0042146107a8578063dea9b464146105a8578063e0537cee14610274578063f851a4401461024b5763fab9bd5e14610152575f80fd5b346102485760203660031901126102485760043561017860ff60025460a01c1615611b01565b604051636dd5b69d60e01b81526004810182905260c0816024817f00000000000000000000000000000000000000000000000000000000000000006001600160a01b03165afa90811561023d576101dd9160a091859161020e575b5001511515611ed4565b6101e681611b47565b337f1b3a3b641448ea38df4f27c3b71159ff387dfd96db4bfa0678a500dff874eb618380a380f35b610230915060c03d60c011610236575b610228818361187e565b8101906118c1565b5f6101d3565b503d61021e565b6040513d85823e3d90fd5b80fd5b50346102485780600319360112610248576001546040516001600160a01b039091168152602090f35b503461024857602036600319011261024857600435610297600160065414611ac9565b60026006556102ae60ff60025460a01c1615611b01565b6102b781611b47565b808252600360209081526040808420335f908152908352819020838552600490925283208054806105a25750676765c793fa10079d601b1b905b6001830190815492676765c793fa10079d601b1b61030f8286611948565b0493878561049a575b94505050505081549182610356575b5082337f45741dfe35116d540a34618f113e41a5092e64d6b09a503ede64ff9058a0e6058380a3600160065580f35b55604051636dd5b69d60e01b81526004810183905260c0816024817f00000000000000000000000000000000000000000000000000000000000000006001600160a01b03165afa90811561047057849161047b575b505160405163a9059cbb60e01b81523360048201526024810183905291906020908390604490829088906001600160a01b03165af18015610470578392859161042d575b506103f990612130565b6040519081527fe69cdf29a59dd324317b598bee3a9ed1fcffb99cc506db72633ed07b59dc6d0460203392a35f8281610327565b9250506020823d602011610468575b816104496020938361187e565b81010312610464576103f961045e84936118b4565b906103ef565b8380fd5b3d915061043c565b6040513d86823e3d90fd5b610494915060c03d60c01161023657610228818361187e565b5f6103ab565b676765c793fa10079d601b1b946104b960026104c2960193845461193b565b83555554611948565b84865260056020526040862091900490557f00000000000000000000000000000000000000000000000000000000000000006001600160a01b031690813b1561059e5760405163079cc67960e41b81523360048201526024810182905291859081908490604490829084905af1928315610591578593610576575b50506040519081527f8293a3003da468402b46b778420ac0fa8c2291bed4eeb36f56768a9d2220be7660203392a35f8080808087610318565b81929350906105849161187e565b610464578290845f61053d565b50604051903d90823e3d90fd5b8480fd5b906102f1565b5034610248576105b73661183c565b6105c5600160065414611ac9565b60026006556105dc60ff60025460a01c1615611b01565b6105e7811515611e96565b604051636dd5b69d60e01b815260048101839052839060c0816024817f00000000000000000000000000000000000000000000000000000000000000006001600160a01b03165afa801561079d57602091839161077e575b5061064f60a08201511515611ed4565b61065885611b47565b516040516323b872dd60e01b81523360048201523060248201526044810185905292839160649183916001600160a01b03165af1908115610470578491610744575b50156106ff5781835260036020526040832060018060a01b0333165f5260205260405f206106c9828254611b3a565b90556040519081527f88df26d296ecbf594c8609f433503d1436d24afe03c0d9e5e29c8f6ed92ef9b460203392a3600160065580f35b60405162461bcd60e51b815260206004820152601e60248201527f564d3a20636f6c6c61746572616c207472616e73666572206661696c656400006044820152606490fd5b90506020813d602011610776575b8161075f6020938361187e565b8101031261046457610770906118b4565b5f61069a565b3d9150610752565b610797915060c03d60c01161023657610228818361187e565b5f61063f565b6040513d84823e3d90fd5b5034610248576020366003190112610248576107c2611868565b6107d760018060a01b03600154163314611a8d565b6001600160a01b03166107eb8115156120f1565b6bffffffffffffffffffffffff60a01b600254161760025580f35b5034610248576108153661183c565b610823600160065414611ac9565b600260065561083a60ff60025460a01c1615611b01565b610845811515611e96565b61084e82611b47565b818352600360209081526040808520335f908152925290208054828110610a0357826108799161193b565b815560018101546109b3575b50604051636dd5b69d60e01b81526004810183905260c0816024817f00000000000000000000000000000000000000000000000000000000000000006001600160a01b03165afa908115610470578491610994575b505160405163a9059cbb60e01b815233600482015260248101839052906020908290604490829088906001600160a01b03165af18015610470578490610959575b6109259150612130565b6040519081527fe69cdf29a59dd324317b598bee3a9ed1fcffb99cc506db72633ed07b59dc6d0460203392a3600160065580f35b506020813d60201161098c575b816109736020938361187e565b8101031261046457610987610925916118b4565b61091b565b3d9150610966565b6109ad915060c03d60c01161023657610228818361187e565b5f6108da565b6109bd9083612321565b156109c8575f610885565b60405162461bcd60e51b8152602060048201526013602482015272564d3a207661756c7420756e6865616c74687960681b6044820152606490fd5b60405162461bcd60e51b815260206004820152601b60248201527f564d3a20696e73756666696369656e7420636f6c6c61746572616c00000000006044820152606490fd5b5034610248576020366003190112610248577f51f43ead43c9a90d53ec229fbf48feb76b24efa7a147089ad9ed34ad384a94d36020610a85611868565b610a9a60018060a01b03600154163314611a8d565b6001600160a01b0316610aae8115156120f1565b83546001600160a01b03191681178455604051908152a180f35b50346102485780600319360112610248576002546040516001600160a01b039091168152602090f35b50346102485780600319360112610248576040517f00000000000000000000000000000000000000000000000000000000000000006001600160a01b03168152602090f35b503461024857604036600319011261024857676765c793fa10079d601b1b610ba460209260043590610b66611852565b8282526003865260408083206001600160a01b039092165f908152918752908190209282526004865290205480610bad5750600183915b0154611948565b04604051908152f35b60019091610b9d565b50346102485780600319360112610248576040517f00000000000000000000000000000000000000000000000000000000000000006001600160a01b03168152602090f35b50346102485780600319360112610248576040517f00000000000000000000000000000000000000000000000000000000000000006001600160a01b03168152602090f35b503461024857604036600319011261024857600435610c5d611852565b610c6b600160065414611ac9565b6002600655610c8260ff60025460a01c1615611b01565b6001600160a01b0316801561101657610c9a82611b47565b818352600360205260408320815f5260205260405f2060018101908154908115610fd957610cc88186612321565b610f9d57604051636dd5b69d60e01b815260048101869052869160c0826024817f00000000000000000000000000000000000000000000000000000000000000006001600160a01b03165afa91821561023d578392610f6b575b50610d78676765c793fa10079d601b1b918885526004602052604085209585875480155f14610f65575084925b8186610d5b8686611948565b049a610d6e600284549c0195865461193b565b8555555554611948565b8784526005602052604084209190049055516001600160a01b0316610dae610db5610da5838987896125de565b8693919361193b565b918661193b565b80610edf575b5080610dfe575b50505060405191825260208201527f4ecef300dc49115373f12d5ca31f017d1104f91d9fefeda602a1c42550af910960403392a4600160065580f35b60405163a9059cbb60e01b815233600482015260248101919091529160209183916044918391905af1908115610ed4578691610e96575b5015610e4357845f80610dc2565b60405162461bcd60e51b815260206004820152602560248201527f564d3a206c697175696461746f7220636f6c6c61746572616c2073656e642066604482015264185a5b195960da1b6064820152608490fd5b90506020813d602011610ecc575b81610eb16020938361187e565b81010312610ec857610ec2906118b4565b5f610e35565b8580fd5b3d9150610ea4565b6040513d88823e3d90fd5b7f00000000000000000000000000000000000000000000000000000000000000006001600160a01b0316803b1561059e5760405163079cc67960e41b8152336004820152602481019290925284908290604490829084905af1908115610470578491610f4c575b50610dbb565b81610f569161187e565b610f6157825f610f46565b8280fd5b92610d4f565b676765c793fa10079d601b1b919250610f95610d789160c03d60c01161023657610228818361187e565b929150610d22565b60405162461bcd60e51b8152602060048201526014602482015273564d3a207661756c74206973206865616c74687960601b6044820152606490fd5b60405162461bcd60e51b815260206004820152601560248201527415934e881d985d5b1d081a185cc81b9bc81919589d605a1b6044820152606490fd5b60405162461bcd60e51b815260206004820152600e60248201526d2b269d103d32b9379037bbb732b960911b6044820152606490fd5b503461024857602036600319011261024857611066611868565b6001549061107e336001600160a01b03841614611a8d565b6001600160a01b0316906110938215156120f1565b6001600160a01b0319161760015580f35b50346102485780600319360112610248576020604051670de0b6b3a76400008152f35b50346102485780600319360112610248576040517f00000000000000000000000000000000000000000000000000000000000000006001600160a01b03168152602090f35b5034610248578060031936011261024857602060ff60025460a01c166040519015158152f35b50346102485780600319360112610248576020604051676765c793fa10079d601b1b8152f35b503461024857604036600319011261024857602061117f611177611852565b600435611f15565b604051908152f35b5034610248576111963661183c565b6111a4600160065414611ac9565b60026006556111bb60ff60025460a01c1615611b01565b80156111c78115611e96565b6111d083611b47565b604051636dd5b69d60e01b8152600481018490529060c0826024817f00000000000000000000000000000000000000000000000000000000000000006001600160a01b03165afa918215611481578592611460575b5061123560a08301511515611ed4565b83855260046020526040852090815480155f1461145a5750676765c793fa10079d601b1b905b676765c793fa10079d601b1b850290858204676765c793fa10079d601b1b141715611446576112e28261129c606094676765c793fa10079d601b1b9461195b565b888a52600360205260408a2060018060a01b0333165f526020526112da600260405f2097600189016112cf858254611b3a565b905501918254611b3a565b809155611948565b04920151821161140157611303918486526005602052604086205583612321565b156113bc57827f00000000000000000000000000000000000000000000000000000000000000006001600160a01b0316803b156113b8576040516340c10f1960e01b8152336004820152602481018490529082908290604490829084905af1801561079d576113a3575b50506040519081527f7ee657a21ac7f39b81c23a6f713ab60c53f4c04479e9a7847c08e2bc69862e8060203392a3600160065580f35b816113ad9161187e565b610f6157825f61136d565b5080fd5b60405162461bcd60e51b815260206004820152601c60248201527f564d3a20636f6c6c61746572616c20726174696f20746f6f206c6f77000000006044820152606490fd5b60405162461bcd60e51b815260206004820152601960248201527f564d3a2064656274206365696c696e67206578636565646564000000000000006044820152606490fd5b634e487b7160e01b87526011600452602487fd5b9061125b565b61147a91925060c03d60c01161023657610228818361187e565b905f611225565b6040513d87823e3d90fd5b50346102485760403660031901126102485760406114a8611852565b9160043581526003602052209060018060a01b03165f526020526040805f206001815491015482519182526020820152f35b5034610248576020366003190112610248576114f7600435611b47565b80f35b50346102485760203660031901126102485760406060916004358152600460205220805490600260018201549101549060405192835260208301526040820152f35b50346102485760203660031901126102485760406020916004358152600583522054604051908152f35b503461173d576115753661183c565b611583600160065414611ac9565b600260065561159a60ff60025460a01c1615611b01565b806115a483611b47565b825f52600360205260405f2060018060a01b0333165f5260205260405f20835f52600460205260405f2090815480155f146117a157506001676765c793fa10079d601b1b915b0192835490676765c793fa10079d601b1b6116058484611948565b04809111611799575b50841561175d57676765c793fa10079d601b1b850292858404676765c793fa10079d601b1b0361174957676765c793fa10079d601b1b94611652846116779661195b565b92808411611741575b9160029161166c856112da9561193b565b90550191825461193b565b04825f52600560205260405f205560018060a01b037f000000000000000000000000000000000000000000000000000000000000000016803b1561173d5760405163079cc67960e41b815233600482015260248101839052905f908290604490829084905af180156117325761171d575b506040519081527f8293a3003da468402b46b778420ac0fa8c2291bed4eeb36f56768a9d2220be7660203392a3600160065580f35b61172a9193505f9061187e565b5f915f6116e8565b6040513d5f823e3d90fd5b5f80fd5b92508261165b565b634e487b7160e01b5f52601160045260245ffd5b60405162461bcd60e51b8152602060048201526014602482015273564d3a206e6f7468696e6720746f20726570617960601b6044820152606490fd5b94505f61160e565b600190916115ea565b3461173d57602036600319011261173d5760043580151580910361173d576117dd60018060a01b03600154163314611a8d565b6002805460ff60a01b191660a09290921b60ff60a01b16919091179055005b3461173d57602036600319011261173d57602061117f600435611979565b3461173d575f36600319011261173d575f546001600160a01b03168152602090f35b604090600319011261173d576004359060243590565b602435906001600160a01b038216820361173d57565b600435906001600160a01b038216820361173d57565b90601f8019910116810190811067ffffffffffffffff8211176118a057604052565b634e487b7160e01b5f52604160045260245ffd5b5190811515820361173d57565b908160c091031261173d576040519060c0820182811067ffffffffffffffff8211176118a05760405280516001600160a01b038116810361173d576119339160a091845260208101516020850152604081015160408501526060810151606085015260808101516080850152016118b4565b60a082015290565b9190820391821161174957565b8181029291811591840414171561174957565b8115611965570490565b634e487b7160e01b5f52601260045260245ffd5b805f52600460205260405f2080549182158015611a81575b611a5357604051636dd5b69d60e01b8152600481019190915260c0816024817f00000000000000000000000000000000000000000000000000000000000000006001600160a01b03165afa908115611732575f91611a62575b506119f960018301544261193b565b8015611a5a57611a1c611a22916080676765c793fa10079d601b1b9401516121b8565b84611948565b049082821115611a53576002611a47676765c793fa10079d601b1b94611a4f9461193b565b910154611948565b0490565b5050505f90565b505050505f90565b611a7b915060c03d60c01161023657610228818361187e565b5f6119ea565b50600282015415611991565b15611a9457565b60405162461bcd60e51b815260206004820152600d60248201526c2b269d103737ba1030b236b4b760991b6044820152606490fd5b15611ad057565b60405162461bcd60e51b81526020600482015260096024820152681499595b9d1c985b9d60ba1b6044820152606490fd5b15611b0857565b60405162461bcd60e51b815260206004820152600a60248201526915934e881c185d5cd95960b21b6044820152606490fd5b9190820180921161174957565b5f815f52600460205260405f2090815415611e7d5760018201611b6b81544261193b565b8015611e7657604051636dd5b69d60e01b8152600481018690529060c0826024817f00000000000000000000000000000000000000000000000000000000000000006001600160a01b03165afa91821561173257611bd5926080915f91611e57575b5001516121b8565b92676765c793fa10079d601b1b611bee82549586611948565b049380851115611e4d57916002611c2392611c15676765c793fa10079d601b1b958861193b565b928782554290550154611948565b04908115611e19577f00000000000000000000000000000000000000000000000000000000000000006001600160a01b0316803b1561173d576040516340c10f1960e01b8152306004820152602481018490525f8160448183865af1801561173257611e04575b5060405163095ea7b360e01b81526001600160a01b037f0000000000000000000000000000000000000000000000000000000000000000166004820181905260248201859052919060208160448187865af1801561047057611dc8575b50606090606460018060a01b0360025416856040519586948593633e5a775160e11b85528a6004860152602485015260448401525af1801561079d57611d9d575b50916040918284867f3b9f4ab0566d9d10726a6f7f34cdc9e4b7f03a20a878ed293de4e6ed1b4198589652600560205220611d64828254611b3a565b9055847f156e588d1067ba3c8a6a7f4376ef70794f8afed114dc9d1421e054b65743e63060208551848152a282519182526020820152a2565b606090813d8311611dc1575b611db3818361187e565b81010312610248575f611d28565b503d611da9565b6020813d602011611dfc575b81611de16020938361187e565b810103126104645790611df56060926118b4565b5090611ce7565b3d9150611dd4565b611e119192505f9061187e565b5f905f611c8a565b505060407f3b9f4ab0566d9d10726a6f7f34cdc9e4b7f03a20a878ed293de4e6ed1b4198589181519081525f6020820152a2565b5050429055505050565b611e70915060c03d60c01161023657610228818361187e565b5f611bcd565b5050505050565b509050676765c793fa10079d601b1b8155600142910155565b15611e9d57565b60405162461bcd60e51b815260206004820152600f60248201526e15934e881e995c9bc8185b5bdd5b9d608a1b6044820152606490fd5b15611edb57565b60405162461bcd60e51b8152602060048201526012602482015271564d3a20696c6b206e6f742061637469766560701b6044820152606490fd5b90815f52600360205260405f209060018060a01b03165f5260205260405f2090600182015480156120e357611f6d676765c793fa10079d601b1b91835f52600460205260405f205480155f146120eb57508290611948565b049081156120e357604051636dd5b69d60e01b8152600481018290529260c0846024817f00000000000000000000000000000000000000000000000000000000000000006001600160a01b03165afa938415611732575f946120c2575b506040516331d98b3f60e01b815260048101929092526020826024817f00000000000000000000000000000000000000000000000000000000000000006001600160a01b03165afa918215611732575f9261208b575b5091602061204761205093670de0b6b3a764000095549060018060a01b03885116916124ec565b94015190611948565b04801561208457670de0b6b3a7640000820291808304670de0b6b3a76400001490151715611749576120819161195b565b90565b50505f1990565b9150916020823d6020116120ba575b816120a76020938361187e565b8101031261173d57905190916020612020565b3d915061209a565b6120dc91945060c03d60c01161023657610228818361187e565b925f611fca565b5050505f1990565b90611948565b156120f857565b60405162461bcd60e51b815260206004820152601060248201526f564d3a207a65726f206164647265737360801b6044820152606490fd5b1561213757565b60405162461bcd60e51b815260206004820152601a60248201527f564d3a20636f6c6c61746572616c2073656e64206661696c65640000000000006044820152606490fd5b1561218357565b60405162461bcd60e51b815260206004820152600d60248201526c72706f772f6f766572666c6f7760981b6044820152606490fd5b9190915f9080156123045760018416156122f357805b9360011c90815b6121de57505050565b6121fc6121eb8280611948565b9180159081156122e0575b5061217c565b6b019d971e4fe8401e740000008101908181116122cc5761221f9082101561217c565b826122b857676765c793fa10079d601b1b9004908160018216612248575b5060011c90816121d5565b8593506122598161226b9397611948565b9381159182156122a4575b505061217c565b6b019d971e4fe8401e740000008201918281116117495761228e9083101561217c565b676765c793fa10079d601b1b5f9204935f61223d565b6122b09192508561195b565b145f80612264565b634e487b7160e01b83526012600452602483fd5b634e487b7160e01b84526011600452602484fd5b90506122ec818461195b565b145f6121f6565b676765c793fa10079d601b1b6121ce565b505090155f1461231d57676765c793fa10079d601b1b90565b5f90565b600182015480156124d357612359676765c793fa10079d601b1b91835f52600460205260405f205480155f146120eb57508290611948565b049081156124d357604051636dd5b69d60e01b8152600481018290529260c0846024817f00000000000000000000000000000000000000000000000000000000000000006001600160a01b03165afa938415611732575f946124b2575b506040516331d98b3f60e01b815260048101929092526020826024817f00000000000000000000000000000000000000000000000000000000000000006001600160a01b03165afa918215611732575f9261247b575b5091602061204761243393670de0b6b3a764000095549060018060a01b03885116916124ec565b0490811561247457670de0b6b3a7640000810290808204670de0b6b3a7640000149015171561174957670de0b6b3a76400009161246f9161195b565b101590565b5050600190565b9150916020823d6020116124aa575b816124976020938361187e565b8101031261173d5790519091602061240c565b3d915061248a565b6124cc91945060c03d60c01161023657610228818361187e565b925f6123b6565b505050600190565b60ff16604d811161174957600a0a90565b60405163313ce56760e01b81529192909190602090829060049082906001600160a01b03165afa8015611732575f906125a1575b60ff1690506012811015612558576012039160ff831161174957612553611a4f926120eb670de0b6b3a7640000956124db565b611948565b601281111561258d57601119019160ff831161174957612553611a4f92612587670de0b6b3a7640000956124db565b9061195b565b50670de0b6b3a764000091611a4f91611948565b506020813d6020116125d6575b816125bb6020938361187e565b8101031261173d575160ff8116810361173d5760ff90612520565b3d91506125ae565b5f8054929590949093926001600160a01b0316801561279657604051637d88209760e01b8152602081600481855afa908115611732575f91612764575b50801561275757808410156127515750825b839781612734575b5050858015158061272b575b61264c575050505050565b60405163095ea7b360e01b81526001600160a01b0390921660048301526024820152906020908290815f816044810103926001600160a01b03165af18015611732576126f4575b505f546001600160a01b031691823b1561173d5760645f9283604051958694859363742f9e7160e01b8552600485015260248401528860448401525af18015611732576126e4575b80808085611e76565b5f6126ee9161187e565b5f6126db565b6020813d602011612723575b8161270d6020938361187e565b8101031261173d5761271e906118b4565b612693565b3d9150612700565b50831515612641565b6127499297508461274491611948565b61195b565b945f80612635565b9261262d565b505f965086955050505050565b90506020813d60201161278e575b8161277f6020938361187e565b8101031261173d57515f61261b565b3d9150612772565b505f955085945050505056fea26469706673582212208566d1a2318025be000c5be1e1b9f1cf9a83e6c5bc0fc5ddd84502a4e5bc243b64736f6c63430008210033","linkReferences":{}},"methodIdentifiers":{"RAY()":"552033c4","WAD()":"6a146024","accumulators(bytes32)":"3363b7d9","admin()":"f851a440","closeVault(bytes32)":"e0537cee","dAppRecipient()":"93991a93","depositCollateral(bytes32,uint256)":"dea9b464","drip(bytes32)":"44e2a5a8","feeSplitter()":"6052970c","gusd()":"8c87ee90","healthFactor(bytes32,address)":"4afa3af7","ilkDebt(bytes32)":"2e5f62a0","liquidate(bytes32,address)":"771b51d2","mintGUSD(bytes32,uint256)":"468c9bd1","openVault(bytes32)":"fab9bd5e","oracle()":"7dc0d1d0","paused()":"5c975abb","pendingFee(bytes32)":"050296e9","registry()":"7b103999","repayGUSD(bytes32,uint256)":"1c5d3796","setDAppRecipient(address)":"abaf0042","setPaused(bool)":"16c38b3c","setStabilityPool(address)":"98d721e0","stabilityPool()":"048c661d","transferAdmin(address)":"75829def","vaultDebt(bytes32,address)":"81845f63","vaults(bytes32,address)":"4627e7c0","withdrawCollateral(bytes32,uint256)":"a1e93482"},"id":22}