{"abi":[{"type":"constructor","inputs":[{"name":"_admin","type":"address","internalType":"address"},{"name":"_feeSplitter","type":"address","internalType":"address"}],"stateMutability":"nonpayable"},{"type":"function","name":"admin","inputs":[],"outputs":[{"name":"","type":"address","internalType":"address"}],"stateMutability":"view"},{"type":"function","name":"dailySnapshots","inputs":[{"name":"","type":"uint256","internalType":"uint256"}],"outputs":[{"name":"timestamp","type":"uint256","internalType":"uint256"},{"name":"totalUBI","type":"uint256","internalType":"uint256"},{"name":"totalFees","type":"uint256","internalType":"uint256"},{"name":"protocolCount","type":"uint256","internalType":"uint256"}],"stateMutability":"view"},{"type":"function","name":"feeSplitter","inputs":[],"outputs":[{"name":"","type":"address","internalType":"contract IUBIFeeSplitterStats"}],"stateMutability":"view"},{"type":"function","name":"getAllProtocols","inputs":[],"outputs":[{"name":"result","type":"tuple[]","internalType":"struct UBIRevenueTracker.ProtocolStats[]","components":[{"name":"name","type":"string","internalType":"string"},{"name":"category","type":"string","internalType":"string"},{"name":"feeSource","type":"address","internalType":"address"},{"name":"totalFees","type":"uint256","internalType":"uint256"},{"name":"ubiContribution","type":"uint256","internalType":"uint256"},{"name":"txCount","type":"uint256","internalType":"uint256"},{"name":"lastUpdateBlock","type":"uint256","internalType":"uint256"},{"name":"active","type":"bool","internalType":"bool"}]}],"stateMutability":"view"},{"type":"function","name":"getDashboardData","inputs":[],"outputs":[{"name":"_totalFees","type":"uint256","internalType":"uint256"},{"name":"_totalUBI","type":"uint256","internalType":"uint256"},{"name":"_totalTx","type":"uint256","internalType":"uint256"},{"name":"_protocolCount","type":"uint256","internalType":"uint256"},{"name":"_activeProtocols","type":"uint256","internalType":"uint256"},{"name":"_splitterFees","type":"uint256","internalType":"uint256"},{"name":"_splitterUBI","type":"uint256","internalType":"uint256"},{"name":"_snapshotCount","type":"uint256","internalType":"uint256"}],"stateMutability":"view"},{"type":"function","name":"getProtocol","inputs":[{"name":"id","type":"uint256","internalType":"uint256"}],"outputs":[{"name":"","type":"tuple","internalType":"struct UBIRevenueTracker.ProtocolStats","components":[{"name":"name","type":"string","internalType":"string"},{"name":"category","type":"string","internalType":"string"},{"name":"feeSource","type":"address","internalType":"address"},{"name":"totalFees","type":"uint256","internalType":"uint256"},{"name":"ubiContribution","type":"uint256","internalType":"uint256"},{"name":"txCount","type":"uint256","internalType":"uint256"},{"name":"lastUpdateBlock","type":"uint256","internalType":"uint256"},{"name":"active","type":"bool","internalType":"bool"}]}],"stateMutability":"view"},{"type":"function","name":"getSnapshots","inputs":[{"name":"count","type":"uint256","internalType":"uint256"}],"outputs":[{"name":"result","type":"tuple[]","internalType":"struct UBIRevenueTracker.Snapshot[]","components":[{"name":"timestamp","type":"uint256","internalType":"uint256"},{"name":"totalUBI","type":"uint256","internalType":"uint256"},{"name":"totalFees","type":"uint256","internalType":"uint256"},{"name":"protocolCount","type":"uint256","internalType":"uint256"}]}],"stateMutability":"view"},{"type":"function","name":"protocolBySource","inputs":[{"name":"","type":"address","internalType":"address"}],"outputs":[{"name":"","type":"uint256","internalType":"uint256"}],"stateMutability":"view"},{"type":"function","name":"protocolCount","inputs":[],"outputs":[{"name":"","type":"uint256","internalType":"uint256"}],"stateMutability":"view"},{"type":"function","name":"protocols","inputs":[{"name":"","type":"uint256","internalType":"uint256"}],"outputs":[{"name":"name","type":"string","internalType":"string"},{"name":"category","type":"string","internalType":"string"},{"name":"feeSource","type":"address","internalType":"address"},{"name":"totalFees","type":"uint256","internalType":"uint256"},{"name":"ubiContribution","type":"uint256","internalType":"uint256"},{"name":"txCount","type":"uint256","internalType":"uint256"},{"name":"lastUpdateBlock","type":"uint256","internalType":"uint256"},{"name":"active","type":"bool","internalType":"bool"}],"stateMutability":"view"},{"type":"function","name":"registerProtocol","inputs":[{"name":"name","type":"string","internalType":"string"},{"name":"category","type":"string","internalType":"string"},{"name":"feeSource","type":"address","internalType":"address"}],"outputs":[{"name":"id","type":"uint256","internalType":"uint256"}],"stateMutability":"nonpayable"},{"type":"function","name":"reportFees","inputs":[{"name":"protocolId","type":"uint256","internalType":"uint256"},{"name":"fees","type":"uint256","internalType":"uint256"},{"name":"ubi","type":"uint256","internalType":"uint256"},{"name":"txs","type":"uint256","internalType":"uint256"}],"outputs":[],"stateMutability":"nonpayable"},{"type":"function","name":"setProtocolActive","inputs":[{"name":"id","type":"uint256","internalType":"uint256"},{"name":"active","type":"bool","internalType":"bool"}],"outputs":[],"stateMutability":"nonpayable"},{"type":"function","name":"snapshotCount","inputs":[],"outputs":[{"name":"","type":"uint256","internalType":"uint256"}],"stateMutability":"view"},{"type":"function","name":"takeSnapshot","inputs":[],"outputs":[],"stateMutability":"nonpayable"},{"type":"function","name":"totalFeesTracked","inputs":[],"outputs":[{"name":"","type":"uint256","internalType":"uint256"}],"stateMutability":"view"},{"type":"function","name":"totalTxTracked","inputs":[],"outputs":[{"name":"","type":"uint256","internalType":"uint256"}],"stateMutability":"view"},{"type":"function","name":"totalUBITracked","inputs":[],"outputs":[{"name":"","type":"uint256","internalType":"uint256"}],"stateMutability":"view"},{"type":"function","name":"transferAdmin","inputs":[{"name":"newAdmin","type":"address","internalType":"address"}],"outputs":[],"stateMutability":"nonpayable"},{"type":"event","name":"DailySnapshot","inputs":[{"name":"day","type":"uint256","indexed":true,"internalType":"uint256"},{"name":"totalUBI","type":"uint256","indexed":false,"internalType":"uint256"},{"name":"totalFees","type":"uint256","indexed":false,"internalType":"uint256"}],"anonymous":false},{"type":"event","name":"ProtocolRegistered","inputs":[{"name":"id","type":"uint256","indexed":true,"internalType":"uint256"},{"name":"name","type":"string","indexed":false,"internalType":"string"},{"name":"category","type":"string","indexed":false,"internalType":"string"},{"name":"feeSource","type":"address","indexed":false,"internalType":"address"}],"anonymous":false},{"type":"event","name":"StatsUpdated","inputs":[{"name":"protocolId","type":"uint256","indexed":true,"internalType":"uint256"},{"name":"fees","type":"uint256","indexed":false,"internalType":"uint256"},{"name":"ubi","type":"uint256","indexed":false,"internalType":"uint256"},{"name":"txCount","type":"uint256","indexed":false,"internalType":"uint256"}],"anonymous":false}],"bytecode":{"object":"0x608034608557601f6113e238819003918201601f19168301916001600160401b038311848410176089578084926040948552833981010312608557604b6020604583609d565b9201609d565b5f80546001600160a01b039384166001600160a01b0319918216179091556001805492909316911617905560405161133190816100b18239f35b5f80fd5b634e487b7160e01b5f52604160045260245ffd5b51906001600160a01b038216820360855756fe6080806040526004361015610012575f80fd5b5f3560e01c908163098ab6a114610ef5575080636052970c14610ecd578063741c53eb14610d6757806375829def14610ce4578063783ec7f014610c235780637d4f380014610c065780638c39622014610b56578063a2ac13d314610b0a578063a418eac514610aed578063adb2bebf1461097d578063b3d3d37e146108be578063b6aeb92c146108a1578063c9a1ae6f14610770578063d190da8314610738578063d9708d4814610608578063df1ee6a5146105a2578063e2eed04f14610585578063f851a4401461055e5763feadea0d146100ed575f80fd5b3461055a57606036600319011261055a5760043567ffffffffffffffff811161055a5761011e9036906004016110ef565b60243567ffffffffffffffff811161055a5761013e9036906004016110ef565b92604435926001600160a01b038416840361055a5761016760018060a01b035f5416331461119b565b6003549361017485611240565b6003556040519561018487610ff4565b61018f36848661124e565b875261019c36828761124e565b6020880190815260018060a01b03831660408901525f60608901525f60808901525f60a08901524360c0890152600160e0890152865f52600260205260405f2090885180519067ffffffffffffffff821161047f5781906101fd8554610fbc565b601f8111610501575b50602090601f831160011461049e575f92610493575b50508160011b915f199060031b1c19161782555b5197885167ffffffffffffffff811161047f576102506001840154610fbc565b601f811161042b575b50908896959493929160209a8b90601f83116001146103895760e061036396948461032a957f3c7a23361d520d8daf009aea25b729eb1c02a2e1473ee76319a2e3174e862ba69d9e98956007955f9261037e575b50508160011b915f199060031b1c19161760018501555b6002840160018060a01b036040830151166bffffffffffffffffffffffff60a01b825416179055606081015160038501556080810151600485015560a0810151600585015560c081015160068501550151151591019060ff801983541691151516179055565b60018060a01b0384165f5260048a528760405f2055610356604051968796606088526060880191611294565b918583038b870152611294565b6001600160a01b0390911660408301520390a2604051908152f35b015190505f806102ad565b999493929190600184015f52805f209a5f5b601f1984168110610411575061032a936001847f3c7a23361d520d8daf009aea25b729eb1c02a2e1473ee76319a2e3174e862ba69d9e60079560e0956103639c9b9a98601f198116106103f9575b505050811b0160018501556102c4565b01515f1960f88460031b161c191690555f80806103e9565b828201518d556001909c019b8d9b50918e01918e0161039b565b818111156102595799600184015f5260205f20601f830160051c9060208410610477575b81019b601f0160051c035f5b81811061046a57505099610259565b5f8d82015560010161045b565b5f915061044f565b634e487b7160e01b5f52604160045260245ffd5b015190505f8061021c565b5f8681528281209350601f198516905b8181106104e957509084600195949392106104d1575b505050811b018255610230565b01515f1960f88460031b161c191690555f80806104c4565b929360206001819287860151815501950193016104ae565b8281111561020657909150845f5260205f20601f840160051c9060208510610552575b849392601f0160051c82900391015f5b828110610542575050610206565b5f81830155859450600101610534565b5f9150610524565b5f80fd5b3461055a575f36600319011261055a575f546040516001600160a01b039091168152602090f35b3461055a575f36600319011261055a576020600354604051908152f35b3461055a57604036600319011261055a57600435602435801515810361055a57610606916105da60018060a01b035f5416331461119b565b6105e760035482106111d3565b5f526002602052600760405f20019060ff801983541691151516179055565b005b3461055a575f36600319011261055a5760085460075490600954916003549261062f6112b4565b6001546040516330636c5760e11b81526001600160a01b03909116959091906020836004818a5afa9283156106f6575f93610701575b50602060049760405198898092638581ddf560e01b82525afa9384156106f6575f946106c0575b610100975060065495604051978852602088015260408701526060860152608085015260a084015260c083015260e0820152f35b93506020873d6020116106ee575b816106db6020938361102d565b8101031261055a5761010096519361068c565b3d91506106ce565b6040513d5f823e3d90fd5b9692506020873d602011610730575b8161071d6020938361102d565b8101031261055a57955191956020610665565b3d9150610710565b3461055a57602036600319011261055a576001600160a01b03610759610fa6565b165f526004602052602060405f2054604051908152f35b3461055a57608036600319011261055a5760043560243560443590606435906107a360018060a01b035f5416331461119b565b6107b060035485106111d3565b835f52600260205260405f209160ff60078401541615610868577fdf601dc9cab1949db7d829ded79c76070375083f98d23c3e5de99ff9fdab542a93836003606095016107fe858254611233565b90556004810161080f838254611233565b905560058101610820848254611233565b905560064391015561083483600854611233565b60085561084381600754611233565b60075561085282600954611233565b60095560405192835260208301526040820152a2005b60405162461bcd60e51b815260206004820152601160248201527050726f746f636f6c20696e61637469766560781b6044820152606490fd5b3461055a575f36600319011261055a576020600854604051908152f35b3461055a575f36600319011261055a576108e260018060a01b035f5416331461119b565b6006546108ee81611240565b60065560075460036008546109016112b4565b906040519361090f85611011565b428552602085019081526040850191825260608501928352855f52600560205260405f2094518555516001850155516002840155519101557fd5ac1c115b9611e0b070be9e826d0a3a424eb16689c233d158ef9d98a3b0dbbe604060075460085482519182526020820152a2005b3461055a57602036600319011261055a5760065460043580821115610ae1576109a96109b09183611212565b8092611212565b6109b98161111d565b916109c7604051938461102d565b818352601f196109d68361111d565b015f5b818110610ab25750505f5b828110610a5157836040518091602082016020835281518091526020604084019201905f5b818110610a17575050500390f35b9193509160206080600192606087518051835284810151858401526040810151604084015201516060820152019401910191849392610a09565b80610a5e60019284611233565b5f52600560205260405f20600360405191610a7883611011565b805483528481015460208401526002810154604084015201546060820152610aa08287611173565b52610aab8186611173565b50016109e4565b602090604051610ac181611011565b5f81525f838201525f60408201525f6060820152828288010152016109d9565b506109b05f8092611212565b3461055a575f36600319011261055a576020600954604051908152f35b3461055a57602036600319011261055a576004355f526005602052608060405f208054906001810154906003600282015491015491604051938452602084015260408301526060820152f35b3461055a57602036600319011261055a576004355f526002602052610bd360405f20610b818161104f565b90610b8e6001820161104f565b60018060a01b036002830154169160038101546004820154600583015491610be160ff600760068701549601541695604051998a996101008b526101008b0190610f0f565b9089820360208b0152610f0f565b9560408801526060870152608086015260a085015260c0840152151560e08301520390f35b3461055a575f36600319011261055a576020600754604051908152f35b3461055a57602036600319011261055a57600435610c3f611135565b50610c4d60035482106111d3565b5f526002602052610ce060405f2060ff600760405192610c6c84610ff4565b610c758161104f565b8452610c836001820161104f565b602085015260018060a01b0360028201541660408501526003810154606085015260048101546080850152600581015460a0850152600681015460c0850152015416151560e0820152604051918291602083526020830190610f33565b0390f35b3461055a57602036600319011261055a57610cfd610fa6565b5f5490610d14336001600160a01b0384161461119b565b6001600160a01b0316908115610d33576001600160a01b031916175f55005b60405162461bcd60e51b815260206004820152600c60248201526b7a65726f206164647265737360a01b6044820152606490fd5b3461055a575f36600319011261055a57600354610d838161111d565b90610d91604051928361102d565b808252601f19610da08261111d565b015f5b818110610eb65750505f5b818110610e1c57826040518091602082016020835281518091526040830190602060408260051b8601019301915f905b828210610ded57505050500390f35b91936001919395506020610e0c8192603f198a82030186528851610f33565b9601920192018594939192610dde565b806001915f52600260205260405f2060ff600760405192610e3c84610ff4565b610e458161104f565b8452610e5286820161104f565b6020850152858060a01b0360028201541660408501526003810154606085015260048101546080850152600581015460a0850152600681015460c0850152015416151560e0820152610ea48286611173565b52610eaf8185611173565b5001610dae565b602090610ec1611135565b82828701015201610da3565b3461055a575f36600319011261055a576001546040516001600160a01b039091168152602090f35b3461055a575f36600319011261055a576020906006548152f35b805180835260209291819084018484015e5f828201840152601f01601f1916010190565b9060e080610f61610f4f85516101008652610100860190610f0f565b60208601518582036020870152610f0f565b9360018060a01b036040820151166040850152606081015160608501526080810151608085015260a081015160a085015260c081015160c08501520151151591015290565b600435906001600160a01b038216820361055a57565b90600182811c92168015610fea575b6020831014610fd657565b634e487b7160e01b5f52602260045260245ffd5b91607f1691610fcb565b610100810190811067ffffffffffffffff82111761047f57604052565b6080810190811067ffffffffffffffff82111761047f57604052565b90601f8019910116810190811067ffffffffffffffff82111761047f57604052565b9060405191825f82549261106284610fbc565b80845293600181169081156110cd5750600114611089575b506110879250038361102d565b565b90505f9291925260205f20905f915b8183106110b1575050906020611087928201015f61107a565b6020919350806001915483858901015201910190918492611098565b90506020925061108794915060ff191682840152151560051b8201015f61107a565b9181601f8401121561055a5782359167ffffffffffffffff831161055a576020838186019501011161055a57565b67ffffffffffffffff811161047f5760051b60200190565b6040519061114282610ff4565b5f60e08360608152606060208201528260408201528260608201528260808201528260a08201528260c08201520152565b80518210156111875760209160051b010190565b634e487b7160e01b5f52603260045260245ffd5b156111a257565b60405162461bcd60e51b81526020600482015260096024820152682737ba1030b236b4b760b91b6044820152606490fd5b156111da57565b60405162461bcd60e51b815260206004820152601060248201526f125b9d985b1a59081c1c9bdd1bd8dbdb60821b6044820152606490fd5b9190820391821161121f57565b634e487b7160e01b5f52601160045260245ffd5b9190820180921161121f57565b5f19811461121f5760010190565b92919267ffffffffffffffff821161047f5760405191611278601f8201601f19166020018461102d565b82948184528183011161055a578281602093845f960137010152565b908060209392818452848401375f828201840152601f01601f1916010190565b5f905f600354905b8181106112c7575050565b805f52600260205260ff600760405f200154166112e7575b6001016112bc565b926112f3600191611240565b9390506112df56fea264697066735822122089ecae4fd8f4fbc0bd3a96f79b53a35b18c7f790cad543a3c66fdb5ff9c73fe764736f6c63430008210033","linkReferences":{}},"methodIdentifiers":{"admin()":"f851a440","dailySnapshots(uint256)":"a2ac13d3","feeSplitter()":"6052970c","getAllProtocols()":"741c53eb","getDashboardData()":"d9708d48","getProtocol(uint256)":"783ec7f0","getSnapshots(uint256)":"adb2bebf","protocolBySource(address)":"d190da83","protocolCount()":"e2eed04f","protocols(uint256)":"8c396220","registerProtocol(string,string,address)":"feadea0d","reportFees(uint256,uint256,uint256,uint256)":"c9a1ae6f","setProtocolActive(uint256,bool)":"df1ee6a5","snapshotCount()":"098ab6a1","takeSnapshot()":"b3d3d37e","totalFeesTracked()":"b6aeb92c","totalTxTracked()":"a418eac5","totalUBITracked()":"7d4f3800","transferAdmin(address)":"75829def"},"id":56}