{"abi":[{"type":"constructor","inputs":[{"name":"_admin","type":"address","internalType":"address"},{"name":"_identityOracle","type":"address","internalType":"address"},{"name":"_initialSupply","type":"uint256","internalType":"uint256"}],"stateMutability":"nonpayable"},{"type":"function","name":"CLAIM_INTERVAL","inputs":[],"outputs":[{"name":"","type":"uint256","internalType":"uint256"}],"stateMutability":"view"},{"type":"function","name":"UBI_FEE_BPS","inputs":[],"outputs":[{"name":"","type":"uint256","internalType":"uint256"}],"stateMutability":"view"},{"type":"function","name":"admin","inputs":[],"outputs":[{"name":"","type":"address","internalType":"address"}],"stateMutability":"view"},{"type":"function","name":"allowance","inputs":[{"name":"","type":"address","internalType":"address"},{"name":"","type":"address","internalType":"address"}],"outputs":[{"name":"","type":"uint256","internalType":"uint256"}],"stateMutability":"view"},{"type":"function","name":"approve","inputs":[{"name":"spender","type":"address","internalType":"address"},{"name":"amount","type":"uint256","internalType":"uint256"}],"outputs":[{"name":"","type":"bool","internalType":"bool"}],"stateMutability":"nonpayable"},{"type":"function","name":"balanceOf","inputs":[{"name":"","type":"address","internalType":"address"}],"outputs":[{"name":"","type":"uint256","internalType":"uint256"}],"stateMutability":"view"},{"type":"function","name":"batchVerifyHumans","inputs":[{"name":"humans","type":"address[]","internalType":"address[]"}],"outputs":[],"stateMutability":"nonpayable"},{"type":"function","name":"calculateUBIFee","inputs":[{"name":"amount","type":"uint256","internalType":"uint256"}],"outputs":[{"name":"","type":"uint256","internalType":"uint256"}],"stateMutability":"pure"},{"type":"function","name":"claimUBI","inputs":[],"outputs":[],"stateMutability":"nonpayable"},{"type":"function","name":"dailyUBIAmount","inputs":[],"outputs":[{"name":"","type":"uint256","internalType":"uint256"}],"stateMutability":"view"},{"type":"function","name":"decimals","inputs":[],"outputs":[{"name":"","type":"uint8","internalType":"uint8"}],"stateMutability":"view"},{"type":"function","name":"fundUBIPool","inputs":[{"name":"amount","type":"uint256","internalType":"uint256"}],"outputs":[],"stateMutability":"nonpayable"},{"type":"function","name":"identityOracle","inputs":[],"outputs":[{"name":"","type":"address","internalType":"address"}],"stateMutability":"view"},{"type":"function","name":"isVerifiedHuman","inputs":[{"name":"","type":"address","internalType":"address"}],"outputs":[{"name":"","type":"bool","internalType":"bool"}],"stateMutability":"view"},{"type":"function","name":"lastClaimTime","inputs":[{"name":"","type":"address","internalType":"address"}],"outputs":[{"name":"","type":"uint256","internalType":"uint256"}],"stateMutability":"view"},{"type":"function","name":"mint","inputs":[{"name":"to","type":"address","internalType":"address"},{"name":"amount","type":"uint256","internalType":"uint256"}],"outputs":[],"stateMutability":"nonpayable"},{"type":"function","name":"minters","inputs":[{"name":"","type":"address","internalType":"address"}],"outputs":[{"name":"","type":"bool","internalType":"bool"}],"stateMutability":"view"},{"type":"function","name":"name","inputs":[],"outputs":[{"name":"","type":"string","internalType":"string"}],"stateMutability":"view"},{"type":"function","name":"setAdmin","inputs":[{"name":"_admin","type":"address","internalType":"address"}],"outputs":[],"stateMutability":"nonpayable"},{"type":"function","name":"setDailyUBIAmount","inputs":[{"name":"amount","type":"uint256","internalType":"uint256"}],"outputs":[],"stateMutability":"nonpayable"},{"type":"function","name":"setIdentityOracle","inputs":[{"name":"_oracle","type":"address","internalType":"address"}],"outputs":[],"stateMutability":"nonpayable"},{"type":"function","name":"setMinter","inputs":[{"name":"minter","type":"address","internalType":"address"},{"name":"authorized","type":"bool","internalType":"bool"}],"outputs":[],"stateMutability":"nonpayable"},{"type":"function","name":"symbol","inputs":[],"outputs":[{"name":"","type":"string","internalType":"string"}],"stateMutability":"view"},{"type":"function","name":"totalSupply","inputs":[],"outputs":[{"name":"","type":"uint256","internalType":"uint256"}],"stateMutability":"view"},{"type":"function","name":"totalVerifiedHumans","inputs":[],"outputs":[{"name":"","type":"uint256","internalType":"uint256"}],"stateMutability":"view"},{"type":"function","name":"transfer","inputs":[{"name":"to","type":"address","internalType":"address"},{"name":"amount","type":"uint256","internalType":"uint256"}],"outputs":[{"name":"","type":"bool","internalType":"bool"}],"stateMutability":"nonpayable"},{"type":"function","name":"transferFrom","inputs":[{"name":"from","type":"address","internalType":"address"},{"name":"to","type":"address","internalType":"address"},{"name":"amount","type":"uint256","internalType":"uint256"}],"outputs":[{"name":"","type":"bool","internalType":"bool"}],"stateMutability":"nonpayable"},{"type":"function","name":"ubiPool","inputs":[],"outputs":[{"name":"","type":"uint256","internalType":"uint256"}],"stateMutability":"view"},{"type":"function","name":"verifyHuman","inputs":[{"name":"human","type":"address","internalType":"address"},{"name":"status","type":"bool","internalType":"bool"}],"outputs":[],"stateMutability":"nonpayable"},{"type":"event","name":"Approval","inputs":[{"name":"owner","type":"address","indexed":true,"internalType":"address"},{"name":"spender","type":"address","indexed":true,"internalType":"address"},{"name":"value","type":"uint256","indexed":false,"internalType":"uint256"}],"anonymous":false},{"type":"event","name":"DailyUBIDistributed","inputs":[{"name":"totalAmount","type":"uint256","indexed":false,"internalType":"uint256"},{"name":"recipients","type":"uint256","indexed":false,"internalType":"uint256"}],"anonymous":false},{"type":"event","name":"HumanVerified","inputs":[{"name":"human","type":"address","indexed":true,"internalType":"address"},{"name":"status","type":"bool","indexed":false,"internalType":"bool"}],"anonymous":false},{"type":"event","name":"Transfer","inputs":[{"name":"from","type":"address","indexed":true,"internalType":"address"},{"name":"to","type":"address","indexed":true,"internalType":"address"},{"name":"value","type":"uint256","indexed":false,"internalType":"uint256"}],"anonymous":false},{"type":"event","name":"UBIClaimed","inputs":[{"name":"claimer","type":"address","indexed":true,"internalType":"address"},{"name":"amount","type":"uint256","indexed":false,"internalType":"uint256"},{"name":"timestamp","type":"uint256","indexed":false,"internalType":"uint256"}],"anonymous":false},{"type":"event","name":"UBIPoolFunded","inputs":[{"name":"from","type":"address","indexed":true,"internalType":"address"},{"name":"amount","type":"uint256","indexed":false,"internalType":"uint256"}],"anonymous":false}],"bytecode":{"object":"0x6080346100f557601f610fee38819003918201601f19168301916001600160401b038311848410176100f9578084926060946040528339810103126100f5575f7fddf252ad1be2c89b69c2b068fc378daa952ba7f163c4a11628f55a4df523b3ef602061006b8461010d565b604061007883870161010d565b95015190670de0b6b3a764000060035560018060a01b0316948560018060a01b0319600854161760085560018060a01b031660018060a01b031960095416176009556100c5818554610121565b845584845260018252604084206100dd828254610121565b9055604051908152a3604051610eab90816101438239f35b5f80fd5b634e487b7160e01b5f52604160045260245ffd5b51906001600160a01b03821682036100f557565b9190820180921161012e57565b634e487b7160e01b5f52601160045260245ffdfe6080806040526004361015610012575f80fd5b5f3560e01c90816263fa2714610bce5750806306fdde0314610b79578063095ea7b314610b0057806318160ddd14610ae45780631a880ded1461094157806323b872dd146108715780632abd25d6146107445780632bee8d3214610727578063313ce5671461070c578063356dc111146106e45780633b79c4ae146105c457806340c10f191461054c57806341b232331461053057806349d3a0c114610513578063704b6c02146104c657806370a082311461048e578063726e5cdc1461047157806383adc2ff1461041557806395d89b41146103b0578063a06f7da714610393578063a9059cbb14610362578063aa710ae114610334578063b77cf9c6146102fc578063cf456ae7146102af578063d5921f1414610263578063dd62ed3e14610213578063f46eccc4146101d6578063f851a440146101ae5763f88fd4c41461015a575f80fd5b346101aa5760203660031901126101aa57610173610c07565b61018860018060a01b03600854163314610d2e565b600980546001600160a01b0319166001600160a01b0392909216919091179055005b5f80fd5b346101aa575f3660031901126101aa576008546040516001600160a01b039091168152602090f35b346101aa5760203660031901126101aa576001600160a01b036101f7610c07565b165f52600a602052602060ff60405f2054166040519015158152f35b346101aa5760403660031901126101aa5761022c610c07565b610234610c1d565b6001600160a01b039182165f908152600260209081526040808320949093168252928352819020549051908152f35b346101aa5760203660031901126101aa576004356103e88102908082046103e8149015171561029b5760209061271060405191048152f35b634e487b7160e01b5f52601160045260245ffd5b346101aa576102fa6102c036610c5d565b906102d660018060a01b03600854163314610d2e565b60018060a01b03165f52600a60205260405f209060ff801983541691151516179055565b005b346101aa5760203660031901126101aa576001600160a01b0361031d610c07565b165f526006602052602060405f2054604051908152f35b346101aa5760203660031901126101aa5761035a60018060a01b03600854163314610d2e565b600435600355005b346101aa5760403660031901126101aa5761038861037e610c07565b6024359033610dc2565b602060405160018152f35b346101aa575f3660031901126101aa576020600454604051908152f35b346101aa575f3660031901126101aa57604051604081019080821067ffffffffffffffff831117610401576103fd91604052600281526111c960f21b602082015260405191829182610c33565b0390f35b634e487b7160e01b5f52604160045260245ffd5b346101aa5760203660031901126101aa57600435610434813033610dc2565b61044081600454610c8c565b6004556040519081527f7b320d49eac2c333db6dfb543995d40e9f8e96af936ee66da1ac03d9ec4a5a7760203392a2005b346101aa575f3660031901126101aa576020600354604051908152f35b346101aa5760203660031901126101aa576001600160a01b036104af610c07565b165f526001602052602060405f2054604051908152f35b346101aa5760203660031901126101aa576104df610c07565b600854906104f7336001600160a01b03841614610d2e565b6001600160a01b03166001600160a01b03199190911617600855005b346101aa575f3660031901126101aa576020604051620151808152f35b346101aa575f3660031901126101aa5760206040516103e88152f35b346101aa5760403660031901126101aa57610565610c07565b335f52600a60205260ff60405f20541615610587576102fa9060243590610d66565b60405162461bcd60e51b81526020600482015260156024820152742737ba1030baba3437b934bd32b21036b4b73a32b960591b6044820152606490fd5b346101aa576105d236610c5d565b906105e860018060a01b03600954163314610ca6565b81806106c2575b156106575760207fd3ac88d7d7371ae60bfd5df4b594ee30e643822079fc7e3329ec4d090ff11e4191610623600754610d20565b6007555b6001600160a01b03165f8181526005835260409020805460ff191660ff86151516179055926040519015158152a2005b8115806106a1575b61068d575b60207fd3ac88d7d7371ae60bfd5df4b594ee30e643822079fc7e3329ec4d090ff11e4191610627565b600754801561029b575f1901600755610664565b506001600160a01b0381165f9081526005602052604090205460ff1661065f565b506001600160a01b0381165f9081526005602052604090205460ff16156105ef565b346101aa575f3660031901126101aa576009546040516001600160a01b039091168152602090f35b346101aa575f3660031901126101aa57602060405160128152f35b346101aa575f3660031901126101aa576020600754604051908152f35b346101aa5760203660031901126101aa5760043567ffffffffffffffff81116101aa57366023820112156101aa5780600401359067ffffffffffffffff82116101aa576024810190602436918460051b0101116101aa576107b060018060a01b03600954163314610ca6565b5f5b8281106107bb57005b6001906001600160a01b036107d96107d4838787610ce8565b610d0c565b165f52600560205260ff60405f205416156107f5575b016107b2565b818060a01b036108096107d4838787610ce8565b165f52600560205260405f208260ff1982541617905561082a600754610d20565b600755818060a01b036108416107d4838787610ce8565b167fd3ac88d7d7371ae60bfd5df4b594ee30e643822079fc7e3329ec4d090ff11e416020604051858152a26107ef565b346101aa5760603660031901126101aa5761088a610c07565b610892610c1d565b6001600160a01b0382165f818152600260209081526040808320338452909152902054926044359291600185016108cf575b506103889350610dc2565b838510610903576108e38461038896610c99565b5f91825260026020908152604080842033855290915290912055846108c4565b60405162461bcd60e51b8152602060048201526016602482015275496e73756666696369656e7420616c6c6f77616e636560501b6044820152606490fd5b346101aa575f3660031901126101aa57335f52600560205260ff60405f20541615610aaa57335f52600660205260405f2054158015610a87575b15610a4a57335f5260066020524260405f205560035461099b8133610d66565b5f60045480151580610a3f575b6109eb575b506109b791610c8c565b6040519081524260208201527fa265860bad5040e1bef830652f782ec55a23a74fc92eb2c770e61d7d50cbb01560403392a2005b9050600754918215610a2b576109b7928204918280610a0d575b5050916109ad565b610a1a81610a2493610c99565b6004553330610dc2565b8380610a05565b634e487b7160e01b5f52601260045260245ffd5b5060075415156109a8565b60405162461bcd60e51b8152602060048201526015602482015274416c726561647920636c61696d656420746f64617960581b6044820152606490fd5b50335f52600660205260405f205462015180810180911161029b5742101561097b565b60405162461bcd60e51b81526020600482015260126024820152712737ba103b32b934b334b2b210343ab6b0b760711b6044820152606490fd5b346101aa575f3660031901126101aa5760205f54604051908152f35b346101aa5760403660031901126101aa57610b19610c07565b335f8181526002602090815260408083206001600160a01b03909516808452948252918290206024359081905591519182527f8c5be1e5ebec7d5bd14f71427d1e84f3dd0314c0f7b2291e5b200ac8c7c3b92591a3602060405160018152f35b346101aa575f3660031901126101aa57604051604081019080821067ffffffffffffffff831117610401576103fd91604052600a81526923b7b7b22237b63630b960b11b602082015260405191829182610c33565b346101aa5760203660031901126101aa576020906001600160a01b03610bf2610c07565b165f526005825260ff60405f20541615158152f35b600435906001600160a01b03821682036101aa57565b602435906001600160a01b03821682036101aa57565b602060409281835280519182918282860152018484015e5f828201840152601f01601f1916010190565b60409060031901126101aa576004356001600160a01b03811681036101aa579060243580151581036101aa5790565b9190820180921161029b57565b9190820391821161029b57565b15610cad57565b60405162461bcd60e51b81526020600482015260136024820152724e6f74206964656e74697479206f7261636c6560681b6044820152606490fd5b9190811015610cf85760051b0190565b634e487b7160e01b5f52603260045260245ffd5b356001600160a01b03811681036101aa5790565b5f19811461029b5760010190565b15610d3557565b60405162461bcd60e51b81526020600482015260096024820152682737ba1030b236b4b760b91b6044820152606490fd5b7fddf252ad1be2c89b69c2b068fc378daa952ba7f163c4a11628f55a4df523b3ef60205f92610d96858554610c8c565b845560018060a01b0316938484526001825260408420610db7828254610c8c565b9055604051908152a3565b60018060a01b031690815f5260016020528260405f205410610e395760207fddf252ad1be2c89b69c2b068fc378daa952ba7f163c4a11628f55a4df523b3ef91835f526001825260405f20610e18868254610c99565b905560018060a01b031693845f526001825260405f20610db7828254610c8c565b60405162461bcd60e51b8152602060048201526014602482015273496e73756666696369656e742062616c616e636560601b6044820152606490fdfea26469706673582212207e20971451a99a8e122e7ea036f9216cc97d3595dd9fbde8871822a4bc147bd364736f6c63430008210033","linkReferences":{}},"methodIdentifiers":{"CLAIM_INTERVAL()":"49d3a0c1","UBI_FEE_BPS()":"41b23233","admin()":"f851a440","allowance(address,address)":"dd62ed3e","approve(address,uint256)":"095ea7b3","balanceOf(address)":"70a08231","batchVerifyHumans(address[])":"2abd25d6","calculateUBIFee(uint256)":"d5921f14","claimUBI()":"1a880ded","dailyUBIAmount()":"726e5cdc","decimals()":"313ce567","fundUBIPool(uint256)":"83adc2ff","identityOracle()":"356dc111","isVerifiedHuman(address)":"0063fa27","lastClaimTime(address)":"b77cf9c6","mint(address,uint256)":"40c10f19","minters(address)":"f46eccc4","name()":"06fdde03","setAdmin(address)":"704b6c02","setDailyUBIAmount(uint256)":"aa710ae1","setIdentityOracle(address)":"f88fd4c4","setMinter(address,bool)":"cf456ae7","symbol()":"95d89b41","totalSupply()":"18160ddd","totalVerifiedHumans()":"2bee8d32","transfer(address,uint256)":"a9059cbb","transferFrom(address,address,uint256)":"23b872dd","ubiPool()":"a06f7da7","verifyHuman(address,bool)":"3b79c4ae"},"id":23}