{"abi":[{"type":"constructor","inputs":[{"name":"_admin","type":"address","internalType":"address"},{"name":"_identityOracle","type":"address","internalType":"address"},{"name":"_initialSupply","type":"uint256","internalType":"uint256"}],"stateMutability":"nonpayable"},{"type":"function","name":"CLAIM_INTERVAL","inputs":[],"outputs":[{"name":"","type":"uint256","internalType":"uint256"}],"stateMutability":"view"},{"type":"function","name":"UBI_FEE_BPS","inputs":[],"outputs":[{"name":"","type":"uint256","internalType":"uint256"}],"stateMutability":"view"},{"type":"function","name":"admin","inputs":[],"outputs":[{"name":"","type":"address","internalType":"address"}],"stateMutability":"view"},{"type":"function","name":"allowance","inputs":[{"name":"","type":"address","internalType":"address"},{"name":"","type":"address","internalType":"address"}],"outputs":[{"name":"","type":"uint256","internalType":"uint256"}],"stateMutability":"view"},{"type":"function","name":"approve","inputs":[{"name":"spender","type":"address","internalType":"address"},{"name":"amount","type":"uint256","internalType":"uint256"}],"outputs":[{"name":"","type":"bool","internalType":"bool"}],"stateMutability":"nonpayable"},{"type":"function","name":"balanceOf","inputs":[{"name":"","type":"address","internalType":"address"}],"outputs":[{"name":"","type":"uint256","internalType":"uint256"}],"stateMutability":"view"},{"type":"function","name":"batchVerifyHumans","inputs":[{"name":"humans","type":"address[]","internalType":"address[]"}],"outputs":[],"stateMutability":"nonpayable"},{"type":"function","name":"calculateUBIFee","inputs":[{"name":"amount","type":"uint256","internalType":"uint256"}],"outputs":[{"name":"","type":"uint256","internalType":"uint256"}],"stateMutability":"pure"},{"type":"function","name":"claimUBI","inputs":[],"outputs":[],"stateMutability":"nonpayable"},{"type":"function","name":"dailyUBIAmount","inputs":[],"outputs":[{"name":"","type":"uint256","internalType":"uint256"}],"stateMutability":"view"},{"type":"function","name":"decimals","inputs":[],"outputs":[{"name":"","type":"uint8","internalType":"uint8"}],"stateMutability":"view"},{"type":"function","name":"fundUBIPool","inputs":[{"name":"amount","type":"uint256","internalType":"uint256"}],"outputs":[],"stateMutability":"nonpayable"},{"type":"function","name":"identityOracle","inputs":[],"outputs":[{"name":"","type":"address","internalType":"address"}],"stateMutability":"view"},{"type":"function","name":"isVerifiedHuman","inputs":[{"name":"","type":"address","internalType":"address"}],"outputs":[{"name":"","type":"bool","internalType":"bool"}],"stateMutability":"view"},{"type":"function","name":"lastClaimTime","inputs":[{"name":"","type":"address","internalType":"address"}],"outputs":[{"name":"","type":"uint256","internalType":"uint256"}],"stateMutability":"view"},{"type":"function","name":"name","inputs":[],"outputs":[{"name":"","type":"string","internalType":"string"}],"stateMutability":"view"},{"type":"function","name":"setAdmin","inputs":[{"name":"_admin","type":"address","internalType":"address"}],"outputs":[],"stateMutability":"nonpayable"},{"type":"function","name":"setDailyUBIAmount","inputs":[{"name":"amount","type":"uint256","internalType":"uint256"}],"outputs":[],"stateMutability":"nonpayable"},{"type":"function","name":"setIdentityOracle","inputs":[{"name":"_oracle","type":"address","internalType":"address"}],"outputs":[],"stateMutability":"nonpayable"},{"type":"function","name":"symbol","inputs":[],"outputs":[{"name":"","type":"string","internalType":"string"}],"stateMutability":"view"},{"type":"function","name":"totalSupply","inputs":[],"outputs":[{"name":"","type":"uint256","internalType":"uint256"}],"stateMutability":"view"},{"type":"function","name":"totalVerifiedHumans","inputs":[],"outputs":[{"name":"","type":"uint256","internalType":"uint256"}],"stateMutability":"view"},{"type":"function","name":"transfer","inputs":[{"name":"to","type":"address","internalType":"address"},{"name":"amount","type":"uint256","internalType":"uint256"}],"outputs":[{"name":"","type":"bool","internalType":"bool"}],"stateMutability":"nonpayable"},{"type":"function","name":"transferFrom","inputs":[{"name":"from","type":"address","internalType":"address"},{"name":"to","type":"address","internalType":"address"},{"name":"amount","type":"uint256","internalType":"uint256"}],"outputs":[{"name":"","type":"bool","internalType":"bool"}],"stateMutability":"nonpayable"},{"type":"function","name":"ubiPool","inputs":[],"outputs":[{"name":"","type":"uint256","internalType":"uint256"}],"stateMutability":"view"},{"type":"function","name":"verifyHuman","inputs":[{"name":"human","type":"address","internalType":"address"},{"name":"status","type":"bool","internalType":"bool"}],"outputs":[],"stateMutability":"nonpayable"},{"type":"event","name":"Approval","inputs":[{"name":"owner","type":"address","indexed":true,"internalType":"address"},{"name":"spender","type":"address","indexed":true,"internalType":"address"},{"name":"value","type":"uint256","indexed":false,"internalType":"uint256"}],"anonymous":false},{"type":"event","name":"DailyUBIDistributed","inputs":[{"name":"totalAmount","type":"uint256","indexed":false,"internalType":"uint256"},{"name":"recipients","type":"uint256","indexed":false,"internalType":"uint256"}],"anonymous":false},{"type":"event","name":"HumanVerified","inputs":[{"name":"human","type":"address","indexed":true,"internalType":"address"},{"name":"status","type":"bool","indexed":false,"internalType":"bool"}],"anonymous":false},{"type":"event","name":"Transfer","inputs":[{"name":"from","type":"address","indexed":true,"internalType":"address"},{"name":"to","type":"address","indexed":true,"internalType":"address"},{"name":"value","type":"uint256","indexed":false,"internalType":"uint256"}],"anonymous":false},{"type":"event","name":"UBIClaimed","inputs":[{"name":"claimer","type":"address","indexed":true,"internalType":"address"},{"name":"amount","type":"uint256","indexed":false,"internalType":"uint256"},{"name":"timestamp","type":"uint256","indexed":false,"internalType":"uint256"}],"anonymous":false},{"type":"event","name":"UBIPoolFunded","inputs":[{"name":"from","type":"address","indexed":true,"internalType":"address"},{"name":"amount","type":"uint256","indexed":false,"internalType":"uint256"}],"anonymous":false}],"bytecode":{"object":"0x6080604052670de0b6b3a764000060035534801561001b575f5ffd5b50604051612095380380612095833981810160405281019061003d9190610239565b8260085f6101000a81548173ffffffffffffffffffffffffffffffffffffffff021916908373ffffffffffffffffffffffffffffffffffffffff1602179055508160095f6101000a81548173ffffffffffffffffffffffffffffffffffffffff021916908373ffffffffffffffffffffffffffffffffffffffff1602179055506100cd83826100d560201b60201c565b505050610311565b805f5f8282546100e591906102b6565b925050819055508060015f8473ffffffffffffffffffffffffffffffffffffffff1673ffffffffffffffffffffffffffffffffffffffff1681526020019081526020015f205f82825461013891906102b6565b925050819055508173ffffffffffffffffffffffffffffffffffffffff165f73ffffffffffffffffffffffffffffffffffffffff167fddf252ad1be2c89b69c2b068fc378daa952ba7f163c4a11628f55a4df523b3ef8360405161019c91906102f8565b60405180910390a35050565b5f5ffd5b5f73ffffffffffffffffffffffffffffffffffffffff82169050919050565b5f6101d5826101ac565b9050919050565b6101e5816101cb565b81146101ef575f5ffd5b50565b5f81519050610200816101dc565b92915050565b5f819050919050565b61021881610206565b8114610222575f5ffd5b50565b5f815190506102338161020f565b92915050565b5f5f5f606084860312156102505761024f6101a8565b5b5f61025d868287016101f2565b935050602061026e868287016101f2565b925050604061027f86828701610225565b9150509250925092565b7f4e487b71000000000000000000000000000000000000000000000000000000005f52601160045260245ffd5b5f6102c082610206565b91506102cb83610206565b92508282019050808211156102e3576102e2610289565b5b92915050565b6102f281610206565b82525050565b5f60208201905061030b5f8301846102e9565b92915050565b611d778061031e5f395ff3fe608060405234801561000f575f5ffd5b506004361061018b575f3560e01c8063704b6c02116100dc578063a9059cbb11610095578063d5921f141161006f578063d5921f1414610471578063dd62ed3e146104a1578063f851a440146104d1578063f88fd4c4146104ef5761018b565b8063a9059cbb146103f5578063aa710ae114610425578063b77cf9c6146104415761018b565b8063704b6c021461033357806370a082311461034f578063726e5cdc1461037f57806383adc2ff1461039d57806395d89b41146103b9578063a06f7da7146103d75761018b565b80632abd25d611610149578063356dc11111610123578063356dc111146102bd5780633b79c4ae146102db57806341b23233146102f757806349d3a0c1146103155761018b565b80632abd25d6146102655780632bee8d3214610281578063313ce5671461029f5761018b565b806263fa271461018f57806306fdde03146101bf578063095ea7b3146101dd57806318160ddd1461020d5780631a880ded1461022b57806323b872dd14610235575b5f5ffd5b6101a960048036038101906101a4919061152e565b61050b565b6040516101b69190611573565b60405180910390f35b6101c7610528565b6040516101d491906115fc565b60405180910390f35b6101f760048036038101906101f2919061164f565b610561565b6040516102049190611573565b60405180910390f35b61021561064e565b604051610222919061169c565b60405180910390f35b610233610653565b005b61024f600480360381019061024a91906116b5565b6108bb565b60405161025c9190611573565b60405180910390f35b61027f600480360381019061027a9190611766565b610a42565b005b610289610c72565b604051610296919061169c565b60405180910390f35b6102a7610c78565b6040516102b491906117cc565b60405180910390f35b6102c5610c7d565b6040516102d291906117f4565b60405180910390f35b6102f560048036038101906102f09190611837565b610ca2565b005b6102ff610ebe565b60405161030c919061169c565b60405180910390f35b61031d610ec4565b60405161032a919061169c565b60405180910390f35b61034d6004803603810190610348919061152e565b610ecb565b005b6103696004803603810190610364919061152e565b610f9d565b604051610376919061169c565b60405180910390f35b610387610fb2565b604051610394919061169c565b60405180910390f35b6103b760048036038101906103b29190611875565b610fb8565b005b6103c161102c565b6040516103ce91906115fc565b60405180910390f35b6103df611065565b6040516103ec919061169c565b60405180910390f35b61040f600480360381019061040a919061164f565b61106b565b60405161041c9190611573565b60405180910390f35b61043f600480360381019061043a9190611875565b611081565b005b61045b6004803603810190610456919061152e565b61111a565b604051610468919061169c565b60405180910390f35b61048b60048036038101906104869190611875565b61112f565b604051610498919061169c565b60405180910390f35b6104bb60048036038101906104b691906118a0565b611152565b6040516104c8919061169c565b60405180910390f35b6104d9611172565b6040516104e691906117f4565b60405180910390f35b6105096004803603810190610504919061152e565b611197565b005b6005602052805f5260405f205f915054906101000a900460ff1681565b6040518060400160405280600a81526020017f476f6f64446f6c6c61720000000000000000000000000000000000000000000081525081565b5f8160025f3373ffffffffffffffffffffffffffffffffffffffff1673ffffffffffffffffffffffffffffffffffffffff1681526020019081526020015f205f8573ffffffffffffffffffffffffffffffffffffffff1673ffffffffffffffffffffffffffffffffffffffff1681526020019081526020015f20819055508273ffffffffffffffffffffffffffffffffffffffff163373ffffffffffffffffffffffffffffffffffffffff167f8c5be1e5ebec7d5bd14f71427d1e84f3dd0314c0f7b2291e5b200ac8c7c3b9258460405161063c919061169c565b60405180910390a36001905092915050565b5f5481565b60055f3373ffffffffffffffffffffffffffffffffffffffff1673ffffffffffffffffffffffffffffffffffffffff1681526020019081526020015f205f9054906101000a900460ff166106dc576040517f08c379a00000000000000000000000000000000000000000000000000000000081526004016106d390611928565b60405180910390fd5b5f60065f3373ffffffffffffffffffffffffffffffffffffffff1673ffffffffffffffffffffffffffffffffffffffff1681526020019081526020015f2054148061077257506201518060065f3373ffffffffffffffffffffffffffffffffffffffff1673ffffffffffffffffffffffffffffffffffffffff1681526020019081526020015f205461076e9190611973565b4210155b6107b1576040517f08c379a00000000000000000000000000000000000000000000000000000000081526004016107a8906119f0565b60405180910390fd5b4260065f3373ffffffffffffffffffffffffffffffffffffffff1673ffffffffffffffffffffffffffffffffffffffff1681526020019081526020015f20819055505f60035490506108033382611269565b5f5f90505f60045411801561081957505f600754115b1561085c5760075460045461082e9190611a3b565b90505f81111561085b578060045f8282546108499190611a6b565b9250508190555061085a3382611269565b5b5b3373ffffffffffffffffffffffffffffffffffffffff167fa265860bad5040e1bef830652f782ec55a23a74fc92eb2c770e61d7d50cbb01582846108a09190611973565b426040516108af929190611a9e565b60405180910390a25050565b5f5f60025f8673ffffffffffffffffffffffffffffffffffffffff1673ffffffffffffffffffffffffffffffffffffffff1681526020019081526020015f205f3373ffffffffffffffffffffffffffffffffffffffff1673ffffffffffffffffffffffffffffffffffffffff1681526020019081526020015f205490507fffffffffffffffffffffffffffffffffffffffffffffffffffffffffffffffff8114610a2b57828110156109a2576040517f08c379a000000000000000000000000000000000000000000000000000000000815260040161099990611b0f565b60405180910390fd5b82816109ae9190611a6b565b60025f8773ffffffffffffffffffffffffffffffffffffffff1673ffffffffffffffffffffffffffffffffffffffff1681526020019081526020015f205f3373ffffffffffffffffffffffffffffffffffffffff1673ffffffffffffffffffffffffffffffffffffffff1681526020019081526020015f20819055505b610a3685858561133c565b60019150509392505050565b60095f9054906101000a900473ffffffffffffffffffffffffffffffffffffffff1673ffffffffffffffffffffffffffffffffffffffff163373ffffffffffffffffffffffffffffffffffffffff1614610ad1576040517f08c379a0000000000000000000000000000000000000000000000000000000008152600401610ac890611b77565b60405180910390fd5b5f5f90505b82829050811015610c6d5760055f848484818110610af757610af6611b95565b5b9050602002016020810190610b0c919061152e565b73ffffffffffffffffffffffffffffffffffffffff1673ffffffffffffffffffffffffffffffffffffffff1681526020019081526020015f205f9054906101000a900460ff16610c6057600160055f858585818110610b6e57610b6d611b95565b5b9050602002016020810190610b83919061152e565b73ffffffffffffffffffffffffffffffffffffffff1673ffffffffffffffffffffffffffffffffffffffff1681526020019081526020015f205f6101000a81548160ff02191690831515021790555060075f815480929190610be490611bc2565b9190505550828282818110610bfc57610bfb611b95565b5b9050602002016020810190610c11919061152e565b73ffffffffffffffffffffffffffffffffffffffff167fd3ac88d7d7371ae60bfd5df4b594ee30e643822079fc7e3329ec4d090ff11e416001604051610c579190611573565b60405180910390a25b8080600101915050610ad6565b505050565b60075481565b601281565b60095f9054906101000a900473ffffffffffffffffffffffffffffffffffffffff1681565b60095f9054906101000a900473ffffffffffffffffffffffffffffffffffffffff1673ffffffffffffffffffffffffffffffffffffffff163373ffffffffffffffffffffffffffffffffffffffff1614610d31576040517f08c379a0000000000000000000000000000000000000000000000000000000008152600401610d2890611b77565b60405180910390fd5b808015610d85575060055f8373ffffffffffffffffffffffffffffffffffffffff1673ffffffffffffffffffffffffffffffffffffffff1681526020019081526020015f205f9054906101000a900460ff16155b15610da65760075f815480929190610d9c90611bc2565b9190505550610e18565b80158015610dfa575060055f8373ffffffffffffffffffffffffffffffffffffffff1673ffffffffffffffffffffffffffffffffffffffff1681526020019081526020015f205f9054906101000a900460ff165b15610e175760075f815480929190610e1190611c09565b91905055505b5b8060055f8473ffffffffffffffffffffffffffffffffffffffff1673ffffffffffffffffffffffffffffffffffffffff1681526020019081526020015f205f6101000a81548160ff0219169083151502179055508173ffffffffffffffffffffffffffffffffffffffff167fd3ac88d7d7371ae60bfd5df4b594ee30e643822079fc7e3329ec4d090ff11e4182604051610eb29190611573565b60405180910390a25050565b6103e881565b6201518081565b60085f9054906101000a900473ffffffffffffffffffffffffffffffffffffffff1673ffffffffffffffffffffffffffffffffffffffff163373ffffffffffffffffffffffffffffffffffffffff1614610f5a576040517f08c379a0000000000000000000000000000000000000000000000000000000008152600401610f5190611c7a565b60405180910390fd5b8060085f6101000a81548173ffffffffffffffffffffffffffffffffffffffff021916908373ffffffffffffffffffffffffffffffffffffffff16021790555050565b6001602052805f5260405f205f915090505481565b60035481565b610fc333308361133c565b8060045f828254610fd49190611973565b925050819055503373ffffffffffffffffffffffffffffffffffffffff167f7b320d49eac2c333db6dfb543995d40e9f8e96af936ee66da1ac03d9ec4a5a7782604051611021919061169c565b60405180910390a250565b6040518060400160405280600281526020017f472400000000000000000000000000000000000000000000000000000000000081525081565b60045481565b5f61107733848461133c565b6001905092915050565b60085f9054906101000a900473ffffffffffffffffffffffffffffffffffffffff1673ffffffffffffffffffffffffffffffffffffffff163373ffffffffffffffffffffffffffffffffffffffff1614611110576040517f08c379a000000000000000000000000000000000000000000000000000000000815260040161110790611c7a565b60405180910390fd5b8060038190555050565b6006602052805f5260405f205f915090505481565b5f6127106103e8836111419190611c98565b61114b9190611a3b565b9050919050565b6002602052815f5260405f20602052805f5260405f205f91509150505481565b60085f9054906101000a900473ffffffffffffffffffffffffffffffffffffffff1681565b60085f9054906101000a900473ffffffffffffffffffffffffffffffffffffffff1673ffffffffffffffffffffffffffffffffffffffff163373ffffffffffffffffffffffffffffffffffffffff1614611226576040517f08c379a000000000000000000000000000000000000000000000000000000000815260040161121d90611c7a565b60405180910390fd5b8060095f6101000a81548173ffffffffffffffffffffffffffffffffffffffff021916908373ffffffffffffffffffffffffffffffffffffffff16021790555050565b805f5f8282546112799190611973565b925050819055508060015f8473ffffffffffffffffffffffffffffffffffffffff1673ffffffffffffffffffffffffffffffffffffffff1681526020019081526020015f205f8282546112cc9190611973565b925050819055508173ffffffffffffffffffffffffffffffffffffffff165f73ffffffffffffffffffffffffffffffffffffffff167fddf252ad1be2c89b69c2b068fc378daa952ba7f163c4a11628f55a4df523b3ef83604051611330919061169c565b60405180910390a35050565b8060015f8573ffffffffffffffffffffffffffffffffffffffff1673ffffffffffffffffffffffffffffffffffffffff1681526020019081526020015f205410156113bc576040517f08c379a00000000000000000000000000000000000000000000000000000000081526004016113b390611d23565b60405180910390fd5b8060015f8573ffffffffffffffffffffffffffffffffffffffff1673ffffffffffffffffffffffffffffffffffffffff1681526020019081526020015f205f8282546114089190611a6b565b925050819055508060015f8473ffffffffffffffffffffffffffffffffffffffff1673ffffffffffffffffffffffffffffffffffffffff1681526020019081526020015f205f82825461145b9190611973565b925050819055508173ffffffffffffffffffffffffffffffffffffffff168373ffffffffffffffffffffffffffffffffffffffff167fddf252ad1be2c89b69c2b068fc378daa952ba7f163c4a11628f55a4df523b3ef836040516114bf919061169c565b60405180910390a3505050565b5f5ffd5b5f5ffd5b5f73ffffffffffffffffffffffffffffffffffffffff82169050919050565b5f6114fd826114d4565b9050919050565b61150d816114f3565b8114611517575f5ffd5b50565b5f8135905061152881611504565b92915050565b5f60208284031215611543576115426114cc565b5b5f6115508482850161151a565b91505092915050565b5f8115159050919050565b61156d81611559565b82525050565b5f6020820190506115865f830184611564565b92915050565b5f81519050919050565b5f82825260208201905092915050565b8281835e5f83830152505050565b5f601f19601f8301169050919050565b5f6115ce8261158c565b6115d88185611596565b93506115e88185602086016115a6565b6115f1816115b4565b840191505092915050565b5f6020820190508181035f83015261161481846115c4565b905092915050565b5f819050919050565b61162e8161161c565b8114611638575f5ffd5b50565b5f8135905061164981611625565b92915050565b5f5f60408385031215611665576116646114cc565b5b5f6116728582860161151a565b92505060206116838582860161163b565b9150509250929050565b6116968161161c565b82525050565b5f6020820190506116af5f83018461168d565b92915050565b5f5f5f606084860312156116cc576116cb6114cc565b5b5f6116d98682870161151a565b93505060206116ea8682870161151a565b92505060406116fb8682870161163b565b9150509250925092565b5f5ffd5b5f5ffd5b5f5ffd5b5f5f83601f84011261172657611725611705565b5b8235905067ffffffffffffffff81111561174357611742611709565b5b60208301915083602082028301111561175f5761175e61170d565b5b9250929050565b5f5f6020838503121561177c5761177b6114cc565b5b5f83013567ffffffffffffffff811115611799576117986114d0565b5b6117a585828601611711565b92509250509250929050565b5f60ff82169050919050565b6117c6816117b1565b82525050565b5f6020820190506117df5f8301846117bd565b92915050565b6117ee816114f3565b82525050565b5f6020820190506118075f8301846117e5565b92915050565b61181681611559565b8114611820575f5ffd5b50565b5f813590506118318161180d565b92915050565b5f5f6040838503121561184d5761184c6114cc565b5b5f61185a8582860161151a565b925050602061186b85828601611823565b9150509250929050565b5f6020828403121561188a576118896114cc565b5b5f6118978482850161163b565b91505092915050565b5f5f604083850312156118b6576118b56114cc565b5b5f6118c38582860161151a565b92505060206118d48582860161151a565b9150509250929050565b7f4e6f742076657269666965642068756d616e00000000000000000000000000005f82015250565b5f611912601283611596565b915061191d826118de565b602082019050919050565b5f6020820190508181035f83015261193f81611906565b9050919050565b7f4e487b71000000000000000000000000000000000000000000000000000000005f52601160045260245ffd5b5f61197d8261161c565b91506119888361161c565b92508282019050808211156119a05761199f611946565b5b92915050565b7f416c726561647920636c61696d656420746f64617900000000000000000000005f82015250565b5f6119da601583611596565b91506119e5826119a6565b602082019050919050565b5f6020820190508181035f830152611a07816119ce565b9050919050565b7f4e487b71000000000000000000000000000000000000000000000000000000005f52601260045260245ffd5b5f611a458261161c565b9150611a508361161c565b925082611a6057611a5f611a0e565b5b828204905092915050565b5f611a758261161c565b9150611a808361161c565b9250828203905081811115611a9857611a97611946565b5b92915050565b5f604082019050611ab15f83018561168d565b611abe602083018461168d565b9392505050565b7f496e73756666696369656e7420616c6c6f77616e6365000000000000000000005f82015250565b5f611af9601683611596565b9150611b0482611ac5565b602082019050919050565b5f6020820190508181035f830152611b2681611aed565b9050919050565b7f4e6f74206964656e74697479206f7261636c65000000000000000000000000005f82015250565b5f611b61601383611596565b9150611b6c82611b2d565b602082019050919050565b5f6020820190508181035f830152611b8e81611b55565b9050919050565b7f4e487b71000000000000000000000000000000000000000000000000000000005f52603260045260245ffd5b5f611bcc8261161c565b91507fffffffffffffffffffffffffffffffffffffffffffffffffffffffffffffffff8203611bfe57611bfd611946565b5b600182019050919050565b5f611c138261161c565b91505f8203611c2557611c24611946565b5b600182039050919050565b7f4e6f742061646d696e00000000000000000000000000000000000000000000005f82015250565b5f611c64600983611596565b9150611c6f82611c30565b602082019050919050565b5f6020820190508181035f830152611c9181611c58565b9050919050565b5f611ca28261161c565b9150611cad8361161c565b9250828202611cbb8161161c565b91508282048414831517611cd257611cd1611946565b5b5092915050565b7f496e73756666696369656e742062616c616e63650000000000000000000000005f82015250565b5f611d0d601483611596565b9150611d1882611cd9565b602082019050919050565b5f6020820190508181035f830152611d3a81611d01565b905091905056fea264697066735822122085073fe1659f11adaf9ec3408b0f58d4544880538672303fed29a1f71b99c0ce64736f6c63430008210033","linkReferences":{}},"methodIdentifiers":{"CLAIM_INTERVAL()":"49d3a0c1","UBI_FEE_BPS()":"41b23233","admin()":"f851a440","allowance(address,address)":"dd62ed3e","approve(address,uint256)":"095ea7b3","balanceOf(address)":"70a08231","batchVerifyHumans(address[])":"2abd25d6","calculateUBIFee(uint256)":"d5921f14","claimUBI()":"1a880ded","dailyUBIAmount()":"726e5cdc","decimals()":"313ce567","fundUBIPool(uint256)":"83adc2ff","identityOracle()":"356dc111","isVerifiedHuman(address)":"0063fa27","lastClaimTime(address)":"b77cf9c6","name()":"06fdde03","setAdmin(address)":"704b6c02","setDailyUBIAmount(uint256)":"aa710ae1","setIdentityOracle(address)":"f88fd4c4","symbol()":"95d89b41","totalSupply()":"18160ddd","totalVerifiedHumans()":"2bee8d32","transfer(address,uint256)":"a9059cbb","transferFrom(address,address,uint256)":"23b872dd","ubiPool()":"a06f7da7","verifyHuman(address,bool)":"3b79c4ae"},"id":20}