{"abi":[{"type":"constructor","inputs":[{"name":"_goodDollar","type":"address","internalType":"address"},{"name":"_treasury","type":"address","internalType":"address"},{"name":"_admin","type":"address","internalType":"address"}],"stateMutability":"nonpayable"},{"type":"function","name":"admin","inputs":[],"outputs":[{"name":"","type":"address","internalType":"address"}],"stateMutability":"view"},{"type":"function","name":"claimableBalance","inputs":[],"outputs":[{"name":"","type":"uint256","internalType":"uint256"}],"stateMutability":"view"},{"type":"function","name":"dAppCount","inputs":[],"outputs":[{"name":"","type":"uint256","internalType":"uint256"}],"stateMutability":"view"},{"type":"function","name":"dAppList","inputs":[{"name":"","type":"uint256","internalType":"uint256"}],"outputs":[{"name":"","type":"address","internalType":"address"}],"stateMutability":"view"},{"type":"function","name":"goodDollar","inputs":[],"outputs":[{"name":"","type":"address","internalType":"contract IGoodDollarToken"}],"stateMutability":"view"},{"type":"function","name":"protocolBPS","inputs":[],"outputs":[{"name":"","type":"uint256","internalType":"uint256"}],"stateMutability":"view"},{"type":"function","name":"protocolTreasury","inputs":[],"outputs":[{"name":"","type":"address","internalType":"address"}],"stateMutability":"view"},{"type":"function","name":"registerDApp","inputs":[{"name":"dApp","type":"address","internalType":"address"},{"name":"dAppName","type":"string","internalType":"string"}],"outputs":[],"stateMutability":"nonpayable"},{"type":"function","name":"registeredDApps","inputs":[{"name":"","type":"address","internalType":"address"}],"outputs":[{"name":"","type":"bool","internalType":"bool"}],"stateMutability":"view"},{"type":"function","name":"releaseToUBI","inputs":[{"name":"recipient","type":"address","internalType":"address"},{"name":"amount","type":"uint256","internalType":"uint256"}],"outputs":[],"stateMutability":"nonpayable"},{"type":"function","name":"setFeeSplit","inputs":[{"name":"_ubiBPS","type":"uint256","internalType":"uint256"},{"name":"_protocolBPS","type":"uint256","internalType":"uint256"}],"outputs":[],"stateMutability":"nonpayable"},{"type":"function","name":"setTreasury","inputs":[{"name":"_treasury","type":"address","internalType":"address"}],"outputs":[],"stateMutability":"nonpayable"},{"type":"function","name":"setUBIRecipient","inputs":[{"name":"_ubiRecipient","type":"address","internalType":"address"}],"outputs":[],"stateMutability":"nonpayable"},{"type":"function","name":"splitFee","inputs":[{"name":"totalFee","type":"uint256","internalType":"uint256"},{"name":"dAppRecipient","type":"address","internalType":"address"}],"outputs":[{"name":"ubiShare","type":"uint256","internalType":"uint256"},{"name":"protocolShare","type":"uint256","internalType":"uint256"},{"name":"dAppShare","type":"uint256","internalType":"uint256"}],"stateMutability":"nonpayable"},{"type":"function","name":"splitFeeToken","inputs":[{"name":"totalFee","type":"uint256","internalType":"uint256"},{"name":"dAppRecipient","type":"address","internalType":"address"},{"name":"token","type":"address","internalType":"address"}],"outputs":[{"name":"ubiShare","type":"uint256","internalType":"uint256"},{"name":"protocolShare","type":"uint256","internalType":"uint256"},{"name":"dAppShare","type":"uint256","internalType":"uint256"}],"stateMutability":"nonpayable"},{"type":"function","name":"totalFeesCollected","inputs":[],"outputs":[{"name":"","type":"uint256","internalType":"uint256"}],"stateMutability":"view"},{"type":"function","name":"totalUBIFunded","inputs":[],"outputs":[{"name":"","type":"uint256","internalType":"uint256"}],"stateMutability":"view"},{"type":"function","name":"ubiBPS","inputs":[],"outputs":[{"name":"","type":"uint256","internalType":"uint256"}],"stateMutability":"view"},{"type":"function","name":"ubiRecipient","inputs":[],"outputs":[{"name":"","type":"address","internalType":"address"}],"stateMutability":"view"},{"type":"event","name":"DAppRegistered","inputs":[{"name":"dApp","type":"address","indexed":true,"internalType":"address"},{"name":"name","type":"string","indexed":false,"internalType":"string"}],"anonymous":false},{"type":"event","name":"FeeSplit","inputs":[{"name":"dApp","type":"address","indexed":true,"internalType":"address"},{"name":"totalFee","type":"uint256","indexed":false,"internalType":"uint256"},{"name":"ubiShare","type":"uint256","indexed":false,"internalType":"uint256"},{"name":"protocolShare","type":"uint256","indexed":false,"internalType":"uint256"},{"name":"dAppShare","type":"uint256","indexed":false,"internalType":"uint256"}],"anonymous":false}],"bytecode":{"object":"0x60a0346100d957601f610f1f38819003918201601f19168301916001600160401b038311848410176100dd578084926060946040528339810103126100d957610047816100f1565b906100606040610059602084016100f1565b92016100f1565b610d055f556106836001556001600160a01b03928316608052600280546001600160a01b03199081169385169384179091556003805482169490921693909317905560048054909216179055604051610e19908161010682396080518181816101d401528181610747015281816109720152610a9b0152f35b5f80fd5b634e487b7160e01b5f52604160045260245ffd5b51906001600160a01b03821682036100d95756fe60806040526004361015610011575f80fd5b5f5f3560e01c8063078a8be914610b575780630fc1c0c014610aca578063119e5bf314610a86578063212e7c31146109445780632957b4bd1461092757806360c6d8ae1461090a57806364d6def9146106c357806366521893146106a65780637c393cfd146106885780637cb4eea2146103895780637e6335c71461030d578063803db96d146102e45780638581ddf5146102c6578063bb6a99d914610282578063c33f0d4e14610259578063c4f45423146101a7578063dea05bad14610168578063f0f44260146101165763f851a440146100eb575f80fd5b346101135780600319360112610113576003546040516001600160a01b039091168152602090f35b80fd5b503461011357602036600319011261011357610130610ca1565b61014560018060a01b03600354163314610cf9565b60018060a01b03166bffffffffffffffffffffffff60a01b600254161760025580f35b50346101135760203660031901126101135760209060ff906040906001600160a01b03610193610ca1565b168152600584522054166040519015158152f35b50346101135780600319360112610113576040516370a0823160e01b8152306004820152906020826024817f00000000000000000000000000000000000000000000000000000000000000006001600160a01b03165afa90811561024d5790610216575b602090604051908152f35b506020813d602011610245575b8161023060209383610d31565b81010312610241576020905161020b565b5f80fd5b3d9150610223565b604051903d90823e3d90fd5b50346101135780600319360112610113576004546040516001600160a01b039091168152602090f35b503461011357602036600319011261011357600435906006548210156101135760206102ad83610ccd565b905460405160039290921b1c6001600160a01b03168152f35b50346101135780600319360112610113576020600854604051908152f35b50346101135780600319360112610113576002546040516001600160a01b039091168152602090f35b5034610113576040366003190112610113576004356024359061033b60018060a01b03600354163314610cf9565b6127106103488383610dd6565b1161035557825560015580f35b60405162461bcd60e51b815260206004820152600c60248201526b45786365656473203130302560a01b6044820152606490fd5b5034610113576060366003190112610113576004356103a6610cb7565b906044356001600160a01b03811690819003610684576103c7821515610d6b565b6004546001600160a01b031615610648576127106103e6855484610da2565b04916127106103f760015483610da2565b049361040c856104078685610dc9565b610dc9565b6040516323b872dd60e01b81523360048201523060248201526044810184905290936020826064818b855af1918215610603576104829261062b575b506004805460405163a9059cbb60e01b81526001600160a01b03909116918101919091526024810187905291602090839081906044820190565b03818b855af1918215610603576104cf9261060e575b5060025460405163a9059cbb60e01b81526001600160a01b0390911660048201526024810188905291602090839081906044820190565b03818b855af1908115610603576105229360209387936105e8575b5060405163a9059cbb60e01b81526001600160a01b0390911660048201526024810192909252909283919082908a9082906044820190565b03925af180156105dd576105ac949596506105b0575b5061054581600754610dd6565b600755604080519182526020820185905281018590526060810182905233907f0dbf6466fc85a1dfc483035dd7c09f8326cee61f37a6cfa6c7097da85140e0609080608081015b0390a2604051938493846040919493926060820195825260208201520152565b0390f35b6105d19060203d6020116105d6575b6105c98183610d31565b810190610d53565b610538565b503d6105bf565b6040513d88823e3d90fd5b6105fe90853d87116105d6576105c98183610d31565b6104ea565b6040513d8a823e3d90fd5b6106269060203d6020116105d6576105c98183610d31565b610498565b6106439060203d6020116105d6576105c98183610d31565b610448565b60405162461bcd60e51b81526020600482015260146024820152731d589a549958da5c1a595b9d081b9bdd081cd95d60621b6044820152606490fd5b8380fd5b50346101135780600319360112610113576020600154604051908152f35b503461011357806003193601126101135760209054604051908152f35b5034610241576040366003190112610241576004356106e0610cb7565b6106eb821515610d6b565b6127106106f95f5484610da2565b049061271061070a60015485610da2565b049261071a846104078584610dc9565b6040516323b872dd60e01b8152336004820152306024820152604481018390529092906001600160a01b037f000000000000000000000000000000000000000000000000000000000000000016906020816064815f865af180156108e2576108ed575b50803b15610241576040516383adc2ff60e01b8152600481018690525f8160248183865af180156108e2576108cb575b5060025460405163a9059cbb60e01b81526001600160a01b039091166004820152602481018790529060208280604481015b03818b855af1908115610603576108319360209387936105e8575060405163a9059cbb60e01b81526001600160a01b0390911660048201526024810192909252909283919082908a9082906044820190565b03925af180156105dd576105ac949596506108ae575b5061085481600754610dd6565b60075561086384600854610dd6565b600855604080519182526020820185905281018590526060810182905233907f0dbf6466fc85a1dfc483035dd7c09f8326cee61f37a6cfa6c7097da85140e06090806080810161058c565b6108c69060203d6020116105d6576105c98183610d31565b610847565b6108d89197505f90610d31565b5f956107df6107ad565b6040513d5f823e3d90fd5b6109059060203d6020116105d6576105c98183610d31565b61077d565b34610241575f366003190112610241576020600754604051908152f35b34610241575f366003190112610241576020600654604051908152f35b346102415760403660031901126102415761095d610ca1565b6040516370a0823160e01b81523060048201527f00000000000000000000000000000000000000000000000000000000000000006001600160a01b03169190602480359190602090829081875afa9081156108e2575f91610a54575b508111610a185760405163a9059cbb60e01b81526001600160a01b03929092166004830152602482015290602090829060449082905f905af180156108e2576109fe57005b610a169060203d6020116105d6576105c98183610d31565b005b60405162461bcd60e51b8152602060048201526014602482015273696e73756666696369656e742062616c616e636560601b6044820152606490fd5b90506020813d602011610a7e575b81610a6f60209383610d31565b810103126102415751846109b9565b3d9150610a62565b34610241575f366003190112610241576040517f00000000000000000000000000000000000000000000000000000000000000006001600160a01b03168152602090f35b3461024157602036600319011261024157610ae3610ca1565b610af860018060a01b03600354163314610cf9565b6001600160a01b03168015610b23576bffffffffffffffffffffffff60a01b60045416176004555f80f35b60405162461bcd60e51b815260206004820152600c60248201526b7a65726f206164647265737360a01b6044820152606490fd5b3461024157604036600319011261024157610b70610ca1565b60243567ffffffffffffffff811161024157366023820112156102415780600401359167ffffffffffffffff831161024157366024848401011161024157610bc360018060a01b03600354163314610cf9565b6001600160a01b03165f8181526005602052604090205490929060ff1615610be757005b825f52600560205260405f20600160ff1982541617905560065468010000000000000000811015610c8d577f1b452462b371f0b1fe9691fc8b7ba96e05962067f6beb9a744cd2c78be0322dc92602492610c4983600160409501600655610ccd565b81549060031b9088821b9160018060a01b03901b19161790558083519485936020855282602086015201848401375f828201840152601f01601f19168101030190a2005b634e487b7160e01b5f52604160045260245ffd5b600435906001600160a01b038216820361024157565b602435906001600160a01b038216820361024157565b600654811015610ce55760065f5260205f2001905f90565b634e487b7160e01b5f52603260045260245ffd5b15610d0057565b60405162461bcd60e51b81526020600482015260096024820152682737ba1030b236b4b760b91b6044820152606490fd5b90601f8019910116810190811067ffffffffffffffff821117610c8d57604052565b90816020910312610241575180151581036102415790565b15610d7257565b60405162461bcd60e51b81526020600482015260086024820152675a65726f2066656560c01b6044820152606490fd5b81810292918115918404141715610db557565b634e487b7160e01b5f52601160045260245ffd5b91908203918211610db557565b91908201809211610db55756fea26469706673582212203baee5ad18542585eaba778b7e923666bc0acac91c6155f5c1572dcdcc3456d764736f6c63430008210033","linkReferences":{}},"methodIdentifiers":{"admin()":"f851a440","claimableBalance()":"c4f45423","dAppCount()":"2957b4bd","dAppList(uint256)":"bb6a99d9","goodDollar()":"119e5bf3","protocolBPS()":"7c393cfd","protocolTreasury()":"803db96d","registerDApp(address,string)":"078a8be9","registeredDApps(address)":"dea05bad","releaseToUBI(address,uint256)":"212e7c31","setFeeSplit(uint256,uint256)":"7e6335c7","setTreasury(address)":"f0f44260","setUBIRecipient(address)":"0fc1c0c0","splitFee(uint256,address)":"64d6def9","splitFeeToken(uint256,address,address)":"7cb4eea2","totalFeesCollected()":"60c6d8ae","totalUBIFunded()":"8581ddf5","ubiBPS()":"66521893","ubiRecipient()":"c33f0d4e"},"id":34}