{"abi":[{"type":"constructor","inputs":[{"name":"_goodDollar","type":"address","internalType":"address"},{"name":"_treasury","type":"address","internalType":"address"},{"name":"_admin","type":"address","internalType":"address"}],"stateMutability":"nonpayable"},{"type":"function","name":"admin","inputs":[],"outputs":[{"name":"","type":"address","internalType":"address"}],"stateMutability":"view"},{"type":"function","name":"claimableBalance","inputs":[],"outputs":[{"name":"","type":"uint256","internalType":"uint256"}],"stateMutability":"view"},{"type":"function","name":"dAppCount","inputs":[],"outputs":[{"name":"","type":"uint256","internalType":"uint256"}],"stateMutability":"view"},{"type":"function","name":"dAppList","inputs":[{"name":"","type":"uint256","internalType":"uint256"}],"outputs":[{"name":"","type":"address","internalType":"address"}],"stateMutability":"view"},{"type":"function","name":"goodDollar","inputs":[],"outputs":[{"name":"","type":"address","internalType":"contract IGoodDollarToken"}],"stateMutability":"view"},{"type":"function","name":"protocolBPS","inputs":[],"outputs":[{"name":"","type":"uint256","internalType":"uint256"}],"stateMutability":"view"},{"type":"function","name":"protocolTreasury","inputs":[],"outputs":[{"name":"","type":"address","internalType":"address"}],"stateMutability":"view"},{"type":"function","name":"registerDApp","inputs":[{"name":"dApp","type":"address","internalType":"address"},{"name":"dAppName","type":"string","internalType":"string"}],"outputs":[],"stateMutability":"nonpayable"},{"type":"function","name":"registeredDApps","inputs":[{"name":"","type":"address","internalType":"address"}],"outputs":[{"name":"","type":"bool","internalType":"bool"}],"stateMutability":"view"},{"type":"function","name":"setFeeSplit","inputs":[{"name":"_ubiBPS","type":"uint256","internalType":"uint256"},{"name":"_protocolBPS","type":"uint256","internalType":"uint256"}],"outputs":[],"stateMutability":"nonpayable"},{"type":"function","name":"setTreasury","inputs":[{"name":"_treasury","type":"address","internalType":"address"}],"outputs":[],"stateMutability":"nonpayable"},{"type":"function","name":"splitFee","inputs":[{"name":"totalFee","type":"uint256","internalType":"uint256"},{"name":"dAppRecipient","type":"address","internalType":"address"}],"outputs":[{"name":"ubiShare","type":"uint256","internalType":"uint256"},{"name":"protocolShare","type":"uint256","internalType":"uint256"},{"name":"dAppShare","type":"uint256","internalType":"uint256"}],"stateMutability":"nonpayable"},{"type":"function","name":"totalFeesCollected","inputs":[],"outputs":[{"name":"","type":"uint256","internalType":"uint256"}],"stateMutability":"view"},{"type":"function","name":"totalUBIFunded","inputs":[],"outputs":[{"name":"","type":"uint256","internalType":"uint256"}],"stateMutability":"view"},{"type":"function","name":"ubiBPS","inputs":[],"outputs":[{"name":"","type":"uint256","internalType":"uint256"}],"stateMutability":"view"},{"type":"event","name":"DAppRegistered","inputs":[{"name":"dApp","type":"address","indexed":true,"internalType":"address"},{"name":"name","type":"string","indexed":false,"internalType":"string"}],"anonymous":false},{"type":"event","name":"FeeSplit","inputs":[{"name":"dApp","type":"address","indexed":true,"internalType":"address"},{"name":"totalFee","type":"uint256","indexed":false,"internalType":"uint256"},{"name":"ubiShare","type":"uint256","indexed":false,"internalType":"uint256"},{"name":"protocolShare","type":"uint256","indexed":false,"internalType":"uint256"},{"name":"dAppShare","type":"uint256","indexed":false,"internalType":"uint256"}],"anonymous":false}],"bytecode":{"object":"0x60a0346100c257601f610a1f38819003918201601f19168301916001600160401b038311848410176100c6578084926060946040528339810103126100c257610047816100da565b906100606040610059602084016100da565b92016100da565b610d055f556106836001556001600160a01b03928316608052600280549284166001600160a01b03199384161790556003805491909316911617905560405161093090816100ef82396080518181816101a7015281816103f8015261068c0152f35b5f80fd5b634e487b7160e01b5f52604160045260245ffd5b51906001600160a01b03821682036100c25756fe60806040526004361015610011575f80fd5b5f5f3560e01c8063078a8be9146106bb578063119e5bf3146106775780632957b4bd1461065a57806360c6d8ae1461063d57806364d6def91461037157806366521893146103545780637c393cfd146103365780637e6335c7146102ba578063803db96d146102915780638581ddf514610273578063bb6a99d91461022f578063c4f454231461017b578063dea05bad1461013c578063f0f44260146100ea5763f851a440146100bf575f80fd5b346100e757806003193601126100e7576003546040516001600160a01b039091168152602090f35b80fd5b50346100e75760203660031901126100e757610104610805565b61011960018060a01b03600354163314610847565b60018060a01b03166bffffffffffffffffffffffff60a01b600254161760025580f35b50346100e75760203660031901126100e75760209060ff906040906001600160a01b03610167610805565b168152600484522054166040519015158152f35b50346100e757806003193601126100e7576040516370a0823160e01b81523060048201526020816024817f00000000000000000000000000000000000000000000000000000000000000006001600160a01b03165afa9081156102245782916101ea575b602082604051908152f35b90506020813d60201161021c575b81610205602093836108b3565b810103126102185760209150515f6101df565b5080fd5b3d91506101f8565b6040513d84823e3d90fd5b50346100e75760203660031901126100e757600435906005548210156100e757602061025a8361081b565b905460405160039290921b1c6001600160a01b03168152f35b50346100e757806003193601126100e7576020600754604051908152f35b50346100e757806003193601126100e7576002546040516001600160a01b039091168152602090f35b50346100e75760403660031901126100e757600435602435906102e860018060a01b03600354163314610847565b6127106102f583836108ed565b1161030257825560015580f35b60405162461bcd60e51b815260206004820152600c60248201526b45786365656473203130302560a01b6044820152606490fd5b50346100e757806003193601126100e7576020600154604051908152f35b50346100e757806003193601126100e75760209054604051908152f35b50346105ec5760403660031901126105ec576004356024356001600160a01b03811681036105ec57811561060d576127106103ad5f548461087f565b04916127106103be6001548361087f565b04906103d3826103ce86846108a6565b6108a6565b6040516323b872dd60e01b8152336004820152306024820152604481018390529093907f00000000000000000000000000000000000000000000000000000000000000006001600160a01b0316906020816064815f865af180156105e1576105f0575b50803b156105ec576040516383adc2ff60e01b8152600481018790525f8160248183865af180156105e1576105ca575b5060025460405163a9059cbb60e01b81526001600160a01b039091166004820152602481018590529060208280604481015b03818b855af19081156105bf576104eb9360209388936105a4575b5060405163a9059cbb60e01b81526001600160a01b0390911660048201526024810192909252909283919082908a9082906044820190565b03925af18015610599576060965061056c575b5061050b816006546108ed565b60065561051a846007546108ed565b60075560405190815283602082015281604082015282858201527f0dbf6466fc85a1dfc483035dd7c09f8326cee61f37a6cfa6c7097da85140e06060803392a260405192835260208301526040820152f35b61058d9060203d602011610592575b61058581836108b3565b8101906108d5565b6104fe565b503d61057b565b6040513d88823e3d90fd5b6105ba90853d87116105925761058581836108b3565b6104b3565b6040513d8a823e3d90fd5b6105d79197505f906108b3565b5f95610498610466565b6040513d5f823e3d90fd5b5f80fd5b6106089060203d6020116105925761058581836108b3565b610436565b60405162461bcd60e51b81526020600482015260086024820152675a65726f2066656560c01b6044820152606490fd5b346105ec575f3660031901126105ec576020600654604051908152f35b346105ec575f3660031901126105ec576020600554604051908152f35b346105ec575f3660031901126105ec576040517f00000000000000000000000000000000000000000000000000000000000000006001600160a01b03168152602090f35b346105ec5760403660031901126105ec576106d4610805565b60243567ffffffffffffffff81116105ec57366023820112156105ec5780600401359167ffffffffffffffff83116105ec5736602484840101116105ec5761072760018060a01b03600354163314610847565b6001600160a01b03165f8181526004602052604090205490929060ff161561074b57005b825f52600460205260405f20600160ff19825416179055600554680100000000000000008110156107f1577f1b452462b371f0b1fe9691fc8b7ba96e05962067f6beb9a744cd2c78be0322dc926024926107ad8360016040950160055561081b565b81549060031b9088821b9160018060a01b03901b19161790558083519485936020855282602086015201848401375f828201840152601f01601f19168101030190a2005b634e487b7160e01b5f52604160045260245ffd5b600435906001600160a01b03821682036105ec57565b6005548110156108335760055f5260205f2001905f90565b634e487b7160e01b5f52603260045260245ffd5b1561084e57565b60405162461bcd60e51b81526020600482015260096024820152682737ba1030b236b4b760b91b6044820152606490fd5b8181029291811591840414171561089257565b634e487b7160e01b5f52601160045260245ffd5b9190820391821161089257565b90601f8019910116810190811067ffffffffffffffff8211176107f157604052565b908160209103126105ec575180151581036105ec5790565b919082018092116108925756fea2646970667358221220ed505472c6b6cf2da07cbc48a76fcf8282752f87cec039cfb9927af522db5d8264736f6c63430008210033","linkReferences":{}},"methodIdentifiers":{"admin()":"f851a440","claimableBalance()":"c4f45423","dAppCount()":"2957b4bd","dAppList(uint256)":"bb6a99d9","goodDollar()":"119e5bf3","protocolBPS()":"7c393cfd","protocolTreasury()":"803db96d","registerDApp(address,string)":"078a8be9","registeredDApps(address)":"dea05bad","setFeeSplit(uint256,uint256)":"7e6335c7","setTreasury(address)":"f0f44260","splitFee(uint256,address)":"64d6def9","totalFeesCollected()":"60c6d8ae","totalUBIFunded()":"8581ddf5","ubiBPS()":"66521893"},"id":25}