{"abi":[{"type":"constructor","inputs":[{"name":"_goodDollar","type":"address","internalType":"address"},{"name":"_treasury","type":"address","internalType":"address"},{"name":"_admin","type":"address","internalType":"address"}],"stateMutability":"nonpayable"},{"type":"function","name":"admin","inputs":[],"outputs":[{"name":"","type":"address","internalType":"address"}],"stateMutability":"view"},{"type":"function","name":"dAppCount","inputs":[],"outputs":[{"name":"","type":"uint256","internalType":"uint256"}],"stateMutability":"view"},{"type":"function","name":"dAppList","inputs":[{"name":"","type":"uint256","internalType":"uint256"}],"outputs":[{"name":"","type":"address","internalType":"address"}],"stateMutability":"view"},{"type":"function","name":"goodDollar","inputs":[],"outputs":[{"name":"","type":"address","internalType":"contract IGoodDollarToken"}],"stateMutability":"view"},{"type":"function","name":"protocolBPS","inputs":[],"outputs":[{"name":"","type":"uint256","internalType":"uint256"}],"stateMutability":"view"},{"type":"function","name":"protocolTreasury","inputs":[],"outputs":[{"name":"","type":"address","internalType":"address"}],"stateMutability":"view"},{"type":"function","name":"registerDApp","inputs":[{"name":"dApp","type":"address","internalType":"address"},{"name":"dAppName","type":"string","internalType":"string"}],"outputs":[],"stateMutability":"nonpayable"},{"type":"function","name":"registeredDApps","inputs":[{"name":"","type":"address","internalType":"address"}],"outputs":[{"name":"","type":"bool","internalType":"bool"}],"stateMutability":"view"},{"type":"function","name":"setFeeSplit","inputs":[{"name":"_ubiBPS","type":"uint256","internalType":"uint256"},{"name":"_protocolBPS","type":"uint256","internalType":"uint256"}],"outputs":[],"stateMutability":"nonpayable"},{"type":"function","name":"setTreasury","inputs":[{"name":"_treasury","type":"address","internalType":"address"}],"outputs":[],"stateMutability":"nonpayable"},{"type":"function","name":"splitFee","inputs":[{"name":"totalFee","type":"uint256","internalType":"uint256"},{"name":"dAppRecipient","type":"address","internalType":"address"}],"outputs":[{"name":"ubiShare","type":"uint256","internalType":"uint256"},{"name":"protocolShare","type":"uint256","internalType":"uint256"},{"name":"dAppShare","type":"uint256","internalType":"uint256"}],"stateMutability":"nonpayable"},{"type":"function","name":"totalFeesCollected","inputs":[],"outputs":[{"name":"","type":"uint256","internalType":"uint256"}],"stateMutability":"view"},{"type":"function","name":"totalUBIFunded","inputs":[],"outputs":[{"name":"","type":"uint256","internalType":"uint256"}],"stateMutability":"view"},{"type":"function","name":"ubiBPS","inputs":[],"outputs":[{"name":"","type":"uint256","internalType":"uint256"}],"stateMutability":"view"},{"type":"event","name":"DAppRegistered","inputs":[{"name":"dApp","type":"address","indexed":true,"internalType":"address"},{"name":"name","type":"string","indexed":false,"internalType":"string"}],"anonymous":false},{"type":"event","name":"FeeSplit","inputs":[{"name":"dApp","type":"address","indexed":true,"internalType":"address"},{"name":"totalFee","type":"uint256","indexed":false,"internalType":"uint256"},{"name":"ubiShare","type":"uint256","indexed":false,"internalType":"uint256"},{"name":"protocolShare","type":"uint256","indexed":false,"internalType":"uint256"},{"name":"dAppShare","type":"uint256","indexed":false,"internalType":"uint256"}],"anonymous":false}],"bytecode":{"object":"0x60a0604052610d055f5561068360015534801561001a575f5ffd5b5060405161142e38038061142e833981810160405281019061003c9190610156565b8273ffffffffffffffffffffffffffffffffffffffff1660808173ffffffffffffffffffffffffffffffffffffffff16815250508160025f6101000a81548173ffffffffffffffffffffffffffffffffffffffff021916908373ffffffffffffffffffffffffffffffffffffffff1602179055508060035f6101000a81548173ffffffffffffffffffffffffffffffffffffffff021916908373ffffffffffffffffffffffffffffffffffffffff1602179055505050506101a6565b5f5ffd5b5f73ffffffffffffffffffffffffffffffffffffffff82169050919050565b5f610125826100fc565b9050919050565b6101358161011b565b811461013f575f5ffd5b50565b5f815190506101508161012c565b92915050565b5f5f5f6060848603121561016d5761016c6100f8565b5b5f61017a86828701610142565b935050602061018b86828701610142565b925050604061019c86828701610142565b9150509250925092565b6080516112546101da5f395f81816104ac01528181610579015281816106170152818161069d015261075a01526112545ff3fe608060405234801561000f575f5ffd5b50600436106100e8575f3560e01c80637e6335c71161008a578063bb6a99d911610064578063bb6a99d914610228578063dea05bad14610258578063f0f4426014610288578063f851a440146102a4576100e8565b80637e6335c7146101d0578063803db96d146101ec5780638581ddf51461020a576100e8565b806360c6d8ae116100c657806360c6d8ae1461014457806364d6def91461016257806366521893146101945780637c393cfd146101b2576100e8565b8063078a8be9146100ec578063119e5bf3146101085780632957b4bd14610126575b5f5ffd5b61010660048036038101906101019190610bb7565b6102c2565b005b6101106104aa565b60405161011d9190610c6f565b60405180910390f35b61012e6104ce565b60405161013b9190610ca0565b60405180910390f35b61014c6104da565b6040516101599190610ca0565b60405180910390f35b61017c60048036038101906101779190610ce3565b6104e0565b60405161018b93929190610d21565b60405180910390f35b61019c61087f565b6040516101a99190610ca0565b60405180910390f35b6101ba610884565b6040516101c79190610ca0565b60405180910390f35b6101ea60048036038101906101e59190610d56565b61088a565b005b6101f461097a565b6040516102019190610da3565b60405180910390f35b61021261099f565b60405161021f9190610ca0565b60405180910390f35b610242600480360381019061023d9190610dbc565b6109a5565b60405161024f9190610da3565b60405180910390f35b610272600480360381019061026d9190610de7565b6109e0565b60405161027f9190610e2c565b60405180910390f35b6102a2600480360381019061029d9190610de7565b6109fd565b005b6102ac610acf565b6040516102b99190610da3565b60405180910390f35b60035f9054906101000a900473ffffffffffffffffffffffffffffffffffffffff1673ffffffffffffffffffffffffffffffffffffffff163373ffffffffffffffffffffffffffffffffffffffff1614610351576040517f08c379a000000000000000000000000000000000000000000000000000000000815260040161034890610e9f565b60405180910390fd5b60045f8473ffffffffffffffffffffffffffffffffffffffff1673ffffffffffffffffffffffffffffffffffffffff1681526020019081526020015f205f9054906101000a900460ff166104a557600160045f8573ffffffffffffffffffffffffffffffffffffffff1673ffffffffffffffffffffffffffffffffffffffff1681526020019081526020015f205f6101000a81548160ff021916908315150217905550600583908060018154018082558091505060019003905f5260205f20015f9091909190916101000a81548173ffffffffffffffffffffffffffffffffffffffff021916908373ffffffffffffffffffffffffffffffffffffffff1602179055508273ffffffffffffffffffffffffffffffffffffffff167f1b452462b371f0b1fe9691fc8b7ba96e05962067f6beb9a744cd2c78be0322dc838360405161049c929190610f07565b60405180910390a25b505050565b7f000000000000000000000000000000000000000000000000000000000000000081565b5f600580549050905090565b60065481565b5f5f5f5f8511610525576040517f08c379a000000000000000000000000000000000000000000000000000000000815260040161051c90610f73565b60405180910390fd5b6127105f54866105359190610fbe565b61053f919061102c565b9250612710600154866105529190610fbe565b61055c919061102c565b915081838661056b919061105c565b610575919061105c565b90507f000000000000000000000000000000000000000000000000000000000000000073ffffffffffffffffffffffffffffffffffffffff166323b872dd3330886040518463ffffffff1660e01b81526004016105d49392919061108f565b6020604051808303815f875af11580156105f0573d5f5f3e3d5ffd5b505050506040513d601f19601f8201168201806040525081019061061491906110ee565b507f000000000000000000000000000000000000000000000000000000000000000073ffffffffffffffffffffffffffffffffffffffff166383adc2ff846040518263ffffffff1660e01b815260040161066e9190610ca0565b5f604051808303815f87803b158015610685575f5ffd5b505af1158015610697573d5f5f3e3d5ffd5b505050507f000000000000000000000000000000000000000000000000000000000000000073ffffffffffffffffffffffffffffffffffffffff1663a9059cbb60025f9054906101000a900473ffffffffffffffffffffffffffffffffffffffff16846040518363ffffffff1660e01b8152600401610717929190611119565b6020604051808303815f875af1158015610733573d5f5f3e3d5ffd5b505050506040513d601f19601f8201168201806040525081019061075791906110ee565b507f000000000000000000000000000000000000000000000000000000000000000073ffffffffffffffffffffffffffffffffffffffff1663a9059cbb85836040518363ffffffff1660e01b81526004016107b3929190611119565b6020604051808303815f875af11580156107cf573d5f5f3e3d5ffd5b505050506040513d601f19601f820116820180604052508101906107f391906110ee565b508460065f8282546108059190611140565b925050819055508260075f82825461081d9190611140565b925050819055503373ffffffffffffffffffffffffffffffffffffffff167f0dbf6466fc85a1dfc483035dd7c09f8326cee61f37a6cfa6c7097da85140e060868585856040516108709493929190611173565b60405180910390a29250925092565b5f5481565b60015481565b60035f9054906101000a900473ffffffffffffffffffffffffffffffffffffffff1673ffffffffffffffffffffffffffffffffffffffff163373ffffffffffffffffffffffffffffffffffffffff1614610919576040517f08c379a000000000000000000000000000000000000000000000000000000000815260040161091090610e9f565b60405180910390fd5b61271081836109289190611140565b1115610969576040517f08c379a000000000000000000000000000000000000000000000000000000000815260040161096090611200565b60405180910390fd5b815f81905550806001819055505050565b60025f9054906101000a900473ffffffffffffffffffffffffffffffffffffffff1681565b60075481565b600581815481106109b4575f80fd5b905f5260205f20015f915054906101000a900473ffffffffffffffffffffffffffffffffffffffff1681565b6004602052805f5260405f205f915054906101000a900460ff1681565b60035f9054906101000a900473ffffffffffffffffffffffffffffffffffffffff1673ffffffffffffffffffffffffffffffffffffffff163373ffffffffffffffffffffffffffffffffffffffff1614610a8c576040517f08c379a0000000000000000000000000000000000000000000000000000000008152600401610a8390610e9f565b60405180910390fd5b8060025f6101000a81548173ffffffffffffffffffffffffffffffffffffffff021916908373ffffffffffffffffffffffffffffffffffffffff16021790555050565b60035f9054906101000a900473ffffffffffffffffffffffffffffffffffffffff1681565b5f5ffd5b5f5ffd5b5f73ffffffffffffffffffffffffffffffffffffffff82169050919050565b5f610b2582610afc565b9050919050565b610b3581610b1b565b8114610b3f575f5ffd5b50565b5f81359050610b5081610b2c565b92915050565b5f5ffd5b5f5ffd5b5f5ffd5b5f5f83601f840112610b7757610b76610b56565b5b8235905067ffffffffffffffff811115610b9457610b93610b5a565b5b602083019150836001820283011115610bb057610baf610b5e565b5b9250929050565b5f5f5f60408486031215610bce57610bcd610af4565b5b5f610bdb86828701610b42565b935050602084013567ffffffffffffffff811115610bfc57610bfb610af8565b5b610c0886828701610b62565b92509250509250925092565b5f819050919050565b5f610c37610c32610c2d84610afc565b610c14565b610afc565b9050919050565b5f610c4882610c1d565b9050919050565b5f610c5982610c3e565b9050919050565b610c6981610c4f565b82525050565b5f602082019050610c825f830184610c60565b92915050565b5f819050919050565b610c9a81610c88565b82525050565b5f602082019050610cb35f830184610c91565b92915050565b610cc281610c88565b8114610ccc575f5ffd5b50565b5f81359050610cdd81610cb9565b92915050565b5f5f60408385031215610cf957610cf8610af4565b5b5f610d0685828601610ccf565b9250506020610d1785828601610b42565b9150509250929050565b5f606082019050610d345f830186610c91565b610d416020830185610c91565b610d4e6040830184610c91565b949350505050565b5f5f60408385031215610d6c57610d6b610af4565b5b5f610d7985828601610ccf565b9250506020610d8a85828601610ccf565b9150509250929050565b610d9d81610b1b565b82525050565b5f602082019050610db65f830184610d94565b92915050565b5f60208284031215610dd157610dd0610af4565b5b5f610dde84828501610ccf565b91505092915050565b5f60208284031215610dfc57610dfb610af4565b5b5f610e0984828501610b42565b91505092915050565b5f8115159050919050565b610e2681610e12565b82525050565b5f602082019050610e3f5f830184610e1d565b92915050565b5f82825260208201905092915050565b7f4e6f742061646d696e00000000000000000000000000000000000000000000005f82015250565b5f610e89600983610e45565b9150610e9482610e55565b602082019050919050565b5f6020820190508181035f830152610eb681610e7d565b9050919050565b828183375f83830152505050565b5f601f19601f8301169050919050565b5f610ee68385610e45565b9350610ef3838584610ebd565b610efc83610ecb565b840190509392505050565b5f6020820190508181035f830152610f20818486610edb565b90509392505050565b7f5a65726f206665650000000000000000000000000000000000000000000000005f82015250565b5f610f5d600883610e45565b9150610f6882610f29565b602082019050919050565b5f6020820190508181035f830152610f8a81610f51565b9050919050565b7f4e487b71000000000000000000000000000000000000000000000000000000005f52601160045260245ffd5b5f610fc882610c88565b9150610fd383610c88565b9250828202610fe181610c88565b91508282048414831517610ff857610ff7610f91565b5b5092915050565b7f4e487b71000000000000000000000000000000000000000000000000000000005f52601260045260245ffd5b5f61103682610c88565b915061104183610c88565b92508261105157611050610fff565b5b828204905092915050565b5f61106682610c88565b915061107183610c88565b925082820390508181111561108957611088610f91565b5b92915050565b5f6060820190506110a25f830186610d94565b6110af6020830185610d94565b6110bc6040830184610c91565b949350505050565b6110cd81610e12565b81146110d7575f5ffd5b50565b5f815190506110e8816110c4565b92915050565b5f6020828403121561110357611102610af4565b5b5f611110848285016110da565b91505092915050565b5f60408201905061112c5f830185610d94565b6111396020830184610c91565b9392505050565b5f61114a82610c88565b915061115583610c88565b925082820190508082111561116d5761116c610f91565b5b92915050565b5f6080820190506111865f830187610c91565b6111936020830186610c91565b6111a06040830185610c91565b6111ad6060830184610c91565b95945050505050565b7f45786365656473203130302500000000000000000000000000000000000000005f82015250565b5f6111ea600c83610e45565b91506111f5826111b6565b602082019050919050565b5f6020820190508181035f830152611217816111de565b905091905056fea26469706673582212207fcf0faef34889babb2df83daedd94ee62c2891b6d2a7dcf2405746d39ec2af364736f6c63430008210033","linkReferences":{}},"methodIdentifiers":{"admin()":"f851a440","dAppCount()":"2957b4bd","dAppList(uint256)":"bb6a99d9","goodDollar()":"119e5bf3","protocolBPS()":"7c393cfd","protocolTreasury()":"803db96d","registerDApp(address,string)":"078a8be9","registeredDApps(address)":"dea05bad","setFeeSplit(uint256,uint256)":"7e6335c7","setTreasury(address)":"f0f44260","splitFee(uint256,address)":"64d6def9","totalFeesCollected()":"60c6d8ae","totalUBIFunded()":"8581ddf5","ubiBPS()":"66521893"},"id":0}