{"abi":[{"type":"constructor","inputs":[{"name":"_goodDollar","type":"address","internalType":"address"},{"name":"_treasury","type":"address","internalType":"address"},{"name":"_admin","type":"address","internalType":"address"}],"stateMutability":"nonpayable"},{"type":"receive","stateMutability":"payable"},{"type":"function","name":"admin","inputs":[],"outputs":[{"name":"","type":"address","internalType":"address"}],"stateMutability":"view"},{"type":"function","name":"claimableBalance","inputs":[],"outputs":[{"name":"","type":"uint256","internalType":"uint256"}],"stateMutability":"view"},{"type":"function","name":"dAppCount","inputs":[],"outputs":[{"name":"","type":"uint256","internalType":"uint256"}],"stateMutability":"view"},{"type":"function","name":"dAppList","inputs":[{"name":"","type":"uint256","internalType":"uint256"}],"outputs":[{"name":"","type":"address","internalType":"address"}],"stateMutability":"view"},{"type":"function","name":"goodDollar","inputs":[],"outputs":[{"name":"","type":"address","internalType":"contract IGoodDollarToken"}],"stateMutability":"view"},{"type":"function","name":"protocolBPS","inputs":[],"outputs":[{"name":"","type":"uint256","internalType":"uint256"}],"stateMutability":"view"},{"type":"function","name":"protocolTreasury","inputs":[],"outputs":[{"name":"","type":"address","internalType":"address"}],"stateMutability":"view"},{"type":"function","name":"registerDApp","inputs":[{"name":"dApp","type":"address","internalType":"address"},{"name":"dAppName","type":"string","internalType":"string"}],"outputs":[],"stateMutability":"nonpayable"},{"type":"function","name":"registeredDApps","inputs":[{"name":"","type":"address","internalType":"address"}],"outputs":[{"name":"","type":"bool","internalType":"bool"}],"stateMutability":"view"},{"type":"function","name":"releaseToUBI","inputs":[{"name":"recipient","type":"address","internalType":"address"},{"name":"amount","type":"uint256","internalType":"uint256"}],"outputs":[],"stateMutability":"nonpayable"},{"type":"function","name":"setFeeSplit","inputs":[{"name":"_ubiBPS","type":"uint256","internalType":"uint256"},{"name":"_protocolBPS","type":"uint256","internalType":"uint256"}],"outputs":[],"stateMutability":"nonpayable"},{"type":"function","name":"setTreasury","inputs":[{"name":"_treasury","type":"address","internalType":"address"}],"outputs":[],"stateMutability":"nonpayable"},{"type":"function","name":"setUBIRecipient","inputs":[{"name":"_ubiRecipient","type":"address","internalType":"address"}],"outputs":[],"stateMutability":"nonpayable"},{"type":"function","name":"splitFee","inputs":[{"name":"totalFee","type":"uint256","internalType":"uint256"},{"name":"dAppRecipient","type":"address","internalType":"address"}],"outputs":[{"name":"ubiShare","type":"uint256","internalType":"uint256"},{"name":"protocolShare","type":"uint256","internalType":"uint256"},{"name":"dAppShare","type":"uint256","internalType":"uint256"}],"stateMutability":"nonpayable"},{"type":"function","name":"splitFeeToken","inputs":[{"name":"totalFee","type":"uint256","internalType":"uint256"},{"name":"dAppRecipient","type":"address","internalType":"address"},{"name":"token","type":"address","internalType":"address"}],"outputs":[{"name":"ubiShare","type":"uint256","internalType":"uint256"},{"name":"protocolShare","type":"uint256","internalType":"uint256"},{"name":"dAppShare","type":"uint256","internalType":"uint256"}],"stateMutability":"nonpayable"},{"type":"function","name":"totalFeesCollected","inputs":[],"outputs":[{"name":"","type":"uint256","internalType":"uint256"}],"stateMutability":"view"},{"type":"function","name":"totalUBIFunded","inputs":[],"outputs":[{"name":"","type":"uint256","internalType":"uint256"}],"stateMutability":"view"},{"type":"function","name":"ubiBPS","inputs":[],"outputs":[{"name":"","type":"uint256","internalType":"uint256"}],"stateMutability":"view"},{"type":"function","name":"ubiRecipient","inputs":[],"outputs":[{"name":"","type":"address","internalType":"address"}],"stateMutability":"view"},{"type":"function","name":"withdrawETH","inputs":[],"outputs":[],"stateMutability":"nonpayable"},{"type":"event","name":"DAppRegistered","inputs":[{"name":"dApp","type":"address","indexed":true,"internalType":"address"},{"name":"name","type":"string","indexed":false,"internalType":"string"}],"anonymous":false},{"type":"event","name":"FeeSplit","inputs":[{"name":"dApp","type":"address","indexed":true,"internalType":"address"},{"name":"totalFee","type":"uint256","indexed":false,"internalType":"uint256"},{"name":"ubiShare","type":"uint256","indexed":false,"internalType":"uint256"},{"name":"protocolShare","type":"uint256","indexed":false,"internalType":"uint256"},{"name":"dAppShare","type":"uint256","indexed":false,"internalType":"uint256"}],"anonymous":false}],"bytecode":{"object":"0x60a0346100d957601f61103838819003918201601f19168301916001600160401b038311848410176100dd578084926060946040528339810103126100d957610047816100f1565b906100606040610059602084016100f1565b92016100f1565b610d055f556106836001556001600160a01b03928316608052600280546001600160a01b03199081169385169384179091556003805482169490921693909317905560048054909216179055604051610f32908161010682396080518181816102ef0152818161086201528181610a8d0152610bb40152f35b5f80fd5b634e487b7160e01b5f52604160045260245ffd5b51906001600160a01b03821682036100d95756fe6080604052600436101561001a575b3615610018575f80fd5b005b5f5f3560e01c8063078a8be914610c705780630fc1c0c014610be3578063119e5bf314610b9f578063212e7c3114610a5f5780632957b4bd14610a4257806360c6d8ae14610a2557806364d6def9146107de57806366521893146107c15780637c393cfd146107a35780637cb4eea2146104a45780637e6335c714610428578063803db96d146103ff5780638581ddf5146103e1578063bb6a99d91461039d578063c33f0d4e14610374578063c4f45423146102c2578063dea05bad14610283578063e086e5ec1461017e578063f0f442601461012c5763f851a44014610101575061000e565b346101295780600319360112610129576003546040516001600160a01b039091168152602090f35b80fd5b503461012957602036600319011261012957610146610dba565b61015b60018060a01b03600354163314610e12565b60018060a01b03166bffffffffffffffffffffffff60a01b600254161760025580f35b50346101295780600319360112610129576101a460018060a01b03600354163314610e12565b4780156102555760025482918291829182916001600160a01b03165af13d15610250573d67ffffffffffffffff811161023c57604051906101ef601f8201601f191660200183610e4a565b81528260203d92013e5b156102015780f35b60405162461bcd60e51b8152602060048201526013602482015272115512081d1c985b9cd9995c8819985a5b1959606a1b6044820152606490fd5b634e487b7160e01b83526041600452602483fd5b6101f9565b60405162461bcd60e51b81526020600482015260066024820152650dcde408aa8960d31b6044820152606490fd5b50346101295760203660031901126101295760209060ff906040906001600160a01b036102ae610dba565b168152600584522054166040519015158152f35b50346101295780600319360112610129576040516370a0823160e01b8152306004820152906020826024817f00000000000000000000000000000000000000000000000000000000000000006001600160a01b03165afa9081156103685790610331575b602090604051908152f35b506020813d602011610360575b8161034b60209383610e4a565b8101031261035c5760209051610326565b5f80fd5b3d915061033e565b604051903d90823e3d90fd5b50346101295780600319360112610129576004546040516001600160a01b039091168152602090f35b503461012957602036600319011261012957600435906006548210156101295760206103c883610de6565b905460405160039290921b1c6001600160a01b03168152f35b50346101295780600319360112610129576020600854604051908152f35b50346101295780600319360112610129576002546040516001600160a01b039091168152602090f35b5034610129576040366003190112610129576004356024359061045660018060a01b03600354163314610e12565b6127106104638383610eef565b1161047057825560015580f35b60405162461bcd60e51b815260206004820152600c60248201526b45786365656473203130302560a01b6044820152606490fd5b5034610129576060366003190112610129576004356104c1610dd0565b906044356001600160a01b0381169081900361079f576104e2821515610e84565b6004546001600160a01b03161561076357612710610501855484610ebb565b049161271061051260015483610ebb565b0493610527856105228685610ee2565b610ee2565b6040516323b872dd60e01b81523360048201523060248201526044810184905290936020826064818b855af191821561071e5761059d92610746575b506004805460405163a9059cbb60e01b81526001600160a01b03909116918101919091526024810187905291602090839081906044820190565b03818b855af191821561071e576105ea92610729575b5060025460405163a9059cbb60e01b81526001600160a01b0390911660048201526024810188905291602090839081906044820190565b03818b855af190811561071e5761063d936020938793610703575b5060405163a9059cbb60e01b81526001600160a01b0390911660048201526024810192909252909283919082908a9082906044820190565b03925af180156106f8576106c7949596506106cb575b5061066081600754610eef565b600755604080519182526020820185905281018590526060810182905233907f0dbf6466fc85a1dfc483035dd7c09f8326cee61f37a6cfa6c7097da85140e0609080608081015b0390a2604051938493846040919493926060820195825260208201520152565b0390f35b6106ec9060203d6020116106f1575b6106e48183610e4a565b810190610e6c565b610653565b503d6106da565b6040513d88823e3d90fd5b61071990853d87116106f1576106e48183610e4a565b610605565b6040513d8a823e3d90fd5b6107419060203d6020116106f1576106e48183610e4a565b6105b3565b61075e9060203d6020116106f1576106e48183610e4a565b610563565b60405162461bcd60e51b81526020600482015260146024820152731d589a549958da5c1a595b9d081b9bdd081cd95d60621b6044820152606490fd5b8380fd5b50346101295780600319360112610129576020600154604051908152f35b503461012957806003193601126101295760209054604051908152f35b503461035c57604036600319011261035c576004356107fb610dd0565b610806821515610e84565b6127106108145f5484610ebb565b049061271061082560015485610ebb565b0492610835846105228584610ee2565b6040516323b872dd60e01b8152336004820152306024820152604481018390529092906001600160a01b037f000000000000000000000000000000000000000000000000000000000000000016906020816064815f865af180156109fd57610a08575b50803b1561035c576040516383adc2ff60e01b8152600481018690525f8160248183865af180156109fd576109e6575b5060025460405163a9059cbb60e01b81526001600160a01b039091166004820152602481018790529060208280604481015b03818b855af190811561071e5761094c936020938793610703575060405163a9059cbb60e01b81526001600160a01b0390911660048201526024810192909252909283919082908a9082906044820190565b03925af180156106f8576106c7949596506109c9575b5061096f81600754610eef565b60075561097e84600854610eef565b600855604080519182526020820185905281018590526060810182905233907f0dbf6466fc85a1dfc483035dd7c09f8326cee61f37a6cfa6c7097da85140e0609080608081016106a7565b6109e19060203d6020116106f1576106e48183610e4a565b610962565b6109f39197505f90610e4a565b5f956108fa6108c8565b6040513d5f823e3d90fd5b610a209060203d6020116106f1576106e48183610e4a565b610898565b3461035c575f36600319011261035c576020600754604051908152f35b3461035c575f36600319011261035c576020600654604051908152f35b3461035c57604036600319011261035c57610a78610dba565b6040516370a0823160e01b81523060048201527f00000000000000000000000000000000000000000000000000000000000000006001600160a01b03169190602480359190602090829081875afa9081156109fd575f91610b6d575b508111610b315760405163a9059cbb60e01b81526001600160a01b03929092166004830152602482015290602090829060449082905f905af180156109fd57610b1957005b6100189060203d6020116106f1576106e48183610e4a565b60405162461bcd60e51b8152602060048201526014602482015273696e73756666696369656e742062616c616e636560601b6044820152606490fd5b90506020813d602011610b97575b81610b8860209383610e4a565b8101031261035c575184610ad4565b3d9150610b7b565b3461035c575f36600319011261035c576040517f00000000000000000000000000000000000000000000000000000000000000006001600160a01b03168152602090f35b3461035c57602036600319011261035c57610bfc610dba565b610c1160018060a01b03600354163314610e12565b6001600160a01b03168015610c3c576bffffffffffffffffffffffff60a01b60045416176004555f80f35b60405162461bcd60e51b815260206004820152600c60248201526b7a65726f206164647265737360a01b6044820152606490fd5b3461035c57604036600319011261035c57610c89610dba565b60243567ffffffffffffffff811161035c573660238201121561035c5780600401359167ffffffffffffffff831161035c57366024848401011161035c57610cdc60018060a01b03600354163314610e12565b6001600160a01b03165f8181526005602052604090205490929060ff1615610d0057005b825f52600560205260405f20600160ff1982541617905560065468010000000000000000811015610da6577f1b452462b371f0b1fe9691fc8b7ba96e05962067f6beb9a744cd2c78be0322dc92602492610d6283600160409501600655610de6565b81549060031b9088821b9160018060a01b03901b19161790558083519485936020855282602086015201848401375f828201840152601f01601f19168101030190a2005b634e487b7160e01b5f52604160045260245ffd5b600435906001600160a01b038216820361035c57565b602435906001600160a01b038216820361035c57565b600654811015610dfe5760065f5260205f2001905f90565b634e487b7160e01b5f52603260045260245ffd5b15610e1957565b60405162461bcd60e51b81526020600482015260096024820152682737ba1030b236b4b760b91b6044820152606490fd5b90601f8019910116810190811067ffffffffffffffff821117610da657604052565b9081602091031261035c5751801515810361035c5790565b15610e8b57565b60405162461bcd60e51b81526020600482015260086024820152675a65726f2066656560c01b6044820152606490fd5b81810292918115918404141715610ece57565b634e487b7160e01b5f52601160045260245ffd5b91908203918211610ece57565b91908201809211610ece5756fea26469706673582212202b9f20abcaf19a2373a6731bb47acd6c5a49f344390087a03c0ca707a25e7a6b64736f6c63430008210033","linkReferences":{}},"methodIdentifiers":{"admin()":"f851a440","claimableBalance()":"c4f45423","dAppCount()":"2957b4bd","dAppList(uint256)":"bb6a99d9","goodDollar()":"119e5bf3","protocolBPS()":"7c393cfd","protocolTreasury()":"803db96d","registerDApp(address,string)":"078a8be9","registeredDApps(address)":"dea05bad","releaseToUBI(address,uint256)":"212e7c31","setFeeSplit(uint256,uint256)":"7e6335c7","setTreasury(address)":"f0f44260","setUBIRecipient(address)":"0fc1c0c0","splitFee(uint256,address)":"64d6def9","splitFeeToken(uint256,address,address)":"7cb4eea2","totalFeesCollected()":"60c6d8ae","totalUBIFunded()":"8581ddf5","ubiBPS()":"66521893","ubiRecipient()":"c33f0d4e","withdrawETH()":"e086e5ec"},"id":26}