{"abi":[{"type":"constructor","inputs":[{"name":"_asset","type":"address","internalType":"address"},{"name":"_lendPool","type":"address","internalType":"address"},{"name":"_gToken","type":"address","internalType":"address"},{"name":"_vault","type":"address","internalType":"address"}],"stateMutability":"nonpayable"},{"type":"function","name":"asset","inputs":[],"outputs":[{"name":"","type":"address","internalType":"address"}],"stateMutability":"view"},{"type":"function","name":"deposit","inputs":[{"name":"amount","type":"uint256","internalType":"uint256"}],"outputs":[],"stateMutability":"nonpayable"},{"type":"function","name":"emergencyWithdraw","inputs":[],"outputs":[{"name":"","type":"uint256","internalType":"uint256"}],"stateMutability":"nonpayable"},{"type":"function","name":"gToken","inputs":[],"outputs":[{"name":"","type":"address","internalType":"address"}],"stateMutability":"view"},{"type":"function","name":"harvest","inputs":[],"outputs":[{"name":"profit","type":"uint256","internalType":"uint256"},{"name":"loss","type":"uint256","internalType":"uint256"}],"stateMutability":"nonpayable"},{"type":"function","name":"lendPool","inputs":[],"outputs":[{"name":"","type":"address","internalType":"contract IGoodLendPool"}],"stateMutability":"view"},{"type":"function","name":"paused","inputs":[],"outputs":[{"name":"","type":"bool","internalType":"bool"}],"stateMutability":"view"},{"type":"function","name":"totalAssets","inputs":[],"outputs":[{"name":"","type":"uint256","internalType":"uint256"}],"stateMutability":"view"},{"type":"function","name":"totalDeposited","inputs":[],"outputs":[{"name":"","type":"uint256","internalType":"uint256"}],"stateMutability":"view"},{"type":"function","name":"vault","inputs":[],"outputs":[{"name":"","type":"address","internalType":"address"}],"stateMutability":"view"},{"type":"function","name":"withdraw","inputs":[{"name":"amount","type":"uint256","internalType":"uint256"}],"outputs":[{"name":"","type":"uint256","internalType":"uint256"}],"stateMutability":"nonpayable"},{"type":"event","name":"Deposited","inputs":[{"name":"amount","type":"uint256","indexed":false,"internalType":"uint256"}],"anonymous":false},{"type":"event","name":"Harvested","inputs":[{"name":"profit","type":"uint256","indexed":false,"internalType":"uint256"},{"name":"loss","type":"uint256","indexed":false,"internalType":"uint256"}],"anonymous":false},{"type":"event","name":"Withdrawn","inputs":[{"name":"amount","type":"uint256","indexed":false,"internalType":"uint256"}],"anonymous":false},{"type":"error","name":"AssetMismatch","inputs":[]},{"type":"error","name":"IsPaused","inputs":[]},{"type":"error","name":"NotVault","inputs":[]}],"bytecode":{"object":"0x60a0346100db57601f610a2838819003918201601f19168301916001600160401b038311848410176100df578084926080946040528339810103126100db57610047816100f3565b90610054602082016100f3565b61006c6060610065604085016100f3565b93016100f3565b608093909352600180546001600160a01b039283166001600160a01b03199182161790915560028054938316938216939093179092555f805491909316911617905560405161092090816101088239608051818181610178015281816102e10152818161060c01526106c30152f35b5f80fd5b634e487b7160e01b5f52604160045260245ffd5b51906001600160a01b03821682036100db5756fe6080806040526004361015610012575f80fd5b5f905f3560e01c90816301e1d114146107f8575080632e1a7d4d1461063b57806338d52e0f146105f75780634641257d146104de5780635c975abb146104bc57806376ffb9bd14610494578063b6b55f251461028a578063b786e1e514610261578063db2e21bc146100de578063fbfa77cf146100b75763ff50abdc14610097575f80fd5b346100b457806003193601126100b4576020600354604051908152f35b80fd5b50346100b457806003193601126100b457546040516001600160a01b039091168152602090f35b50346100b457806003193601126100b45780546001600160a01b03163381900361025257602491600160ff196004541617600455602060018060a01b0360025416604051948580926370a0823160e01b82523060048301525afa92831561021157819361021e575b5080918361015e575b60208383600355604051908152f35b600154604051631a4ca37b60e21b81526001600160a01b037f000000000000000000000000000000000000000000000000000000000000000081166004830152602482019690965291851660448301529093919250602091849160649183918691165af180156102115781906101da575b60209250905f61014f565b506020823d602011610209575b816101f46020938361087b565b8101031261020557602091516101cf565b5f80fd5b3d91506101e7565b50604051903d90823e3d90fd5b9092506020813d60201161024a575b8161023a6020938361087b565b810103126102055751915f610146565b3d915061022d565b6362df054560e01b8252600482fd5b50346100b457806003193601126100b4576001546040516001600160a01b039091168152602090f35b5034610205576020366003190112610205575f54600435906001600160a01b0316338190036104855760ff60045416610476576040516323b872dd60e01b81526004810191909152306024820152604481018290527f0000000000000000000000000000000000000000000000000000000000000000906001600160a01b0382166020826064815f855af1908115610423575f9260209261045b575b5060015460405163095ea7b360e01b81526001600160a01b0390911660048201526024810186905292839160449183915af180156104235761042e575b506001546001600160a01b0316803b1561020557604051638b2a4df560e01b81526001600160a01b03929092166004830152602482018390523060448301525f908290606490829084905af180156104235761040e575b506003548181018091116103fa577f2a89b2e3d580398d6dc2db5e0f336b52602bbaa51afa9bb5cdf59239cf0d2bea91602091600355604051908152a180f35b634e487b7160e01b83526011600452602483fd5b61041b9192505f9061087b565b5f905f6103ba565b6040513d5f823e3d90fd5b61044f9060203d602011610454575b610447818361087b565b8101906108d2565b610363565b503d61043d565b61047190833d851161045457610447818361087b565b610326565b631309a56360e01b5f5260045ffd5b6362df054560e01b5f5260045ffd5b34610205575f366003190112610205576002546040516001600160a01b039091168152602090f35b34610205575f36600319011261020557602060ff600454166040519015158152f35b34610205575f366003190112610205575f546001600160a01b03163303610485576002546040516370a0823160e01b8152306004820152905f908190602090849060249082906001600160a01b03165afa918215610423575f926105c2575b600354604094508084111561059957505061055a600354836108b1565b916003555b7ffa07446fad45314351eb89109a154880278451332bb87f1824d435fe58da5939838051848152836020820152a182519182526020820152f35b80849294106105aa575b505061055f565b819250906105b7916108b1565b9060035583806105a3565b91506020833d6020116105ef575b816105dd6020938361087b565b8101031261020557604092519161053d565b3d91506105d0565b34610205575f366003190112610205576040517f00000000000000000000000000000000000000000000000000000000000000006001600160a01b03168152602090f35b34610205576020366003190112610205575f54600435906001600160a01b031633819003610485576002546040516370a0823160e01b8152306004820152908390602090839060249082906001600160a01b03165afa918215610423575f926107bc575b5092816020939261071795116107b4575b50600154604051631a4ca37b60e21b81527f00000000000000000000000000000000000000000000000000000000000000006001600160a01b03908116600483015260248201939093529282166044840152919384929091169082905f9082906064820190565b03925af18015610423575f90610781575b6003546020925081818111156107705750505f6003555b7f430648de173157e069201c943adb2d4e340e7cf5b27b1b09c9cb852f03d63b5682604051838152a1604051908152f35b610779916108b1565b60035561073f565b506020813d6020116107ac575b8161079b6020938361087b565b810103126102055760209051610728565b3d915061078e565b9050846106b0565b929150926020833d6020116107f0575b816107d96020938361087b565b81010312610205579151919290919061071761069f565b3d91506107cc565b34610205575f366003190112610205576002546370a0823160e01b8252306004830152602090829060249082906001600160a01b03165afa8015610423575f90610848575b602090604051908152f35b506020813d602011610873575b816108626020938361087b565b81010312610205576020905161083d565b3d9150610855565b90601f8019910116810190811067ffffffffffffffff82111761089d57604052565b634e487b7160e01b5f52604160045260245ffd5b919082039182116108be57565b634e487b7160e01b5f52601160045260245ffd5b9081602091031261020557518015158103610205579056fea2646970667358221220759faa5fa56db93aa7ab25784af6ccc56676aac8c08f40ca67fa5f52e494c1d864736f6c63430008210033","linkReferences":{}},"methodIdentifiers":{"asset()":"38d52e0f","deposit(uint256)":"b6b55f25","emergencyWithdraw()":"db2e21bc","gToken()":"76ffb9bd","harvest()":"4641257d","lendPool()":"b786e1e5","paused()":"5c975abb","totalAssets()":"01e1d114","totalDeposited()":"ff50abdc","vault()":"fbfa77cf","withdraw(uint256)":"2e1a7d4d"},"id":99}