{"abi":[{"type":"constructor","inputs":[{"name":"_asset","type":"address","internalType":"address"},{"name":"_lendPool","type":"address","internalType":"address"},{"name":"_gToken","type":"address","internalType":"address"},{"name":"_vault","type":"address","internalType":"address"}],"stateMutability":"nonpayable"},{"type":"function","name":"asset","inputs":[],"outputs":[{"name":"","type":"address","internalType":"address"}],"stateMutability":"view"},{"type":"function","name":"deposit","inputs":[{"name":"amount","type":"uint256","internalType":"uint256"}],"outputs":[],"stateMutability":"nonpayable"},{"type":"function","name":"emergencyWithdraw","inputs":[],"outputs":[{"name":"","type":"uint256","internalType":"uint256"}],"stateMutability":"nonpayable"},{"type":"function","name":"gToken","inputs":[],"outputs":[{"name":"","type":"address","internalType":"address"}],"stateMutability":"view"},{"type":"function","name":"harvest","inputs":[],"outputs":[{"name":"profit","type":"uint256","internalType":"uint256"},{"name":"loss","type":"uint256","internalType":"uint256"}],"stateMutability":"nonpayable"},{"type":"function","name":"lendPool","inputs":[],"outputs":[{"name":"","type":"address","internalType":"contract IGoodLendPool"}],"stateMutability":"view"},{"type":"function","name":"paused","inputs":[],"outputs":[{"name":"","type":"bool","internalType":"bool"}],"stateMutability":"view"},{"type":"function","name":"setVault","inputs":[{"name":"_vault","type":"address","internalType":"address"}],"outputs":[],"stateMutability":"nonpayable"},{"type":"function","name":"totalAssets","inputs":[],"outputs":[{"name":"","type":"uint256","internalType":"uint256"}],"stateMutability":"view"},{"type":"function","name":"totalDeposited","inputs":[],"outputs":[{"name":"","type":"uint256","internalType":"uint256"}],"stateMutability":"view"},{"type":"function","name":"vault","inputs":[],"outputs":[{"name":"","type":"address","internalType":"address"}],"stateMutability":"view"},{"type":"function","name":"withdraw","inputs":[{"name":"amount","type":"uint256","internalType":"uint256"}],"outputs":[{"name":"","type":"uint256","internalType":"uint256"}],"stateMutability":"nonpayable"},{"type":"event","name":"Deposited","inputs":[{"name":"amount","type":"uint256","indexed":false,"internalType":"uint256"}],"anonymous":false},{"type":"event","name":"Harvested","inputs":[{"name":"profit","type":"uint256","indexed":false,"internalType":"uint256"},{"name":"loss","type":"uint256","indexed":false,"internalType":"uint256"}],"anonymous":false},{"type":"event","name":"Withdrawn","inputs":[{"name":"amount","type":"uint256","indexed":false,"internalType":"uint256"}],"anonymous":false},{"type":"error","name":"AssetMismatch","inputs":[]},{"type":"error","name":"IsPaused","inputs":[]},{"type":"error","name":"NotVault","inputs":[]}],"bytecode":{"object":"0x60a0346100db57601f610b1338819003918201601f19168301916001600160401b038311848410176100df578084926080946040528339810103126100db57610047816100f3565b90610054602082016100f3565b61006c6060610065604085016100f3565b93016100f3565b608093909352600180546001600160a01b039283166001600160a01b03199182161790915560028054938316938216939093179092555f8054919093169116179055604051610a0b90816101088239608051818181610183015281816102ec015281816106f701526107ae0152f35b5f80fd5b634e487b7160e01b5f52604160045260245ffd5b51906001600160a01b03821682036100db5756fe6080806040526004361015610012575f80fd5b5f905f3560e01c90816301e1d114146108e3575080632e1a7d4d1461072657806338d52e0f146106e25780634641257d146105c95780635c975abb146105a75780636817031b146104c757806376ffb9bd1461049f578063b6b55f2514610295578063b786e1e51461026c578063db2e21bc146100e9578063fbfa77cf146100c25763ff50abdc146100a2575f80fd5b346100bf57806003193601126100bf576020600354604051908152f35b80fd5b50346100bf57806003193601126100bf57546040516001600160a01b039091168152602090f35b50346100bf57806003193601126100bf5780546001600160a01b03163381900361025d57602491600160ff196004541617600455602060018060a01b0360025416604051948580926370a0823160e01b82523060048301525afa92831561021c578193610229575b50809183610169575b60208383600355604051908152f35b600154604051631a4ca37b60e21b81526001600160a01b037f000000000000000000000000000000000000000000000000000000000000000081166004830152602482019690965291851660448301529093919250602091849160649183918691165af1801561021c5781906101e5575b60209250905f61015a565b506020823d602011610214575b816101ff60209383610966565b8101031261021057602091516101da565b5f80fd5b3d91506101f2565b50604051903d90823e3d90fd5b9092506020813d602011610255575b8161024560209383610966565b810103126102105751915f610151565b3d9150610238565b6362df054560e01b8252600482fd5b50346100bf57806003193601126100bf576001546040516001600160a01b039091168152602090f35b5034610210576020366003190112610210575f54600435906001600160a01b0316338190036104905760ff60045416610481576040516323b872dd60e01b81526004810191909152306024820152604481018290527f0000000000000000000000000000000000000000000000000000000000000000906001600160a01b0382166020826064815f855af190811561042e575f92602092610466575b5060015460405163095ea7b360e01b81526001600160a01b0390911660048201526024810186905292839160449183915af1801561042e57610439575b506001546001600160a01b0316803b1561021057604051638b2a4df560e01b81526001600160a01b03929092166004830152602482018390523060448301525f908290606490829084905af1801561042e57610419575b50600354818101809111610405577f2a89b2e3d580398d6dc2db5e0f336b52602bbaa51afa9bb5cdf59239cf0d2bea91602091600355604051908152a180f35b634e487b7160e01b83526011600452602483fd5b6104269192505f90610966565b5f905f6103c5565b6040513d5f823e3d90fd5b61045a9060203d60201161045f575b6104528183610966565b8101906109bd565b61036e565b503d610448565b61047c90833d851161045f576104528183610966565b610331565b631309a56360e01b5f5260045ffd5b6362df054560e01b5f5260045ffd5b34610210575f366003190112610210576002546040516001600160a01b039091168152602090f35b34610210576020366003190112610210576004356001600160a01b03811690819003610210575f546001600160a01b038116610557578115610512576001600160a01b031916175f55005b60405162461bcd60e51b815260206004820152601b60248201527f4c656e64696e6753747261746567793a207a65726f207661756c7400000000006044820152606490fd5b60405162461bcd60e51b815260206004820152602260248201527f4c656e64696e6753747261746567793a207661756c7420616c72656164792073604482015261195d60f21b6064820152608490fd5b34610210575f36600319011261021057602060ff600454166040519015158152f35b34610210575f366003190112610210575f546001600160a01b03163303610490576002546040516370a0823160e01b8152306004820152905f908190602090849060249082906001600160a01b03165afa91821561042e575f926106ad575b60035460409450808411156106845750506106456003548361099c565b916003555b7ffa07446fad45314351eb89109a154880278451332bb87f1824d435fe58da5939838051848152836020820152a182519182526020820152f35b8084929410610695575b505061064a565b819250906106a29161099c565b90600355838061068e565b91506020833d6020116106da575b816106c860209383610966565b81010312610210576040925191610628565b3d91506106bb565b34610210575f366003190112610210576040517f00000000000000000000000000000000000000000000000000000000000000006001600160a01b03168152602090f35b34610210576020366003190112610210575f54600435906001600160a01b031633819003610490576002546040516370a0823160e01b8152306004820152908390602090839060249082906001600160a01b03165afa91821561042e575f926108a7575b50928160209392610802951161089f575b50600154604051631a4ca37b60e21b81527f00000000000000000000000000000000000000000000000000000000000000006001600160a01b03908116600483015260248201939093529282166044840152919384929091169082905f9082906064820190565b03925af1801561042e575f9061086c575b60035460209250818181111561085b5750505f6003555b7f430648de173157e069201c943adb2d4e340e7cf5b27b1b09c9cb852f03d63b5682604051838152a1604051908152f35b6108649161099c565b60035561082a565b506020813d602011610897575b8161088660209383610966565b810103126102105760209051610813565b3d9150610879565b90508461079b565b929150926020833d6020116108db575b816108c460209383610966565b81010312610210579151919290919061080261078a565b3d91506108b7565b34610210575f366003190112610210576002546370a0823160e01b8252306004830152602090829060249082906001600160a01b03165afa801561042e575f90610933575b602090604051908152f35b506020813d60201161095e575b8161094d60209383610966565b810103126102105760209051610928565b3d9150610940565b90601f8019910116810190811067ffffffffffffffff82111761098857604052565b634e487b7160e01b5f52604160045260245ffd5b919082039182116109a957565b634e487b7160e01b5f52601160045260245ffd5b9081602091031261021057518015158103610210579056fea26469706673582212203a7ed81f030eeddb2d62edaaef9455fccebabe67304b92ee7fa180f9e4a86b6f64736f6c63430008210033","linkReferences":{}},"methodIdentifiers":{"asset()":"38d52e0f","deposit(uint256)":"b6b55f25","emergencyWithdraw()":"db2e21bc","gToken()":"76ffb9bd","harvest()":"4641257d","lendPool()":"b786e1e5","paused()":"5c975abb","setVault(address)":"6817031b","totalAssets()":"01e1d114","totalDeposited()":"ff50abdc","vault()":"fbfa77cf","withdraw(uint256)":"2e1a7d4d"},"id":22}