{"abi":[{"type":"constructor","inputs":[{"name":"_admin","type":"address","internalType":"address"},{"name":"_ubiPool","type":"address","internalType":"address"},{"name":"_lifiAggregator","type":"address","internalType":"address"},{"name":"_nativeBridge","type":"address","internalType":"address"},{"name":"_fastWithdrawalLP","type":"address","internalType":"address"}],"stateMutability":"nonpayable"},{"type":"receive","stateMutability":"payable"},{"type":"function","name":"BPS","inputs":[],"outputs":[{"name":"","type":"uint256","internalType":"uint256"}],"stateMutability":"view"},{"type":"function","name":"L1_CHAIN_ID","inputs":[],"outputs":[{"name":"","type":"uint256","internalType":"uint256"}],"stateMutability":"view"},{"type":"function","name":"L2_CHAIN_ID","inputs":[],"outputs":[{"name":"","type":"uint256","internalType":"uint256"}],"stateMutability":"view"},{"type":"function","name":"UBI_FEE_SHARE","inputs":[],"outputs":[{"name":"","type":"uint256","internalType":"uint256"}],"stateMutability":"view"},{"type":"function","name":"admin","inputs":[],"outputs":[{"name":"","type":"address","internalType":"address"}],"stateMutability":"view"},{"type":"function","name":"batchSetTokenMappings","inputs":[{"name":"l2Tokens","type":"address[]","internalType":"address[]"},{"name":"chainIds","type":"uint256[]","internalType":"uint256[]"},{"name":"destTokens","type":"address[]","internalType":"address[]"}],"outputs":[],"stateMutability":"nonpayable"},{"type":"function","name":"bridgeETH","inputs":[{"name":"destChainId","type":"uint256","internalType":"uint256"},{"name":"receiver","type":"address","internalType":"address"},{"name":"minOutput","type":"uint256","internalType":"uint256"},{"name":"deadline","type":"uint256","internalType":"uint256"},{"name":"useFastWithdrawal","type":"bool","internalType":"bool"}],"outputs":[{"name":"requestId","type":"uint256","internalType":"uint256"}],"stateMutability":"payable"},{"type":"function","name":"bridgeTokens","inputs":[{"name":"token","type":"address","internalType":"address"},{"name":"amount","type":"uint256","internalType":"uint256"},{"name":"destChainId","type":"uint256","internalType":"uint256"},{"name":"receiver","type":"address","internalType":"address"},{"name":"minOutput","type":"uint256","internalType":"uint256"},{"name":"deadline","type":"uint256","internalType":"uint256"},{"name":"useFastWithdrawal","type":"bool","internalType":"bool"}],"outputs":[{"name":"requestId","type":"uint256","internalType":"uint256"}],"stateMutability":"nonpayable"},{"type":"function","name":"fastWithdrawalLP","inputs":[],"outputs":[{"name":"","type":"address","internalType":"contract IFastWithdrawalLP"}],"stateMutability":"view"},{"type":"function","name":"getRequest","inputs":[{"name":"requestId","type":"uint256","internalType":"uint256"}],"outputs":[{"name":"","type":"tuple","internalType":"struct MultiChainBridge.BridgeRequest","components":[{"name":"user","type":"address","internalType":"address"},{"name":"srcToken","type":"address","internalType":"address"},{"name":"amount","type":"uint256","internalType":"uint256"},{"name":"destChainId","type":"uint256","internalType":"uint256"},{"name":"destToken","type":"address","internalType":"address"},{"name":"destReceiver","type":"address","internalType":"address"},{"name":"routeType","type":"uint8","internalType":"enum MultiChainBridge.RouteType"},{"name":"timestamp","type":"uint256","internalType":"uint256"},{"name":"completed","type":"bool","internalType":"bool"}]}],"stateMutability":"view"},{"type":"function","name":"getRouteInfo","inputs":[{"name":"destChainId","type":"uint256","internalType":"uint256"},{"name":"useFastWithdrawal","type":"bool","internalType":"bool"}],"outputs":[{"name":"routeType","type":"uint8","internalType":"enum MultiChainBridge.RouteType"},{"name":"description","type":"string","internalType":"string"}],"stateMutability":"pure"},{"type":"function","name":"getUserRequests","inputs":[{"name":"user","type":"address","internalType":"address"}],"outputs":[{"name":"","type":"uint256[]","internalType":"uint256[]"}],"stateMutability":"view"},{"type":"function","name":"lifiAggregator","inputs":[],"outputs":[{"name":"","type":"address","internalType":"contract ILiFiBridgeAggregator"}],"stateMutability":"view"},{"type":"function","name":"nativeBridge","inputs":[],"outputs":[{"name":"","type":"address","internalType":"contract IGoodDollarBridgeL2"}],"stateMutability":"view"},{"type":"function","name":"requestCount","inputs":[],"outputs":[{"name":"","type":"uint256","internalType":"uint256"}],"stateMutability":"view"},{"type":"function","name":"requests","inputs":[{"name":"","type":"uint256","internalType":"uint256"}],"outputs":[{"name":"user","type":"address","internalType":"address"},{"name":"srcToken","type":"address","internalType":"address"},{"name":"amount","type":"uint256","internalType":"uint256"},{"name":"destChainId","type":"uint256","internalType":"uint256"},{"name":"destToken","type":"address","internalType":"address"},{"name":"destReceiver","type":"address","internalType":"address"},{"name":"routeType","type":"uint8","internalType":"enum MultiChainBridge.RouteType"},{"name":"timestamp","type":"uint256","internalType":"uint256"},{"name":"completed","type":"bool","internalType":"bool"}],"stateMutability":"view"},{"type":"function","name":"routingFeeBps","inputs":[],"outputs":[{"name":"","type":"uint256","internalType":"uint256"}],"stateMutability":"view"},{"type":"function","name":"setFastWithdrawalLP","inputs":[{"name":"_lp","type":"address","internalType":"address"}],"outputs":[],"stateMutability":"nonpayable"},{"type":"function","name":"setLiFiAggregator","inputs":[{"name":"_agg","type":"address","internalType":"address"}],"outputs":[],"stateMutability":"nonpayable"},{"type":"function","name":"setNativeBridge","inputs":[{"name":"_bridge","type":"address","internalType":"address"}],"outputs":[],"stateMutability":"nonpayable"},{"type":"function","name":"setRoutingFeeBps","inputs":[{"name":"bps","type":"uint256","internalType":"uint256"}],"outputs":[],"stateMutability":"nonpayable"},{"type":"function","name":"setSupportedChain","inputs":[{"name":"chainId","type":"uint256","internalType":"uint256"},{"name":"supported","type":"bool","internalType":"bool"}],"outputs":[],"stateMutability":"nonpayable"},{"type":"function","name":"setTokenMapping","inputs":[{"name":"l2Token","type":"address","internalType":"address"},{"name":"destChainId","type":"uint256","internalType":"uint256"},{"name":"destToken","type":"address","internalType":"address"}],"outputs":[],"stateMutability":"nonpayable"},{"type":"function","name":"setUBIPool","inputs":[{"name":"_pool","type":"address","internalType":"address"}],"outputs":[],"stateMutability":"nonpayable"},{"type":"function","name":"supportedChains","inputs":[{"name":"","type":"uint256","internalType":"uint256"}],"outputs":[{"name":"","type":"bool","internalType":"bool"}],"stateMutability":"view"},{"type":"function","name":"tokenMappings","inputs":[{"name":"","type":"address","internalType":"address"},{"name":"","type":"uint256","internalType":"uint256"}],"outputs":[{"name":"","type":"address","internalType":"address"}],"stateMutability":"view"},{"type":"function","name":"ubiPool","inputs":[],"outputs":[{"name":"","type":"address","internalType":"address"}],"stateMutability":"view"},{"type":"function","name":"userRequests","inputs":[{"name":"","type":"address","internalType":"address"},{"name":"","type":"uint256","internalType":"uint256"}],"outputs":[{"name":"","type":"uint256","internalType":"uint256"}],"stateMutability":"view"},{"type":"function","name":"withdrawProtocolFees","inputs":[{"name":"token","type":"address","internalType":"address"},{"name":"amount","type":"uint256","internalType":"uint256"},{"name":"to","type":"address","internalType":"address"}],"outputs":[],"stateMutability":"nonpayable"},{"type":"event","name":"BridgeCompleted","inputs":[{"name":"requestId","type":"uint256","indexed":true,"internalType":"uint256"}],"anonymous":false},{"type":"event","name":"BridgeInitiated","inputs":[{"name":"requestId","type":"uint256","indexed":true,"internalType":"uint256"},{"name":"user","type":"address","indexed":true,"internalType":"address"},{"name":"srcToken","type":"address","indexed":false,"internalType":"address"},{"name":"amount","type":"uint256","indexed":false,"internalType":"uint256"},{"name":"destChainId","type":"uint256","indexed":false,"internalType":"uint256"},{"name":"destToken","type":"address","indexed":false,"internalType":"address"},{"name":"routeType","type":"uint8","indexed":false,"internalType":"enum MultiChainBridge.RouteType"}],"anonymous":false},{"type":"event","name":"ChainSupportUpdated","inputs":[{"name":"chainId","type":"uint256","indexed":false,"internalType":"uint256"},{"name":"supported","type":"bool","indexed":false,"internalType":"bool"}],"anonymous":false},{"type":"event","name":"RoutingFeeCollected","inputs":[{"name":"token","type":"address","indexed":false,"internalType":"address"},{"name":"totalFee","type":"uint256","indexed":false,"internalType":"uint256"},{"name":"ubiShare","type":"uint256","indexed":false,"internalType":"uint256"}],"anonymous":false},{"type":"event","name":"TokenMappingUpdated","inputs":[{"name":"l2Token","type":"address","indexed":false,"internalType":"address"},{"name":"destChainId","type":"uint256","indexed":false,"internalType":"uint256"},{"name":"destToken","type":"address","indexed":false,"internalType":"address"}],"anonymous":false},{"type":"error","name":"AlreadyOnL2","inputs":[]},{"type":"error","name":"InsufficientValue","inputs":[]},{"type":"error","name":"NoTokenMapping","inputs":[{"name":"token","type":"address","internalType":"address"},{"name":"chainId","type":"uint256","internalType":"uint256"}]},{"type":"error","name":"NotAdmin","inputs":[]},{"type":"error","name":"TransferFailed","inputs":[]},{"type":"error","name":"UnsupportedChain","inputs":[{"name":"chainId","type":"uint256","internalType":"uint256"}]},{"type":"error","name":"ZeroAddress","inputs":[]},{"type":"error","name":"ZeroAmount","inputs":[]}],"bytecode":{"object":"0x60803461021757601f611dbb38819003918201601f19168301916001600160401b0383118484101761021b5780849260a094604052833981010312610217576100478161022f565b906100546020820161022f565b6100606040830161022f565b9061007960806100726060860161022f565b940161022f565b5f80546001600160a01b03199081166001600160a01b03978816178255600180548216948816949094178455600380548216958816959095179094556004805485169587169590951790945560058054909316941693909317815560025560066020527f3e5fec24aa4dc4e5aee2e025e51e1392c72a2500577559fae9665c6d52bd6a31805460ff1990811684179091557f4da38fc8e544afc56a4c2a17752b8ddb67d8e23ac4583c9029d2e2d1dbe6c98880548216841790557f9dcd3e006a0d0d67c4efc4bb0e506a3dcae46f65947f161cbeba81508bec1a0680548216841790557fba4c46963e409660aa71f635e8f0eed81a82bb609c0ab9df500834686c507ff580548216841790557f6854f1c849dfac0ad3125eae39882280e4bfbd2c2279d71687f49e59bccd497080548216841790557f7801d1c83a83dfc069425b0cd3cfee3901116f5c0281c91b30b04f6d53b52b13805482168417905561a86a9091527f9a265cf3f2ce6b8601efd50b0936055f9665f8be774e810eebb5be9ea527b55280549091169091179055604051611b7790816102448239f35b5f80fd5b634e487b7160e01b5f52604160045260245ffd5b51906001600160a01b03821682036102175756fe608080604052600436101561001c575b50361561001a575f80fd5b005b5f905f3560e01c90816301e3e0441461106457508063040a12641461101b5780630d12394b14610f08578063124f44de14610b3c5780631a0b79bf14610b135780631cde7ee814610aca5780631e09a743146108d957806322f73b4c14610874578063249d39e914610857578063263cb6b6146108005780632f90b184146107e45780633eac57a71461074d57806340929e731461070157806346c6f5f41461066f5780634f3f998f146106265780635083d86b146105dd578063548d496f146105ae5780635badbe4c146105905780636f8dce251461057357806374484b321461054a57806381d12c58146104985780638417d3c21461047b5780638a75724614610452578063a06f7da714610429578063b337cf7414610374578063c109776914610356578063c58343ef146101fe578063ebd7362f1461018c5763f851a4400361000f5734610189578060031936011261018957546040516001600160a01b039091168152602090f35b80fd5b5034610189576020366003190112610189578054600435906001600160a01b031633036101ef57606481116101c15760025580f35b60405162461bcd60e51b81526020600482015260066024820152654d617820312560d01b6044820152606490fd5b637bfa4b9f60e01b8252600482fd5b503461018957602036600319011261018957604081610120926101008351610225816116ba565b82815282602082015282858201528260608201528260808201528260a08201528260c08201528260e0820152015260043581526009602052206040519061026b826116ba565b80546001600160a01b03908116835260018201548116602084019081526002830154604085019081526003840154606086019081526004850154841660808701908152600586015494851660a08881019182529496956103459560c08a0195929492916102dc911c60ff1686611776565b600687015460e08a0190815260079097015460ff1615156101008a01908152604080519a516001600160a01b039081168c5299518a1660208c01529151918a019190915290516060890152905186166080880152905190941660a08601525160c0850190611670565b5160e0830152511515610100820152f35b50346101895780600319360112610189576020600254604051908152f35b5034610189576020366003190112610189576001600160a01b036103966115e0565b168152600a60205260408120604051908160208254918281520190819285526020852090855b81811061041357505050826103d29103836116eb565b604051928392602084019060208552518091526040840192915b8181106103fa575050500390f35b82518452859450602093840193909201916001016103ec565b82548452602090930192600192830192016103bc565b50346101895780600319360112610189576001546040516001600160a01b039091168152602090f35b50346101895780600319360112610189576003546040516001600160a01b039091168152602090f35b5034610189578060031936011261018957602060405161a4558152f35b503461018957602036600319011261018957604061012091600435815260096020522060018060a01b038154169060018060a01b036001820154169061053b6002820154600383015460018060a01b036004850154169060058501549260ff600760068801549701541696604051988952602089015260408801526060870152608086015260018060a01b03811660a086015260ff60c086019160a01c16611670565b60e08301521515610100820152f35b50346101895780600319360112610189576005546040516001600160a01b039091168152602090f35b50346101895780600319360112610189576020604051610d058152f35b50346101895780600319360112610189576020600854604051908152f35b50346101895760203660031901126101895760ff60406020926004358152600684522054166040519015158152f35b5034610189576020366003190112610189576105f76115e0565b81546001600160a01b031633036101ef5760018060a01b03166001600160601b0360a01b600454161760045580f35b5034610189576020366003190112610189576106406115e0565b81546001600160a01b031633036101ef5760018060a01b03166001600160601b0360a01b600154161760015580f35b50346101895760403660031901126101895760043561068c6115f6565b82546001600160a01b031633036106f257816040917f3867ef478c2fcf9f1d860353178b53a6a5b10cdee0ab40aacda7ca6b38b86d7393855260066020526106e2818487209060ff801983541691151516179055565b825191825215156020820152a180f35b637bfa4b9f60e01b8352600483fd5b5034610189576040366003190112610189576020906001600160a01b036107266115e0565b168152600782526040812060243582528252604060018060a01b0391205416604051908152f35b50346101895761075c36611605565b8354909392906001600160a01b031633036106f2576001600160a01b03908116808452600760209081526040808620858752825280862080546001600160a01b031916979094169687179093558251918252810192909252810192909252907f8c1d62458596f974fefd3071a43aeb571879383abec298dc723d992444b12bdd90606090a180f35b5034610189578060031936011261018957602060405160018152f35b50346101895760403660031901126101895761081a6115e0565b6001600160a01b03168152600a60205260408120805460243592908310156101895760206108488484611691565b90549060031b1c604051908152f35b503461018957806003193601126101895760206040516127108152f35b50346101895760403660031901126101895760606108af9160206108a16108996115f6565b60043561181e565b604051958694928590611670565b6040838501528051928391826040870152018585015e828201840152601f01601f19168101030190f35b50346101895760603660031901126101895760043567ffffffffffffffff8111610ac65761090b90369060040161163f565b60243567ffffffffffffffff8111610ac25761092b90369060040161163f565b60443567ffffffffffffffff8111610abe5761094b90369060040161163f565b865491949092916001600160a01b03163303610aaf5781811480610aa6575b15610a6f5786805b82811061097d575080f35b7f8c1d62458596f974fefd3071a43aeb571879383abec298dc723d992444b12bdd8787610a64610a396109d1868b8f828d610a2c6109d18f60019f90610a32968d8f88946109d66109d1878e6040956117fa565b61180a565b926001600160a01b036109ed6109d18989896117fa565b1682526007602052610a03878b858520936117fa565b3582526020522080546001600160a01b0319166001600160a01b039092169190911790556117fa565b986117fa565b35966117fa565b604080516001600160a01b039485168152602081019590955292169183019190915281906060820190565b0390a1018790610972565b60405162461bcd60e51b815260206004820152600f60248201526e098cadccee8d040dad2e6dac2e8c6d608b1b6044820152606490fd5b5082821461096a565b637bfa4b9f60e01b8752600487fd5b8580fd5b8380fd5b5080fd5b503461018957602036600319011261018957610ae46115e0565b81546001600160a01b031633036101ef5760018060a01b03166001600160601b0360a01b600554161760055580f35b50346101895780600319360112610189576004546040516001600160a01b039091168152602090f35b5060a0366003190112610189576024356001600160a01b0381169060043590829003610f045760843590811580158303610dfd573415610ef5578315610ee65761a4558214610ed757818552600660205260ff60408620541615610ec357612710610ba960025434611725565b0492610bbe610bb8853461174c565b94611a61565b6001831480928193610ebb575b5015610e0c57505060045484919082906001600160a01b0316803b15610ac6578185916024604051809481936303fb255b60e11b83528b60048401525af18015610e0157610de8575b50505b60085493610c2485611768565b6008556003831015610dd45782158015610dca575b8560405192610c47846116ba565b3384528860208501818152604086018981526060870190888252608088019284845260a08901958652604060c08a0195610c818d88611776565b4260e08c019081529915156101008c01908152988152600960205220985189546001600160a01b03199081166001600160a01b03928316178b55915160018b0180548416918316919091179055915160028a015591516003808a01919091559251600489018054841691831691909117905593516005880180549092169416939093178355905192939290811015610db657815460ff60a01b191660a09190911b60ff60a01b16179055516006830155516007909101805491151560ff1660ff1992909216919091179055602094610d879291338252600a8752610d688660408420611782565b6040519482865287860152604085015260608401526080830190611670565b817f4464d2d028febe1f42eb9a17ce1641789da6faaf2cdb02fae07c83c903772c1a60a03393a3604051908152f35b634e487b7160e01b8a52602160045260248afd5b5060018314610c39565b634e487b7160e01b86526021600452602486fd5b81610df2916116eb565b610dfd57845f610c14565b8480fd5b6040513d84823e3d90fd5b81610eb3575b5015610e2057600290610c17565b60019082602060018060a01b036003541660a4604051809481936347758e8560e11b83528760048401528b60248401528a6044840152604435606484015260643560848401525af18015610ea857610e79575b50610c17565b610e9a9060203d602011610ea1575b610e9281836116eb565b810190611759565b505f610e73565b503d610e88565b6040513d88823e3d90fd5b90505f610e12565b90505f610bcb565b631874ab9360e31b85526004829052602485fd5b63147dec5360e31b8552600485fd5b63d92e233d60e01b8552600485fd5b631f2a200560e01b8552600485fd5b8280fd5b503461018957610f1736611605565b83549293926001600160a01b031633036106f25791928392906001600160a01b031680610f92575082809281925af1610f4e6117bb565b5015610f575780f35b60405162461bcd60e51b8152602060048201526013602482015272115512081dda5d1a191c985dc819985a5b1959606a1b6044820152606490fd5b60405163a9059cbb60e01b81526001600160a01b0392909216600483015260248201929092529160209183916044918391905af1908115610e01578291610fec575b5015610fdd5780f35b6312171d8360e31b8152600490fd5b61100e915060203d602011611014575b61100681836116eb565b81019061170d565b5f610fd4565b503d610ffc565b5034610189576020366003190112610189576110356115e0565b81546001600160a01b031633036101ef5760018060a01b03166001600160601b0360a01b600354161760035580f35b90503461140c5760e036600319011261140c5761107f6115e0565b90606435906044356024356001600160a01b03841680850361140c5760c435958615968715810361140c5783156115d15782156115c25761a45585146115b357845f52600660205260ff60405f205416156115a0576323b872dd60e01b8652336004870152306024870152604486018490526001600160a01b038216956020816064815f8b5af1908115611401575f91611581575b50156115725761113e61113761271061112f60025488611725565b04809661174c565b9483611956565b60018514908180998a9361156a575b501561142d5750506004805460405163095ea7b360e01b81526001600160a01b0390911691810191909152602481018490525f96906020816044818b8b5af1801561140157611410575b506004546001600160a01b0316803b1561140c5760405163d6d344a160e01b81526001600160a01b038481166004830152929092166024830152604482018590525f908290606490829084905af18015611401576113ec575b505b600854966111ff88611768565b600855156113c457905b60038610156113b0578686159182156113a2575b876040519461122b866116ba565b3386528b602087018a81526040880190898252604060608a01938c855260808b019560018060a01b0316865260a08b0197885261126c60c08c019788611776565b4260e08c019081529915156101008c01908152988152600960205220985189546001600160a01b03199081166001600160a01b03928316178b55915160018b0180548416918316919091179055915160028a015591516003808a0191909155925160048901805484169183169190911790559351600588018054909216941693909317835590519293929081101561138e57815460ff60a01b191660a09190911b60ff60a01b16179055516006830155516007909101805491151560ff1660ff199290921691909117905560209593610d879390929091338652600a88526113578760408820611782565b8686526009885260018060a01b03600460408820015416926040519650865287860152604085015260608401526080830190611670565b634e487b7160e01b8b52602160045260248bfd5b91505086600187149161121d565b634e487b7160e01b88526021600452602488fd5b50838752600760209081526040808920858a529091528720546001600160a01b031690611209565b6113f99198505f906116eb565b5f965f6111f0565b6040513d5f823e3d90fd5b5f80fd5b6114289060203d6020116110145761100681836116eb565b611197565b9196509081611562575b5015611445576002946111f2565b600194845f52600760205260405f20845f5260205260018060a01b0360405f205416801561154b5760035460405163095ea7b360e01b81526001600160a01b03909116600482015260248101859052906020826044815f8b5af1908115611401575f92602092611530575b5060e460018060a01b03600354169160405194859384926302095b7960e01b84528c60048501528a60248501528b6044850152606484015288608484015260843560a484015260a43560c48401525af1801561140157611511575b506111f2565b6115299060203d602011610ea157610e9281836116eb565b505f61150b565b61154690833d85116110145761100681836116eb565b6114b0565b8486630544c6b760e31b5f5260045260245260445ffd5b90505f611437565b90505f61114d565b6312171d8360e31b5f5260045ffd5b61159a915060203d6020116110145761100681836116eb565b5f611114565b84631874ab9360e31b5f5260045260245ffd5b63147dec5360e31b5f5260045ffd5b63d92e233d60e01b5f5260045ffd5b631f2a200560e01b5f5260045ffd5b600435906001600160a01b038216820361140c57565b60243590811515820361140c57565b606090600319011261140c576004356001600160a01b038116810361140c5790602435906044356001600160a01b038116810361140c5790565b9181601f8401121561140c5782359167ffffffffffffffff831161140c576020808501948460051b01011161140c57565b90600382101561167d5752565b634e487b7160e01b5f52602160045260245ffd5b80548210156116a6575f5260205f2001905f90565b634e487b7160e01b5f52603260045260245ffd5b610120810190811067ffffffffffffffff8211176116d757604052565b634e487b7160e01b5f52604160045260245ffd5b90601f8019910116810190811067ffffffffffffffff8211176116d757604052565b9081602091031261140c5751801515810361140c5790565b8181029291811591840414171561173857565b634e487b7160e01b5f52601160045260245ffd5b9190820391821161173857565b9081602091031261140c575190565b5f1981146117385760010190565b600382101561167d5752565b8054680100000000000000008110156116d7576117a491600182018155611691565b819291549060031b91821b915f19901b1916179055565b3d156117f5573d9067ffffffffffffffff82116116d757604051916117ea601f8201601f1916602001846116eb565b82523d5f602084013e565b606090565b91908110156116a65760051b0190565b356001600160a01b038116810361140c5790565b61a45581146119175760011461186d57506001906040516118406040826116eb565b602081527f43726f73732d636861696e20766961204c692e46692061676772656761746f72602082015290565b6118c6575f906040516118816060826116eb565b602f81527f4f5020537461636b206e6174697665206272696467652028372d64617920636860208201526e616c6c656e676520706572696f642960881b604082015290565b6002906040516118d76060826116eb565b602a81527f46617374207769746864726177616c20766961204c502028696e7374616e742c60208201526920302e3325206665652960b01b604082015290565b50505f906040516119296040826116eb565b601881527f416c7265616479206f6e20476f6f64446f6c6c6172204c320000000000000000602082015290565b8115808015611a4e575b611a4957610d05830290838204610d0514171561173857612710900491611987838261174c565b50826119cf575b907f07b13559eaa146ed61df075bea94b216eb9119ecd66098e5c4bdfd46bb3a6d1a926060926040519260018060a01b0316835260208301526040820152a1565b60015460405163a9059cbb60e01b81526001600160a01b03909116600482015260248101849052909190602081806044810103815f6001600160a01b0387165af1908115611401575f91611a2a575b5015611572579061198e565b611a43915060203d6020116110145761100681836116eb565b5f611a1e565b505050565b506001546001600160a01b031615611960565b8015808015611b2e575b611b2a57610d05820290828204610d0514171561173857612710900480611ac6575b7f07b13559eaa146ed61df075bea94b216eb9119ecd66098e5c4bdfd46bb3a6d1a91606091604051915f835260208301526040820152a1565b5f8080808460018060a01b03600154165af1611ae06117bb565b50611a8d5760405162461bcd60e51b815260206004820152601760248201527f55424920455448207472616e73666572206661696c65640000000000000000006044820152606490fd5b5050565b506001546001600160a01b031615611a6b56fea2646970667358221220bbbc981268e9ff2eb82f275dc7748779f80b90c44a37a04404618fd3658a98d464736f6c63430008210033","linkReferences":{}},"methodIdentifiers":{"BPS()":"249d39e9","L1_CHAIN_ID()":"2f90b184","L2_CHAIN_ID()":"8417d3c2","UBI_FEE_SHARE()":"6f8dce25","admin()":"f851a440","batchSetTokenMappings(address[],uint256[],address[])":"1e09a743","bridgeETH(uint256,address,uint256,uint256,bool)":"124f44de","bridgeTokens(address,uint256,uint256,address,uint256,uint256,bool)":"01e3e044","fastWithdrawalLP()":"74484b32","getRequest(uint256)":"c58343ef","getRouteInfo(uint256,bool)":"22f73b4c","getUserRequests(address)":"b337cf74","lifiAggregator()":"8a757246","nativeBridge()":"1a0b79bf","requestCount()":"5badbe4c","requests(uint256)":"81d12c58","routingFeeBps()":"c1097769","setFastWithdrawalLP(address)":"1cde7ee8","setLiFiAggregator(address)":"040a1264","setNativeBridge(address)":"5083d86b","setRoutingFeeBps(uint256)":"ebd7362f","setSupportedChain(uint256,bool)":"46c6f5f4","setTokenMapping(address,uint256,address)":"3eac57a7","setUBIPool(address)":"4f3f998f","supportedChains(uint256)":"548d496f","tokenMappings(address,uint256)":"40929e73","ubiPool()":"a06f7da7","userRequests(address,uint256)":"263cb6b6","withdrawProtocolFees(address,uint256,address)":"0d12394b"},"id":63}