{"abi":[{"type":"constructor","inputs":[{"name":"_goodDollar","type":"address","internalType":"address"},{"name":"_feeSplitter","type":"address","internalType":"address"},{"name":"_admin","type":"address","internalType":"address"}],"stateMutability":"nonpayable"},{"type":"function","name":"BPS","inputs":[],"outputs":[{"name":"","type":"uint256","internalType":"uint256"}],"stateMutability":"view"},{"type":"function","name":"REDEEM_FEE_BPS","inputs":[],"outputs":[{"name":"","type":"uint256","internalType":"uint256"}],"stateMutability":"view"},{"type":"function","name":"admin","inputs":[],"outputs":[{"name":"","type":"address","internalType":"address"}],"stateMutability":"view"},{"type":"function","name":"buy","inputs":[{"name":"marketId","type":"uint256","internalType":"uint256"},{"name":"isYES","type":"bool","internalType":"bool"},{"name":"amount","type":"uint256","internalType":"uint256"}],"outputs":[],"stateMutability":"nonpayable"},{"type":"function","name":"closeMarket","inputs":[{"name":"marketId","type":"uint256","internalType":"uint256"}],"outputs":[],"stateMutability":"nonpayable"},{"type":"function","name":"createMarket","inputs":[{"name":"question","type":"string","internalType":"string"},{"name":"endTime","type":"uint256","internalType":"uint256"},{"name":"resolver","type":"address","internalType":"address"}],"outputs":[{"name":"marketId","type":"uint256","internalType":"uint256"}],"stateMutability":"nonpayable"},{"type":"function","name":"feeSplitter","inputs":[],"outputs":[{"name":"","type":"address","internalType":"address"}],"stateMutability":"view"},{"type":"function","name":"getMarket","inputs":[{"name":"marketId","type":"uint256","internalType":"uint256"}],"outputs":[{"name":"question","type":"string","internalType":"string"},{"name":"endTime","type":"uint256","internalType":"uint256"},{"name":"status","type":"uint8","internalType":"enum MarketFactory.MarketStatus"},{"name":"totalYES","type":"uint256","internalType":"uint256"},{"name":"totalNO","type":"uint256","internalType":"uint256"},{"name":"collateral","type":"uint256","internalType":"uint256"}],"stateMutability":"view"},{"type":"function","name":"goodDollar","inputs":[],"outputs":[{"name":"","type":"address","internalType":"contract IPredictToken"}],"stateMutability":"view"},{"type":"function","name":"impliedProbabilityYES","inputs":[{"name":"marketId","type":"uint256","internalType":"uint256"}],"outputs":[{"name":"","type":"uint256","internalType":"uint256"}],"stateMutability":"view"},{"type":"function","name":"marketCount","inputs":[],"outputs":[{"name":"","type":"uint256","internalType":"uint256"}],"stateMutability":"view"},{"type":"function","name":"markets","inputs":[{"name":"","type":"uint256","internalType":"uint256"}],"outputs":[{"name":"question","type":"string","internalType":"string"},{"name":"endTime","type":"uint256","internalType":"uint256"},{"name":"status","type":"uint8","internalType":"enum MarketFactory.MarketStatus"},{"name":"totalYES","type":"uint256","internalType":"uint256"},{"name":"totalNO","type":"uint256","internalType":"uint256"},{"name":"collateral","type":"uint256","internalType":"uint256"},{"name":"resolver","type":"address","internalType":"address"}],"stateMutability":"view"},{"type":"function","name":"redeem","inputs":[{"name":"marketId","type":"uint256","internalType":"uint256"},{"name":"amount","type":"uint256","internalType":"uint256"}],"outputs":[],"stateMutability":"nonpayable"},{"type":"function","name":"resolve","inputs":[{"name":"marketId","type":"uint256","internalType":"uint256"},{"name":"yesWon","type":"bool","internalType":"bool"}],"outputs":[],"stateMutability":"nonpayable"},{"type":"function","name":"setAdmin","inputs":[{"name":"newAdmin","type":"address","internalType":"address"}],"outputs":[],"stateMutability":"nonpayable"},{"type":"function","name":"tokens","inputs":[],"outputs":[{"name":"","type":"address","internalType":"contract ConditionalTokens"}],"stateMutability":"view"},{"type":"function","name":"voidMarket","inputs":[{"name":"marketId","type":"uint256","internalType":"uint256"}],"outputs":[],"stateMutability":"nonpayable"},{"type":"event","name":"Bought","inputs":[{"name":"marketId","type":"uint256","indexed":true,"internalType":"uint256"},{"name":"buyer","type":"address","indexed":true,"internalType":"address"},{"name":"isYES","type":"bool","indexed":false,"internalType":"bool"},{"name":"amount","type":"uint256","indexed":false,"internalType":"uint256"},{"name":"cost","type":"uint256","indexed":false,"internalType":"uint256"}],"anonymous":false},{"type":"event","name":"MarketCreated","inputs":[{"name":"marketId","type":"uint256","indexed":true,"internalType":"uint256"},{"name":"question","type":"string","indexed":false,"internalType":"string"},{"name":"endTime","type":"uint256","indexed":false,"internalType":"uint256"},{"name":"resolver","type":"address","indexed":false,"internalType":"address"}],"anonymous":false},{"type":"event","name":"MarketResolved","inputs":[{"name":"marketId","type":"uint256","indexed":true,"internalType":"uint256"},{"name":"result","type":"uint8","indexed":false,"internalType":"enum MarketFactory.MarketStatus"}],"anonymous":false},{"type":"event","name":"MarketVoided","inputs":[{"name":"marketId","type":"uint256","indexed":true,"internalType":"uint256"}],"anonymous":false},{"type":"event","name":"Redeemed","inputs":[{"name":"marketId","type":"uint256","indexed":true,"internalType":"uint256"},{"name":"redeemer","type":"address","indexed":true,"internalType":"address"},{"name":"amount","type":"uint256","indexed":false,"internalType":"uint256"},{"name":"payout","type":"uint256","indexed":false,"internalType":"uint256"}],"anonymous":false},{"type":"error","name":"MarketExpired","inputs":[]},{"type":"error","name":"MarketNotClosed","inputs":[]},{"type":"error","name":"MarketNotExpired","inputs":[]},{"type":"error","name":"MarketNotOpen","inputs":[]},{"type":"error","name":"MarketNotResolved","inputs":[]},{"type":"error","name":"NotAdmin","inputs":[]},{"type":"error","name":"TransferFailed","inputs":[]},{"type":"error","name":"Unauthorized","inputs":[]},{"type":"error","name":"ZeroAddress","inputs":[]},{"type":"error","name":"ZeroAmount","inputs":[]}],"bytecode":{"object":"0x60e060405234801561000f575f5ffd5b506040516142c33803806142c3833981810160405281019061003191906102de565b5f73ffffffffffffffffffffffffffffffffffffffff168373ffffffffffffffffffffffffffffffffffffffff1603610096576040517fd92e233d00000000000000000000000000000000000000000000000000000000815260040160405180910390fd5b5f73ffffffffffffffffffffffffffffffffffffffff168273ffffffffffffffffffffffffffffffffffffffff16036100fb576040517fd92e233d00000000000000000000000000000000000000000000000000000000815260040160405180910390fd5b5f73ffffffffffffffffffffffffffffffffffffffff168173ffffffffffffffffffffffffffffffffffffffff1603610160576040517fd92e233d00000000000000000000000000000000000000000000000000000000815260040160405180910390fd5b8273ffffffffffffffffffffffffffffffffffffffff1660a08173ffffffffffffffffffffffffffffffffffffffff16815250508173ffffffffffffffffffffffffffffffffffffffff1660c08173ffffffffffffffffffffffffffffffffffffffff1681525050805f5f6101000a81548173ffffffffffffffffffffffffffffffffffffffff021916908373ffffffffffffffffffffffffffffffffffffffff1602179055503060405161021490610273565b61021e919061033d565b604051809103905ff080158015610237573d5f5f3e3d5ffd5b5073ffffffffffffffffffffffffffffffffffffffff1660808173ffffffffffffffffffffffffffffffffffffffff1681525050505050610356565b6119f7806128cc83390190565b5f5ffd5b5f73ffffffffffffffffffffffffffffffffffffffff82169050919050565b5f6102ad82610284565b9050919050565b6102bd816102a3565b81146102c7575f5ffd5b50565b5f815190506102d8816102b4565b92915050565b5f5f5f606084860312156102f5576102f4610280565b5b5f610302868287016102ca565b9350506020610313868287016102ca565b9250506040610324868287016102ca565b9150509250925092565b610337816102a3565b82525050565b5f6020820190506103505f83018461032e565b92915050565b60805160a05160c0516125146103b85f395f8181610ddb015281816112f3015261137301525f8181610354015281816104ff015281816112b7015261141301525f8181610663015281816110bb0152818161120b015261154501526125145ff3fe608060405234801561000f575f5ffd5b5060043610610109575f3560e01c80636052970c116100a0578063ae4180951161006f578063ae4180951461028f578063b1283e77146102ab578063eb44fdd3146102e1578063ec97908214610316578063f851a4401461033457610109565b80636052970c1461021b578063704b6c02146102395780637cbc2373146102555780639d63848a1461027157610109565b8063438af924116100dc578063438af9241461019757806352a34b05146101b3578063576cf9d0146101cf5780635b7aa7bd146101ff57610109565b8063119e5bf31461010d578063216209011461012b578063249d39e91461015b57806338fd6bdb14610179575b5f5ffd5b610115610352565b60405161012291906118ff565b60405180910390f35b61014560048036038101906101409190611953565b610376565b604051610152919061198d565b60405180910390f35b6101636103eb565b604051610170919061198d565b60405180910390f35b6101816103f1565b60405161018e919061198d565b60405180910390f35b6101b160048036038101906101ac91906119db565b6103f6565b005b6101cd60048036038101906101c89190611a2b565b610746565b005b6101e960048036038101906101e49190611b05565b61093f565b6040516101f6919061198d565b60405180910390f35b61021960048036038101906102149190611953565b610c24565b005b610223610dd9565b6040516102309190611b85565b60405180910390f35b610253600480360381019061024e9190611b9e565b610dfd565b005b61026f600480360381019061026a9190611bc9565b610f29565b005b610279611543565b6040516102869190611c27565b60405180910390f35b6102a960048036038101906102a49190611953565b611567565b005b6102c560048036038101906102c09190611953565b611665565b6040516102d89796959493929190611d23565b60405180910390f35b6102fb60048036038101906102f69190611953565b611763565b60405161030d96959493929190611d97565b60405180910390f35b61031e611855565b60405161032b919061198d565b60405180910390f35b61033c611861565b6040516103499190611b85565b60405180910390f35b7f000000000000000000000000000000000000000000000000000000000000000081565b5f5f6001838154811061038c5761038b611dfd565b5b905f5260205f20906007020190505f816004015482600301546103af9190611e57565b90505f81036103c457611388925050506103e6565b8061271083600301546103d79190611e8a565b6103e19190611ef8565b925050505b919050565b61271081565b606481565b5f810361042f576040517f1f2a200500000000000000000000000000000000000000000000000000000000815260040160405180910390fd5b5f6001848154811061044457610443611dfd565b5b905f5260205f20906007020190505f600481111561046557610464611cb0565b5b816002015f9054906101000a900460ff16600481111561048857610487611cb0565b5b146104bf576040517fc02d38cc00000000000000000000000000000000000000000000000000000000815260040160405180910390fd5b806001015442106104fc576040517fb2094b5900000000000000000000000000000000000000000000000000000000815260040160405180910390fd5b5f7f000000000000000000000000000000000000000000000000000000000000000073ffffffffffffffffffffffffffffffffffffffff166323b872dd3330866040518463ffffffff1660e01b815260040161055a93929190611f28565b6020604051808303815f875af1158015610576573d5f5f3e3d5ffd5b505050506040513d601f19601f8201168201806040525081019061059a9190611f71565b9050806105d3576040517f90b8ec1800000000000000000000000000000000000000000000000000000000815260040160405180910390fd5b82826005015f8282546105e69190611e57565b925050819055505f846106115760016002876106029190611e8a565b61060c9190611e57565b61061f565b60028661061e9190611e8a565b5b905084156106465783836003015f82825461063a9190611e57565b92505081905550610661565b83836004015f8282546106599190611e57565b925050819055505b7f000000000000000000000000000000000000000000000000000000000000000073ffffffffffffffffffffffffffffffffffffffff1663156e29f63383876040518463ffffffff1660e01b81526004016106be93929190611f9c565b5f604051808303815f87803b1580156106d5575f5ffd5b505af11580156106e7573d5f5f3e3d5ffd5b505050503373ffffffffffffffffffffffffffffffffffffffff16867f94b749af8a24a9e71a160cea1a268a96ec3299200f809d63344a0f668c0f034987878860405161073693929190611fe0565b60405180910390a3505050505050565b5f6001838154811061075b5761075a611dfd565b5b905f5260205f20906007020190506001600481111561077d5761077c611cb0565b5b816002015f9054906101000a900460ff1660048111156107a05761079f611cb0565b5b146107d7576040517fa8a9eb6900000000000000000000000000000000000000000000000000000000815260040160405180910390fd5b806006015f9054906101000a900473ffffffffffffffffffffffffffffffffffffffff1673ffffffffffffffffffffffffffffffffffffffff163373ffffffffffffffffffffffffffffffffffffffff161415801561088257505f5f9054906101000a900473ffffffffffffffffffffffffffffffffffffffff1673ffffffffffffffffffffffffffffffffffffffff163373ffffffffffffffffffffffffffffffffffffffff1614155b156108b9576040517f82b4290000000000000000000000000000000000000000000000000000000000815260040160405180910390fd5b816108c55760036108c8565b60025b816002015f6101000a81548160ff021916908360048111156108ed576108ec611cb0565b5b0217905550827f739f283563fb51ab6b89ee95d937b2e63a6cfcb83c385dbebb629f9d97bd43e6826002015f9054906101000a900460ff166040516109329190612015565b60405180910390a2505050565b5f5f5f9054906101000a900473ffffffffffffffffffffffffffffffffffffffff1673ffffffffffffffffffffffffffffffffffffffff163373ffffffffffffffffffffffffffffffffffffffff16146109c5576040517f7bfa4b9f00000000000000000000000000000000000000000000000000000000815260040160405180910390fd5b4283116109fe576040517fb2094b5900000000000000000000000000000000000000000000000000000000815260040160405180910390fd5b5f5f73ffffffffffffffffffffffffffffffffffffffff168373ffffffffffffffffffffffffffffffffffffffff1614610a385782610a5a565b5f5f9054906101000a900473ffffffffffffffffffffffffffffffffffffffff165b9050600180549050915060016040518060e0016040528088888080601f0160208091040260200160405190810160405280939291908181526020018383808284375f81840152601f19601f8201169050808301925050505050505081526020018681526020015f6004811115610ad357610ad2611cb0565b5b81526020015f81526020015f81526020015f81526020018373ffffffffffffffffffffffffffffffffffffffff16815250908060018154018082558091505060019003905f5260205f2090600702015f909190919091505f820151815f019081610b3d9190612260565b50602082015181600101556040820151816002015f6101000a81548160ff02191690836004811115610b7257610b71611cb0565b5b0217905550606082015181600301556080820151816004015560a0820151816005015560c0820151816006015f6101000a81548173ffffffffffffffffffffffffffffffffffffffff021916908373ffffffffffffffffffffffffffffffffffffffff1602179055505050817f57d0d124b72f81ed1da0dc728fc33db342705974792928796f6577b8db5c3d5387878785604051610c139493929190612369565b60405180910390a250949350505050565b5f5f9054906101000a900473ffffffffffffffffffffffffffffffffffffffff1673ffffffffffffffffffffffffffffffffffffffff163373ffffffffffffffffffffffffffffffffffffffff1614610ca9576040517f7bfa4b9f00000000000000000000000000000000000000000000000000000000815260040160405180910390fd5b5f60018281548110610cbe57610cbd611dfd565b5b905f5260205f20906007020190505f6004811115610cdf57610cde611cb0565b5b816002015f9054906101000a900460ff166004811115610d0257610d01611cb0565b5b14158015610d45575060016004811115610d1f57610d1e611cb0565b5b816002015f9054906101000a900460ff166004811115610d4257610d41611cb0565b5b14155b15610d7c576040517fc02d38cc00000000000000000000000000000000000000000000000000000000815260040160405180910390fd5b6004816002015f6101000a81548160ff02191690836004811115610da357610da2611cb0565b5b0217905550817f195195e0299c84aaf9806e53f35fd9fa6d45ba472297297393afe457bfff771960405160405180910390a25050565b7f000000000000000000000000000000000000000000000000000000000000000081565b5f5f9054906101000a900473ffffffffffffffffffffffffffffffffffffffff1673ffffffffffffffffffffffffffffffffffffffff163373ffffffffffffffffffffffffffffffffffffffff1614610e82576040517f7bfa4b9f00000000000000000000000000000000000000000000000000000000815260040160405180910390fd5b5f73ffffffffffffffffffffffffffffffffffffffff168173ffffffffffffffffffffffffffffffffffffffff1603610ee7576040517fd92e233d00000000000000000000000000000000000000000000000000000000815260040160405180910390fd5b805f5f6101000a81548173ffffffffffffffffffffffffffffffffffffffff021916908373ffffffffffffffffffffffffffffffffffffffff16021790555050565b5f8103610f62576040517f1f2a200500000000000000000000000000000000000000000000000000000000815260040160405180910390fd5b5f60018381548110610f7757610f76611dfd565b5b905f5260205f20906007020190505f600480811115610f9957610f98611cb0565b5b826002015f9054906101000a900460ff166004811115610fbc57610fbb611cb0565b5b1490505f60026004811115610fd457610fd3611cb0565b5b836002015f9054906101000a900460ff166004811115610ff757610ff6611cb0565b5b1490505f6003600481111561100f5761100e611cb0565b5b846002015f9054906101000a900460ff16600481111561103257611031611cb0565b5b14905082158015611041575081155b801561104b575080155b15611082576040517f2e96c72600000000000000000000000000000000000000000000000000000000815260040160405180910390fd5b5f5f5f5f8615611170575f60028b61109a9190611e8a565b90505f600160028d6110ac9190611e8a565b6110b69190611e57565b90508a7f000000000000000000000000000000000000000000000000000000000000000073ffffffffffffffffffffffffffffffffffffffff1662fdd58e33856040518363ffffffff1660e01b81526004016111139291906123a7565b602060405180830381865afa15801561112e573d5f5f3e3d5ffd5b505050506040513d601f19601f8201168201806040525081019061115291906123e2565b1061115f57819550611163565b8095505b8a94508a93505050611209565b8561119357600160028b6111849190611e8a565b61118e9190611e57565b6111a1565b60028a6111a09190611e8a565b5b93505f866111b35788600401546111b9565b88600301545b90505f818a600501548c6111cd9190611e8a565b6111d79190611ef8565b90506127106064826111e99190611e8a565b6111f39190611ef8565b92508281611201919061240d565b945080935050505b7f000000000000000000000000000000000000000000000000000000000000000073ffffffffffffffffffffffffffffffffffffffff1663f5298aca33868c6040518463ffffffff1660e01b815260040161126693929190611f9c565b5f604051808303815f87803b15801561127d575f5ffd5b505af115801561128f573d5f5f3e3d5ffd5b5050505081886005015f8282546112a6919061240d565b925050819055505f811115611410577f000000000000000000000000000000000000000000000000000000000000000073ffffffffffffffffffffffffffffffffffffffff1663095ea7b37f0000000000000000000000000000000000000000000000000000000000000000836040518363ffffffff1660e01b81526004016113309291906123a7565b6020604051808303815f875af115801561134c573d5f5f3e3d5ffd5b505050506040513d601f19601f820116820180604052508101906113709190611f71565b507f000000000000000000000000000000000000000000000000000000000000000073ffffffffffffffffffffffffffffffffffffffff166364d6def982306040518363ffffffff1660e01b81526004016113cc929190612440565b6060604051808303815f875af11580156113e8573d5f5f3e3d5ffd5b505050506040513d601f19601f8201168201806040525081019061140c9190612467565b5050505b5f7f000000000000000000000000000000000000000000000000000000000000000073ffffffffffffffffffffffffffffffffffffffff1663a9059cbb33866040518363ffffffff1660e01b815260040161146c9291906123a7565b6020604051808303815f875af1158015611488573d5f5f3e3d5ffd5b505050506040513d601f19601f820116820180604052508101906114ac9190611f71565b9050806114e5576040517f90b8ec1800000000000000000000000000000000000000000000000000000000815260040160405180910390fd5b3373ffffffffffffffffffffffffffffffffffffffff168b7fa5851b0172fdafd3dafe0e52ce051747548a4c642a2f22793c01faf228e130628c8760405161152e9291906124b7565b60405180910390a35050505050505050505050565b7f000000000000000000000000000000000000000000000000000000000000000081565b5f6001828154811061157c5761157b611dfd565b5b905f5260205f20906007020190505f600481111561159d5761159c611cb0565b5b816002015f9054906101000a900460ff1660048111156115c0576115bf611cb0565b5b146115f7576040517fc02d38cc00000000000000000000000000000000000000000000000000000000815260040160405180910390fd5b8060010154421015611635576040517f671eb0c500000000000000000000000000000000000000000000000000000000815260040160405180910390fd5b6001816002015f6101000a81548160ff0219169083600481111561165c5761165b611cb0565b5b02179055505050565b60018181548110611674575f80fd5b905f5260205f2090600702015f91509050805f01805461169390612088565b80601f01602080910402602001604051908101604052809291908181526020018280546116bf90612088565b801561170a5780601f106116e15761010080835404028352916020019161170a565b820191905f5260205f20905b8154815290600101906020018083116116ed57829003601f168201915b505050505090806001015490806002015f9054906101000a900460ff1690806003015490806004015490806005015490806006015f9054906101000a900473ffffffffffffffffffffffffffffffffffffffff16905087565b60605f5f5f5f5f5f6001888154811061177f5761177e611dfd565b5b905f5260205f2090600702019050805f018160010154826002015f9054906101000a900460ff168360030154846004015485600501548580546117c190612088565b80601f01602080910402602001604051908101604052809291908181526020018280546117ed90612088565b80156118385780601f1061180f57610100808354040283529160200191611838565b820191905f5260205f20905b81548152906001019060200180831161181b57829003601f168201915b505050505095509650965096509650965096505091939550919395565b5f600180549050905090565b5f5f9054906101000a900473ffffffffffffffffffffffffffffffffffffffff1681565b5f73ffffffffffffffffffffffffffffffffffffffff82169050919050565b5f819050919050565b5f6118c76118c26118bd84611885565b6118a4565b611885565b9050919050565b5f6118d8826118ad565b9050919050565b5f6118e9826118ce565b9050919050565b6118f9816118df565b82525050565b5f6020820190506119125f8301846118f0565b92915050565b5f5ffd5b5f5ffd5b5f819050919050565b61193281611920565b811461193c575f5ffd5b50565b5f8135905061194d81611929565b92915050565b5f6020828403121561196857611967611918565b5b5f6119758482850161193f565b91505092915050565b61198781611920565b82525050565b5f6020820190506119a05f83018461197e565b92915050565b5f8115159050919050565b6119ba816119a6565b81146119c4575f5ffd5b50565b5f813590506119d5816119b1565b92915050565b5f5f5f606084860312156119f2576119f1611918565b5b5f6119ff8682870161193f565b9350506020611a10868287016119c7565b9250506040611a218682870161193f565b9150509250925092565b5f5f60408385031215611a4157611a40611918565b5b5f611a4e8582860161193f565b9250506020611a5f858286016119c7565b9150509250929050565b5f5ffd5b5f5ffd5b5f5ffd5b5f5f83601f840112611a8a57611a89611a69565b5b8235905067ffffffffffffffff811115611aa757611aa6611a6d565b5b602083019150836001820283011115611ac357611ac2611a71565b5b9250929050565b5f611ad482611885565b9050919050565b611ae481611aca565b8114611aee575f5ffd5b50565b5f81359050611aff81611adb565b92915050565b5f5f5f5f60608587031215611b1d57611b1c611918565b5b5f85013567ffffffffffffffff811115611b3a57611b3961191c565b5b611b4687828801611a75565b94509450506020611b598782880161193f565b9250506040611b6a87828801611af1565b91505092959194509250565b611b7f81611aca565b82525050565b5f602082019050611b985f830184611b76565b92915050565b5f60208284031215611bb357611bb2611918565b5b5f611bc084828501611af1565b91505092915050565b5f5f60408385031215611bdf57611bde611918565b5b5f611bec8582860161193f565b9250506020611bfd8582860161193f565b9150509250929050565b5f611c11826118ce565b9050919050565b611c2181611c07565b82525050565b5f602082019050611c3a5f830184611c18565b92915050565b5f81519050919050565b5f82825260208201905092915050565b8281835e5f83830152505050565b5f601f19601f8301169050919050565b5f611c8282611c40565b611c8c8185611c4a565b9350611c9c818560208601611c5a565b611ca581611c68565b840191505092915050565b7f4e487b71000000000000000000000000000000000000000000000000000000005f52602160045260245ffd5b60058110611cee57611ced611cb0565b5b50565b5f819050611cfe82611cdd565b919050565b5f611d0d82611cf1565b9050919050565b611d1d81611d03565b82525050565b5f60e0820190508181035f830152611d3b818a611c78565b9050611d4a602083018961197e565b611d576040830188611d14565b611d64606083018761197e565b611d71608083018661197e565b611d7e60a083018561197e565b611d8b60c0830184611b76565b98975050505050505050565b5f60c0820190508181035f830152611daf8189611c78565b9050611dbe602083018861197e565b611dcb6040830187611d14565b611dd8606083018661197e565b611de5608083018561197e565b611df260a083018461197e565b979650505050505050565b7f4e487b71000000000000000000000000000000000000000000000000000000005f52603260045260245ffd5b7f4e487b71000000000000000000000000000000000000000000000000000000005f52601160045260245ffd5b5f611e6182611920565b9150611e6c83611920565b9250828201905080821115611e8457611e83611e2a565b5b92915050565b5f611e9482611920565b9150611e9f83611920565b9250828202611ead81611920565b91508282048414831517611ec457611ec3611e2a565b5b5092915050565b7f4e487b71000000000000000000000000000000000000000000000000000000005f52601260045260245ffd5b5f611f0282611920565b9150611f0d83611920565b925082611f1d57611f1c611ecb565b5b828204905092915050565b5f606082019050611f3b5f830186611b76565b611f486020830185611b76565b611f55604083018461197e565b949350505050565b5f81519050611f6b816119b1565b92915050565b5f60208284031215611f8657611f85611918565b5b5f611f9384828501611f5d565b91505092915050565b5f606082019050611faf5f830186611b76565b611fbc602083018561197e565b611fc9604083018461197e565b949350505050565b611fda816119a6565b82525050565b5f606082019050611ff35f830186611fd1565b612000602083018561197e565b61200d604083018461197e565b949350505050565b5f6020820190506120285f830184611d14565b92915050565b7f4e487b71000000000000000000000000000000000000000000000000000000005f52604160045260245ffd5b7f4e487b71000000000000000000000000000000000000000000000000000000005f52602260045260245ffd5b5f600282049050600182168061209f57607f821691505b6020821081036120b2576120b161205b565b5b50919050565b5f819050815f5260205f209050919050565b5f6020601f8301049050919050565b5f82821b905092915050565b5f600883026121147fffffffffffffffffffffffffffffffffffffffffffffffffffffffffffffffff826120d9565b61211e86836120d9565b95508019841693508086168417925050509392505050565b5f61215061214b61214684611920565b6118a4565b611920565b9050919050565b5f819050919050565b61216983612136565b61217d61217582612157565b8484546120e5565b825550505050565b5f5f905090565b612194612185565b61219f818484612160565b505050565b5f5b828110156121c5576121ba5f82840161218c565b6001810190506121a6565b505050565b601f8211156122185782821115612217576121e4816120b8565b6121ed836120ca565b6121f6856120ca565b6020861015612203575f90505b808301612212828403826121a4565b505050505b5b505050565b5f82821c905092915050565b5f6122385f198460080261221d565b1980831691505092915050565b5f6122508383612229565b9150826002028217905092915050565b61226982611c40565b67ffffffffffffffff8111156122825761228161202e565b5b61228c8254612088565b6122978282856121ca565b5f60209050601f8311600181146122c8575f84156122b6578287015190505b6122c08582612245565b865550612327565b601f1984166122d6866120b8565b5f5b828110156122fd578489015182556001820191506020850194506020810190506122d8565b8683101561231a5784890151612316601f891682612229565b8355505b6001600288020188555050505b505050505050565b828183375f83830152505050565b5f6123488385611c4a565b935061235583858461232f565b61235e83611c68565b840190509392505050565b5f6060820190508181035f83015261238281868861233d565b9050612391602083018561197e565b61239e6040830184611b76565b95945050505050565b5f6040820190506123ba5f830185611b76565b6123c7602083018461197e565b9392505050565b5f815190506123dc81611929565b92915050565b5f602082840312156123f7576123f6611918565b5b5f612404848285016123ce565b91505092915050565b5f61241782611920565b915061242283611920565b925082820390508181111561243a57612439611e2a565b5b92915050565b5f6040820190506124535f83018561197e565b6124606020830184611b76565b9392505050565b5f5f5f6060848603121561247e5761247d611918565b5b5f61248b868287016123ce565b935050602061249c868287016123ce565b92505060406124ad868287016123ce565b9150509250925092565b5f6040820190506124ca5f83018561197e565b6124d7602083018461197e565b939250505056fea2646970667358221220ce9fbf715b804567361655bcb4f0e3ca2bca43ddf38d51995d945eb9715f1fce64736f6c6343000821003360a060405234801561000f575f5ffd5b506040516119f73803806119f78339818101604052810190610031919061012e565b5f73ffffffffffffffffffffffffffffffffffffffff168173ffffffffffffffffffffffffffffffffffffffff1603610096576040517fd92e233d00000000000000000000000000000000000000000000000000000000815260040160405180910390fd5b8073ffffffffffffffffffffffffffffffffffffffff1660808173ffffffffffffffffffffffffffffffffffffffff168152505050610159565b5f5ffd5b5f73ffffffffffffffffffffffffffffffffffffffff82169050919050565b5f6100fd826100d4565b9050919050565b61010d816100f3565b8114610117575f5ffd5b50565b5f8151905061012881610104565b92915050565b5f60208284031215610143576101426100d0565b5b5f6101508482850161011a565b91505092915050565b60805161187861017f5f395f818161026501528181610a670152610df101526118785ff3fe608060405234801561000f575f5ffd5b50600436106100a6575f3560e01c8063a22cb4651161006f578063a22cb46514610172578063c45a01551461018e578063e729dc30146101ac578063e985e9c5146101dc578063f242432a1461020c578063f5298aca14610228576100a6565b8062fdd58e146100aa578063156e29f6146100da5780632eb2c2d6146100f65780633c39b357146101125780634e1273f414610142575b5f5ffd5b6100c460048036038101906100bf9190611072565b610244565b6040516100d191906110bf565b60405180910390f35b6100f460048036038101906100ef91906110d8565b610263565b005b610110600480360381019061010b91906111de565b6103cc565b005b61012c600480360381019061012791906112b5565b6107ec565b60405161013991906110bf565b60405180910390f35b61015c60048036038101906101579190611335565b61080d565b604051610169919061146a565b60405180910390f35b61018c600480360381019061018791906114bf565b61096d565b005b610196610a65565b6040516101a3919061150c565b60405180910390f35b6101c660048036038101906101c191906112b5565b610a89565b6040516101d391906110bf565b60405180910390f35b6101f660048036038101906101f19190611525565b610a9e565b6040516102039190611572565b60405180910390f35b6102266004803603810190610221919061158b565b610ac8565b005b610242600480360381019061023d91906110d8565b610def565b005b5f602052815f5260405f20602052805f5260405f205f91509150505481565b7f000000000000000000000000000000000000000000000000000000000000000073ffffffffffffffffffffffffffffffffffffffff163373ffffffffffffffffffffffffffffffffffffffff16146102e8576040517f32cc723600000000000000000000000000000000000000000000000000000000815260040160405180910390fd5b805f5f8573ffffffffffffffffffffffffffffffffffffffff1673ffffffffffffffffffffffffffffffffffffffff1681526020019081526020015f205f8481526020019081526020015f205f828254610342919061164e565b925050819055508273ffffffffffffffffffffffffffffffffffffffff165f73ffffffffffffffffffffffffffffffffffffffff163373ffffffffffffffffffffffffffffffffffffffff167fc3d58168c5ae7397731d063d5bbf3d657854427343f4c083240f7aacaa2d0f6285856040516103bf929190611681565b60405180910390a4505050565b5f73ffffffffffffffffffffffffffffffffffffffff168773ffffffffffffffffffffffffffffffffffffffff1603610431576040517fd92e233d00000000000000000000000000000000000000000000000000000000815260040160405180910390fd5b3373ffffffffffffffffffffffffffffffffffffffff168873ffffffffffffffffffffffffffffffffffffffff16141580156104ef575060015f8973ffffffffffffffffffffffffffffffffffffffff1673ffffffffffffffffffffffffffffffffffffffff1681526020019081526020015f205f3373ffffffffffffffffffffffffffffffffffffffff1673ffffffffffffffffffffffffffffffffffffffff1681526020019081526020015f205f9054906101000a900460ff16155b15610526576040517fc19f17a900000000000000000000000000000000000000000000000000000000815260040160405180910390fd5b838390508686905014610565576040517fff633a3800000000000000000000000000000000000000000000000000000000815260040160405180910390fd5b5f5f90505b8686905081101561075f57848482818110610588576105876116a8565b5b905060200201355f5f8b73ffffffffffffffffffffffffffffffffffffffff1673ffffffffffffffffffffffffffffffffffffffff1681526020019081526020015f205f8989858181106105df576105de6116a8565b5b9050602002013581526020019081526020015f2054101561062c576040517ff4d678b800000000000000000000000000000000000000000000000000000000815260040160405180910390fd5b84848281811061063f5761063e6116a8565b5b905060200201355f5f8b73ffffffffffffffffffffffffffffffffffffffff1673ffffffffffffffffffffffffffffffffffffffff1681526020019081526020015f205f898985818110610696576106956116a8565b5b9050602002013581526020019081526020015f205f8282546106b891906116d5565b925050819055508484828181106106d2576106d16116a8565b5b905060200201355f5f8a73ffffffffffffffffffffffffffffffffffffffff1673ffffffffffffffffffffffffffffffffffffffff1681526020019081526020015f205f898985818110610729576107286116a8565b5b9050602002013581526020019081526020015f205f82825461074b919061164e565b92505081905550808060010191505061056a565b508673ffffffffffffffffffffffffffffffffffffffff168873ffffffffffffffffffffffffffffffffffffffff163373ffffffffffffffffffffffffffffffffffffffff167f4a39dc06d4c0dbc64b70af90fd698a233a518aa5d07e595d983b8c0526c8f7fb898989896040516107da9493929190611770565b60405180910390a45050505050505050565b5f60016002836107fc91906117a9565b610806919061164e565b9050919050565b606082829050858590501461084e576040517fff633a3800000000000000000000000000000000000000000000000000000000815260040160405180910390fd5b8484905067ffffffffffffffff81111561086b5761086a6117ea565b5b6040519080825280602002602001820160405280156108995781602001602082028036833780820191505090505b5090505f5f90505b85859050811015610964575f5f8787848181106108c1576108c06116a8565b5b90506020020160208101906108d69190611817565b73ffffffffffffffffffffffffffffffffffffffff1673ffffffffffffffffffffffffffffffffffffffff1681526020019081526020015f205f858584818110610923576109226116a8565b5b9050602002013581526020019081526020015f205482828151811061094b5761094a6116a8565b5b60200260200101818152505080806001019150506108a1565b50949350505050565b8060015f3373ffffffffffffffffffffffffffffffffffffffff1673ffffffffffffffffffffffffffffffffffffffff1681526020019081526020015f205f8473ffffffffffffffffffffffffffffffffffffffff1673ffffffffffffffffffffffffffffffffffffffff1681526020019081526020015f205f6101000a81548160ff0219169083151502179055508173ffffffffffffffffffffffffffffffffffffffff163373ffffffffffffffffffffffffffffffffffffffff167f17307eab39ab6107e8899845ad3d59bd9653f200f220920489ca2b5937696c3183604051610a599190611572565b60405180910390a35050565b7f000000000000000000000000000000000000000000000000000000000000000081565b5f600282610a9791906117a9565b9050919050565b6001602052815f5260405f20602052805f5260405f205f915091509054906101000a900460ff1681565b5f73ffffffffffffffffffffffffffffffffffffffff168573ffffffffffffffffffffffffffffffffffffffff1603610b2d576040517fd92e233d00000000000000000000000000000000000000000000000000000000815260040160405180910390fd5b3373ffffffffffffffffffffffffffffffffffffffff168673ffffffffffffffffffffffffffffffffffffffff1614158015610beb575060015f8773ffffffffffffffffffffffffffffffffffffffff1673ffffffffffffffffffffffffffffffffffffffff1681526020019081526020015f205f3373ffffffffffffffffffffffffffffffffffffffff1673ffffffffffffffffffffffffffffffffffffffff1681526020019081526020015f205f9054906101000a900460ff16155b15610c22576040517fc19f17a900000000000000000000000000000000000000000000000000000000815260040160405180910390fd5b825f5f8873ffffffffffffffffffffffffffffffffffffffff1673ffffffffffffffffffffffffffffffffffffffff1681526020019081526020015f205f8681526020019081526020015f20541015610ca7576040517ff4d678b800000000000000000000000000000000000000000000000000000000815260040160405180910390fd5b825f5f8873ffffffffffffffffffffffffffffffffffffffff1673ffffffffffffffffffffffffffffffffffffffff1681526020019081526020015f205f8681526020019081526020015f205f828254610d0191906116d5565b92505081905550825f5f8773ffffffffffffffffffffffffffffffffffffffff1673ffffffffffffffffffffffffffffffffffffffff1681526020019081526020015f205f8681526020019081526020015f205f828254610d62919061164e565b925050819055508473ffffffffffffffffffffffffffffffffffffffff168673ffffffffffffffffffffffffffffffffffffffff163373ffffffffffffffffffffffffffffffffffffffff167fc3d58168c5ae7397731d063d5bbf3d657854427343f4c083240f7aacaa2d0f628787604051610ddf929190611681565b60405180910390a4505050505050565b7f000000000000000000000000000000000000000000000000000000000000000073ffffffffffffffffffffffffffffffffffffffff163373ffffffffffffffffffffffffffffffffffffffff1614610e74576040517f32cc723600000000000000000000000000000000000000000000000000000000815260040160405180910390fd5b805f5f8573ffffffffffffffffffffffffffffffffffffffff1673ffffffffffffffffffffffffffffffffffffffff1681526020019081526020015f205f8481526020019081526020015f20541015610ef9576040517ff4d678b800000000000000000000000000000000000000000000000000000000815260040160405180910390fd5b805f5f8573ffffffffffffffffffffffffffffffffffffffff1673ffffffffffffffffffffffffffffffffffffffff1681526020019081526020015f205f8481526020019081526020015f205f828254610f5391906116d5565b925050819055505f73ffffffffffffffffffffffffffffffffffffffff168373ffffffffffffffffffffffffffffffffffffffff163373ffffffffffffffffffffffffffffffffffffffff167fc3d58168c5ae7397731d063d5bbf3d657854427343f4c083240f7aacaa2d0f628585604051610fd0929190611681565b60405180910390a4505050565b5f5ffd5b5f5ffd5b5f73ffffffffffffffffffffffffffffffffffffffff82169050919050565b5f61100e82610fe5565b9050919050565b61101e81611004565b8114611028575f5ffd5b50565b5f8135905061103981611015565b92915050565b5f819050919050565b6110518161103f565b811461105b575f5ffd5b50565b5f8135905061106c81611048565b92915050565b5f5f6040838503121561108857611087610fdd565b5b5f6110958582860161102b565b92505060206110a68582860161105e565b9150509250929050565b6110b98161103f565b82525050565b5f6020820190506110d25f8301846110b0565b92915050565b5f5f5f606084860312156110ef576110ee610fdd565b5b5f6110fc8682870161102b565b935050602061110d8682870161105e565b925050604061111e8682870161105e565b9150509250925092565b5f5ffd5b5f5ffd5b5f5ffd5b5f5f83601f84011261114957611148611128565b5b8235905067ffffffffffffffff8111156111665761116561112c565b5b60208301915083602082028301111561118257611181611130565b5b9250929050565b5f5f83601f84011261119e5761119d611128565b5b8235905067ffffffffffffffff8111156111bb576111ba61112c565b5b6020830191508360018202830111156111d7576111d6611130565b5b9250929050565b5f5f5f5f5f5f5f5f60a0898b0312156111fa576111f9610fdd565b5b5f6112078b828c0161102b565b98505060206112188b828c0161102b565b975050604089013567ffffffffffffffff81111561123957611238610fe1565b5b6112458b828c01611134565b9650965050606089013567ffffffffffffffff81111561126857611267610fe1565b5b6112748b828c01611134565b9450945050608089013567ffffffffffffffff81111561129757611296610fe1565b5b6112a38b828c01611189565b92509250509295985092959890939650565b5f602082840312156112ca576112c9610fdd565b5b5f6112d78482850161105e565b91505092915050565b5f5f83601f8401126112f5576112f4611128565b5b8235905067ffffffffffffffff8111156113125761131161112c565b5b60208301915083602082028301111561132e5761132d611130565b5b9250929050565b5f5f5f5f6040858703121561134d5761134c610fdd565b5b5f85013567ffffffffffffffff81111561136a57611369610fe1565b5b611376878288016112e0565b9450945050602085013567ffffffffffffffff81111561139957611398610fe1565b5b6113a587828801611134565b925092505092959194509250565b5f81519050919050565b5f82825260208201905092915050565b5f819050602082019050919050565b6113e58161103f565b82525050565b5f6113f683836113dc565b60208301905092915050565b5f602082019050919050565b5f611418826113b3565b61142281856113bd565b935061142d836113cd565b805f5b8381101561145d57815161144488826113eb565b975061144f83611402565b925050600181019050611430565b5085935050505092915050565b5f6020820190508181035f830152611482818461140e565b905092915050565b5f8115159050919050565b61149e8161148a565b81146114a8575f5ffd5b50565b5f813590506114b981611495565b92915050565b5f5f604083850312156114d5576114d4610fdd565b5b5f6114e28582860161102b565b92505060206114f3858286016114ab565b9150509250929050565b61150681611004565b82525050565b5f60208201905061151f5f8301846114fd565b92915050565b5f5f6040838503121561153b5761153a610fdd565b5b5f6115488582860161102b565b92505060206115598582860161102b565b9150509250929050565b61156c8161148a565b82525050565b5f6020820190506115855f830184611563565b92915050565b5f5f5f5f5f5f60a087890312156115a5576115a4610fdd565b5b5f6115b289828a0161102b565b96505060206115c389828a0161102b565b95505060406115d489828a0161105e565b94505060606115e589828a0161105e565b935050608087013567ffffffffffffffff81111561160657611605610fe1565b5b61161289828a01611189565b92509250509295509295509295565b7f4e487b71000000000000000000000000000000000000000000000000000000005f52601160045260245ffd5b5f6116588261103f565b91506116638361103f565b925082820190508082111561167b5761167a611621565b5b92915050565b5f6040820190506116945f8301856110b0565b6116a160208301846110b0565b9392505050565b7f4e487b71000000000000000000000000000000000000000000000000000000005f52603260045260245ffd5b5f6116df8261103f565b91506116ea8361103f565b925082820390508181111561170257611701611621565b5b92915050565b5f5ffd5b82818337505050565b5f61172083856113bd565b93507f07ffffffffffffffffffffffffffffffffffffffffffffffffffffffffffffff83111561175357611752611708565b5b60208302925061176483858461170c565b82840190509392505050565b5f6040820190508181035f830152611789818688611715565b9050818103602083015261179e818486611715565b905095945050505050565b5f6117b38261103f565b91506117be8361103f565b92508282026117cc8161103f565b915082820484148315176117e3576117e2611621565b5b5092915050565b7f4e487b71000000000000000000000000000000000000000000000000000000005f52604160045260245ffd5b5f6020828403121561182c5761182b610fdd565b5b5f6118398482850161102b565b9150509291505056fea2646970667358221220e21c20ba1ed89fe2e5574698172780ff669dddafb63b8f78692cc972634a5e0c64736f6c63430008210033","linkReferences":{}},"methodIdentifiers":{"BPS()":"249d39e9","REDEEM_FEE_BPS()":"38fd6bdb","admin()":"f851a440","buy(uint256,bool,uint256)":"438af924","closeMarket(uint256)":"ae418095","createMarket(string,uint256,address)":"576cf9d0","feeSplitter()":"6052970c","getMarket(uint256)":"eb44fdd3","goodDollar()":"119e5bf3","impliedProbabilityYES(uint256)":"21620901","marketCount()":"ec979082","markets(uint256)":"b1283e77","redeem(uint256,uint256)":"7cbc2373","resolve(uint256,bool)":"52a34b05","setAdmin(address)":"704b6c02","tokens()":"9d63848a","voidMarket(uint256)":"5b7aa7bd"},"id":1}