{"abi":[{"type":"constructor","inputs":[{"name":"_goodDollar","type":"address","internalType":"address"},{"name":"_feeSplitter","type":"address","internalType":"address"},{"name":"_admin","type":"address","internalType":"address"}],"stateMutability":"nonpayable"},{"type":"function","name":"BPS","inputs":[],"outputs":[{"name":"","type":"uint256","internalType":"uint256"}],"stateMutability":"view"},{"type":"function","name":"REDEEM_FEE_BPS","inputs":[],"outputs":[{"name":"","type":"uint256","internalType":"uint256"}],"stateMutability":"view"},{"type":"function","name":"admin","inputs":[],"outputs":[{"name":"","type":"address","internalType":"address"}],"stateMutability":"view"},{"type":"function","name":"buy","inputs":[{"name":"marketId","type":"uint256","internalType":"uint256"},{"name":"isYES","type":"bool","internalType":"bool"},{"name":"amount","type":"uint256","internalType":"uint256"}],"outputs":[],"stateMutability":"nonpayable"},{"type":"function","name":"closeMarket","inputs":[{"name":"marketId","type":"uint256","internalType":"uint256"}],"outputs":[],"stateMutability":"nonpayable"},{"type":"function","name":"createMarket","inputs":[{"name":"question","type":"string","internalType":"string"},{"name":"endTime","type":"uint256","internalType":"uint256"},{"name":"resolver","type":"address","internalType":"address"}],"outputs":[{"name":"marketId","type":"uint256","internalType":"uint256"}],"stateMutability":"nonpayable"},{"type":"function","name":"feeSplitter","inputs":[],"outputs":[{"name":"","type":"address","internalType":"address"}],"stateMutability":"view"},{"type":"function","name":"getMarket","inputs":[{"name":"marketId","type":"uint256","internalType":"uint256"}],"outputs":[{"name":"question","type":"string","internalType":"string"},{"name":"endTime","type":"uint256","internalType":"uint256"},{"name":"status","type":"uint8","internalType":"enum MarketFactory.MarketStatus"},{"name":"totalYES","type":"uint256","internalType":"uint256"},{"name":"totalNO","type":"uint256","internalType":"uint256"},{"name":"collateral","type":"uint256","internalType":"uint256"}],"stateMutability":"view"},{"type":"function","name":"goodDollar","inputs":[],"outputs":[{"name":"","type":"address","internalType":"contract IPredictToken"}],"stateMutability":"view"},{"type":"function","name":"impliedProbabilityYES","inputs":[{"name":"marketId","type":"uint256","internalType":"uint256"}],"outputs":[{"name":"","type":"uint256","internalType":"uint256"}],"stateMutability":"view"},{"type":"function","name":"marketCount","inputs":[],"outputs":[{"name":"","type":"uint256","internalType":"uint256"}],"stateMutability":"view"},{"type":"function","name":"markets","inputs":[{"name":"","type":"uint256","internalType":"uint256"}],"outputs":[{"name":"question","type":"string","internalType":"string"},{"name":"endTime","type":"uint256","internalType":"uint256"},{"name":"status","type":"uint8","internalType":"enum MarketFactory.MarketStatus"},{"name":"totalYES","type":"uint256","internalType":"uint256"},{"name":"totalNO","type":"uint256","internalType":"uint256"},{"name":"collateral","type":"uint256","internalType":"uint256"},{"name":"resolver","type":"address","internalType":"address"}],"stateMutability":"view"},{"type":"function","name":"redeem","inputs":[{"name":"marketId","type":"uint256","internalType":"uint256"},{"name":"amount","type":"uint256","internalType":"uint256"}],"outputs":[],"stateMutability":"nonpayable"},{"type":"function","name":"resolve","inputs":[{"name":"marketId","type":"uint256","internalType":"uint256"},{"name":"yesWon","type":"bool","internalType":"bool"}],"outputs":[],"stateMutability":"nonpayable"},{"type":"function","name":"setAdmin","inputs":[{"name":"newAdmin","type":"address","internalType":"address"}],"outputs":[],"stateMutability":"nonpayable"},{"type":"function","name":"tokens","inputs":[],"outputs":[{"name":"","type":"address","internalType":"contract ConditionalTokens"}],"stateMutability":"view"},{"type":"function","name":"voidMarket","inputs":[{"name":"marketId","type":"uint256","internalType":"uint256"}],"outputs":[],"stateMutability":"nonpayable"},{"type":"event","name":"Bought","inputs":[{"name":"marketId","type":"uint256","indexed":true,"internalType":"uint256"},{"name":"buyer","type":"address","indexed":true,"internalType":"address"},{"name":"isYES","type":"bool","indexed":false,"internalType":"bool"},{"name":"amount","type":"uint256","indexed":false,"internalType":"uint256"},{"name":"cost","type":"uint256","indexed":false,"internalType":"uint256"}],"anonymous":false},{"type":"event","name":"MarketCreated","inputs":[{"name":"marketId","type":"uint256","indexed":true,"internalType":"uint256"},{"name":"question","type":"string","indexed":false,"internalType":"string"},{"name":"endTime","type":"uint256","indexed":false,"internalType":"uint256"},{"name":"resolver","type":"address","indexed":false,"internalType":"address"}],"anonymous":false},{"type":"event","name":"MarketResolved","inputs":[{"name":"marketId","type":"uint256","indexed":true,"internalType":"uint256"},{"name":"result","type":"uint8","indexed":false,"internalType":"enum MarketFactory.MarketStatus"}],"anonymous":false},{"type":"event","name":"MarketVoided","inputs":[{"name":"marketId","type":"uint256","indexed":true,"internalType":"uint256"}],"anonymous":false},{"type":"event","name":"Redeemed","inputs":[{"name":"marketId","type":"uint256","indexed":true,"internalType":"uint256"},{"name":"redeemer","type":"address","indexed":true,"internalType":"address"},{"name":"amount","type":"uint256","indexed":false,"internalType":"uint256"},{"name":"payout","type":"uint256","indexed":false,"internalType":"uint256"}],"anonymous":false},{"type":"error","name":"MarketExpired","inputs":[]},{"type":"error","name":"MarketNotClosed","inputs":[]},{"type":"error","name":"MarketNotExpired","inputs":[]},{"type":"error","name":"MarketNotOpen","inputs":[]},{"type":"error","name":"MarketNotResolved","inputs":[]},{"type":"error","name":"NotAdmin","inputs":[]},{"type":"error","name":"TransferFailed","inputs":[]},{"type":"error","name":"Unauthorized","inputs":[]},{"type":"error","name":"ZeroAddress","inputs":[]},{"type":"error","name":"ZeroAmount","inputs":[]}],"bytecode":{"object":"0x60e060405234801561000f575f5ffd5b506040516141d73803806141d7833981810160405281019061003191906102de565b5f73ffffffffffffffffffffffffffffffffffffffff168373ffffffffffffffffffffffffffffffffffffffff1603610096576040517fd92e233d00000000000000000000000000000000000000000000000000000000815260040160405180910390fd5b5f73ffffffffffffffffffffffffffffffffffffffff168273ffffffffffffffffffffffffffffffffffffffff16036100fb576040517fd92e233d00000000000000000000000000000000000000000000000000000000815260040160405180910390fd5b5f73ffffffffffffffffffffffffffffffffffffffff168173ffffffffffffffffffffffffffffffffffffffff1603610160576040517fd92e233d00000000000000000000000000000000000000000000000000000000815260040160405180910390fd5b8273ffffffffffffffffffffffffffffffffffffffff1660a08173ffffffffffffffffffffffffffffffffffffffff16815250508173ffffffffffffffffffffffffffffffffffffffff1660c08173ffffffffffffffffffffffffffffffffffffffff1681525050805f5f6101000a81548173ffffffffffffffffffffffffffffffffffffffff021916908373ffffffffffffffffffffffffffffffffffffffff1602179055503060405161021490610273565b61021e919061033d565b604051809103905ff080158015610237573d5f5f3e3d5ffd5b5073ffffffffffffffffffffffffffffffffffffffff1660808173ffffffffffffffffffffffffffffffffffffffff1681525050505050610356565b6119f7806127e083390190565b5f5ffd5b5f73ffffffffffffffffffffffffffffffffffffffff82169050919050565b5f6102ad82610284565b9050919050565b6102bd816102a3565b81146102c7575f5ffd5b50565b5f815190506102d8816102b4565b92915050565b5f5f5f606084860312156102f5576102f4610280565b5b5f610302868287016102ca565b9350506020610313868287016102ca565b9250506040610324868287016102ca565b9150509250925092565b610337816102a3565b82525050565b5f6020820190506103505f83018461032e565b92915050565b60805160a05160c05161242f6103b15f395f8181610ddb015261124501525f8181610354015281816104ff0152818161120901526113a701525f8181610663015281816110b90152818161130201526114d7015261242f5ff3fe608060405234801561000f575f5ffd5b5060043610610109575f3560e01c80636052970c116100a0578063ae4180951161006f578063ae4180951461028f578063b1283e77146102ab578063eb44fdd3146102e1578063ec97908214610316578063f851a4401461033457610109565b80636052970c1461021b578063704b6c02146102395780637cbc2373146102555780639d63848a1461027157610109565b8063438af924116100dc578063438af9241461019757806352a34b05146101b3578063576cf9d0146101cf5780635b7aa7bd146101ff57610109565b8063119e5bf31461010d578063216209011461012b578063249d39e91461015b57806338fd6bdb14610179575b5f5ffd5b610115610352565b6040516101229190611891565b60405180910390f35b610145600480360381019061014091906118e5565b610376565b604051610152919061191f565b60405180910390f35b6101636103eb565b604051610170919061191f565b60405180910390f35b6101816103f1565b60405161018e919061191f565b60405180910390f35b6101b160048036038101906101ac919061196d565b6103f6565b005b6101cd60048036038101906101c891906119bd565b610746565b005b6101e960048036038101906101e49190611a97565b61093f565b6040516101f6919061191f565b60405180910390f35b610219600480360381019061021491906118e5565b610c24565b005b610223610dd9565b6040516102309190611b17565b60405180910390f35b610253600480360381019061024e9190611b30565b610dfd565b005b61026f600480360381019061026a9190611b5b565b610f29565b005b6102796114d5565b6040516102869190611bb9565b60405180910390f35b6102a960048036038101906102a491906118e5565b6114f9565b005b6102c560048036038101906102c091906118e5565b6115f7565b6040516102d89796959493929190611cb5565b60405180910390f35b6102fb60048036038101906102f691906118e5565b6116f5565b60405161030d96959493929190611d29565b60405180910390f35b61031e6117e7565b60405161032b919061191f565b60405180910390f35b61033c6117f3565b6040516103499190611b17565b60405180910390f35b7f000000000000000000000000000000000000000000000000000000000000000081565b5f5f6001838154811061038c5761038b611d8f565b5b905f5260205f20906007020190505f816004015482600301546103af9190611de9565b90505f81036103c457611388925050506103e6565b8061271083600301546103d79190611e1c565b6103e19190611e8a565b925050505b919050565b61271081565b606481565b5f810361042f576040517f1f2a200500000000000000000000000000000000000000000000000000000000815260040160405180910390fd5b5f6001848154811061044457610443611d8f565b5b905f5260205f20906007020190505f600481111561046557610464611c42565b5b816002015f9054906101000a900460ff16600481111561048857610487611c42565b5b146104bf576040517fc02d38cc00000000000000000000000000000000000000000000000000000000815260040160405180910390fd5b806001015442106104fc576040517fb2094b5900000000000000000000000000000000000000000000000000000000815260040160405180910390fd5b5f7f000000000000000000000000000000000000000000000000000000000000000073ffffffffffffffffffffffffffffffffffffffff166323b872dd3330866040518463ffffffff1660e01b815260040161055a93929190611eba565b6020604051808303815f875af1158015610576573d5f5f3e3d5ffd5b505050506040513d601f19601f8201168201806040525081019061059a9190611f03565b9050806105d3576040517f90b8ec1800000000000000000000000000000000000000000000000000000000815260040160405180910390fd5b82826005015f8282546105e69190611de9565b925050819055505f846106115760016002876106029190611e1c565b61060c9190611de9565b61061f565b60028661061e9190611e1c565b5b905084156106465783836003015f82825461063a9190611de9565b92505081905550610661565b83836004015f8282546106599190611de9565b925050819055505b7f000000000000000000000000000000000000000000000000000000000000000073ffffffffffffffffffffffffffffffffffffffff1663156e29f63383876040518463ffffffff1660e01b81526004016106be93929190611f2e565b5f604051808303815f87803b1580156106d5575f5ffd5b505af11580156106e7573d5f5f3e3d5ffd5b505050503373ffffffffffffffffffffffffffffffffffffffff16867f94b749af8a24a9e71a160cea1a268a96ec3299200f809d63344a0f668c0f034987878860405161073693929190611f72565b60405180910390a3505050505050565b5f6001838154811061075b5761075a611d8f565b5b905f5260205f20906007020190506001600481111561077d5761077c611c42565b5b816002015f9054906101000a900460ff1660048111156107a05761079f611c42565b5b146107d7576040517fa8a9eb6900000000000000000000000000000000000000000000000000000000815260040160405180910390fd5b806006015f9054906101000a900473ffffffffffffffffffffffffffffffffffffffff1673ffffffffffffffffffffffffffffffffffffffff163373ffffffffffffffffffffffffffffffffffffffff161415801561088257505f5f9054906101000a900473ffffffffffffffffffffffffffffffffffffffff1673ffffffffffffffffffffffffffffffffffffffff163373ffffffffffffffffffffffffffffffffffffffff1614155b156108b9576040517f82b4290000000000000000000000000000000000000000000000000000000000815260040160405180910390fd5b816108c55760036108c8565b60025b816002015f6101000a81548160ff021916908360048111156108ed576108ec611c42565b5b0217905550827f739f283563fb51ab6b89ee95d937b2e63a6cfcb83c385dbebb629f9d97bd43e6826002015f9054906101000a900460ff166040516109329190611fa7565b60405180910390a2505050565b5f5f5f9054906101000a900473ffffffffffffffffffffffffffffffffffffffff1673ffffffffffffffffffffffffffffffffffffffff163373ffffffffffffffffffffffffffffffffffffffff16146109c5576040517f7bfa4b9f00000000000000000000000000000000000000000000000000000000815260040160405180910390fd5b4283116109fe576040517fb2094b5900000000000000000000000000000000000000000000000000000000815260040160405180910390fd5b5f5f73ffffffffffffffffffffffffffffffffffffffff168373ffffffffffffffffffffffffffffffffffffffff1614610a385782610a5a565b5f5f9054906101000a900473ffffffffffffffffffffffffffffffffffffffff165b9050600180549050915060016040518060e0016040528088888080601f0160208091040260200160405190810160405280939291908181526020018383808284375f81840152601f19601f8201169050808301925050505050505081526020018681526020015f6004811115610ad357610ad2611c42565b5b81526020015f81526020015f81526020015f81526020018373ffffffffffffffffffffffffffffffffffffffff16815250908060018154018082558091505060019003905f5260205f2090600702015f909190919091505f820151815f019081610b3d91906121f2565b50602082015181600101556040820151816002015f6101000a81548160ff02191690836004811115610b7257610b71611c42565b5b0217905550606082015181600301556080820151816004015560a0820151816005015560c0820151816006015f6101000a81548173ffffffffffffffffffffffffffffffffffffffff021916908373ffffffffffffffffffffffffffffffffffffffff1602179055505050817f57d0d124b72f81ed1da0dc728fc33db342705974792928796f6577b8db5c3d5387878785604051610c1394939291906122fb565b60405180910390a250949350505050565b5f5f9054906101000a900473ffffffffffffffffffffffffffffffffffffffff1673ffffffffffffffffffffffffffffffffffffffff163373ffffffffffffffffffffffffffffffffffffffff1614610ca9576040517f7bfa4b9f00000000000000000000000000000000000000000000000000000000815260040160405180910390fd5b5f60018281548110610cbe57610cbd611d8f565b5b905f5260205f20906007020190505f6004811115610cdf57610cde611c42565b5b816002015f9054906101000a900460ff166004811115610d0257610d01611c42565b5b14158015610d45575060016004811115610d1f57610d1e611c42565b5b816002015f9054906101000a900460ff166004811115610d4257610d41611c42565b5b14155b15610d7c576040517fc02d38cc00000000000000000000000000000000000000000000000000000000815260040160405180910390fd5b6004816002015f6101000a81548160ff02191690836004811115610da357610da2611c42565b5b0217905550817f195195e0299c84aaf9806e53f35fd9fa6d45ba472297297393afe457bfff771960405160405180910390a25050565b7f000000000000000000000000000000000000000000000000000000000000000081565b5f5f9054906101000a900473ffffffffffffffffffffffffffffffffffffffff1673ffffffffffffffffffffffffffffffffffffffff163373ffffffffffffffffffffffffffffffffffffffff1614610e82576040517f7bfa4b9f00000000000000000000000000000000000000000000000000000000815260040160405180910390fd5b5f73ffffffffffffffffffffffffffffffffffffffff168173ffffffffffffffffffffffffffffffffffffffff1603610ee7576040517fd92e233d00000000000000000000000000000000000000000000000000000000815260040160405180910390fd5b805f5f6101000a81548173ffffffffffffffffffffffffffffffffffffffff021916908373ffffffffffffffffffffffffffffffffffffffff16021790555050565b5f8103610f62576040517f1f2a200500000000000000000000000000000000000000000000000000000000815260040160405180910390fd5b5f60018381548110610f7757610f76611d8f565b5b905f5260205f20906007020190505f600480811115610f9957610f98611c42565b5b826002015f9054906101000a900460ff166004811115610fbc57610fbb611c42565b5b1490505f60026004811115610fd457610fd3611c42565b5b836002015f9054906101000a900460ff166004811115610ff757610ff6611c42565b5b1490505f6003600481111561100f5761100e611c42565b5b846002015f9054906101000a900460ff16600481111561103257611031611c42565b5b14905082158015611041575081155b801561104b575080155b15611082576040517f2e96c72600000000000000000000000000000000000000000000000000000000815260040160405180910390fd5b5f5f841561116b575f6002896110989190611e1c565b90505f600160028b6110aa9190611e1c565b6110b49190611de9565b9050887f000000000000000000000000000000000000000000000000000000000000000073ffffffffffffffffffffffffffffffffffffffff1662fdd58e33856040518363ffffffff1660e01b8152600401611111929190612339565b602060405180830381865afa15801561112c573d5f5f3e3d5ffd5b505050506040513d601f19601f820116820180604052508101906111509190612374565b1061115d57819350611161565b8093505b8892505050611300565b8361118e57600160028961117f9190611e1c565b6111899190611de9565b61119c565b60028861119b9190611e1c565b5b91505f846111ae5786600401546111b4565b86600301545b9050808760050154896111c79190611e1c565b6111d19190611e8a565b91505f6127106064846111e49190611e1c565b6111ee9190611e8a565b905080836111fc919061239f565b92505f8111156112fd575f7f000000000000000000000000000000000000000000000000000000000000000073ffffffffffffffffffffffffffffffffffffffff1663a9059cbb7f0000000000000000000000000000000000000000000000000000000000000000846040518363ffffffff1660e01b8152600401611282929190612339565b6020604051808303815f875af115801561129e573d5f5f3e3d5ffd5b505050506040513d601f19601f820116820180604052508101906112c29190611f03565b9050806112fb576040517f90b8ec1800000000000000000000000000000000000000000000000000000000815260040160405180910390fd5b505b50505b7f000000000000000000000000000000000000000000000000000000000000000073ffffffffffffffffffffffffffffffffffffffff1663f5298aca33848a6040518463ffffffff1660e01b815260040161135d93929190611f2e565b5f604051808303815f87803b158015611374575f5ffd5b505af1158015611386573d5f5f3e3d5ffd5b5050505080866005015f82825461139d919061239f565b925050819055505f7f000000000000000000000000000000000000000000000000000000000000000073ffffffffffffffffffffffffffffffffffffffff1663a9059cbb33846040518363ffffffff1660e01b8152600401611400929190612339565b6020604051808303815f875af115801561141c573d5f5f3e3d5ffd5b505050506040513d601f19601f820116820180604052508101906114409190611f03565b905080611479576040517f90b8ec1800000000000000000000000000000000000000000000000000000000815260040160405180910390fd5b3373ffffffffffffffffffffffffffffffffffffffff16897fa5851b0172fdafd3dafe0e52ce051747548a4c642a2f22793c01faf228e130628a856040516114c29291906123d2565b60405180910390a3505050505050505050565b7f000000000000000000000000000000000000000000000000000000000000000081565b5f6001828154811061150e5761150d611d8f565b5b905f5260205f20906007020190505f600481111561152f5761152e611c42565b5b816002015f9054906101000a900460ff16600481111561155257611551611c42565b5b14611589576040517fc02d38cc00000000000000000000000000000000000000000000000000000000815260040160405180910390fd5b80600101544210156115c7576040517f671eb0c500000000000000000000000000000000000000000000000000000000815260040160405180910390fd5b6001816002015f6101000a81548160ff021916908360048111156115ee576115ed611c42565b5b02179055505050565b60018181548110611606575f80fd5b905f5260205f2090600702015f91509050805f0180546116259061201a565b80601f01602080910402602001604051908101604052809291908181526020018280546116519061201a565b801561169c5780601f106116735761010080835404028352916020019161169c565b820191905f5260205f20905b81548152906001019060200180831161167f57829003601f168201915b505050505090806001015490806002015f9054906101000a900460ff1690806003015490806004015490806005015490806006015f9054906101000a900473ffffffffffffffffffffffffffffffffffffffff16905087565b60605f5f5f5f5f5f6001888154811061171157611710611d8f565b5b905f5260205f2090600702019050805f018160010154826002015f9054906101000a900460ff168360030154846004015485600501548580546117539061201a565b80601f016020809104026020016040519081016040528092919081815260200182805461177f9061201a565b80156117ca5780601f106117a1576101008083540402835291602001916117ca565b820191905f5260205f20905b8154815290600101906020018083116117ad57829003601f168201915b505050505095509650965096509650965096505091939550919395565b5f600180549050905090565b5f5f9054906101000a900473ffffffffffffffffffffffffffffffffffffffff1681565b5f73ffffffffffffffffffffffffffffffffffffffff82169050919050565b5f819050919050565b5f61185961185461184f84611817565b611836565b611817565b9050919050565b5f61186a8261183f565b9050919050565b5f61187b82611860565b9050919050565b61188b81611871565b82525050565b5f6020820190506118a45f830184611882565b92915050565b5f5ffd5b5f5ffd5b5f819050919050565b6118c4816118b2565b81146118ce575f5ffd5b50565b5f813590506118df816118bb565b92915050565b5f602082840312156118fa576118f96118aa565b5b5f611907848285016118d1565b91505092915050565b611919816118b2565b82525050565b5f6020820190506119325f830184611910565b92915050565b5f8115159050919050565b61194c81611938565b8114611956575f5ffd5b50565b5f8135905061196781611943565b92915050565b5f5f5f60608486031215611984576119836118aa565b5b5f611991868287016118d1565b93505060206119a286828701611959565b92505060406119b3868287016118d1565b9150509250925092565b5f5f604083850312156119d3576119d26118aa565b5b5f6119e0858286016118d1565b92505060206119f185828601611959565b9150509250929050565b5f5ffd5b5f5ffd5b5f5ffd5b5f5f83601f840112611a1c57611a1b6119fb565b5b8235905067ffffffffffffffff811115611a3957611a386119ff565b5b602083019150836001820283011115611a5557611a54611a03565b5b9250929050565b5f611a6682611817565b9050919050565b611a7681611a5c565b8114611a80575f5ffd5b50565b5f81359050611a9181611a6d565b92915050565b5f5f5f5f60608587031215611aaf57611aae6118aa565b5b5f85013567ffffffffffffffff811115611acc57611acb6118ae565b5b611ad887828801611a07565b94509450506020611aeb878288016118d1565b9250506040611afc87828801611a83565b91505092959194509250565b611b1181611a5c565b82525050565b5f602082019050611b2a5f830184611b08565b92915050565b5f60208284031215611b4557611b446118aa565b5b5f611b5284828501611a83565b91505092915050565b5f5f60408385031215611b7157611b706118aa565b5b5f611b7e858286016118d1565b9250506020611b8f858286016118d1565b9150509250929050565b5f611ba382611860565b9050919050565b611bb381611b99565b82525050565b5f602082019050611bcc5f830184611baa565b92915050565b5f81519050919050565b5f82825260208201905092915050565b8281835e5f83830152505050565b5f601f19601f8301169050919050565b5f611c1482611bd2565b611c1e8185611bdc565b9350611c2e818560208601611bec565b611c3781611bfa565b840191505092915050565b7f4e487b71000000000000000000000000000000000000000000000000000000005f52602160045260245ffd5b60058110611c8057611c7f611c42565b5b50565b5f819050611c9082611c6f565b919050565b5f611c9f82611c83565b9050919050565b611caf81611c95565b82525050565b5f60e0820190508181035f830152611ccd818a611c0a565b9050611cdc6020830189611910565b611ce96040830188611ca6565b611cf66060830187611910565b611d036080830186611910565b611d1060a0830185611910565b611d1d60c0830184611b08565b98975050505050505050565b5f60c0820190508181035f830152611d418189611c0a565b9050611d506020830188611910565b611d5d6040830187611ca6565b611d6a6060830186611910565b611d776080830185611910565b611d8460a0830184611910565b979650505050505050565b7f4e487b71000000000000000000000000000000000000000000000000000000005f52603260045260245ffd5b7f4e487b71000000000000000000000000000000000000000000000000000000005f52601160045260245ffd5b5f611df3826118b2565b9150611dfe836118b2565b9250828201905080821115611e1657611e15611dbc565b5b92915050565b5f611e26826118b2565b9150611e31836118b2565b9250828202611e3f816118b2565b91508282048414831517611e5657611e55611dbc565b5b5092915050565b7f4e487b71000000000000000000000000000000000000000000000000000000005f52601260045260245ffd5b5f611e94826118b2565b9150611e9f836118b2565b925082611eaf57611eae611e5d565b5b828204905092915050565b5f606082019050611ecd5f830186611b08565b611eda6020830185611b08565b611ee76040830184611910565b949350505050565b5f81519050611efd81611943565b92915050565b5f60208284031215611f1857611f176118aa565b5b5f611f2584828501611eef565b91505092915050565b5f606082019050611f415f830186611b08565b611f4e6020830185611910565b611f5b6040830184611910565b949350505050565b611f6c81611938565b82525050565b5f606082019050611f855f830186611f63565b611f926020830185611910565b611f9f6040830184611910565b949350505050565b5f602082019050611fba5f830184611ca6565b92915050565b7f4e487b71000000000000000000000000000000000000000000000000000000005f52604160045260245ffd5b7f4e487b71000000000000000000000000000000000000000000000000000000005f52602260045260245ffd5b5f600282049050600182168061203157607f821691505b60208210810361204457612043611fed565b5b50919050565b5f819050815f5260205f209050919050565b5f6020601f8301049050919050565b5f82821b905092915050565b5f600883026120a67fffffffffffffffffffffffffffffffffffffffffffffffffffffffffffffffff8261206b565b6120b0868361206b565b95508019841693508086168417925050509392505050565b5f6120e26120dd6120d8846118b2565b611836565b6118b2565b9050919050565b5f819050919050565b6120fb836120c8565b61210f612107826120e9565b848454612077565b825550505050565b5f5f905090565b612126612117565b6121318184846120f2565b505050565b5f5b828110156121575761214c5f82840161211e565b600181019050612138565b505050565b601f8211156121aa57828211156121a9576121768161204a565b61217f8361205c565b6121888561205c565b6020861015612195575f90505b8083016121a482840382612136565b505050505b5b505050565b5f82821c905092915050565b5f6121ca5f19846008026121af565b1980831691505092915050565b5f6121e283836121bb565b9150826002028217905092915050565b6121fb82611bd2565b67ffffffffffffffff81111561221457612213611fc0565b5b61221e825461201a565b61222982828561215c565b5f60209050601f83116001811461225a575f8415612248578287015190505b61225285826121d7565b8655506122b9565b601f1984166122688661204a565b5f5b8281101561228f5784890151825560018201915060208501945060208101905061226a565b868310156122ac57848901516122a8601f8916826121bb565b8355505b6001600288020188555050505b505050505050565b828183375f83830152505050565b5f6122da8385611bdc565b93506122e78385846122c1565b6122f083611bfa565b840190509392505050565b5f6060820190508181035f8301526123148186886122cf565b90506123236020830185611910565b6123306040830184611b08565b95945050505050565b5f60408201905061234c5f830185611b08565b6123596020830184611910565b9392505050565b5f8151905061236e816118bb565b92915050565b5f60208284031215612389576123886118aa565b5b5f61239684828501612360565b91505092915050565b5f6123a9826118b2565b91506123b4836118b2565b92508282039050818111156123cc576123cb611dbc565b5b92915050565b5f6040820190506123e55f830185611910565b6123f26020830184611910565b939250505056fea2646970667358221220756af1067c787054079d1f2d1c714307a224bb951310af1e23b6aca65127dff764736f6c6343000821003360a060405234801561000f575f5ffd5b506040516119f73803806119f78339818101604052810190610031919061012e565b5f73ffffffffffffffffffffffffffffffffffffffff168173ffffffffffffffffffffffffffffffffffffffff1603610096576040517fd92e233d00000000000000000000000000000000000000000000000000000000815260040160405180910390fd5b8073ffffffffffffffffffffffffffffffffffffffff1660808173ffffffffffffffffffffffffffffffffffffffff168152505050610159565b5f5ffd5b5f73ffffffffffffffffffffffffffffffffffffffff82169050919050565b5f6100fd826100d4565b9050919050565b61010d816100f3565b8114610117575f5ffd5b50565b5f8151905061012881610104565b92915050565b5f60208284031215610143576101426100d0565b5b5f6101508482850161011a565b91505092915050565b60805161187861017f5f395f818161026501528181610a670152610df101526118785ff3fe608060405234801561000f575f5ffd5b50600436106100a6575f3560e01c8063a22cb4651161006f578063a22cb46514610172578063c45a01551461018e578063e729dc30146101ac578063e985e9c5146101dc578063f242432a1461020c578063f5298aca14610228576100a6565b8062fdd58e146100aa578063156e29f6146100da5780632eb2c2d6146100f65780633c39b357146101125780634e1273f414610142575b5f5ffd5b6100c460048036038101906100bf9190611072565b610244565b6040516100d191906110bf565b60405180910390f35b6100f460048036038101906100ef91906110d8565b610263565b005b610110600480360381019061010b91906111de565b6103cc565b005b61012c600480360381019061012791906112b5565b6107ec565b60405161013991906110bf565b60405180910390f35b61015c60048036038101906101579190611335565b61080d565b604051610169919061146a565b60405180910390f35b61018c600480360381019061018791906114bf565b61096d565b005b610196610a65565b6040516101a3919061150c565b60405180910390f35b6101c660048036038101906101c191906112b5565b610a89565b6040516101d391906110bf565b60405180910390f35b6101f660048036038101906101f19190611525565b610a9e565b6040516102039190611572565b60405180910390f35b6102266004803603810190610221919061158b565b610ac8565b005b610242600480360381019061023d91906110d8565b610def565b005b5f602052815f5260405f20602052805f5260405f205f91509150505481565b7f000000000000000000000000000000000000000000000000000000000000000073ffffffffffffffffffffffffffffffffffffffff163373ffffffffffffffffffffffffffffffffffffffff16146102e8576040517f32cc723600000000000000000000000000000000000000000000000000000000815260040160405180910390fd5b805f5f8573ffffffffffffffffffffffffffffffffffffffff1673ffffffffffffffffffffffffffffffffffffffff1681526020019081526020015f205f8481526020019081526020015f205f828254610342919061164e565b925050819055508273ffffffffffffffffffffffffffffffffffffffff165f73ffffffffffffffffffffffffffffffffffffffff163373ffffffffffffffffffffffffffffffffffffffff167fc3d58168c5ae7397731d063d5bbf3d657854427343f4c083240f7aacaa2d0f6285856040516103bf929190611681565b60405180910390a4505050565b5f73ffffffffffffffffffffffffffffffffffffffff168773ffffffffffffffffffffffffffffffffffffffff1603610431576040517fd92e233d00000000000000000000000000000000000000000000000000000000815260040160405180910390fd5b3373ffffffffffffffffffffffffffffffffffffffff168873ffffffffffffffffffffffffffffffffffffffff16141580156104ef575060015f8973ffffffffffffffffffffffffffffffffffffffff1673ffffffffffffffffffffffffffffffffffffffff1681526020019081526020015f205f3373ffffffffffffffffffffffffffffffffffffffff1673ffffffffffffffffffffffffffffffffffffffff1681526020019081526020015f205f9054906101000a900460ff16155b15610526576040517fc19f17a900000000000000000000000000000000000000000000000000000000815260040160405180910390fd5b838390508686905014610565576040517fff633a3800000000000000000000000000000000000000000000000000000000815260040160405180910390fd5b5f5f90505b8686905081101561075f57848482818110610588576105876116a8565b5b905060200201355f5f8b73ffffffffffffffffffffffffffffffffffffffff1673ffffffffffffffffffffffffffffffffffffffff1681526020019081526020015f205f8989858181106105df576105de6116a8565b5b9050602002013581526020019081526020015f2054101561062c576040517ff4d678b800000000000000000000000000000000000000000000000000000000815260040160405180910390fd5b84848281811061063f5761063e6116a8565b5b905060200201355f5f8b73ffffffffffffffffffffffffffffffffffffffff1673ffffffffffffffffffffffffffffffffffffffff1681526020019081526020015f205f898985818110610696576106956116a8565b5b9050602002013581526020019081526020015f205f8282546106b891906116d5565b925050819055508484828181106106d2576106d16116a8565b5b905060200201355f5f8a73ffffffffffffffffffffffffffffffffffffffff1673ffffffffffffffffffffffffffffffffffffffff1681526020019081526020015f205f898985818110610729576107286116a8565b5b9050602002013581526020019081526020015f205f82825461074b919061164e565b92505081905550808060010191505061056a565b508673ffffffffffffffffffffffffffffffffffffffff168873ffffffffffffffffffffffffffffffffffffffff163373ffffffffffffffffffffffffffffffffffffffff167f4a39dc06d4c0dbc64b70af90fd698a233a518aa5d07e595d983b8c0526c8f7fb898989896040516107da9493929190611770565b60405180910390a45050505050505050565b5f60016002836107fc91906117a9565b610806919061164e565b9050919050565b606082829050858590501461084e576040517fff633a3800000000000000000000000000000000000000000000000000000000815260040160405180910390fd5b8484905067ffffffffffffffff81111561086b5761086a6117ea565b5b6040519080825280602002602001820160405280156108995781602001602082028036833780820191505090505b5090505f5f90505b85859050811015610964575f5f8787848181106108c1576108c06116a8565b5b90506020020160208101906108d69190611817565b73ffffffffffffffffffffffffffffffffffffffff1673ffffffffffffffffffffffffffffffffffffffff1681526020019081526020015f205f858584818110610923576109226116a8565b5b9050602002013581526020019081526020015f205482828151811061094b5761094a6116a8565b5b60200260200101818152505080806001019150506108a1565b50949350505050565b8060015f3373ffffffffffffffffffffffffffffffffffffffff1673ffffffffffffffffffffffffffffffffffffffff1681526020019081526020015f205f8473ffffffffffffffffffffffffffffffffffffffff1673ffffffffffffffffffffffffffffffffffffffff1681526020019081526020015f205f6101000a81548160ff0219169083151502179055508173ffffffffffffffffffffffffffffffffffffffff163373ffffffffffffffffffffffffffffffffffffffff167f17307eab39ab6107e8899845ad3d59bd9653f200f220920489ca2b5937696c3183604051610a599190611572565b60405180910390a35050565b7f000000000000000000000000000000000000000000000000000000000000000081565b5f600282610a9791906117a9565b9050919050565b6001602052815f5260405f20602052805f5260405f205f915091509054906101000a900460ff1681565b5f73ffffffffffffffffffffffffffffffffffffffff168573ffffffffffffffffffffffffffffffffffffffff1603610b2d576040517fd92e233d00000000000000000000000000000000000000000000000000000000815260040160405180910390fd5b3373ffffffffffffffffffffffffffffffffffffffff168673ffffffffffffffffffffffffffffffffffffffff1614158015610beb575060015f8773ffffffffffffffffffffffffffffffffffffffff1673ffffffffffffffffffffffffffffffffffffffff1681526020019081526020015f205f3373ffffffffffffffffffffffffffffffffffffffff1673ffffffffffffffffffffffffffffffffffffffff1681526020019081526020015f205f9054906101000a900460ff16155b15610c22576040517fc19f17a900000000000000000000000000000000000000000000000000000000815260040160405180910390fd5b825f5f8873ffffffffffffffffffffffffffffffffffffffff1673ffffffffffffffffffffffffffffffffffffffff1681526020019081526020015f205f8681526020019081526020015f20541015610ca7576040517ff4d678b800000000000000000000000000000000000000000000000000000000815260040160405180910390fd5b825f5f8873ffffffffffffffffffffffffffffffffffffffff1673ffffffffffffffffffffffffffffffffffffffff1681526020019081526020015f205f8681526020019081526020015f205f828254610d0191906116d5565b92505081905550825f5f8773ffffffffffffffffffffffffffffffffffffffff1673ffffffffffffffffffffffffffffffffffffffff1681526020019081526020015f205f8681526020019081526020015f205f828254610d62919061164e565b925050819055508473ffffffffffffffffffffffffffffffffffffffff168673ffffffffffffffffffffffffffffffffffffffff163373ffffffffffffffffffffffffffffffffffffffff167fc3d58168c5ae7397731d063d5bbf3d657854427343f4c083240f7aacaa2d0f628787604051610ddf929190611681565b60405180910390a4505050505050565b7f000000000000000000000000000000000000000000000000000000000000000073ffffffffffffffffffffffffffffffffffffffff163373ffffffffffffffffffffffffffffffffffffffff1614610e74576040517f32cc723600000000000000000000000000000000000000000000000000000000815260040160405180910390fd5b805f5f8573ffffffffffffffffffffffffffffffffffffffff1673ffffffffffffffffffffffffffffffffffffffff1681526020019081526020015f205f8481526020019081526020015f20541015610ef9576040517ff4d678b800000000000000000000000000000000000000000000000000000000815260040160405180910390fd5b805f5f8573ffffffffffffffffffffffffffffffffffffffff1673ffffffffffffffffffffffffffffffffffffffff1681526020019081526020015f205f8481526020019081526020015f205f828254610f5391906116d5565b925050819055505f73ffffffffffffffffffffffffffffffffffffffff168373ffffffffffffffffffffffffffffffffffffffff163373ffffffffffffffffffffffffffffffffffffffff167fc3d58168c5ae7397731d063d5bbf3d657854427343f4c083240f7aacaa2d0f628585604051610fd0929190611681565b60405180910390a4505050565b5f5ffd5b5f5ffd5b5f73ffffffffffffffffffffffffffffffffffffffff82169050919050565b5f61100e82610fe5565b9050919050565b61101e81611004565b8114611028575f5ffd5b50565b5f8135905061103981611015565b92915050565b5f819050919050565b6110518161103f565b811461105b575f5ffd5b50565b5f8135905061106c81611048565b92915050565b5f5f6040838503121561108857611087610fdd565b5b5f6110958582860161102b565b92505060206110a68582860161105e565b9150509250929050565b6110b98161103f565b82525050565b5f6020820190506110d25f8301846110b0565b92915050565b5f5f5f606084860312156110ef576110ee610fdd565b5b5f6110fc8682870161102b565b935050602061110d8682870161105e565b925050604061111e8682870161105e565b9150509250925092565b5f5ffd5b5f5ffd5b5f5ffd5b5f5f83601f84011261114957611148611128565b5b8235905067ffffffffffffffff8111156111665761116561112c565b5b60208301915083602082028301111561118257611181611130565b5b9250929050565b5f5f83601f84011261119e5761119d611128565b5b8235905067ffffffffffffffff8111156111bb576111ba61112c565b5b6020830191508360018202830111156111d7576111d6611130565b5b9250929050565b5f5f5f5f5f5f5f5f60a0898b0312156111fa576111f9610fdd565b5b5f6112078b828c0161102b565b98505060206112188b828c0161102b565b975050604089013567ffffffffffffffff81111561123957611238610fe1565b5b6112458b828c01611134565b9650965050606089013567ffffffffffffffff81111561126857611267610fe1565b5b6112748b828c01611134565b9450945050608089013567ffffffffffffffff81111561129757611296610fe1565b5b6112a38b828c01611189565b92509250509295985092959890939650565b5f602082840312156112ca576112c9610fdd565b5b5f6112d78482850161105e565b91505092915050565b5f5f83601f8401126112f5576112f4611128565b5b8235905067ffffffffffffffff8111156113125761131161112c565b5b60208301915083602082028301111561132e5761132d611130565b5b9250929050565b5f5f5f5f6040858703121561134d5761134c610fdd565b5b5f85013567ffffffffffffffff81111561136a57611369610fe1565b5b611376878288016112e0565b9450945050602085013567ffffffffffffffff81111561139957611398610fe1565b5b6113a587828801611134565b925092505092959194509250565b5f81519050919050565b5f82825260208201905092915050565b5f819050602082019050919050565b6113e58161103f565b82525050565b5f6113f683836113dc565b60208301905092915050565b5f602082019050919050565b5f611418826113b3565b61142281856113bd565b935061142d836113cd565b805f5b8381101561145d57815161144488826113eb565b975061144f83611402565b925050600181019050611430565b5085935050505092915050565b5f6020820190508181035f830152611482818461140e565b905092915050565b5f8115159050919050565b61149e8161148a565b81146114a8575f5ffd5b50565b5f813590506114b981611495565b92915050565b5f5f604083850312156114d5576114d4610fdd565b5b5f6114e28582860161102b565b92505060206114f3858286016114ab565b9150509250929050565b61150681611004565b82525050565b5f60208201905061151f5f8301846114fd565b92915050565b5f5f6040838503121561153b5761153a610fdd565b5b5f6115488582860161102b565b92505060206115598582860161102b565b9150509250929050565b61156c8161148a565b82525050565b5f6020820190506115855f830184611563565b92915050565b5f5f5f5f5f5f60a087890312156115a5576115a4610fdd565b5b5f6115b289828a0161102b565b96505060206115c389828a0161102b565b95505060406115d489828a0161105e565b94505060606115e589828a0161105e565b935050608087013567ffffffffffffffff81111561160657611605610fe1565b5b61161289828a01611189565b92509250509295509295509295565b7f4e487b71000000000000000000000000000000000000000000000000000000005f52601160045260245ffd5b5f6116588261103f565b91506116638361103f565b925082820190508082111561167b5761167a611621565b5b92915050565b5f6040820190506116945f8301856110b0565b6116a160208301846110b0565b9392505050565b7f4e487b71000000000000000000000000000000000000000000000000000000005f52603260045260245ffd5b5f6116df8261103f565b91506116ea8361103f565b925082820390508181111561170257611701611621565b5b92915050565b5f5ffd5b82818337505050565b5f61172083856113bd565b93507f07ffffffffffffffffffffffffffffffffffffffffffffffffffffffffffffff83111561175357611752611708565b5b60208302925061176483858461170c565b82840190509392505050565b5f6040820190508181035f830152611789818688611715565b9050818103602083015261179e818486611715565b905095945050505050565b5f6117b38261103f565b91506117be8361103f565b92508282026117cc8161103f565b915082820484148315176117e3576117e2611621565b5b5092915050565b7f4e487b71000000000000000000000000000000000000000000000000000000005f52604160045260245ffd5b5f6020828403121561182c5761182b610fdd565b5b5f6118398482850161102b565b9150509291505056fea2646970667358221220e21c20ba1ed89fe2e5574698172780ff669dddafb63b8f78692cc972634a5e0c64736f6c63430008210033","linkReferences":{}},"methodIdentifiers":{"BPS()":"249d39e9","REDEEM_FEE_BPS()":"38fd6bdb","admin()":"f851a440","buy(uint256,bool,uint256)":"438af924","closeMarket(uint256)":"ae418095","createMarket(string,uint256,address)":"576cf9d0","feeSplitter()":"6052970c","getMarket(uint256)":"eb44fdd3","goodDollar()":"119e5bf3","impliedProbabilityYES(uint256)":"21620901","marketCount()":"ec979082","markets(uint256)":"b1283e77","redeem(uint256,uint256)":"7cbc2373","resolve(uint256,bool)":"52a34b05","setAdmin(address)":"704b6c02","tokens()":"9d63848a","voidMarket(uint256)":"5b7aa7bd"},"id":34}