{"abi":[{"type":"constructor","inputs":[],"stateMutability":"nonpayable"},{"type":"function","name":"MAX_LEADERBOARD_COUNT","inputs":[],"outputs":[{"name":"","type":"uint256","internalType":"uint256"}],"stateMutability":"view"},{"type":"function","name":"addReporter","inputs":[{"name":"reporter","type":"address","internalType":"address"}],"outputs":[],"stateMutability":"nonpayable"},{"type":"function","name":"admin","inputs":[],"outputs":[{"name":"","type":"address","internalType":"address"}],"stateMutability":"view"},{"type":"function","name":"agents","inputs":[{"name":"","type":"uint256","internalType":"uint256"}],"outputs":[{"name":"","type":"address","internalType":"address"}],"stateMutability":"view"},{"type":"function","name":"authorizedReporters","inputs":[{"name":"","type":"address","internalType":"address"}],"outputs":[{"name":"","type":"bool","internalType":"bool"}],"stateMutability":"view"},{"type":"function","name":"deactivateAgent","inputs":[{"name":"agent","type":"address","internalType":"address"}],"outputs":[],"stateMutability":"nonpayable"},{"type":"function","name":"getAgent","inputs":[{"name":"index","type":"uint256","internalType":"uint256"}],"outputs":[{"name":"","type":"address","internalType":"address"}],"stateMutability":"view"},{"type":"function","name":"getAgentCount","inputs":[],"outputs":[{"name":"","type":"uint256","internalType":"uint256"}],"stateMutability":"view"},{"type":"function","name":"getAgentInfo","inputs":[{"name":"agent","type":"address","internalType":"address"}],"outputs":[{"name":"profile","type":"tuple","internalType":"struct AgentRegistry.AgentProfile","components":[{"name":"name","type":"string","internalType":"string"},{"name":"avatarURI","type":"string","internalType":"string"},{"name":"strategy","type":"string","internalType":"string"},{"name":"owner","type":"address","internalType":"address"},{"name":"registeredAt","type":"uint256","internalType":"uint256"},{"name":"active","type":"bool","internalType":"bool"}]},{"name":"agentStats","type":"tuple","internalType":"struct AgentRegistry.AgentStats","components":[{"name":"totalTrades","type":"uint256","internalType":"uint256"},{"name":"totalVolume","type":"uint256","internalType":"uint256"},{"name":"totalFeesGenerated","type":"uint256","internalType":"uint256"},{"name":"ubiContribution","type":"uint256","internalType":"uint256"},{"name":"totalPnL","type":"uint256","internalType":"uint256"},{"name":"pnlPositive","type":"bool","internalType":"bool"},{"name":"lastActiveAt","type":"uint256","internalType":"uint256"}]}],"stateMutability":"view"},{"type":"function","name":"getAgentProtocolStats","inputs":[{"name":"agent","type":"address","internalType":"address"},{"name":"protocol","type":"string","internalType":"string"}],"outputs":[{"name":"","type":"tuple","internalType":"struct AgentRegistry.ProtocolActivity","components":[{"name":"trades","type":"uint256","internalType":"uint256"},{"name":"volume","type":"uint256","internalType":"uint256"},{"name":"fees","type":"uint256","internalType":"uint256"}]}],"stateMutability":"view"},{"type":"function","name":"getDashboardStats","inputs":[],"outputs":[{"name":"_totalAgents","type":"uint256","internalType":"uint256"},{"name":"_totalTrades","type":"uint256","internalType":"uint256"},{"name":"_totalVolume","type":"uint256","internalType":"uint256"},{"name":"_totalUBI","type":"uint256","internalType":"uint256"}],"stateMutability":"view"},{"type":"function","name":"getTopAgents","inputs":[{"name":"count","type":"uint256","internalType":"uint256"}],"outputs":[{"name":"topAddrs","type":"address[]","internalType":"address[]"},{"name":"topNames","type":"string[]","internalType":"string[]"},{"name":"topUBI","type":"uint256[]","internalType":"uint256[]"},{"name":"topVolume","type":"uint256[]","internalType":"uint256[]"},{"name":"topTrades","type":"uint256[]","internalType":"uint256[]"}],"stateMutability":"view"},{"type":"function","name":"isRegistered","inputs":[{"name":"","type":"address","internalType":"address"}],"outputs":[{"name":"","type":"bool","internalType":"bool"}],"stateMutability":"view"},{"type":"function","name":"maxAgents","inputs":[],"outputs":[{"name":"","type":"uint256","internalType":"uint256"}],"stateMutability":"view"},{"type":"function","name":"profiles","inputs":[{"name":"","type":"address","internalType":"address"}],"outputs":[{"name":"name","type":"string","internalType":"string"},{"name":"avatarURI","type":"string","internalType":"string"},{"name":"strategy","type":"string","internalType":"string"},{"name":"owner","type":"address","internalType":"address"},{"name":"registeredAt","type":"uint256","internalType":"uint256"},{"name":"active","type":"bool","internalType":"bool"}],"stateMutability":"view"},{"type":"function","name":"protocolStats","inputs":[{"name":"","type":"address","internalType":"address"},{"name":"","type":"string","internalType":"string"}],"outputs":[{"name":"trades","type":"uint256","internalType":"uint256"},{"name":"volume","type":"uint256","internalType":"uint256"},{"name":"fees","type":"uint256","internalType":"uint256"}],"stateMutability":"view"},{"type":"function","name":"recordActivity","inputs":[{"name":"agent","type":"address","internalType":"address"},{"name":"protocol","type":"string","internalType":"string"},{"name":"volume","type":"uint256","internalType":"uint256"},{"name":"fees","type":"uint256","internalType":"uint256"}],"outputs":[],"stateMutability":"nonpayable"},{"type":"function","name":"recordPnL","inputs":[{"name":"agent","type":"address","internalType":"address"},{"name":"amount","type":"uint256","internalType":"uint256"},{"name":"positive","type":"bool","internalType":"bool"}],"outputs":[],"stateMutability":"nonpayable"},{"type":"function","name":"registerAgent","inputs":[{"name":"agent","type":"address","internalType":"address"},{"name":"name","type":"string","internalType":"string"},{"name":"avatarURI","type":"string","internalType":"string"},{"name":"strategy","type":"string","internalType":"string"}],"outputs":[],"stateMutability":"nonpayable"},{"type":"function","name":"removeReporter","inputs":[{"name":"reporter","type":"address","internalType":"address"}],"outputs":[],"stateMutability":"nonpayable"},{"type":"function","name":"reporters","inputs":[{"name":"","type":"uint256","internalType":"uint256"}],"outputs":[{"name":"","type":"address","internalType":"address"}],"stateMutability":"view"},{"type":"function","name":"setAdmin","inputs":[{"name":"newAdmin","type":"address","internalType":"address"}],"outputs":[],"stateMutability":"nonpayable"},{"type":"function","name":"setMaxAgents","inputs":[{"name":"_max","type":"uint256","internalType":"uint256"}],"outputs":[],"stateMutability":"nonpayable"},{"type":"function","name":"setUBIBPS","inputs":[{"name":"_bps","type":"uint256","internalType":"uint256"}],"outputs":[],"stateMutability":"nonpayable"},{"type":"function","name":"stats","inputs":[{"name":"","type":"address","internalType":"address"}],"outputs":[{"name":"totalTrades","type":"uint256","internalType":"uint256"},{"name":"totalVolume","type":"uint256","internalType":"uint256"},{"name":"totalFeesGenerated","type":"uint256","internalType":"uint256"},{"name":"ubiContribution","type":"uint256","internalType":"uint256"},{"name":"totalPnL","type":"uint256","internalType":"uint256"},{"name":"pnlPositive","type":"bool","internalType":"bool"},{"name":"lastActiveAt","type":"uint256","internalType":"uint256"}],"stateMutability":"view"},{"type":"function","name":"totalAgents","inputs":[],"outputs":[{"name":"","type":"uint256","internalType":"uint256"}],"stateMutability":"view"},{"type":"function","name":"totalTrades","inputs":[],"outputs":[{"name":"","type":"uint256","internalType":"uint256"}],"stateMutability":"view"},{"type":"function","name":"totalUBIGenerated","inputs":[],"outputs":[{"name":"","type":"uint256","internalType":"uint256"}],"stateMutability":"view"},{"type":"function","name":"totalVolume","inputs":[],"outputs":[{"name":"","type":"uint256","internalType":"uint256"}],"stateMutability":"view"},{"type":"function","name":"ubiBPS","inputs":[],"outputs":[{"name":"","type":"uint256","internalType":"uint256"}],"stateMutability":"view"},{"type":"function","name":"updateProfile","inputs":[{"name":"agent","type":"address","internalType":"address"},{"name":"name","type":"string","internalType":"string"},{"name":"avatarURI","type":"string","internalType":"string"},{"name":"strategy","type":"string","internalType":"string"}],"outputs":[],"stateMutability":"nonpayable"},{"type":"event","name":"ActivityRecorded","inputs":[{"name":"agent","type":"address","indexed":true,"internalType":"address"},{"name":"protocol","type":"string","indexed":false,"internalType":"string"},{"name":"volume","type":"uint256","indexed":false,"internalType":"uint256"},{"name":"fees","type":"uint256","indexed":false,"internalType":"uint256"},{"name":"ubiShare","type":"uint256","indexed":false,"internalType":"uint256"}],"anonymous":false},{"type":"event","name":"AgentDeactivated","inputs":[{"name":"agent","type":"address","indexed":true,"internalType":"address"}],"anonymous":false},{"type":"event","name":"AgentRegistered","inputs":[{"name":"agent","type":"address","indexed":true,"internalType":"address"},{"name":"name","type":"string","indexed":false,"internalType":"string"},{"name":"owner","type":"address","indexed":true,"internalType":"address"}],"anonymous":false},{"type":"event","name":"AgentUpdated","inputs":[{"name":"agent","type":"address","indexed":true,"internalType":"address"},{"name":"name","type":"string","indexed":false,"internalType":"string"}],"anonymous":false},{"type":"event","name":"ReporterAdded","inputs":[{"name":"reporter","type":"address","indexed":true,"internalType":"address"}],"anonymous":false},{"type":"event","name":"ReporterRemoved","inputs":[{"name":"reporter","type":"address","indexed":true,"internalType":"address"}],"anonymous":false}],"bytecode":{"object":"0x60808060405234603257610d056001556127106002555f80546001600160a01b031916331790556125b390816100378239f35b5f80fdfe6080806040526004361015610012575f80fd5b5f3560e01c9081630a34d63714611fee57508063152052b014611d9b5780632bfa4e0814611d015780632de5aaf714611ce3578063388ae35614611c2b5780633a41429a14611bee578063513856c814611bac5780635de5c21214611b3b5780635e02cb7d14611ac35780635f81a57c14611aa65780636652189314611a8957806369f1324d146115a7578063704b6c02146115595780638bcdcbf3146114db57806391cab63e146114be5780639d5a394114611176578063a2f6805c14611140578063a4efe69e146110c5578063ae14e6271461103f578063af537a2f14611022578063b0a0a92714610f6e578063b1e29ea414610c0d578063b896f22214610b5d578063bbe1562714610a75578063c3c5a54714610a38578063c505371214610a1b578063dd8755f214610911578063e031ed2b146108f6578063e275c997146108d9578063e2f11e611461019c5763f851a44014610171575f80fd5b34610198575f366003190112610198575f546040516001600160a01b039091168152602090f35b5f80fd5b34610198576080366003190112610198576101b5612008565b6024356001600160401b038111610198576101d49036906004016120f9565b90335f52600860205260ff60405f20541680156108c6575b6101f590612524565b6001600160a01b0383165f9081526004602052604090205460ff1615610423575b6001546064358082029391811591850414171561040f576127107fe569346dc44a549a2dba8bdb890e3ad5f8b19481c95faf552e6c4684f90f369c93049360018060a01b0381165f52600660205260405f2061027281546123a3565b905560018060a01b0381165f526006602052600160405f20016102986044358254612570565b905560018060a01b0381165f526006602052600260405f20016102be6064358254612570565b905560018060a01b0381165f526006602052600360405f20016102e2868254612570565b90556001600160a01b0381165f908152600660208181526040808420429301929092556007815291819020905191908290858783378582019081520301902061032b81546123a3565b905560018060a01b0381165f526007602052600160405f20602060405180928688833786820190815203019020016103666044358254612570565b905560018060a01b0381165f526007602052600260405f20602060405180928688833786820190815203019020016103a16064358254612570565b90556103ae600b546123a3565b600b556103bf604435600c54612570565b600c556103ce85600d54612570565b600d556103e860405193849360808552608085019161240f565b6044356020840152606435604084015260608301959095526001600160a01b0316930390a2005b634e487b7160e01b5f52601160045260245ffd5b61043260035460025411612312565b6001600160a01b0383165f908152600460205260409020805460ff1916600117905561045d8361235e565b610468600a546123a3565b600a5560405161047781612042565b604080516104858282612093565b600f81526e105b9bdb9e5b5bdd5cc81059d95b9d608a1b602082015282526020918151906104b38483612093565b5f825283810191825282516104c88582612093565b5f8082528285019182526001600160a01b03891660608401818152426080860152600160a0860152908252600587529085902083518051919592939291906001600160401b0382116107e15761052882610522895461220d565b896123b1565b8890601f83116001146108635761055692915f91836107f5575b50508160011b915f199060031b1c19161790565b85555b51805160018601916001600160401b0382116107e1576105838261057d855461220d565b856123b1565b8890601f8311600114610800576105b092915f91836107f55750508160011b915f199060031b1c19161790565b90555b518051906001600160401b0382116107e1576105df826105d6600288015461220d565b600288016123b1565b8690601f831160011461075857936e105b9bdb9e5b5bdd5cc81059d95b9d608a1b96959361062b8460059560a09561067c995f9261074d5750508160011b915f199060031b1c19161790565b60028601555b600180841b039051166003850190600180851b03166bffffffffffffffffffffffff841b825416179055608081015160048501550151151591019060ff801983541691151516179055565b80516106878161205d565b5f81526006876107008684015f81528585015f8152606086015f815260808701915f835260a08801936001855260c089019642885260018060a01b03165f52878c52895f2098518955516001890155516002880155516003870155516004860155511515600585019060ff801983541691151516179055565b519101558051838152600f938101939093528201526001600160a01b0384169081907f6cf3badcf1a10c54709f13ad2475d8b3a44ebcb1b93b38e7257f98505323504090606090a3610216565b015190508f80610542565b90600286015f52875f20915f5b89601f19861682106107cb5750509360018460a09461067c98946e105b9bdb9e5b5bdd5cc81059d95b9d608a1b9b9a98600598601f198116106107b3575b505050811b016002860155610631565b01515f1960f88460031b161c191690558e80806107a3565b6001849582939585015181550194019201610765565b634e487b7160e01b5f52604160045260245ffd5b015190508d80610542565b90601f19831691845f528a5f20925f5b8c82821061084d575050908460019594939210610835575b505050811b0190556105b3565b01515f1960f88460031b161c191690558c8080610828565b6001859682939686015181550195019301610810565b90601f19831691885f528a5f20925f5b8c8282106108b0575050908460019594939210610898575b505050811b018555610559565b01515f1960f88460031b161c191690558c808061088b565b6001859682939686015181550195019301610873565b505f546001600160a01b031633146101ec565b34610198575f366003190112610198576020600b54604051908152f35b34610198575f36600319011261019857602060405160c88152f35b346101985760203660031901126101985761092a612008565b61093e60018060a01b035f541633146122c6565b6001600160a01b03165f8181526008602052604090205460ff166109d657805f52600860205260405f20600160ff19825416179055600954600160401b8110156107e1578060016109949201600955600961213e565b81546001600160a01b0360039290921b91821b19169083901b1790557f52824c4a4d431c73d6d24a91f775d722860111c6d30da30b0b21e062fb4c73655f80a2005b60405162461bcd60e51b815260206004820152601f60248201527f4167656e7452656769737472793a20616c7265616479207265706f72746572006044820152606490fd5b34610198575f366003190112610198576020600a54604051908152f35b34610198576020366003190112610198576001600160a01b03610a59612008565b165f526004602052602060ff60405f2054166040519015158152f35b34610198576020366003190112610198576001600160a01b03610a96612008565b165f526005602052610b2b60405f2060405190610abe82610ab78184612245565b0383612093565b604051610ad981610ad28160018601612245565b0382612093565b60405191610af583610aee8160028501612245565b0384612093565b610b4760018060a01b0360038301541693610b3960ff60056004860154950154169460405198899860c08a5260c08a019061201e565b9088820360208a015261201e565b90868203604088015261201e565b9260608501526080840152151560a08301520390f35b3461019857606036600319011261019857610b76612008565b604435801515810361019857610bf891335f52600860205260ff60405f2054168015610bfa575b610ba690612524565b6001600160a01b03165f81815260046020526040902054610bc99060ff1661242f565b5f9081526006602052604090206024356004820155600501805491151560ff1660ff1992909216919091179055565b005b505f546001600160a01b03163314610b9d565b346101985760203660031901126101985760043560c88111610f66575b600354808211610f5e575b610c3e826124c7565b90610c4c6040519283612093565b828252610c58836124c7565b602083019390601f1901368537610c6e816124c7565b610c7b6040519182612093565b818152601f19610c8a836124c7565b015f5b818110610f4d575050610c9f826124de565b610ca8836124de565b92610cb2816124de565b94610cbc816124c7565b610cc96040519182612093565b818152601f19610cd8836124c7565b013660208301375f5b838110610dc0575b505050506040519460a086019060a087525180915260c0860196905f5b818110610da1575050508486036020860152815180875260208701906020808260051b8a01019401915f905b828210610d75578880610d718a610d638b610d558c8c87820360408901526121da565b9085820360608701526121da565b9083820360808501526121da565b0390f35b90919294602080610d936001938d601f19908203018652895161201e565b970192019201909291610d32565b82516001600160a01b0316895260209889019890920191600101610d06565b5f908180805b868110610e9157505015610e8b57610deb826001610de5819587612510565b52612126565b838060a01b0391549060031b1c1680610e04838d612510565b52805f526005602052610ad2610e2360405f2060405192838092612245565b610e2d838a612510565b52610e388289612510565b50805f526006602052600360405f200154610e538389612510565b52805f5260066020528260405f200154610e6d838b612510565b525f52600660205260405f2054610e84828b612510565b5201610ce1565b50610ce9565b610e9b8187612510565b511580610f1d575b80610eec575b610eb6575b600101610dc6565b9350505081610ec481612126565b9054600391821b1c6001600160a01b03165f9081526006602052604090200154600191610eae565b50610ef681612126565b9054600391821b1c6001600160a01b03165f90815260066020526040902001548210610ea9565b50610f2781612126565b60018060a01b0391549060031b1c165f52600560205260ff600560405f20015416610ea3565b806060602080938601015201610c8d565b905080610c35565b5060c8610c2a565b34610198576020366003190112610198576001600160a01b03610f8f612008565b16805f526004602052610fa860ff60405f20541661242f565b805f52600560205260018060a01b03600360405f200154163314801561100f575b610fd29061247b565b805f526005602052600560405f200160ff1981541690557fa58c733780f5c1527d6106ff1e731cbf2e9ffc0eb11ad399ca33ea55f057ddf45f80a2005b505f546001600160a01b03163314610fc9565b34610198575f366003190112610198576020600d54604051908152f35b346101985760203660031901126101985760043561106760018060a01b035f541633146122c6565b600354811061107557600255005b60405162461bcd60e51b815260206004820152602260248201527f4167656e7452656769737472793a2062656c6f772063757272656e7420636f756044820152611b9d60f21b6064820152608490fd5b34610198576020366003190112610198576004356110ed60018060a01b035f541633146122c6565b61271081116110fb57600155005b60405162461bcd60e51b815260206004820152601b60248201527f4167656e7452656769737472793a2062707320746f6f206869676800000000006044820152606490fd5b34610198575f366003190112610198576080600a54600b54600c54600d5491604051938452602084015260408301526060820152f35b346101985761118436612153565b9394909560018060a01b031694855f5260046020526111a960ff60405f20541661242f565b855f52600560205260018060a01b03600360405f20015416331480156114ab575b6111d39061247b565b806113dc575b50508061130a575b505080611233575b50805f5260056020527fb915c10d80f3a5a64f9cf6b674511d7c794c3419680d92ddf18339ae793ffb5761122e60405f20604051918291602083526020830190612245565b0390a2005b815f526005602052600260405f2001906001600160401b0381116107e1576112658161125f845461220d565b846123b1565b5f601f82116001146112a85781906112939394955f9261129d5750508160011b915f199060031b1c19161790565b90555b80826111e9565b013590508580610542565b601f19821694835f5260205f20915f5b8781106112f25750836001959697106112d9575b505050811b019055611296565b01355f19600384901b60f8161c191690558480806112cc565b909260206001819286860135815501940191016112b8565b835f526005602052600160405f2001916001600160401b0382116107e1576113368261057d855461220d565b5f90601f83116001146113785761136392915f918361136d5750508160011b915f199060031b1c19161790565b90555b83806111e1565b013590508780610542565b601f19831691845f5260205f20925f5b8181106113c457509084600195949392106113ab575b505050811b019055611366565b01355f19600384901b60f8161c1916905586808061139e565b91936020600181928787013581550195019201611388565b855f52600560205260405f20916001600160401b0382116107e1576114058261057d855461220d565b5f90601f83116001146114475761143292915f918361143c5750508160011b915f199060031b1c19161790565b90555b85806111d9565b013590508980610542565b601f19831691845f5260205f20925f5b818110611493575090846001959493921061147a575b505050811b019055611435565b01355f19600384901b60f8161c1916905588808061146d565b91936020600181928787013581550195019201611457565b505f546001600160a01b031633146111ca565b34610198575f366003190112610198576020600354604051908152f35b34610198576020366003190112610198576001600160a01b036114fc612008565b165f52600660205260e060405f2080549060018101549060028101546003820154600483015491600660ff600586015416940154946040519687526020870152604086015260608501526080840152151560a083015260c0820152f35b3461019857602036600319011261019857611572612008565b61158660018060a01b035f541633146122c6565b5f80546001600160a01b0319166001600160a01b0392909216919091179055005b34610198576115b536612153565b91929060018060a0989796981b03861695865f52600460205260ff60405f205416611a3a5787156119f55761165492611616611645926115fa60035460025411612312565b895f52600460205260405f20600160ff1982541617905561235e565b611621600a546123a3565b600a556040519561163187612042565b61163c368b8a6120b4565b875236916120b4565b926020850193845236916120b4565b6040830190815260608301338152608084019142835260a085019360018552875f52600560205260405f2095518051906001600160401b0382116107e1576116a6826116a08a5461220d565b8a6123b1565b602090601f8311600114611992576116d492915f91836119245750508160011b915f199060031b1c19161790565b86555b51805160018701916001600160401b0382116107e1576116fb8261057d855461220d565b602090601f831160011461192f5761172992915f91836119245750508160011b915f199060031b1c19161790565b90555b51805160028601916001600160401b0382116107e1576117508261057d855461220d565b602090601f831160011461189257936005936117ae847f6cf3badcf1a10c54709f13ad2475d8b3a44ebcb1b93b38e7257f9850532350409b99956117f2999561188d9c995f9261074d5750508160011b915f199060031b1c19161790565b90555b516003850180546001600160a01b039092166001600160a01b0319909216919091179055516004840155519101805460ff191691151560ff16919091179055565b6040516117fe8161205d565b5f81526006602082015f8152611873604084015f8152606085015f815260808601905f825260a08701926001845260c08801954287528c5f528760205260405f2098518955516001890155516002880155516003870155516004860155511515600585019060ff801983541691151516179055565b51910155604051918291602083523396602084019161240f565b0390a3005b90601f19831691845f52815f20925f5b81811061190c5750846117f2989461188d9b9894600598947f6cf3badcf1a10c54709f13ad2475d8b3a44ebcb1b93b38e7257f9850532350409e9c98600195106118f4575b505050811b0190556117b1565b01515f1960f88460031b161c191690558e80806118e7565b929360206001819287860151815501950193016118a2565b015190508c80610542565b90601f19831691845f52815f20925f5b81811061197a5750908460019594939210611962575b505050811b01905561172c565b01515f1960f88460031b161c191690558b8080611955565b9293602060018192878601518155019501930161193f565b90601f19831691895f52815f20925f5b8181106119dd57509084600195949392106119c5575b505050811b0186556116d7565b01515f1960f88460031b161c191690558b80806119b8565b929360206001819287860151815501950193016119a2565b60405162461bcd60e51b815260206004820152601c60248201527f4167656e7452656769737472793a206e616d65207265717569726564000000006044820152606490fd5b60405162461bcd60e51b815260206004820152602160248201527f4167656e7452656769737472793a20616c7265616479207265676973746572656044820152601960fa1b6064820152608490fd5b34610198575f366003190112610198576020600154604051908152f35b34610198575f366003190112610198576020600c54604051908152f35b346101985760203660031901126101985760043560095481101561019857600954811015611b275760095f527f6e1540171b6c0c960b71a7020d9f60077f6af931a8bbf590da0223dacf75c7af01546040516001600160a01b039091168152602090f35b634e487b7160e01b5f52603260045260245ffd5b3461019857602036600319011261019857611b54612008565b611b6860018060a01b035f541633146122c6565b6001600160a01b03165f818152600860205260408120805460ff191690557ff125aa5e6cb22c17ea0de4e1f86d2ff289ddd6a37e791b9ad29d0091cba06ac89080a2005b346101985760203660031901126101985760043560035481101561019857611bd5602091612126565b905460405160039290921b1c6001600160a01b03168152f35b34610198576020366003190112610198576001600160a01b03611c0f612008565b165f526008602052602060ff60405f2054166040519015158152f35b3461019857604036600319011261019857611c44612008565b602435906001600160401b038211610198576020611c6860609336906004016120f9565b925f60408051611c7781612078565b8281528286820152015260018060a01b03165f526007825260405f20836040519485938437820190815203019020604051611cb181612078565b815491828252604060026001830154926020850193845201549201918252604051928352516020830152516040820152f35b34610198576020366003190112610198576020611bd5600435612126565b3461019857604036600319011261019857611d1a612008565b602435906001600160401b03821161019857366023830112156101985760208091611d5160609436906024816004013591016120b4565b9060018060a01b03165f526007825260405f20604051938285935191829101845e820190815203019020805490600260018201549101549060405192835260208301526040820152f35b3461019857602036600319011261019857611db4612008565b604051611dc081612042565b6060815260208101606090526040810160609052606081015f9052608081015f905260a0015f9052604051611df48161205d565b5f8152602081015f9052604081015f9052606081015f9052608081015f905260a081015f905260c0015f9052600160a01b6001900316805f52600560205260405f20905f52600660205260405f209060405190611e5082612042565b60405180611e5e8184612245565b03611e699082612093565b82526040519283611e7d8160018501612245565b03611e889085612093565b602083019384526040519081611ea18160028601612245565b03611eac9083612093565b60408401918252600160a01b600190036003840154169260608501938452600481015490608086019182526005015460ff1660a086019015158152604051611ef38161205d565b83548152600184015460208201908152600285015491604081019283526003860154936060820194855260048701549560808301968752600588015460ff169760a084019815158952600601549860c08401998a526040519c8d9c6101008e52518d610100810160c090526101c001611f6b9161201e565b90518d820360ff19016101208f0152611f84919061201e565b90518c820360ff19016101408e0152611f9d919061201e565b99516001600160a01b03166101608c0152516101808b01525115156101a08a01525160208901525160408801525160608701525160808601525160a085015251151560c08401525160e08301520390f35b34610198575f366003190112610198576020906002548152f35b600435906001600160a01b038216820361019857565b805180835260209291819084018484015e5f828201840152601f01601f1916010190565b60c081019081106001600160401b038211176107e157604052565b60e081019081106001600160401b038211176107e157604052565b606081019081106001600160401b038211176107e157604052565b90601f801991011681019081106001600160401b038211176107e157604052565b9291926001600160401b0382116107e157604051916120dd601f8201601f191660200184612093565b829481845281830111610198578281602093845f960137010152565b9181601f84011215610198578235916001600160401b038311610198576020838186019501011161019857565b600354811015611b275760035f5260205f2001905f90565b8054821015611b27575f5260205f2001905f90565b906080600319830112610198576004356001600160a01b038116810361019857916024356001600160401b0381116101985781612192916004016120f9565b929092916044356001600160401b03811161019857816121b4916004016120f9565b92909291606435906001600160401b038211610198576121d6916004016120f9565b9091565b90602080835192838152019201905f5b8181106121f75750505090565b82518452602093840193909201916001016121ea565b90600182811c9216801561223b575b602083101461222757565b634e487b7160e01b5f52602260045260245ffd5b91607f169161221c565b5f92918154916122548361220d565b80835292600181169081156122a9575060011461227057505050565b5f9081526020812093945091925b83831061228f575060209250010190565b60018160209294939454838587010152019101919061227e565b915050602093945060ff929192191683830152151560051b010190565b156122cd57565b60405162461bcd60e51b815260206004820152601860248201527f4167656e7452656769737472793a206e6f742061646d696e00000000000000006044820152606490fd5b1561231957565b60405162461bcd60e51b815260206004820152601f60248201527f4167656e7452656769737472793a2063617061636974792072656163686564006044820152606490fd5b600354600160401b8110156107e15780600161237f9201600355600361213e565b81546001600160a01b0393841660039290921b91821b9390911b1916919091179055565b5f19811461040f5760010190565b919091601f83116123c2575b505050565b8183116123ce57505050565b5f5260205f206020601f830160051c9210612407575b81601f9101920160051c03905f5b828110156123bd575f828201556001016123f2565b5f91506123e4565b908060209392818452848401375f828201840152601f01601f1916010190565b1561243657565b60405162461bcd60e51b815260206004820152601d60248201527f4167656e7452656769737472793a206e6f7420726567697374657265640000006044820152606490fd5b1561248257565b60405162461bcd60e51b815260206004820152601860248201527f4167656e7452656769737472793a206e6f74206f776e657200000000000000006044820152606490fd5b6001600160401b0381116107e15760051b60200190565b906124e8826124c7565b6124f56040519182612093565b8281528092612506601f19916124c7565b0190602036910137565b8051821015611b275760209160051b010190565b1561252b57565b60405162461bcd60e51b815260206004820152601b60248201527f4167656e7452656769737472793a206e6f74207265706f7274657200000000006044820152606490fd5b9190820180921161040f5756fea26469706673582212206309581ef0bc2a67de1a0e6d798729f5976db6882debc45e032455138c64882d64736f6c63430008210033","linkReferences":{}},"methodIdentifiers":{"MAX_LEADERBOARD_COUNT()":"e031ed2b","addReporter(address)":"dd8755f2","admin()":"f851a440","agents(uint256)":"513856c8","authorizedReporters(address)":"3a41429a","deactivateAgent(address)":"b0a0a927","getAgent(uint256)":"2de5aaf7","getAgentCount()":"91cab63e","getAgentInfo(address)":"152052b0","getAgentProtocolStats(address,string)":"388ae356","getDashboardStats()":"a2f6805c","getTopAgents(uint256)":"b1e29ea4","isRegistered(address)":"c3c5a547","maxAgents()":"0a34d637","profiles(address)":"bbe15627","protocolStats(address,string)":"2bfa4e08","recordActivity(address,string,uint256,uint256)":"e2f11e61","recordPnL(address,uint256,bool)":"b896f222","registerAgent(address,string,string,string)":"69f1324d","removeReporter(address)":"5de5c212","reporters(uint256)":"5e02cb7d","setAdmin(address)":"704b6c02","setMaxAgents(uint256)":"ae14e627","setUBIBPS(uint256)":"a4efe69e","stats(address)":"8bcdcbf3","totalAgents()":"c5053712","totalTrades()":"e275c997","totalUBIGenerated()":"af537a2f","totalVolume()":"5f81a57c","ubiBPS()":"66521893","updateProfile(address,string,string,string)":"9d5a3941"},"id":17}