{"abi":[{"type":"constructor","inputs":[],"stateMutability":"nonpayable"},{"type":"function","name":"addReporter","inputs":[{"name":"reporter","type":"address","internalType":"address"}],"outputs":[],"stateMutability":"nonpayable"},{"type":"function","name":"admin","inputs":[],"outputs":[{"name":"","type":"address","internalType":"address"}],"stateMutability":"view"},{"type":"function","name":"agents","inputs":[{"name":"","type":"uint256","internalType":"uint256"}],"outputs":[{"name":"","type":"address","internalType":"address"}],"stateMutability":"view"},{"type":"function","name":"authorizedReporters","inputs":[{"name":"","type":"address","internalType":"address"}],"outputs":[{"name":"","type":"bool","internalType":"bool"}],"stateMutability":"view"},{"type":"function","name":"deactivateAgent","inputs":[{"name":"agent","type":"address","internalType":"address"}],"outputs":[],"stateMutability":"nonpayable"},{"type":"function","name":"getAgent","inputs":[{"name":"index","type":"uint256","internalType":"uint256"}],"outputs":[{"name":"","type":"address","internalType":"address"}],"stateMutability":"view"},{"type":"function","name":"getAgentCount","inputs":[],"outputs":[{"name":"","type":"uint256","internalType":"uint256"}],"stateMutability":"view"},{"type":"function","name":"getAgentInfo","inputs":[{"name":"agent","type":"address","internalType":"address"}],"outputs":[{"name":"profile","type":"tuple","internalType":"struct AgentRegistry.AgentProfile","components":[{"name":"name","type":"string","internalType":"string"},{"name":"avatarURI","type":"string","internalType":"string"},{"name":"strategy","type":"string","internalType":"string"},{"name":"owner","type":"address","internalType":"address"},{"name":"registeredAt","type":"uint256","internalType":"uint256"},{"name":"active","type":"bool","internalType":"bool"}]},{"name":"agentStats","type":"tuple","internalType":"struct AgentRegistry.AgentStats","components":[{"name":"totalTrades","type":"uint256","internalType":"uint256"},{"name":"totalVolume","type":"uint256","internalType":"uint256"},{"name":"totalFeesGenerated","type":"uint256","internalType":"uint256"},{"name":"ubiContribution","type":"uint256","internalType":"uint256"},{"name":"totalPnL","type":"uint256","internalType":"uint256"},{"name":"pnlPositive","type":"bool","internalType":"bool"},{"name":"lastActiveAt","type":"uint256","internalType":"uint256"}]}],"stateMutability":"view"},{"type":"function","name":"getAgentProtocolStats","inputs":[{"name":"agent","type":"address","internalType":"address"},{"name":"protocol","type":"string","internalType":"string"}],"outputs":[{"name":"","type":"tuple","internalType":"struct AgentRegistry.ProtocolActivity","components":[{"name":"trades","type":"uint256","internalType":"uint256"},{"name":"volume","type":"uint256","internalType":"uint256"},{"name":"fees","type":"uint256","internalType":"uint256"}]}],"stateMutability":"view"},{"type":"function","name":"getDashboardStats","inputs":[],"outputs":[{"name":"_totalAgents","type":"uint256","internalType":"uint256"},{"name":"_totalTrades","type":"uint256","internalType":"uint256"},{"name":"_totalVolume","type":"uint256","internalType":"uint256"},{"name":"_totalUBI","type":"uint256","internalType":"uint256"}],"stateMutability":"view"},{"type":"function","name":"getTopAgents","inputs":[{"name":"count","type":"uint256","internalType":"uint256"}],"outputs":[{"name":"topAddrs","type":"address[]","internalType":"address[]"},{"name":"topNames","type":"string[]","internalType":"string[]"},{"name":"topUBI","type":"uint256[]","internalType":"uint256[]"},{"name":"topVolume","type":"uint256[]","internalType":"uint256[]"},{"name":"topTrades","type":"uint256[]","internalType":"uint256[]"}],"stateMutability":"view"},{"type":"function","name":"isRegistered","inputs":[{"name":"","type":"address","internalType":"address"}],"outputs":[{"name":"","type":"bool","internalType":"bool"}],"stateMutability":"view"},{"type":"function","name":"profiles","inputs":[{"name":"","type":"address","internalType":"address"}],"outputs":[{"name":"name","type":"string","internalType":"string"},{"name":"avatarURI","type":"string","internalType":"string"},{"name":"strategy","type":"string","internalType":"string"},{"name":"owner","type":"address","internalType":"address"},{"name":"registeredAt","type":"uint256","internalType":"uint256"},{"name":"active","type":"bool","internalType":"bool"}],"stateMutability":"view"},{"type":"function","name":"protocolStats","inputs":[{"name":"","type":"address","internalType":"address"},{"name":"","type":"string","internalType":"string"}],"outputs":[{"name":"trades","type":"uint256","internalType":"uint256"},{"name":"volume","type":"uint256","internalType":"uint256"},{"name":"fees","type":"uint256","internalType":"uint256"}],"stateMutability":"view"},{"type":"function","name":"recordActivity","inputs":[{"name":"agent","type":"address","internalType":"address"},{"name":"protocol","type":"string","internalType":"string"},{"name":"volume","type":"uint256","internalType":"uint256"},{"name":"fees","type":"uint256","internalType":"uint256"}],"outputs":[],"stateMutability":"nonpayable"},{"type":"function","name":"recordPnL","inputs":[{"name":"agent","type":"address","internalType":"address"},{"name":"amount","type":"uint256","internalType":"uint256"},{"name":"positive","type":"bool","internalType":"bool"}],"outputs":[],"stateMutability":"nonpayable"},{"type":"function","name":"registerAgent","inputs":[{"name":"agent","type":"address","internalType":"address"},{"name":"name","type":"string","internalType":"string"},{"name":"avatarURI","type":"string","internalType":"string"},{"name":"strategy","type":"string","internalType":"string"}],"outputs":[],"stateMutability":"nonpayable"},{"type":"function","name":"removeReporter","inputs":[{"name":"reporter","type":"address","internalType":"address"}],"outputs":[],"stateMutability":"nonpayable"},{"type":"function","name":"reporters","inputs":[{"name":"","type":"uint256","internalType":"uint256"}],"outputs":[{"name":"","type":"address","internalType":"address"}],"stateMutability":"view"},{"type":"function","name":"setAdmin","inputs":[{"name":"newAdmin","type":"address","internalType":"address"}],"outputs":[],"stateMutability":"nonpayable"},{"type":"function","name":"setUBIBPS","inputs":[{"name":"_bps","type":"uint256","internalType":"uint256"}],"outputs":[],"stateMutability":"nonpayable"},{"type":"function","name":"stats","inputs":[{"name":"","type":"address","internalType":"address"}],"outputs":[{"name":"totalTrades","type":"uint256","internalType":"uint256"},{"name":"totalVolume","type":"uint256","internalType":"uint256"},{"name":"totalFeesGenerated","type":"uint256","internalType":"uint256"},{"name":"ubiContribution","type":"uint256","internalType":"uint256"},{"name":"totalPnL","type":"uint256","internalType":"uint256"},{"name":"pnlPositive","type":"bool","internalType":"bool"},{"name":"lastActiveAt","type":"uint256","internalType":"uint256"}],"stateMutability":"view"},{"type":"function","name":"totalAgents","inputs":[],"outputs":[{"name":"","type":"uint256","internalType":"uint256"}],"stateMutability":"view"},{"type":"function","name":"totalTrades","inputs":[],"outputs":[{"name":"","type":"uint256","internalType":"uint256"}],"stateMutability":"view"},{"type":"function","name":"totalUBIGenerated","inputs":[],"outputs":[{"name":"","type":"uint256","internalType":"uint256"}],"stateMutability":"view"},{"type":"function","name":"totalVolume","inputs":[],"outputs":[{"name":"","type":"uint256","internalType":"uint256"}],"stateMutability":"view"},{"type":"function","name":"ubiBPS","inputs":[],"outputs":[{"name":"","type":"uint256","internalType":"uint256"}],"stateMutability":"view"},{"type":"function","name":"updateProfile","inputs":[{"name":"agent","type":"address","internalType":"address"},{"name":"name","type":"string","internalType":"string"},{"name":"avatarURI","type":"string","internalType":"string"},{"name":"strategy","type":"string","internalType":"string"}],"outputs":[],"stateMutability":"nonpayable"},{"type":"event","name":"ActivityRecorded","inputs":[{"name":"agent","type":"address","indexed":true,"internalType":"address"},{"name":"protocol","type":"string","indexed":false,"internalType":"string"},{"name":"volume","type":"uint256","indexed":false,"internalType":"uint256"},{"name":"fees","type":"uint256","indexed":false,"internalType":"uint256"},{"name":"ubiShare","type":"uint256","indexed":false,"internalType":"uint256"}],"anonymous":false},{"type":"event","name":"AgentDeactivated","inputs":[{"name":"agent","type":"address","indexed":true,"internalType":"address"}],"anonymous":false},{"type":"event","name":"AgentRegistered","inputs":[{"name":"agent","type":"address","indexed":true,"internalType":"address"},{"name":"name","type":"string","indexed":false,"internalType":"string"},{"name":"owner","type":"address","indexed":true,"internalType":"address"}],"anonymous":false},{"type":"event","name":"AgentUpdated","inputs":[{"name":"agent","type":"address","indexed":true,"internalType":"address"},{"name":"name","type":"string","indexed":false,"internalType":"string"}],"anonymous":false},{"type":"event","name":"ReporterAdded","inputs":[{"name":"reporter","type":"address","indexed":true,"internalType":"address"}],"anonymous":false},{"type":"event","name":"ReporterRemoved","inputs":[{"name":"reporter","type":"address","indexed":true,"internalType":"address"}],"anonymous":false}],"bytecode":{"object":"0x60808060405234602c57610d056001555f80546001600160a01b0319163317905561245c90816100318239f35b5f80fdfe6080806040526004361015610012575f80fd5b5f3560e01c908163152052b014611cac575080632bfa4e0814611c125780632de5aaf714611bf4578063388ae35614611b3c5780633a41429a14611aff578063513856c814611abd5780635de5c21214611a4c5780635e02cb7d146119d45780635f81a57c146119b7578063665218931461199a57806369f1324d146114c6578063704b6c02146114785780638bcdcbf3146113fa57806391cab63e146113dd5780639d5a394114611095578063a2f6805c1461105f578063a4efe69e14610fe4578063af537a2f14610fc7578063b0a0a92714610f13578063b1e29ea414610bc3578063b896f22214610b10578063bbe1562714610a28578063c3c5a547146109eb578063c5053712146109ce578063dd8755f2146108c4578063e275c997146108a7578063e2f11e611461017b5763f851a44014610150575f80fd5b34610177575f366003190112610177575f546040516001600160a01b039091168152602090f35b5f80fd5b3461017757608036600319011261017757610194611efd565b6024356001600160401b038111610177576101b3903690600401611fee565b90335f52600760205260ff60405f2054168015610894575b6101d4906123cd565b6001600160a01b0383165f9081526003602052604090205460ff16156103ff575b600154606435808202939181159185041417156103eb576127107fe569346dc44a549a2dba8bdb890e3ad5f8b19481c95faf552e6c4684f90f369c93049360018060a01b0381165f52600560205260405f20610251815461224c565b905560018060a01b0381165f526005602052600160405f20016102776044358254612419565b905560018060a01b0381165f526005602052600260405f200161029d6064358254612419565b905560018060a01b0381165f526005602052600360405f20016102c1868254612419565b90556001600160a01b0381165f9081526005602090815260408083204260069182015582529182902091519182908587833785820190815203019020610307815461224c565b905560018060a01b0381165f526006602052600160405f20602060405180928688833786820190815203019020016103426044358254612419565b905560018060a01b0381165f526006602052600260405f206020604051809286888337868201908152030190200161037d6064358254612419565b905561038a600a5461224c565b600a5561039b604435600b54612419565b600b556103aa85600c54612419565b600c556103c46040519384936080855260808501916122b8565b6044356020840152606435604084015260608301959095526001600160a01b0316930390a2005b634e487b7160e01b5f52601160045260245ffd5b6001600160a01b0383165f908152600360205260409020805460ff1916600117905561042a83612207565b61043560095461224c565b60095560405161044481611f37565b604080516104528282611f88565b600f81526e105b9bdb9e5b5bdd5cc81059d95b9d608a1b602082015282526020918151906104808483611f88565b5f825283810191825282516104958582611f88565b5f8082528285019182526001600160a01b03891660608401818152426080860152600160a0860152908252600487529085902083518051919592939291906001600160401b0382116107af576104f5826104ef8954612102565b8961225a565b8890601f83116001146108315761052392915f91836107c3575b50508160011b915f199060031b1c19161790565b85555b51805160018601916001600160401b0382116107af576105508261054a8554612102565b8561225a565b8890601f83116001146107ce5761057d92915f91836107c35750508160011b915f199060031b1c19161790565b90555b518051906001600160401b0382116107af576105ac826105a36002880154612102565b6002880161225a565b8690601f831160011461072657936e105b9bdb9e5b5bdd5cc81059d95b9d608a1b9695936105f88460059560a095610649995f9261071b5750508160011b915f199060031b1c19161790565b60028601555b600180841b039051166003850190600180851b03166bffffffffffffffffffffffff841b825416179055608081015160048501550151151591019060ff801983541691151516179055565b805161065481611f52565b5f81526006876106ce8684015f81528585015f8152606086015f815260808701915f835260a08801936001855260c089019642885260018060a01b03165f5260058c52895f2098518955516001890155516002880155516003870155516004860155511515600585019060ff801983541691151516179055565b519101558051838152600f938101939093528201526001600160a01b0384169081907f6cf3badcf1a10c54709f13ad2475d8b3a44ebcb1b93b38e7257f98505323504090606090a36101f5565b015190508f8061050f565b90600286015f52875f20915f5b89601f19861682106107995750509360018460a09461064998946e105b9bdb9e5b5bdd5cc81059d95b9d608a1b9b9a98600598601f19811610610781575b505050811b0160028601556105fe565b01515f1960f88460031b161c191690558e8080610771565b6001849582939585015181550194019201610733565b634e487b7160e01b5f52604160045260245ffd5b015190508d8061050f565b90601f19831691845f528a5f20925f5b8c82821061081b575050908460019594939210610803575b505050811b019055610580565b01515f1960f88460031b161c191690558c80806107f6565b60018596829396860151815501950193016107de565b90601f19831691885f528a5f20925f5b8c82821061087e575050908460019594939210610866575b505050811b018555610526565b01515f1960f88460031b161c191690558c8080610859565b6001859682939686015181550195019301610841565b505f546001600160a01b031633146101cb565b34610177575f366003190112610177576020600a54604051908152f35b34610177576020366003190112610177576108dd611efd565b6108f160018060a01b035f541633146121bb565b6001600160a01b03165f8181526007602052604090205460ff1661098957805f52600760205260405f20600160ff19825416179055600854600160401b8110156107af5780600161094792016008556008612033565b81546001600160a01b0360039290921b91821b19169083901b1790557f52824c4a4d431c73d6d24a91f775d722860111c6d30da30b0b21e062fb4c73655f80a2005b60405162461bcd60e51b815260206004820152601f60248201527f4167656e7452656769737472793a20616c7265616479207265706f72746572006044820152606490fd5b34610177575f366003190112610177576020600954604051908152f35b34610177576020366003190112610177576001600160a01b03610a0c611efd565b165f526003602052602060ff60405f2054166040519015158152f35b34610177576020366003190112610177576001600160a01b03610a49611efd565b165f526004602052610ade60405f2060405190610a7182610a6a818461213a565b0383611f88565b604051610a8c81610a85816001860161213a565b0382611f88565b60405191610aa883610aa1816002850161213a565b0384611f88565b610afa60018060a01b0360038301541693610aec60ff60056004860154950154169460405198899860c08a5260c08a0190611f13565b9088820360208a0152611f13565b908682036040880152611f13565b9260608501526080840152151560a08301520390f35b3461017757606036600319011261017757610b29611efd565b604435801515810361017757610bae91335f52600760205260ff60405f2054168015610bb0575b610b59906123cd565b6001600160a01b03165f81815260036020526040902054610b7c9060ff166122d8565b805f526005602052602435600460405f2001555f526005602052600560405f20019060ff801983541691151516179055565b005b505f546001600160a01b03163314610b50565b3461017757602036600319011261017757600435600254808211610f0b575b610beb82612370565b90610bf96040519283611f88565b828252610c0583612370565b602083019390601f1901368537610c1b81612370565b610c286040519182611f88565b818152601f19610c3783612370565b015f5b818110610efa575050610c4c82612387565b610c5583612387565b92610c5f81612387565b94610c6981612370565b610c766040519182611f88565b818152601f19610c8583612370565b013660208301375f5b838110610d6d575b505050506040519460a086019060a087525180915260c0860196905f5b818110610d4e575050508486036020860152815180875260208701906020808260051b8a01019401915f905b828210610d22578880610d1e8a610d108b610d028c8c87820360408901526120cf565b9085820360608701526120cf565b9083820360808501526120cf565b0390f35b90919294602080610d406001938d601f199082030186528951611f13565b970192019201909291610cdf565b82516001600160a01b0316895260209889019890920191600101610cb3565b5f908180805b868110610e3e57505015610e3857610d98826001610d928195876123b9565b5261201b565b838060a01b0391549060031b1c1680610db1838d6123b9565b52805f526004602052610a85610dd060405f206040519283809261213a565b610dda838a6123b9565b52610de582896123b9565b50805f526005602052600360405f200154610e0083896123b9565b52805f5260056020528260405f200154610e1a838b6123b9565b525f52600560205260405f2054610e31828b6123b9565b5201610c8e565b50610c96565b610e4881876123b9565b511580610eca575b80610e99575b610e63575b600101610d73565b9350505081610e718161201b565b9054600391821b1c6001600160a01b03165f9081526005602052604090200154600191610e5b565b50610ea38161201b565b9054600391821b1c6001600160a01b03165f90815260056020526040902001548210610e56565b50610ed48161201b565b60018060a01b0391549060031b1c165f52600460205260ff600560405f20015416610e50565b806060602080938601015201610c3a565b905080610be2565b34610177576020366003190112610177576001600160a01b03610f34611efd565b16805f526003602052610f4d60ff60405f2054166122d8565b805f52600460205260018060a01b03600360405f2001541633148015610fb4575b610f7790612324565b805f526004602052600560405f200160ff1981541690557fa58c733780f5c1527d6106ff1e731cbf2e9ffc0eb11ad399ca33ea55f057ddf45f80a2005b505f546001600160a01b03163314610f6e565b34610177575f366003190112610177576020600c54604051908152f35b346101775760203660031901126101775760043561100c60018060a01b035f541633146121bb565b612710811161101a57600155005b60405162461bcd60e51b815260206004820152601b60248201527f4167656e7452656769737472793a2062707320746f6f206869676800000000006044820152606490fd5b34610177575f366003190112610177576080600954600a54600b54600c5491604051938452602084015260408301526060820152f35b34610177576110a336612048565b9394909560018060a01b031694855f5260036020526110c860ff60405f2054166122d8565b855f52600460205260018060a01b03600360405f20015416331480156113ca575b6110f290612324565b806112fb575b505080611229575b505080611152575b50805f5260046020527fb915c10d80f3a5a64f9cf6b674511d7c794c3419680d92ddf18339ae793ffb5761114d60405f2060405191829160208352602083019061213a565b0390a2005b815f526004602052600260405f2001906001600160401b0381116107af576111848161117e8454612102565b8461225a565b5f601f82116001146111c75781906111b29394955f926111bc5750508160011b915f199060031b1c19161790565b90555b8082611108565b01359050858061050f565b601f19821694835f5260205f20915f5b8781106112115750836001959697106111f8575b505050811b0190556111b5565b01355f19600384901b60f8161c191690558480806111eb565b909260206001819286860135815501940191016111d7565b835f526004602052600160405f2001916001600160401b0382116107af576112558261054a8554612102565b5f90601f83116001146112975761128292915f918361128c5750508160011b915f199060031b1c19161790565b90555b8380611100565b01359050878061050f565b601f19831691845f5260205f20925f5b8181106112e357509084600195949392106112ca575b505050811b019055611285565b01355f19600384901b60f8161c191690558680806112bd565b919360206001819287870135815501950192016112a7565b855f52600460205260405f20916001600160401b0382116107af576113248261054a8554612102565b5f90601f83116001146113665761135192915f918361135b5750508160011b915f199060031b1c19161790565b90555b85806110f8565b01359050898061050f565b601f19831691845f5260205f20925f5b8181106113b25750908460019594939210611399575b505050811b019055611354565b01355f19600384901b60f8161c1916905588808061138c565b91936020600181928787013581550195019201611376565b505f546001600160a01b031633146110e9565b34610177575f366003190112610177576020600254604051908152f35b34610177576020366003190112610177576001600160a01b0361141b611efd565b165f52600560205260e060405f2080549060018101549060028101546003820154600483015491600660ff600586015416940154946040519687526020870152604086015260608501526080840152151560a083015260c0820152f35b3461017757602036600319011261017757611491611efd565b6114a560018060a01b035f541633146121bb565b5f80546001600160a01b0319166001600160a01b0392909216919091179055005b34610177576114d436612048565b91929060018060a0989796981b03861695865f52600360205260ff60405f20541661194b578715611906576115649261152661155592895f52600360205260405f20600160ff19825416179055612207565b61153160095461224c565b6009556040519561154187611f37565b61154c368b8a611fa9565b87523691611fa9565b92602085019384523691611fa9565b6040830190815260608301338152608084019142835260a085019360018552875f52600460205260405f2095518051906001600160401b0382116107af576115b6826115b08a54612102565b8a61225a565b602090601f83116001146118a3576115e492915f91836118355750508160011b915f199060031b1c19161790565b86555b51805160018701916001600160401b0382116107af5761160b8261054a8554612102565b602090601f83116001146118405761163992915f91836118355750508160011b915f199060031b1c19161790565b90555b51805160028601916001600160401b0382116107af576116608261054a8554612102565b602090601f83116001146117a357936005936116be847f6cf3badcf1a10c54709f13ad2475d8b3a44ebcb1b93b38e7257f9850532350409b9995611702999561179e9c995f9261071b5750508160011b915f199060031b1c19161790565b90555b516003850180546001600160a01b039092166001600160a01b0319909216919091179055516004840155519101805460ff191691151560ff16919091179055565b60405161170e81611f52565b5f81526006602082015f8152611784604084015f8152606085015f815260808601905f825260a08701926001845260c08801954287528c5f52600560205260405f2098518955516001890155516002880155516003870155516004860155511515600585019060ff801983541691151516179055565b5191015560405191829160208352339660208401916122b8565b0390a3005b90601f19831691845f52815f20925f5b81811061181d575084611702989461179e9b9894600598947f6cf3badcf1a10c54709f13ad2475d8b3a44ebcb1b93b38e7257f9850532350409e9c9860019510611805575b505050811b0190556116c1565b01515f1960f88460031b161c191690558e80806117f8565b929360206001819287860151815501950193016117b3565b015190508c8061050f565b90601f19831691845f52815f20925f5b81811061188b5750908460019594939210611873575b505050811b01905561163c565b01515f1960f88460031b161c191690558b8080611866565b92936020600181928786015181550195019301611850565b90601f19831691895f52815f20925f5b8181106118ee57509084600195949392106118d6575b505050811b0186556115e7565b01515f1960f88460031b161c191690558b80806118c9565b929360206001819287860151815501950193016118b3565b60405162461bcd60e51b815260206004820152601c60248201527f4167656e7452656769737472793a206e616d65207265717569726564000000006044820152606490fd5b60405162461bcd60e51b815260206004820152602160248201527f4167656e7452656769737472793a20616c7265616479207265676973746572656044820152601960fa1b6064820152608490fd5b34610177575f366003190112610177576020600154604051908152f35b34610177575f366003190112610177576020600b54604051908152f35b346101775760203660031901126101775760043560085481101561017757600854811015611a385760085f527ff3f7a9fe364faab93b216da50a3214154f22a0a2b415b23a84c8169e8b636ee301546040516001600160a01b039091168152602090f35b634e487b7160e01b5f52603260045260245ffd5b3461017757602036600319011261017757611a65611efd565b611a7960018060a01b035f541633146121bb565b6001600160a01b03165f818152600760205260408120805460ff191690557ff125aa5e6cb22c17ea0de4e1f86d2ff289ddd6a37e791b9ad29d0091cba06ac89080a2005b346101775760203660031901126101775760043560025481101561017757611ae660209161201b565b905460405160039290921b1c6001600160a01b03168152f35b34610177576020366003190112610177576001600160a01b03611b20611efd565b165f526007602052602060ff60405f2054166040519015158152f35b3461017757604036600319011261017757611b55611efd565b602435906001600160401b038211610177576020611b796060933690600401611fee565b925f60408051611b8881611f6d565b8281528286820152015260018060a01b03165f526006825260405f20836040519485938437820190815203019020604051611bc281611f6d565b815491828252604060026001830154926020850193845201549201918252604051928352516020830152516040820152f35b34610177576020366003190112610177576020611ae660043561201b565b3461017757604036600319011261017757611c2b611efd565b602435906001600160401b03821161017757366023830112156101775760208091611c626060943690602481600401359101611fa9565b9060018060a01b03165f526006825260405f20604051938285935191829101845e820190815203019020805490600260018201549101549060405192835260208301526040820152f35b3461017757602036600319011261017757611cc5611efd565b90611ccf81611f37565b6060815260208101606090526040810160609052606081015f9052608081015f905260a0015f9052604051611d0381611f52565b5f8152602081015f9052604081015f9052606081015f9052608081015f905260a081015f905260c0015f9052600160a01b6001900316805f52600460205260405f20905f52600560205260405f209060405190611d5f82611f37565b60405180611d6d818461213a565b03611d789082611f88565b82526040519283611d8c816001850161213a565b03611d979085611f88565b602083019384526040519081611db0816002860161213a565b03611dbb9083611f88565b60408401918252600160a01b600190036003840154169260608501938452600481015490608086019182526005015460ff1660a086019015158152604051611e0281611f52565b83548152600184015460208201908152600285015491604081019283526003860154936060820194855260048701549560808301968752600588015460ff169760a084019815158952600601549860c08401998a526040519c8d9c6101008e52518d610100810160c090526101c001611e7a91611f13565b90518d820360ff19016101208f0152611e939190611f13565b90518c820360ff19016101408e0152611eac9190611f13565b99516001600160a01b03166101608c0152516101808b01525115156101a08a01525160208901525160408801525160608701525160808601525160a085015251151560c08401525160e08301520390f35b600435906001600160a01b038216820361017757565b805180835260209291819084018484015e5f828201840152601f01601f1916010190565b60c081019081106001600160401b038211176107af57604052565b60e081019081106001600160401b038211176107af57604052565b606081019081106001600160401b038211176107af57604052565b90601f801991011681019081106001600160401b038211176107af57604052565b9291926001600160401b0382116107af5760405191611fd2601f8201601f191660200184611f88565b829481845281830111610177578281602093845f960137010152565b9181601f84011215610177578235916001600160401b038311610177576020838186019501011161017757565b600254811015611a385760025f5260205f2001905f90565b8054821015611a38575f5260205f2001905f90565b906080600319830112610177576004356001600160a01b038116810361017757916024356001600160401b038111610177578161208791600401611fee565b929092916044356001600160401b03811161017757816120a991600401611fee565b92909291606435906001600160401b038211610177576120cb91600401611fee565b9091565b90602080835192838152019201905f5b8181106120ec5750505090565b82518452602093840193909201916001016120df565b90600182811c92168015612130575b602083101461211c57565b634e487b7160e01b5f52602260045260245ffd5b91607f1691612111565b5f929181549161214983612102565b808352926001811690811561219e575060011461216557505050565b5f9081526020812093945091925b838310612184575060209250010190565b600181602092949394548385870101520191019190612173565b915050602093945060ff929192191683830152151560051b010190565b156121c257565b60405162461bcd60e51b815260206004820152601860248201527f4167656e7452656769737472793a206e6f742061646d696e00000000000000006044820152606490fd5b600254600160401b8110156107af5780600161222892016002556002612033565b81546001600160a01b0393841660039290921b91821b9390911b1916919091179055565b5f1981146103eb5760010190565b919091601f831161226b575b505050565b81831161227757505050565b5f5260205f206020601f830160051c92106122b0575b81601f9101920160051c03905f5b82811015612266575f8282015560010161229b565b5f915061228d565b908060209392818452848401375f828201840152601f01601f1916010190565b156122df57565b60405162461bcd60e51b815260206004820152601d60248201527f4167656e7452656769737472793a206e6f7420726567697374657265640000006044820152606490fd5b1561232b57565b60405162461bcd60e51b815260206004820152601860248201527f4167656e7452656769737472793a206e6f74206f776e657200000000000000006044820152606490fd5b6001600160401b0381116107af5760051b60200190565b9061239182612370565b61239e6040519182611f88565b82815280926123af601f1991612370565b0190602036910137565b8051821015611a385760209160051b010190565b156123d457565b60405162461bcd60e51b815260206004820152601b60248201527f4167656e7452656769737472793a206e6f74207265706f7274657200000000006044820152606490fd5b919082018092116103eb5756fea26469706673582212201233aa8a7e7ba65ffad8ba3c0995ea949417a244b512c5d016d6a28d64c29a6d64736f6c63430008210033","linkReferences":{}},"methodIdentifiers":{"addReporter(address)":"dd8755f2","admin()":"f851a440","agents(uint256)":"513856c8","authorizedReporters(address)":"3a41429a","deactivateAgent(address)":"b0a0a927","getAgent(uint256)":"2de5aaf7","getAgentCount()":"91cab63e","getAgentInfo(address)":"152052b0","getAgentProtocolStats(address,string)":"388ae356","getDashboardStats()":"a2f6805c","getTopAgents(uint256)":"b1e29ea4","isRegistered(address)":"c3c5a547","profiles(address)":"bbe15627","protocolStats(address,string)":"2bfa4e08","recordActivity(address,string,uint256,uint256)":"e2f11e61","recordPnL(address,uint256,bool)":"b896f222","registerAgent(address,string,string,string)":"69f1324d","removeReporter(address)":"5de5c212","reporters(uint256)":"5e02cb7d","setAdmin(address)":"704b6c02","setUBIBPS(uint256)":"a4efe69e","stats(address)":"8bcdcbf3","totalAgents()":"c5053712","totalTrades()":"e275c997","totalUBIGenerated()":"af537a2f","totalVolume()":"5f81a57c","ubiBPS()":"66521893","updateProfile(address,string,string,string)":"9d5a3941"},"id":0}