{"abi":[{"type":"constructor","inputs":[{"name":"_goodDollar","type":"address","internalType":"address"},{"name":"_admin","type":"address","internalType":"address"}],"stateMutability":"nonpayable"},{"type":"function","name":"MIN_STAKE","inputs":[],"outputs":[{"name":"","type":"uint256","internalType":"uint256"}],"stateMutability":"view"},{"type":"function","name":"UNBONDING_PERIOD","inputs":[],"outputs":[{"name":"","type":"uint256","internalType":"uint256"}],"stateMutability":"view"},{"type":"function","name":"activeCount","inputs":[],"outputs":[{"name":"","type":"uint256","internalType":"uint256"}],"stateMutability":"view"},{"type":"function","name":"activeValidatorCount","inputs":[],"outputs":[{"name":"","type":"uint256","internalType":"uint256"}],"stateMutability":"view"},{"type":"function","name":"admin","inputs":[],"outputs":[{"name":"","type":"address","internalType":"address"}],"stateMutability":"view"},{"type":"function","name":"claimRewards","inputs":[],"outputs":[],"stateMutability":"nonpayable"},{"type":"function","name":"completeUnstake","inputs":[],"outputs":[],"stateMutability":"nonpayable"},{"type":"function","name":"getUnbondingRequest","inputs":[{"name":"validator","type":"address","internalType":"address"}],"outputs":[{"name":"amount","type":"uint256","internalType":"uint256"},{"name":"unbondAt","type":"uint256","internalType":"uint256"}],"stateMutability":"view"},{"type":"function","name":"goodDollar","inputs":[],"outputs":[{"name":"","type":"address","internalType":"contract IGoodDollarToken"}],"stateMutability":"view"},{"type":"function","name":"initiateUnstake","inputs":[{"name":"amount","type":"uint256","internalType":"uint256"}],"outputs":[],"stateMutability":"nonpayable"},{"type":"function","name":"pendingRewards","inputs":[{"name":"validator","type":"address","internalType":"address"}],"outputs":[{"name":"","type":"uint256","internalType":"uint256"}],"stateMutability":"view"},{"type":"function","name":"rewardRateBPS","inputs":[],"outputs":[{"name":"","type":"uint256","internalType":"uint256"}],"stateMutability":"view"},{"type":"function","name":"slash","inputs":[{"name":"validator","type":"address","internalType":"address"},{"name":"reason","type":"string","internalType":"string"}],"outputs":[],"stateMutability":"nonpayable"},{"type":"function","name":"slashBPS","inputs":[],"outputs":[{"name":"","type":"uint256","internalType":"uint256"}],"stateMutability":"view"},{"type":"function","name":"stake","inputs":[{"name":"amount","type":"uint256","internalType":"uint256"},{"name":"name","type":"string","internalType":"string"},{"name":"endpoint","type":"string","internalType":"string"}],"outputs":[],"stateMutability":"nonpayable"},{"type":"function","name":"totalStaked","inputs":[],"outputs":[{"name":"","type":"uint256","internalType":"uint256"}],"stateMutability":"view"},{"type":"function","name":"validatorCount","inputs":[],"outputs":[{"name":"","type":"uint256","internalType":"uint256"}],"stateMutability":"view"},{"type":"function","name":"validatorList","inputs":[{"name":"","type":"uint256","internalType":"uint256"}],"outputs":[{"name":"","type":"address","internalType":"address"}],"stateMutability":"view"},{"type":"function","name":"validators","inputs":[{"name":"","type":"address","internalType":"address"}],"outputs":[{"name":"staked","type":"uint256","internalType":"uint256"},{"name":"rewardDebt","type":"uint256","internalType":"uint256"},{"name":"lastStakeTime","type":"uint256","internalType":"uint256"},{"name":"isActive","type":"bool","internalType":"bool"},{"name":"name","type":"string","internalType":"string"},{"name":"endpoint","type":"string","internalType":"string"},{"name":"unbonding","type":"tuple","internalType":"struct ValidatorStaking.UnbondingRequest","components":[{"name":"amount","type":"uint256","internalType":"uint256"},{"name":"unbondAt","type":"uint256","internalType":"uint256"}]}],"stateMutability":"view"},{"type":"event","name":"RewardsClaimed","inputs":[{"name":"validator","type":"address","indexed":true,"internalType":"address"},{"name":"amount","type":"uint256","indexed":false,"internalType":"uint256"}],"anonymous":false},{"type":"event","name":"UnstakeCompleted","inputs":[{"name":"validator","type":"address","indexed":true,"internalType":"address"},{"name":"amount","type":"uint256","indexed":false,"internalType":"uint256"}],"anonymous":false},{"type":"event","name":"UnstakeInitiated","inputs":[{"name":"validator","type":"address","indexed":true,"internalType":"address"},{"name":"amount","type":"uint256","indexed":false,"internalType":"uint256"},{"name":"unbondAt","type":"uint256","indexed":false,"internalType":"uint256"}],"anonymous":false},{"type":"event","name":"ValidatorSlashed","inputs":[{"name":"validator","type":"address","indexed":true,"internalType":"address"},{"name":"amount","type":"uint256","indexed":false,"internalType":"uint256"},{"name":"reason","type":"string","indexed":false,"internalType":"string"}],"anonymous":false},{"type":"event","name":"ValidatorStaked","inputs":[{"name":"validator","type":"address","indexed":true,"internalType":"address"},{"name":"amount","type":"uint256","indexed":false,"internalType":"uint256"},{"name":"name","type":"string","indexed":false,"internalType":"string"}],"anonymous":false},{"type":"error","name":"BelowMinStake","inputs":[]},{"type":"error","name":"InsufficientStake","inputs":[]},{"type":"error","name":"NoUnbondingRequest","inputs":[]},{"type":"error","name":"NotAdmin","inputs":[]},{"type":"error","name":"NotValidator","inputs":[]},{"type":"error","name":"UnbondingAlreadyPending","inputs":[]},{"type":"error","name":"UnbondingNotReady","inputs":[{"name":"readyAt","type":"uint256","internalType":"uint256"},{"name":"currentTime","type":"uint256","internalType":"uint256"}]}],"bytecode":{"object":"0x60a0346100b457601f61145038819003918201601f19168301916001600160401b038311848410176100b85780849260409485528339810103126100b457610052602061004b836100cc565b92016100cc565b6101f45f556103e86001556001600160a01b03918216608052600780546001600160a01b0319169190921617905560405161136f90816100e1823960805181818161044b015281816106710152818161087c01528181610af70152610f5e0152f35b5f80fd5b634e487b7160e01b5f52604160045260245ffd5b51906001600160a01b03821682036100b45756fe6080806040526004361015610012575f80fd5b5f905f3560e01c9081630f43a67714610f8d57508063119e5bf314610f4957806317849ba014610f2d5780632340e8d314610f10578063303b5e1a14610a6757806331d7a26214610a3c578063372500ab1461082e578063402b71dd146105815780634331ed1f1461056357806343e5e92d1461051357806363803b23146103d9578063817b1cd2146103bb578063a660f2801461039d578063ae5ac9211461026e578063b048e0561461022a578063cb1c2b5c14610205578063d9a912ec146101e7578063f851a440146101be5763fa52c7d8146100ef575f80fd5b346101bb5760203660031901126101bb576040906001600160a01b03610113610fd5565b168152600260205220805460018201549160028101546101aa60ff60038401541661019c6101436004860161108d565b61014f6005870161108d565b9260076040519761015f8961104f565b6006810154895201549560208801968752604051998a998a5260208a0152604089015215156060880152610100608088015261010087019061112d565b9085820360a087015261112d565b915160c08401525160e08301520390f35b80fd5b50346101bb57806003193601126101bb576007546040516001600160a01b039091168152602090f35b50346101bb57806003193601126101bb57602060405162093a808152f35b50346101bb57806003193601126101bb57602060405169d3c21bcecceda10000008152f35b50346101bb5760203660031901126101bb57600435906003548210156101bb57602061025583610feb565b905460405160039290921b1c6001600160a01b03168152f35b50346101bb5760203660031901126101bb576004353382526002602052604082206003810160ff8154161561038e5781549183831061037f576006810192835461037057846102bc916111a3565b81556102ca846005546111a3565b60055562093a8042019283421161035c57908469d3c21bcecceda1000000928560206040516102f88161104f565b8481520152558360078201555410610340575b5060405191825260208201527f9cee5eacd317086e5050733a5dad16ef5aaec185de792371a9625bfee2a3213b60403392a280f35b60ff19815416905561035360065461123b565b6006555f61030b565b634e487b7160e01b86526011600452602486fd5b631698163560e31b8652600486fd5b6378de4a6960e11b8552600485fd5b632ec5b44960e01b8452600484fd5b50346101bb57806003193601126101bb576020600154604051908152f35b50346101bb57806003193601126101bb576020600554604051908152f35b50346101bb57806003193601126101bb573381526002602052604081206006810190815491821561050457600782019081548042106104ee575090848092555554156104e0575b60405163a9059cbb60e01b815233600482015260248101829052602081604481866001600160a01b037f0000000000000000000000000000000000000000000000000000000000000000165af180156104d5576104a8575b506040519081527fdf2b996992aeaae3212b8d32b9c3c224196146804bed6814ec28d864b4eb3fc560203392a280f35b6104c99060203d6020116104ce575b6104c1818361106b565b810190611151565b610478565b503d6104b7565b6040513d85823e3d90fd5b6104e933611247565b610420565b6315a13ed560e11b865260045242602452604485fd5b63bf5c43fd60e01b8452600484fd5b50346101bb5760203660031901126101bb576040906007826001600160a01b0361053b610fd5565b1692838152600260205260068282200154938152600260205220015482519182526020820152f35b50346101bb57806003193601126101bb576020600654604051908152f35b50346107485760403660031901126107485761059b610fd5565b9060243567ffffffffffffffff8111610748576105bc903690600401610fa7565b600754909391906001600160a01b0316330361081f576001600160a01b0382165f8181526002602052604090206003810180549294919260ff168015610812575b156107cd57825492600681019161271061062461061b855488611169565b600154906111b0565b049480861161079057506106398583546111a3565b8255610647856005546111a3565b6005555b69d3c21bcecceda1000000825410610765575b505415908161075b575b5061074c575b507f00000000000000000000000000000000000000000000000000000000000000006001600160a01b0316803b15610748575f80916024604051809481936383adc2ff60e01b83528760048401525af1801561073d57610703575b506106fd7f074c8604eab659bccd1619a91a9588244a2442723fdcb05af0aa39da9fc6865793949560405193849384611176565b0390a280f35b7f074c8604eab659bccd1619a91a9588244a2442723fdcb05af0aa39da9fc686579394505f6107319161106b565b6106fd5f9493506106c9565b6040513d5f823e3d90fd5b5f80fd5b61075590611247565b5f61066e565b905054155f610668565b60ff81541661077d575b805460ff191690555f61065e565b61078860065461123b565b60065561076f565b806107aa6107a16107be93896111a3565b916005546111a3565b6005555f845584548082116107c5576111a3565b835561064b565b9050806111a3565b60405162461bcd60e51b815260206004820152601760248201527f4e6f7420616374697665206f7220756e626f6e64696e670000000000000000006044820152606490fd5b50600683015415156105fd565b637bfa4b9f60e01b5f5260045ffd5b34610748575f36600319011261074857335f52600260205260405f2060ff60038201541615610a0557610860336111c3565b9081156109d3576040516370a0823160e01b81523060048201527f00000000000000000000000000000000000000000000000000000000000000006001600160a01b03169190602081602481865afa90811561073d575f916109a1575b506108ca84600554611169565b1161095c574260028201555f600190910181905560405163a9059cbb60e01b81523360048201526024810184905291602091839160449183915af1801561073d5761093f575b506040519081527ffc30cddea38e2bf4d6ea7d3f9ed3b6ad7f176419f4963bd81318067a4aee73fe60203392a2005b6109579060203d6020116104ce576104c1818361106b565b610910565b60405162461bcd60e51b815260206004820152601b60248201527f496e73756666696369656e7420726577617264207265736572766500000000006044820152606490fd5b90506020813d6020116109cb575b816109bc6020938361106b565b810103126107485751846108bd565b3d91506109af565b60405162461bcd60e51b815260206004820152600a6024820152694e6f207265776172647360b01b6044820152606490fd5b60405162461bcd60e51b815260206004820152600f60248201526e2737ba1030903b30b634b230ba37b960891b6044820152606490fd5b34610748576020366003190112610748576020610a5f610a5a610fd5565b6111c3565b604051908152f35b346107485760603660031901126107485760043560243567ffffffffffffffff811161074857610a9b903690600401610fa7565b60443567ffffffffffffffff811161074857610abb903690600401610fa7565b929069d3c21bcecceda10000008510610f01576040516323b872dd60e01b8152336004820152306024820152604481018690526020816064815f7f00000000000000000000000000000000000000000000000000000000000000006001600160a01b03165af1801561073d57610ee4575b50335f52600260205260405f20936003850160ff815416155f14610e8d57335f52600460205260405f205415610e28575b805460ff191660011790556004850167ffffffffffffffff8511610d5457610b858154611017565b601f8111610dd7575b50845f601f8211600114610d73575f91610d68575b508560011b905f198760031b1c19161790555b600585019167ffffffffffffffff8211610d54578190610bd68454611017565b601f8111610cfb575b505f90601f8311600114610c94575f92610c89575b50508160011b915f199060031b1c19161790555b426002840155600654925f198414610c755760017f7821d83aead27bc7cb9935de00fd6c4fbcab50ecb3b31ff099ab33c4033514bb94016006555b610c4e858254611169565b9055610c5c84600554611169565b600555610c70604051928392339684611176565b0390a2005b634e487b7160e01b5f52601160045260245ffd5b013590508780610bf4565b909150601f19831691845f5260205f20925f5b818110610ce35750908460019594939210610cca575b505050811b019055610c08565b01355f19600384901b60f8161c19169055878080610cbd565b91936020600181928787013581550195019201610ca7565b82811115610bdf57909150835f5260205f20601f840160051c9060208510610d4c575b849392601f0160051c82900391015f5b828110610d3c575050610bdf565b5f81830155859450600101610d2e565b5f9150610d1e565b634e487b7160e01b5f52604160045260245ffd5b905084013588610ba3565b5f8381526020812092508790601f198216905b818110610dbc575010610da3575b5050600185811b019055610bb6565b8501355f19600388901b60f8161c191690558780610d94565b8884013585556001909401936020938401938a935001610d86565b85811115610b8e57815f5260205f20601f870160051c9060208810610e20575b81601f9101920160051c03905f5b828110610e13575050610b8e565b5f82820155600101610e05565b5f9150610df7565b60035460018101809111610c7557335f52600460205260405f205560035468010000000000000000811015610d5457610e6a816001610e889301600355610feb565b81546001600160a01b0360039290921b91821b19163390911b179055565b610b5d565b5050507f7821d83aead27bc7cb9935de00fd6c4fbcab50ecb3b31ff099ab33c4033514bb92610ebb336111c3565b80610ecd575b50426002820155610c43565b610edc60018301918254611169565b905585610ec1565b610efc9060203d6020116104ce576104c1818361106b565b610b2c565b63389f7e1160e01b5f5260045ffd5b34610748575f366003190112610748576020600654604051908152f35b34610748575f3660031901126107485760205f54604051908152f35b34610748575f366003190112610748576040517f00000000000000000000000000000000000000000000000000000000000000006001600160a01b03168152602090f35b34610748575f366003190112610748576020906003548152f35b9181601f840112156107485782359167ffffffffffffffff8311610748576020838186019501011161074857565b600435906001600160a01b038216820361074857565b6003548110156110035760035f5260205f2001905f90565b634e487b7160e01b5f52603260045260245ffd5b90600182811c92168015611045575b602083101461103157565b634e487b7160e01b5f52602260045260245ffd5b91607f1691611026565b6040810190811067ffffffffffffffff821117610d5457604052565b90601f8019910116810190811067ffffffffffffffff821117610d5457604052565b9060405191825f8254926110a084611017565b808452936001811690811561110b57506001146110c7575b506110c59250038361106b565b565b90505f9291925260205f20905f915b8183106110ef5750509060206110c5928201015f6110b8565b60209193508060019154838589010152019101909184926110d6565b9050602092506110c594915060ff191682840152151560051b8201015f6110b8565b805180835260209291819084018484015e5f828201840152601f01601f1916010190565b90816020910312610748575180151581036107485790565b91908201809211610c7557565b91926060938192845260406020850152816040850152848401375f828201840152601f01601f1916010190565b91908203918211610c7557565b81810292918115918404141715610c7557565b6001600160a01b03165f908152600260205260409020600381015460ff16158015611232575b61122d57806301e13380611223611207600261122a950154426111a3565b600161271061121986545f54906111b0565b04940154936111b0565b0490611169565b90565b505f90565b508054156111e9565b8015610c75575f190190565b6001600160a01b03165f818152600460205260409020548015611335576003548082036112c0575b505060035480156112ac575f190161128681610feb565b81546001600160a01b03600392831b1b1916909155555f90815260046020526040812055565b634e487b7160e01b5f52603160045260245ffd5b5f198101908111610c75576112d490610feb565b905460039190911b1c6001600160a01b03165f198201828111610c7557816112fe61132292610feb565b81546001600160a01b0393841660039290921b91821b9390911b1916919091179055565b5f52600460205260405f20555f8061126f565b505056fea2646970667358221220c84e24427d5925219d224f8a2e365aac186cdfa03c5ecf31802288fa98a258d264736f6c63430008210033","linkReferences":{}},"methodIdentifiers":{"MIN_STAKE()":"cb1c2b5c","UNBONDING_PERIOD()":"d9a912ec","activeCount()":"4331ed1f","activeValidatorCount()":"2340e8d3","admin()":"f851a440","claimRewards()":"372500ab","completeUnstake()":"63803b23","getUnbondingRequest(address)":"43e5e92d","goodDollar()":"119e5bf3","initiateUnstake(uint256)":"ae5ac921","pendingRewards(address)":"31d7a262","rewardRateBPS()":"17849ba0","slash(address,string)":"402b71dd","slashBPS()":"a660f280","stake(uint256,string,string)":"303b5e1a","totalStaked()":"817b1cd2","validatorCount()":"0f43a677","validatorList(uint256)":"b048e056","validators(address)":"fa52c7d8"},"id":26}