{"abi":[{"type":"constructor","inputs":[{"name":"_goodDollar","type":"address","internalType":"address"},{"name":"_admin","type":"address","internalType":"address"}],"stateMutability":"nonpayable"},{"type":"function","name":"MIN_STAKE","inputs":[],"outputs":[{"name":"","type":"uint256","internalType":"uint256"}],"stateMutability":"view"},{"type":"function","name":"UNBONDING_PERIOD","inputs":[],"outputs":[{"name":"","type":"uint256","internalType":"uint256"}],"stateMutability":"view"},{"type":"function","name":"activeValidatorCount","inputs":[],"outputs":[{"name":"","type":"uint256","internalType":"uint256"}],"stateMutability":"view"},{"type":"function","name":"admin","inputs":[],"outputs":[{"name":"","type":"address","internalType":"address"}],"stateMutability":"view"},{"type":"function","name":"claimRewards","inputs":[],"outputs":[],"stateMutability":"nonpayable"},{"type":"function","name":"completeUnstake","inputs":[],"outputs":[],"stateMutability":"nonpayable"},{"type":"function","name":"getUnbondingRequest","inputs":[{"name":"validator","type":"address","internalType":"address"}],"outputs":[{"name":"amount","type":"uint256","internalType":"uint256"},{"name":"unbondAt","type":"uint256","internalType":"uint256"}],"stateMutability":"view"},{"type":"function","name":"goodDollar","inputs":[],"outputs":[{"name":"","type":"address","internalType":"contract IGoodDollarToken"}],"stateMutability":"view"},{"type":"function","name":"initiateUnstake","inputs":[{"name":"amount","type":"uint256","internalType":"uint256"}],"outputs":[],"stateMutability":"nonpayable"},{"type":"function","name":"pendingRewards","inputs":[{"name":"validator","type":"address","internalType":"address"}],"outputs":[{"name":"","type":"uint256","internalType":"uint256"}],"stateMutability":"view"},{"type":"function","name":"rewardRateBPS","inputs":[],"outputs":[{"name":"","type":"uint256","internalType":"uint256"}],"stateMutability":"view"},{"type":"function","name":"slash","inputs":[{"name":"validator","type":"address","internalType":"address"},{"name":"reason","type":"string","internalType":"string"}],"outputs":[],"stateMutability":"nonpayable"},{"type":"function","name":"slashBPS","inputs":[],"outputs":[{"name":"","type":"uint256","internalType":"uint256"}],"stateMutability":"view"},{"type":"function","name":"stake","inputs":[{"name":"amount","type":"uint256","internalType":"uint256"},{"name":"name","type":"string","internalType":"string"},{"name":"endpoint","type":"string","internalType":"string"}],"outputs":[],"stateMutability":"nonpayable"},{"type":"function","name":"totalStaked","inputs":[],"outputs":[{"name":"","type":"uint256","internalType":"uint256"}],"stateMutability":"view"},{"type":"function","name":"validatorCount","inputs":[],"outputs":[{"name":"","type":"uint256","internalType":"uint256"}],"stateMutability":"view"},{"type":"function","name":"validatorList","inputs":[{"name":"","type":"uint256","internalType":"uint256"}],"outputs":[{"name":"","type":"address","internalType":"address"}],"stateMutability":"view"},{"type":"function","name":"validators","inputs":[{"name":"","type":"address","internalType":"address"}],"outputs":[{"name":"staked","type":"uint256","internalType":"uint256"},{"name":"rewardDebt","type":"uint256","internalType":"uint256"},{"name":"lastStakeTime","type":"uint256","internalType":"uint256"},{"name":"isActive","type":"bool","internalType":"bool"},{"name":"name","type":"string","internalType":"string"},{"name":"endpoint","type":"string","internalType":"string"},{"name":"unbonding","type":"tuple","internalType":"struct ValidatorStaking.UnbondingRequest","components":[{"name":"amount","type":"uint256","internalType":"uint256"},{"name":"unbondAt","type":"uint256","internalType":"uint256"}]}],"stateMutability":"view"},{"type":"event","name":"RewardsClaimed","inputs":[{"name":"validator","type":"address","indexed":true,"internalType":"address"},{"name":"amount","type":"uint256","indexed":false,"internalType":"uint256"}],"anonymous":false},{"type":"event","name":"UnstakeCompleted","inputs":[{"name":"validator","type":"address","indexed":true,"internalType":"address"},{"name":"amount","type":"uint256","indexed":false,"internalType":"uint256"}],"anonymous":false},{"type":"event","name":"UnstakeInitiated","inputs":[{"name":"validator","type":"address","indexed":true,"internalType":"address"},{"name":"amount","type":"uint256","indexed":false,"internalType":"uint256"},{"name":"unbondAt","type":"uint256","indexed":false,"internalType":"uint256"}],"anonymous":false},{"type":"event","name":"ValidatorSlashed","inputs":[{"name":"validator","type":"address","indexed":true,"internalType":"address"},{"name":"amount","type":"uint256","indexed":false,"internalType":"uint256"},{"name":"reason","type":"string","indexed":false,"internalType":"string"}],"anonymous":false},{"type":"event","name":"ValidatorStaked","inputs":[{"name":"validator","type":"address","indexed":true,"internalType":"address"},{"name":"amount","type":"uint256","indexed":false,"internalType":"uint256"},{"name":"name","type":"string","indexed":false,"internalType":"string"}],"anonymous":false},{"type":"error","name":"BelowMinStake","inputs":[]},{"type":"error","name":"InsufficientStake","inputs":[]},{"type":"error","name":"NoUnbondingRequest","inputs":[]},{"type":"error","name":"NotAdmin","inputs":[]},{"type":"error","name":"NotValidator","inputs":[]},{"type":"error","name":"UnbondingAlreadyPending","inputs":[]},{"type":"error","name":"UnbondingNotReady","inputs":[{"name":"readyAt","type":"uint256","internalType":"uint256"},{"name":"currentTime","type":"uint256","internalType":"uint256"}]}],"bytecode":{"object":"0x60a06040526101f45f556103e860015534801561001a575f5ffd5b50604051612007380380612007833981810160405281019061003c9190610115565b8173ffffffffffffffffffffffffffffffffffffffff1660808173ffffffffffffffffffffffffffffffffffffffff16815250508060055f6101000a81548173ffffffffffffffffffffffffffffffffffffffff021916908373ffffffffffffffffffffffffffffffffffffffff1602179055505050610153565b5f5ffd5b5f73ffffffffffffffffffffffffffffffffffffffff82169050919050565b5f6100e4826100bb565b9050919050565b6100f4816100da565b81146100fe575f5ffd5b50565b5f8151905061010f816100eb565b92915050565b5f5f6040838503121561012b5761012a6100b7565b5b5f61013885828601610101565b925050602061014985828601610101565b9150509250929050565b608051611e806101875f395f8181610363015281816104980152818161087201528181610b9a0152610dfe0152611e805ff3fe608060405234801561000f575f5ffd5b5060043610610114575f3560e01c806363803b23116100a0578063b048e0561161006f578063b048e05614610295578063cb1c2b5c146102c5578063d9a912ec146102e3578063f851a44014610301578063fa52c7d81461031f57610114565b806363803b2314610233578063817b1cd21461023d578063a660f2801461025b578063ae5ac9211461027957610114565b8063303b5e1a116100e7578063303b5e1a1461019057806331d7a262146101ac578063372500ab146101dc578063402b71dd146101e657806343e5e92d1461020257610114565b80630f43a67714610118578063119e5bf31461013657806317849ba0146101545780632340e8d314610172575b5f5ffd5b610120610355565b60405161012d91906112fa565b60405180910390f35b61013e610361565b60405161014b919061138d565b60405180910390f35b61015c610385565b60405161016991906112fa565b60405180910390f35b61017a61038a565b60405161018791906112fa565b60405180910390f35b6101aa60048036038101906101a59190611439565b610452565b005b6101c660048036038101906101c19190611505565b6106c2565b6040516101d391906112fa565b60405180910390f35b6101e4610789565b005b61020060048036038101906101fb9190611530565b61095e565b005b61021c60048036038101906102179190611505565b610c78565b60405161022a92919061158d565b60405180910390f35b61023b610d0a565b005b610245610eea565b60405161025291906112fa565b60405180910390f35b610263610ef0565b60405161027091906112fa565b60405180910390f35b610293600480360381019061028e91906115b4565b610ef6565b005b6102af60048036038101906102aa91906115b4565b6110fa565b6040516102bc91906115ee565b60405180910390f35b6102cd611135565b6040516102da91906112fa565b60405180910390f35b6102eb611143565b6040516102f891906112fa565b60405180910390f35b61030961114a565b60405161031691906115ee565b60405180910390f35b61033960048036038101906103349190611505565b61116f565b60405161034c97969594939291906116cd565b60405180910390f35b5f600380549050905090565b7f000000000000000000000000000000000000000000000000000000000000000081565b5f5481565b5f5f5f90505f5f90505b60038054905081101561044a5760025f600383815481106103b8576103b7611749565b5b905f5260205f20015f9054906101000a900473ffffffffffffffffffffffffffffffffffffffff1673ffffffffffffffffffffffffffffffffffffffff1673ffffffffffffffffffffffffffffffffffffffff1681526020019081526020015f206003015f9054906101000a900460ff161561043d578180610439906117a3565b9250505b8080600101915050610394565b508091505090565b69d3c21bcecceda1000000851015610496576040517f389f7e1100000000000000000000000000000000000000000000000000000000815260040160405180910390fd5b7f000000000000000000000000000000000000000000000000000000000000000073ffffffffffffffffffffffffffffffffffffffff166323b872dd3330886040518463ffffffff1660e01b81526004016104f3939291906117ea565b6020604051808303815f875af115801561050f573d5f5f3e3d5ffd5b505050506040513d601f19601f820116820180604052508101906105339190611849565b505f60025f3373ffffffffffffffffffffffffffffffffffffffff1673ffffffffffffffffffffffffffffffffffffffff1681526020019081526020015f209050806003015f9054906101000a900460ff16610637576001816003015f6101000a81548160ff02191690831515021790555084848260040191826105b8929190611ab0565b5082828260050191826105cc929190611ab0565b50428160020181905550600333908060018154018082558091505060019003905f5260205f20015f9091909190916101000a81548173ffffffffffffffffffffffffffffffffffffffff021916908373ffffffffffffffffffffffffffffffffffffffff1602179055505b85815f015f8282546106499190611b7d565b925050819055508560045f8282546106619190611b7d565b925050819055503373ffffffffffffffffffffffffffffffffffffffff167f7821d83aead27bc7cb9935de00fd6c4fbcab50ecb3b31ff099ab33c4033514bb8787876040516106b293929190611bea565b60405180910390a2505050505050565b5f5f60025f8473ffffffffffffffffffffffffffffffffffffffff1673ffffffffffffffffffffffffffffffffffffffff1681526020019081526020015f209050806003015f9054906101000a900460ff16158061072257505f815f0154145b15610730575f915050610784565b5f8160020154426107419190611c1a565b90505f6127105f54845f01546107579190611c4d565b6107619190611cbb565b90506301e1338082826107749190611c4d565b61077e9190611cbb565b93505050505b919050565b5f60025f3373ffffffffffffffffffffffffffffffffffffffff1673ffffffffffffffffffffffffffffffffffffffff1681526020019081526020015f209050806003015f9054906101000a900460ff16610819576040517f08c379a000000000000000000000000000000000000000000000000000000000815260040161081090611d35565b60405180910390fd5b5f610823336106c2565b90505f8111610867576040517f08c379a000000000000000000000000000000000000000000000000000000000815260040161085e90611d9d565b60405180910390fd5b4282600201819055507f000000000000000000000000000000000000000000000000000000000000000073ffffffffffffffffffffffffffffffffffffffff1663a9059cbb33836040518363ffffffff1660e01b81526004016108cb929190611dbb565b6020604051808303815f875af11580156108e7573d5f5f3e3d5ffd5b505050506040513d601f19601f8201168201806040525081019061090b9190611849565b503373ffffffffffffffffffffffffffffffffffffffff167ffc30cddea38e2bf4d6ea7d3f9ed3b6ad7f176419f4963bd81318067a4aee73fe8260405161095291906112fa565b60405180910390a25050565b60055f9054906101000a900473ffffffffffffffffffffffffffffffffffffffff1673ffffffffffffffffffffffffffffffffffffffff163373ffffffffffffffffffffffffffffffffffffffff16146109e4576040517f7bfa4b9f00000000000000000000000000000000000000000000000000000000815260040160405180910390fd5b5f60025f8573ffffffffffffffffffffffffffffffffffffffff1673ffffffffffffffffffffffffffffffffffffffff1681526020019081526020015f209050806003015f9054906101000a900460ff1680610a4557505f816006015f0154115b610a84576040517f08c379a0000000000000000000000000000000000000000000000000000000008152600401610a7b90611e2c565b60405180910390fd5b5f816006015f0154825f0154610a9a9190611b7d565b90505f61271060015483610aae9190611c4d565b610ab89190611cbb565b9050825f01548111610afa5780835f015f828254610ad69190611c1a565b925050819055508060045f828254610aee9190611c1a565b92505081905550610b67565b5f835f015490505f8183610b0e9190611c1a565b90508160045f828254610b219190611c1a565b925050819055505f855f0181905550846006015f0154811115610b4857846006015f015490505b80856006015f015f828254610b5d9190611c1a565b9250508190555050505b69d3c21bcecceda1000000835f01541015610b98575f836003015f6101000a81548160ff0219169083151502179055505b7f000000000000000000000000000000000000000000000000000000000000000073ffffffffffffffffffffffffffffffffffffffff166383adc2ff826040518263ffffffff1660e01b8152600401610bf191906112fa565b5f604051808303815f87803b158015610c08575f5ffd5b505af1158015610c1a573d5f5f3e3d5ffd5b505050508573ffffffffffffffffffffffffffffffffffffffff167f074c8604eab659bccd1619a91a9588244a2442723fdcb05af0aa39da9fc68657828787604051610c6893929190611bea565b60405180910390a2505050505050565b5f5f60025f8473ffffffffffffffffffffffffffffffffffffffff1673ffffffffffffffffffffffffffffffffffffffff1681526020019081526020015f206006015f015460025f8573ffffffffffffffffffffffffffffffffffffffff1673ffffffffffffffffffffffffffffffffffffffff1681526020019081526020015f206006016001015491509150915091565b5f60025f3373ffffffffffffffffffffffffffffffffffffffff1673ffffffffffffffffffffffffffffffffffffffff1681526020019081526020015f2090505f816006015f015403610d89576040517fbf5c43fd00000000000000000000000000000000000000000000000000000000815260040160405180910390fd5b8060060160010154421015610dde578060060160010154426040517f2b427daa000000000000000000000000000000000000000000000000000000008152600401610dd592919061158d565b60405180910390fd5b5f816006015f01549050816006015f5f82015f9055600182015f905550507f000000000000000000000000000000000000000000000000000000000000000073ffffffffffffffffffffffffffffffffffffffff1663a9059cbb33836040518363ffffffff1660e01b8152600401610e57929190611dbb565b6020604051808303815f875af1158015610e73573d5f5f3e3d5ffd5b505050506040513d601f19601f82011682018060405250810190610e979190611849565b503373ffffffffffffffffffffffffffffffffffffffff167fdf2b996992aeaae3212b8d32b9c3c224196146804bed6814ec28d864b4eb3fc582604051610ede91906112fa565b60405180910390a25050565b60045481565b60015481565b5f60025f3373ffffffffffffffffffffffffffffffffffffffff1673ffffffffffffffffffffffffffffffffffffffff1681526020019081526020015f209050806003015f9054906101000a900460ff16610f7d576040517f2ec5b44900000000000000000000000000000000000000000000000000000000815260040160405180910390fd5b81815f01541015610fba576040517ff1bc94d200000000000000000000000000000000000000000000000000000000815260040160405180910390fd5b5f816006015f01541115610ffa576040517fb4c0b1a800000000000000000000000000000000000000000000000000000000815260040160405180910390fd5b81815f015f82825461100c9190611c1a565b925050819055508160045f8282546110249190611c1a565b92505081905550604051806040016040528083815260200162093a804261104b9190611b7d565b815250816006015f820151815f01556020820151816001015590505069d3c21bcecceda1000000815f01541015611098575f816003015f6101000a81548160ff0219169083151502179055505b3373ffffffffffffffffffffffffffffffffffffffff167f9cee5eacd317086e5050733a5dad16ef5aaec185de792371a9625bfee2a3213b8362093a80426110e09190611b7d565b6040516110ee92919061158d565b60405180910390a25050565b60038181548110611109575f80fd5b905f5260205f20015f915054906101000a900473ffffffffffffffffffffffffffffffffffffffff1681565b69d3c21bcecceda100000081565b62093a8081565b60055f9054906101000a900473ffffffffffffffffffffffffffffffffffffffff1681565b6002602052805f5260405f205f91509050805f015490806001015490806002015490806003015f9054906101000a900460ff16908060040180546111b2906118d8565b80601f01602080910402602001604051908101604052809291908181526020018280546111de906118d8565b80156112295780601f1061120057610100808354040283529160200191611229565b820191905f5260205f20905b81548152906001019060200180831161120c57829003601f168201915b50505050509080600501805461123e906118d8565b80601f016020809104026020016040519081016040528092919081815260200182805461126a906118d8565b80156112b55780601f1061128c576101008083540402835291602001916112b5565b820191905f5260205f20905b81548152906001019060200180831161129857829003601f168201915b505050505090806006016040518060400160405290815f8201548152602001600182015481525050905087565b5f819050919050565b6112f4816112e2565b82525050565b5f60208201905061130d5f8301846112eb565b92915050565b5f73ffffffffffffffffffffffffffffffffffffffff82169050919050565b5f819050919050565b5f61135561135061134b84611313565b611332565b611313565b9050919050565b5f6113668261133b565b9050919050565b5f6113778261135c565b9050919050565b6113878161136d565b82525050565b5f6020820190506113a05f83018461137e565b92915050565b5f5ffd5b5f5ffd5b6113b7816112e2565b81146113c1575f5ffd5b50565b5f813590506113d2816113ae565b92915050565b5f5ffd5b5f5ffd5b5f5ffd5b5f5f83601f8401126113f9576113f86113d8565b5b8235905067ffffffffffffffff811115611416576114156113dc565b5b602083019150836001820283011115611432576114316113e0565b5b9250929050565b5f5f5f5f5f60608688031215611452576114516113a6565b5b5f61145f888289016113c4565b955050602086013567ffffffffffffffff8111156114805761147f6113aa565b5b61148c888289016113e4565b9450945050604086013567ffffffffffffffff8111156114af576114ae6113aa565b5b6114bb888289016113e4565b92509250509295509295909350565b5f6114d482611313565b9050919050565b6114e4816114ca565b81146114ee575f5ffd5b50565b5f813590506114ff816114db565b92915050565b5f6020828403121561151a576115196113a6565b5b5f611527848285016114f1565b91505092915050565b5f5f5f60408486031215611547576115466113a6565b5b5f611554868287016114f1565b935050602084013567ffffffffffffffff811115611575576115746113aa565b5b611581868287016113e4565b92509250509250925092565b5f6040820190506115a05f8301856112eb565b6115ad60208301846112eb565b9392505050565b5f602082840312156115c9576115c86113a6565b5b5f6115d6848285016113c4565b91505092915050565b6115e8816114ca565b82525050565b5f6020820190506116015f8301846115df565b92915050565b5f8115159050919050565b61161b81611607565b82525050565b5f81519050919050565b5f82825260208201905092915050565b8281835e5f83830152505050565b5f601f19601f8301169050919050565b5f61166382611621565b61166d818561162b565b935061167d81856020860161163b565b61168681611649565b840191505092915050565b61169a816112e2565b82525050565b604082015f8201516116b45f850182611691565b5060208201516116c76020850182611691565b50505050565b5f610100820190506116e15f83018a6112eb565b6116ee60208301896112eb565b6116fb60408301886112eb565b6117086060830187611612565b818103608083015261171a8186611659565b905081810360a083015261172e8185611659565b905061173d60c08301846116a0565b98975050505050505050565b7f4e487b71000000000000000000000000000000000000000000000000000000005f52603260045260245ffd5b7f4e487b71000000000000000000000000000000000000000000000000000000005f52601160045260245ffd5b5f6117ad826112e2565b91507fffffffffffffffffffffffffffffffffffffffffffffffffffffffffffffffff82036117df576117de611776565b5b600182019050919050565b5f6060820190506117fd5f8301866115df565b61180a60208301856115df565b61181760408301846112eb565b949350505050565b61182881611607565b8114611832575f5ffd5b50565b5f815190506118438161181f565b92915050565b5f6020828403121561185e5761185d6113a6565b5b5f61186b84828501611835565b91505092915050565b5f82905092915050565b7f4e487b71000000000000000000000000000000000000000000000000000000005f52604160045260245ffd5b7f4e487b71000000000000000000000000000000000000000000000000000000005f52602260045260245ffd5b5f60028204905060018216806118ef57607f821691505b602082108103611902576119016118ab565b5b50919050565b5f819050815f5260205f209050919050565b5f6020601f8301049050919050565b5f82821b905092915050565b5f600883026119647fffffffffffffffffffffffffffffffffffffffffffffffffffffffffffffffff82611929565b61196e8683611929565b95508019841693508086168417925050509392505050565b5f6119a061199b611996846112e2565b611332565b6112e2565b9050919050565b5f819050919050565b6119b983611986565b6119cd6119c5826119a7565b848454611935565b825550505050565b5f5f905090565b6119e46119d5565b6119ef8184846119b0565b505050565b5f5b82811015611a1557611a0a5f8284016119dc565b6001810190506119f6565b505050565b601f821115611a685782821115611a6757611a3481611908565b611a3d8361191a565b611a468561191a565b6020861015611a53575f90505b808301611a62828403826119f4565b505050505b5b505050565b5f82821c905092915050565b5f611a885f1984600802611a6d565b1980831691505092915050565b5f611aa08383611a79565b9150826002028217905092915050565b611aba8383611874565b67ffffffffffffffff811115611ad357611ad261187e565b5b611add82546118d8565b611ae8828285611a1a565b5f601f831160018114611b15575f8415611b03578287013590505b611b0d8582611a95565b865550611b74565b601f198416611b2386611908565b5f5b82811015611b4a57848901358255600182019150602085019450602081019050611b25565b86831015611b675784890135611b63601f891682611a79565b8355505b6001600288020188555050505b50505050505050565b5f611b87826112e2565b9150611b92836112e2565b9250828201905080821115611baa57611ba9611776565b5b92915050565b828183375f83830152505050565b5f611bc9838561162b565b9350611bd6838584611bb0565b611bdf83611649565b840190509392505050565b5f604082019050611bfd5f8301866112eb565b8181036020830152611c10818486611bbe565b9050949350505050565b5f611c24826112e2565b9150611c2f836112e2565b9250828203905081811115611c4757611c46611776565b5b92915050565b5f611c57826112e2565b9150611c62836112e2565b9250828202611c70816112e2565b91508282048414831517611c8757611c86611776565b5b5092915050565b7f4e487b71000000000000000000000000000000000000000000000000000000005f52601260045260245ffd5b5f611cc5826112e2565b9150611cd0836112e2565b925082611ce057611cdf611c8e565b5b828204905092915050565b7f4e6f7420612076616c696461746f7200000000000000000000000000000000005f82015250565b5f611d1f600f8361162b565b9150611d2a82611ceb565b602082019050919050565b5f6020820190508181035f830152611d4c81611d13565b9050919050565b7f4e6f2072657761726473000000000000000000000000000000000000000000005f82015250565b5f611d87600a8361162b565b9150611d9282611d53565b602082019050919050565b5f6020820190508181035f830152611db481611d7b565b9050919050565b5f604082019050611dce5f8301856115df565b611ddb60208301846112eb565b9392505050565b7f4e6f7420616374697665206f7220756e626f6e64696e670000000000000000005f82015250565b5f611e1660178361162b565b9150611e2182611de2565b602082019050919050565b5f6020820190508181035f830152611e4381611e0a565b905091905056fea2646970667358221220f0842f82c180fd1db062520d420e59f60013d4793da5fef6b5b2b5a870b9d8fb64736f6c63430008210033","linkReferences":{}},"methodIdentifiers":{"MIN_STAKE()":"cb1c2b5c","UNBONDING_PERIOD()":"d9a912ec","activeValidatorCount()":"2340e8d3","admin()":"f851a440","claimRewards()":"372500ab","completeUnstake()":"63803b23","getUnbondingRequest(address)":"43e5e92d","goodDollar()":"119e5bf3","initiateUnstake(uint256)":"ae5ac921","pendingRewards(address)":"31d7a262","rewardRateBPS()":"17849ba0","slash(address,string)":"402b71dd","slashBPS()":"a660f280","stake(uint256,string,string)":"303b5e1a","totalStaked()":"817b1cd2","validatorCount()":"0f43a677","validatorList(uint256)":"b048e056","validators(address)":"fa52c7d8"},"id":26}