{"abi":[{"type":"constructor","inputs":[{"name":"_goodDollar","type":"address","internalType":"address"},{"name":"_admin","type":"address","internalType":"address"}],"stateMutability":"nonpayable"},{"type":"function","name":"MIN_STAKE","inputs":[],"outputs":[{"name":"","type":"uint256","internalType":"uint256"}],"stateMutability":"view"},{"type":"function","name":"activeValidatorCount","inputs":[],"outputs":[{"name":"","type":"uint256","internalType":"uint256"}],"stateMutability":"view"},{"type":"function","name":"admin","inputs":[],"outputs":[{"name":"","type":"address","internalType":"address"}],"stateMutability":"view"},{"type":"function","name":"claimRewards","inputs":[],"outputs":[],"stateMutability":"nonpayable"},{"type":"function","name":"goodDollar","inputs":[],"outputs":[{"name":"","type":"address","internalType":"contract IGoodDollarToken"}],"stateMutability":"view"},{"type":"function","name":"pendingRewards","inputs":[{"name":"validator","type":"address","internalType":"address"}],"outputs":[{"name":"","type":"uint256","internalType":"uint256"}],"stateMutability":"view"},{"type":"function","name":"rewardRateBPS","inputs":[],"outputs":[{"name":"","type":"uint256","internalType":"uint256"}],"stateMutability":"view"},{"type":"function","name":"slash","inputs":[{"name":"validator","type":"address","internalType":"address"},{"name":"reason","type":"string","internalType":"string"}],"outputs":[],"stateMutability":"nonpayable"},{"type":"function","name":"slashBPS","inputs":[],"outputs":[{"name":"","type":"uint256","internalType":"uint256"}],"stateMutability":"view"},{"type":"function","name":"stake","inputs":[{"name":"amount","type":"uint256","internalType":"uint256"},{"name":"name","type":"string","internalType":"string"},{"name":"endpoint","type":"string","internalType":"string"}],"outputs":[],"stateMutability":"nonpayable"},{"type":"function","name":"totalStaked","inputs":[],"outputs":[{"name":"","type":"uint256","internalType":"uint256"}],"stateMutability":"view"},{"type":"function","name":"unstake","inputs":[{"name":"amount","type":"uint256","internalType":"uint256"}],"outputs":[],"stateMutability":"nonpayable"},{"type":"function","name":"validatorCount","inputs":[],"outputs":[{"name":"","type":"uint256","internalType":"uint256"}],"stateMutability":"view"},{"type":"function","name":"validatorList","inputs":[{"name":"","type":"uint256","internalType":"uint256"}],"outputs":[{"name":"","type":"address","internalType":"address"}],"stateMutability":"view"},{"type":"function","name":"validators","inputs":[{"name":"","type":"address","internalType":"address"}],"outputs":[{"name":"staked","type":"uint256","internalType":"uint256"},{"name":"rewardDebt","type":"uint256","internalType":"uint256"},{"name":"lastStakeTime","type":"uint256","internalType":"uint256"},{"name":"isActive","type":"bool","internalType":"bool"},{"name":"name","type":"string","internalType":"string"},{"name":"endpoint","type":"string","internalType":"string"}],"stateMutability":"view"},{"type":"event","name":"RewardsClaimed","inputs":[{"name":"validator","type":"address","indexed":true,"internalType":"address"},{"name":"amount","type":"uint256","indexed":false,"internalType":"uint256"}],"anonymous":false},{"type":"event","name":"ValidatorSlashed","inputs":[{"name":"validator","type":"address","indexed":true,"internalType":"address"},{"name":"amount","type":"uint256","indexed":false,"internalType":"uint256"},{"name":"reason","type":"string","indexed":false,"internalType":"string"}],"anonymous":false},{"type":"event","name":"ValidatorStaked","inputs":[{"name":"validator","type":"address","indexed":true,"internalType":"address"},{"name":"amount","type":"uint256","indexed":false,"internalType":"uint256"},{"name":"name","type":"string","indexed":false,"internalType":"string"}],"anonymous":false},{"type":"event","name":"ValidatorUnstaked","inputs":[{"name":"validator","type":"address","indexed":true,"internalType":"address"},{"name":"amount","type":"uint256","indexed":false,"internalType":"uint256"}],"anonymous":false}],"bytecode":{"object":"0x60a06040526101f45f556103e860015534801561001a575f5ffd5b50604051611d48380380611d48833981810160405281019061003c9190610115565b8173ffffffffffffffffffffffffffffffffffffffff1660808173ffffffffffffffffffffffffffffffffffffffff16815250508060055f6101000a81548173ffffffffffffffffffffffffffffffffffffffff021916908373ffffffffffffffffffffffffffffffffffffffff1602179055505050610153565b5f5ffd5b5f73ffffffffffffffffffffffffffffffffffffffff82169050919050565b5f6100e4826100bb565b9050919050565b6100f4816100da565b81146100fe575f5ffd5b50565b5f8151905061010f816100eb565b92915050565b5f5f6040838503121561012b5761012a6100b7565b5b5f61013885828601610101565b925050602061014985828601610101565b9150509250929050565b608051611bc16101875f395f81816102e8015281816105110152818161064c01528181610a260152610c850152611bc15ff3fe608060405234801561000f575f5ffd5b50600436106100f3575f3560e01c8063372500ab11610095578063b048e05611610064578063b048e05614610239578063cb1c2b5c14610269578063f851a44014610287578063fa52c7d8146102a5576100f3565b8063372500ab146101d7578063402b71dd146101e1578063817b1cd2146101fd578063a660f2801461021b576100f3565b80632340e8d3116100d15780632340e8d3146101515780632e17de781461016f578063303b5e1a1461018b57806331d7a262146101a7576100f3565b80630f43a677146100f7578063119e5bf31461011557806317849ba014610133575b5f5ffd5b6100ff6102da565b60405161010c9190610f75565b60405180910390f35b61011d6102e6565b60405161012a9190611008565b60405180910390f35b61013b61030a565b6040516101489190610f75565b60405180910390f35b61015961030f565b6040516101669190610f75565b60405180910390f35b61018960048036038101906101849190611053565b6103d7565b005b6101a560048036038101906101a091906110df565b6105fd565b005b6101c160048036038101906101bc91906111ab565b610876565b6040516101ce9190610f75565b60405180910390f35b6101df61093d565b005b6101fb60048036038101906101f691906111d6565b610b12565b005b610205610d93565b6040516102129190610f75565b60405180910390f35b610223610d99565b6040516102309190610f75565b60405180910390f35b610253600480360381019061024e9190611053565b610d9f565b6040516102609190611242565b60405180910390f35b610271610dda565b60405161027e9190610f75565b60405180910390f35b61028f610de8565b60405161029c9190611242565b60405180910390f35b6102bf60048036038101906102ba91906111ab565b610e0d565b6040516102d1969594939291906112e5565b60405180910390f35b5f600380549050905090565b7f000000000000000000000000000000000000000000000000000000000000000081565b5f5481565b5f5f5f90505f5f90505b6003805490508110156103cf5760025f6003838154811061033d5761033c611352565b5b905f5260205f20015f9054906101000a900473ffffffffffffffffffffffffffffffffffffffff1673ffffffffffffffffffffffffffffffffffffffff1673ffffffffffffffffffffffffffffffffffffffff1681526020019081526020015f206003015f9054906101000a900460ff16156103c25781806103be906113ac565b9250505b8080600101915050610319565b508091505090565b5f60025f3373ffffffffffffffffffffffffffffffffffffffff1673ffffffffffffffffffffffffffffffffffffffff1681526020019081526020015f209050806003015f9054906101000a900460ff16610467576040517f08c379a000000000000000000000000000000000000000000000000000000000815260040161045e9061143d565b60405180910390fd5b81815f015410156104ad576040517f08c379a00000000000000000000000000000000000000000000000000000000081526004016104a4906114a5565b60405180910390fd5b81815f015f8282546104bf91906114c3565b925050819055508160045f8282546104d791906114c3565b9250508190555069d3c21bcecceda1000000815f0154101561050f575f816003015f6101000a81548160ff0219169083151502179055505b7f000000000000000000000000000000000000000000000000000000000000000073ffffffffffffffffffffffffffffffffffffffff1663a9059cbb33846040518363ffffffff1660e01b815260040161056a9291906114f6565b6020604051808303815f875af1158015610586573d5f5f3e3d5ffd5b505050506040513d601f19601f820116820180604052508101906105aa9190611547565b503373ffffffffffffffffffffffffffffffffffffffff167f0e9a2d5c9c9e68a955bcad9f9d834d70fba138442adf13dec6d6588838197a59836040516105f19190610f75565b60405180910390a25050565b69d3c21bcecceda100000085101561064a576040517f08c379a0000000000000000000000000000000000000000000000000000000008152600401610641906115bc565b60405180910390fd5b7f000000000000000000000000000000000000000000000000000000000000000073ffffffffffffffffffffffffffffffffffffffff166323b872dd3330886040518463ffffffff1660e01b81526004016106a7939291906115da565b6020604051808303815f875af11580156106c3573d5f5f3e3d5ffd5b505050506040513d601f19601f820116820180604052508101906106e79190611547565b505f60025f3373ffffffffffffffffffffffffffffffffffffffff1673ffffffffffffffffffffffffffffffffffffffff1681526020019081526020015f209050806003015f9054906101000a900460ff166107eb576001816003015f6101000a81548160ff021916908315150217905550848482600401918261076c92919061184b565b50828282600501918261078092919061184b565b50428160020181905550600333908060018154018082558091505060019003905f5260205f20015f9091909190916101000a81548173ffffffffffffffffffffffffffffffffffffffff021916908373ffffffffffffffffffffffffffffffffffffffff1602179055505b85815f015f8282546107fd9190611918565b925050819055508560045f8282546108159190611918565b925050819055503373ffffffffffffffffffffffffffffffffffffffff167f7821d83aead27bc7cb9935de00fd6c4fbcab50ecb3b31ff099ab33c4033514bb87878760405161086693929190611985565b60405180910390a2505050505050565b5f5f60025f8473ffffffffffffffffffffffffffffffffffffffff1673ffffffffffffffffffffffffffffffffffffffff1681526020019081526020015f209050806003015f9054906101000a900460ff1615806108d657505f815f0154145b156108e4575f915050610938565b5f8160020154426108f591906114c3565b90505f6127105f54845f015461090b91906119b5565b6109159190611a23565b90506301e13380828261092891906119b5565b6109329190611a23565b93505050505b919050565b5f60025f3373ffffffffffffffffffffffffffffffffffffffff1673ffffffffffffffffffffffffffffffffffffffff1681526020019081526020015f209050806003015f9054906101000a900460ff166109cd576040517f08c379a00000000000000000000000000000000000000000000000000000000081526004016109c49061143d565b60405180910390fd5b5f6109d733610876565b90505f8111610a1b576040517f08c379a0000000000000000000000000000000000000000000000000000000008152600401610a1290611a9d565b60405180910390fd5b4282600201819055507f000000000000000000000000000000000000000000000000000000000000000073ffffffffffffffffffffffffffffffffffffffff1663a9059cbb33836040518363ffffffff1660e01b8152600401610a7f9291906114f6565b6020604051808303815f875af1158015610a9b573d5f5f3e3d5ffd5b505050506040513d601f19601f82011682018060405250810190610abf9190611547565b503373ffffffffffffffffffffffffffffffffffffffff167ffc30cddea38e2bf4d6ea7d3f9ed3b6ad7f176419f4963bd81318067a4aee73fe82604051610b069190610f75565b60405180910390a25050565b60055f9054906101000a900473ffffffffffffffffffffffffffffffffffffffff1673ffffffffffffffffffffffffffffffffffffffff163373ffffffffffffffffffffffffffffffffffffffff1614610ba1576040517f08c379a0000000000000000000000000000000000000000000000000000000008152600401610b9890611b05565b60405180910390fd5b5f60025f8573ffffffffffffffffffffffffffffffffffffffff1673ffffffffffffffffffffffffffffffffffffffff1681526020019081526020015f209050806003015f9054906101000a900460ff16610c31576040517f08c379a0000000000000000000000000000000000000000000000000000000008152600401610c2890611b6d565b60405180910390fd5b5f612710600154835f0154610c4691906119b5565b610c509190611a23565b905080825f015f828254610c6491906114c3565b925050819055508060045f828254610c7c91906114c3565b925050819055507f000000000000000000000000000000000000000000000000000000000000000073ffffffffffffffffffffffffffffffffffffffff166383adc2ff826040518263ffffffff1660e01b8152600401610cdc9190610f75565b5f604051808303815f87803b158015610cf3575f5ffd5b505af1158015610d05573d5f5f3e3d5ffd5b5050505069d3c21bcecceda1000000825f01541015610d3a575f826003015f6101000a81548160ff0219169083151502179055505b8473ffffffffffffffffffffffffffffffffffffffff167f074c8604eab659bccd1619a91a9588244a2442723fdcb05af0aa39da9fc68657828686604051610d8493929190611985565b60405180910390a25050505050565b60045481565b60015481565b60038181548110610dae575f80fd5b905f5260205f20015f915054906101000a900473ffffffffffffffffffffffffffffffffffffffff1681565b69d3c21bcecceda100000081565b60055f9054906101000a900473ffffffffffffffffffffffffffffffffffffffff1681565b6002602052805f5260405f205f91509050805f015490806001015490806002015490806003015f9054906101000a900460ff1690806004018054610e5090611673565b80601f0160208091040260200160405190810160405280929190818152602001828054610e7c90611673565b8015610ec75780601f10610e9e57610100808354040283529160200191610ec7565b820191905f5260205f20905b815481529060010190602001808311610eaa57829003601f168201915b505050505090806005018054610edc90611673565b80601f0160208091040260200160405190810160405280929190818152602001828054610f0890611673565b8015610f535780601f10610f2a57610100808354040283529160200191610f53565b820191905f5260205f20905b815481529060010190602001808311610f3657829003601f168201915b5050505050905086565b5f819050919050565b610f6f81610f5d565b82525050565b5f602082019050610f885f830184610f66565b92915050565b5f73ffffffffffffffffffffffffffffffffffffffff82169050919050565b5f819050919050565b5f610fd0610fcb610fc684610f8e565b610fad565b610f8e565b9050919050565b5f610fe182610fb6565b9050919050565b5f610ff282610fd7565b9050919050565b61100281610fe8565b82525050565b5f60208201905061101b5f830184610ff9565b92915050565b5f5ffd5b5f5ffd5b61103281610f5d565b811461103c575f5ffd5b50565b5f8135905061104d81611029565b92915050565b5f6020828403121561106857611067611021565b5b5f6110758482850161103f565b91505092915050565b5f5ffd5b5f5ffd5b5f5ffd5b5f5f83601f84011261109f5761109e61107e565b5b8235905067ffffffffffffffff8111156110bc576110bb611082565b5b6020830191508360018202830111156110d8576110d7611086565b5b9250929050565b5f5f5f5f5f606086880312156110f8576110f7611021565b5b5f6111058882890161103f565b955050602086013567ffffffffffffffff81111561112657611125611025565b5b6111328882890161108a565b9450945050604086013567ffffffffffffffff81111561115557611154611025565b5b6111618882890161108a565b92509250509295509295909350565b5f61117a82610f8e565b9050919050565b61118a81611170565b8114611194575f5ffd5b50565b5f813590506111a581611181565b92915050565b5f602082840312156111c0576111bf611021565b5b5f6111cd84828501611197565b91505092915050565b5f5f5f604084860312156111ed576111ec611021565b5b5f6111fa86828701611197565b935050602084013567ffffffffffffffff81111561121b5761121a611025565b5b6112278682870161108a565b92509250509250925092565b61123c81611170565b82525050565b5f6020820190506112555f830184611233565b92915050565b5f8115159050919050565b61126f8161125b565b82525050565b5f81519050919050565b5f82825260208201905092915050565b8281835e5f83830152505050565b5f601f19601f8301169050919050565b5f6112b782611275565b6112c1818561127f565b93506112d181856020860161128f565b6112da8161129d565b840191505092915050565b5f60c0820190506112f85f830189610f66565b6113056020830188610f66565b6113126040830187610f66565b61131f6060830186611266565b818103608083015261133181856112ad565b905081810360a083015261134581846112ad565b9050979650505050505050565b7f4e487b71000000000000000000000000000000000000000000000000000000005f52603260045260245ffd5b7f4e487b71000000000000000000000000000000000000000000000000000000005f52601160045260245ffd5b5f6113b682610f5d565b91507fffffffffffffffffffffffffffffffffffffffffffffffffffffffffffffffff82036113e8576113e761137f565b5b600182019050919050565b7f4e6f7420612076616c696461746f7200000000000000000000000000000000005f82015250565b5f611427600f8361127f565b9150611432826113f3565b602082019050919050565b5f6020820190508181035f8301526114548161141b565b9050919050565b7f496e73756666696369656e74207374616b6500000000000000000000000000005f82015250565b5f61148f60128361127f565b915061149a8261145b565b602082019050919050565b5f6020820190508181035f8301526114bc81611483565b9050919050565b5f6114cd82610f5d565b91506114d883610f5d565b92508282039050818111156114f0576114ef61137f565b5b92915050565b5f6040820190506115095f830185611233565b6115166020830184610f66565b9392505050565b6115268161125b565b8114611530575f5ffd5b50565b5f815190506115418161151d565b92915050565b5f6020828403121561155c5761155b611021565b5b5f61156984828501611533565b91505092915050565b7f42656c6f77206d696e696d756d207374616b65000000000000000000000000005f82015250565b5f6115a660138361127f565b91506115b182611572565b602082019050919050565b5f6020820190508181035f8301526115d38161159a565b9050919050565b5f6060820190506115ed5f830186611233565b6115fa6020830185611233565b6116076040830184610f66565b949350505050565b5f82905092915050565b7f4e487b71000000000000000000000000000000000000000000000000000000005f52604160045260245ffd5b7f4e487b71000000000000000000000000000000000000000000000000000000005f52602260045260245ffd5b5f600282049050600182168061168a57607f821691505b60208210810361169d5761169c611646565b5b50919050565b5f819050815f5260205f209050919050565b5f6020601f8301049050919050565b5f82821b905092915050565b5f600883026116ff7fffffffffffffffffffffffffffffffffffffffffffffffffffffffffffffffff826116c4565b61170986836116c4565b95508019841693508086168417925050509392505050565b5f61173b61173661173184610f5d565b610fad565b610f5d565b9050919050565b5f819050919050565b61175483611721565b61176861176082611742565b8484546116d0565b825550505050565b5f5f905090565b61177f611770565b61178a81848461174b565b505050565b5f5b828110156117b0576117a55f828401611777565b600181019050611791565b505050565b601f8211156118035782821115611802576117cf816116a3565b6117d8836116b5565b6117e1856116b5565b60208610156117ee575f90505b8083016117fd8284038261178f565b505050505b5b505050565b5f82821c905092915050565b5f6118235f1984600802611808565b1980831691505092915050565b5f61183b8383611814565b9150826002028217905092915050565b611855838361160f565b67ffffffffffffffff81111561186e5761186d611619565b5b6118788254611673565b6118838282856117b5565b5f601f8311600181146118b0575f841561189e578287013590505b6118a88582611830565b86555061190f565b601f1984166118be866116a3565b5f5b828110156118e5578489013582556001820191506020850194506020810190506118c0565b8683101561190257848901356118fe601f891682611814565b8355505b6001600288020188555050505b50505050505050565b5f61192282610f5d565b915061192d83610f5d565b92508282019050808211156119455761194461137f565b5b92915050565b828183375f83830152505050565b5f611964838561127f565b935061197183858461194b565b61197a8361129d565b840190509392505050565b5f6040820190506119985f830186610f66565b81810360208301526119ab818486611959565b9050949350505050565b5f6119bf82610f5d565b91506119ca83610f5d565b92508282026119d881610f5d565b915082820484148315176119ef576119ee61137f565b5b5092915050565b7f4e487b71000000000000000000000000000000000000000000000000000000005f52601260045260245ffd5b5f611a2d82610f5d565b9150611a3883610f5d565b925082611a4857611a476119f6565b5b828204905092915050565b7f4e6f2072657761726473000000000000000000000000000000000000000000005f82015250565b5f611a87600a8361127f565b9150611a9282611a53565b602082019050919050565b5f6020820190508181035f830152611ab481611a7b565b9050919050565b7f4e6f742061646d696e00000000000000000000000000000000000000000000005f82015250565b5f611aef60098361127f565b9150611afa82611abb565b602082019050919050565b5f6020820190508181035f830152611b1c81611ae3565b9050919050565b7f4e6f74206163746976652076616c696461746f720000000000000000000000005f82015250565b5f611b5760148361127f565b9150611b6282611b23565b602082019050919050565b5f6020820190508181035f830152611b8481611b4b565b905091905056fea264697066735822122004c8a85679594fa299ac68f8443d8c14dcaad619a6f03a9c3cf6b42b25bb65c064736f6c63430008210033","linkReferences":{}},"methodIdentifiers":{"MIN_STAKE()":"cb1c2b5c","activeValidatorCount()":"2340e8d3","admin()":"f851a440","claimRewards()":"372500ab","goodDollar()":"119e5bf3","pendingRewards(address)":"31d7a262","rewardRateBPS()":"17849ba0","slash(address,string)":"402b71dd","slashBPS()":"a660f280","stake(uint256,string,string)":"303b5e1a","totalStaked()":"817b1cd2","unstake(uint256)":"2e17de78","validatorCount()":"0f43a677","validatorList(uint256)":"b048e056","validators(address)":"fa52c7d8"},"id":22}