{"abi":[{"type":"constructor","inputs":[{"name":"_goodDollar","type":"address","internalType":"address"},{"name":"_admin","type":"address","internalType":"address"}],"stateMutability":"nonpayable"},{"type":"function","name":"MIN_STAKE","inputs":[],"outputs":[{"name":"","type":"uint256","internalType":"uint256"}],"stateMutability":"view"},{"type":"function","name":"activeValidatorCount","inputs":[],"outputs":[{"name":"","type":"uint256","internalType":"uint256"}],"stateMutability":"view"},{"type":"function","name":"admin","inputs":[],"outputs":[{"name":"","type":"address","internalType":"address"}],"stateMutability":"view"},{"type":"function","name":"goodDollar","inputs":[],"outputs":[{"name":"","type":"address","internalType":"contract IGoodDollarToken"}],"stateMutability":"view"},{"type":"function","name":"pendingRewards","inputs":[{"name":"validator","type":"address","internalType":"address"}],"outputs":[{"name":"","type":"uint256","internalType":"uint256"}],"stateMutability":"view"},{"type":"function","name":"rewardRateBPS","inputs":[],"outputs":[{"name":"","type":"uint256","internalType":"uint256"}],"stateMutability":"view"},{"type":"function","name":"slash","inputs":[{"name":"validator","type":"address","internalType":"address"},{"name":"reason","type":"string","internalType":"string"}],"outputs":[],"stateMutability":"nonpayable"},{"type":"function","name":"slashBPS","inputs":[],"outputs":[{"name":"","type":"uint256","internalType":"uint256"}],"stateMutability":"view"},{"type":"function","name":"stake","inputs":[{"name":"amount","type":"uint256","internalType":"uint256"},{"name":"name","type":"string","internalType":"string"},{"name":"endpoint","type":"string","internalType":"string"}],"outputs":[],"stateMutability":"nonpayable"},{"type":"function","name":"totalStaked","inputs":[],"outputs":[{"name":"","type":"uint256","internalType":"uint256"}],"stateMutability":"view"},{"type":"function","name":"unstake","inputs":[{"name":"amount","type":"uint256","internalType":"uint256"}],"outputs":[],"stateMutability":"nonpayable"},{"type":"function","name":"validatorCount","inputs":[],"outputs":[{"name":"","type":"uint256","internalType":"uint256"}],"stateMutability":"view"},{"type":"function","name":"validatorList","inputs":[{"name":"","type":"uint256","internalType":"uint256"}],"outputs":[{"name":"","type":"address","internalType":"address"}],"stateMutability":"view"},{"type":"function","name":"validators","inputs":[{"name":"","type":"address","internalType":"address"}],"outputs":[{"name":"staked","type":"uint256","internalType":"uint256"},{"name":"rewardDebt","type":"uint256","internalType":"uint256"},{"name":"lastStakeTime","type":"uint256","internalType":"uint256"},{"name":"isActive","type":"bool","internalType":"bool"},{"name":"name","type":"string","internalType":"string"},{"name":"endpoint","type":"string","internalType":"string"}],"stateMutability":"view"},{"type":"event","name":"RewardsClaimed","inputs":[{"name":"validator","type":"address","indexed":true,"internalType":"address"},{"name":"amount","type":"uint256","indexed":false,"internalType":"uint256"}],"anonymous":false},{"type":"event","name":"ValidatorSlashed","inputs":[{"name":"validator","type":"address","indexed":true,"internalType":"address"},{"name":"amount","type":"uint256","indexed":false,"internalType":"uint256"},{"name":"reason","type":"string","indexed":false,"internalType":"string"}],"anonymous":false},{"type":"event","name":"ValidatorStaked","inputs":[{"name":"validator","type":"address","indexed":true,"internalType":"address"},{"name":"amount","type":"uint256","indexed":false,"internalType":"uint256"},{"name":"name","type":"string","indexed":false,"internalType":"string"}],"anonymous":false},{"type":"event","name":"ValidatorUnstaked","inputs":[{"name":"validator","type":"address","indexed":true,"internalType":"address"},{"name":"amount","type":"uint256","indexed":false,"internalType":"uint256"}],"anonymous":false}],"bytecode":{"object":"0x60a06040526101f45f556103e860015534801561001a575f5ffd5b50604051611b2c380380611b2c833981810160405281019061003c9190610115565b8173ffffffffffffffffffffffffffffffffffffffff1660808173ffffffffffffffffffffffffffffffffffffffff16815250508060055f6101000a81548173ffffffffffffffffffffffffffffffffffffffff021916908373ffffffffffffffffffffffffffffffffffffffff1602179055505050610153565b5f5ffd5b5f73ffffffffffffffffffffffffffffffffffffffff82169050919050565b5f6100e4826100bb565b9050919050565b6100f4816100da565b81146100fe575f5ffd5b50565b5f8151905061010f816100eb565b92915050565b5f5f6040838503121561012b5761012a6100b7565b5b5f61013885828601610101565b925050602061014985828601610101565b9150509250929050565b6080516119a56101875f395f81816102d3015281816104fc0152818161063701528181610a9b0152610ad701526119a55ff3fe608060405234801561000f575f5ffd5b50600436106100e8575f3560e01c8063402b71dd1161008a578063b048e05611610064578063b048e05614610224578063cb1c2b5c14610254578063f851a44014610272578063fa52c7d814610290576100e8565b8063402b71dd146101cc578063817b1cd2146101e8578063a660f28014610206576100e8565b80632340e8d3116100c65780632340e8d3146101465780632e17de7814610164578063303b5e1a1461018057806331d7a2621461019c576100e8565b80630f43a677146100ec578063119e5bf31461010a57806317849ba014610128575b5f5ffd5b6100f46102c5565b6040516101019190610dc1565b60405180910390f35b6101126102d1565b60405161011f9190610e54565b60405180910390f35b6101306102f5565b60405161013d9190610dc1565b60405180910390f35b61014e6102fa565b60405161015b9190610dc1565b60405180910390f35b61017e60048036038101906101799190610e9f565b6103c2565b005b61019a60048036038101906101959190610f2b565b6105e8565b005b6101b660048036038101906101b19190610ff7565b610861565b6040516101c39190610dc1565b60405180910390f35b6101e660048036038101906101e19190611022565b610928565b005b6101f0610bdf565b6040516101fd9190610dc1565b60405180910390f35b61020e610be5565b60405161021b9190610dc1565b60405180910390f35b61023e60048036038101906102399190610e9f565b610beb565b60405161024b919061108e565b60405180910390f35b61025c610c26565b6040516102699190610dc1565b60405180910390f35b61027a610c34565b604051610287919061108e565b60405180910390f35b6102aa60048036038101906102a59190610ff7565b610c59565b6040516102bc96959493929190611131565b60405180910390f35b5f600380549050905090565b7f000000000000000000000000000000000000000000000000000000000000000081565b5f5481565b5f5f5f90505f5f90505b6003805490508110156103ba5760025f600383815481106103285761032761119e565b5b905f5260205f20015f9054906101000a900473ffffffffffffffffffffffffffffffffffffffff1673ffffffffffffffffffffffffffffffffffffffff1673ffffffffffffffffffffffffffffffffffffffff1681526020019081526020015f206003015f9054906101000a900460ff16156103ad5781806103a9906111f8565b9250505b8080600101915050610304565b508091505090565b5f60025f3373ffffffffffffffffffffffffffffffffffffffff1673ffffffffffffffffffffffffffffffffffffffff1681526020019081526020015f209050806003015f9054906101000a900460ff16610452576040517f08c379a000000000000000000000000000000000000000000000000000000000815260040161044990611289565b60405180910390fd5b81815f01541015610498576040517f08c379a000000000000000000000000000000000000000000000000000000000815260040161048f906112f1565b60405180910390fd5b81815f015f8282546104aa919061130f565b925050819055508160045f8282546104c2919061130f565b9250508190555069d3c21bcecceda1000000815f015410156104fa575f816003015f6101000a81548160ff0219169083151502179055505b7f000000000000000000000000000000000000000000000000000000000000000073ffffffffffffffffffffffffffffffffffffffff1663a9059cbb33846040518363ffffffff1660e01b8152600401610555929190611342565b6020604051808303815f875af1158015610571573d5f5f3e3d5ffd5b505050506040513d601f19601f820116820180604052508101906105959190611393565b503373ffffffffffffffffffffffffffffffffffffffff167f0e9a2d5c9c9e68a955bcad9f9d834d70fba138442adf13dec6d6588838197a59836040516105dc9190610dc1565b60405180910390a25050565b69d3c21bcecceda1000000851015610635576040517f08c379a000000000000000000000000000000000000000000000000000000000815260040161062c90611408565b60405180910390fd5b7f000000000000000000000000000000000000000000000000000000000000000073ffffffffffffffffffffffffffffffffffffffff166323b872dd3330886040518463ffffffff1660e01b815260040161069293929190611426565b6020604051808303815f875af11580156106ae573d5f5f3e3d5ffd5b505050506040513d601f19601f820116820180604052508101906106d29190611393565b505f60025f3373ffffffffffffffffffffffffffffffffffffffff1673ffffffffffffffffffffffffffffffffffffffff1681526020019081526020015f209050806003015f9054906101000a900460ff166107d6576001816003015f6101000a81548160ff0219169083151502179055508484826004019182610757929190611697565b50828282600501918261076b929190611697565b50428160020181905550600333908060018154018082558091505060019003905f5260205f20015f9091909190916101000a81548173ffffffffffffffffffffffffffffffffffffffff021916908373ffffffffffffffffffffffffffffffffffffffff1602179055505b85815f015f8282546107e89190611764565b925050819055508560045f8282546108009190611764565b925050819055503373ffffffffffffffffffffffffffffffffffffffff167f7821d83aead27bc7cb9935de00fd6c4fbcab50ecb3b31ff099ab33c4033514bb878787604051610851939291906117d1565b60405180910390a2505050505050565b5f5f60025f8473ffffffffffffffffffffffffffffffffffffffff1673ffffffffffffffffffffffffffffffffffffffff1681526020019081526020015f209050806003015f9054906101000a900460ff1615806108c157505f815f0154145b156108cf575f915050610923565b5f8160020154426108e0919061130f565b90505f6127105f54845f01546108f69190611801565b610900919061186f565b90506301e1338082826109139190611801565b61091d919061186f565b93505050505b919050565b60055f9054906101000a900473ffffffffffffffffffffffffffffffffffffffff1673ffffffffffffffffffffffffffffffffffffffff163373ffffffffffffffffffffffffffffffffffffffff16146109b7576040517f08c379a00000000000000000000000000000000000000000000000000000000081526004016109ae906118e9565b60405180910390fd5b5f60025f8573ffffffffffffffffffffffffffffffffffffffff1673ffffffffffffffffffffffffffffffffffffffff1681526020019081526020015f209050806003015f9054906101000a900460ff16610a47576040517f08c379a0000000000000000000000000000000000000000000000000000000008152600401610a3e90611951565b60405180910390fd5b5f612710600154835f0154610a5c9190611801565b610a66919061186f565b905080825f015f828254610a7a919061130f565b925050819055508060045f828254610a92919061130f565b925050819055507f000000000000000000000000000000000000000000000000000000000000000073ffffffffffffffffffffffffffffffffffffffff1663a9059cbb7f0000000000000000000000000000000000000000000000000000000000000000836040518363ffffffff1660e01b8152600401610b14929190611342565b6020604051808303815f875af1158015610b30573d5f5f3e3d5ffd5b505050506040513d601f19601f82011682018060405250810190610b549190611393565b5069d3c21bcecceda1000000825f01541015610b86575f826003015f6101000a81548160ff0219169083151502179055505b8473ffffffffffffffffffffffffffffffffffffffff167f074c8604eab659bccd1619a91a9588244a2442723fdcb05af0aa39da9fc68657828686604051610bd0939291906117d1565b60405180910390a25050505050565b60045481565b60015481565b60038181548110610bfa575f80fd5b905f5260205f20015f915054906101000a900473ffffffffffffffffffffffffffffffffffffffff1681565b69d3c21bcecceda100000081565b60055f9054906101000a900473ffffffffffffffffffffffffffffffffffffffff1681565b6002602052805f5260405f205f91509050805f015490806001015490806002015490806003015f9054906101000a900460ff1690806004018054610c9c906114bf565b80601f0160208091040260200160405190810160405280929190818152602001828054610cc8906114bf565b8015610d135780601f10610cea57610100808354040283529160200191610d13565b820191905f5260205f20905b815481529060010190602001808311610cf657829003601f168201915b505050505090806005018054610d28906114bf565b80601f0160208091040260200160405190810160405280929190818152602001828054610d54906114bf565b8015610d9f5780601f10610d7657610100808354040283529160200191610d9f565b820191905f5260205f20905b815481529060010190602001808311610d8257829003601f168201915b5050505050905086565b5f819050919050565b610dbb81610da9565b82525050565b5f602082019050610dd45f830184610db2565b92915050565b5f73ffffffffffffffffffffffffffffffffffffffff82169050919050565b5f819050919050565b5f610e1c610e17610e1284610dda565b610df9565b610dda565b9050919050565b5f610e2d82610e02565b9050919050565b5f610e3e82610e23565b9050919050565b610e4e81610e34565b82525050565b5f602082019050610e675f830184610e45565b92915050565b5f5ffd5b5f5ffd5b610e7e81610da9565b8114610e88575f5ffd5b50565b5f81359050610e9981610e75565b92915050565b5f60208284031215610eb457610eb3610e6d565b5b5f610ec184828501610e8b565b91505092915050565b5f5ffd5b5f5ffd5b5f5ffd5b5f5f83601f840112610eeb57610eea610eca565b5b8235905067ffffffffffffffff811115610f0857610f07610ece565b5b602083019150836001820283011115610f2457610f23610ed2565b5b9250929050565b5f5f5f5f5f60608688031215610f4457610f43610e6d565b5b5f610f5188828901610e8b565b955050602086013567ffffffffffffffff811115610f7257610f71610e71565b5b610f7e88828901610ed6565b9450945050604086013567ffffffffffffffff811115610fa157610fa0610e71565b5b610fad88828901610ed6565b92509250509295509295909350565b5f610fc682610dda565b9050919050565b610fd681610fbc565b8114610fe0575f5ffd5b50565b5f81359050610ff181610fcd565b92915050565b5f6020828403121561100c5761100b610e6d565b5b5f61101984828501610fe3565b91505092915050565b5f5f5f6040848603121561103957611038610e6d565b5b5f61104686828701610fe3565b935050602084013567ffffffffffffffff81111561106757611066610e71565b5b61107386828701610ed6565b92509250509250925092565b61108881610fbc565b82525050565b5f6020820190506110a15f83018461107f565b92915050565b5f8115159050919050565b6110bb816110a7565b82525050565b5f81519050919050565b5f82825260208201905092915050565b8281835e5f83830152505050565b5f601f19601f8301169050919050565b5f611103826110c1565b61110d81856110cb565b935061111d8185602086016110db565b611126816110e9565b840191505092915050565b5f60c0820190506111445f830189610db2565b6111516020830188610db2565b61115e6040830187610db2565b61116b60608301866110b2565b818103608083015261117d81856110f9565b905081810360a083015261119181846110f9565b9050979650505050505050565b7f4e487b71000000000000000000000000000000000000000000000000000000005f52603260045260245ffd5b7f4e487b71000000000000000000000000000000000000000000000000000000005f52601160045260245ffd5b5f61120282610da9565b91507fffffffffffffffffffffffffffffffffffffffffffffffffffffffffffffffff8203611234576112336111cb565b5b600182019050919050565b7f4e6f7420612076616c696461746f7200000000000000000000000000000000005f82015250565b5f611273600f836110cb565b915061127e8261123f565b602082019050919050565b5f6020820190508181035f8301526112a081611267565b9050919050565b7f496e73756666696369656e74207374616b6500000000000000000000000000005f82015250565b5f6112db6012836110cb565b91506112e6826112a7565b602082019050919050565b5f6020820190508181035f830152611308816112cf565b9050919050565b5f61131982610da9565b915061132483610da9565b925082820390508181111561133c5761133b6111cb565b5b92915050565b5f6040820190506113555f83018561107f565b6113626020830184610db2565b9392505050565b611372816110a7565b811461137c575f5ffd5b50565b5f8151905061138d81611369565b92915050565b5f602082840312156113a8576113a7610e6d565b5b5f6113b58482850161137f565b91505092915050565b7f42656c6f77206d696e696d756d207374616b65000000000000000000000000005f82015250565b5f6113f26013836110cb565b91506113fd826113be565b602082019050919050565b5f6020820190508181035f83015261141f816113e6565b9050919050565b5f6060820190506114395f83018661107f565b611446602083018561107f565b6114536040830184610db2565b949350505050565b5f82905092915050565b7f4e487b71000000000000000000000000000000000000000000000000000000005f52604160045260245ffd5b7f4e487b71000000000000000000000000000000000000000000000000000000005f52602260045260245ffd5b5f60028204905060018216806114d657607f821691505b6020821081036114e9576114e8611492565b5b50919050565b5f819050815f5260205f209050919050565b5f6020601f8301049050919050565b5f82821b905092915050565b5f6008830261154b7fffffffffffffffffffffffffffffffffffffffffffffffffffffffffffffffff82611510565b6115558683611510565b95508019841693508086168417925050509392505050565b5f61158761158261157d84610da9565b610df9565b610da9565b9050919050565b5f819050919050565b6115a08361156d565b6115b46115ac8261158e565b84845461151c565b825550505050565b5f5f905090565b6115cb6115bc565b6115d6818484611597565b505050565b5f5b828110156115fc576115f15f8284016115c3565b6001810190506115dd565b505050565b601f82111561164f578282111561164e5761161b816114ef565b61162483611501565b61162d85611501565b602086101561163a575f90505b808301611649828403826115db565b505050505b5b505050565b5f82821c905092915050565b5f61166f5f1984600802611654565b1980831691505092915050565b5f6116878383611660565b9150826002028217905092915050565b6116a1838361145b565b67ffffffffffffffff8111156116ba576116b9611465565b5b6116c482546114bf565b6116cf828285611601565b5f601f8311600181146116fc575f84156116ea578287013590505b6116f4858261167c565b86555061175b565b601f19841661170a866114ef565b5f5b828110156117315784890135825560018201915060208501945060208101905061170c565b8683101561174e578489013561174a601f891682611660565b8355505b6001600288020188555050505b50505050505050565b5f61176e82610da9565b915061177983610da9565b9250828201905080821115611791576117906111cb565b5b92915050565b828183375f83830152505050565b5f6117b083856110cb565b93506117bd838584611797565b6117c6836110e9565b840190509392505050565b5f6040820190506117e45f830186610db2565b81810360208301526117f78184866117a5565b9050949350505050565b5f61180b82610da9565b915061181683610da9565b925082820261182481610da9565b9150828204841483151761183b5761183a6111cb565b5b5092915050565b7f4e487b71000000000000000000000000000000000000000000000000000000005f52601260045260245ffd5b5f61187982610da9565b915061188483610da9565b92508261189457611893611842565b5b828204905092915050565b7f4e6f742061646d696e00000000000000000000000000000000000000000000005f82015250565b5f6118d36009836110cb565b91506118de8261189f565b602082019050919050565b5f6020820190508181035f830152611900816118c7565b9050919050565b7f4e6f74206163746976652076616c696461746f720000000000000000000000005f82015250565b5f61193b6014836110cb565b915061194682611907565b602082019050919050565b5f6020820190508181035f8301526119688161192f565b905091905056fea2646970667358221220860ca2164d30e0e8c13e4070a9451ee27e6f76744d9a9ed0af487cda6b340a4e64736f6c63430008210033","linkReferences":{}},"methodIdentifiers":{"MIN_STAKE()":"cb1c2b5c","activeValidatorCount()":"2340e8d3","admin()":"f851a440","goodDollar()":"119e5bf3","pendingRewards(address)":"31d7a262","rewardRateBPS()":"17849ba0","slash(address,string)":"402b71dd","slashBPS()":"a660f280","stake(uint256,string,string)":"303b5e1a","totalStaked()":"817b1cd2","unstake(uint256)":"2e17de78","validatorCount()":"0f43a677","validatorList(uint256)":"b048e056","validators(address)":"fa52c7d8"},"id":23}