{"abi":[{"type":"constructor","inputs":[{"name":"_goodDollar","type":"address","internalType":"address"},{"name":"_admin","type":"address","internalType":"address"}],"stateMutability":"nonpayable"},{"type":"function","name":"MIN_STAKE","inputs":[],"outputs":[{"name":"","type":"uint256","internalType":"uint256"}],"stateMutability":"view"},{"type":"function","name":"UNBONDING_PERIOD","inputs":[],"outputs":[{"name":"","type":"uint256","internalType":"uint256"}],"stateMutability":"view"},{"type":"function","name":"activeCount","inputs":[],"outputs":[{"name":"","type":"uint256","internalType":"uint256"}],"stateMutability":"view"},{"type":"function","name":"activeValidatorCount","inputs":[],"outputs":[{"name":"","type":"uint256","internalType":"uint256"}],"stateMutability":"view"},{"type":"function","name":"admin","inputs":[],"outputs":[{"name":"","type":"address","internalType":"address"}],"stateMutability":"view"},{"type":"function","name":"claimRewards","inputs":[],"outputs":[],"stateMutability":"nonpayable"},{"type":"function","name":"completeUnstake","inputs":[],"outputs":[],"stateMutability":"nonpayable"},{"type":"function","name":"getUnbondingRequest","inputs":[{"name":"validator","type":"address","internalType":"address"}],"outputs":[{"name":"amount","type":"uint256","internalType":"uint256"},{"name":"unbondAt","type":"uint256","internalType":"uint256"}],"stateMutability":"view"},{"type":"function","name":"goodDollar","inputs":[],"outputs":[{"name":"","type":"address","internalType":"contract IGoodDollarToken"}],"stateMutability":"view"},{"type":"function","name":"initiateUnstake","inputs":[{"name":"amount","type":"uint256","internalType":"uint256"}],"outputs":[],"stateMutability":"nonpayable"},{"type":"function","name":"pendingRewards","inputs":[{"name":"validator","type":"address","internalType":"address"}],"outputs":[{"name":"","type":"uint256","internalType":"uint256"}],"stateMutability":"view"},{"type":"function","name":"rewardRateBPS","inputs":[],"outputs":[{"name":"","type":"uint256","internalType":"uint256"}],"stateMutability":"view"},{"type":"function","name":"slash","inputs":[{"name":"validator","type":"address","internalType":"address"},{"name":"reason","type":"string","internalType":"string"}],"outputs":[],"stateMutability":"nonpayable"},{"type":"function","name":"slashBPS","inputs":[],"outputs":[{"name":"","type":"uint256","internalType":"uint256"}],"stateMutability":"view"},{"type":"function","name":"stake","inputs":[{"name":"amount","type":"uint256","internalType":"uint256"},{"name":"name","type":"string","internalType":"string"},{"name":"endpoint","type":"string","internalType":"string"}],"outputs":[],"stateMutability":"nonpayable"},{"type":"function","name":"totalStaked","inputs":[],"outputs":[{"name":"","type":"uint256","internalType":"uint256"}],"stateMutability":"view"},{"type":"function","name":"validatorCount","inputs":[],"outputs":[{"name":"","type":"uint256","internalType":"uint256"}],"stateMutability":"view"},{"type":"function","name":"validatorList","inputs":[{"name":"","type":"uint256","internalType":"uint256"}],"outputs":[{"name":"","type":"address","internalType":"address"}],"stateMutability":"view"},{"type":"function","name":"validators","inputs":[{"name":"","type":"address","internalType":"address"}],"outputs":[{"name":"staked","type":"uint256","internalType":"uint256"},{"name":"rewardDebt","type":"uint256","internalType":"uint256"},{"name":"lastStakeTime","type":"uint256","internalType":"uint256"},{"name":"isActive","type":"bool","internalType":"bool"},{"name":"name","type":"string","internalType":"string"},{"name":"endpoint","type":"string","internalType":"string"},{"name":"unbonding","type":"tuple","internalType":"struct ValidatorStaking.UnbondingRequest","components":[{"name":"amount","type":"uint256","internalType":"uint256"},{"name":"unbondAt","type":"uint256","internalType":"uint256"}]}],"stateMutability":"view"},{"type":"event","name":"RewardsClaimed","inputs":[{"name":"validator","type":"address","indexed":true,"internalType":"address"},{"name":"amount","type":"uint256","indexed":false,"internalType":"uint256"}],"anonymous":false},{"type":"event","name":"UnstakeCompleted","inputs":[{"name":"validator","type":"address","indexed":true,"internalType":"address"},{"name":"amount","type":"uint256","indexed":false,"internalType":"uint256"}],"anonymous":false},{"type":"event","name":"UnstakeInitiated","inputs":[{"name":"validator","type":"address","indexed":true,"internalType":"address"},{"name":"amount","type":"uint256","indexed":false,"internalType":"uint256"},{"name":"unbondAt","type":"uint256","indexed":false,"internalType":"uint256"}],"anonymous":false},{"type":"event","name":"ValidatorSlashed","inputs":[{"name":"validator","type":"address","indexed":true,"internalType":"address"},{"name":"amount","type":"uint256","indexed":false,"internalType":"uint256"},{"name":"reason","type":"string","indexed":false,"internalType":"string"}],"anonymous":false},{"type":"event","name":"ValidatorStaked","inputs":[{"name":"validator","type":"address","indexed":true,"internalType":"address"},{"name":"amount","type":"uint256","indexed":false,"internalType":"uint256"},{"name":"name","type":"string","indexed":false,"internalType":"string"}],"anonymous":false},{"type":"error","name":"BelowMinStake","inputs":[]},{"type":"error","name":"InsufficientStake","inputs":[]},{"type":"error","name":"NoUnbondingRequest","inputs":[]},{"type":"error","name":"NotAdmin","inputs":[]},{"type":"error","name":"NotValidator","inputs":[]},{"type":"error","name":"UnbondingAlreadyPending","inputs":[]},{"type":"error","name":"UnbondingNotReady","inputs":[{"name":"readyAt","type":"uint256","internalType":"uint256"},{"name":"currentTime","type":"uint256","internalType":"uint256"}]}],"bytecode":{"object":"0x60a0346100b457601f61123c38819003918201601f19168301916001600160401b038311848410176100b85780849260409485528339810103126100b457610052602061004b836100cc565b92016100cc565b6101f45f556103e86001556001600160a01b03918216608052600680546001600160a01b0319169190921617905560405161115b90816100e182396080518181816104420152818161064601528181610857015281816109fd0152610e3c0152f35b5f80fd5b634e487b7160e01b5f52604160045260245ffd5b51906001600160a01b03821682036100b45756fe6080806040526004361015610012575f80fd5b5f905f3560e01c9081630f43a67714610e6b57508063119e5bf314610e2757806317849ba014610e0b5780632340e8d314610dee578063303b5e1a1461096c57806331d7a26214610941578063372500ab146107ea578063402b71dd1461056a5780634331ed1f1461054c57806343e5e92d146104fc57806363803b23146103d9578063817b1cd2146103bb578063a660f2801461039d578063ae5ac9211461026e578063b048e0561461022a578063cb1c2b5c14610205578063d9a912ec146101e7578063f851a440146101be5763fa52c7d8146100ef575f80fd5b346101bb5760203660031901126101bb576040906001600160a01b03610113610eb3565b168152600260205220805460018201549160028101546101aa60ff60038401541661019c61014360048601610f6b565b61014f60058701610f6b565b9260076040519761015f89610f2d565b6006810154895201549560208801968752604051998a998a5260208a0152604089015215156060880152610100608088015261010087019061100b565b9085820360a087015261100b565b915160c08401525160e08301520390f35b80fd5b50346101bb57806003193601126101bb576006546040516001600160a01b039091168152602090f35b50346101bb57806003193601126101bb57602060405162093a808152f35b50346101bb57806003193601126101bb57602060405169d3c21bcecceda10000008152f35b50346101bb5760203660031901126101bb57600435906003548210156101bb57602061025583610ec9565b905460405160039290921b1c6001600160a01b03168152f35b50346101bb5760203660031901126101bb576004353382526002602052604082206003810160ff8154161561038e5781549183831061037f576006810192835461037057846102bc91611081565b81556102ca84600454611081565b60045562093a8042019283421161035c57908469d3c21bcecceda1000000928560206040516102f881610f2d565b8481520152558360078201555410610340575b5060405191825260208201527f9cee5eacd317086e5050733a5dad16ef5aaec185de792371a9625bfee2a3213b60403392a280f35b60ff198154169055610353600554611119565b6005555f61030b565b634e487b7160e01b86526011600452602486fd5b631698163560e31b8652600486fd5b6378de4a6960e11b8552600485fd5b632ec5b44960e01b8452600484fd5b50346101bb57806003193601126101bb576020600154604051908152f35b50346101bb57806003193601126101bb576020600454604051908152f35b50346101bb57806003193601126101bb573381526002602052604081206006810180549182156104ed576007019081548042106104d7575083905582905560405163a9059cbb60e01b815233600482015260248101829052602081604481866001600160a01b037f0000000000000000000000000000000000000000000000000000000000000000165af180156104cc5761049f575b506040519081527fdf2b996992aeaae3212b8d32b9c3c224196146804bed6814ec28d864b4eb3fc560203392a280f35b6104c09060203d6020116104c5575b6104b88183610f49565b81019061102f565b61046f565b503d6104ae565b6040513d85823e3d90fd5b6315a13ed560e11b855260045242602452604484fd5b63bf5c43fd60e01b8452600484fd5b50346101bb5760203660031901126101bb576040906007826001600160a01b03610524610eb3565b1692838152600260205260068282200154938152600260205220015482519182526020820152f35b50346101bb57806003193601126101bb576020600554604051908152f35b503461071d57604036600319011261071d57610584610eb3565b9060243567ffffffffffffffff811161071d576105a5903690600401610e85565b6006549093906001600160a01b031633036107db576001600160a01b03165f81815260026020526040902060038101805492939260ff1680156107ce575b156107895769d3c21bcecceda10000008254926006810161271061061461060b835488611047565b6001549061108e565b049480861161074c57505061062a848254611081565b815561063884600454611081565b6004555b5410610721575b507f00000000000000000000000000000000000000000000000000000000000000006001600160a01b0316803b1561071d575f80916024604051809481936383adc2ff60e01b83528760048401525af18015610712576106d8575b506106d27f074c8604eab659bccd1619a91a9588244a2442723fdcb05af0aa39da9fc6865793949560405193849384611054565b0390a280f35b7f074c8604eab659bccd1619a91a9588244a2442723fdcb05af0aa39da9fc686579394505f61070691610f49565b6106d25f94935061069e565b6040513d5f823e3d90fd5b5f80fd5b60ff815416610739575b805460ff191690555f610643565b610744600554611119565b60055561072b565b8061076661075d61077a9389611081565b91600454611081565b6004555f8455825480821161078157611081565b905561063c565b905080611081565b60405162461bcd60e51b815260206004820152601760248201527f4e6f7420616374697665206f7220756e626f6e64696e670000000000000000006044820152606490fd5b50600682015415156105e3565b637bfa4b9f60e01b5f5260045ffd5b3461071d575f36600319011261071d57335f52600260205260405f2060ff6003820154161561090a5761081c336110a1565b9081156108d8574260028201555f60019091015560405163a9059cbb60e01b815233600482015260248101829052602081806044810103815f7f00000000000000000000000000000000000000000000000000000000000000006001600160a01b03165af18015610712576108bb575b506040519081527ffc30cddea38e2bf4d6ea7d3f9ed3b6ad7f176419f4963bd81318067a4aee73fe60203392a2005b6108d39060203d6020116104c5576104b88183610f49565b61088c565b60405162461bcd60e51b815260206004820152600a6024820152694e6f207265776172647360b01b6044820152606490fd5b60405162461bcd60e51b815260206004820152600f60248201526e2737ba1030903b30b634b230ba37b960891b6044820152606490fd5b3461071d57602036600319011261071d57602061096461095f610eb3565b6110a1565b604051908152f35b3461071d57606036600319011261071d5760043560243567ffffffffffffffff811161071d576109a0903690600401610e85565b60443567ffffffffffffffff811161071d576109c0903690600401610e85565b69d3c21bcecceda10000008594929410610ddf576040516323b872dd60e01b8152336004820152306024820152604481018690526020816064815f7f00000000000000000000000000000000000000000000000000000000000000006001600160a01b03165af1801561071257610dc2575b50335f52600260205260405f2093600385019160ff835416155f14610d6b576002860192835415610d26575b805460ff191660011790556004860167ffffffffffffffff8611610c5257610a868154610ef5565b601f8111610cd5575b50855f601f8211600114610c71575f91610c66575b508660011b905f198860031b1c19161790555b600586019167ffffffffffffffff8211610c52578190610ad78454610ef5565b601f8111610bf9575b505f90601f8311600114610b92575f92610b87575b50508160011b915f199060031b1c19161790555b429055600554925f198414610b735760017f7821d83aead27bc7cb9935de00fd6c4fbcab50ecb3b31ff099ab33c4033514bb94016005555b610b4c858254611047565b9055610b5a84600454611047565b600455610b6e604051928392339684611054565b0390a2005b634e487b7160e01b5f52601160045260245ffd5b013590508880610af5565b909150601f19831691845f5260205f20925f5b818110610be15750908460019594939210610bc8575b505050811b019055610b09565b01355f19600384901b60f8161c19169055888080610bbb565b91936020600181928787013581550195019201610ba5565b82811115610ae057909150835f5260205f20601f840160051c9060208510610c4a575b849392601f0160051c82900391015f5b828110610c3a575050610ae0565b5f81830155859450600101610c2c565b5f9150610c1c565b634e487b7160e01b5f52604160045260245ffd5b905085013589610aa4565b5f8381526020812092508890601f198216905b818110610cba575010610ca1575b5050600186811b019055610ab7565b8601355f19600389901b60f8161c191690558880610c92565b8984013585556001909401936020938401938b935001610c84565b86811115610a8f57815f5260205f20601f880160051c9060208910610d1e575b81601f9101920160051c03905f5b828110610d11575050610a8f565b5f82820155600101610d03565b5f9150610cf5565b60035468010000000000000000811015610c5257806001610d4a9201600355610ec9565b81546001600160a01b0360039290921b91821b19163390911b179055610a5e565b5050507f7821d83aead27bc7cb9935de00fd6c4fbcab50ecb3b31ff099ab33c4033514bb92610d99336110a1565b80610dab575b50426002820155610b41565b610dba60018301918254611047565b905585610d9f565b610dda9060203d6020116104c5576104b88183610f49565b610a32565b63389f7e1160e01b5f5260045ffd5b3461071d575f36600319011261071d576020600554604051908152f35b3461071d575f36600319011261071d5760205f54604051908152f35b3461071d575f36600319011261071d576040517f00000000000000000000000000000000000000000000000000000000000000006001600160a01b03168152602090f35b3461071d575f36600319011261071d576020906003548152f35b9181601f8401121561071d5782359167ffffffffffffffff831161071d576020838186019501011161071d57565b600435906001600160a01b038216820361071d57565b600354811015610ee15760035f5260205f2001905f90565b634e487b7160e01b5f52603260045260245ffd5b90600182811c92168015610f23575b6020831014610f0f57565b634e487b7160e01b5f52602260045260245ffd5b91607f1691610f04565b6040810190811067ffffffffffffffff821117610c5257604052565b90601f8019910116810190811067ffffffffffffffff821117610c5257604052565b9060405191825f825492610f7e84610ef5565b8084529360018116908115610fe95750600114610fa5575b50610fa392500383610f49565b565b90505f9291925260205f20905f915b818310610fcd575050906020610fa3928201015f610f96565b6020919350806001915483858901015201910190918492610fb4565b905060209250610fa394915060ff191682840152151560051b8201015f610f96565b805180835260209291819084018484015e5f828201840152601f01601f1916010190565b9081602091031261071d5751801515810361071d5790565b91908201809211610b7357565b91926060938192845260406020850152816040850152848401375f828201840152601f01601f1916010190565b91908203918211610b7357565b81810292918115918404141715610b7357565b6001600160a01b03165f908152600260205260409020600381015460ff16158015611110575b61110b57806301e133806111016110e5600261110895015442611081565b60016127106110f786545f549061108e565b049401549361108e565b0490611047565b90565b505f90565b508054156110c7565b8015610b73575f19019056fea26469706673582212209ad648979a57b004b7eb85f8d07afc48ccb5606f6c9e87482a689932344824c164736f6c63430008210033","linkReferences":{}},"methodIdentifiers":{"MIN_STAKE()":"cb1c2b5c","UNBONDING_PERIOD()":"d9a912ec","activeCount()":"4331ed1f","activeValidatorCount()":"2340e8d3","admin()":"f851a440","claimRewards()":"372500ab","completeUnstake()":"63803b23","getUnbondingRequest(address)":"43e5e92d","goodDollar()":"119e5bf3","initiateUnstake(uint256)":"ae5ac921","pendingRewards(address)":"31d7a262","rewardRateBPS()":"17849ba0","slash(address,string)":"402b71dd","slashBPS()":"a660f280","stake(uint256,string,string)":"303b5e1a","totalStaked()":"817b1cd2","validatorCount()":"0f43a677","validatorList(uint256)":"b048e056","validators(address)":"fa52c7d8"},"id":21}