{"abi":[{"type":"constructor","inputs":[{"name":"_oracle","type":"address","internalType":"address"},{"name":"_interestRateModel","type":"address","internalType":"address"},{"name":"_treasury","type":"address","internalType":"address"},{"name":"_admin","type":"address","internalType":"address"}],"stateMutability":"nonpayable"},{"type":"function","name":"FLASH_LOAN_PREMIUM_BPS","inputs":[],"outputs":[{"name":"","type":"uint256","internalType":"uint256"}],"stateMutability":"view"},{"type":"function","name":"admin","inputs":[],"outputs":[{"name":"","type":"address","internalType":"address"}],"stateMutability":"view"},{"type":"function","name":"borrow","inputs":[{"name":"asset","type":"address","internalType":"address"},{"name":"amount","type":"uint256","internalType":"uint256"}],"outputs":[],"stateMutability":"nonpayable"},{"type":"function","name":"flashLoan","inputs":[{"name":"asset","type":"address","internalType":"address"},{"name":"amount","type":"uint256","internalType":"uint256"},{"name":"receiver","type":"address","internalType":"address"},{"name":"params","type":"bytes","internalType":"bytes"}],"outputs":[],"stateMutability":"nonpayable"},{"type":"function","name":"getBorrowIndex","inputs":[{"name":"asset","type":"address","internalType":"address"}],"outputs":[{"name":"","type":"uint256","internalType":"uint256"}],"stateMutability":"view"},{"type":"function","name":"getLiquidityIndex","inputs":[{"name":"asset","type":"address","internalType":"address"}],"outputs":[{"name":"","type":"uint256","internalType":"uint256"}],"stateMutability":"view"},{"type":"function","name":"getReserveData","inputs":[{"name":"asset","type":"address","internalType":"address"}],"outputs":[{"name":"totalDeposits","type":"uint256","internalType":"uint256"},{"name":"totalBorrows","type":"uint256","internalType":"uint256"},{"name":"liquidityIndex","type":"uint256","internalType":"uint256"},{"name":"borrowIndex","type":"uint256","internalType":"uint256"},{"name":"supplyRate","type":"uint256","internalType":"uint256"},{"name":"borrowRate","type":"uint256","internalType":"uint256"},{"name":"accruedToTreasury","type":"uint256","internalType":"uint256"}],"stateMutability":"view"},{"type":"function","name":"getReservesCount","inputs":[],"outputs":[{"name":"","type":"uint256","internalType":"uint256"}],"stateMutability":"view"},{"type":"function","name":"getUserAccountData","inputs":[{"name":"user","type":"address","internalType":"address"}],"outputs":[{"name":"healthFactor","type":"uint256","internalType":"uint256"},{"name":"totalCollateralUSD","type":"uint256","internalType":"uint256"},{"name":"totalDebtUSD","type":"uint256","internalType":"uint256"}],"stateMutability":"view"},{"type":"function","name":"initReserve","inputs":[{"name":"asset","type":"address","internalType":"address"},{"name":"gToken","type":"address","internalType":"address"},{"name":"debtToken","type":"address","internalType":"address"},{"name":"reserveFactorBPS_","type":"uint256","internalType":"uint256"},{"name":"ltvBPS","type":"uint256","internalType":"uint256"},{"name":"liquidationThresholdBPS","type":"uint256","internalType":"uint256"},{"name":"liquidationBonusBPS","type":"uint256","internalType":"uint256"},{"name":"supplyCap","type":"uint256","internalType":"uint256"},{"name":"borrowCap","type":"uint256","internalType":"uint256"},{"name":"assetDecimals","type":"uint8","internalType":"uint8"}],"outputs":[],"stateMutability":"nonpayable"},{"type":"function","name":"interestRateModel","inputs":[],"outputs":[{"name":"","type":"address","internalType":"contract IInterestRateModel"}],"stateMutability":"view"},{"type":"function","name":"liquidate","inputs":[{"name":"collateralAsset","type":"address","internalType":"address"},{"name":"debtAsset","type":"address","internalType":"address"},{"name":"user","type":"address","internalType":"address"},{"name":"debtToCover","type":"uint256","internalType":"uint256"}],"outputs":[],"stateMutability":"nonpayable"},{"type":"function","name":"mintToTreasury","inputs":[{"name":"assets","type":"address[]","internalType":"address[]"}],"outputs":[],"stateMutability":"nonpayable"},{"type":"function","name":"oracle","inputs":[],"outputs":[{"name":"","type":"address","internalType":"contract IPriceOracle"}],"stateMutability":"view"},{"type":"function","name":"repay","inputs":[{"name":"asset","type":"address","internalType":"address"},{"name":"amount","type":"uint256","internalType":"uint256"}],"outputs":[{"name":"","type":"uint256","internalType":"uint256"}],"stateMutability":"nonpayable"},{"type":"function","name":"reserves","inputs":[{"name":"","type":"address","internalType":"address"}],"outputs":[{"name":"gToken","type":"address","internalType":"address"},{"name":"debtToken","type":"address","internalType":"address"},{"name":"reserveFactorBPS","type":"uint256","internalType":"uint256"},{"name":"ltvBPS","type":"uint256","internalType":"uint256"},{"name":"liquidationThresholdBPS","type":"uint256","internalType":"uint256"},{"name":"liquidationBonusBPS","type":"uint256","internalType":"uint256"},{"name":"supplyCap","type":"uint256","internalType":"uint256"},{"name":"borrowCap","type":"uint256","internalType":"uint256"},{"name":"decimals","type":"uint8","internalType":"uint8"},{"name":"isActive","type":"bool","internalType":"bool"},{"name":"borrowingEnabled","type":"bool","internalType":"bool"},{"name":"liquidityIndex","type":"uint256","internalType":"uint256"},{"name":"variableBorrowIndex","type":"uint256","internalType":"uint256"},{"name":"currentBorrowRate","type":"uint256","internalType":"uint256"},{"name":"currentSupplyRate","type":"uint256","internalType":"uint256"},{"name":"lastUpdateTimestamp","type":"uint40","internalType":"uint40"},{"name":"accruedToTreasury","type":"uint256","internalType":"uint256"}],"stateMutability":"view"},{"type":"function","name":"reservesList","inputs":[{"name":"","type":"uint256","internalType":"uint256"}],"outputs":[{"name":"","type":"address","internalType":"address"}],"stateMutability":"view"},{"type":"function","name":"setAdmin","inputs":[{"name":"_admin","type":"address","internalType":"address"}],"outputs":[],"stateMutability":"nonpayable"},{"type":"function","name":"setBorrowingEnabled","inputs":[{"name":"asset","type":"address","internalType":"address"},{"name":"enabled","type":"bool","internalType":"bool"}],"outputs":[],"stateMutability":"nonpayable"},{"type":"function","name":"setOracle","inputs":[{"name":"_oracle","type":"address","internalType":"address"}],"outputs":[],"stateMutability":"nonpayable"},{"type":"function","name":"setReserveActive","inputs":[{"name":"asset","type":"address","internalType":"address"},{"name":"active","type":"bool","internalType":"bool"}],"outputs":[],"stateMutability":"nonpayable"},{"type":"function","name":"setReserveFactor","inputs":[{"name":"asset","type":"address","internalType":"address"},{"name":"newFactorBPS","type":"uint256","internalType":"uint256"}],"outputs":[],"stateMutability":"nonpayable"},{"type":"function","name":"setTreasury","inputs":[{"name":"_treasury","type":"address","internalType":"address"}],"outputs":[],"stateMutability":"nonpayable"},{"type":"function","name":"supply","inputs":[{"name":"asset","type":"address","internalType":"address"},{"name":"amount","type":"uint256","internalType":"uint256"}],"outputs":[],"stateMutability":"nonpayable"},{"type":"function","name":"treasury","inputs":[],"outputs":[{"name":"","type":"address","internalType":"address"}],"stateMutability":"view"},{"type":"function","name":"withdraw","inputs":[{"name":"asset","type":"address","internalType":"address"},{"name":"amount","type":"uint256","internalType":"uint256"}],"outputs":[{"name":"","type":"uint256","internalType":"uint256"}],"stateMutability":"nonpayable"},{"type":"event","name":"Borrow","inputs":[{"name":"asset","type":"address","indexed":true,"internalType":"address"},{"name":"user","type":"address","indexed":true,"internalType":"address"},{"name":"amount","type":"uint256","indexed":false,"internalType":"uint256"}],"anonymous":false},{"type":"event","name":"FlashLoan","inputs":[{"name":"asset","type":"address","indexed":true,"internalType":"address"},{"name":"receiver","type":"address","indexed":true,"internalType":"address"},{"name":"amount","type":"uint256","indexed":false,"internalType":"uint256"},{"name":"premium","type":"uint256","indexed":false,"internalType":"uint256"}],"anonymous":false},{"type":"event","name":"Liquidation","inputs":[{"name":"collateralAsset","type":"address","indexed":true,"internalType":"address"},{"name":"debtAsset","type":"address","indexed":true,"internalType":"address"},{"name":"user","type":"address","indexed":true,"internalType":"address"},{"name":"debtCovered","type":"uint256","indexed":false,"internalType":"uint256"},{"name":"collateralSeized","type":"uint256","indexed":false,"internalType":"uint256"},{"name":"liquidator","type":"address","indexed":false,"internalType":"address"}],"anonymous":false},{"type":"event","name":"Repay","inputs":[{"name":"asset","type":"address","indexed":true,"internalType":"address"},{"name":"user","type":"address","indexed":true,"internalType":"address"},{"name":"amount","type":"uint256","indexed":false,"internalType":"uint256"}],"anonymous":false},{"type":"event","name":"ReserveInitialized","inputs":[{"name":"asset","type":"address","indexed":true,"internalType":"address"},{"name":"gToken","type":"address","indexed":false,"internalType":"address"},{"name":"debtToken","type":"address","indexed":false,"internalType":"address"}],"anonymous":false},{"type":"event","name":"ReserveUpdated","inputs":[{"name":"asset","type":"address","indexed":true,"internalType":"address"},{"name":"liquidityIndex","type":"uint256","indexed":false,"internalType":"uint256"},{"name":"borrowIndex","type":"uint256","indexed":false,"internalType":"uint256"}],"anonymous":false},{"type":"event","name":"Supply","inputs":[{"name":"asset","type":"address","indexed":true,"internalType":"address"},{"name":"user","type":"address","indexed":true,"internalType":"address"},{"name":"amount","type":"uint256","indexed":false,"internalType":"uint256"}],"anonymous":false},{"type":"event","name":"TreasuryMint","inputs":[{"name":"asset","type":"address","indexed":true,"internalType":"address"},{"name":"amount","type":"uint256","indexed":false,"internalType":"uint256"}],"anonymous":false},{"type":"event","name":"Withdraw","inputs":[{"name":"asset","type":"address","indexed":true,"internalType":"address"},{"name":"user","type":"address","indexed":true,"internalType":"address"},{"name":"amount","type":"uint256","indexed":false,"internalType":"uint256"}],"anonymous":false}],"bytecode":{"object":"0x60803460bd57601f61290c38819003918201601f19168301916001600160401b0383118484101760c15780849260809460405283398101031260bd5760428160d5565b90604d6020820160d5565b60616060605b6040850160d5565b930160d5565b600280546001600160a01b03199081166001600160a01b03968716179091556003805482169386169390931790925560048054831693851693909317909255600580549091169190921617905560405161282390816100e98239f35b5f80fd5b634e487b7160e01b5f52604160045260245ffd5b51906001600160a01b038216820360bd5756fe60806040526004361015610011575f80fd5b5f5f3560e01c806322867d7814611bf357806335ea6a7514611b6f5780634b4e675314611ad65780634b8a35291461186d5780634fe7a6e514611829578063558bb3ac1461180d57806361d027b3146117e4578063704b6c021461179557806372218d04146117775780637303b22c146117535780637adbf973146117065780637dc0d1d0146116dd5780639cd1999614611553578063aab3f86814611018578063adf51de114610c69578063b736aaeb14610c14578063bf92857c14610bdd578063cb245e5b14610b80578063d2d2dbce1461077d578063d66bd5241461066b578063d6feb9801461063f578063f0f44260146105f2578063f2b9fdb8146103e5578063f3fdb15a146103bc578063f3fef3a3146101635763f851a44014610138575f80fd5b346101605780600319360112610160576005546040516001600160a01b039091168152602090f35b80fd5b50346101605760403660031901126101605761017d611daa565b906024359061018e60065415611e47565b60016006556001600160a01b03831680825260208290526040822060088082015485916101bf91901c60ff16611e93565b6101c8866121d2565b6009820154906101d982338961278f565b905f19146103b4575b85151590816103a9575b50156103645781546001600160a01b031690813b1561036057604051637a94c56560e11b81523360048201526024810187905260448101919091529084908290606490829084905af180156103555785918591610338575b505090546040516323b872dd60e01b81529160209183918291610276919033906001600160a01b031660048501611f79565b038186865af1801561032d57946102c091602096610302575b506102bb61029c336125bb565b5050676765c793fa10079d601b1b8110908115916102f7575b5061202c565b6123c5565b604051908382527f9b1bfa7fa9ee420a16e124f794c35ac9f90472acc99140eb2f6447c714cad8eb853393a3600655604051908152f35b5f191490505f6102b5565b61032190873d8911610326575b6103198183611f2b565b810190611f61565b61028f565b503d61030f565b6040513d85823e3d90fd5b8192509061034591611f2b565b6103515783835f610244565b8280fd5b6040513d86823e3d90fd5b8480fd5b60405162461bcd60e51b815260206004820152601860248201527f476f6f644c656e64506f6f6c3a2062616420616d6f756e7400000000000000006044820152606490fd5b90508511155f6101ec565b9450846101e2565b50346101605780600319360112610160576003546040516001600160a01b039091168152602090f35b5034610160576040366003190112610160576103ff611daa565b6024359061040f60065415611e47565b600160065560018060a01b038116908184528360205283604081206008810161043e60ff825460081c16611e93565b610449861515611edf565b610452846121d2565b600682015480610573575b505080546040516323b872dd60e01b8152906020908290819061048f908a906001600160a01b03163360048501611f79565b038186895af1801561032d57610556575b508054600990910154906001600160a01b0316803b1561035157604051630ab714fb60e11b815233600482015260248101879052604481019290925282908290606490829084905af1801561054b57610532575b50506104ff906123c5565b6040519182527fd1cf3d156d5f8f0d50f6c122ed609cec09d35c9b9fb3fff6ea0959134dae424e60203393a38060065580f35b8161053c91611f2b565b61054757835f6104f4565b8380fd5b6040513d84823e3d90fd5b61056e9060203d602011610326576103198183611f2b565b6104a0565b61059f9192935061059960ff6105918961058c89612484565b611fe7565b945416612008565b90612019565b106105ad5784905f8061045d565b60405162461bcd60e51b815260206004820152601860248201527f476f6f644c656e64506f6f6c3a20737570706c792063617000000000000000006044820152606490fd5b50346101605760203660031901126101605761060c611daa565b61062160018060a01b03600554163314611f9b565b60018060a01b03166001600160601b0360a01b600454161760045580f35b503461016057602036600319011261016057602061066361065e611daa565b612164565b604051908152f35b5034610160576020366003190112610160576001600160a01b0361068d611daa565b1681528060205260409020600160a01b60019003815416600160a01b6001900360018301541691600281015460038201546004830154600584015460068501546007860154600887015491600988015493600a89015495600b8a015497600c8b015499600d8c015464ffffffffff169b600e01549c6040519e8f91825260208201526040015260608d015260808c015260a08b015260c08a015260e089015260ff81166101008901528060081c60ff16151561012089015260101c60ff1615156101408801526101608701526101808601526101a08501526101c08401526101e083015261020082015261022090f35b50346101605761014036600319011261016057610798611daa565b6107a0611dc0565b906107a9611dd6565b916084359060a43560c435610124359160ff8316809303610b7c576107d960018060a01b03600554163314611f9b565b6001600160a01b0386168852602088905260408820600890810154901c60ff16610b2d57808511610af6576127108210610ac25760405193610220850185811067ffffffffffffffff821117610aae5760405260018060a01b03169687855260018060a01b03169485602086015260643560408601526060850152608084015260a083015260e43560c08301526101043560e083015261010082015260016101208201526001610140820152676765c793fa10079d601b1b610160820152676765c793fa10079d601b1b610180820152846101a0820152846101c082015264ffffffffff42166101e08201528461020082015260018060a01b038316855284602052600e610200604087209260018060a01b0360018060a01b03825116166001600160601b0360a01b85541617845560018060a01b03602082015116600185019060018060a01b03166001600160601b0360a01b82541617905560408101516002850155606081015160038501556080810151600485015560a0810151600585015560c0810151600685015560e081015160078501556109ca6008850160ff6101008401511660ff198254161781556109ac6101208401511515829061ff00825491151560081b169061ff001916179055565b610140830151815462ff0000191690151560101b62ff000016179055565b6101608101516009850155610180810151600a8501556101a0810151600b8501556101c0810151600c85015564ffffffffff6101e08201511664ffffffffff600d8601911664ffffffffff19825416179055015191015560015468010000000000000000811015610a9a5791604091610a6a8460017f1d9fcd0dc935b4778d5af97f55c4d7b2553257382f1ef25c412114c8eeebd88e9601600155611dec565b81546001600160a01b0394851660039290921b82811b95901b19169390931790558251948552602085015292a280f35b634e487b7160e01b85526041600452602485fd5b634e487b7160e01b8a52604160045260248afd5b60405162461bcd60e51b815260206004820152600c60248201526b426f6e7573203c203130302560a01b6044820152606490fd5b60405162461bcd60e51b815260206004820152600f60248201526e131515880f881d1a1c995cda1bdb19608a1b6044820152606490fd5b60405162461bcd60e51b815260206004820152602160248201527f476f6f644c656e64506f6f6c3a20616c726561647920696e697469616c697a656044820152601960fa1b6064820152608490fd5b8780fd5b503461016057610bda610b9236611e18565b90610ba860018060a01b03600554163314611f9b565b6001600160a01b03168352602083905260408320600801805462ff0000191691151560101b62ff000016919091179055565b80f35b5034610160576020366003190112610160576060610c01610bfc611daa565b6125bb565b9060405192835260208301526040820152f35b503461016057610bda610c2636611e18565b90610c3c60018060a01b03600554163314611f9b565b60018060a01b0316835282602052600860408420019061ff00825491151560081b169061ff001916179055565b503461016057608036600319011261016057610c83611daa565b60243590610c8f611dd6565b9160643567ffffffffffffffff811161036057366023820112156103605780600401359367ffffffffffffffff851161101457366024868401011161101457610cda60065415611e47565b600160065560018060a01b03841693848752866020526040872091610d0860ff600885015460081c16611e93565b8415610d148115611edf565b600986029086820460091417156110005783546040516323b872dd60e01b8152612710909204959060209083908190610d5d908b9088906001600160a01b031660048501611f79565b03818d8c5af1908115610ff557602492602092610fda575b5060c48960018060a01b0386169b806040519687958694631b11d0ff60e01b865260048601528d828601528c604486015233606486015260a060848601528260a4860152018484013781810183018e9052601f01601f191681010301818c8c5af1908115610fcf578991610fb0575b5015610f5a5782546020906001600160a01b0316610e028688611fe7565b92610e2160405194859384936323b872dd60e01b855260048501611f79565b03818b8a5af18015610f4f57610f32575b50610e5c6003840491610e458386612082565b92610e55600e8601918254611fe7565b9055612484565b9081151580610f29575b610ea5575b5050507f0d7d75e01ab95780d3cd1c8ec0dd6c2ce19e3a20427eec8bf53283b6fb8e95f09160409182519182526020820152a38060065580f35b676765c793fa10079d601b1b810290808204676765c793fa10079d601b1b1490151715610f155791610f0b6009610f01604096947f0d7d75e01ab95780d3cd1c8ec0dd6c2ce19e3a20427eec8bf53283b6fb8e95f0989661208f565b9201918254611fe7565b9055918193610e6b565b634e487b7160e01b88526011600452602488fd5b50801515610e66565b610f4a9060203d602011610326576103198183611f2b565b610e32565b6040513d8a823e3d90fd5b60405162461bcd60e51b815260206004820152602860248201527f476f6f644c656e64506f6f6c3a20666c617368206c6f616e2063616c6c6261636044820152671ac819985a5b195960c21b6064820152608490fd5b610fc9915060203d602011610326576103198183611f2b565b5f610de4565b6040513d8b823e3d90fd5b610ff090833d8511610326576103198183611f2b565b610d75565b6040513d8c823e3d90fd5b634e487b7160e01b89526011600452602489fd5b8580fd5b503461016057608036600319011261016057611032611daa565b61103a611dc0565b611042611dd6565b6064359161105260065415611e47565b60016006558293611062816121d2565b61106b826121d2565b611074836125bb565b505092676765c793fa10079d601b1b84101561150e5760018060a01b03821693848852876020526040882060018060a01b03851696878a528960205260408a2090600a8201936b0311d253316c79d3760000006110d38654888b612322565b91106115075760011c80915b116114ff575b5088156114ba5760025460405163b3596f0760e01b8152600481018a905291906001600160a01b0316602083602481845afa92831561147a578c93611485575b509160206024936040519485809263b3596f0760e01b82528d60048301525afa92831561147a578c93611442575b5080151580611439575b156113f4578b926111b061271061119f6111948f6111b59661117e91612019565b61118e60ff60088a015416612008565b9061208f565b600589015490612019565b0461059960ff600889015416612008565b61208f565b9360098401916111c78354888a61278f565b8087116113ec575b506111ff60208d8d60018060a01b03855416886040518096819582946323b872dd60e01b84523360048501611f79565b03925af180156113e1576113c4575b50600101549054906001600160a01b0316803b1561054757604051637a94c56560e11b81526001600160a01b0388166004820152602481018d9052604481019290925283908290606490829084905af190811561032d5783916113ab575b505082549054906001600160a01b0316803b1561035157604051637a94c56560e11b81526001600160a01b038716600482015260248101869052604481019290925290919081908390606490829084905af191821561139e578492611381575b505090546040516323b872dd60e01b815291602091839182916112fe919033906001600160a01b031660048501611f79565b03818c8a5af1948515610fcf576102bb606095611342937f1a98026bd2fd57ccb4933487f6d856fe1a60aa4605383cead00860edbe14b9f498611364575b506123c5565b604051968752602087015233604087015260018060a01b031694a48060065580f35b61137c9060203d602011610326576103198183611f2b565b61133c565b8192509061138e91611f2b565b61139a5781895f6112cc565b8880fd5b50604051903d90823e3d90fd5b816113b591611f2b565b6113c057815f61126c565b5080fd5b6113dc9060203d602011610326576103198183611f2b565b61120e565b6040513d87823e3d90fd5b95505f6111cf565b60405162461bcd60e51b815260206004820152601960248201527f476f6f644c656e64506f6f6c3a206f7261636c65206661696c000000000000006044820152606490fd5b5082151561115d565b9092506020813d602011611472575b8161145e60209383611f2b565b8101031261146e5751915f611153565b5f80fd5b3d9150611451565b6040513d8e823e3d90fd5b92506020833d6020116114b2575b816114a060209383611f2b565b8101031261146e579151916020611125565b3d9150611493565b60405162461bcd60e51b815260206004820152601e60248201527f476f6f644c656e64506f6f6c3a207a65726f206c69717569646174696f6e00006044820152606490fd5b98505f6110e5565b80916110df565b60405162461bcd60e51b815260206004820152601e60248201527f476f6f644c656e64506f6f6c3a206e6f74206c6971756964617461626c6500006044820152606490fd5b50346101605760203660031901126101605760043567ffffffffffffffff81116113c057366023820112156113c057806004013567ffffffffffffffff8111610351576024820191602436918360051b01011161035157825b8181106115b7578380f35b6115d26115cd6115c8838587612140565b612150565b6121d2565b6001600160a01b036115e86115c8838587612140565b16845283602052604084209084600e83019283549384611610575b50505060019150016115ac565b82905580546004546009909201546001600160a01b039182169290911690823b156105475760405163b848f5b160e01b81526001600160a01b039290921660048301526024820186905260448201529082908290606490829084905af1801561054b576116c8575b5060019290507f4a9f0bc4fa7e0e0d70aba96482e6e4dadf15298daff23a34b937566acd51b39360206001600160a01b036116b76115c886898b612140565b1692604051908152a2845f80611603565b816116d291611f2b565b61036057845f611678565b50346101605780600319360112610160576002546040516001600160a01b039091168152602090f35b503461016057602036600319011261016057611720611daa565b61173560018060a01b03600554163314611f9b565b60018060a01b03166001600160601b0360a01b600254161760025580f35b5034610160576020366003190112610160576020610663611772611daa565b6120ad565b50346101605780600319360112610160576020600154604051908152f35b5034610160576020366003190112610160576117af611daa565b600554906117c7336001600160a01b03841614611f9b565b6001600160a01b03166001600160a01b0319919091161760055580f35b50346101605780600319360112610160576004546040516001600160a01b039091168152602090f35b5034610160578060031936011261016057602060405160098152f35b5034610160576020366003190112610160576004359060015482101561016057602061185483611dec565b905460405160039290921b1c6001600160a01b03168152f35b503461016057604036600319011261016057611887611daa565b6024359061189760065415611e47565b600160065560018060a01b0381169081845283602052604084209060088201805460ff8160081c169081611ac8575b5015611a83576118d7851515611edf565b6118e0826121d2565b600783015480611a1c575b50506001820154600a83015486916001600160a01b0316803b1561035157604051630ab714fb60e11b815233600482015260248101889052604481019290925290919081908390606490829084905af191821561139e578692611a03575b505091546040516323b872dd60e01b8152926020918491829161197b919033906001600160a01b031660048501611f79565b038188875af19182156113e1576119b3926119e6575b506102bb676765c793fa10079d601b1b6119aa336125bb565b5050101561202c565b6040519182527f312a5e5e1079f5dda4e95dbbd0b908b291fd5b992ef22073643ab691572c5b5260203393a38060065580f35b6119fe9060203d602011610326576103198183611f2b565b611991565b81925090611a1091611f2b565b6103605783855f611949565b611a329061059960ff6105918961058c8861251e565b10611a3e575f806118eb565b60405162461bcd60e51b815260206004820152601860248201527f476f6f644c656e64506f6f6c3a20626f72726f772063617000000000000000006044820152606490fd5b60405162461bcd60e51b815260206004820152601d60248201527f476f6f644c656e64506f6f6c3a20626f72726f772064697361626c65640000006044820152606490fd5b60ff915060101c165f6118c6565b503461016057604036600319011261016057611af0611daa565b60243590611b0960018060a01b03600554163314611f9b565b6127108211611b3d57610bda91611b1f826121d2565b6001600160a01b0382168452602084905260408420600201556123c5565b60405162461bcd60e51b815260206004820152600a6024820152693130b2103330b1ba37b960b11b6044820152606490fd5b50346101605760203660031901126101605760e0906040611b8e611daa565b9160018060a01b03831681528060205220600981015490600a810154600c82015490600e600b84015493015493611bcd611bc787612484565b9661251e565b604051968752602087015260408601526060850152608084015260a083015260c0820152f35b503461146e57604036600319011261146e57611c0d611daa565b60243591611c1d60065415611e47565b6001600655829160018060a01b03811690815f525f60205260405f20611c4c60ff600883015460081c16611e93565b611c55826121d2565b600a810195611c6687543385612322565b905f1914611da2575b611c7a861515611edf565b808611611d9a575b5080546040516323b872dd60e01b81529060209082908190611cb3908a906001600160a01b03163360048501611f79565b03815f885af18015611d7257611d7d575b50600101549454946001600160a01b0316803b1561146e57604051637a94c56560e11b81523360048201526024810186905260448101969096525f908690606490829084905af1948515611d7257602095611d5b575b50611d24906123c5565b604051908382527f05f2eeda0e08e4b437f487c8d7d29b14537d15e3488170dc3de5dbdf8dac4684853393a3600655604051908152f35b611d689193505f90611f2b565b5f91611d24611d1a565b6040513d5f823e3d90fd5b611d959060203d602011610326576103198183611f2b565b611cc4565b94505f611c82565b945084611c6f565b600435906001600160a01b038216820361146e57565b602435906001600160a01b038216820361146e57565b604435906001600160a01b038216820361146e57565b600154811015611e045760015f5260205f2001905f90565b634e487b7160e01b5f52603260045260245ffd5b604090600319011261146e576004356001600160a01b038116810361146e5790602435801515810361146e5790565b15611e4e57565b60405162461bcd60e51b815260206004820152601760248201527f476f6f644c656e64506f6f6c3a207265656e7472616e740000000000000000006044820152606490fd5b15611e9a57565b60405162461bcd60e51b815260206004820152601e60248201527f476f6f644c656e64506f6f6c3a207265736572766520696e61637469766500006044820152606490fd5b15611ee657565b60405162461bcd60e51b815260206004820152601960248201527f476f6f644c656e64506f6f6c3a207a65726f20616d6f756e74000000000000006044820152606490fd5b90601f8019910116810190811067ffffffffffffffff821117611f4d57604052565b634e487b7160e01b5f52604160045260245ffd5b9081602091031261146e5751801515810361146e5790565b6001600160a01b03918216815291166020820152604081019190915260600190565b15611fa257565b60405162461bcd60e51b815260206004820152601760248201527f476f6f644c656e64506f6f6c3a206e6f742061646d696e0000000000000000006044820152606490fd5b91908201809211611ff457565b634e487b7160e01b5f52601160045260245ffd5b60ff16604d8111611ff457600a0a90565b81810292918115918404141715611ff457565b1561203357565b60405162461bcd60e51b815260206004820152602160248201527f476f6f644c656e64506f6f6c3a20756e646572636f6c6c61746572616c697a656044820152601960fa1b6064820152608490fd5b91908203918211611ff457565b8115612099570490565b634e487b7160e01b5f52601260045260245ffd5b60018060a01b03165f525f60205260405f2060ff600882015460081c1615612130576120e464ffffffffff600d8301541642612082565b90811561212757676765c793fa10079d601b1b61211d60096301e1338061211261212496600c870154612019565b049301549283612019565b0490611fe7565b90565b60099150015490565b50676765c793fa10079d601b1b90565b9190811015611e045760051b0190565b356001600160a01b038116810361146e5790565b60018060a01b03165f525f60205260405f2060ff600882015460081c16156121305761219b64ffffffffff600d8301541642612082565b9081156121c957676765c793fa10079d601b1b61211d600a6301e1338061211261212496600b870154612019565b600a9150015490565b60018060a01b03811690815f525f60205260405f209060ff600883015460081c161561231d57600d82019161220f64ffffffffff84541642612082565b928315612316577f6d129bd71f2401cbe77f49f546d7d5f58992faecfca6e51ba06b50b261e833319361224360409461251e565b80612279575b5050805464ffffffffff19164264ffffffffff161790556009810154600a919091015482519182526020820152a2565b816127106122d0676765c793fa10079d601b1b6122c46122ec956301e133806122a78199600b8d0154612019565b0490600a8b016122bd81548661211d8683612019565b9055612019565b04600288015490612019565b046122e0600e8701918254611fe7565b9055600c850154612019565b0461230d6009840191676765c793fa10079d601b1b61211d84549283612019565b90555f80612249565b5050505050565b505050565b6001600160a01b039081165f9081526020818152604091829020600101549151630ed1279f60e11b815293831660048501529183916024918391165afa908115611d72575f91612388575b50676765c793fa10079d601b1b9161238491612019565b0490565b90506020813d6020116123bd575b816123a360209383611f2b565b8101031261146e5751676765c793fa10079d601b1b61236d565b3d9150612396565b6001600160a01b0381165f8181526020819052604090819020919260846123f46123ee83612484565b9261251e565b9460018060a01b0360035416600286015485519788958694635789ca3b60e01b865260048601526024850152604484015260648301525afa918215611d72575f905f93612448575b50600b820155600c0155565b9250506040823d60401161247c575b8161246460409383611f2b565b8101031261146e57815160209092015191600c61243c565b3d9150612457565b60018060a01b03165f525f60205260405f206004602060018060a01b038354166040519283809263b1bf962d60e01b82525afa908115611d72575f916124e1575b50612384906009676765c793fa10079d601b1b93015490612019565b90506020813d602011612516575b816124fc60209383611f2b565b8101031261146e5751676765c793fa10079d601b1b6124c5565b3d91506124ef565b60018060a01b03165f525f60205260405f206004602060018060a01b036001840154166040519283809263b1bf962d60e01b82525afa908115611d72575f9161257e575b5061238490600a676765c793fa10079d601b1b93015490612019565b90506020813d6020116125b3575b8161259960209383611f2b565b8101031261146e5751676765c793fa10079d601b1b612562565b3d915061258c565b6001546002545f92839283926001600160a01b031691835b828110612620575050505081155f146125ec57505f1992565b676765c793fa10079d601b1b810290808204676765c793fa10079d601b1b1490151715611ff4578161261d9161208f565b92565b61262981611dec565b60018060a01b0391549060031b1c16805f525f60205260405f2060088101549160ff8360081c16156127845760405163b3596f0760e01b815260048101829052916020836024818b5afa928315611d72575f93612751575b508215612745576126976009820154878461278f565b806126f0575b50600a01546126ad918690612322565b806126c0575b5050506001905b016125d3565b6126e79261118e60ff6126da6001979c956126e195612019565b9216612008565b90611fe7565b95905f806126b3565b986126ff84889b949394612019565b61270b60ff8716612008565b6127149161208f565b9b8c61271f91611fe7565b9b600484015461272e91612019565b612710900461273c91611fe7565b9891909161269d565b505050506001906126ba565b9092506020813d821161277c575b8161276c60209383611f2b565b8101031261146e5751915f612681565b3d915061275f565b5050506001906126ba565b6001600160a01b039081165f9081526020818152604091829020549151630ed1279f60e11b815293831660048501529183916024918391165afa908115611d72575f916123885750676765c793fa10079d601b1b916123849161201956fea264697066735822122099489a4764400baffcd20a62b7673d0606f7d99ec17b8e042291c78c8fcec0cc64736f6c63430008210033","linkReferences":{}},"methodIdentifiers":{"FLASH_LOAN_PREMIUM_BPS()":"558bb3ac","admin()":"f851a440","borrow(address,uint256)":"4b8a3529","flashLoan(address,uint256,address,bytes)":"adf51de1","getBorrowIndex(address)":"d6feb980","getLiquidityIndex(address)":"7303b22c","getReserveData(address)":"35ea6a75","getReservesCount()":"72218d04","getUserAccountData(address)":"bf92857c","initReserve(address,address,address,uint256,uint256,uint256,uint256,uint256,uint256,uint8)":"d2d2dbce","interestRateModel()":"f3fdb15a","liquidate(address,address,address,uint256)":"aab3f868","mintToTreasury(address[])":"9cd19996","oracle()":"7dc0d1d0","repay(address,uint256)":"22867d78","reserves(address)":"d66bd524","reservesList(uint256)":"4fe7a6e5","setAdmin(address)":"704b6c02","setBorrowingEnabled(address,bool)":"cb245e5b","setOracle(address)":"7adbf973","setReserveActive(address,bool)":"b736aaeb","setReserveFactor(address,uint256)":"4b4e6753","setTreasury(address)":"f0f44260","supply(address,uint256)":"f2b9fdb8","treasury()":"61d027b3","withdraw(address,uint256)":"f3fef3a3"},"id":28}