{"abi":[{"type":"constructor","inputs":[{"name":"_oracle","type":"address","internalType":"address"},{"name":"_interestRateModel","type":"address","internalType":"address"},{"name":"_treasury","type":"address","internalType":"address"},{"name":"_admin","type":"address","internalType":"address"}],"stateMutability":"nonpayable"},{"type":"function","name":"FLASH_LOAN_PREMIUM_BPS","inputs":[],"outputs":[{"name":"","type":"uint256","internalType":"uint256"}],"stateMutability":"view"},{"type":"function","name":"admin","inputs":[],"outputs":[{"name":"","type":"address","internalType":"address"}],"stateMutability":"view"},{"type":"function","name":"borrow","inputs":[{"name":"asset","type":"address","internalType":"address"},{"name":"amount","type":"uint256","internalType":"uint256"}],"outputs":[],"stateMutability":"nonpayable"},{"type":"function","name":"flashLoan","inputs":[{"name":"asset","type":"address","internalType":"address"},{"name":"amount","type":"uint256","internalType":"uint256"},{"name":"receiver","type":"address","internalType":"address"},{"name":"params","type":"bytes","internalType":"bytes"}],"outputs":[],"stateMutability":"nonpayable"},{"type":"function","name":"getBorrowIndex","inputs":[{"name":"asset","type":"address","internalType":"address"}],"outputs":[{"name":"","type":"uint256","internalType":"uint256"}],"stateMutability":"view"},{"type":"function","name":"getLiquidityIndex","inputs":[{"name":"asset","type":"address","internalType":"address"}],"outputs":[{"name":"","type":"uint256","internalType":"uint256"}],"stateMutability":"view"},{"type":"function","name":"getReserveData","inputs":[{"name":"asset","type":"address","internalType":"address"}],"outputs":[{"name":"totalDeposits","type":"uint256","internalType":"uint256"},{"name":"totalBorrows","type":"uint256","internalType":"uint256"},{"name":"liquidityIndex","type":"uint256","internalType":"uint256"},{"name":"borrowIndex","type":"uint256","internalType":"uint256"},{"name":"supplyRate","type":"uint256","internalType":"uint256"},{"name":"borrowRate","type":"uint256","internalType":"uint256"},{"name":"accruedToTreasury","type":"uint256","internalType":"uint256"}],"stateMutability":"view"},{"type":"function","name":"getReservesCount","inputs":[],"outputs":[{"name":"","type":"uint256","internalType":"uint256"}],"stateMutability":"view"},{"type":"function","name":"getUserAccountData","inputs":[{"name":"user","type":"address","internalType":"address"}],"outputs":[{"name":"healthFactor","type":"uint256","internalType":"uint256"},{"name":"totalCollateralUSD","type":"uint256","internalType":"uint256"},{"name":"totalDebtUSD","type":"uint256","internalType":"uint256"}],"stateMutability":"view"},{"type":"function","name":"initReserve","inputs":[{"name":"asset","type":"address","internalType":"address"},{"name":"gToken","type":"address","internalType":"address"},{"name":"debtToken","type":"address","internalType":"address"},{"name":"reserveFactorBPS_","type":"uint256","internalType":"uint256"},{"name":"ltvBPS","type":"uint256","internalType":"uint256"},{"name":"liquidationThresholdBPS","type":"uint256","internalType":"uint256"},{"name":"liquidationBonusBPS","type":"uint256","internalType":"uint256"},{"name":"supplyCap","type":"uint256","internalType":"uint256"},{"name":"borrowCap","type":"uint256","internalType":"uint256"},{"name":"assetDecimals","type":"uint8","internalType":"uint8"}],"outputs":[],"stateMutability":"nonpayable"},{"type":"function","name":"interestRateModel","inputs":[],"outputs":[{"name":"","type":"address","internalType":"contract IInterestRateModel"}],"stateMutability":"view"},{"type":"function","name":"liquidate","inputs":[{"name":"collateralAsset","type":"address","internalType":"address"},{"name":"debtAsset","type":"address","internalType":"address"},{"name":"user","type":"address","internalType":"address"},{"name":"debtToCover","type":"uint256","internalType":"uint256"}],"outputs":[],"stateMutability":"nonpayable"},{"type":"function","name":"mintToTreasury","inputs":[{"name":"assets","type":"address[]","internalType":"address[]"}],"outputs":[],"stateMutability":"nonpayable"},{"type":"function","name":"oracle","inputs":[],"outputs":[{"name":"","type":"address","internalType":"contract IPriceOracle"}],"stateMutability":"view"},{"type":"function","name":"repay","inputs":[{"name":"asset","type":"address","internalType":"address"},{"name":"amount","type":"uint256","internalType":"uint256"}],"outputs":[{"name":"","type":"uint256","internalType":"uint256"}],"stateMutability":"nonpayable"},{"type":"function","name":"reservesList","inputs":[{"name":"","type":"uint256","internalType":"uint256"}],"outputs":[{"name":"","type":"address","internalType":"address"}],"stateMutability":"view"},{"type":"function","name":"setAdmin","inputs":[{"name":"_admin","type":"address","internalType":"address"}],"outputs":[],"stateMutability":"nonpayable"},{"type":"function","name":"setBorrowingEnabled","inputs":[{"name":"asset","type":"address","internalType":"address"},{"name":"enabled","type":"bool","internalType":"bool"}],"outputs":[],"stateMutability":"nonpayable"},{"type":"function","name":"setOracle","inputs":[{"name":"_oracle","type":"address","internalType":"address"}],"outputs":[],"stateMutability":"nonpayable"},{"type":"function","name":"setReserveActive","inputs":[{"name":"asset","type":"address","internalType":"address"},{"name":"active","type":"bool","internalType":"bool"}],"outputs":[],"stateMutability":"nonpayable"},{"type":"function","name":"setReserveFactor","inputs":[{"name":"asset","type":"address","internalType":"address"},{"name":"newFactorBPS","type":"uint256","internalType":"uint256"}],"outputs":[],"stateMutability":"nonpayable"},{"type":"function","name":"setTreasury","inputs":[{"name":"_treasury","type":"address","internalType":"address"}],"outputs":[],"stateMutability":"nonpayable"},{"type":"function","name":"supply","inputs":[{"name":"asset","type":"address","internalType":"address"},{"name":"amount","type":"uint256","internalType":"uint256"}],"outputs":[],"stateMutability":"nonpayable"},{"type":"function","name":"treasury","inputs":[],"outputs":[{"name":"","type":"address","internalType":"address"}],"stateMutability":"view"},{"type":"function","name":"withdraw","inputs":[{"name":"asset","type":"address","internalType":"address"},{"name":"amount","type":"uint256","internalType":"uint256"}],"outputs":[{"name":"","type":"uint256","internalType":"uint256"}],"stateMutability":"nonpayable"},{"type":"event","name":"Borrow","inputs":[{"name":"asset","type":"address","indexed":true,"internalType":"address"},{"name":"user","type":"address","indexed":true,"internalType":"address"},{"name":"amount","type":"uint256","indexed":false,"internalType":"uint256"}],"anonymous":false},{"type":"event","name":"FlashLoan","inputs":[{"name":"asset","type":"address","indexed":true,"internalType":"address"},{"name":"receiver","type":"address","indexed":true,"internalType":"address"},{"name":"amount","type":"uint256","indexed":false,"internalType":"uint256"},{"name":"premium","type":"uint256","indexed":false,"internalType":"uint256"}],"anonymous":false},{"type":"event","name":"Liquidation","inputs":[{"name":"collateralAsset","type":"address","indexed":true,"internalType":"address"},{"name":"debtAsset","type":"address","indexed":true,"internalType":"address"},{"name":"user","type":"address","indexed":true,"internalType":"address"},{"name":"debtCovered","type":"uint256","indexed":false,"internalType":"uint256"},{"name":"collateralSeized","type":"uint256","indexed":false,"internalType":"uint256"},{"name":"liquidator","type":"address","indexed":false,"internalType":"address"}],"anonymous":false},{"type":"event","name":"Repay","inputs":[{"name":"asset","type":"address","indexed":true,"internalType":"address"},{"name":"user","type":"address","indexed":true,"internalType":"address"},{"name":"amount","type":"uint256","indexed":false,"internalType":"uint256"}],"anonymous":false},{"type":"event","name":"ReserveInitialized","inputs":[{"name":"asset","type":"address","indexed":true,"internalType":"address"},{"name":"gToken","type":"address","indexed":false,"internalType":"address"},{"name":"debtToken","type":"address","indexed":false,"internalType":"address"}],"anonymous":false},{"type":"event","name":"ReserveUpdated","inputs":[{"name":"asset","type":"address","indexed":true,"internalType":"address"},{"name":"liquidityIndex","type":"uint256","indexed":false,"internalType":"uint256"},{"name":"borrowIndex","type":"uint256","indexed":false,"internalType":"uint256"}],"anonymous":false},{"type":"event","name":"Supply","inputs":[{"name":"asset","type":"address","indexed":true,"internalType":"address"},{"name":"user","type":"address","indexed":true,"internalType":"address"},{"name":"amount","type":"uint256","indexed":false,"internalType":"uint256"}],"anonymous":false},{"type":"event","name":"TreasuryMint","inputs":[{"name":"asset","type":"address","indexed":true,"internalType":"address"},{"name":"amount","type":"uint256","indexed":false,"internalType":"uint256"}],"anonymous":false},{"type":"event","name":"Withdraw","inputs":[{"name":"asset","type":"address","indexed":true,"internalType":"address"},{"name":"user","type":"address","indexed":true,"internalType":"address"},{"name":"amount","type":"uint256","indexed":false,"internalType":"uint256"}],"anonymous":false},{"type":"error","name":"TransferFailed","inputs":[]}],"bytecode":{"object":"0x60803460bd57601f61290438819003918201601f19168301916001600160401b0383118484101760c15780849260809460405283398101031260bd5760428160d5565b90604d6020820160d5565b60616060605b6040850160d5565b930160d5565b600280546001600160a01b03199081166001600160a01b03968716179091556003805482169386169390931790925560048054831693851693909317909255600580549091169190921617905560405161281b90816100e98239f35b5f80fd5b634e487b7160e01b5f52604160045260245ffd5b51906001600160a01b038216820360bd5756fe60806040526004361015610011575f80fd5b5f5f3560e01c806322867d7814611ba857806335ea6a7514611b245780634b4e675314611a8b5780634b8a3529146118005780634fe7a6e5146117bc578063558bb3ac146117a057806361d027b314611777578063704b6c021461172857806372218d041461170a5780637303b22c146116e65780637adbf973146116995780637dc0d1d0146116705780639cd19996146114e6578063aab3f86814610f5f578063adf51de114610b84578063b736aaeb14610b2f578063bf92857c14610af8578063cb245e5b14610a9b578063d2d2dbce14610698578063d6feb9801461066c578063f0f442601461061f578063f2b9fdb8146103f3578063f3fdb15a146103ca578063f3fef3a3146101585763f851a4401461012d575f80fd5b346101555780600319360112610155576005546040516001600160a01b039091168152602090f35b80fd5b503461015557604036600319011261015557610172611d78565b906024359061018360065415611e15565b60016006556001600160a01b03831680825260208290526040822060088082015485916101b491901c60ff16611e61565b6101bd866121a0565b6009820154906101ce823389612787565b905f19146103c2575b85151590816103b7575b50156103725781546001600160a01b031690813b1561036e57604051637a94c56560e11b81523360048201526024810187905260448101919091529084908290606490829084905af180156103635785918591610346575b505090546040516323b872dd60e01b8152916020918391829161026b919033906001600160a01b031660048501611f47565b038186865af190811561033b57839161030c575b50156102fd576102bb6020946102b661029733612589565b5050676765c793fa10079d601b1b8110908115916102f2575b50611ffa565b612393565b604051908382527f9b1bfa7fa9ee420a16e124f794c35ac9f90472acc99140eb2f6447c714cad8eb853393a3600655604051908152f35b5f191490505f6102b0565b6312171d8360e31b8252600482fd5b61032e915060203d602011610334575b6103268183611ef9565b810190611f2f565b5f61027f565b503d61031c565b6040513d85823e3d90fd5b8192509061035391611ef9565b61035f5783835f610239565b8280fd5b6040513d86823e3d90fd5b8480fd5b60405162461bcd60e51b815260206004820152601860248201527f476f6f644c656e64506f6f6c3a2062616420616d6f756e7400000000000000006044820152606490fd5b90508511155f6101e1565b9450846101d7565b50346101555780600319360112610155576003546040516001600160a01b039091168152602090f35b50346101555760403660031901126101555761040d611d78565b6024359061041d60065415611e15565b600160065560018060a01b0381169081845283602052604084206008810161044b60ff825460081c16611e61565b610456851515611ead565b61045f836121a0565b6006820154806105a5575b505080546040516323b872dd60e01b8152906020908290819061049c9089906001600160a01b03163360048501611f47565b038189885af190811561059a57869161057b575b501561056c57805460099091015485916001600160a01b0316803b1561035f57604051630ab714fb60e11b815233600482015260248101879052604481019290925282908290606490829084905af1801561056157610548575b505061051590612393565b6040519182527fd1cf3d156d5f8f0d50f6c122ed609cec09d35c9b9fb3fff6ea0959134dae424e60203393a38060065580f35b8161055291611ef9565b61055d57835f61050a565b8380fd5b6040513d84823e3d90fd5b6312171d8360e31b8552600485fd5b610594915060203d602011610334576103268183611ef9565b5f6104b0565b6040513d88823e3d90fd5b6105ce906105c860ff6105c0896105bb89612452565b611fb5565b945416611fd6565b90611fe7565b106105da575f8061046a565b60405162461bcd60e51b815260206004820152601860248201527f476f6f644c656e64506f6f6c3a20737570706c792063617000000000000000006044820152606490fd5b503461015557602036600319011261015557610639611d78565b61064e60018060a01b03600554163314611f69565b60018060a01b03166001600160601b0360a01b600454161760045580f35b503461015557602036600319011261015557602061069061068b611d78565b612132565b604051908152f35b503461015557610140366003190112610155576106b3611d78565b6106bb611d8e565b906106c4611da4565b916084359060a43560c435610124359160ff8316809303610a97576106f460018060a01b03600554163314611f69565b6001600160a01b0386168852602088905260408820600890810154901c60ff16610a4857808511610a115761271082106109dd5760405193610220850185811067ffffffffffffffff8211176109c95760405260018060a01b03169687855260018060a01b03169485602086015260643560408601526060850152608084015260a083015260e43560c08301526101043560e083015261010082015260016101208201526001610140820152676765c793fa10079d601b1b610160820152676765c793fa10079d601b1b610180820152846101a0820152846101c082015264ffffffffff42166101e08201528461020082015260018060a01b038316855284602052600e610200604087209260018060a01b0360018060a01b03825116166001600160601b0360a01b85541617845560018060a01b03602082015116600185019060018060a01b03166001600160601b0360a01b82541617905560408101516002850155606081015160038501556080810151600485015560a0810151600585015560c0810151600685015560e081015160078501556108e56008850160ff6101008401511660ff198254161781556108c76101208401511515829061ff00825491151560081b169061ff001916179055565b610140830151815462ff0000191690151560101b62ff000016179055565b6101608101516009850155610180810151600a8501556101a0810151600b8501556101c0810151600c85015564ffffffffff6101e08201511664ffffffffff600d8601911664ffffffffff198254161790550151910155600154680100000000000000008110156109b557916040916109858460017f1d9fcd0dc935b4778d5af97f55c4d7b2553257382f1ef25c412114c8eeebd88e9601600155611dba565b81546001600160a01b0394851660039290921b82811b95901b19169390931790558251948552602085015292a280f35b634e487b7160e01b85526041600452602485fd5b634e487b7160e01b8a52604160045260248afd5b60405162461bcd60e51b815260206004820152600c60248201526b426f6e7573203c203130302560a01b6044820152606490fd5b60405162461bcd60e51b815260206004820152600f60248201526e131515880f881d1a1c995cda1bdb19608a1b6044820152606490fd5b60405162461bcd60e51b815260206004820152602160248201527f476f6f644c656e64506f6f6c3a20616c726561647920696e697469616c697a656044820152601960fa1b6064820152608490fd5b8780fd5b503461015557610af5610aad36611de6565b90610ac360018060a01b03600554163314611f69565b6001600160a01b03168352602083905260408320600801805462ff0000191691151560101b62ff000016919091179055565b80f35b5034610155576020366003190112610155576060610b1c610b17611d78565b612589565b9060405192835260208301526040820152f35b503461015557610af5610b4136611de6565b90610b5760018060a01b03600554163314611f69565b60018060a01b0316835282602052600860408420019061ff00825491151560081b169061ff001916179055565b503461015557608036600319011261015557610b9e611d78565b60243590610baa611da4565b9160643567ffffffffffffffff811161036e573660238201121561036e5780600401359367ffffffffffffffff8511610f5b573660248684010111610f5b57610bf560065415611e15565b600160065560018060a01b03841693848752866020526040872091610c2360ff600885015460081c16611e61565b8415610c2f8115611ead565b60098602908682046009141715610f47576127109004938560208360018060a01b03875416610c7260405194859384936323b872dd60e01b855260048501611f47565b03818d8c5af1908115610f3c578a91610f1d575b5015610f0e57602060249160c48960018060a01b0386169b806040519687958694631b11d0ff60e01b865260048601528d828601528c604486015233606486015260a060848601528260a4860152018484013781810183018e9052601f01601f191681010301818c8c5af1908115610f03578991610ee4575b5015610e8e5782546020906001600160a01b0316610d1d8688611fb5565b92610d3c60405194859384936323b872dd60e01b855260048501611f47565b03818b8a5af1908115610e83578891610e64575b5015610e5557610d7f6003840491610d688386612050565b92610d78600e8601918254611fb5565b9055612452565b9081151580610e4c575b610dc8575b5050507f0d7d75e01ab95780d3cd1c8ec0dd6c2ce19e3a20427eec8bf53283b6fb8e95f09160409182519182526020820152a38060065580f35b676765c793fa10079d601b1b810290808204676765c793fa10079d601b1b1490151715610e385791610e2e6009610e24604096947f0d7d75e01ab95780d3cd1c8ec0dd6c2ce19e3a20427eec8bf53283b6fb8e95f0989661205d565b9201918254611fb5565b9055918193610d8e565b634e487b7160e01b88526011600452602488fd5b50801515610d89565b6312171d8360e31b8752600487fd5b610e7d915060203d602011610334576103268183611ef9565b5f610d50565b6040513d8a823e3d90fd5b60405162461bcd60e51b815260206004820152602860248201527f476f6f644c656e64506f6f6c3a20666c617368206c6f616e2063616c6c6261636044820152671ac819985a5b195960c21b6064820152608490fd5b610efd915060203d602011610334576103268183611ef9565b5f610cff565b6040513d8b823e3d90fd5b6312171d8360e31b8952600489fd5b610f36915060203d602011610334576103268183611ef9565b5f610c86565b6040513d8c823e3d90fd5b634e487b7160e01b89526011600452602489fd5b8580fd5b503461015557608036600319011261015557610f79611d78565b610f81611d8e565b90610f8a611da4565b9060643591610f9b60065415611e15565b60016006558293610fab836121a0565b610fb4816121a0565b610fbd82612589565b505090676765c793fa10079d601b1b8210156114a15760018060a01b03841693848852876020526040882060018060a01b03831696878a528960205260408a2090600a8201956b0311d253316c79d37600000061101c88548a896122f0565b911061149a5760011c80915b11611492575b50881561144d57878a5260208a81526040808c20898d528c8352818d20600254925163b3596f0760e01b8152600481018d9052938e936001600160a01b03169085602481845afa948515610363578495611416575b5060208c60246040518094819363b3596f0760e01b835260048301525afa93841561140a57936113d2575b50831515806113c9575b15611384576105c860ff60088f6110fe6110f3611108976110ed86866110e461110d9e61271098611fe7565b93015416611fd6565b9061205d565b600587015490611fe7565b0493015416611fd6565b61205d565b9460098301918a8a8d61112286548c8a612787565b808b1161137b575b5083546040516323b872dd60e01b815293602093859390928492839161115e91906001600160a01b03163360048501611f47565b03925af1908115611370578d91611351575b5015611342576001015490548b916001600160a01b0316803b1561035f57604051637a94c56560e11b81526001600160a01b038a166004820152602481018d9052604481019290925282908290606490829084905af1801561056157611329575b5082549154916001600160a01b0316803b1561132557604051637a94c56560e11b81526001600160a01b038916600482015260248101889052604481019390935281908390606490829084905af19182156113185786926112fb575b505090546040516323b872dd60e01b8152916020918391829161125f919033906001600160a01b031660048501611f47565b03818c8a5af1908115610f035789916112dc575b50156112cd57916112ab7f1a98026bd2fd57ccb4933487f6d856fe1a60aa4605383cead00860edbe14b9f494926102b6606095612393565b604051968752602087015233604087015260018060a01b031694a48060065580f35b6312171d8360e31b8852600488fd5b6112f5915060203d602011610334576103268183611ef9565b5f611273565b8192509061130891611ef9565b6113145783895f61122d565b8880fd5b50604051903d90823e3d90fd5b5080fd5b8161133391611ef9565b61133e57895f6111d1565b8980fd5b6312171d8360e31b8c5260048cfd5b61136a915060203d602011610334576103268183611ef9565b5f611170565b6040513d8f823e3d90fd5b9950602061112a565b60405162461bcd60e51b815260206004820152601960248201527f476f6f644c656e64506f6f6c3a206f7261636c65206661696c000000000000006044820152606490fd5b508215156110b8565b9092506020813d602011611402575b816113ee60209383611ef9565b810103126113fe5751915f6110ae565b5f80fd5b3d91506113e1565b604051903d90823e3d90fd5b935093506020833d602011611445575b8161143360209383611ef9565b810103126113fe578d9251935f611083565b3d9150611426565b60405162461bcd60e51b815260206004820152601e60248201527f476f6f644c656e64506f6f6c3a207a65726f206c69717569646174696f6e00006044820152606490fd5b98505f61102e565b8091611028565b60405162461bcd60e51b815260206004820152601e60248201527f476f6f644c656e64506f6f6c3a206e6f74206c6971756964617461626c6500006044820152606490fd5b50346101555760203660031901126101555760043567ffffffffffffffff8111611325573660238201121561132557806004013567ffffffffffffffff811161035f576024820191602436918360051b01011161035f57825b81811061154a578380f35b61156561156061155b83858761210e565b61211e565b6121a0565b6001600160a01b0361157b61155b83858761210e565b16845283602052604084209084600e830192835493846115a3575b505050600191500161153f565b82905580546004546009909201546001600160a01b039182169290911690823b1561055d5760405163b848f5b160e01b81526001600160a01b039290921660048301526024820186905260448201529082908290606490829084905af180156105615761165b575b5060019290507f4a9f0bc4fa7e0e0d70aba96482e6e4dadf15298daff23a34b937566acd51b39360206001600160a01b0361164a61155b86898b61210e565b1692604051908152a2845f80611596565b8161166591611ef9565b61036e57845f61160b565b50346101555780600319360112610155576002546040516001600160a01b039091168152602090f35b5034610155576020366003190112610155576116b3611d78565b6116c860018060a01b03600554163314611f69565b60018060a01b03166001600160601b0360a01b600254161760025580f35b5034610155576020366003190112610155576020610690611705611d78565b61207b565b50346101555780600319360112610155576020600154604051908152f35b503461015557602036600319011261015557611742611d78565b6005549061175a336001600160a01b03841614611f69565b6001600160a01b03166001600160a01b0319919091161760055580f35b50346101555780600319360112610155576004546040516001600160a01b039091168152602090f35b5034610155578060031936011261015557602060405160098152f35b503461015557602036600319011261015557600435906001548210156101555760206117e783611dba565b905460405160039290921b1c6001600160a01b03168152f35b50346101555760403660031901126101555761181a611d78565b6024359061182a60065415611e15565b600160065560018060a01b03811690818452836020526040842060088101805460ff8160081c169081611a7d575b5015611a3857611869851515611ead565b611872836121a0565b6007820154806119d1575b50506001810154600a82015486916001600160a01b0316803b1561035f57604051630ab714fb60e11b815233600482015260248101889052604481019290925290919081908390606490829084905af19182156113185786926119b8575b505090546040516323b872dd60e01b8152916020918391829161190d919033906001600160a01b031660048501611f47565b038188875af19081156119ad57859161198e575b501561197f5761194c906102b6676765c793fa10079d601b1b61194333612589565b50501015611ffa565b6040519182527f312a5e5e1079f5dda4e95dbbd0b908b291fd5b992ef22073643ab691572c5b5260203393a38060065580f35b6312171d8360e31b8452600484fd5b6119a7915060203d602011610334576103268183611ef9565b5f611921565b6040513d87823e3d90fd5b819250906119c591611ef9565b61036e5783855f6118db565b6119e7906105c860ff6105c0896105bb896124ec565b106119f3575f8061187d565b60405162461bcd60e51b815260206004820152601860248201527f476f6f644c656e64506f6f6c3a20626f72726f772063617000000000000000006044820152606490fd5b60405162461bcd60e51b815260206004820152601d60248201527f476f6f644c656e64506f6f6c3a20626f72726f772064697361626c65640000006044820152606490fd5b60ff915060101c165f611858565b503461015557604036600319011261015557611aa5611d78565b60243590611abe60018060a01b03600554163314611f69565b6127108211611af257610af591611ad4826121a0565b6001600160a01b038216845260208490526040842060020155612393565b60405162461bcd60e51b815260206004820152600a6024820152693130b2103330b1ba37b960b11b6044820152606490fd5b50346101555760203660031901126101555760e0906040611b43611d78565b9160018060a01b03831681528060205220600981015490600a810154600c82015490600e600b84015493015493611b82611b7c87612452565b966124ec565b604051968752602087015260408601526060850152608084015260a083015260c0820152f35b50346113fe5760403660031901126113fe57611bc2611d78565b60243591611bd260065415611e15565b6001600655829160018060a01b03811690815f525f60205260405f20611c0160ff600883015460081c16611e61565b611c0a826121a0565b600a810195611c1b875433856122f0565b905f1914611d70575b611c2f861515611ead565b808611611d68575b5080546040516323b872dd60e01b81529060209082908190611c68908a906001600160a01b03163360048501611f47565b03815f885af1908115611d2f575f91611d49575b5015611d3a57600101549454946001600160a01b0316803b156113fe57604051637a94c56560e11b81523360048201526024810186905260448101969096525f908690606490829084905af1948515611d2f57602095611d18575b50611ce190612393565b604051908382527f05f2eeda0e08e4b437f487c8d7d29b14537d15e3488170dc3de5dbdf8dac4684853393a3600655604051908152f35b611d259193505f90611ef9565b5f91611ce1611cd7565b6040513d5f823e3d90fd5b6312171d8360e31b5f5260045ffd5b611d62915060203d602011610334576103268183611ef9565b5f611c7c565b94505f611c37565b945084611c24565b600435906001600160a01b03821682036113fe57565b602435906001600160a01b03821682036113fe57565b604435906001600160a01b03821682036113fe57565b600154811015611dd25760015f5260205f2001905f90565b634e487b7160e01b5f52603260045260245ffd5b60409060031901126113fe576004356001600160a01b03811681036113fe579060243580151581036113fe5790565b15611e1c57565b60405162461bcd60e51b815260206004820152601760248201527f476f6f644c656e64506f6f6c3a207265656e7472616e740000000000000000006044820152606490fd5b15611e6857565b60405162461bcd60e51b815260206004820152601e60248201527f476f6f644c656e64506f6f6c3a207265736572766520696e61637469766500006044820152606490fd5b15611eb457565b60405162461bcd60e51b815260206004820152601960248201527f476f6f644c656e64506f6f6c3a207a65726f20616d6f756e74000000000000006044820152606490fd5b90601f8019910116810190811067ffffffffffffffff821117611f1b57604052565b634e487b7160e01b5f52604160045260245ffd5b908160209103126113fe575180151581036113fe5790565b6001600160a01b03918216815291166020820152604081019190915260600190565b15611f7057565b60405162461bcd60e51b815260206004820152601760248201527f476f6f644c656e64506f6f6c3a206e6f742061646d696e0000000000000000006044820152606490fd5b91908201809211611fc257565b634e487b7160e01b5f52601160045260245ffd5b60ff16604d8111611fc257600a0a90565b81810292918115918404141715611fc257565b1561200157565b60405162461bcd60e51b815260206004820152602160248201527f476f6f644c656e64506f6f6c3a20756e646572636f6c6c61746572616c697a656044820152601960fa1b6064820152608490fd5b91908203918211611fc257565b8115612067570490565b634e487b7160e01b5f52601260045260245ffd5b60018060a01b03165f525f60205260405f2060ff600882015460081c16156120fe576120b264ffffffffff600d8301541642612050565b9081156120f557676765c793fa10079d601b1b6120eb60096301e133806120e06120f296600c870154611fe7565b049301549283611fe7565b0490611fb5565b90565b60099150015490565b50676765c793fa10079d601b1b90565b9190811015611dd25760051b0190565b356001600160a01b03811681036113fe5790565b60018060a01b03165f525f60205260405f2060ff600882015460081c16156120fe5761216964ffffffffff600d8301541642612050565b90811561219757676765c793fa10079d601b1b6120eb600a6301e133806120e06120f296600b870154611fe7565b600a9150015490565b60018060a01b03811690815f525f60205260405f209060ff600883015460081c16156122eb57600d8201916121dd64ffffffffff84541642612050565b9283156122e4577f6d129bd71f2401cbe77f49f546d7d5f58992faecfca6e51ba06b50b261e83331936122116040946124ec565b80612247575b5050805464ffffffffff19164264ffffffffff161790556009810154600a919091015482519182526020820152a2565b8161271061229e676765c793fa10079d601b1b6122926122ba956301e133806122758199600b8d0154611fe7565b0490600a8b0161228b8154866120eb8683611fe7565b9055611fe7565b04600288015490611fe7565b046122ae600e8701918254611fb5565b9055600c850154611fe7565b046122db6009840191676765c793fa10079d601b1b6120eb84549283611fe7565b90555f80612217565b5050505050565b505050565b6001600160a01b039081165f9081526020818152604091829020600101549151630ed1279f60e11b815293831660048501529183916024918391165afa908115611d2f575f91612356575b50676765c793fa10079d601b1b9161235291611fe7565b0490565b90506020813d60201161238b575b8161237160209383611ef9565b810103126113fe5751676765c793fa10079d601b1b61233b565b3d9150612364565b6001600160a01b0381165f8181526020819052604090819020919260846123c26123bc83612452565b926124ec565b9460018060a01b0360035416600286015485519788958694635789ca3b60e01b865260048601526024850152604484015260648301525afa918215611d2f575f905f93612416575b50600b820155600c0155565b9250506040823d60401161244a575b8161243260409383611ef9565b810103126113fe57815160209092015191600c61240a565b3d9150612425565b60018060a01b03165f525f60205260405f206004602060018060a01b038354166040519283809263b1bf962d60e01b82525afa908115611d2f575f916124af575b50612352906009676765c793fa10079d601b1b93015490611fe7565b90506020813d6020116124e4575b816124ca60209383611ef9565b810103126113fe5751676765c793fa10079d601b1b612493565b3d91506124bd565b60018060a01b03165f525f60205260405f206004602060018060a01b036001840154166040519283809263b1bf962d60e01b82525afa908115611d2f575f9161254c575b5061235290600a676765c793fa10079d601b1b93015490611fe7565b90506020813d602011612581575b8161256760209383611ef9565b810103126113fe5751676765c793fa10079d601b1b612530565b3d915061255a565b5f905f905f905f9060015460018060a01b0360025416915b8184106125ee575050505081155f146125ba57505f1992565b676765c793fa10079d601b1b810290808204676765c793fa10079d601b1b1490151715611fc257816125eb9161205d565b92565b9091929394956125fd85611dba565b60018060a01b0391549060031b1c1690815f525f60205260ff600860405f20015460081c161561277b5760405163b3596f0760e01b81526004810183905290602082602481895afa918215611d2f575f92612748575b50811561273a57916126c6916001935f5f905f93855f525f60205260405f209061267c8761207b565b8a6126916126898a612132565b92828b612787565b806126f3575b50906126a7916126c098996122f0565b806126d1575b5050506126ba9192611fb5565b9a611fb5565b97611fb5565b945b019291906125a1565b6126ba945060ff60086110e46126eb95946110ed94611fe7565b915f806126ad565b6126c098506126a792955061271d91508361270d91611fe7565b6110ed60ff600887015416611fd6565b938b612710612730600487015488611fe7565b0498509091612697565b9796959050600191506126c8565b9091506020813d8211612773575b8161276360209383611ef9565b810103126113fe5751905f612653565b3d9150612756565b969594600191506126c8565b6001600160a01b039081165f9081526020818152604091829020549151630ed1279f60e11b815293831660048501529183916024918391165afa908115611d2f575f916123565750676765c793fa10079d601b1b9161235291611fe756fea264697066735822122027ec50851604114e748339bd82a5d5b8c00a6bc740751e7760f1f6e72d4ec13164736f6c63430008210033","linkReferences":{}},"methodIdentifiers":{"FLASH_LOAN_PREMIUM_BPS()":"558bb3ac","admin()":"f851a440","borrow(address,uint256)":"4b8a3529","flashLoan(address,uint256,address,bytes)":"adf51de1","getBorrowIndex(address)":"d6feb980","getLiquidityIndex(address)":"7303b22c","getReserveData(address)":"35ea6a75","getReservesCount()":"72218d04","getUserAccountData(address)":"bf92857c","initReserve(address,address,address,uint256,uint256,uint256,uint256,uint256,uint256,uint8)":"d2d2dbce","interestRateModel()":"f3fdb15a","liquidate(address,address,address,uint256)":"aab3f868","mintToTreasury(address[])":"9cd19996","oracle()":"7dc0d1d0","repay(address,uint256)":"22867d78","reservesList(uint256)":"4fe7a6e5","setAdmin(address)":"704b6c02","setBorrowingEnabled(address,bool)":"cb245e5b","setOracle(address)":"7adbf973","setReserveActive(address,bool)":"b736aaeb","setReserveFactor(address,uint256)":"4b4e6753","setTreasury(address)":"f0f44260","supply(address,uint256)":"f2b9fdb8","treasury()":"61d027b3","withdraw(address,uint256)":"f3fef3a3"},"id":41}