{"abi":[{"type":"constructor","inputs":[{"name":"_oracle","type":"address","internalType":"address"},{"name":"_interestRateModel","type":"address","internalType":"address"},{"name":"_treasury","type":"address","internalType":"address"},{"name":"_admin","type":"address","internalType":"address"}],"stateMutability":"nonpayable"},{"type":"function","name":"FLASH_LOAN_PREMIUM_BPS","inputs":[],"outputs":[{"name":"","type":"uint256","internalType":"uint256"}],"stateMutability":"view"},{"type":"function","name":"admin","inputs":[],"outputs":[{"name":"","type":"address","internalType":"address"}],"stateMutability":"view"},{"type":"function","name":"borrow","inputs":[{"name":"asset","type":"address","internalType":"address"},{"name":"amount","type":"uint256","internalType":"uint256"}],"outputs":[],"stateMutability":"nonpayable"},{"type":"function","name":"flashLoan","inputs":[{"name":"asset","type":"address","internalType":"address"},{"name":"amount","type":"uint256","internalType":"uint256"},{"name":"receiver","type":"address","internalType":"address"},{"name":"params","type":"bytes","internalType":"bytes"}],"outputs":[],"stateMutability":"nonpayable"},{"type":"function","name":"getBorrowIndex","inputs":[{"name":"asset","type":"address","internalType":"address"}],"outputs":[{"name":"","type":"uint256","internalType":"uint256"}],"stateMutability":"view"},{"type":"function","name":"getLiquidityIndex","inputs":[{"name":"asset","type":"address","internalType":"address"}],"outputs":[{"name":"","type":"uint256","internalType":"uint256"}],"stateMutability":"view"},{"type":"function","name":"getReserveData","inputs":[{"name":"asset","type":"address","internalType":"address"}],"outputs":[{"name":"totalDeposits","type":"uint256","internalType":"uint256"},{"name":"totalBorrows","type":"uint256","internalType":"uint256"},{"name":"liquidityIndex","type":"uint256","internalType":"uint256"},{"name":"borrowIndex","type":"uint256","internalType":"uint256"},{"name":"supplyRate","type":"uint256","internalType":"uint256"},{"name":"borrowRate","type":"uint256","internalType":"uint256"},{"name":"accruedToTreasury","type":"uint256","internalType":"uint256"}],"stateMutability":"view"},{"type":"function","name":"getReservesCount","inputs":[],"outputs":[{"name":"","type":"uint256","internalType":"uint256"}],"stateMutability":"view"},{"type":"function","name":"getUserAccountData","inputs":[{"name":"user","type":"address","internalType":"address"}],"outputs":[{"name":"healthFactor","type":"uint256","internalType":"uint256"},{"name":"totalCollateralUSD","type":"uint256","internalType":"uint256"},{"name":"totalDebtUSD","type":"uint256","internalType":"uint256"}],"stateMutability":"view"},{"type":"function","name":"initReserve","inputs":[{"name":"asset","type":"address","internalType":"address"},{"name":"gToken","type":"address","internalType":"address"},{"name":"debtToken","type":"address","internalType":"address"},{"name":"reserveFactorBPS_","type":"uint256","internalType":"uint256"},{"name":"ltvBPS","type":"uint256","internalType":"uint256"},{"name":"liquidationThresholdBPS","type":"uint256","internalType":"uint256"},{"name":"liquidationBonusBPS","type":"uint256","internalType":"uint256"},{"name":"supplyCap","type":"uint256","internalType":"uint256"},{"name":"borrowCap","type":"uint256","internalType":"uint256"},{"name":"assetDecimals","type":"uint8","internalType":"uint8"}],"outputs":[],"stateMutability":"nonpayable"},{"type":"function","name":"interestRateModel","inputs":[],"outputs":[{"name":"","type":"address","internalType":"contract IInterestRateModel"}],"stateMutability":"view"},{"type":"function","name":"liquidate","inputs":[{"name":"collateralAsset","type":"address","internalType":"address"},{"name":"debtAsset","type":"address","internalType":"address"},{"name":"user","type":"address","internalType":"address"},{"name":"debtToCover","type":"uint256","internalType":"uint256"}],"outputs":[],"stateMutability":"nonpayable"},{"type":"function","name":"mintToTreasury","inputs":[{"name":"assets","type":"address[]","internalType":"address[]"}],"outputs":[],"stateMutability":"nonpayable"},{"type":"function","name":"oracle","inputs":[],"outputs":[{"name":"","type":"address","internalType":"contract IPriceOracle"}],"stateMutability":"view"},{"type":"function","name":"repay","inputs":[{"name":"asset","type":"address","internalType":"address"},{"name":"amount","type":"uint256","internalType":"uint256"}],"outputs":[{"name":"","type":"uint256","internalType":"uint256"}],"stateMutability":"nonpayable"},{"type":"function","name":"reserves","inputs":[{"name":"","type":"address","internalType":"address"}],"outputs":[{"name":"gToken","type":"address","internalType":"address"},{"name":"debtToken","type":"address","internalType":"address"},{"name":"reserveFactorBPS","type":"uint256","internalType":"uint256"},{"name":"ltvBPS","type":"uint256","internalType":"uint256"},{"name":"liquidationThresholdBPS","type":"uint256","internalType":"uint256"},{"name":"liquidationBonusBPS","type":"uint256","internalType":"uint256"},{"name":"supplyCap","type":"uint256","internalType":"uint256"},{"name":"borrowCap","type":"uint256","internalType":"uint256"},{"name":"decimals","type":"uint8","internalType":"uint8"},{"name":"isActive","type":"bool","internalType":"bool"},{"name":"borrowingEnabled","type":"bool","internalType":"bool"},{"name":"liquidityIndex","type":"uint256","internalType":"uint256"},{"name":"variableBorrowIndex","type":"uint256","internalType":"uint256"},{"name":"currentBorrowRate","type":"uint256","internalType":"uint256"},{"name":"currentSupplyRate","type":"uint256","internalType":"uint256"},{"name":"lastUpdateTimestamp","type":"uint40","internalType":"uint40"},{"name":"accruedToTreasury","type":"uint256","internalType":"uint256"}],"stateMutability":"view"},{"type":"function","name":"reservesList","inputs":[{"name":"","type":"uint256","internalType":"uint256"}],"outputs":[{"name":"","type":"address","internalType":"address"}],"stateMutability":"view"},{"type":"function","name":"setAdmin","inputs":[{"name":"_admin","type":"address","internalType":"address"}],"outputs":[],"stateMutability":"nonpayable"},{"type":"function","name":"setBorrowingEnabled","inputs":[{"name":"asset","type":"address","internalType":"address"},{"name":"enabled","type":"bool","internalType":"bool"}],"outputs":[],"stateMutability":"nonpayable"},{"type":"function","name":"setOracle","inputs":[{"name":"_oracle","type":"address","internalType":"address"}],"outputs":[],"stateMutability":"nonpayable"},{"type":"function","name":"setReserveActive","inputs":[{"name":"asset","type":"address","internalType":"address"},{"name":"active","type":"bool","internalType":"bool"}],"outputs":[],"stateMutability":"nonpayable"},{"type":"function","name":"setReserveFactor","inputs":[{"name":"asset","type":"address","internalType":"address"},{"name":"newFactorBPS","type":"uint256","internalType":"uint256"}],"outputs":[],"stateMutability":"nonpayable"},{"type":"function","name":"setTreasury","inputs":[{"name":"_treasury","type":"address","internalType":"address"}],"outputs":[],"stateMutability":"nonpayable"},{"type":"function","name":"supply","inputs":[{"name":"asset","type":"address","internalType":"address"},{"name":"amount","type":"uint256","internalType":"uint256"}],"outputs":[],"stateMutability":"nonpayable"},{"type":"function","name":"treasury","inputs":[],"outputs":[{"name":"","type":"address","internalType":"address"}],"stateMutability":"view"},{"type":"function","name":"withdraw","inputs":[{"name":"asset","type":"address","internalType":"address"},{"name":"amount","type":"uint256","internalType":"uint256"}],"outputs":[{"name":"","type":"uint256","internalType":"uint256"}],"stateMutability":"nonpayable"},{"type":"event","name":"Borrow","inputs":[{"name":"asset","type":"address","indexed":true,"internalType":"address"},{"name":"user","type":"address","indexed":true,"internalType":"address"},{"name":"amount","type":"uint256","indexed":false,"internalType":"uint256"}],"anonymous":false},{"type":"event","name":"FlashLoan","inputs":[{"name":"asset","type":"address","indexed":true,"internalType":"address"},{"name":"receiver","type":"address","indexed":true,"internalType":"address"},{"name":"amount","type":"uint256","indexed":false,"internalType":"uint256"},{"name":"premium","type":"uint256","indexed":false,"internalType":"uint256"}],"anonymous":false},{"type":"event","name":"Liquidation","inputs":[{"name":"collateralAsset","type":"address","indexed":true,"internalType":"address"},{"name":"debtAsset","type":"address","indexed":true,"internalType":"address"},{"name":"user","type":"address","indexed":true,"internalType":"address"},{"name":"debtCovered","type":"uint256","indexed":false,"internalType":"uint256"},{"name":"collateralSeized","type":"uint256","indexed":false,"internalType":"uint256"},{"name":"liquidator","type":"address","indexed":false,"internalType":"address"}],"anonymous":false},{"type":"event","name":"Repay","inputs":[{"name":"asset","type":"address","indexed":true,"internalType":"address"},{"name":"user","type":"address","indexed":true,"internalType":"address"},{"name":"amount","type":"uint256","indexed":false,"internalType":"uint256"}],"anonymous":false},{"type":"event","name":"ReserveInitialized","inputs":[{"name":"asset","type":"address","indexed":true,"internalType":"address"},{"name":"gToken","type":"address","indexed":false,"internalType":"address"},{"name":"debtToken","type":"address","indexed":false,"internalType":"address"}],"anonymous":false},{"type":"event","name":"ReserveUpdated","inputs":[{"name":"asset","type":"address","indexed":true,"internalType":"address"},{"name":"liquidityIndex","type":"uint256","indexed":false,"internalType":"uint256"},{"name":"borrowIndex","type":"uint256","indexed":false,"internalType":"uint256"}],"anonymous":false},{"type":"event","name":"Supply","inputs":[{"name":"asset","type":"address","indexed":true,"internalType":"address"},{"name":"user","type":"address","indexed":true,"internalType":"address"},{"name":"amount","type":"uint256","indexed":false,"internalType":"uint256"}],"anonymous":false},{"type":"event","name":"TreasuryMint","inputs":[{"name":"asset","type":"address","indexed":true,"internalType":"address"},{"name":"amount","type":"uint256","indexed":false,"internalType":"uint256"}],"anonymous":false},{"type":"event","name":"Withdraw","inputs":[{"name":"asset","type":"address","indexed":true,"internalType":"address"},{"name":"user","type":"address","indexed":true,"internalType":"address"},{"name":"amount","type":"uint256","indexed":false,"internalType":"uint256"}],"anonymous":false},{"type":"error","name":"TransferFailed","inputs":[]}],"bytecode":{"object":"0x60803460bd57601f6129ee38819003918201601f19168301916001600160401b0383118484101760c15780849260809460405283398101031260bd5760428160d5565b90604d6020820160d5565b60616060605b6040850160d5565b930160d5565b600280546001600160a01b03199081166001600160a01b03968716179091556003805482169386169390931790925560048054831693851693909317909255600580549091169190921617905560405161290590816100e98239f35b5f80fd5b634e487b7160e01b5f52604160045260245ffd5b51906001600160a01b038216820360bd5756fe60806040526004361015610011575f80fd5b5f5f3560e01c806322867d7814611cad57806335ea6a7514611c295780634b4e675314611b905780634b8a3529146119055780634fe7a6e5146118c1578063558bb3ac146118a557806361d027b31461187c578063704b6c021461182d57806372218d041461180f5780637303b22c146117eb5780637adbf9731461179e5780637dc0d1d0146117755780639cd19996146115eb578063aab3f8681461107c578063adf51de114610ca1578063b736aaeb14610c4c578063bf92857c14610c15578063cb245e5b14610bb8578063d2d2dbce146107b5578063d66bd524146106a3578063d6feb98014610677578063f0f442601461062a578063f2b9fdb8146103fe578063f3fdb15a146103d5578063f3fef3a3146101635763f851a44014610138575f80fd5b346101605780600319360112610160576005546040516001600160a01b039091168152602090f35b80fd5b50346101605760403660031901126101605761017d611e7d565b906024359061018e60065415611f1a565b60016006556001600160a01b03831680825260208290526040822060088082015485916101bf91901c60ff16611f66565b6101c8866122a5565b6009820154906101d9823389612871565b905f19146103cd575b85151590816103c2575b501561037d5781546001600160a01b031690813b1561037957604051637a94c56560e11b81523360048201526024810187905260448101919091529084908290606490829084905af1801561036e5785918591610351575b505090546040516323b872dd60e01b81529160209183918291610276919033906001600160a01b03166004850161204c565b038186865af1908115610346578391610317575b5015610308576102c66020946102c16102a23361268e565b5050676765c793fa10079d601b1b8110908115916102fd575b506120ff565b612498565b604051908382527f9b1bfa7fa9ee420a16e124f794c35ac9f90472acc99140eb2f6447c714cad8eb853393a3600655604051908152f35b5f191490505f6102bb565b6312171d8360e31b8252600482fd5b610339915060203d60201161033f575b6103318183611ffe565b810190612034565b5f61028a565b503d610327565b6040513d85823e3d90fd5b8192509061035e91611ffe565b61036a5783835f610244565b8280fd5b6040513d86823e3d90fd5b8480fd5b60405162461bcd60e51b815260206004820152601860248201527f476f6f644c656e64506f6f6c3a2062616420616d6f756e7400000000000000006044820152606490fd5b90508511155f6101ec565b9450846101e2565b50346101605780600319360112610160576003546040516001600160a01b039091168152602090f35b503461016057604036600319011261016057610418611e7d565b6024359061042860065415611f1a565b600160065560018060a01b0381169081845283602052604084206008810161045660ff825460081c16611f66565b610461851515611fb2565b61046a836122a5565b6006820154806105b0575b505080546040516323b872dd60e01b815290602090829081906104a79089906001600160a01b0316336004850161204c565b038189885af19081156105a5578691610586575b501561057757805460099091015485916001600160a01b0316803b1561036a57604051630ab714fb60e11b815233600482015260248101879052604481019290925282908290606490829084905af1801561056c57610553575b505061052090612498565b6040519182527fd1cf3d156d5f8f0d50f6c122ed609cec09d35c9b9fb3fff6ea0959134dae424e60203393a38060065580f35b8161055d91611ffe565b61056857835f610515565b8380fd5b6040513d84823e3d90fd5b6312171d8360e31b8552600485fd5b61059f915060203d60201161033f576103318183611ffe565b5f6104bb565b6040513d88823e3d90fd5b6105d9906105d360ff6105cb896105c689612557565b6120ba565b9454166120db565b906120ec565b106105e5575f80610475565b60405162461bcd60e51b815260206004820152601860248201527f476f6f644c656e64506f6f6c3a20737570706c792063617000000000000000006044820152606490fd5b503461016057602036600319011261016057610644611e7d565b61065960018060a01b0360055416331461206e565b60018060a01b03166001600160601b0360a01b600454161760045580f35b503461016057602036600319011261016057602061069b610696611e7d565b612237565b604051908152f35b5034610160576020366003190112610160576001600160a01b036106c5611e7d565b1681528060205260409020600160a01b60019003815416600160a01b6001900360018301541691600281015460038201546004830154600584015460068501546007860154600887015491600988015493600a89015495600b8a015497600c8b015499600d8c015464ffffffffff169b600e01549c6040519e8f91825260208201526040015260608d015260808c015260a08b015260c08a015260e089015260ff81166101008901528060081c60ff16151561012089015260101c60ff1615156101408801526101608701526101808601526101a08501526101c08401526101e083015261020082015261022090f35b503461016057610140366003190112610160576107d0611e7d565b6107d8611e93565b906107e1611ea9565b916084359060a43560c435610124359160ff8316809303610bb45761081160018060a01b0360055416331461206e565b6001600160a01b0386168852602088905260408820600890810154901c60ff16610b6557808511610b2e576127108210610afa5760405193610220850185811067ffffffffffffffff821117610ae65760405260018060a01b03169687855260018060a01b03169485602086015260643560408601526060850152608084015260a083015260e43560c08301526101043560e083015261010082015260016101208201526001610140820152676765c793fa10079d601b1b610160820152676765c793fa10079d601b1b610180820152846101a0820152846101c082015264ffffffffff42166101e08201528461020082015260018060a01b038316855284602052600e610200604087209260018060a01b0360018060a01b03825116166001600160601b0360a01b85541617845560018060a01b03602082015116600185019060018060a01b03166001600160601b0360a01b82541617905560408101516002850155606081015160038501556080810151600485015560a0810151600585015560c0810151600685015560e08101516007850155610a026008850160ff6101008401511660ff198254161781556109e46101208401511515829061ff00825491151560081b169061ff001916179055565b610140830151815462ff0000191690151560101b62ff000016179055565b6101608101516009850155610180810151600a8501556101a0810151600b8501556101c0810151600c85015564ffffffffff6101e08201511664ffffffffff600d8601911664ffffffffff19825416179055015191015560015468010000000000000000811015610ad25791604091610aa28460017f1d9fcd0dc935b4778d5af97f55c4d7b2553257382f1ef25c412114c8eeebd88e9601600155611ebf565b81546001600160a01b0394851660039290921b82811b95901b19169390931790558251948552602085015292a280f35b634e487b7160e01b85526041600452602485fd5b634e487b7160e01b8a52604160045260248afd5b60405162461bcd60e51b815260206004820152600c60248201526b426f6e7573203c203130302560a01b6044820152606490fd5b60405162461bcd60e51b815260206004820152600f60248201526e131515880f881d1a1c995cda1bdb19608a1b6044820152606490fd5b60405162461bcd60e51b815260206004820152602160248201527f476f6f644c656e64506f6f6c3a20616c726561647920696e697469616c697a656044820152601960fa1b6064820152608490fd5b8780fd5b503461016057610c12610bca36611eeb565b90610be060018060a01b0360055416331461206e565b6001600160a01b03168352602083905260408320600801805462ff0000191691151560101b62ff000016919091179055565b80f35b5034610160576020366003190112610160576060610c39610c34611e7d565b61268e565b9060405192835260208301526040820152f35b503461016057610c12610c5e36611eeb565b90610c7460018060a01b0360055416331461206e565b60018060a01b0316835282602052600860408420019061ff00825491151560081b169061ff001916179055565b503461016057608036600319011261016057610cbb611e7d565b60243590610cc7611ea9565b9160643567ffffffffffffffff811161037957366023820112156103795780600401359367ffffffffffffffff851161107857366024868401011161107857610d1260065415611f1a565b600160065560018060a01b03841693848752866020526040872091610d4060ff600885015460081c16611f66565b8415610d4c8115611fb2565b60098602908682046009141715611064576127109004938560208360018060a01b03875416610d8f60405194859384936323b872dd60e01b85526004850161204c565b03818d8c5af1908115611059578a9161103a575b501561102b57602060249160c48960018060a01b0386169b806040519687958694631b11d0ff60e01b865260048601528d828601528c604486015233606486015260a060848601528260a4860152018484013781810183018e9052601f01601f191681010301818c8c5af1908115611020578991611001575b5015610fab5782546020906001600160a01b0316610e3a86886120ba565b92610e5960405194859384936323b872dd60e01b85526004850161204c565b03818b8a5af1908115610fa0578891610f81575b5015610f7257610e9c6003840491610e858386612155565b92610e95600e86019182546120ba565b9055612557565b9081151580610f69575b610ee5575b5050507f0d7d75e01ab95780d3cd1c8ec0dd6c2ce19e3a20427eec8bf53283b6fb8e95f09160409182519182526020820152a38060065580f35b676765c793fa10079d601b1b810290808204676765c793fa10079d601b1b1490151715610f555791610f4b6009610f41604096947f0d7d75e01ab95780d3cd1c8ec0dd6c2ce19e3a20427eec8bf53283b6fb8e95f09896612162565b92019182546120ba565b9055918193610eab565b634e487b7160e01b88526011600452602488fd5b50801515610ea6565b6312171d8360e31b8752600487fd5b610f9a915060203d60201161033f576103318183611ffe565b5f610e6d565b6040513d8a823e3d90fd5b60405162461bcd60e51b815260206004820152602860248201527f476f6f644c656e64506f6f6c3a20666c617368206c6f616e2063616c6c6261636044820152671ac819985a5b195960c21b6064820152608490fd5b61101a915060203d60201161033f576103318183611ffe565b5f610e1c565b6040513d8b823e3d90fd5b6312171d8360e31b8952600489fd5b611053915060203d60201161033f576103318183611ffe565b5f610da3565b6040513d8c823e3d90fd5b634e487b7160e01b89526011600452602489fd5b8580fd5b503461016057608036600319011261016057611096611e7d565b61109e611e93565b906110a7611ea9565b90606435916110b860065415611f1a565b600160065582936110c8836122a5565b6110d1816122a5565b6110da8261268e565b505090676765c793fa10079d601b1b8210156115a65760018060a01b03841693848852876020526040882060018060a01b03831696878a528960205260408a2090600a8201956b0311d253316c79d37600000061113988548a896123f5565b911061159f5760011c80915b11611597575b5088156115525760025460405163b3596f0760e01b8152600481018a9052906001600160a01b0316602082602481845afa918215611512578c9261151d575b5060206024916040519283809263b3596f0760e01b82528d60048301525afa908115611512578c916114dc575b50811515806114d3575b1561148e576112126127106112016111f66111e08f96611217976120ec565b6111f060ff60088a0154166120db565b90612162565b6005880154906120ec565b046105d360ff6008880154166120db565b612162565b9460098301918a8a8d61122c86548c8a612871565b808b11611485575b5083546040516323b872dd60e01b815293602093859390928492839161126891906001600160a01b0316336004850161204c565b03925af190811561147a578d9161145b575b501561144c576001015490548b916001600160a01b0316803b1561036a57604051637a94c56560e11b81526001600160a01b038a166004820152602481018d9052604481019290925282908290606490829084905af1801561056c57611433575b5082549154916001600160a01b0316803b1561142f57604051637a94c56560e11b81526001600160a01b038916600482015260248101889052604481019390935281908390606490829084905af1918215611422578692611405575b505090546040516323b872dd60e01b81529160209183918291611369919033906001600160a01b03166004850161204c565b03818c8a5af19081156110205789916113e6575b50156113d757916113b57f1a98026bd2fd57ccb4933487f6d856fe1a60aa4605383cead00860edbe14b9f494926102c1606095612498565b604051968752602087015233604087015260018060a01b031694a48060065580f35b6312171d8360e31b8852600488fd5b6113ff915060203d60201161033f576103318183611ffe565b5f61137d565b8192509061141291611ffe565b61141e5783895f611337565b8880fd5b50604051903d90823e3d90fd5b5080fd5b8161143d91611ffe565b61144857895f6112db565b8980fd5b6312171d8360e31b8c5260048cfd5b611474915060203d60201161033f576103318183611ffe565b5f61127a565b6040513d8f823e3d90fd5b99506020611234565b60405162461bcd60e51b815260206004820152601960248201527f476f6f644c656e64506f6f6c3a206f7261636c65206661696c000000000000006044820152606490fd5b508015156111c1565b90506020813d60201161150a575b816114f760209383611ffe565b8101031261150657515f6111b7565b5f80fd5b3d91506114ea565b6040513d8e823e3d90fd5b9091506020813d60201161154a575b8161153960209383611ffe565b81010312611506575190602061118a565b3d915061152c565b60405162461bcd60e51b815260206004820152601e60248201527f476f6f644c656e64506f6f6c3a207a65726f206c69717569646174696f6e00006044820152606490fd5b98505f61114b565b8091611145565b60405162461bcd60e51b815260206004820152601e60248201527f476f6f644c656e64506f6f6c3a206e6f74206c6971756964617461626c6500006044820152606490fd5b50346101605760203660031901126101605760043567ffffffffffffffff811161142f573660238201121561142f57806004013567ffffffffffffffff811161036a576024820191602436918360051b01011161036a57825b81811061164f578380f35b61166a611665611660838587612213565b612223565b6122a5565b6001600160a01b03611680611660838587612213565b16845283602052604084209084600e830192835493846116a8575b5050506001915001611644565b82905580546004546009909201546001600160a01b039182169290911690823b156105685760405163b848f5b160e01b81526001600160a01b039290921660048301526024820186905260448201529082908290606490829084905af1801561056c57611760575b5060019290507f4a9f0bc4fa7e0e0d70aba96482e6e4dadf15298daff23a34b937566acd51b39360206001600160a01b0361174f61166086898b612213565b1692604051908152a2845f8061169b565b8161176a91611ffe565b61037957845f611710565b50346101605780600319360112610160576002546040516001600160a01b039091168152602090f35b5034610160576020366003190112610160576117b8611e7d565b6117cd60018060a01b0360055416331461206e565b60018060a01b03166001600160601b0360a01b600254161760025580f35b503461016057602036600319011261016057602061069b61180a611e7d565b612180565b50346101605780600319360112610160576020600154604051908152f35b503461016057602036600319011261016057611847611e7d565b6005549061185f336001600160a01b0384161461206e565b6001600160a01b03166001600160a01b0319919091161760055580f35b50346101605780600319360112610160576004546040516001600160a01b039091168152602090f35b5034610160578060031936011261016057602060405160098152f35b503461016057602036600319011261016057600435906001548210156101605760206118ec83611ebf565b905460405160039290921b1c6001600160a01b03168152f35b50346101605760403660031901126101605761191f611e7d565b6024359061192f60065415611f1a565b600160065560018060a01b03811690818452836020526040842060088101805460ff8160081c169081611b82575b5015611b3d5761196e851515611fb2565b611977836122a5565b600782015480611ad6575b50506001810154600a82015486916001600160a01b0316803b1561036a57604051630ab714fb60e11b815233600482015260248101889052604481019290925290919081908390606490829084905af1918215611422578692611abd575b505090546040516323b872dd60e01b81529160209183918291611a12919033906001600160a01b03166004850161204c565b038188875af1908115611ab2578591611a93575b5015611a8457611a51906102c1676765c793fa10079d601b1b611a483361268e565b505010156120ff565b6040519182527f312a5e5e1079f5dda4e95dbbd0b908b291fd5b992ef22073643ab691572c5b5260203393a38060065580f35b6312171d8360e31b8452600484fd5b611aac915060203d60201161033f576103318183611ffe565b5f611a26565b6040513d87823e3d90fd5b81925090611aca91611ffe565b6103795783855f6119e0565b611aec906105d360ff6105cb896105c6896125f1565b10611af8575f80611982565b60405162461bcd60e51b815260206004820152601860248201527f476f6f644c656e64506f6f6c3a20626f72726f772063617000000000000000006044820152606490fd5b60405162461bcd60e51b815260206004820152601d60248201527f476f6f644c656e64506f6f6c3a20626f72726f772064697361626c65640000006044820152606490fd5b60ff915060101c165f61195d565b503461016057604036600319011261016057611baa611e7d565b60243590611bc360018060a01b0360055416331461206e565b6127108211611bf757610c1291611bd9826122a5565b6001600160a01b038216845260208490526040842060020155612498565b60405162461bcd60e51b815260206004820152600a6024820152693130b2103330b1ba37b960b11b6044820152606490fd5b50346101605760203660031901126101605760e0906040611c48611e7d565b9160018060a01b03831681528060205220600981015490600a810154600c82015490600e600b84015493015493611c87611c8187612557565b966125f1565b604051968752602087015260408601526060850152608084015260a083015260c0820152f35b503461150657604036600319011261150657611cc7611e7d565b60243591611cd760065415611f1a565b6001600655829160018060a01b03811690815f525f60205260405f20611d0660ff600883015460081c16611f66565b611d0f826122a5565b600a810195611d20875433856123f5565b905f1914611e75575b611d34861515611fb2565b808611611e6d575b5080546040516323b872dd60e01b81529060209082908190611d6d908a906001600160a01b0316336004850161204c565b03815f885af1908115611e34575f91611e4e575b5015611e3f57600101549454946001600160a01b0316803b1561150657604051637a94c56560e11b81523360048201526024810186905260448101969096525f908690606490829084905af1948515611e3457602095611e1d575b50611de690612498565b604051908382527f05f2eeda0e08e4b437f487c8d7d29b14537d15e3488170dc3de5dbdf8dac4684853393a3600655604051908152f35b611e2a9193505f90611ffe565b5f91611de6611ddc565b6040513d5f823e3d90fd5b6312171d8360e31b5f5260045ffd5b611e67915060203d60201161033f576103318183611ffe565b5f611d81565b94505f611d3c565b945084611d29565b600435906001600160a01b038216820361150657565b602435906001600160a01b038216820361150657565b604435906001600160a01b038216820361150657565b600154811015611ed75760015f5260205f2001905f90565b634e487b7160e01b5f52603260045260245ffd5b6040906003190112611506576004356001600160a01b0381168103611506579060243580151581036115065790565b15611f2157565b60405162461bcd60e51b815260206004820152601760248201527f476f6f644c656e64506f6f6c3a207265656e7472616e740000000000000000006044820152606490fd5b15611f6d57565b60405162461bcd60e51b815260206004820152601e60248201527f476f6f644c656e64506f6f6c3a207265736572766520696e61637469766500006044820152606490fd5b15611fb957565b60405162461bcd60e51b815260206004820152601960248201527f476f6f644c656e64506f6f6c3a207a65726f20616d6f756e74000000000000006044820152606490fd5b90601f8019910116810190811067ffffffffffffffff82111761202057604052565b634e487b7160e01b5f52604160045260245ffd5b90816020910312611506575180151581036115065790565b6001600160a01b03918216815291166020820152604081019190915260600190565b1561207557565b60405162461bcd60e51b815260206004820152601760248201527f476f6f644c656e64506f6f6c3a206e6f742061646d696e0000000000000000006044820152606490fd5b919082018092116120c757565b634e487b7160e01b5f52601160045260245ffd5b60ff16604d81116120c757600a0a90565b818102929181159184041417156120c757565b1561210657565b60405162461bcd60e51b815260206004820152602160248201527f476f6f644c656e64506f6f6c3a20756e646572636f6c6c61746572616c697a656044820152601960fa1b6064820152608490fd5b919082039182116120c757565b811561216c570490565b634e487b7160e01b5f52601260045260245ffd5b60018060a01b03165f525f60205260405f2060ff600882015460081c1615612203576121b764ffffffffff600d8301541642612155565b9081156121fa57676765c793fa10079d601b1b6121f060096301e133806121e56121f796600c8701546120ec565b0493015492836120ec565b04906120ba565b90565b60099150015490565b50676765c793fa10079d601b1b90565b9190811015611ed75760051b0190565b356001600160a01b03811681036115065790565b60018060a01b03165f525f60205260405f2060ff600882015460081c16156122035761226e64ffffffffff600d8301541642612155565b90811561229c57676765c793fa10079d601b1b6121f0600a6301e133806121e56121f796600b8701546120ec565b600a9150015490565b60018060a01b03811690815f525f60205260405f209060ff600883015460081c16156123f057600d8201916122e264ffffffffff84541642612155565b9283156123e9577f6d129bd71f2401cbe77f49f546d7d5f58992faecfca6e51ba06b50b261e83331936123166040946125f1565b8061234c575b5050805464ffffffffff19164264ffffffffff161790556009810154600a919091015482519182526020820152a2565b816127106123a3676765c793fa10079d601b1b6123976123bf956301e1338061237a8199600b8d01546120ec565b0490600a8b016123908154866121f086836120ec565b90556120ec565b046002880154906120ec565b046123b3600e87019182546120ba565b9055600c8501546120ec565b046123e06009840191676765c793fa10079d601b1b6121f0845492836120ec565b90555f8061231c565b5050505050565b505050565b6001600160a01b039081165f9081526020818152604091829020600101549151630ed1279f60e11b815293831660048501529183916024918391165afa908115611e34575f9161245b575b50676765c793fa10079d601b1b91612457916120ec565b0490565b90506020813d602011612490575b8161247660209383611ffe565b810103126115065751676765c793fa10079d601b1b612440565b3d9150612469565b6001600160a01b0381165f8181526020819052604090819020919260846124c76124c183612557565b926125f1565b9460018060a01b0360035416600286015485519788958694635789ca3b60e01b865260048601526024850152604484015260648301525afa918215611e34575f905f9361251b575b50600b820155600c0155565b9250506040823d60401161254f575b8161253760409383611ffe565b8101031261150657815160209092015191600c61250f565b3d915061252a565b60018060a01b03165f525f60205260405f206004602060018060a01b038354166040519283809263b1bf962d60e01b82525afa908115611e34575f916125b4575b50612457906009676765c793fa10079d601b1b930154906120ec565b90506020813d6020116125e9575b816125cf60209383611ffe565b810103126115065751676765c793fa10079d601b1b612598565b3d91506125c2565b60018060a01b03165f525f60205260405f206004602060018060a01b036001840154166040519283809263b1bf962d60e01b82525afa908115611e34575f91612651575b5061245790600a676765c793fa10079d601b1b930154906120ec565b90506020813d602011612686575b8161266c60209383611ffe565b810103126115065751676765c793fa10079d601b1b612635565b3d915061265f565b6001546002545f92839283926001600160a01b031691835b8281106126f3575050505081155f146126bf57505f1992565b676765c793fa10079d601b1b810290808204676765c793fa10079d601b1b14901517156120c757816126f091612162565b92565b6126fc81611ebf565b60018060a01b0391549060031b1c16805f525f60205260405f209060088201549160ff8360081c16156128665760405163b3596f0760e01b815260048101839052916020836024818b5afa928315611e34575f93612833575b5082156128275761276581612180565b9161277a61277283612237565b938884612871565b806127d0575b5050908561278d926123f5565b806127a0575b5050506001905b016126a6565b6127c7926111f060ff6127ba6001979c956127c1956120ec565b92166120db565b906120ba565b95905f80612793565b9b6127e185899c939e9594956120ec565b6127ed60ff88166120db565b6127f691612162565b9081612801916120ba565b9c6004015461280f916120ec565b612710900461281d916120ba565b985f929192612780565b5050505060019061279a565b9092506020813d821161285e575b8161284e60209383611ffe565b810103126115065751915f612755565b3d9150612841565b50505060019061279a565b6001600160a01b039081165f9081526020818152604091829020549151630ed1279f60e11b815293831660048501529183916024918391165afa908115611e34575f9161245b5750676765c793fa10079d601b1b91612457916120ec56fea26469706673582212206ad67628309770070b074686fc472ee77be4f9078f86de4f30a37a282dca595b64736f6c63430008210033","linkReferences":{}},"methodIdentifiers":{"FLASH_LOAN_PREMIUM_BPS()":"558bb3ac","admin()":"f851a440","borrow(address,uint256)":"4b8a3529","flashLoan(address,uint256,address,bytes)":"adf51de1","getBorrowIndex(address)":"d6feb980","getLiquidityIndex(address)":"7303b22c","getReserveData(address)":"35ea6a75","getReservesCount()":"72218d04","getUserAccountData(address)":"bf92857c","initReserve(address,address,address,uint256,uint256,uint256,uint256,uint256,uint256,uint8)":"d2d2dbce","interestRateModel()":"f3fdb15a","liquidate(address,address,address,uint256)":"aab3f868","mintToTreasury(address[])":"9cd19996","oracle()":"7dc0d1d0","repay(address,uint256)":"22867d78","reserves(address)":"d66bd524","reservesList(uint256)":"4fe7a6e5","setAdmin(address)":"704b6c02","setBorrowingEnabled(address,bool)":"cb245e5b","setOracle(address)":"7adbf973","setReserveActive(address,bool)":"b736aaeb","setReserveFactor(address,uint256)":"4b4e6753","setTreasury(address)":"f0f44260","supply(address,uint256)":"f2b9fdb8","treasury()":"61d027b3","withdraw(address,uint256)":"f3fef3a3"},"id":43}