{"abi":[{"type":"constructor","inputs":[{"name":"_name","type":"string","internalType":"string"},{"name":"_symbol","type":"string","internalType":"string"},{"name":"_minter","type":"address","internalType":"address"}],"stateMutability":"nonpayable"},{"type":"function","name":"allowance","inputs":[{"name":"","type":"address","internalType":"address"},{"name":"","type":"address","internalType":"address"}],"outputs":[{"name":"","type":"uint256","internalType":"uint256"}],"stateMutability":"view"},{"type":"function","name":"approve","inputs":[{"name":"spender","type":"address","internalType":"address"},{"name":"amount","type":"uint256","internalType":"uint256"}],"outputs":[{"name":"","type":"bool","internalType":"bool"}],"stateMutability":"nonpayable"},{"type":"function","name":"balanceOf","inputs":[{"name":"","type":"address","internalType":"address"}],"outputs":[{"name":"","type":"uint256","internalType":"uint256"}],"stateMutability":"view"},{"type":"function","name":"burn","inputs":[{"name":"from","type":"address","internalType":"address"},{"name":"amount","type":"uint256","internalType":"uint256"}],"outputs":[],"stateMutability":"nonpayable"},{"type":"function","name":"decimals","inputs":[],"outputs":[{"name":"","type":"uint8","internalType":"uint8"}],"stateMutability":"view"},{"type":"function","name":"mint","inputs":[{"name":"to","type":"address","internalType":"address"},{"name":"amount","type":"uint256","internalType":"uint256"}],"outputs":[],"stateMutability":"nonpayable"},{"type":"function","name":"minter","inputs":[],"outputs":[{"name":"","type":"address","internalType":"address"}],"stateMutability":"view"},{"type":"function","name":"name","inputs":[],"outputs":[{"name":"","type":"string","internalType":"string"}],"stateMutability":"view"},{"type":"function","name":"symbol","inputs":[],"outputs":[{"name":"","type":"string","internalType":"string"}],"stateMutability":"view"},{"type":"function","name":"totalSupply","inputs":[],"outputs":[{"name":"","type":"uint256","internalType":"uint256"}],"stateMutability":"view"},{"type":"function","name":"transfer","inputs":[{"name":"to","type":"address","internalType":"address"},{"name":"amount","type":"uint256","internalType":"uint256"}],"outputs":[{"name":"","type":"bool","internalType":"bool"}],"stateMutability":"nonpayable"},{"type":"function","name":"transferFrom","inputs":[{"name":"from","type":"address","internalType":"address"},{"name":"to","type":"address","internalType":"address"},{"name":"amount","type":"uint256","internalType":"uint256"}],"outputs":[{"name":"","type":"bool","internalType":"bool"}],"stateMutability":"nonpayable"},{"type":"event","name":"Approval","inputs":[{"name":"owner","type":"address","indexed":true,"internalType":"address"},{"name":"spender","type":"address","indexed":true,"internalType":"address"},{"name":"value","type":"uint256","indexed":false,"internalType":"uint256"}],"anonymous":false},{"type":"event","name":"Transfer","inputs":[{"name":"from","type":"address","indexed":true,"internalType":"address"},{"name":"to","type":"address","indexed":true,"internalType":"address"},{"name":"value","type":"uint256","indexed":false,"internalType":"uint256"}],"anonymous":false},{"type":"error","name":"InsufficientAllowance","inputs":[]},{"type":"error","name":"InsufficientBalance","inputs":[]},{"type":"error","name":"NotMinter","inputs":[]},{"type":"error","name":"ZeroAddress","inputs":[]}],"bytecode":{"object":"0x60a0604052346100475761001a6100146101e6565b9161049c565b61002261004c565b610f2c6104f3823960805181818161032201528181610ba30152610c950152610f2c90f35b610052565b60405190565b5f80fd5b601f801991011690565b634e487b7160e01b5f52604160045260245ffd5b9061007e90610056565b810190811060018060401b0382111761009657604052565b610060565b906100ae6100a761004c565b9283610074565b565b5f80fd5b5f80fd5b5f80fd5b5f80fd5b60018060401b0381116100dc576100d8602091610056565b0190565b610060565b90825f9392825e0152565b909291926101016100fc826100c0565b61009b565b9381855260208501908284011161011d5761011b926100e1565b565b6100bc565b9080601f830112156101405781602061013d935191016100ec565b90565b6100b8565b60018060a01b031690565b61015990610145565b90565b61016581610150565b0361016c57565b5f80fd5b9050519061017d8261015c565b565b90916060828403126101e1575f82015160018060401b0381116101dc57836101a8918401610122565b9260208301519060018060401b0382116101d7576101cb816101d4938601610122565b93604001610170565b90565b6100b4565b6100b4565b6100b0565b61020461141f803803806101f98161009b565b92833981019061017f565b909192565b90565b90565b61022361021e61022892610209565b61020c565b610145565b90565b6102349061020f565b90565b5f0190565b5190565b634e487b7160e01b5f52602260045260245ffd5b9060016002830492168015610274575b602083101461026f57565b610240565b91607f1691610264565b5f5260205f2090565b601f602091010490565b1b90565b919060086102b09102916102aa5f1984610291565b92610291565b9181191691161790565b90565b6102d16102cc6102d6926102ba565b61020c565b6102ba565b90565b90565b91906102f26102ed6102fa936102bd565b6102d9565b908354610295565b9055565b5f90565b6103149161030e6102fe565b916102dc565b565b5f5b82811061032457505050565b806103335f6001938501610302565b01610318565b9190601f8111610349575b505050565b818111610356575b610344565b61036b6103656103899461027e565b91610287565b91602061037782610287565b9110610391575b809101910390610316565b5f8080610351565b505f61037e565b1c90565b906103ac905f1990600802610398565b191690565b816103bb9161039c565b906002021790565b906103cd8161023c565b9060018060401b03821161048b576103ef826103e98554610254565b85610339565b602090601f831160011461042357918091610412935f92610417575b50506103b1565b90555b565b90915001515f8061040b565b601f198316916104328561027e565b925f5b81811061047357509160029391856001969410610459575b50505002019055610415565b610469910151601f84169061039c565b90555f808061044d565b91936020600181928787015181550195019201610435565b610060565b9061049a916103c3565b565b90826104b86104b26104ad5f61022b565b610150565b91610150565b146104d6576104ca6104d1925f610490565b6001610490565b608052565b5f63d92e233d60e01b8152806104ee60048201610237565b0390fdfe60806040526004361015610013575b610856565b61001d5f356100dc565b806306fdde03146100d757806307546172146100d2578063095ea7b3146100cd57806318160ddd146100c857806323b872dd146100c3578063313ce567146100be57806340c10f19146100b957806370a08231146100b457806395d89b41146100af5780639dc29fac146100aa578063a9059cbb146100a55763dd62ed3e0361000e57610820565b610786565b610752565b61071d565b6106d9565b610624565b6105ea565b610552565b6104e3565b61044f565b61037d565b6102eb565b60e01c90565b60405190565b5f80fd5b5f80fd5b5f9103126100fa57565b6100ec565b634e487b7160e01b5f525f60045260245ffd5b634e487b7160e01b5f52602260045260245ffd5b9060016002830492168015610146575b602083101461014157565b610112565b91607f1691610136565b60209181520190565b5f5260205f2090565b905f929180549061017c61017583610126565b8094610150565b916001811690815f146101d35750600114610197575b505050565b6101a49192939450610159565b915f925b8184106101bb57505001905f8080610192565b600181602092959395548486015201910192906101a8565b92949550505060ff19168252151560200201905f8080610192565b906101f891610162565b90565b601f801991011690565b634e487b7160e01b5f52604160045260245ffd5b90610223906101fb565b810190811067ffffffffffffffff82111761023d57604052565b610205565b9061026261025b926102526100e2565b938480926101ee565b0383610219565b565b905f106102775761027490610242565b90565b6100ff565b6102875f5f90610264565b90565b5190565b60209181520190565b90825f9392825e0152565b6102c16102ca6020936102cf936102b88161028a565b9384809361028e565b95869101610297565b6101fb565b0190565b6102e89160208201915f8184039101526102a2565b90565b3461031b576102fb3660046100f0565b61031761030661027c565b61030e6100e2565b918291826102d3565b0390f35b6100e8565b7f000000000000000000000000000000000000000000000000000000000000000090565b60018060a01b031690565b61035890610344565b90565b6103649061034f565b9052565b919061037b905f6020850194019061035b565b565b346103ad5761038d3660046100f0565b6103a9610398610320565b6103a06100e2565b91829182610368565b0390f35b6100e8565b6103bb8161034f565b036103c257565b5f80fd5b905035906103d3826103b2565b565b90565b6103e1816103d5565b036103e857565b5f80fd5b905035906103f9826103d8565b565b91906040838203126104235780610417610420925f86016103c6565b936020016103ec565b90565b6100ec565b151590565b61043690610428565b9052565b919061044d905f6020850194019061042d565b565b346104805761047c61046b6104653660046103fb565b906108b8565b6104736100e2565b9182918261043a565b0390f35b6100e8565b1c90565b90565b61049c9060086104a19302610485565b610489565b90565b906104af915461048c565b90565b6104be60025f906104a4565b90565b6104ca906103d5565b9052565b91906104e1905f602085019401906104c1565b565b34610513576104f33660046100f0565b61050f6104fe6104b2565b6105066100e2565b918291826104ce565b0390f35b6100e8565b909160608284031261054d5761054a610533845f85016103c6565b9361054181602086016103c6565b936040016103ec565b90565b6100ec565b346105835761057f61056e610568366004610518565b916109e4565b6105766100e2565b9182918261043a565b0390f35b6100e8565b90565b60ff1690565b90565b6105a86105a36105ad92610588565b610591565b61058b565b90565b6105ba6012610594565b90565b6105c56105b0565b90565b6105d19061058b565b9052565b91906105e8905f602085019401906105c8565b565b3461061a576105fa3660046100f0565b6106166106056105bd565b61060d6100e2565b918291826105d5565b0390f35b6100e8565b5f0190565b346106535761063d6106373660046103fb565b90610b99565b6106456100e2565b8061064f8161061f565b0390f35b6100e8565b906020828203126106715761066e915f016103c6565b90565b6100ec565b61068a61068561068f92610344565b610591565b610344565b90565b61069b90610676565b90565b6106a790610692565b90565b906106b49061069e565b5f5260205260405f2090565b6106d6906106d16003915f926106aa565b6104a4565b90565b34610709576107056106f46106ef366004610658565b6106c0565b6106fc6100e2565b918291826104ce565b0390f35b6100e8565b61071a60015f90610264565b90565b3461074d5761072d3660046100f0565b61074961073861070e565b6107406100e2565b918291826102d3565b0390f35b6100e8565b346107815761076b6107653660046103fb565b90610c8c565b6107736100e2565b8061077d8161061f565b0390f35b6100e8565b346107b7576107b36107a261079c3660046103fb565b90610dc5565b6107aa6100e2565b9182918261043a565b0390f35b6100e8565b91906040838203126107e457806107d86107e1925f86016103c6565b936020016103c6565b90565b6100ec565b906107f39061069e565b5f5260205260405f2090565b61081861081d926108136004935f946107e9565b6106aa565b6104a4565b90565b346108515761084d61083c6108363660046107bc565b906107ff565b6108446100e2565b918291826104ce565b0390f35b6100e8565b5f80fd5b5f90565b5f1b90565b9061086f5f199161085e565b9181191691161790565b61088d610888610892926103d5565b610591565b6103d5565b90565b90565b906108ad6108a86108b492610879565b610895565b8254610863565b9055565b906108c161085a565b506108e1816108dc6108d5600433906107e9565b85906106aa565b610898565b3391909161092d61091b6109157f8c5be1e5ebec7d5bd14f71427d1e84f3dd0314c0f7b2291e5b200ac8c7c3b9259361069e565b9361069e565b936109246100e2565b918291826104ce565b0390a3600190565b90565b61094c61094761095192610935565b610591565b610344565b90565b61095d90610938565b90565b5f1c90565b61097161097691610960565b610489565b90565b6109839054610965565b90565b634e487b7160e01b5f52601160045260245ffd5b6109a96109af919392936103d5565b926103d5565b82039182116109ba57565b610986565b6109ce6109d4919392936103d5565b926103d5565b82018092116109df57565b610986565b9190916109ef61085a565b5082610a0b610a05610a005f610954565b61034f565b9161034f565b14610b7d57610a24610a1f600383906106aa565b610979565b610a36610a30846103d5565b916103d5565b10610b6157610a59610a54610a4d600484906107e9565b33906106aa565b610979565b610a6b610a65846103d5565b916103d5565b10610b4557610aa282610a9c610a8d610a86600486906107e9565b33906106aa565b91610a9783610979565b61099a565b90610898565b610aca82610ac4610ab5600385906106aa565b91610abf83610979565b61099a565b90610898565b610af282610aec610add600387906106aa565b91610ae783610979565b6109bf565b90610898565b919091610b3d610b2b610b257fddf252ad1be2c89b69c2b068fc378daa952ba7f163c4a11628f55a4df523b3ef9361069e565b9361069e565b93610b346100e2565b918291826104ce565b0390a3600190565b5f6313be252b60e01b815280610b5d6004820161061f565b0390fd5b5f631e9acf1760e31b815280610b796004820161061f565b0390fd5b5f63d92e233d60e01b815280610b956004820161061f565b0390fd5b9033610bcd610bc77f000000000000000000000000000000000000000000000000000000000000000061034f565b9161034f565b03610c7057610bef610be882610be36002610979565b6109bf565b6002610898565b610c1781610c11610c02600386906106aa565b91610c0c83610979565b6109bf565b90610898565b610c205f610954565b919091610c6b610c59610c537fddf252ad1be2c89b69c2b068fc378daa952ba7f163c4a11628f55a4df523b3ef9361069e565b9361069e565b93610c626100e2565b918291826104ce565b0390a3565b5f633e34a41b60e21b815280610c886004820161061f565b0390fd5b33610cbf610cb97f000000000000000000000000000000000000000000000000000000000000000061034f565b9161034f565b03610da957610cd8610cd3600383906106aa565b610979565b610cea610ce4846103d5565b916103d5565b10610d8d57610d0c610d0583610d006002610979565b61099a565b6002610898565b610d3482610d2e610d1f600385906106aa565b91610d2983610979565b61099a565b90610898565b90610d3e5f610954565b9091610d88610d76610d707fddf252ad1be2c89b69c2b068fc378daa952ba7f163c4a11628f55a4df523b3ef9361069e565b9361069e565b93610d7f6100e2565b918291826104ce565b0390a3565b5f631e9acf1760e31b815280610da56004820161061f565b0390fd5b5f633e34a41b60e21b815280610dc16004820161061f565b0390fd5b90610dce61085a565b5081610dea610de4610ddf5f610954565b61034f565b9161034f565b14610eda57610e03610dfe600333906106aa565b610979565b610e15610e0f836103d5565b916103d5565b10610ebe57610e4281610e3c610e2d600333906106aa565b91610e3783610979565b61099a565b90610898565b610e6a81610e64610e55600386906106aa565b91610e5f83610979565b6109bf565b90610898565b33919091610eb6610ea4610e9e7fddf252ad1be2c89b69c2b068fc378daa952ba7f163c4a11628f55a4df523b3ef9361069e565b9361069e565b93610ead6100e2565b918291826104ce565b0390a3600190565b5f631e9acf1760e31b815280610ed66004820161061f565b0390fd5b5f63d92e233d60e01b815280610ef26004820161061f565b0390fdfea2646970667358221220343666b8051cc3fea6fae6e76e62fe848472dfc4d90eacf31b5f18bf44370c5764736f6c63430008210033","linkReferences":{}},"methodIdentifiers":{"allowance(address,address)":"dd62ed3e","approve(address,uint256)":"095ea7b3","balanceOf(address)":"70a08231","burn(address,uint256)":"9dc29fac","decimals()":"313ce567","mint(address,uint256)":"40c10f19","minter()":"07546172","name()":"06fdde03","symbol()":"95d89b41","totalSupply()":"18160ddd","transfer(address,uint256)":"a9059cbb","transferFrom(address,address,uint256)":"23b872dd"},"id":2}