{"abi":[{"type":"constructor","inputs":[{"name":"_name","type":"string","internalType":"string"},{"name":"_symbol","type":"string","internalType":"string"},{"name":"_minter","type":"address","internalType":"address"}],"stateMutability":"nonpayable"},{"type":"function","name":"allowance","inputs":[{"name":"","type":"address","internalType":"address"},{"name":"","type":"address","internalType":"address"}],"outputs":[{"name":"","type":"uint256","internalType":"uint256"}],"stateMutability":"view"},{"type":"function","name":"approve","inputs":[{"name":"spender","type":"address","internalType":"address"},{"name":"amount","type":"uint256","internalType":"uint256"}],"outputs":[{"name":"","type":"bool","internalType":"bool"}],"stateMutability":"nonpayable"},{"type":"function","name":"balanceOf","inputs":[{"name":"","type":"address","internalType":"address"}],"outputs":[{"name":"","type":"uint256","internalType":"uint256"}],"stateMutability":"view"},{"type":"function","name":"burn","inputs":[{"name":"from","type":"address","internalType":"address"},{"name":"amount","type":"uint256","internalType":"uint256"}],"outputs":[],"stateMutability":"nonpayable"},{"type":"function","name":"decimals","inputs":[],"outputs":[{"name":"","type":"uint8","internalType":"uint8"}],"stateMutability":"view"},{"type":"function","name":"mint","inputs":[{"name":"to","type":"address","internalType":"address"},{"name":"amount","type":"uint256","internalType":"uint256"}],"outputs":[],"stateMutability":"nonpayable"},{"type":"function","name":"minter","inputs":[],"outputs":[{"name":"","type":"address","internalType":"address"}],"stateMutability":"view"},{"type":"function","name":"name","inputs":[],"outputs":[{"name":"","type":"string","internalType":"string"}],"stateMutability":"view"},{"type":"function","name":"symbol","inputs":[],"outputs":[{"name":"","type":"string","internalType":"string"}],"stateMutability":"view"},{"type":"function","name":"totalSupply","inputs":[],"outputs":[{"name":"","type":"uint256","internalType":"uint256"}],"stateMutability":"view"},{"type":"function","name":"transfer","inputs":[{"name":"to","type":"address","internalType":"address"},{"name":"amount","type":"uint256","internalType":"uint256"}],"outputs":[{"name":"","type":"bool","internalType":"bool"}],"stateMutability":"nonpayable"},{"type":"function","name":"transferFrom","inputs":[{"name":"from","type":"address","internalType":"address"},{"name":"to","type":"address","internalType":"address"},{"name":"amount","type":"uint256","internalType":"uint256"}],"outputs":[{"name":"","type":"bool","internalType":"bool"}],"stateMutability":"nonpayable"},{"type":"event","name":"Approval","inputs":[{"name":"owner","type":"address","indexed":true,"internalType":"address"},{"name":"spender","type":"address","indexed":true,"internalType":"address"},{"name":"value","type":"uint256","indexed":false,"internalType":"uint256"}],"anonymous":false},{"type":"event","name":"Transfer","inputs":[{"name":"from","type":"address","indexed":true,"internalType":"address"},{"name":"to","type":"address","indexed":true,"internalType":"address"},{"name":"value","type":"uint256","indexed":false,"internalType":"uint256"}],"anonymous":false},{"type":"error","name":"InsufficientAllowance","inputs":[]},{"type":"error","name":"InsufficientBalance","inputs":[]},{"type":"error","name":"NotMinter","inputs":[]},{"type":"error","name":"ZeroAddress","inputs":[]}],"bytecode":{"object":"0x60a060405234801561000f575f5ffd5b5060405161175538038061175583398181016040528101906100319190610298565b5f73ffffffffffffffffffffffffffffffffffffffff168173ffffffffffffffffffffffffffffffffffffffff1603610096576040517fd92e233d00000000000000000000000000000000000000000000000000000000815260040160405180910390fd5b825f90816100a49190610541565b5081600190816100b49190610541565b508073ffffffffffffffffffffffffffffffffffffffff1660808173ffffffffffffffffffffffffffffffffffffffff1681525050505050610610565b5f604051905090565b5f5ffd5b5f5ffd5b5f5ffd5b5f5ffd5b5f601f19601f8301169050919050565b7f4e487b71000000000000000000000000000000000000000000000000000000005f52604160045260245ffd5b6101508261010a565b810181811067ffffffffffffffff8211171561016f5761016e61011a565b5b80604052505050565b5f6101816100f1565b905061018d8282610147565b919050565b5f67ffffffffffffffff8211156101ac576101ab61011a565b5b6101b58261010a565b9050602081019050919050565b8281835e5f83830152505050565b5f6101e26101dd84610192565b610178565b9050828152602081018484840111156101fe576101fd610106565b5b6102098482856101c2565b509392505050565b5f82601f83011261022557610224610102565b5b81516102358482602086016101d0565b91505092915050565b5f73ffffffffffffffffffffffffffffffffffffffff82169050919050565b5f6102678261023e565b9050919050565b6102778161025d565b8114610281575f5ffd5b50565b5f815190506102928161026e565b92915050565b5f5f5f606084860312156102af576102ae6100fa565b5b5f84015167ffffffffffffffff8111156102cc576102cb6100fe565b5b6102d886828701610211565b935050602084015167ffffffffffffffff8111156102f9576102f86100fe565b5b61030586828701610211565b925050604061031686828701610284565b9150509250925092565b5f81519050919050565b7f4e487b71000000000000000000000000000000000000000000000000000000005f52602260045260245ffd5b5f600282049050600182168061036e57607f821691505b6020821081036103815761038061032a565b5b50919050565b5f819050815f5260205f209050919050565b5f6020601f8301049050919050565b5f82821b905092915050565b5f600883026103e37fffffffffffffffffffffffffffffffffffffffffffffffffffffffffffffffff826103a8565b6103ed86836103a8565b95508019841693508086168417925050509392505050565b5f819050919050565b5f819050919050565b5f61043161042c61042784610405565b61040e565b610405565b9050919050565b5f819050919050565b61044a83610417565b61045e61045682610438565b8484546103b4565b825550505050565b5f5f905090565b610475610466565b610480818484610441565b505050565b5f5b828110156104a65761049b5f82840161046d565b600181019050610487565b505050565b601f8211156104f957828211156104f8576104c581610387565b6104ce83610399565b6104d785610399565b60208610156104e4575f90505b8083016104f382840382610485565b505050505b5b505050565b5f82821c905092915050565b5f6105195f19846008026104fe565b1980831691505092915050565b5f610531838361050a565b9150826002028217905092915050565b61054a82610320565b67ffffffffffffffff8111156105635761056261011a565b5b61056d8254610357565b6105788282856104ab565b5f60209050601f8311600181146105a9575f8415610597578287015190505b6105a18582610526565b865550610608565b601f1984166105b786610387565b5f5b828110156105de578489015182556001820191506020850194506020810190506105b9565b868310156105fb57848901516105f7601f89168261050a565b8355505b6001600288020188555050505b505050505050565b60805161111f6106365f395f818161030101528181610750015261094a015261111f5ff3fe608060405234801561000f575f5ffd5b50600436106100b2575f3560e01c806340c10f191161006f57806340c10f191461018e57806370a08231146101aa57806395d89b41146101da5780639dc29fac146101f8578063a9059cbb14610214578063dd62ed3e14610244576100b2565b806306fdde03146100b657806307546172146100d4578063095ea7b3146100f257806318160ddd1461012257806323b872dd14610140578063313ce56714610170575b5f5ffd5b6100be610274565b6040516100cb9190610d9a565b60405180910390f35b6100dc6102ff565b6040516100e99190610df9565b60405180910390f35b61010c60048036038101906101079190610e73565b610323565b6040516101199190610ecb565b60405180910390f35b61012a610410565b6040516101379190610ef3565b60405180910390f35b61015a60048036038101906101559190610f0c565b610416565b6040516101679190610ecb565b60405180910390f35b610178610749565b6040516101859190610f77565b60405180910390f35b6101a860048036038101906101a39190610e73565b61074e565b005b6101c460048036038101906101bf9190610f90565b6108a7565b6040516101d19190610ef3565b60405180910390f35b6101e26108bc565b6040516101ef9190610d9a565b60405180910390f35b610212600480360381019061020d9190610e73565b610948565b005b61022e60048036038101906102299190610e73565b610b18565b60405161023b9190610ecb565b60405180910390f35b61025e60048036038101906102599190610fbb565b610d0a565b60405161026b9190610ef3565b60405180910390f35b5f805461028090611026565b80601f01602080910402602001604051908101604052809291908181526020018280546102ac90611026565b80156102f75780601f106102ce576101008083540402835291602001916102f7565b820191905f5260205f20905b8154815290600101906020018083116102da57829003601f168201915b505050505081565b7f000000000000000000000000000000000000000000000000000000000000000081565b5f8160045f3373ffffffffffffffffffffffffffffffffffffffff1673ffffffffffffffffffffffffffffffffffffffff1681526020019081526020015f205f8573ffffffffffffffffffffffffffffffffffffffff1673ffffffffffffffffffffffffffffffffffffffff1681526020019081526020015f20819055508273ffffffffffffffffffffffffffffffffffffffff163373ffffffffffffffffffffffffffffffffffffffff167f8c5be1e5ebec7d5bd14f71427d1e84f3dd0314c0f7b2291e5b200ac8c7c3b925846040516103fe9190610ef3565b60405180910390a36001905092915050565b60025481565b5f5f73ffffffffffffffffffffffffffffffffffffffff168373ffffffffffffffffffffffffffffffffffffffff160361047c576040517fd92e233d00000000000000000000000000000000000000000000000000000000815260040160405180910390fd5b8160035f8673ffffffffffffffffffffffffffffffffffffffff1673ffffffffffffffffffffffffffffffffffffffff1681526020019081526020015f205410156104f3576040517ff4d678b800000000000000000000000000000000000000000000000000000000815260040160405180910390fd5b8160045f8673ffffffffffffffffffffffffffffffffffffffff1673ffffffffffffffffffffffffffffffffffffffff1681526020019081526020015f205f3373ffffffffffffffffffffffffffffffffffffffff1673ffffffffffffffffffffffffffffffffffffffff1681526020019081526020015f205410156105a5576040517f13be252b00000000000000000000000000000000000000000000000000000000815260040160405180910390fd5b8160045f8673ffffffffffffffffffffffffffffffffffffffff1673ffffffffffffffffffffffffffffffffffffffff1681526020019081526020015f205f3373ffffffffffffffffffffffffffffffffffffffff1673ffffffffffffffffffffffffffffffffffffffff1681526020019081526020015f205f82825461062c9190611083565b925050819055508160035f8673ffffffffffffffffffffffffffffffffffffffff1673ffffffffffffffffffffffffffffffffffffffff1681526020019081526020015f205f82825461067f9190611083565b925050819055508160035f8573ffffffffffffffffffffffffffffffffffffffff1673ffffffffffffffffffffffffffffffffffffffff1681526020019081526020015f205f8282546106d291906110b6565b925050819055508273ffffffffffffffffffffffffffffffffffffffff168473ffffffffffffffffffffffffffffffffffffffff167fddf252ad1be2c89b69c2b068fc378daa952ba7f163c4a11628f55a4df523b3ef846040516107369190610ef3565b60405180910390a3600190509392505050565b601281565b7f000000000000000000000000000000000000000000000000000000000000000073ffffffffffffffffffffffffffffffffffffffff163373ffffffffffffffffffffffffffffffffffffffff16146107d3576040517ff8d2906c00000000000000000000000000000000000000000000000000000000815260040160405180910390fd5b8060025f8282546107e491906110b6565b925050819055508060035f8473ffffffffffffffffffffffffffffffffffffffff1673ffffffffffffffffffffffffffffffffffffffff1681526020019081526020015f205f82825461083791906110b6565b925050819055508173ffffffffffffffffffffffffffffffffffffffff165f73ffffffffffffffffffffffffffffffffffffffff167fddf252ad1be2c89b69c2b068fc378daa952ba7f163c4a11628f55a4df523b3ef8360405161089b9190610ef3565b60405180910390a35050565b6003602052805f5260405f205f915090505481565b600180546108c990611026565b80601f01602080910402602001604051908101604052809291908181526020018280546108f590611026565b80156109405780601f1061091757610100808354040283529160200191610940565b820191905f5260205f20905b81548152906001019060200180831161092357829003601f168201915b505050505081565b7f000000000000000000000000000000000000000000000000000000000000000073ffffffffffffffffffffffffffffffffffffffff163373ffffffffffffffffffffffffffffffffffffffff16146109cd576040517ff8d2906c00000000000000000000000000000000000000000000000000000000815260040160405180910390fd5b8060035f8473ffffffffffffffffffffffffffffffffffffffff1673ffffffffffffffffffffffffffffffffffffffff1681526020019081526020015f20541015610a44576040517ff4d678b800000000000000000000000000000000000000000000000000000000815260040160405180910390fd5b8060025f828254610a559190611083565b925050819055508060035f8473ffffffffffffffffffffffffffffffffffffffff1673ffffffffffffffffffffffffffffffffffffffff1681526020019081526020015f205f828254610aa89190611083565b925050819055505f73ffffffffffffffffffffffffffffffffffffffff168273ffffffffffffffffffffffffffffffffffffffff167fddf252ad1be2c89b69c2b068fc378daa952ba7f163c4a11628f55a4df523b3ef83604051610b0c9190610ef3565b60405180910390a35050565b5f5f73ffffffffffffffffffffffffffffffffffffffff168373ffffffffffffffffffffffffffffffffffffffff1603610b7e576040517fd92e233d00000000000000000000000000000000000000000000000000000000815260040160405180910390fd5b8160035f3373ffffffffffffffffffffffffffffffffffffffff1673ffffffffffffffffffffffffffffffffffffffff1681526020019081526020015f20541015610bf5576040517ff4d678b800000000000000000000000000000000000000000000000000000000815260040160405180910390fd5b8160035f3373ffffffffffffffffffffffffffffffffffffffff1673ffffffffffffffffffffffffffffffffffffffff1681526020019081526020015f205f828254610c419190611083565b925050819055508160035f8573ffffffffffffffffffffffffffffffffffffffff1673ffffffffffffffffffffffffffffffffffffffff1681526020019081526020015f205f828254610c9491906110b6565b925050819055508273ffffffffffffffffffffffffffffffffffffffff163373ffffffffffffffffffffffffffffffffffffffff167fddf252ad1be2c89b69c2b068fc378daa952ba7f163c4a11628f55a4df523b3ef84604051610cf89190610ef3565b60405180910390a36001905092915050565b6004602052815f5260405f20602052805f5260405f205f91509150505481565b5f81519050919050565b5f82825260208201905092915050565b8281835e5f83830152505050565b5f601f19601f8301169050919050565b5f610d6c82610d2a565b610d768185610d34565b9350610d86818560208601610d44565b610d8f81610d52565b840191505092915050565b5f6020820190508181035f830152610db28184610d62565b905092915050565b5f73ffffffffffffffffffffffffffffffffffffffff82169050919050565b5f610de382610dba565b9050919050565b610df381610dd9565b82525050565b5f602082019050610e0c5f830184610dea565b92915050565b5f5ffd5b610e1f81610dd9565b8114610e29575f5ffd5b50565b5f81359050610e3a81610e16565b92915050565b5f819050919050565b610e5281610e40565b8114610e5c575f5ffd5b50565b5f81359050610e6d81610e49565b92915050565b5f5f60408385031215610e8957610e88610e12565b5b5f610e9685828601610e2c565b9250506020610ea785828601610e5f565b9150509250929050565b5f8115159050919050565b610ec581610eb1565b82525050565b5f602082019050610ede5f830184610ebc565b92915050565b610eed81610e40565b82525050565b5f602082019050610f065f830184610ee4565b92915050565b5f5f5f60608486031215610f2357610f22610e12565b5b5f610f3086828701610e2c565b9350506020610f4186828701610e2c565b9250506040610f5286828701610e5f565b9150509250925092565b5f60ff82169050919050565b610f7181610f5c565b82525050565b5f602082019050610f8a5f830184610f68565b92915050565b5f60208284031215610fa557610fa4610e12565b5b5f610fb284828501610e2c565b91505092915050565b5f5f60408385031215610fd157610fd0610e12565b5b5f610fde85828601610e2c565b9250506020610fef85828601610e2c565b9150509250929050565b7f4e487b71000000000000000000000000000000000000000000000000000000005f52602260045260245ffd5b5f600282049050600182168061103d57607f821691505b6020821081036110505761104f610ff9565b5b50919050565b7f4e487b71000000000000000000000000000000000000000000000000000000005f52601160045260245ffd5b5f61108d82610e40565b915061109883610e40565b92508282039050818111156110b0576110af611056565b5b92915050565b5f6110c082610e40565b91506110cb83610e40565b92508282019050808211156110e3576110e2611056565b5b9291505056fea2646970667358221220f814e527ea7e07c0a828e22a70743011a1bfcf71b9dfe9c13959eadae93b32b964736f6c63430008210033","linkReferences":{}},"methodIdentifiers":{"allowance(address,address)":"dd62ed3e","approve(address,uint256)":"095ea7b3","balanceOf(address)":"70a08231","burn(address,uint256)":"9dc29fac","decimals()":"313ce567","mint(address,uint256)":"40c10f19","minter()":"07546172","name()":"06fdde03","symbol()":"95d89b41","totalSupply()":"18160ddd","transfer(address,uint256)":"a9059cbb","transferFrom(address,address,uint256)":"23b872dd"},"id":37}