{"abi":[{"type":"constructor","inputs":[{"name":"_factory","type":"address","internalType":"address"}],"stateMutability":"nonpayable"},{"type":"function","name":"balanceOf","inputs":[{"name":"","type":"address","internalType":"address"},{"name":"","type":"uint256","internalType":"uint256"}],"outputs":[{"name":"","type":"uint256","internalType":"uint256"}],"stateMutability":"view"},{"type":"function","name":"balanceOfBatch","inputs":[{"name":"owners","type":"address[]","internalType":"address[]"},{"name":"ids","type":"uint256[]","internalType":"uint256[]"}],"outputs":[{"name":"balances","type":"uint256[]","internalType":"uint256[]"}],"stateMutability":"view"},{"type":"function","name":"burn","inputs":[{"name":"from","type":"address","internalType":"address"},{"name":"tokenId","type":"uint256","internalType":"uint256"},{"name":"amount","type":"uint256","internalType":"uint256"}],"outputs":[],"stateMutability":"nonpayable"},{"type":"function","name":"factory","inputs":[],"outputs":[{"name":"","type":"address","internalType":"address"}],"stateMutability":"view"},{"type":"function","name":"isApprovedForAll","inputs":[{"name":"","type":"address","internalType":"address"},{"name":"","type":"address","internalType":"address"}],"outputs":[{"name":"","type":"bool","internalType":"bool"}],"stateMutability":"view"},{"type":"function","name":"mint","inputs":[{"name":"to","type":"address","internalType":"address"},{"name":"tokenId","type":"uint256","internalType":"uint256"},{"name":"amount","type":"uint256","internalType":"uint256"}],"outputs":[],"stateMutability":"nonpayable"},{"type":"function","name":"noTokenId","inputs":[{"name":"marketId","type":"uint256","internalType":"uint256"}],"outputs":[{"name":"","type":"uint256","internalType":"uint256"}],"stateMutability":"pure"},{"type":"function","name":"safeBatchTransferFrom","inputs":[{"name":"from","type":"address","internalType":"address"},{"name":"to","type":"address","internalType":"address"},{"name":"ids","type":"uint256[]","internalType":"uint256[]"},{"name":"amounts","type":"uint256[]","internalType":"uint256[]"},{"name":"","type":"bytes","internalType":"bytes"}],"outputs":[],"stateMutability":"nonpayable"},{"type":"function","name":"safeTransferFrom","inputs":[{"name":"from","type":"address","internalType":"address"},{"name":"to","type":"address","internalType":"address"},{"name":"id","type":"uint256","internalType":"uint256"},{"name":"amount","type":"uint256","internalType":"uint256"},{"name":"","type":"bytes","internalType":"bytes"}],"outputs":[],"stateMutability":"nonpayable"},{"type":"function","name":"setApprovalForAll","inputs":[{"name":"operator","type":"address","internalType":"address"},{"name":"approved","type":"bool","internalType":"bool"}],"outputs":[],"stateMutability":"nonpayable"},{"type":"function","name":"yesTokenId","inputs":[{"name":"marketId","type":"uint256","internalType":"uint256"}],"outputs":[{"name":"","type":"uint256","internalType":"uint256"}],"stateMutability":"pure"},{"type":"event","name":"ApprovalForAll","inputs":[{"name":"owner","type":"address","indexed":true,"internalType":"address"},{"name":"operator","type":"address","indexed":true,"internalType":"address"},{"name":"approved","type":"bool","indexed":false,"internalType":"bool"}],"anonymous":false},{"type":"event","name":"TransferBatch","inputs":[{"name":"operator","type":"address","indexed":true,"internalType":"address"},{"name":"from","type":"address","indexed":true,"internalType":"address"},{"name":"to","type":"address","indexed":true,"internalType":"address"},{"name":"ids","type":"uint256[]","indexed":false,"internalType":"uint256[]"},{"name":"values","type":"uint256[]","indexed":false,"internalType":"uint256[]"}],"anonymous":false},{"type":"event","name":"TransferSingle","inputs":[{"name":"operator","type":"address","indexed":true,"internalType":"address"},{"name":"from","type":"address","indexed":true,"internalType":"address"},{"name":"to","type":"address","indexed":true,"internalType":"address"},{"name":"id","type":"uint256","indexed":false,"internalType":"uint256"},{"name":"value","type":"uint256","indexed":false,"internalType":"uint256"}],"anonymous":false},{"type":"error","name":"InsufficientBalance","inputs":[]},{"type":"error","name":"LengthMismatch","inputs":[]},{"type":"error","name":"NotApproved","inputs":[]},{"type":"error","name":"NotFactory","inputs":[]},{"type":"error","name":"ZeroAddress","inputs":[]}],"bytecode":{"object":"0x60a060405234801561000f575f5ffd5b506040516119f73803806119f78339818101604052810190610031919061012e565b5f73ffffffffffffffffffffffffffffffffffffffff168173ffffffffffffffffffffffffffffffffffffffff1603610096576040517fd92e233d00000000000000000000000000000000000000000000000000000000815260040160405180910390fd5b8073ffffffffffffffffffffffffffffffffffffffff1660808173ffffffffffffffffffffffffffffffffffffffff168152505050610159565b5f5ffd5b5f73ffffffffffffffffffffffffffffffffffffffff82169050919050565b5f6100fd826100d4565b9050919050565b61010d816100f3565b8114610117575f5ffd5b50565b5f8151905061012881610104565b92915050565b5f60208284031215610143576101426100d0565b5b5f6101508482850161011a565b91505092915050565b60805161187861017f5f395f818161026501528181610a670152610df101526118785ff3fe608060405234801561000f575f5ffd5b50600436106100a6575f3560e01c8063a22cb4651161006f578063a22cb46514610172578063c45a01551461018e578063e729dc30146101ac578063e985e9c5146101dc578063f242432a1461020c578063f5298aca14610228576100a6565b8062fdd58e146100aa578063156e29f6146100da5780632eb2c2d6146100f65780633c39b357146101125780634e1273f414610142575b5f5ffd5b6100c460048036038101906100bf9190611072565b610244565b6040516100d191906110bf565b60405180910390f35b6100f460048036038101906100ef91906110d8565b610263565b005b610110600480360381019061010b91906111de565b6103cc565b005b61012c600480360381019061012791906112b5565b6107ec565b60405161013991906110bf565b60405180910390f35b61015c60048036038101906101579190611335565b61080d565b604051610169919061146a565b60405180910390f35b61018c600480360381019061018791906114bf565b61096d565b005b610196610a65565b6040516101a3919061150c565b60405180910390f35b6101c660048036038101906101c191906112b5565b610a89565b6040516101d391906110bf565b60405180910390f35b6101f660048036038101906101f19190611525565b610a9e565b6040516102039190611572565b60405180910390f35b6102266004803603810190610221919061158b565b610ac8565b005b610242600480360381019061023d91906110d8565b610def565b005b5f602052815f5260405f20602052805f5260405f205f91509150505481565b7f000000000000000000000000000000000000000000000000000000000000000073ffffffffffffffffffffffffffffffffffffffff163373ffffffffffffffffffffffffffffffffffffffff16146102e8576040517f32cc723600000000000000000000000000000000000000000000000000000000815260040160405180910390fd5b805f5f8573ffffffffffffffffffffffffffffffffffffffff1673ffffffffffffffffffffffffffffffffffffffff1681526020019081526020015f205f8481526020019081526020015f205f828254610342919061164e565b925050819055508273ffffffffffffffffffffffffffffffffffffffff165f73ffffffffffffffffffffffffffffffffffffffff163373ffffffffffffffffffffffffffffffffffffffff167fc3d58168c5ae7397731d063d5bbf3d657854427343f4c083240f7aacaa2d0f6285856040516103bf929190611681565b60405180910390a4505050565b5f73ffffffffffffffffffffffffffffffffffffffff168773ffffffffffffffffffffffffffffffffffffffff1603610431576040517fd92e233d00000000000000000000000000000000000000000000000000000000815260040160405180910390fd5b3373ffffffffffffffffffffffffffffffffffffffff168873ffffffffffffffffffffffffffffffffffffffff16141580156104ef575060015f8973ffffffffffffffffffffffffffffffffffffffff1673ffffffffffffffffffffffffffffffffffffffff1681526020019081526020015f205f3373ffffffffffffffffffffffffffffffffffffffff1673ffffffffffffffffffffffffffffffffffffffff1681526020019081526020015f205f9054906101000a900460ff16155b15610526576040517fc19f17a900000000000000000000000000000000000000000000000000000000815260040160405180910390fd5b838390508686905014610565576040517fff633a3800000000000000000000000000000000000000000000000000000000815260040160405180910390fd5b5f5f90505b8686905081101561075f57848482818110610588576105876116a8565b5b905060200201355f5f8b73ffffffffffffffffffffffffffffffffffffffff1673ffffffffffffffffffffffffffffffffffffffff1681526020019081526020015f205f8989858181106105df576105de6116a8565b5b9050602002013581526020019081526020015f2054101561062c576040517ff4d678b800000000000000000000000000000000000000000000000000000000815260040160405180910390fd5b84848281811061063f5761063e6116a8565b5b905060200201355f5f8b73ffffffffffffffffffffffffffffffffffffffff1673ffffffffffffffffffffffffffffffffffffffff1681526020019081526020015f205f898985818110610696576106956116a8565b5b9050602002013581526020019081526020015f205f8282546106b891906116d5565b925050819055508484828181106106d2576106d16116a8565b5b905060200201355f5f8a73ffffffffffffffffffffffffffffffffffffffff1673ffffffffffffffffffffffffffffffffffffffff1681526020019081526020015f205f898985818110610729576107286116a8565b5b9050602002013581526020019081526020015f205f82825461074b919061164e565b92505081905550808060010191505061056a565b508673ffffffffffffffffffffffffffffffffffffffff168873ffffffffffffffffffffffffffffffffffffffff163373ffffffffffffffffffffffffffffffffffffffff167f4a39dc06d4c0dbc64b70af90fd698a233a518aa5d07e595d983b8c0526c8f7fb898989896040516107da9493929190611770565b60405180910390a45050505050505050565b5f60016002836107fc91906117a9565b610806919061164e565b9050919050565b606082829050858590501461084e576040517fff633a3800000000000000000000000000000000000000000000000000000000815260040160405180910390fd5b8484905067ffffffffffffffff81111561086b5761086a6117ea565b5b6040519080825280602002602001820160405280156108995781602001602082028036833780820191505090505b5090505f5f90505b85859050811015610964575f5f8787848181106108c1576108c06116a8565b5b90506020020160208101906108d69190611817565b73ffffffffffffffffffffffffffffffffffffffff1673ffffffffffffffffffffffffffffffffffffffff1681526020019081526020015f205f858584818110610923576109226116a8565b5b9050602002013581526020019081526020015f205482828151811061094b5761094a6116a8565b5b60200260200101818152505080806001019150506108a1565b50949350505050565b8060015f3373ffffffffffffffffffffffffffffffffffffffff1673ffffffffffffffffffffffffffffffffffffffff1681526020019081526020015f205f8473ffffffffffffffffffffffffffffffffffffffff1673ffffffffffffffffffffffffffffffffffffffff1681526020019081526020015f205f6101000a81548160ff0219169083151502179055508173ffffffffffffffffffffffffffffffffffffffff163373ffffffffffffffffffffffffffffffffffffffff167f17307eab39ab6107e8899845ad3d59bd9653f200f220920489ca2b5937696c3183604051610a599190611572565b60405180910390a35050565b7f000000000000000000000000000000000000000000000000000000000000000081565b5f600282610a9791906117a9565b9050919050565b6001602052815f5260405f20602052805f5260405f205f915091509054906101000a900460ff1681565b5f73ffffffffffffffffffffffffffffffffffffffff168573ffffffffffffffffffffffffffffffffffffffff1603610b2d576040517fd92e233d00000000000000000000000000000000000000000000000000000000815260040160405180910390fd5b3373ffffffffffffffffffffffffffffffffffffffff168673ffffffffffffffffffffffffffffffffffffffff1614158015610beb575060015f8773ffffffffffffffffffffffffffffffffffffffff1673ffffffffffffffffffffffffffffffffffffffff1681526020019081526020015f205f3373ffffffffffffffffffffffffffffffffffffffff1673ffffffffffffffffffffffffffffffffffffffff1681526020019081526020015f205f9054906101000a900460ff16155b15610c22576040517fc19f17a900000000000000000000000000000000000000000000000000000000815260040160405180910390fd5b825f5f8873ffffffffffffffffffffffffffffffffffffffff1673ffffffffffffffffffffffffffffffffffffffff1681526020019081526020015f205f8681526020019081526020015f20541015610ca7576040517ff4d678b800000000000000000000000000000000000000000000000000000000815260040160405180910390fd5b825f5f8873ffffffffffffffffffffffffffffffffffffffff1673ffffffffffffffffffffffffffffffffffffffff1681526020019081526020015f205f8681526020019081526020015f205f828254610d0191906116d5565b92505081905550825f5f8773ffffffffffffffffffffffffffffffffffffffff1673ffffffffffffffffffffffffffffffffffffffff1681526020019081526020015f205f8681526020019081526020015f205f828254610d62919061164e565b925050819055508473ffffffffffffffffffffffffffffffffffffffff168673ffffffffffffffffffffffffffffffffffffffff163373ffffffffffffffffffffffffffffffffffffffff167fc3d58168c5ae7397731d063d5bbf3d657854427343f4c083240f7aacaa2d0f628787604051610ddf929190611681565b60405180910390a4505050505050565b7f000000000000000000000000000000000000000000000000000000000000000073ffffffffffffffffffffffffffffffffffffffff163373ffffffffffffffffffffffffffffffffffffffff1614610e74576040517f32cc723600000000000000000000000000000000000000000000000000000000815260040160405180910390fd5b805f5f8573ffffffffffffffffffffffffffffffffffffffff1673ffffffffffffffffffffffffffffffffffffffff1681526020019081526020015f205f8481526020019081526020015f20541015610ef9576040517ff4d678b800000000000000000000000000000000000000000000000000000000815260040160405180910390fd5b805f5f8573ffffffffffffffffffffffffffffffffffffffff1673ffffffffffffffffffffffffffffffffffffffff1681526020019081526020015f205f8481526020019081526020015f205f828254610f5391906116d5565b925050819055505f73ffffffffffffffffffffffffffffffffffffffff168373ffffffffffffffffffffffffffffffffffffffff163373ffffffffffffffffffffffffffffffffffffffff167fc3d58168c5ae7397731d063d5bbf3d657854427343f4c083240f7aacaa2d0f628585604051610fd0929190611681565b60405180910390a4505050565b5f5ffd5b5f5ffd5b5f73ffffffffffffffffffffffffffffffffffffffff82169050919050565b5f61100e82610fe5565b9050919050565b61101e81611004565b8114611028575f5ffd5b50565b5f8135905061103981611015565b92915050565b5f819050919050565b6110518161103f565b811461105b575f5ffd5b50565b5f8135905061106c81611048565b92915050565b5f5f6040838503121561108857611087610fdd565b5b5f6110958582860161102b565b92505060206110a68582860161105e565b9150509250929050565b6110b98161103f565b82525050565b5f6020820190506110d25f8301846110b0565b92915050565b5f5f5f606084860312156110ef576110ee610fdd565b5b5f6110fc8682870161102b565b935050602061110d8682870161105e565b925050604061111e8682870161105e565b9150509250925092565b5f5ffd5b5f5ffd5b5f5ffd5b5f5f83601f84011261114957611148611128565b5b8235905067ffffffffffffffff8111156111665761116561112c565b5b60208301915083602082028301111561118257611181611130565b5b9250929050565b5f5f83601f84011261119e5761119d611128565b5b8235905067ffffffffffffffff8111156111bb576111ba61112c565b5b6020830191508360018202830111156111d7576111d6611130565b5b9250929050565b5f5f5f5f5f5f5f5f60a0898b0312156111fa576111f9610fdd565b5b5f6112078b828c0161102b565b98505060206112188b828c0161102b565b975050604089013567ffffffffffffffff81111561123957611238610fe1565b5b6112458b828c01611134565b9650965050606089013567ffffffffffffffff81111561126857611267610fe1565b5b6112748b828c01611134565b9450945050608089013567ffffffffffffffff81111561129757611296610fe1565b5b6112a38b828c01611189565b92509250509295985092959890939650565b5f602082840312156112ca576112c9610fdd565b5b5f6112d78482850161105e565b91505092915050565b5f5f83601f8401126112f5576112f4611128565b5b8235905067ffffffffffffffff8111156113125761131161112c565b5b60208301915083602082028301111561132e5761132d611130565b5b9250929050565b5f5f5f5f6040858703121561134d5761134c610fdd565b5b5f85013567ffffffffffffffff81111561136a57611369610fe1565b5b611376878288016112e0565b9450945050602085013567ffffffffffffffff81111561139957611398610fe1565b5b6113a587828801611134565b925092505092959194509250565b5f81519050919050565b5f82825260208201905092915050565b5f819050602082019050919050565b6113e58161103f565b82525050565b5f6113f683836113dc565b60208301905092915050565b5f602082019050919050565b5f611418826113b3565b61142281856113bd565b935061142d836113cd565b805f5b8381101561145d57815161144488826113eb565b975061144f83611402565b925050600181019050611430565b5085935050505092915050565b5f6020820190508181035f830152611482818461140e565b905092915050565b5f8115159050919050565b61149e8161148a565b81146114a8575f5ffd5b50565b5f813590506114b981611495565b92915050565b5f5f604083850312156114d5576114d4610fdd565b5b5f6114e28582860161102b565b92505060206114f3858286016114ab565b9150509250929050565b61150681611004565b82525050565b5f60208201905061151f5f8301846114fd565b92915050565b5f5f6040838503121561153b5761153a610fdd565b5b5f6115488582860161102b565b92505060206115598582860161102b565b9150509250929050565b61156c8161148a565b82525050565b5f6020820190506115855f830184611563565b92915050565b5f5f5f5f5f5f60a087890312156115a5576115a4610fdd565b5b5f6115b289828a0161102b565b96505060206115c389828a0161102b565b95505060406115d489828a0161105e565b94505060606115e589828a0161105e565b935050608087013567ffffffffffffffff81111561160657611605610fe1565b5b61161289828a01611189565b92509250509295509295509295565b7f4e487b71000000000000000000000000000000000000000000000000000000005f52601160045260245ffd5b5f6116588261103f565b91506116638361103f565b925082820190508082111561167b5761167a611621565b5b92915050565b5f6040820190506116945f8301856110b0565b6116a160208301846110b0565b9392505050565b7f4e487b71000000000000000000000000000000000000000000000000000000005f52603260045260245ffd5b5f6116df8261103f565b91506116ea8361103f565b925082820390508181111561170257611701611621565b5b92915050565b5f5ffd5b82818337505050565b5f61172083856113bd565b93507f07ffffffffffffffffffffffffffffffffffffffffffffffffffffffffffffff83111561175357611752611708565b5b60208302925061176483858461170c565b82840190509392505050565b5f6040820190508181035f830152611789818688611715565b9050818103602083015261179e818486611715565b905095945050505050565b5f6117b38261103f565b91506117be8361103f565b92508282026117cc8161103f565b915082820484148315176117e3576117e2611621565b5b5092915050565b7f4e487b71000000000000000000000000000000000000000000000000000000005f52604160045260245ffd5b5f6020828403121561182c5761182b610fdd565b5b5f6118398482850161102b565b9150509291505056fea2646970667358221220e21c20ba1ed89fe2e5574698172780ff669dddafb63b8f78692cc972634a5e0c64736f6c63430008210033","linkReferences":{}},"methodIdentifiers":{"balanceOf(address,uint256)":"00fdd58e","balanceOfBatch(address[],uint256[])":"4e1273f4","burn(address,uint256,uint256)":"f5298aca","factory()":"c45a0155","isApprovedForAll(address,address)":"e985e9c5","mint(address,uint256,uint256)":"156e29f6","noTokenId(uint256)":"3c39b357","safeBatchTransferFrom(address,address,uint256[],uint256[],bytes)":"2eb2c2d6","safeTransferFrom(address,address,uint256,uint256,bytes)":"f242432a","setApprovalForAll(address,bool)":"a22cb465","yesTokenId(uint256)":"e729dc30"},"id":33}