{"abi":[{"type":"constructor","inputs":[{"name":"_poolManager","type":"address","internalType":"address"},{"name":"_ubiPool","type":"address","internalType":"address"},{"name":"_ubiFeeShareBPS","type":"uint256","internalType":"uint256"},{"name":"_admin","type":"address","internalType":"address"}],"stateMutability":"nonpayable"},{"type":"function","name":"BPS_DENOMINATOR","inputs":[],"outputs":[{"name":"","type":"uint256","internalType":"uint256"}],"stateMutability":"view"},{"type":"function","name":"MAX_FEE_BPS","inputs":[],"outputs":[{"name":"","type":"uint256","internalType":"uint256"}],"stateMutability":"view"},{"type":"function","name":"admin","inputs":[],"outputs":[{"name":"","type":"address","internalType":"address"}],"stateMutability":"view"},{"type":"function","name":"afterSwap","inputs":[{"name":"","type":"address","internalType":"address"},{"name":"key","type":"tuple","internalType":"struct PoolKey","components":[{"name":"currency0","type":"address","internalType":"address"},{"name":"currency1","type":"address","internalType":"address"},{"name":"fee","type":"uint24","internalType":"uint24"},{"name":"tickSpacing","type":"int24","internalType":"int24"},{"name":"hooks","type":"address","internalType":"address"}]},{"name":"params","type":"tuple","internalType":"struct SwapParams","components":[{"name":"zeroForOne","type":"bool","internalType":"bool"},{"name":"amountSpecified","type":"int256","internalType":"int256"},{"name":"sqrtPriceLimitX96","type":"uint160","internalType":"uint160"}]},{"name":"delta","type":"tuple","internalType":"struct BalanceDelta","components":[{"name":"amount0","type":"int128","internalType":"int128"},{"name":"amount1","type":"int128","internalType":"int128"}]},{"name":"","type":"bytes","internalType":"bytes"}],"outputs":[{"name":"","type":"bytes4","internalType":"bytes4"}],"stateMutability":"nonpayable"},{"type":"function","name":"calculateUBIFee","inputs":[{"name":"amount","type":"uint256","internalType":"uint256"}],"outputs":[{"name":"","type":"uint256","internalType":"uint256"}],"stateMutability":"view"},{"type":"function","name":"getHookPermissions","inputs":[],"outputs":[{"name":"","type":"tuple","internalType":"struct Hooks","components":[{"name":"beforeInitialize","type":"bool","internalType":"bool"},{"name":"afterInitialize","type":"bool","internalType":"bool"},{"name":"beforeAddLiquidity","type":"bool","internalType":"bool"},{"name":"afterAddLiquidity","type":"bool","internalType":"bool"},{"name":"beforeRemoveLiquidity","type":"bool","internalType":"bool"},{"name":"afterRemoveLiquidity","type":"bool","internalType":"bool"},{"name":"beforeSwap","type":"bool","internalType":"bool"},{"name":"afterSwap","type":"bool","internalType":"bool"},{"name":"beforeDonate","type":"bool","internalType":"bool"},{"name":"afterDonate","type":"bool","internalType":"bool"}]}],"stateMutability":"pure"},{"type":"function","name":"getUBIFeesForToken","inputs":[{"name":"token","type":"address","internalType":"address"}],"outputs":[{"name":"","type":"uint256","internalType":"uint256"}],"stateMutability":"view"},{"type":"function","name":"paused","inputs":[],"outputs":[{"name":"","type":"bool","internalType":"bool"}],"stateMutability":"view"},{"type":"function","name":"poolManager","inputs":[],"outputs":[{"name":"","type":"address","internalType":"address"}],"stateMutability":"view"},{"type":"function","name":"rescueTokens","inputs":[{"name":"token","type":"address","internalType":"address"},{"name":"to","type":"address","internalType":"address"},{"name":"amount","type":"uint256","internalType":"uint256"}],"outputs":[],"stateMutability":"nonpayable"},{"type":"function","name":"setAdmin","inputs":[{"name":"newAdmin","type":"address","internalType":"address"}],"outputs":[],"stateMutability":"nonpayable"},{"type":"function","name":"setPaused","inputs":[{"name":"_paused","type":"bool","internalType":"bool"}],"outputs":[],"stateMutability":"nonpayable"},{"type":"function","name":"setUBIFeeShare","inputs":[{"name":"newBPS","type":"uint256","internalType":"uint256"}],"outputs":[],"stateMutability":"nonpayable"},{"type":"function","name":"setUBIPool","inputs":[{"name":"newPool","type":"address","internalType":"address"}],"outputs":[],"stateMutability":"nonpayable"},{"type":"function","name":"totalSwapsProcessed","inputs":[],"outputs":[{"name":"","type":"uint256","internalType":"uint256"}],"stateMutability":"view"},{"type":"function","name":"totalUBIFees","inputs":[{"name":"","type":"address","internalType":"address"}],"outputs":[{"name":"","type":"uint256","internalType":"uint256"}],"stateMutability":"view"},{"type":"function","name":"ubiFeeShareBPS","inputs":[],"outputs":[{"name":"","type":"uint256","internalType":"uint256"}],"stateMutability":"view"},{"type":"function","name":"ubiPool","inputs":[],"outputs":[{"name":"","type":"address","internalType":"address"}],"stateMutability":"view"},{"type":"event","name":"AdminUpdated","inputs":[{"name":"oldAdmin","type":"address","indexed":false,"internalType":"address"},{"name":"newAdmin","type":"address","indexed":false,"internalType":"address"}],"anonymous":false},{"type":"event","name":"HookPaused","inputs":[{"name":"isPaused","type":"bool","indexed":false,"internalType":"bool"}],"anonymous":false},{"type":"event","name":"UBIFeeCollected","inputs":[{"name":"token","type":"address","indexed":true,"internalType":"address"},{"name":"feeAmount","type":"uint256","indexed":false,"internalType":"uint256"},{"name":"ubiShare","type":"uint256","indexed":false,"internalType":"uint256"},{"name":"pool","type":"address","indexed":true,"internalType":"address"}],"anonymous":false},{"type":"event","name":"UBIFeeShareUpdated","inputs":[{"name":"oldBPS","type":"uint256","indexed":false,"internalType":"uint256"},{"name":"newBPS","type":"uint256","indexed":false,"internalType":"uint256"}],"anonymous":false},{"type":"event","name":"UBIPoolUpdated","inputs":[{"name":"oldPool","type":"address","indexed":false,"internalType":"address"},{"name":"newPool","type":"address","indexed":false,"internalType":"address"}],"anonymous":false},{"type":"error","name":"FeeTooHigh","inputs":[]},{"type":"error","name":"HookIsPaused","inputs":[]},{"type":"error","name":"NotAdmin","inputs":[]},{"type":"error","name":"NotPoolManager","inputs":[]},{"type":"error","name":"TransferFailed","inputs":[]},{"type":"error","name":"ZeroAddress","inputs":[]}],"bytecode":{"object":"0x60a0346100ff57601f610b0e38819003918201601f19168301916001600160401b03831184841017610103578084926080946040528339810103126100ff5761004781610117565b9061005460208201610117565b610065606060408401519301610117565b906001600160a01b038416156100f0576001600160a01b03169081156100f0576001600160a01b03169283156100f05761138883116100e15760805260018060a01b03195f5416175f5560015560018060a01b031960025416176002556040516109e2908161012c823960805181818161013f015261022f0152f35b63cd4e616760e01b5f5260045ffd5b63d92e233d60e01b5f5260045ffd5b5f80fd5b634e487b7160e01b5f52604160045260245ffd5b51906001600160a01b03821682036100ff5756fe6080806040526004361015610012575f80fd5b5f3560e01c90816316c38b3c146106d157508063402af484146106595780634f3f998f146105c457806354a3793e146105675780635c975abb1461059f57806364496c6f14610567578063704b6c02146104cf578063860c22f1146104b25780638b8dc8fa14610495578063a06f7da71461046e578063c4e833ce1461036c578063cea9d26f14610289578063d1c18819146101b0578063d55be8c614610194578063d5921f141461016e578063dc4c90d31461012a578063e1a452181461010e5763f851a440146100e2575f80fd5b3461010a575f36600319011261010a576002546040516001600160a01b039091168152602090f35b5f80fd5b3461010a575f36600319011261010a5760206040516127108152f35b3461010a575f36600319011261010a576040517f00000000000000000000000000000000000000000000000000000000000000006001600160a01b03168152602090f35b3461010a57602036600319011261010a57602061018c60043561097c565b604051908152f35b3461010a575f36600319011261010a5760206040516113888152f35b3461010a5761018036600319011261010a576101ca610747565b5060a036602319011261010a5760603660c319011261010a5760403661012319011261010a576101643567ffffffffffffffff811161010a573660238201121561010a57806004013567ffffffffffffffff811161010a573691016024011161010a577f00000000000000000000000000000000000000000000000000000000000000006001600160a01b0316330361027a5760206102676107b0565b6040516001600160e01b03199091168152f35b63570c108560e11b5f5260045ffd5b3461010a57606036600319011261010a576102a2610747565b6024356001600160a01b0381169081900361010a576002546001600160a01b0316330361035d57801561034e5760405163a9059cbb60e01b815260048101919091526044803560248301529091602091839182905f906001600160a01b03165af180156103435761030f57005b6020813d60201161033b575b816103286020938361078e565b8101031261010a57518015150361010a57005b3d915061031b565b6040513d5f823e3d90fd5b63d92e233d60e01b5f5260045ffd5b637bfa4b9f60e01b5f5260045ffd5b3461010a575f36600319011261010a575f61012060405161038c8161075d565b8281528260208201528260408201528260608201528260808201528260a08201528260c08201528260e08201528261010082015201526101406040516103d18161075d565b5f815260208101905f825260408101905f8252606081015f8152608082015f815260a083015f815260c08401915f835260e0850193600185526101206101008701965f885201965f8852604051985f8a5251151560208a015251151560408901525115156060880152511515608087015251151560a086015251151560c085015251151560e0840152511515610100830152511515610120820152f35b3461010a575f36600319011261010a575f546040516001600160a01b039091168152602090f35b3461010a575f36600319011261010a576020600454604051908152f35b3461010a575f36600319011261010a576020600154604051908152f35b3461010a57602036600319011261010a576104e8610747565b600254906001600160a01b0382163381900361035d576001600160a01b038216801561034e576001600160a01b031993909316909217600255604080516001600160a01b0393841681529190921660208201527f101b8081ff3b56bbf45deb824d86a3b0fd38b7e3dd42421105cf8abe9106db0b91819081015b0390a1005b3461010a57602036600319011261010a576001600160a01b03610588610747565b165f526003602052602060405f2054604051908152f35b3461010a575f36600319011261010a57602060ff60025460a01c166040519015158152f35b3461010a57602036600319011261010a576105dd610747565b6002546001600160a01b0316330361035d576001600160a01b03811690811561034e575f80546001600160a01b031981169093179055604080516001600160a01b0393841681529290911660208301527fd0b5fd4a1ad96329d0b73f65c3ef7b6d2d7eed54cc7045ecf38a8548de9e526b919081908101610562565b3461010a57602036600319011261010a57600254600435906001600160a01b0316330361035d5761138881116106c25760407f0f7f25e7d7dcea40ccf115603293fe697d91c4c831eccce842f57cc95f7dcbb891600154908060015582519182526020820152a1005b63cd4e616760e01b5f5260045ffd5b3461010a57602036600319011261010a576004359081151580920361010a57600254906001600160a01b038216330361035d5760ff60a01b1990911660a083901b60ff60a01b16176002559081527f5a7875a14cc4fe5819714bb97d945e04e6b4c0e9a07eb6dce507fb335f5798a190602090a1005b600435906001600160a01b038216820361010a57565b610140810190811067ffffffffffffffff82111761077a57604052565b634e487b7160e01b5f52604160045260245ffd5b90601f8019910116810190811067ffffffffffffffff82111761077a57604052565b60025460ff5f9160a01c166109705760c435801515810361010a5715610938576044356001600160a01b038116810361010a57906101443580600f0b80820361010a575f1215610931576001600160801b03165b8015610922576108138161097c565b928315610912575f546001600160a01b0316803b1561010a575f80916024604051809481936383adc2ff60e01b83528a60048401525af18015610343576108fd575b506001600160a01b03168083526003602052604083208054919391858101919082106108e957556004545f1981146108d557600101600455546040805192835260208301949094526001600160a01b0316927fbc242f5093768aa93572c8496fa881527bd1bbb323867dd5f420727783b4eead91a363d1c1881960e01b90565b634e487b7160e01b82526011600452602482fd5b634e487b7160e01b83526011600452602483fd5b61090a9193505f9061078e565b5f915f610855565b5063d1c1881960e01b9392505050565b5063d1c1881960e01b92915050565b505f610804565b6024356001600160a01b038116810361010a57906101243580600f0b80820361010a575f1215610931576001600160801b0316610804565b5063d1c1881960e01b90565b6001549081810291818304149015171561099857612710900490565b634e487b7160e01b5f52601160045260245ffdfea2646970667358221220bd1fd12f21c914a69dc00a3c2b5e70fceabae0b1aa9de89765a5985edf7a275064736f6c63430008210033","linkReferences":{}},"methodIdentifiers":{"BPS_DENOMINATOR()":"e1a45218","MAX_FEE_BPS()":"d55be8c6","admin()":"f851a440","afterSwap(address,(address,address,uint24,int24,address),(bool,int256,uint160),(int128,int128),bytes)":"d1c18819","calculateUBIFee(uint256)":"d5921f14","getHookPermissions()":"c4e833ce","getUBIFeesForToken(address)":"54a3793e","paused()":"5c975abb","poolManager()":"dc4c90d3","rescueTokens(address,address,uint256)":"cea9d26f","setAdmin(address)":"704b6c02","setPaused(bool)":"16c38b3c","setUBIFeeShare(uint256)":"402af484","setUBIPool(address)":"4f3f998f","totalSwapsProcessed()":"8b8dc8fa","totalUBIFees(address)":"64496c6f","ubiFeeShareBPS()":"860c22f1","ubiPool()":"a06f7da7"},"id":26}