{"abi":[{"type":"constructor","inputs":[{"name":"_poolManager","type":"address","internalType":"address"},{"name":"_ubiPool","type":"address","internalType":"address"},{"name":"_ubiFeeShareBPS","type":"uint256","internalType":"uint256"},{"name":"_admin","type":"address","internalType":"address"}],"stateMutability":"nonpayable"},{"type":"function","name":"BPS_DENOMINATOR","inputs":[],"outputs":[{"name":"","type":"uint256","internalType":"uint256"}],"stateMutability":"view"},{"type":"function","name":"MAX_FEE_BPS","inputs":[],"outputs":[{"name":"","type":"uint256","internalType":"uint256"}],"stateMutability":"view"},{"type":"function","name":"admin","inputs":[],"outputs":[{"name":"","type":"address","internalType":"address"}],"stateMutability":"view"},{"type":"function","name":"afterSwap","inputs":[{"name":"","type":"address","internalType":"address"},{"name":"key","type":"tuple","internalType":"struct PoolKey","components":[{"name":"currency0","type":"address","internalType":"address"},{"name":"currency1","type":"address","internalType":"address"},{"name":"fee","type":"uint24","internalType":"uint24"},{"name":"tickSpacing","type":"int24","internalType":"int24"},{"name":"hooks","type":"address","internalType":"address"}]},{"name":"params","type":"tuple","internalType":"struct SwapParams","components":[{"name":"zeroForOne","type":"bool","internalType":"bool"},{"name":"amountSpecified","type":"int256","internalType":"int256"},{"name":"sqrtPriceLimitX96","type":"uint160","internalType":"uint160"}]},{"name":"delta","type":"tuple","internalType":"struct BalanceDelta","components":[{"name":"amount0","type":"int128","internalType":"int128"},{"name":"amount1","type":"int128","internalType":"int128"}]},{"name":"","type":"bytes","internalType":"bytes"}],"outputs":[{"name":"","type":"bytes4","internalType":"bytes4"}],"stateMutability":"nonpayable"},{"type":"function","name":"calculateUBIFee","inputs":[{"name":"amount","type":"uint256","internalType":"uint256"}],"outputs":[{"name":"","type":"uint256","internalType":"uint256"}],"stateMutability":"view"},{"type":"function","name":"getHookPermissions","inputs":[],"outputs":[{"name":"","type":"tuple","internalType":"struct Hooks","components":[{"name":"beforeInitialize","type":"bool","internalType":"bool"},{"name":"afterInitialize","type":"bool","internalType":"bool"},{"name":"beforeAddLiquidity","type":"bool","internalType":"bool"},{"name":"afterAddLiquidity","type":"bool","internalType":"bool"},{"name":"beforeRemoveLiquidity","type":"bool","internalType":"bool"},{"name":"afterRemoveLiquidity","type":"bool","internalType":"bool"},{"name":"beforeSwap","type":"bool","internalType":"bool"},{"name":"afterSwap","type":"bool","internalType":"bool"},{"name":"beforeDonate","type":"bool","internalType":"bool"},{"name":"afterDonate","type":"bool","internalType":"bool"}]}],"stateMutability":"pure"},{"type":"function","name":"getUBIFeesForToken","inputs":[{"name":"token","type":"address","internalType":"address"}],"outputs":[{"name":"","type":"uint256","internalType":"uint256"}],"stateMutability":"view"},{"type":"function","name":"paused","inputs":[],"outputs":[{"name":"","type":"bool","internalType":"bool"}],"stateMutability":"view"},{"type":"function","name":"poolManager","inputs":[],"outputs":[{"name":"","type":"address","internalType":"address"}],"stateMutability":"view"},{"type":"function","name":"rescueTokens","inputs":[{"name":"token","type":"address","internalType":"address"},{"name":"to","type":"address","internalType":"address"},{"name":"amount","type":"uint256","internalType":"uint256"}],"outputs":[],"stateMutability":"nonpayable"},{"type":"function","name":"setAdmin","inputs":[{"name":"newAdmin","type":"address","internalType":"address"}],"outputs":[],"stateMutability":"nonpayable"},{"type":"function","name":"setPaused","inputs":[{"name":"_paused","type":"bool","internalType":"bool"}],"outputs":[],"stateMutability":"nonpayable"},{"type":"function","name":"setUBIFeeShare","inputs":[{"name":"newBPS","type":"uint256","internalType":"uint256"}],"outputs":[],"stateMutability":"nonpayable"},{"type":"function","name":"setUBIPool","inputs":[{"name":"newPool","type":"address","internalType":"address"}],"outputs":[],"stateMutability":"nonpayable"},{"type":"function","name":"totalSwapsProcessed","inputs":[],"outputs":[{"name":"","type":"uint256","internalType":"uint256"}],"stateMutability":"view"},{"type":"function","name":"totalUBIFees","inputs":[{"name":"","type":"address","internalType":"address"}],"outputs":[{"name":"","type":"uint256","internalType":"uint256"}],"stateMutability":"view"},{"type":"function","name":"ubiFeeShareBPS","inputs":[],"outputs":[{"name":"","type":"uint256","internalType":"uint256"}],"stateMutability":"view"},{"type":"function","name":"ubiPool","inputs":[],"outputs":[{"name":"","type":"address","internalType":"address"}],"stateMutability":"view"},{"type":"event","name":"AdminUpdated","inputs":[{"name":"oldAdmin","type":"address","indexed":false,"internalType":"address"},{"name":"newAdmin","type":"address","indexed":false,"internalType":"address"}],"anonymous":false},{"type":"event","name":"HookPaused","inputs":[{"name":"isPaused","type":"bool","indexed":false,"internalType":"bool"}],"anonymous":false},{"type":"event","name":"UBIFeeCollected","inputs":[{"name":"token","type":"address","indexed":true,"internalType":"address"},{"name":"feeAmount","type":"uint256","indexed":false,"internalType":"uint256"},{"name":"ubiShare","type":"uint256","indexed":false,"internalType":"uint256"},{"name":"pool","type":"address","indexed":true,"internalType":"address"}],"anonymous":false},{"type":"event","name":"UBIFeeShareUpdated","inputs":[{"name":"oldBPS","type":"uint256","indexed":false,"internalType":"uint256"},{"name":"newBPS","type":"uint256","indexed":false,"internalType":"uint256"}],"anonymous":false},{"type":"event","name":"UBIPoolUpdated","inputs":[{"name":"oldPool","type":"address","indexed":false,"internalType":"address"},{"name":"newPool","type":"address","indexed":false,"internalType":"address"}],"anonymous":false},{"type":"error","name":"FeeTooHigh","inputs":[]},{"type":"error","name":"HookIsPaused","inputs":[]},{"type":"error","name":"NotAdmin","inputs":[]},{"type":"error","name":"NotPoolManager","inputs":[]},{"type":"error","name":"TransferFailed","inputs":[]},{"type":"error","name":"ZeroAddress","inputs":[]}],"bytecode":{"object":"0x60a060405234801561000f575f5ffd5b50604051611a0b380380611a0b833981810160405281019061003191906102f0565b5f73ffffffffffffffffffffffffffffffffffffffff168473ffffffffffffffffffffffffffffffffffffffff1603610096576040517fd92e233d00000000000000000000000000000000000000000000000000000000815260040160405180910390fd5b5f73ffffffffffffffffffffffffffffffffffffffff168373ffffffffffffffffffffffffffffffffffffffff16036100fb576040517fd92e233d00000000000000000000000000000000000000000000000000000000815260040160405180910390fd5b5f73ffffffffffffffffffffffffffffffffffffffff168173ffffffffffffffffffffffffffffffffffffffff1603610160576040517fd92e233d00000000000000000000000000000000000000000000000000000000815260040160405180910390fd5b61138882111561019c576040517fcd4e616700000000000000000000000000000000000000000000000000000000815260040160405180910390fd5b8373ffffffffffffffffffffffffffffffffffffffff1660808173ffffffffffffffffffffffffffffffffffffffff1681525050825f5f6101000a81548173ffffffffffffffffffffffffffffffffffffffff021916908373ffffffffffffffffffffffffffffffffffffffff160217905550816001819055508060025f6101000a81548173ffffffffffffffffffffffffffffffffffffffff021916908373ffffffffffffffffffffffffffffffffffffffff16021790555050505050610354565b5f5ffd5b5f73ffffffffffffffffffffffffffffffffffffffff82169050919050565b5f61028c82610263565b9050919050565b61029c81610282565b81146102a6575f5ffd5b50565b5f815190506102b781610293565b92915050565b5f819050919050565b6102cf816102bd565b81146102d9575f5ffd5b50565b5f815190506102ea816102c6565b92915050565b5f5f5f5f608085870312156103085761030761025f565b5b5f610315878288016102a9565b9450506020610326878288016102a9565b9350506040610337878288016102dc565b9250506060610348878288016102a9565b91505092959194509250565b6080516116986103735f395f8181610ae50152610ead01526116985ff3fe608060405234801561000f575f5ffd5b5060043610610114575f3560e01c8063a06f7da7116100a0578063d55be8c61161006f578063d55be8c6146102ca578063d5921f14146102e8578063dc4c90d314610318578063e1a4521814610336578063f851a4401461035457610114565b8063a06f7da714610242578063c4e833ce14610260578063cea9d26f1461027e578063d1c188191461029a57610114565b80635c975abb116100e75780635c975abb1461019c57806364496c6f146101ba578063704b6c02146101ea578063860c22f1146102065780638b8dc8fa1461022457610114565b806316c38b3c14610118578063402af484146101345780634f3f998f1461015057806354a3793e1461016c575b5f5ffd5b610132600480360381019061012d9190610f94565b610372565b005b61014e60048036038101906101499190610ff2565b61044c565b005b61016a60048036038101906101659190611077565b610558565b005b61018660048036038101906101819190611077565b6106e3565b60405161019391906110b1565b60405180910390f35b6101a4610729565b6040516101b191906110d9565b60405180910390f35b6101d460048036038101906101cf9190611077565b61073c565b6040516101e191906110b1565b60405180910390f35b61020460048036038101906101ff9190611077565b610751565b005b61020e6108de565b60405161021b91906110b1565b60405180910390f35b61022c6108e4565b60405161023991906110b1565b60405180910390f35b61024a6108ea565b6040516102579190611101565b60405180910390f35b61026861090e565b60405161027591906111f3565b60405180910390f35b6102986004803603810190610293919061120d565b610976565b005b6102b460048036038101906102af919061131c565b610ae2565b6040516102c191906113ef565b60405180910390f35b6102d2610e82565b6040516102df91906110b1565b60405180910390f35b61030260048036038101906102fd9190610ff2565b610e88565b60405161030f91906110b1565b60405180910390f35b610320610eab565b60405161032d9190611101565b60405180910390f35b61033e610ecf565b60405161034b91906110b1565b60405180910390f35b61035c610ed5565b6040516103699190611101565b60405180910390f35b60025f9054906101000a900473ffffffffffffffffffffffffffffffffffffffff1673ffffffffffffffffffffffffffffffffffffffff163373ffffffffffffffffffffffffffffffffffffffff16146103f8576040517f7bfa4b9f00000000000000000000000000000000000000000000000000000000815260040160405180910390fd5b80600260146101000a81548160ff0219169083151502179055507f5a7875a14cc4fe5819714bb97d945e04e6b4c0e9a07eb6dce507fb335f5798a18160405161044191906110d9565b60405180910390a150565b60025f9054906101000a900473ffffffffffffffffffffffffffffffffffffffff1673ffffffffffffffffffffffffffffffffffffffff163373ffffffffffffffffffffffffffffffffffffffff16146104d2576040517f7bfa4b9f00000000000000000000000000000000000000000000000000000000815260040160405180910390fd5b61138881111561050e576040517fcd4e616700000000000000000000000000000000000000000000000000000000815260040160405180910390fd5b5f6001549050816001819055507f0f7f25e7d7dcea40ccf115603293fe697d91c4c831eccce842f57cc95f7dcbb8818360405161054c929190611408565b60405180910390a15050565b60025f9054906101000a900473ffffffffffffffffffffffffffffffffffffffff1673ffffffffffffffffffffffffffffffffffffffff163373ffffffffffffffffffffffffffffffffffffffff16146105de576040517f7bfa4b9f00000000000000000000000000000000000000000000000000000000815260040160405180910390fd5b5f73ffffffffffffffffffffffffffffffffffffffff168173ffffffffffffffffffffffffffffffffffffffff1603610643576040517fd92e233d00000000000000000000000000000000000000000000000000000000815260040160405180910390fd5b5f5f5f9054906101000a900473ffffffffffffffffffffffffffffffffffffffff169050815f5f6101000a81548173ffffffffffffffffffffffffffffffffffffffff021916908373ffffffffffffffffffffffffffffffffffffffff1602179055507fd0b5fd4a1ad96329d0b73f65c3ef7b6d2d7eed54cc7045ecf38a8548de9e526b81836040516106d792919061142f565b60405180910390a15050565b5f60035f8373ffffffffffffffffffffffffffffffffffffffff1673ffffffffffffffffffffffffffffffffffffffff1681526020019081526020015f20549050919050565b600260149054906101000a900460ff1681565b6003602052805f5260405f205f915090505481565b60025f9054906101000a900473ffffffffffffffffffffffffffffffffffffffff1673ffffffffffffffffffffffffffffffffffffffff163373ffffffffffffffffffffffffffffffffffffffff16146107d7576040517f7bfa4b9f00000000000000000000000000000000000000000000000000000000815260040160405180910390fd5b5f73ffffffffffffffffffffffffffffffffffffffff168173ffffffffffffffffffffffffffffffffffffffff160361083c576040517fd92e233d00000000000000000000000000000000000000000000000000000000815260040160405180910390fd5b5f60025f9054906101000a900473ffffffffffffffffffffffffffffffffffffffff1690508160025f6101000a81548173ffffffffffffffffffffffffffffffffffffffff021916908373ffffffffffffffffffffffffffffffffffffffff1602179055507f101b8081ff3b56bbf45deb824d86a3b0fd38b7e3dd42421105cf8abe9106db0b81836040516108d292919061142f565b60405180910390a15050565b60015481565b60045481565b5f5f9054906101000a900473ffffffffffffffffffffffffffffffffffffffff1681565b610916610efa565b6040518061014001604052805f151581526020015f151581526020015f151581526020015f151581526020015f151581526020015f151581526020015f151581526020016001151581526020015f151581526020015f1515815250905090565b60025f9054906101000a900473ffffffffffffffffffffffffffffffffffffffff1673ffffffffffffffffffffffffffffffffffffffff163373ffffffffffffffffffffffffffffffffffffffff16146109fc576040517f7bfa4b9f00000000000000000000000000000000000000000000000000000000815260040160405180910390fd5b5f73ffffffffffffffffffffffffffffffffffffffff168273ffffffffffffffffffffffffffffffffffffffff1603610a61576040517fd92e233d00000000000000000000000000000000000000000000000000000000815260040160405180910390fd5b8273ffffffffffffffffffffffffffffffffffffffff1663a9059cbb83836040518363ffffffff1660e01b8152600401610a9c929190611456565b6020604051808303815f875af1158015610ab8573d5f5f3e3d5ffd5b505050506040513d601f19601f82011682018060405250810190610adc9190611491565b50505050565b5f7f000000000000000000000000000000000000000000000000000000000000000073ffffffffffffffffffffffffffffffffffffffff163373ffffffffffffffffffffffffffffffffffffffff1614610b68576040517fae18210a00000000000000000000000000000000000000000000000000000000815260040160405180910390fd5b600260149054906101000a900460ff1615610b8c5763d1c1881960e01b9050610e78565b5f5f865f016020810190610ba09190610f94565b15610c0957876020016020810190610bb89190611077565b91505f866020016020810190610bce91906114f2565b600f0b13610bdc575f610c02565b856020016020810190610bef91906114f2565b6fffffffffffffffffffffffffffffffff165b9050610c66565b875f016020810190610c1b9190611077565b91505f865f016020810190610c3091906114f2565b600f0b13610c3e575f610c63565b855f016020810190610c5091906114f2565b6fffffffffffffffffffffffffffffffff165b90505b5f8103610c7e5763d1c1881960e01b92505050610e78565b5f610c8882610e88565b90505f8103610ca35763d1c1881960e01b9350505050610e78565b5f8373ffffffffffffffffffffffffffffffffffffffff1663a9059cbb5f5f9054906101000a900473ffffffffffffffffffffffffffffffffffffffff16846040518363ffffffff1660e01b8152600401610cff929190611456565b6020604051808303815f875af1158015610d1b573d5f5f3e3d5ffd5b505050506040513d601f19601f82011682018060405250810190610d3f9190611491565b905080610d78576040517f90b8ec1800000000000000000000000000000000000000000000000000000000815260040160405180910390fd5b8160035f8673ffffffffffffffffffffffffffffffffffffffff1673ffffffffffffffffffffffffffffffffffffffff1681526020019081526020015f205f828254610dc4919061154a565b9250508190555060045f815480929190610ddd9061157d565b91905055505f5f9054906101000a900473ffffffffffffffffffffffffffffffffffffffff1673ffffffffffffffffffffffffffffffffffffffff168473ffffffffffffffffffffffffffffffffffffffff167fbc242f5093768aa93572c8496fa881527bd1bbb323867dd5f420727783b4eead8585604051610e61929190611408565b60405180910390a363d1c1881960e01b9450505050505b9695505050505050565b61138881565b5f61271060015483610e9a91906115c4565b610ea49190611632565b9050919050565b7f000000000000000000000000000000000000000000000000000000000000000081565b61271081565b60025f9054906101000a900473ffffffffffffffffffffffffffffffffffffffff1681565b6040518061014001604052805f151581526020015f151581526020015f151581526020015f151581526020015f151581526020015f151581526020015f151581526020015f151581526020015f151581526020015f151581525090565b5f5ffd5b5f5ffd5b5f8115159050919050565b610f7381610f5f565b8114610f7d575f5ffd5b50565b5f81359050610f8e81610f6a565b92915050565b5f60208284031215610fa957610fa8610f57565b5b5f610fb684828501610f80565b91505092915050565b5f819050919050565b610fd181610fbf565b8114610fdb575f5ffd5b50565b5f81359050610fec81610fc8565b92915050565b5f6020828403121561100757611006610f57565b5b5f61101484828501610fde565b91505092915050565b5f73ffffffffffffffffffffffffffffffffffffffff82169050919050565b5f6110468261101d565b9050919050565b6110568161103c565b8114611060575f5ffd5b50565b5f813590506110718161104d565b92915050565b5f6020828403121561108c5761108b610f57565b5b5f61109984828501611063565b91505092915050565b6110ab81610fbf565b82525050565b5f6020820190506110c45f8301846110a2565b92915050565b6110d381610f5f565b82525050565b5f6020820190506110ec5f8301846110ca565b92915050565b6110fb8161103c565b82525050565b5f6020820190506111145f8301846110f2565b92915050565b61112381610f5f565b82525050565b61014082015f82015161113e5f85018261111a565b506020820151611151602085018261111a565b506040820151611164604085018261111a565b506060820151611177606085018261111a565b50608082015161118a608085018261111a565b5060a082015161119d60a085018261111a565b5060c08201516111b060c085018261111a565b5060e08201516111c360e085018261111a565b506101008201516111d861010085018261111a565b506101208201516111ed61012085018261111a565b50505050565b5f610140820190506112075f830184611129565b92915050565b5f5f5f6060848603121561122457611223610f57565b5b5f61123186828701611063565b935050602061124286828701611063565b925050604061125386828701610fde565b9150509250925092565b5f5ffd5b5f60a082840312156112765761127561125d565b5b81905092915050565b5f606082840312156112945761129361125d565b5b81905092915050565b5f604082840312156112b2576112b161125d565b5b81905092915050565b5f5ffd5b5f5ffd5b5f5ffd5b5f5f83601f8401126112dc576112db6112bb565b5b8235905067ffffffffffffffff8111156112f9576112f86112bf565b5b602083019150836001820283011115611315576113146112c3565b5b9250929050565b5f5f5f5f5f5f610180878903121561133757611336610f57565b5b5f61134489828a01611063565b965050602061135589828a01611261565b95505060c061136689828a0161127f565b94505061012061137889828a0161129d565b93505061016087013567ffffffffffffffff81111561139a57611399610f5b565b5b6113a689828a016112c7565b92509250509295509295509295565b5f7fffffffff0000000000000000000000000000000000000000000000000000000082169050919050565b6113e9816113b5565b82525050565b5f6020820190506114025f8301846113e0565b92915050565b5f60408201905061141b5f8301856110a2565b61142860208301846110a2565b9392505050565b5f6040820190506114425f8301856110f2565b61144f60208301846110f2565b9392505050565b5f6040820190506114695f8301856110f2565b61147660208301846110a2565b9392505050565b5f8151905061148b81610f6a565b92915050565b5f602082840312156114a6576114a5610f57565b5b5f6114b38482850161147d565b91505092915050565b5f81600f0b9050919050565b6114d1816114bc565b81146114db575f5ffd5b50565b5f813590506114ec816114c8565b92915050565b5f6020828403121561150757611506610f57565b5b5f611514848285016114de565b91505092915050565b7f4e487b71000000000000000000000000000000000000000000000000000000005f52601160045260245ffd5b5f61155482610fbf565b915061155f83610fbf565b92508282019050808211156115775761157661151d565b5b92915050565b5f61158782610fbf565b91507fffffffffffffffffffffffffffffffffffffffffffffffffffffffffffffffff82036115b9576115b861151d565b5b600182019050919050565b5f6115ce82610fbf565b91506115d983610fbf565b92508282026115e781610fbf565b915082820484148315176115fe576115fd61151d565b5b5092915050565b7f4e487b71000000000000000000000000000000000000000000000000000000005f52601260045260245ffd5b5f61163c82610fbf565b915061164783610fbf565b92508261165757611656611605565b5b82820490509291505056fea264697066735822122032f2d7d8422f8a1da1ed8927205576d87bee3462de2235abd5a2f16007a8ef1564736f6c63430008210033","linkReferences":{}},"methodIdentifiers":{"BPS_DENOMINATOR()":"e1a45218","MAX_FEE_BPS()":"d55be8c6","admin()":"f851a440","afterSwap(address,(address,address,uint24,int24,address),(bool,int256,uint160),(int128,int128),bytes)":"d1c18819","calculateUBIFee(uint256)":"d5921f14","getHookPermissions()":"c4e833ce","getUBIFeesForToken(address)":"54a3793e","paused()":"5c975abb","poolManager()":"dc4c90d3","rescueTokens(address,address,uint256)":"cea9d26f","setAdmin(address)":"704b6c02","setPaused(bool)":"16c38b3c","setUBIFeeShare(uint256)":"402af484","setUBIPool(address)":"4f3f998f","totalSwapsProcessed()":"8b8dc8fa","totalUBIFees(address)":"64496c6f","ubiFeeShareBPS()":"860c22f1","ubiPool()":"a06f7da7"},"id":21}