{"abi":[{"type":"constructor","inputs":[{"name":"_admin","type":"address","internalType":"address"}],"stateMutability":"nonpayable"},{"type":"function","name":"admin","inputs":[],"outputs":[{"name":"","type":"address","internalType":"address"}],"stateMutability":"view"},{"type":"function","name":"getPrice","inputs":[{"name":"ticker","type":"string","internalType":"string"}],"outputs":[{"name":"price","type":"uint256","internalType":"uint256"}],"stateMutability":"view"},{"type":"function","name":"getPriceByKey","inputs":[{"name":"key","type":"bytes32","internalType":"bytes32"}],"outputs":[{"name":"","type":"uint256","internalType":"uint256"}],"stateMutability":"view"},{"type":"function","name":"hasFeed","inputs":[{"name":"ticker","type":"string","internalType":"string"}],"outputs":[{"name":"","type":"bool","internalType":"bool"}],"stateMutability":"view"},{"type":"function","name":"manualPrices","inputs":[{"name":"","type":"bytes32","internalType":"bytes32"}],"outputs":[{"name":"","type":"uint256","internalType":"uint256"}],"stateMutability":"view"},{"type":"function","name":"maxAge","inputs":[],"outputs":[{"name":"","type":"uint256","internalType":"uint256"}],"stateMutability":"view"},{"type":"function","name":"priceFeeds","inputs":[{"name":"","type":"bytes32","internalType":"bytes32"}],"outputs":[{"name":"","type":"address","internalType":"address"}],"stateMutability":"view"},{"type":"function","name":"registerFeed","inputs":[{"name":"ticker","type":"string","internalType":"string"},{"name":"feed","type":"address","internalType":"address"}],"outputs":[],"stateMutability":"nonpayable"},{"type":"function","name":"removeFeed","inputs":[{"name":"ticker","type":"string","internalType":"string"}],"outputs":[],"stateMutability":"nonpayable"},{"type":"function","name":"setAdmin","inputs":[{"name":"newAdmin","type":"address","internalType":"address"}],"outputs":[],"stateMutability":"nonpayable"},{"type":"function","name":"setManualPrice","inputs":[{"name":"ticker","type":"string","internalType":"string"},{"name":"price","type":"uint256","internalType":"uint256"},{"name":"active","type":"bool","internalType":"bool"}],"outputs":[],"stateMutability":"nonpayable"},{"type":"function","name":"setMaxAge","inputs":[{"name":"_maxAge","type":"uint256","internalType":"uint256"}],"outputs":[],"stateMutability":"nonpayable"},{"type":"function","name":"useManualPrice","inputs":[{"name":"","type":"bytes32","internalType":"bytes32"}],"outputs":[{"name":"","type":"bool","internalType":"bool"}],"stateMutability":"view"},{"type":"event","name":"FeedRegistered","inputs":[{"name":"ticker","type":"string","indexed":true,"internalType":"string"},{"name":"feed","type":"address","indexed":false,"internalType":"address"}],"anonymous":false},{"type":"event","name":"FeedRemoved","inputs":[{"name":"ticker","type":"string","indexed":true,"internalType":"string"}],"anonymous":false},{"type":"event","name":"ManualPriceSet","inputs":[{"name":"ticker","type":"string","indexed":true,"internalType":"string"},{"name":"price","type":"uint256","indexed":false,"internalType":"uint256"}],"anonymous":false},{"type":"event","name":"MaxAgeUpdated","inputs":[{"name":"oldAge","type":"uint256","indexed":false,"internalType":"uint256"},{"name":"newAge","type":"uint256","indexed":false,"internalType":"uint256"}],"anonymous":false},{"type":"error","name":"FeedNotFound","inputs":[{"name":"ticker","type":"bytes32","internalType":"bytes32"}]},{"type":"error","name":"NegativePrice","inputs":[{"name":"ticker","type":"bytes32","internalType":"bytes32"}]},{"type":"error","name":"NotAdmin","inputs":[]},{"type":"error","name":"StalePrice","inputs":[{"name":"ticker","type":"bytes32","internalType":"bytes32"},{"name":"updatedAt","type":"uint256","internalType":"uint256"},{"name":"currentTime","type":"uint256","internalType":"uint256"}]},{"type":"error","name":"ZeroAddress","inputs":[]},{"type":"error","name":"ZeroPrice","inputs":[{"name":"ticker","type":"bytes32","internalType":"bytes32"}]}],"bytecode":{"object":"0x60806040523461002f576100196100146100f4565b61021a565b610021610034565b61137f610270823961137f90f35b61003a565b60405190565b5f80fd5b601f801991011690565b634e487b7160e01b5f52604160045260245ffd5b906100669061003e565b810190811060018060401b0382111761007e57604052565b610048565b9061009661008f610034565b928361005c565b565b5f80fd5b60018060a01b031690565b6100b09061009c565b90565b6100bc816100a7565b036100c357565b5f80fd5b905051906100d4826100b3565b565b906020828203126100ef576100ec915f016100c7565b90565b610098565b6101126115ef8038038061010781610083565b9283398101906100d6565b90565b5f1b90565b906101265f1991610115565b9181191691161790565b90565b90565b90565b61014d61014861015292610130565b610136565b610133565b90565b90565b9061016d61016861017492610139565b610155565b825461011a565b9055565b90565b61018f61018a61019492610178565b610136565b61009c565b90565b6101a09061017b565b90565b5f0190565b906101b960018060a01b0391610115565b9181191691161790565b6101d76101d26101dc9261009c565b610136565b61009c565b90565b6101e8906101c3565b90565b6101f4906101df565b90565b90565b9061020f61020a610216926101eb565b6101f7565b82546101a8565b9055565b610227610e106004610158565b8061024261023c6102375f610197565b6100a7565b916100a7565b1461025357610251905f6101fa565b565b5f63d92e233d60e01b81528061026b600482016101a3565b0390fdfe60806040526004361015610013575b610791565b61001d5f356100ec565b80633e57ebbd146100e757806349b3ce56146100e2578063524f3889146100dd5780635ae28fc9146100d85780635f375d49146100d3578063687043c5146100ce578063704b6c02146100c95780637e6d2835146100c4578063832321bf146100bf578063953dc87e146100ba578063b6a9950e146100b5578063c6c3f71e146100b05763f851a4400361000e5761075c565b610719565b610661565b61062a565b61057c565b610547565b6104e5565b610492565b610417565b610365565b6102ee565b610295565b6101da565b60e01c90565b60405190565b5f80fd5b5f80fd5b5f80fd5b90565b61011081610104565b0361011757565b5f80fd5b9050359061012882610107565b565b9060208282031261014357610140915f0161011b565b90565b6100fc565b61015190610104565b90565b9061015e90610148565b5f5260205260405f2090565b1c90565b60ff1690565b610184906008610189930261016a565b61016e565b90565b906101979154610174565b90565b6101b0906101ab6003915f92610154565b61018c565b90565b151590565b6101c1906101b3565b9052565b91906101d8905f602085019401906101b8565b565b3461020a576102066101f56101f036600461012a565b61019a565b6101fd6100f2565b918291826101c5565b0390f35b6100f8565b5f80fd5b5f80fd5b5f80fd5b909182601f830112156102555781359167ffffffffffffffff831161025057602001926001830284011161024b57565b610217565b610213565b61020f565b9060208282031261028b575f82013567ffffffffffffffff811161028657610282920161021b565b9091565b610100565b6100fc565b5f0190565b346102c4576102ae6102a836600461025a565b906109dd565b6102b66100f2565b806102c081610290565b0390f35b6100f8565b90565b6102d5906102c9565b9052565b91906102ec905f602085019401906102cc565b565b3461031f5761031b61030a61030436600461025a565b906109ed565b6103126100f2565b918291826102d9565b0390f35b6100f8565b61032d816102c9565b0361033457565b5f80fd5b9050359061034582610324565b565b906020828203126103605761035d915f01610338565b90565b6100fc565b346103935761037d610378366004610347565b610b41565b6103856100f2565b8061038f81610290565b0390f35b6100f8565b60018060a01b031690565b6103ac90610398565b90565b6103b8816103a3565b036103bf57565b5f80fd5b905035906103d0826103af565b565b91604083830312610412575f83013567ffffffffffffffff811161040d576103ff8361040a92860161021b565b9390946020016103c3565b90565b610100565b6100fc565b346104465761043061042a3660046103d2565b91610c9c565b6104386100f2565b8061044281610290565b0390f35b6100f8565b5f91031261045557565b6100fc565b90565b61046d906008610472930261016a565b61045a565b90565b90610480915461045d565b90565b61048f60045f90610475565b90565b346104c2576104a236600461044b565b6104be6104ad610483565b6104b56100f2565b918291826102d9565b0390f35b6100f8565b906020828203126104e0576104dd915f016103c3565b90565b6100fc565b34610513576104fd6104f83660046104c7565b610d38565b6105056100f2565b8061050f81610290565b0390f35b6100f8565b9061052290610148565b5f5260205260405f2090565b6105449061053f6002915f92610518565b610475565b90565b346105775761057361056261055d36600461012a565b61052e565b61056a6100f2565b918291826102d9565b0390f35b6100f8565b346105ac576105a861059761059236600461012a565b610d43565b61059f6100f2565b918291826102d9565b0390f35b6100f8565b6105ba816101b3565b036105c157565b5f80fd5b905035906105d2826105b1565b565b919091606081840312610625575f8101359167ffffffffffffffff8311610620576106048461061d94840161021b565b9390946106148160208601610338565b936040016105c5565b90565b610100565b6100fc565b3461065c5761064661063d3660046105d4565b92919091610e55565b61064e6100f2565b8061065881610290565b0390f35b6100f8565b346106925761068e61067d61067736600461025a565b90610e84565b6106856100f2565b918291826101c5565b0390f35b6100f8565b906106a190610148565b5f5260205260405f2090565b60018060a01b031690565b6106c89060086106cd930261016a565b6106ad565b90565b906106db91546106b8565b90565b6106f4906106ef6001915f92610697565b6106d0565b90565b610700906103a3565b9052565b9190610717905f602085019401906106f7565b565b346107495761074561073461072f36600461012a565b6106de565b61073c6100f2565b91829182610704565b0390f35b6100f8565b6107595f5f906106d0565b90565b3461078c5761076c36600461044b565b61078861077761074e565b61077f6100f2565b91829182610704565b0390f35b6100f8565b5f80fd5b5f1c90565b6107a66107ab91610795565b6106ad565b90565b6107b8905461079a565b90565b90336107d76107d16107cc5f6107ae565b6103a3565b916103a3565b036107e7576107e591610966565b565b5f637bfa4b9f60e01b8152806107ff60048201610290565b0390fd5b1b90565b9190600861082791029161082160018060a01b0384610803565b92610803565b9181191691161790565b90565b61084861084361084d92610398565b610831565b610398565b90565b61085990610834565b90565b61086590610850565b90565b90565b919061088161087c6108899361085c565b610868565b908354610807565b9055565b5f90565b6108a39161089d61088d565b9161086b565b565b919060086108c09102916108ba60ff84610803565b92610803565b9181191691161790565b6108d3906101b3565b90565b90565b91906108ef6108ea6108f7936108ca565b6108d6565b9083546108a5565b9055565b5f90565b6109119161090b6108fb565b916108d9565b565b905090565b90825f939282370152565b9091826109338161093a93610913565b8093610918565b0190565b909161094992610923565b90565b6109606109576100f2565b9283928361093e565b03902090565b6109c59061099d5f61099861097c848790610f43565b6109918361098c60018490610697565b610891565b6003610154565b6108ff565b917f06aa2b76883f4d9b405ce5d8cb618072ed06ad9a9f4a3a638d6a76f995f950ce9261094c565b906109ce6100f2565b806109d881610290565b0390a2565b906109e7916107bb565b565b5f90565b610a0891610a03916109fd6109e9565b50610f43565b611164565b90565b33610a26610a20610a1b5f6107ae565b6103a3565b916103a3565b03610a3657610a3490610af0565b565b5f637bfa4b9f60e01b815280610a4e60048201610290565b0390fd5b610a5e610a6391610795565b61045a565b90565b610a709054610a52565b90565b916020610a94929493610a8d60408201965f8301906102cc565b01906102cc565b565b5f1b90565b90610aa75f1991610a96565b9181191691161790565b610ac5610ac0610aca926102c9565b610831565b6102c9565b90565b90565b90610ae5610ae0610aec92610ab1565b610acd565b8254610a9b565b9055565b610b3f90610afe6004610a66565b817f1293e51547e7dfe0f71bcd8fbe56949db0c3162cb40fe283a5b45544b6cafac491610b35610b2c6100f2565b92839283610a73565b0390a16004610ad0565b565b610b4a90610a0b565b565b919033610b69610b63610b5e5f6107ae565b6103a3565b916103a3565b03610b7957610b7792610bfb565b565b5f637bfa4b9f60e01b815280610b9160048201610290565b0390fd5b90565b610bac610ba7610bb192610b95565b610831565b610398565b90565b610bbd90610b98565b90565b90610bd160018060a01b0391610a96565b9181191691161790565b90610bf0610beb610bf79261085c565b610868565b8254610bc0565b9055565b82610c16610c10610c0b5f610bb4565b6103a3565b916103a3565b14610c8057610c6981610c41610c30610c7b948690610f43565b610c3c87916001610697565b610bdb565b927f77aadf7cec07cc754e2a4e21ee740c53687ef1aeceb74e9f6450e9c68294324e9361094c565b92610c726100f2565b91829182610704565b0390a2565b5f63d92e233d60e01b815280610c9860048201610290565b0390fd5b90610ca79291610b4c565b565b33610cc4610cbe610cb95f6107ae565b6103a3565b916103a3565b03610cd457610cd290610cf0565b565b5f637bfa4b9f60e01b815280610cec60048201610290565b0390fd5b80610d0b610d05610d005f610bb4565b6103a3565b916103a3565b14610d1c57610d1a905f610bdb565b565b5f63d92e233d60e01b815280610d3460048201610290565b0390fd5b610d4190610ca9565b565b610d5590610d4f6109e9565b50611164565b90565b92919033610d76610d70610d6b5f6107ae565b6103a3565b916103a3565b03610d8657610d8493610dd8565b565b5f637bfa4b9f60e01b815280610d9e60048201610290565b0390fd5b90610dae60ff91610a96565b9181191691161790565b90610dcd610dc8610dd4926108ca565b6108d6565b8254610da2565b9055565b610e3e90610e16610e50939495610e11610df3848890610f43565b91610e0989610e0460028690610518565b610ad0565b916003610154565b610db8565b927fd78ddf5dda09409c5ba0a349a6c0149840d265112fa302b34dc3b322e7f675bc9361094c565b92610e476100f2565b918291826102d9565b0390a2565b90610e61939291610d58565b565b610e6f610e7491610795565b61016e565b90565b610e819054610e63565b90565b90610e9791610e916108fb565b50610f43565b610eab610ea660018390610697565b6107ae565b610ec5610ebf610eba5f610bb4565b6103a3565b916103a3565b1415908115610ed3575b5090565b610ee89150610ee3906003610154565b610e77565b5f610ecf565b5f90565b601f801991011690565b634e487b7160e01b5f52604160045260245ffd5b90610f1a90610ef2565b810190811067ffffffffffffffff821117610f3457604052565b610efc565b60200190565b5190565b610f7690610f4f610eee565b50610f67610f5b6100f2565b9384926020840161093e565b60208201810382520382610f10565b610f88610f8282610f3f565b91610f39565b2090565b610fa0610f9b610fa592610b95565b610831565b6102c9565b90565b610fb190610104565b9052565b9190610fc8905f60208501940190610fa8565b565b610fd390610834565b90565b610fdf90610fca565b90565b610feb90610850565b90565b60e01b90565b69ffffffffffffffffffff1690565b61100c81610ff4565b0361101357565b5f80fd5b9050519061102482611003565b565b90565b61103281611026565b0361103957565b5f80fd5b9050519061104a82611029565b565b9050519061105982610324565b565b919060a0838203126110ac57611073815f8501611017565b92611081826020830161103d565b926110a9611092846040850161104c565b936110a0816060860161104c565b93608001611017565b90565b6100fc565b6110b96100f2565b3d5f823e3d90fd5b634e487b7160e01b5f52601160045260245ffd5b6110e46110ea919392936102c9565b926102c9565b82039182116110f557565b6110c1565b60409061112361112a949695939661111960608401985f850190610fa8565b60208301906102cc565b01906102cc565b565b61114061113b61114592610b95565b610831565b611026565b90565b61115c61115761116192611026565b610831565b6102c9565b90565b61116c6109e9565b5061118161117c60038390610154565b610e77565b6112f95761119961119460018390610697565b6107ae565b806111b46111ae6111a95f610bb4565b6103a3565b916103a3565b146112da579060a06111d06111cb6111e694610fd6565b610fe2565b63feaf968c906111de6100f2565b948592610fee565b825281806111f660048201610290565b03915afa80156112d5575f80808095925050916112a1575b509161121b4282906110d5565b61123661123061122b6004610a66565b6102c9565b916102c9565b1161128157508161124f6112495f61112c565b91611026565b1315611262575061125f90611148565b90565b61127d905f918291637b176b0960e11b835260048301610fb5565b0390fd5b9061129d425f9384936357fd6bcb60e11b8552600485016110fa565b0390fd5b90506112c591925060a03d81116112ce575b6112bd8183610f10565b81019061105b565b5093925061120e565b503d6112b3565b6110b1565b6112f5825f918291630138152d60e61b835260048301610fb5565b0390fd5b61130d61130860028390610518565b610a66565b908161132161131b5f610f8c565b916102c9565b1461132a575090565b611345905f918291633489b6c560e11b835260048301610fb5565b0390fdfea2646970667358221220c3f8c795e82e68ee29f5a93e679e7432245cd29e3b5c0e0ed810dd3625955bb964736f6c63430008210033","linkReferences":{}},"methodIdentifiers":{"admin()":"f851a440","getPrice(string)":"524f3889","getPriceByKey(bytes32)":"832321bf","hasFeed(string)":"b6a9950e","manualPrices(bytes32)":"7e6d2835","maxAge()":"687043c5","priceFeeds(bytes32)":"c6c3f71e","registerFeed(string,address)":"5f375d49","removeFeed(string)":"49b3ce56","setAdmin(address)":"704b6c02","setManualPrice(string,uint256,bool)":"953dc87e","setMaxAge(uint256)":"5ae28fc9","useManualPrice(bytes32)":"3e57ebbd"},"id":1}