{"abi":[{"type":"constructor","inputs":[{"name":"_admin","type":"address","internalType":"address"}],"stateMutability":"nonpayable"},{"type":"function","name":"FUNDING_INTERVAL","inputs":[],"outputs":[{"name":"","type":"uint256","internalType":"uint256"}],"stateMutability":"view"},{"type":"function","name":"MAX_FUNDING_RATE","inputs":[],"outputs":[{"name":"","type":"int256","internalType":"int256"}],"stateMutability":"view"},{"type":"function","name":"accruedFunding","inputs":[{"name":"size","type":"int256","internalType":"int256"},{"name":"entryFundingIndex","type":"int256","internalType":"int256"},{"name":"marketId","type":"uint256","internalType":"uint256"}],"outputs":[{"name":"funding","type":"int256","internalType":"int256"}],"stateMutability":"view"},{"type":"function","name":"admin","inputs":[],"outputs":[{"name":"","type":"address","internalType":"address"}],"stateMutability":"view"},{"type":"function","name":"applyFunding","inputs":[{"name":"marketId","type":"uint256","internalType":"uint256"},{"name":"markPrice","type":"uint256","internalType":"uint256"},{"name":"indexPrice","type":"uint256","internalType":"uint256"}],"outputs":[{"name":"ratePaid","type":"int256","internalType":"int256"}],"stateMutability":"nonpayable"},{"type":"function","name":"cumulativeFundingIndex","inputs":[{"name":"","type":"uint256","internalType":"uint256"}],"outputs":[{"name":"","type":"int256","internalType":"int256"}],"stateMutability":"view"},{"type":"function","name":"initMarket","inputs":[{"name":"marketId","type":"uint256","internalType":"uint256"}],"outputs":[],"stateMutability":"nonpayable"},{"type":"function","name":"lastFundingTime","inputs":[{"name":"","type":"uint256","internalType":"uint256"}],"outputs":[{"name":"","type":"uint256","internalType":"uint256"}],"stateMutability":"view"},{"type":"function","name":"perpEngine","inputs":[],"outputs":[{"name":"","type":"address","internalType":"address"}],"stateMutability":"view"},{"type":"function","name":"setAdmin","inputs":[{"name":"newAdmin","type":"address","internalType":"address"}],"outputs":[],"stateMutability":"nonpayable"},{"type":"function","name":"setPerpEngine","inputs":[{"name":"engine","type":"address","internalType":"address"}],"outputs":[],"stateMutability":"nonpayable"},{"type":"event","name":"FundingApplied","inputs":[{"name":"marketId","type":"uint256","indexed":true,"internalType":"uint256"},{"name":"rate","type":"int256","indexed":false,"internalType":"int256"},{"name":"newIndex","type":"int256","indexed":false,"internalType":"int256"},{"name":"timestamp","type":"uint256","indexed":false,"internalType":"uint256"}],"anonymous":false},{"type":"error","name":"NotAdmin","inputs":[]},{"type":"error","name":"NotEngine","inputs":[]},{"type":"error","name":"ZeroAddress","inputs":[]}],"bytecode":{"object":"0x608034608357601f61059e38819003918201601f19168301916001600160401b03831184841017608757808492602094604052833981010312608357516001600160a01b0381169081900360835780156074575f80546001600160a01b031916919091179055604051610502908161009c8239f35b63d92e233d60e01b5f5260045ffd5b5f80fd5b634e487b7160e01b5f52604160045260245ffdfe60806040526004361015610011575f80fd5b5f3560e01c806302429b981461031f57806326ef1b72146102f557806345eab4951461027e57806348ba4d2b1461025657806355efb2871461023a578063704b6c02146101ed578063b619daf714610176578063e03e0d851461014c578063f11db845146100de578063f40f2a79146100bd5763f851a44014610092575f80fd5b346100b9575f3660031901126100b9575f546040516001600160a01b039091168152602090f35b5f80fd5b346100b9575f3660031901126100b95760206040516601c6bf526340008152f35b346100b95760203660031901126100b95760043560018060a01b036001541633141580610138575b61012957805f5260036020524260405f20555f5260026020525f60408120555f80f35b63027da19960e41b5f5260045ffd5b505f546001600160a01b0316331415610106565b346100b95760203660031901126100b9576004355f526003602052602060405f2054604051908152f35b346100b95760203660031901126100b9576004356001600160a01b038116908190036100b9575f546001600160a01b031633036101de5780156101cf576bffffffffffffffffffffffff60a01b60015416176001555f80f35b63d92e233d60e01b5f5260045ffd5b637bfa4b9f60e01b5f5260045ffd5b346100b95760203660031901126100b9576004356001600160a01b038116908190036100b9575f546001600160a01b03811633036101de5781156101cf576001600160a01b031916175f55005b346100b9575f3660031901126100b95760206040516170808152f35b346100b9575f3660031901126100b9576001546040516001600160a01b039091168152602090f35b346100b95760603660031901126100b9576004356044355f5260026020526102ac60243560405f2054610378565b81810291905f8212600160ff1b8214166102e15781830514901517156102e157670de0b6b3a764000060209105604051908152f35b634e487b7160e01b5f52601160045260245ffd5b346100b95760203660031901126100b9576004355f526002602052602060405f2054604051908152f35b346100b95760603660031901126100b9576001546001600160a01b031633141580610364575b61012957602061035c604435602435600435610390565b604051908152f35b505f546001600160a01b0316331415610345565b81810392915f1380158285131691841216176102e157565b929190835f52600360205260405f205442034281116102e1576170801161048c57816103c991855f5260036020524260405f2055610378565b90670de0b6b3a7640000820291808305670de0b6b3a764000014901517156102e157801561047857600160ff1b82145f198214166102e15761040b9105610493565b91805f52600260205260405f20805490848201915f86841291129080158216911516176102e15755805f5260026020527f5bc77c157525d548a8a52d79d0ab879a816749d39b746f1bf2489ad250335eee606060405f2054604051908682526020820152426040820152a2565b634e487b7160e01b5f52601260045260245ffd5b505f925050565b6601c6bf52633fff1981126104bf576601c6bf5263400081136104b35790565b506601c6bf5263400090565b506601c6bf52633fff199056fea26469706673582212205259cee3b71a38760836877ee334068610b41ede406663394f6899d84fd7749964736f6c63430008210033","linkReferences":{}},"methodIdentifiers":{"FUNDING_INTERVAL()":"55efb287","MAX_FUNDING_RATE()":"f40f2a79","accruedFunding(int256,int256,uint256)":"45eab495","admin()":"f851a440","applyFunding(uint256,uint256,uint256)":"02429b98","cumulativeFundingIndex(uint256)":"26ef1b72","initMarket(uint256)":"f11db845","lastFundingTime(uint256)":"e03e0d85","perpEngine()":"48ba4d2b","setAdmin(address)":"704b6c02","setPerpEngine(address)":"b619daf7"},"id":40}