{"abi":[{"type":"constructor","inputs":[{"name":"_admin","type":"address","internalType":"address"}],"stateMutability":"nonpayable"},{"type":"function","name":"FUNDING_INTERVAL","inputs":[],"outputs":[{"name":"","type":"uint256","internalType":"uint256"}],"stateMutability":"view"},{"type":"function","name":"MAX_FUNDING_RATE","inputs":[],"outputs":[{"name":"","type":"int256","internalType":"int256"}],"stateMutability":"view"},{"type":"function","name":"accruedFunding","inputs":[{"name":"size","type":"int256","internalType":"int256"},{"name":"entryFundingIndex","type":"int256","internalType":"int256"},{"name":"marketId","type":"uint256","internalType":"uint256"}],"outputs":[{"name":"funding","type":"int256","internalType":"int256"}],"stateMutability":"view"},{"type":"function","name":"admin","inputs":[],"outputs":[{"name":"","type":"address","internalType":"address"}],"stateMutability":"view"},{"type":"function","name":"applyFunding","inputs":[{"name":"marketId","type":"uint256","internalType":"uint256"},{"name":"markPrice","type":"uint256","internalType":"uint256"},{"name":"indexPrice","type":"uint256","internalType":"uint256"}],"outputs":[{"name":"ratePaid","type":"int256","internalType":"int256"}],"stateMutability":"nonpayable"},{"type":"function","name":"cumulativeFundingIndex","inputs":[{"name":"","type":"uint256","internalType":"uint256"}],"outputs":[{"name":"","type":"int256","internalType":"int256"}],"stateMutability":"view"},{"type":"function","name":"initMarket","inputs":[{"name":"marketId","type":"uint256","internalType":"uint256"}],"outputs":[],"stateMutability":"nonpayable"},{"type":"function","name":"lastFundingTime","inputs":[{"name":"","type":"uint256","internalType":"uint256"}],"outputs":[{"name":"","type":"uint256","internalType":"uint256"}],"stateMutability":"view"},{"type":"function","name":"perpEngine","inputs":[],"outputs":[{"name":"","type":"address","internalType":"address"}],"stateMutability":"view"},{"type":"function","name":"setAdmin","inputs":[{"name":"newAdmin","type":"address","internalType":"address"}],"outputs":[],"stateMutability":"nonpayable"},{"type":"function","name":"setPerpEngine","inputs":[{"name":"engine","type":"address","internalType":"address"}],"outputs":[],"stateMutability":"nonpayable"},{"type":"event","name":"FundingApplied","inputs":[{"name":"marketId","type":"uint256","indexed":true,"internalType":"uint256"},{"name":"rate","type":"int256","indexed":false,"internalType":"int256"},{"name":"newIndex","type":"int256","indexed":false,"internalType":"int256"},{"name":"timestamp","type":"uint256","indexed":false,"internalType":"uint256"}],"anonymous":false},{"type":"error","name":"NotAdmin","inputs":[]},{"type":"error","name":"NotEngine","inputs":[]},{"type":"error","name":"ZeroAddress","inputs":[]}],"bytecode":{"object":"0x608060405234801561000f575f5ffd5b50604051610ed7380380610ed783398181016040528101906100319190610139565b5f73ffffffffffffffffffffffffffffffffffffffff168173ffffffffffffffffffffffffffffffffffffffff1603610096576040517fd92e233d00000000000000000000000000000000000000000000000000000000815260040160405180910390fd5b805f5f6101000a81548173ffffffffffffffffffffffffffffffffffffffff021916908373ffffffffffffffffffffffffffffffffffffffff16021790555050610164565b5f5ffd5b5f73ffffffffffffffffffffffffffffffffffffffff82169050919050565b5f610108826100df565b9050919050565b610118816100fe565b8114610122575f5ffd5b50565b5f815190506101338161010f565b92915050565b5f6020828403121561014e5761014d6100db565b5b5f61015b84828501610125565b91505092915050565b610d66806101715f395ff3fe608060405234801561000f575f5ffd5b50600436106100a7575f3560e01c8063704b6c021161006f578063704b6c0214610177578063b619daf714610193578063e03e0d85146101af578063f11db845146101df578063f40f2a79146101fb578063f851a44014610219576100a7565b806302429b98146100ab57806326ef1b72146100db57806345eab4951461010b57806348ba4d2b1461013b57806355efb28714610159575b5f5ffd5b6100c560048036038101906100c091906108ce565b610237565b6040516100d29190610936565b60405180910390f35b6100f560048036038101906100f0919061094f565b610435565b6040516101029190610936565b60405180910390f35b610125600480360381019061012091906109a4565b61044a565b6040516101329190610936565b60405180910390f35b610143610494565b6040516101509190610a33565b60405180910390f35b6101616104b9565b60405161016e9190610a5b565b60405180910390f35b610191600480360381019061018c9190610a9e565b6104bf565b005b6101ad60048036038101906101a89190610a9e565b6105eb565b005b6101c960048036038101906101c4919061094f565b610718565b6040516101d69190610a5b565b60405180910390f35b6101f960048036038101906101f4919061094f565b61072d565b005b61020361083c565b6040516102109190610936565b60405180910390f35b610221610847565b60405161022e9190610a33565b60405180910390f35b5f60015f9054906101000a900473ffffffffffffffffffffffffffffffffffffffff1673ffffffffffffffffffffffffffffffffffffffff163373ffffffffffffffffffffffffffffffffffffffff16141580156102e157505f5f9054906101000a900473ffffffffffffffffffffffffffffffffffffffff1673ffffffffffffffffffffffffffffffffffffffff163373ffffffffffffffffffffffffffffffffffffffff1614155b15610318576040517f27da199000000000000000000000000000000000000000000000000000000000815260040160405180910390fd5b5f60035f8681526020019081526020015f2054426103369190610af6565b905061708081101561034b575f91505061042e565b4260035f8781526020019081526020015f20819055505f838561036e9190610b29565b90505f84670de0b6b3a7640000836103869190610b69565b6103909190610c0c565b90506103b4816601c6bf526340006103a790610c74565b6601c6bf5263400061086b565b93508360025f8981526020019081526020015f205f8282546103d69190610cba565b92505081905550867f5bc77c157525d548a8a52d79d0ab879a816749d39b746f1bf2489ad250335eee8560025f8b81526020019081526020015f20544260405161042293929190610cfb565b60405180910390a25050505b9392505050565b6002602052805f5260405f205f915090505481565b5f5f8360025f8581526020019081526020015f20546104699190610b29565b9050670de0b6b3a764000081866104809190610b69565b61048a9190610c0c565b9150509392505050565b60015f9054906101000a900473ffffffffffffffffffffffffffffffffffffffff1681565b61708081565b5f5f9054906101000a900473ffffffffffffffffffffffffffffffffffffffff1673ffffffffffffffffffffffffffffffffffffffff163373ffffffffffffffffffffffffffffffffffffffff1614610544576040517f7bfa4b9f00000000000000000000000000000000000000000000000000000000815260040160405180910390fd5b5f73ffffffffffffffffffffffffffffffffffffffff168173ffffffffffffffffffffffffffffffffffffffff16036105a9576040517fd92e233d00000000000000000000000000000000000000000000000000000000815260040160405180910390fd5b805f5f6101000a81548173ffffffffffffffffffffffffffffffffffffffff021916908373ffffffffffffffffffffffffffffffffffffffff16021790555050565b5f5f9054906101000a900473ffffffffffffffffffffffffffffffffffffffff1673ffffffffffffffffffffffffffffffffffffffff163373ffffffffffffffffffffffffffffffffffffffff1614610670576040517f7bfa4b9f00000000000000000000000000000000000000000000000000000000815260040160405180910390fd5b5f73ffffffffffffffffffffffffffffffffffffffff168173ffffffffffffffffffffffffffffffffffffffff16036106d5576040517fd92e233d00000000000000000000000000000000000000000000000000000000815260040160405180910390fd5b8060015f6101000a81548173ffffffffffffffffffffffffffffffffffffffff021916908373ffffffffffffffffffffffffffffffffffffffff16021790555050565b6003602052805f5260405f205f915090505481565b60015f9054906101000a900473ffffffffffffffffffffffffffffffffffffffff1673ffffffffffffffffffffffffffffffffffffffff163373ffffffffffffffffffffffffffffffffffffffff16141580156107d657505f5f9054906101000a900473ffffffffffffffffffffffffffffffffffffffff1673ffffffffffffffffffffffffffffffffffffffff163373ffffffffffffffffffffffffffffffffffffffff1614155b1561080d576040517f27da199000000000000000000000000000000000000000000000000000000000815260040160405180910390fd5b4260035f8381526020019081526020015f20819055505f60025f8381526020019081526020015f208190555050565b6601c6bf5263400081565b5f5f9054906101000a900473ffffffffffffffffffffffffffffffffffffffff1681565b5f8284121561087c57829050610890565b8184131561088c57819050610890565b8390505b9392505050565b5f5ffd5b5f819050919050565b6108ad8161089b565b81146108b7575f5ffd5b50565b5f813590506108c8816108a4565b92915050565b5f5f5f606084860312156108e5576108e4610897565b5b5f6108f2868287016108ba565b9350506020610903868287016108ba565b9250506040610914868287016108ba565b9150509250925092565b5f819050919050565b6109308161091e565b82525050565b5f6020820190506109495f830184610927565b92915050565b5f6020828403121561096457610963610897565b5b5f610971848285016108ba565b91505092915050565b6109838161091e565b811461098d575f5ffd5b50565b5f8135905061099e8161097a565b92915050565b5f5f5f606084860312156109bb576109ba610897565b5b5f6109c886828701610990565b93505060206109d986828701610990565b92505060406109ea868287016108ba565b9150509250925092565b5f73ffffffffffffffffffffffffffffffffffffffff82169050919050565b5f610a1d826109f4565b9050919050565b610a2d81610a13565b82525050565b5f602082019050610a465f830184610a24565b92915050565b610a558161089b565b82525050565b5f602082019050610a6e5f830184610a4c565b92915050565b610a7d81610a13565b8114610a87575f5ffd5b50565b5f81359050610a9881610a74565b92915050565b5f60208284031215610ab357610ab2610897565b5b5f610ac084828501610a8a565b91505092915050565b7f4e487b71000000000000000000000000000000000000000000000000000000005f52601160045260245ffd5b5f610b008261089b565b9150610b0b8361089b565b9250828203905081811115610b2357610b22610ac9565b5b92915050565b5f610b338261091e565b9150610b3e8361091e565b925082820390508181125f8412168282135f851215161715610b6357610b62610ac9565b5b92915050565b5f610b738261091e565b9150610b7e8361091e565b9250828202610b8c8161091e565b91507f800000000000000000000000000000000000000000000000000000000000000084145f84121615610bc357610bc2610ac9565b5b8282058414831517610bd857610bd7610ac9565b5b5092915050565b7f4e487b71000000000000000000000000000000000000000000000000000000005f52601260045260245ffd5b5f610c168261091e565b9150610c218361091e565b925082610c3157610c30610bdf565b5b60015f0383147f800000000000000000000000000000000000000000000000000000000000000083141615610c6957610c68610ac9565b5b828205905092915050565b5f610c7e8261091e565b91507f80000000000000000000000000000000000000000000000000000000000000008203610cb057610caf610ac9565b5b815f039050919050565b5f610cc48261091e565b9150610ccf8361091e565b92508282019050828112155f8312168382125f841215161715610cf557610cf4610ac9565b5b92915050565b5f606082019050610d0e5f830186610927565b610d1b6020830185610927565b610d286040830184610a4c565b94935050505056fea2646970667358221220338b3a2cc9a87d272d7c77b190b52f4e48a58973c2cb61ff864ce306879b620364736f6c63430008210033","linkReferences":{}},"methodIdentifiers":{"FUNDING_INTERVAL()":"55efb287","MAX_FUNDING_RATE()":"f40f2a79","accruedFunding(int256,int256,uint256)":"45eab495","admin()":"f851a440","applyFunding(uint256,uint256,uint256)":"02429b98","cumulativeFundingIndex(uint256)":"26ef1b72","initMarket(uint256)":"f11db845","lastFundingTime(uint256)":"e03e0d85","perpEngine()":"48ba4d2b","setAdmin(address)":"704b6c02","setPerpEngine(address)":"b619daf7"},"id":30}