{"abi":[{"type":"constructor","inputs":[{"name":"_goodDollar","type":"address","internalType":"address"},{"name":"_oracle","type":"address","internalType":"address"},{"name":"_feeSplitter","type":"address","internalType":"address"},{"name":"_admin","type":"address","internalType":"address"}],"stateMutability":"nonpayable"},{"type":"function","name":"BPS","inputs":[],"outputs":[{"name":"","type":"uint256","internalType":"uint256"}],"stateMutability":"view"},{"type":"function","name":"LIQUIDATION_BONUS_BPS","inputs":[],"outputs":[{"name":"","type":"uint256","internalType":"uint256"}],"stateMutability":"view"},{"type":"function","name":"LIQUIDATION_RATIO","inputs":[],"outputs":[{"name":"","type":"uint256","internalType":"uint256"}],"stateMutability":"view"},{"type":"function","name":"MIN_COLLATERAL_RATIO","inputs":[],"outputs":[{"name":"","type":"uint256","internalType":"uint256"}],"stateMutability":"view"},{"type":"function","name":"TRADE_FEE_BPS","inputs":[],"outputs":[{"name":"","type":"uint256","internalType":"uint256"}],"stateMutability":"view"},{"type":"function","name":"admin","inputs":[],"outputs":[{"name":"","type":"address","internalType":"address"}],"stateMutability":"view"},{"type":"function","name":"burn","inputs":[{"name":"ticker","type":"string","internalType":"string"},{"name":"syntheticAmount","type":"uint256","internalType":"uint256"}],"outputs":[],"stateMutability":"nonpayable"},{"type":"function","name":"collateral","inputs":[{"name":"","type":"address","internalType":"address"},{"name":"","type":"bytes32","internalType":"bytes32"}],"outputs":[{"name":"","type":"uint256","internalType":"uint256"}],"stateMutability":"view"},{"type":"function","name":"debt","inputs":[{"name":"","type":"address","internalType":"address"},{"name":"","type":"bytes32","internalType":"bytes32"}],"outputs":[{"name":"","type":"uint256","internalType":"uint256"}],"stateMutability":"view"},{"type":"function","name":"depositCollateral","inputs":[{"name":"ticker","type":"string","internalType":"string"},{"name":"amount","type":"uint256","internalType":"uint256"}],"outputs":[],"stateMutability":"nonpayable"},{"type":"function","name":"feeSplitter","inputs":[],"outputs":[{"name":"","type":"address","internalType":"address"}],"stateMutability":"view"},{"type":"function","name":"getCollateralRatio","inputs":[{"name":"user","type":"address","internalType":"address"},{"name":"ticker","type":"string","internalType":"string"}],"outputs":[{"name":"ratio","type":"uint256","internalType":"uint256"}],"stateMutability":"view"},{"type":"function","name":"getPosition","inputs":[{"name":"user","type":"address","internalType":"address"},{"name":"ticker","type":"string","internalType":"string"}],"outputs":[{"name":"userCollateral","type":"uint256","internalType":"uint256"},{"name":"userDebt","type":"uint256","internalType":"uint256"},{"name":"ratio","type":"uint256","internalType":"uint256"}],"stateMutability":"view"},{"type":"function","name":"goodDollar","inputs":[],"outputs":[{"name":"","type":"address","internalType":"contract IGoodDollarToken"}],"stateMutability":"view"},{"type":"function","name":"liquidate","inputs":[{"name":"user","type":"address","internalType":"address"},{"name":"ticker","type":"string","internalType":"string"}],"outputs":[],"stateMutability":"nonpayable"},{"type":"function","name":"mint","inputs":[{"name":"ticker","type":"string","internalType":"string"},{"name":"syntheticAmount","type":"uint256","internalType":"uint256"}],"outputs":[],"stateMutability":"nonpayable"},{"type":"function","name":"oracle","inputs":[],"outputs":[{"name":"","type":"address","internalType":"contract PriceOracle"}],"stateMutability":"view"},{"type":"function","name":"oracleKeys","inputs":[{"name":"","type":"bytes32","internalType":"bytes32"}],"outputs":[{"name":"","type":"bytes32","internalType":"bytes32"}],"stateMutability":"view"},{"type":"function","name":"paused","inputs":[],"outputs":[{"name":"","type":"bool","internalType":"bool"}],"stateMutability":"view"},{"type":"function","name":"registerAsset","inputs":[{"name":"ticker","type":"string","internalType":"string"},{"name":"syntheticAsset","type":"address","internalType":"address"}],"outputs":[],"stateMutability":"nonpayable"},{"type":"function","name":"setAdmin","inputs":[{"name":"newAdmin","type":"address","internalType":"address"}],"outputs":[],"stateMutability":"nonpayable"},{"type":"function","name":"setPaused","inputs":[{"name":"_paused","type":"bool","internalType":"bool"}],"outputs":[],"stateMutability":"nonpayable"},{"type":"function","name":"syntheticAssets","inputs":[{"name":"","type":"bytes32","internalType":"bytes32"}],"outputs":[{"name":"","type":"address","internalType":"address"}],"stateMutability":"view"},{"type":"function","name":"totalCollateral","inputs":[{"name":"","type":"bytes32","internalType":"bytes32"}],"outputs":[{"name":"","type":"uint256","internalType":"uint256"}],"stateMutability":"view"},{"type":"function","name":"withdrawCollateral","inputs":[{"name":"ticker","type":"string","internalType":"string"},{"name":"amount","type":"uint256","internalType":"uint256"}],"outputs":[],"stateMutability":"nonpayable"},{"type":"event","name":"AssetRegistered","inputs":[{"name":"key","type":"bytes32","indexed":true,"internalType":"bytes32"},{"name":"ticker","type":"string","indexed":false,"internalType":"string"},{"name":"syntheticAsset","type":"address","indexed":false,"internalType":"address"}],"anonymous":false},{"type":"event","name":"Burned","inputs":[{"name":"user","type":"address","indexed":true,"internalType":"address"},{"name":"ticker","type":"bytes32","indexed":true,"internalType":"bytes32"},{"name":"syntheticAmount","type":"uint256","indexed":false,"internalType":"uint256"},{"name":"collateralReturned","type":"uint256","indexed":false,"internalType":"uint256"},{"name":"fee","type":"uint256","indexed":false,"internalType":"uint256"}],"anonymous":false},{"type":"event","name":"CollateralDeposited","inputs":[{"name":"user","type":"address","indexed":true,"internalType":"address"},{"name":"ticker","type":"bytes32","indexed":true,"internalType":"bytes32"},{"name":"amount","type":"uint256","indexed":false,"internalType":"uint256"}],"anonymous":false},{"type":"event","name":"CollateralWithdrawn","inputs":[{"name":"user","type":"address","indexed":true,"internalType":"address"},{"name":"ticker","type":"bytes32","indexed":true,"internalType":"bytes32"},{"name":"amount","type":"uint256","indexed":false,"internalType":"uint256"}],"anonymous":false},{"type":"event","name":"Liquidated","inputs":[{"name":"liquidator","type":"address","indexed":true,"internalType":"address"},{"name":"user","type":"address","indexed":true,"internalType":"address"},{"name":"ticker","type":"bytes32","indexed":true,"internalType":"bytes32"},{"name":"syntheticRepaid","type":"uint256","indexed":false,"internalType":"uint256"},{"name":"collateralSeized","type":"uint256","indexed":false,"internalType":"uint256"},{"name":"bonus","type":"uint256","indexed":false,"internalType":"uint256"}],"anonymous":false},{"type":"event","name":"Minted","inputs":[{"name":"user","type":"address","indexed":true,"internalType":"address"},{"name":"ticker","type":"bytes32","indexed":true,"internalType":"bytes32"},{"name":"syntheticAmount","type":"uint256","indexed":false,"internalType":"uint256"},{"name":"collateralUsed","type":"uint256","indexed":false,"internalType":"uint256"},{"name":"fee","type":"uint256","indexed":false,"internalType":"uint256"}],"anonymous":false},{"type":"error","name":"AssetNotRegistered","inputs":[{"name":"key","type":"bytes32","internalType":"bytes32"}]},{"type":"error","name":"CollateralRatioTooLow","inputs":[{"name":"ratio","type":"uint256","internalType":"uint256"},{"name":"minimum","type":"uint256","internalType":"uint256"}]},{"type":"error","name":"InsufficientCollateral","inputs":[{"name":"have","type":"uint256","internalType":"uint256"},{"name":"need","type":"uint256","internalType":"uint256"}]},{"type":"error","name":"InsufficientDebt","inputs":[{"name":"have","type":"uint256","internalType":"uint256"},{"name":"repay","type":"uint256","internalType":"uint256"}]},{"type":"error","name":"NotAdmin","inputs":[]},{"type":"error","name":"Paused","inputs":[]},{"type":"error","name":"PositionHealthy","inputs":[{"name":"ratio","type":"uint256","internalType":"uint256"},{"name":"liquidationThreshold","type":"uint256","internalType":"uint256"}]},{"type":"error","name":"TransferFailed","inputs":[]},{"type":"error","name":"ZeroAddress","inputs":[]},{"type":"error","name":"ZeroAmount","inputs":[]}],"bytecode":{"object":"0x60e0604052346100da5761001d6100146101c7565b929190916102c5565b6100256100df565b61348a6103e082396080518181816102c4015281816113910152818161183001528181611eb60152818161202301528181612b1b01528181612be60152612f05015260a05181818161098c0152818161195001528181611bcb015281816122310152818161267101528181612858015281816131680152613326015260c05181818161083f015281816113bf0152818161141f01528181611ee401528181611f4601528181612c140152612c74015261348a90f35b6100e5565b60405190565b5f80fd5b601f801991011690565b634e487b7160e01b5f52604160045260245ffd5b90610111906100e9565b810190811060018060401b0382111761012957604052565b6100f3565b9061014161013a6100df565b9283610107565b565b5f80fd5b60018060a01b031690565b61015b90610147565b90565b61016781610152565b0361016e57565b5f80fd5b9050519061017f8261015e565b565b6080818303126101c257610197825f8301610172565b926101bf6101a88460208501610172565b936101b68160408601610172565b93606001610172565b90565b610143565b6101e561386a803803806101da8161012e565b928339810190610181565b90919293565b90565b90565b61020561020061020a926101eb565b6101ee565b610147565b90565b610216906101f1565b90565b5f0190565b61023261022d61023792610147565b6101ee565b610147565b90565b6102439061021e565b90565b61024f9061023a565b90565b61025b9061021e565b90565b61026790610252565b90565b5f1b90565b9061028060018060a01b039161026a565b9181191691161790565b6102939061021e565b90565b61029f9061028a565b90565b90565b906102ba6102b56102c192610296565b6102a2565b825461026f565b9055565b92919092806102e46102de6102d95f61020d565b610152565b91610152565b146103c357836103046102fe6102f95f61020d565b610152565b91610152565b146103a7578161032461031e6103195f61020d565b610152565b91610152565b1461038b578261034461033e6103395f61020d565b610152565b91610152565b1461036f5761036d9361035961036192610246565b60805261025e565b60a05260c0525f6102a5565b565b5f63d92e233d60e01b81528061038760048201610219565b0390fd5b5f63d92e233d60e01b8152806103a360048201610219565b0390fd5b5f63d92e233d60e01b8152806103bf60048201610219565b0390fd5b5f63d92e233d60e01b8152806103db60048201610219565b0390fdfe60806040526004361015610013575b610de3565b61001d5f356101ac565b8063056b01ce146101a7578063119e5bf3146101a257806316c38b3c1461019d5780631ce96712146101985780631f33a888146101935780631fbe11f91461018e578063249d39e91461018957806329a723ee14610184578063327256961461017f5780635c975abb1461017a5780636052970c146101755780636dc827d914610170578063704b6c021461016b5780637a9fffb7146101665780637dc0d1d0146101615780638c2261ad1461015c5780639185f59814610157578063b1ad0fa014610152578063b48272cc1461014d578063c4323fea14610148578063c63e383514610143578063ecd1dae61461013e578063f32cd63014610139578063f851a440146101345763ffe3142e0361000e57610dae565b610d60565b610d1d565b610c6e565b610c02565b610bcd565b610b61565b610b28565b610ac1565b610a56565b6109dc565b610955565b6108ea565b610896565b610861565b610808565b610776565b6106a0565b61064a565b6105dc565b6104a1565b6103f8565b6103c5565b61034a565b61027f565b60e01c90565b60405190565b5f80fd5b5f80fd5b5f80fd5b5f80fd5b5f80fd5b5f80fd5b909182601f8301121561020a5781359167ffffffffffffffff831161020557602001926001830284011161020057565b6101cc565b6101c8565b6101c4565b90565b61021b8161020f565b0361022257565b5f80fd5b9050359061023382610212565b565b91604083830312610275575f83013567ffffffffffffffff8111610270576102628361026d9286016101d0565b939094602001610226565b90565b6101c0565b6101bc565b5f0190565b346102ae57610298610292366004610235565b91611571565b6102a06101b2565b806102aa8161027a565b0390f35b6101b8565b5f9103126102bd57565b6101bc565b7f000000000000000000000000000000000000000000000000000000000000000090565b60018060a01b031690565b90565b61030861030361030d926102e6565b6102f1565b6102e6565b90565b610319906102f4565b90565b61032590610310565b90565b6103319061031c565b9052565b9190610348905f60208501940190610328565b565b3461037a5761035a3660046102b3565b6103766103656102c2565b61036d6101b2565b91829182610335565b0390f35b6101b8565b151590565b61038d8161037f565b0361039457565b5f80fd5b905035906103a582610384565b565b906020828203126103c0576103bd915f01610398565b90565b6101bc565b346103f3576103dd6103d83660046103a7565b61161f565b6103e56101b2565b806103ef8161027a565b0390f35b6101b8565b346104275761041161040b366004610235565b91611ae8565b6104196101b2565b806104238161027a565b0390f35b6101b8565b610435906102e6565b90565b6104418161042c565b0361044857565b5f80fd5b9050359061045982610438565b565b91909160408184031261049c57610474835f830161044c565b92602082013567ffffffffffffffff81116104975761049392016101d0565b9091565b6101c0565b6101bc565b346104d0576104ba6104b436600461045b565b916121ca565b6104c26101b2565b806104cc8161027a565b0390f35b6101b8565b90565b6104e1816104d5565b036104e857565b5f80fd5b905035906104f9826104d8565b565b91906040838203126105235780610517610520925f860161044c565b936020016104ec565b90565b6101bc565b61053190610310565b90565b9061053e90610528565b5f5260205260405f2090565b610553906104d5565b90565b906105609061054a565b5f5260205260405f2090565b1c90565b90565b610583906008610588930261056c565b610570565b90565b906105969154610573565b90565b6105b26105b7926105ad6002935f94610534565b610556565b61058b565b90565b6105c39061020f565b9052565b91906105da905f602085019401906105ba565b565b3461060d576106096105f86105f23660046104fb565b90610599565b6106006101b2565b918291826105c7565b0390f35b6101b8565b90565b61062961062461062e92610612565b6102f1565b61020f565b90565b61063c612710610615565b90565b610647610631565b90565b3461067a5761065a3660046102b3565b61067661066561063f565b61066d6101b2565b918291826105c7565b0390f35b6101b8565b61069861069d926106936001935f94610534565b610556565b61058b565b90565b346106d1576106cd6106bc6106b63660046104fb565b9061067f565b6106c46101b2565b918291826105c7565b0390f35b6101b8565b906020828203126106ef576106ec915f016104ec565b90565b6101bc565b906106fe9061054a565b5f5260205260405f2090565b60018060a01b031690565b61072590600861072a930261056c565b61070a565b90565b906107389154610715565b90565b6107519061074c6004915f926106f4565b61072d565b90565b61075d9061042c565b9052565b9190610774905f60208501940190610754565b565b346107a6576107a261079161078c3660046106d6565b61073b565b6107996101b2565b91829182610761565b0390f35b6101b8565b60ff1690565b6107c19060086107c6930261056c565b6107ab565b90565b906107d491546107b1565b90565b6107e35f6014906107c9565b90565b6107ef9061037f565b9052565b9190610806905f602085019401906107e6565b565b34610838576108183660046102b3565b6108346108236107d7565b61082b6101b2565b918291826107f3565b0390f35b6101b8565b7f000000000000000000000000000000000000000000000000000000000000000090565b34610891576108713660046102b3565b61088d61087c61083d565b6108846101b2565b91829182610761565b0390f35b6101b8565b346108c7576108c36108b26108ac36600461045b565b916121db565b6108ba6101b2565b918291826105c7565b0390f35b6101b8565b906020828203126108e5576108e2915f0161044c565b90565b6101bc565b34610918576109026108fd3660046108cc565b61243b565b61090a6101b2565b806109148161027a565b0390f35b6101b8565b90565b61093461092f6109399261091d565b6102f1565b61020f565b90565b610947613a98610920565b90565b61095261093c565b90565b34610985576109653660046102b3565b61098161097061094a565b6109786101b2565b918291826105c7565b0390f35b6101b8565b7f000000000000000000000000000000000000000000000000000000000000000090565b6109b790610310565b90565b6109c3906109ae565b9052565b91906109da905f602085019401906109ba565b565b34610a0c576109ec3660046102b3565b610a086109f761098a565b6109ff6101b2565b918291826109c7565b0390f35b6101b8565b91604083830312610a51575f83013567ffffffffffffffff8111610a4c57610a3e83610a499286016101d0565b93909460200161044c565b90565b6101c0565b6101bc565b34610a8557610a6f610a69366004610a11565b916125d5565b610a776101b2565b80610a818161027a565b0390f35b6101b8565b90565b610aa1610a9c610aa692610a8a565b6102f1565b61020f565b90565b610ab3601e610a8d565b90565b610abe610aa9565b90565b34610af157610ad13660046102b3565b610aed610adc610ab6565b610ae46101b2565b918291826105c7565b0390f35b6101b8565b604090610b1f610b269496959396610b1560608401985f8501906105ba565b60208301906105ba565b01906105ba565b565b34610b5c57610b58610b44610b3e36600461045b565b916125e2565b610b4f9391936101b2565b93849384610af6565b0390f35b6101b8565b34610b9057610b7a610b74366004610235565b91612e35565b610b826101b2565b80610b8c8161027a565b0390f35b6101b8565b90565b610bac610ba7610bb192610b95565b6102f1565b61020f565b90565b610bbf612ee0610b98565b90565b610bca610bb4565b90565b34610bfd57610bdd3660046102b3565b610bf9610be8610bc2565b610bf06101b2565b918291826105c7565b0390f35b6101b8565b34610c3157610c1b610c15366004610235565b916130b9565b610c236101b2565b80610c2d8161027a565b0390f35b6101b8565b90565b610c4d610c48610c5292610c36565b6102f1565b61020f565b90565b610c606103e8610c39565b90565b610c6b610c55565b90565b34610c9e57610c7e3660046102b3565b610c9a610c89610c63565b610c916101b2565b918291826105c7565b0390f35b6101b8565b90610cad9061054a565b5f5260205260405f2090565b90565b610ccc906008610cd1930261056c565b610cb9565b90565b90610cdf9154610cbc565b90565b610cf890610cf36005915f92610ca3565b610cd4565b90565b610d04906104d5565b9052565b9190610d1b905f60208501940190610cfb565b565b34610d4d57610d49610d38610d333660046106d6565b610ce2565b610d406101b2565b91829182610d08565b0390f35b6101b8565b610d5d5f5f9061072d565b90565b34610d9057610d703660046102b3565b610d8c610d7b610d52565b610d836101b2565b91829182610761565b0390f35b6101b8565b610dab90610da66003915f92610556565b61058b565b90565b34610dde57610dda610dc9610dc43660046106d6565b610d95565b610dd16101b2565b918291826105c7565b0390f35b6101b8565b5f80fd5b60a01c90565b610df9610dfe91610de7565b6107ab565b90565b610e0b9054610ded565b90565b9190610e195f610e01565b610e2857610e269261112d565b565b5f6313d0ff5960e31b815280610e406004820161027a565b0390fd5b90565b610e5b610e56610e6092610e44565b6102f1565b61020f565b90565b5f1c90565b610e74610e7991610e63565b61070a565b90565b610e869054610e68565b90565b610e9d610e98610ea292610e44565b6102f1565b6102e6565b90565b610eae90610e89565b90565b634e487b7160e01b5f52601160045260245ffd5b610ed4610eda9193929361020f565b9261020f565b8201809211610ee557565b610eb1565b610ef6610efb91610e63565b610570565b90565b610f089054610eea565b90565b610f1a610f209193929361020f565b9261020f565b8203918211610f2b57565b610eb1565b916020610f51929493610f4a60408201965f8301906105ba565b01906105ba565b565b5f1b90565b90610f645f1991610f53565b9181191691161790565b610f82610f7d610f879261020f565b6102f1565b61020f565b90565b90565b90610fa2610f9d610fa992610f6e565b610f8a565b8254610f58565b9055565b5f80fd5b601f801991011690565b634e487b7160e01b5f52604160045260245ffd5b90610fd990610fb1565b810190811067ffffffffffffffff821117610ff357604052565b610fbb565b60e01b90565b9050519061100b82610384565b565b9060208282031261102657611023915f01610ffe565b90565b6101bc565b91602061104c92949361104560408201965f830190610754565b01906105ba565b565b6110566101b2565b3d5f823e3d90fd5b611067906102f4565b90565b6110739061105e565b90565b61107f90610310565b90565b61108b90610310565b90565b9050519061109b82610212565b565b90916060828403126110d2576110cf6110b8845f850161108e565b936110c6816020860161108e565b9360400161108e565b90565b6101bc565b9160206110f89294936110f160408201965f8301906105ba565b0190610754565b565b611103906102f4565b90565b61110f906110fa565b90565b61111b90610310565b90565b5f91031261112857565b6101bc565b908261114161113b5f610e47565b9161020f565b146115555761114f91613102565b9061116461115f600484906106f4565b610e7c565b918261118061117a6111755f610ea5565b61042c565b9161042c565b146115365761119081839061314b565b9390939061119f858390610ec5565b6111bd6111b86111b160013390610534565b8690610556565b610efe565b6111c83386906132dc565b816111db6111d58361020f565b9161020f565b115f14611526576111eb91610f0b565b5b806111ff6111f98461020f565b9161020f565b106115085750506112388261123261122361121c60013390610534565b8790610556565b9161122d83610efe565b610f0b565b90610f8d565b6112608261125a61124b60038790610556565b9161125583610efe565b610f0b565b90610f8d565b6112928461128c61127d61127660023390610534565b8790610556565b9161128783610efe565b610ec5565b90610f8d565b816112a561129f5f610e47565b9161020f565b1161138c575b6112b76112bc91611106565b611112565b6340c10f19338592803b15611387576112e85f80946112f36112dc6101b2565b97889687958694610ff8565b84526004840161102b565b03925af1801561138257611356575b5033919293909361135161133f6113397fafa80970438fa6a8ad54574239a8d28d0cc4b50da6e4473eab194dea551c6c8795610528565b9561054a565b956113486101b2565b93849384610af6565b0390a3565b611375905f3d811161137b575b61136d8183610fcf565b81019061111e565b5f611302565b503d611363565b61104e565b610fad565b6113b57f000000000000000000000000000000000000000000000000000000000000000061031c565b602063095ea7b3917f0000000000000000000000000000000000000000000000000000000000000000906113fc5f87956114076113f06101b2565b97889687958694610ff8565b84526004840161102b565b03925af18015611503576114d7575b506114486114437f000000000000000000000000000000000000000000000000000000000000000061106a565b611076565b9060606364d6def99284906114785f61146030611082565b9661148361146c6101b2565b98899687958694610ff8565b8452600484016110d7565b03925af19081156114d2576112bc926112b7926114a4575b509150506112ab565b6114c49060603d81116114cb575b6114bc8183610fcf565b81019061109d565b505061149b565b503d6114b2565b61104e565b6114f79060203d81116114fc575b6114ef8183610fcf565b81019061100d565b611416565b503d6114e5565b61104e565b6115225f928392632c1f8ef160e21b845260048401610f30565b0390fd5b50506115315f610e47565b6111ec565b611551905f9182916326ef68cf60e01b835260048301610d08565b0390fd5b5f631f2a200560e01b81528061156d6004820161027a565b0390fd5b9061157c9291610e0e565b565b3361159961159361158e5f610e7c565b61042c565b9161042c565b036115a9576115a790611613565b565b5f637bfa4b9f60e01b8152806115c16004820161027a565b0390fd5b60a01b90565b906115da60ff60a01b916115c5565b9181191691161790565b6115ed9061037f565b90565b90565b9061160861160361160f926115e4565b6115f0565b82546115cb565b9055565b61161d905f6115f3565b565b6116289061157e565b565b91906116355f610e01565b6116445761164292611748565b565b5f6313d0ff5960e31b81528061165c6004820161027a565b0390fd5b61166c61167191610e63565b610cb9565b90565b61167e9054611660565b90565b9060208282031261169a57611697915f0161108e565b90565b6101bc565b6116ae6116b49193929361020f565b9261020f565b916116c083820261020f565b9281840414901517156116cf57565b610eb1565b90565b6116eb6116e66116f0926116d4565b6102f1565b61020f565b90565b634e487b7160e01b5f52601260045260245ffd5b6117136117199161020f565b9161020f565b908115611724570490565b6116f3565b90565b61174061173b61174592611729565b6102f1565b61020f565b90565b908261175c6117565f610e47565b9161020f565b14611acc5761176a91613102565b9061178961178461177d60013390610534565b8490610556565b610efe565b8061179c6117968461020f565b9161020f565b10611aae576117ac908290610f0b565b6117ca6117c56117be60023390610534565b8590610556565b610efe565b806117dd6117d75f610e47565b9161020f565b11611946575b50611803906117fe6117f760013390610534565b8590610556565b610f8d565b61182b8161182561181660038690610556565b9161182083610efe565b610f0b565b90610f8d565b6118547f000000000000000000000000000000000000000000000000000000000000000061031c565b602063a9059cbb91339061187b5f869561188661186f6101b2565b97889687958694610ff8565b84526004840161102b565b03925af18015611941576118a2915f91611913575b501561037f565b6118f757339190916118f26118e06118da7fe69cdf29a59dd324317b598bee3a9ed1fcffb99cc506db72633ed07b59dc6d0493610528565b9361054a565b936118e96101b2565b918291826105c7565b0390a3565b5f6312171d8360e31b81528061190f6004820161027a565b0390fd5b611934915060203d811161193a575b61192c8183610fcf565b81019061100d565b5f61189b565b503d611922565b61104e565b6119b160206119747f00000000000000000000000000000000000000000000000000000000000000006109ae565b63832321bf906119a661199161198c60058b90610ca3565b611674565b9261199a6101b2565b95869485938493610ff8565b835260048301610d08565b03915afa908115611aa957611a34926119ed926119d6925f91611a7b575b509061169f565b6119e7670de0b6b3a76400006116d7565b90611707565b611a2f611a21611a0a85611a046305f5e10061172c565b9061169f565b611a1b670de0b6b3a76400006116d7565b90611707565b611a29610631565b9061169f565b611707565b80611a4e611a48611a4361093c565b61020f565b9161020f565b10156117e357611a5c61093c565b90611a775f928392636a5a2d9160e11b845260048401610f30565b0390fd5b611a9c915060203d8111611aa2575b611a948183610fcf565b810190611681565b5f6119cf565b503d611a8a565b61104e565b611ac85f928392632c1f8ef160e21b845260048401610f30565b0390fd5b5f631f2a200560e01b815280611ae46004820161027a565b0390fd5b90611af3929161162a565b565b9190611b005f610e01565b611b0f57611b0d92611b2b565b565b5f6313d0ff5960e31b815280611b276004820161027a565b0390fd5b91611b3591613102565b90611b4a611b45600484906106f4565b610e7c565b9182611b66611b60611b5b5f610ea5565b61042c565b9161042c565b146121ab57611b89611b84611b7d60028590610534565b8390610556565b610efe565b91611ba8611ba3611b9c60018490610534565b8490610556565b610efe565b9383611bbc611bb65f610e47565b9161020f565b1461218257611c2c6020611bef7f00000000000000000000000000000000000000000000000000000000000000006109ae565b63832321bf90611c21611c0c611c0760058a90610ca3565b611674565b92611c156101b2565b95869485938493610ff8565b835260048301610d08565b03915afa90811561217d57611c6491611c4d915f9161214f575b508661169f565b611c5e670de0b6b3a76400006116d7565b90611707565b611cb0611ca9611c9b611c8489611c7e6305f5e10061172c565b9061169f565b611c95670de0b6b3a76400006116d7565b90611707565b611ca3610631565b9061169f565b8290611707565b80611cca611cc4611cbf610bb4565b61020f565b9161020f565b10156121285750611d05611cf2611d2e92611cec670de0b6b3a76400006116d7565b9061169f565b611cff6305f5e10061172c565b90611707565b611d28611d1a82611d14610c55565b9061169f565b611d22610631565b90611707565b90610ec5565b9081611d42611d3c8861020f565b9161020f565b1161211f575b611dda611dd5611d59888590610f0b565b92611d81611d665f610e47565b611d7c611d7560018a90610534565b8a90610556565b610f8d565b611da8611d8d5f610e47565b611da3611d9c60028a90610534565b8a90610556565b610f8d565b611dd089611dca611dbb60038b90610556565b91611dc583610efe565b610f0b565b90610f8d565b611106565b611112565b639dc29fac338792803b1561211a57611e065f8094611e11611dfa6101b2565b97889687958694610ff8565b84526004840161102b565b03925af18015612115576120e9575b5081611e34611e2e5f610e47565b9161020f565b1161201e575b80611e4d611e475f610e47565b9161020f565b11611eb1575b5033919293949094611eac611e9a611e94611e8e7f050df5bd39b9045b183cf260962616d90dc134df2b0da18110a7c2bc6c68468a96610528565b96610528565b9661054a565b96611ea36101b2565b93849384610af6565b0390a4565b611eda7f000000000000000000000000000000000000000000000000000000000000000061031c565b602063095ea7b3917f000000000000000000000000000000000000000000000000000000000000000090611f215f8695611f2c611f156101b2565b97889687958694610ff8565b84526004840161102b565b03925af1801561201957611fed575b506060611f6f611f6a7f000000000000000000000000000000000000000000000000000000000000000061106a565b611076565b6364d6def99290611f9b5f611f8330611082565b95611fa6611f8f6101b2565b97889687958694610ff8565b8452600484016110d7565b03925af18015611fe857611fba575b611e53565b611fda9060603d8111611fe1575b611fd28183610fcf565b81019061109d565b5050611fb5565b503d611fc8565b61104e565b61200d9060203d8111612012575b6120058183610fcf565b81019061100d565b611f3b565b503d611ffb565b61104e565b6120477f000000000000000000000000000000000000000000000000000000000000000061031c565b602063a9059cbb91339061206e5f87956120796120626101b2565b97889687958694610ff8565b84526004840161102b565b03925af180156120e457612095915f916120b6575b501561037f565b15611e3a575f6312171d8360e31b8152806120b26004820161027a565b0390fd5b6120d7915060203d81116120dd575b6120cf8183610fcf565b81019061100d565b5f61208e565b503d6120c5565b61104e565b612108905f3d811161210e575b6121008183610fcf565b81019061111e565b5f611e20565b503d6120f6565b61104e565b610fad565b90508490611d48565b612130610bb4565b9061214b5f9283926301f7d11160e21b845260048401610f30565b0390fd5b612170915060203d8111612176575b6121688183610fcf565b810190611681565b5f611c46565b503d61215e565b61104e565b5f1961218c610bb4565b906121a75f9283926301f7d11160e21b845260048401610f30565b0390fd5b6121c6905f9182916326ef68cf60e01b835260048301610d08565b0390fd5b906121d59291611af5565b565b5f90565b916121ee916121e86121d7565b50613102565b9061220d61220861220160028490610534565b8490610556565b610efe565b918261222161221b5f610e47565b9161020f565b14612366576122929060206122557f00000000000000000000000000000000000000000000000000000000000000006109ae565b63832321bf9061228761227261226d60058790610ca3565b611674565b9261227b6101b2565b96879485938493610ff8565b835260048301610d08565b03915afa938415612361576122f36122ee61231d936122e96122e16122ca612306966123309b61232b9a5f91612333575b509061169f565b6122db670de0b6b3a76400006116d7565b90611707565b976001610534565b610556565b610efe565b6123006305f5e10061172c565b9061169f565b612317670de0b6b3a76400006116d7565b90611707565b612325610631565b9061169f565b611707565b90565b612354915060203d811161235a575b61234c8183610fcf565b810190611681565b5f6122c3565b503d612342565b61104e565b5050505f1990565b3361238961238361237e5f610e7c565b61042c565b9161042c565b0361239957612397906123f3565b565b5f637bfa4b9f60e01b8152806123b16004820161027a565b0390fd5b906123c660018060a01b0391610f53565b9181191691161790565b90565b906123e86123e36123ef92610528565b6123d0565b82546123b5565b9055565b8061240e6124086124035f610ea5565b61042c565b9161042c565b1461241f5761241d905f6123d3565b565b5f63d92e233d60e01b8152806124376004820161027a565b0390fd5b6124449061236e565b565b91903361246361245d6124585f610e7c565b61042c565b9161042c565b03612473576124719261251a565b565b5f637bfa4b9f60e01b81528061248b6004820161027a565b0390fd5b61249890610e63565b90565b906124b06124ab6124b79261054a565b61248f565b8254610f58565b9055565b60209181520190565b90825f939282370152565b91906124e9816124e2816124ee956124bb565b80956124c4565b610fb1565b0190565b9392906125106020916125189460408801918883035f8a01526124cf565b940190610754565b565b90918061253761253161252c5f610ea5565b61042c565b9161042c565b146125b957612547828490613102565b61255c82612557600484906106f4565b6123d3565b6125718161256c60058490610ca3565b61249b565b919290926125b46125a27f9190ede1bbf154005e1cdc753cb24ff7912bf4412bf72342e5ab03ee770facf09461054a565b946125ab6101b2565b938493846124f2565b0390a2565b5f63d92e233d60e01b8152806125d16004820161027a565b0390fd5b906125e09291612446565b565b9291612608916125f06121d7565b506125f96121d7565b506126026121d7565b50613102565b9061264461263f61263861263061262b61262460018990610534565b8790610556565b610efe565b956002610534565b8490610556565b610efe565b91826126586126525f610e47565b9161020f565b145f1461266657505f19905b565b60206126d0916126957f00000000000000000000000000000000000000000000000000000000000000006109ae565b6126c56126b06126ab63832321bf946005610ca3565b611674565b926126b96101b2565b95869485938493610ff8565b835260048301610d08565b03915afa8015612785576126f361270a91612751935f91612757575b508561169f565b612704670de0b6b3a76400006116d7565b90611707565b61274c61273e612727876127216305f5e10061172c565b9061169f565b612738670de0b6b3a76400006116d7565b90611707565b612746610631565b9061169f565b611707565b90612664565b612778915060203d811161277e575b6127708183610fcf565b810190611681565b5f6126ec565b503d612766565b61104e565b91906127955f610e01565b6127a4576127a2926127c0565b565b5f6313d0ff5960e31b8152806127bc6004820161027a565b0390fd5b90826127d46127ce5f610e47565b9161020f565b14612e19576127e291613102565b906127f76127f2600484906106f4565b610e7c565b918261281361280d6128085f610ea5565b61042c565b9161042c565b14612dfa5761283661283161282a60023390610534565b8390610556565b610efe565b826128496128438361020f565b9161020f565b11612dda576128b9602061287c7f00000000000000000000000000000000000000000000000000000000000000006109ae565b63832321bf906128ae61289961289460058990610ca3565b611674565b926128a26101b2565b95869485938493610ff8565b835260048301610d08565b03915afa8015612dd5576129376129296129166128ff6128e861294595612973975f91612da7575b508a61169f565b6128f9670de0b6b3a76400006116d7565b90611707565b612910670de0b6b3a76400006116d7565b9061169f565b6129236305f5e10061172c565b90611707565b612931610aa9565b9061169f565b61293f610631565b90611707565b9161296e61296761296261295b60013390610534565b8790610556565b610efe565b869061169f565b611707565b806129866129808461020f565b9161020f565b115f14612d8657612a4561299e612a4a928490610f0b565b955b6129d2866129cc6129bd6129b660023390610534565b8990610556565b916129c783610efe565b610f0b565b90610f8d565b612a0e6129e0888690610ec5565b612a086129f96129f260013390610534565b8990610556565b91612a0383610efe565b610f0b565b90610f8d565b612a40612a1c888690610ec5565b612a3a612a2b60038990610556565b91612a3583610efe565b610f0b565b90610f8d565b611106565b611112565b639dc29fac338592803b15612d8157612a765f8094612a81612a6a6101b2565b97889687958694610ff8565b84526004840161102b565b03925af18015612d7c57612d50575b5080612aa4612a9e5f610e47565b9161020f565b11612be1575b83612abd612ab75f610e47565b9161020f565b11612b16575b339192939093612b11612aff612af97ffbb68f61002cbf89cfd4502b79ed21c0d08c91666d4b22825cc11bf41333648e95610528565b9561054a565b95612b086101b2565b93849384610af6565b0390a3565b612b3f7f000000000000000000000000000000000000000000000000000000000000000061031c565b602063a9059cbb913390612b665f8995612b71612b5a6101b2565b97889687958694610ff8565b84526004840161102b565b03925af18015612bdc57612b8d915f91612bae575b501561037f565b15612ac3575f6312171d8360e31b815280612baa6004820161027a565b0390fd5b612bcf915060203d8111612bd5575b612bc78183610fcf565b81019061100d565b5f612b86565b503d612bbd565b61104e565b612c0a7f000000000000000000000000000000000000000000000000000000000000000061031c565b602063095ea7b3917f000000000000000000000000000000000000000000000000000000000000000090612c515f8695612c5c612c456101b2565b97889687958694610ff8565b84526004840161102b565b03925af18015612d4b57612d1f575b50612c9d612c987f000000000000000000000000000000000000000000000000000000000000000061106a565b611076565b60606364d6def9918390612ccc5f612cb430611082565b95612cd7612cc06101b2565b97889687958694610ff8565b8452600484016110d7565b03925af18015612d1a57612cec575b50612aaa565b612d0c9060603d8111612d13575b612d048183610fcf565b81019061109d565b5050612ce6565b503d612cfa565b61104e565b612d3f9060203d8111612d44575b612d378183610fcf565b81019061100d565b612c6b565b503d612d2d565b61104e565b612d6f905f3d8111612d75575b612d678183610fcf565b81019061111e565b5f612a90565b503d612d5d565b61104e565b610fad565b5050612d915f610e47565b92612a4a612a45612da15f610e47565b926129a0565b612dc8915060203d8111612dce575b612dc08183610fcf565b810190611681565b5f6128e1565b503d612db6565b61104e565b9050612df65f928392636943054d60e11b845260048401610f30565b0390fd5b612e15905f9182916326ef68cf60e01b835260048301610d08565b0390fd5b5f631f2a200560e01b815280612e316004820161027a565b0390fd5b90612e40929161278a565b565b9190612e4d5f610e01565b612e5c57612e5a92612eaa565b565b5f6313d0ff5960e31b815280612e746004820161027a565b0390fd5b604090612ea1612ea89496959396612e9760608401985f850190610754565b6020830190610754565b01906105ba565b565b9082612ebe612eb85f610e47565b9161020f565b1461309d57612ecc91613102565b90612ee1612edc600484906106f4565b610e7c565b612efb612ef5612ef05f610ea5565b61042c565b9161042c565b1461307e57612f297f000000000000000000000000000000000000000000000000000000000000000061031c565b60206323b872dd913390612f595f612f4030611082565b95612f6488612f4d6101b2565b98899788968795610ff8565b855260048501612e78565b03925af1801561307957612f80915f9161304b575b501561037f565b61302f57612fb681612fb0612fa1612f9a60013390610534565b8690610556565b91612fab83610efe565b610ec5565b90610f8d565b612fde81612fd8612fc960038690610556565b91612fd383610efe565b610ec5565b90610f8d565b3391909161302a6130186130127f88df26d296ecbf594c8609f433503d1436d24afe03c0d9e5e29c8f6ed92ef9b493610528565b9361054a565b936130216101b2565b918291826105c7565b0390a3565b5f6312171d8360e31b8152806130476004820161027a565b0390fd5b61306c915060203d8111613072575b6130648183610fcf565b81019061100d565b5f612f79565b503d61305a565b61104e565b613099825f9182916326ef68cf60e01b835260048301610d08565b0390fd5b5f631f2a200560e01b8152806130b56004820161027a565b0390fd5b906130c49291612e42565b565b5f90565b905090565b9091826130df816130e6936130ca565b80936124c4565b0190565b90916130f5926130cf565b90565b60200190565b5190565b6131359061310e6130c6565b5061312661311a6101b2565b938492602084016130ea565b60208201810382520382610fcf565b613147613141826130fe565b916130f8565b2090565b60206131c7916131596121d7565b506131626121d7565b5061318c7f00000000000000000000000000000000000000000000000000000000000000006109ae565b6131bc6131a76131a263832321bf946005610ca3565b611674565b926131b06101b2565b95869485938493610ff8565b835260048301610d08565b03915afa9182156132d7576131ff926131e8925f916132a9575b509061169f565b6131f9670de0b6b3a76400006116d7565b90611707565b906132a661329861328a61327761325f61324c6132356132278961322161093c565b9061169f565b61322f610631565b90611707565b613246670de0b6b3a76400006116d7565b9061169f565b6132596305f5e10061172c565b90611707565b95613271670de0b6b3a76400006116d7565b9061169f565b6132846305f5e10061172c565b90611707565b613292610aa9565b9061169f565b6132a0610631565b90611707565b90565b6132ca915060203d81116132d0575b6132c28183610fcf565b810190611681565b5f6131e1565b503d6132b8565b61104e565b6132fd6132f6613302926132ee6121d7565b506002610534565b8390610556565b610efe565b90816133166133105f610e47565b9161020f565b146134465760206133859161334a7f00000000000000000000000000000000000000000000000000000000000000006109ae565b61337a61336561336063832321bf946005610ca3565b611674565b9261336e6101b2565b95869485938493610ff8565b835260048301610d08565b03915afa908115613441576133d86133ca6133b3613410956133fd956133e6955f91613413575b509061169f565b6133c4670de0b6b3a76400006116d7565b90611707565b6133d261093c565b9061169f565b6133e0610631565b90611707565b6133f7670de0b6b3a76400006116d7565b9061169f565b61340a6305f5e10061172c565b90611707565b90565b613434915060203d811161343a575b61342c8183610fcf565b810190611681565b5f6133ac565b503d613422565b61104e565b50506134515f610e47565b9056fea26469706673582212203b9cf343a38f9c5d005e88af35f9c67cde6345fd47907233975e94b0bfdaeda964736f6c63430008210033","linkReferences":{}},"methodIdentifiers":{"BPS()":"249d39e9","LIQUIDATION_BONUS_BPS()":"ecd1dae6","LIQUIDATION_RATIO()":"c4323fea","MIN_COLLATERAL_RATIO()":"7a9fffb7","TRADE_FEE_BPS()":"9185f598","admin()":"f851a440","burn(string,uint256)":"b48272cc","collateral(address,bytes32)":"29a723ee","debt(address,bytes32)":"1fbe11f9","depositCollateral(string,uint256)":"c63e3835","feeSplitter()":"6052970c","getCollateralRatio(address,string)":"6dc827d9","getPosition(address,string)":"b1ad0fa0","goodDollar()":"119e5bf3","liquidate(address,string)":"1f33a888","mint(string,uint256)":"056b01ce","oracle()":"7dc0d1d0","oracleKeys(bytes32)":"f32cd630","paused()":"5c975abb","registerAsset(string,address)":"8c2261ad","setAdmin(address)":"704b6c02","setPaused(bool)":"16c38b3c","syntheticAssets(bytes32)":"32725696","totalCollateral(bytes32)":"ffe3142e","withdrawCollateral(string,uint256)":"1ce96712"},"id":0}