{"abi":[{"type":"constructor","inputs":[{"name":"_goodDollar","type":"address","internalType":"address"},{"name":"_oracle","type":"address","internalType":"address"},{"name":"_feeSplitter","type":"address","internalType":"address"},{"name":"_admin","type":"address","internalType":"address"}],"stateMutability":"nonpayable"},{"type":"function","name":"BPS","inputs":[],"outputs":[{"name":"","type":"uint256","internalType":"uint256"}],"stateMutability":"view"},{"type":"function","name":"LIQUIDATION_BONUS_BPS","inputs":[],"outputs":[{"name":"","type":"uint256","internalType":"uint256"}],"stateMutability":"view"},{"type":"function","name":"LIQUIDATION_RATIO","inputs":[],"outputs":[{"name":"","type":"uint256","internalType":"uint256"}],"stateMutability":"view"},{"type":"function","name":"MIN_COLLATERAL_RATIO","inputs":[],"outputs":[{"name":"","type":"uint256","internalType":"uint256"}],"stateMutability":"view"},{"type":"function","name":"TRADE_FEE_BPS","inputs":[],"outputs":[{"name":"","type":"uint256","internalType":"uint256"}],"stateMutability":"view"},{"type":"function","name":"admin","inputs":[],"outputs":[{"name":"","type":"address","internalType":"address"}],"stateMutability":"view"},{"type":"function","name":"burn","inputs":[{"name":"ticker","type":"string","internalType":"string"},{"name":"syntheticAmount","type":"uint256","internalType":"uint256"}],"outputs":[],"stateMutability":"nonpayable"},{"type":"function","name":"collateral","inputs":[{"name":"","type":"address","internalType":"address"},{"name":"","type":"bytes32","internalType":"bytes32"}],"outputs":[{"name":"","type":"uint256","internalType":"uint256"}],"stateMutability":"view"},{"type":"function","name":"debt","inputs":[{"name":"","type":"address","internalType":"address"},{"name":"","type":"bytes32","internalType":"bytes32"}],"outputs":[{"name":"","type":"uint256","internalType":"uint256"}],"stateMutability":"view"},{"type":"function","name":"depositAndMint","inputs":[{"name":"ticker","type":"string","internalType":"string"},{"name":"collateralAmount","type":"uint256","internalType":"uint256"},{"name":"syntheticAmount","type":"uint256","internalType":"uint256"}],"outputs":[],"stateMutability":"nonpayable"},{"type":"function","name":"depositCollateral","inputs":[{"name":"ticker","type":"string","internalType":"string"},{"name":"amount","type":"uint256","internalType":"uint256"}],"outputs":[],"stateMutability":"nonpayable"},{"type":"function","name":"feeSplitter","inputs":[],"outputs":[{"name":"","type":"address","internalType":"address"}],"stateMutability":"view"},{"type":"function","name":"getCollateralRatio","inputs":[{"name":"user","type":"address","internalType":"address"},{"name":"ticker","type":"string","internalType":"string"}],"outputs":[{"name":"ratio","type":"uint256","internalType":"uint256"}],"stateMutability":"view"},{"type":"function","name":"getMintRequirements","inputs":[{"name":"user","type":"address","internalType":"address"},{"name":"ticker","type":"string","internalType":"string"},{"name":"syntheticAmount","type":"uint256","internalType":"uint256"},{"name":"additionalCollateral","type":"uint256","internalType":"uint256"}],"outputs":[{"name":"requiredCollateral","type":"uint256","internalType":"uint256"},{"name":"fee","type":"uint256","internalType":"uint256"},{"name":"available","type":"uint256","internalType":"uint256"},{"name":"canMint","type":"bool","internalType":"bool"}],"stateMutability":"view"},{"type":"function","name":"getPosition","inputs":[{"name":"user","type":"address","internalType":"address"},{"name":"ticker","type":"string","internalType":"string"}],"outputs":[{"name":"userCollateral","type":"uint256","internalType":"uint256"},{"name":"userDebt","type":"uint256","internalType":"uint256"},{"name":"ratio","type":"uint256","internalType":"uint256"}],"stateMutability":"view"},{"type":"function","name":"goodDollar","inputs":[],"outputs":[{"name":"","type":"address","internalType":"contract IGoodDollarToken"}],"stateMutability":"view"},{"type":"function","name":"liquidate","inputs":[{"name":"user","type":"address","internalType":"address"},{"name":"ticker","type":"string","internalType":"string"}],"outputs":[],"stateMutability":"nonpayable"},{"type":"function","name":"mint","inputs":[{"name":"ticker","type":"string","internalType":"string"},{"name":"syntheticAmount","type":"uint256","internalType":"uint256"}],"outputs":[],"stateMutability":"nonpayable"},{"type":"function","name":"oracle","inputs":[],"outputs":[{"name":"","type":"address","internalType":"contract PriceOracle"}],"stateMutability":"view"},{"type":"function","name":"oracleKeys","inputs":[{"name":"","type":"bytes32","internalType":"bytes32"}],"outputs":[{"name":"","type":"bytes32","internalType":"bytes32"}],"stateMutability":"view"},{"type":"function","name":"paused","inputs":[],"outputs":[{"name":"","type":"bool","internalType":"bool"}],"stateMutability":"view"},{"type":"function","name":"registerAsset","inputs":[{"name":"ticker","type":"string","internalType":"string"},{"name":"syntheticAsset","type":"address","internalType":"address"}],"outputs":[],"stateMutability":"nonpayable"},{"type":"function","name":"setAdmin","inputs":[{"name":"newAdmin","type":"address","internalType":"address"}],"outputs":[],"stateMutability":"nonpayable"},{"type":"function","name":"setPaused","inputs":[{"name":"_paused","type":"bool","internalType":"bool"}],"outputs":[],"stateMutability":"nonpayable"},{"type":"function","name":"syntheticAssets","inputs":[{"name":"","type":"bytes32","internalType":"bytes32"}],"outputs":[{"name":"","type":"address","internalType":"address"}],"stateMutability":"view"},{"type":"function","name":"totalCollateral","inputs":[{"name":"","type":"bytes32","internalType":"bytes32"}],"outputs":[{"name":"","type":"uint256","internalType":"uint256"}],"stateMutability":"view"},{"type":"function","name":"withdrawCollateral","inputs":[{"name":"ticker","type":"string","internalType":"string"},{"name":"amount","type":"uint256","internalType":"uint256"}],"outputs":[],"stateMutability":"nonpayable"},{"type":"event","name":"AssetRegistered","inputs":[{"name":"key","type":"bytes32","indexed":true,"internalType":"bytes32"},{"name":"ticker","type":"string","indexed":false,"internalType":"string"},{"name":"syntheticAsset","type":"address","indexed":false,"internalType":"address"}],"anonymous":false},{"type":"event","name":"Burned","inputs":[{"name":"user","type":"address","indexed":true,"internalType":"address"},{"name":"ticker","type":"bytes32","indexed":true,"internalType":"bytes32"},{"name":"syntheticAmount","type":"uint256","indexed":false,"internalType":"uint256"},{"name":"collateralReturned","type":"uint256","indexed":false,"internalType":"uint256"},{"name":"fee","type":"uint256","indexed":false,"internalType":"uint256"}],"anonymous":false},{"type":"event","name":"CollateralDeposited","inputs":[{"name":"user","type":"address","indexed":true,"internalType":"address"},{"name":"ticker","type":"bytes32","indexed":true,"internalType":"bytes32"},{"name":"amount","type":"uint256","indexed":false,"internalType":"uint256"}],"anonymous":false},{"type":"event","name":"CollateralWithdrawn","inputs":[{"name":"user","type":"address","indexed":true,"internalType":"address"},{"name":"ticker","type":"bytes32","indexed":true,"internalType":"bytes32"},{"name":"amount","type":"uint256","indexed":false,"internalType":"uint256"}],"anonymous":false},{"type":"event","name":"Liquidated","inputs":[{"name":"liquidator","type":"address","indexed":true,"internalType":"address"},{"name":"user","type":"address","indexed":true,"internalType":"address"},{"name":"ticker","type":"bytes32","indexed":true,"internalType":"bytes32"},{"name":"syntheticRepaid","type":"uint256","indexed":false,"internalType":"uint256"},{"name":"collateralSeized","type":"uint256","indexed":false,"internalType":"uint256"},{"name":"bonus","type":"uint256","indexed":false,"internalType":"uint256"}],"anonymous":false},{"type":"event","name":"Minted","inputs":[{"name":"user","type":"address","indexed":true,"internalType":"address"},{"name":"ticker","type":"bytes32","indexed":true,"internalType":"bytes32"},{"name":"syntheticAmount","type":"uint256","indexed":false,"internalType":"uint256"},{"name":"collateralUsed","type":"uint256","indexed":false,"internalType":"uint256"},{"name":"fee","type":"uint256","indexed":false,"internalType":"uint256"}],"anonymous":false},{"type":"error","name":"AssetNotRegistered","inputs":[{"name":"key","type":"bytes32","internalType":"bytes32"}]},{"type":"error","name":"CollateralRatioTooLow","inputs":[{"name":"ratio","type":"uint256","internalType":"uint256"},{"name":"minimum","type":"uint256","internalType":"uint256"}]},{"type":"error","name":"InsufficientCollateral","inputs":[{"name":"have","type":"uint256","internalType":"uint256"},{"name":"need","type":"uint256","internalType":"uint256"}]},{"type":"error","name":"InsufficientDebt","inputs":[{"name":"have","type":"uint256","internalType":"uint256"},{"name":"repay","type":"uint256","internalType":"uint256"}]},{"type":"error","name":"NotAdmin","inputs":[]},{"type":"error","name":"Paused","inputs":[]},{"type":"error","name":"PositionHealthy","inputs":[{"name":"ratio","type":"uint256","internalType":"uint256"},{"name":"liquidationThreshold","type":"uint256","internalType":"uint256"}]},{"type":"error","name":"TransferFailed","inputs":[]},{"type":"error","name":"ZeroAddress","inputs":[]},{"type":"error","name":"ZeroAmount","inputs":[]}],"bytecode":{"object":"0x60e03461018157601f6121d338819003918201601f19168301916001600160401b03831184841017610185578084926080946040528339810103126101815761004781610199565b9061005460208201610199565b9161006d606061006660408501610199565b9301610199565b6001600160a01b03909116928315610172576001600160a01b0316908115610172576001600160a01b03831615610172576001600160a01b03169283156101725760805260a05260c0525f80546001600160a01b03191691909117905560405161202590816101ae823960805181818161075f0152818161082f0152818161116a0152818161128101528181611491015281816116c801528181611c380152611e00015260a0518181816101e20152818161057101528181610a4701528181610c6f01528181610f3601528181611552015281816118f601528181611a5b0152611f25015260c0518181816107ec01528181610d5e015281816111250152611c860152f35b63d92e233d60e01b5f5260045ffd5b5f80fd5b634e487b7160e01b5f52604160045260245ffd5b51906001600160a01b03821682036101815756fe60806040526004361015610011575f80fd5b5f5f3560e01c8063056b01ce146116f7578063119e5bf3146116b357806316c38b3c146116595780631ce96712146113c45780631f33a88814610e885780631fbe11f914610e45578063249d39e914610e2857806329a723ee14610de55780633272569614610db25780635c975abb14610d8d5780636052970c14610d485780636dc827d914610d26578063704b6c0214610cbb5780637a9fffb714610c9e5780637dc0d1d014610c595780638c2261ad14610b455780639185f59814610b29578063b1ad0fa014610997578063b48272cc146104dc578063c4323fea146104bf578063c44bac021461044a578063c63e3835146103f4578063ecd1dae6146103d7578063f32cd630146103ad578063f851a44014610386578063fbaf72101461016f5763ffe3142e14610143575f80fd5b3461016c57602036600319011261016c5760406020916004358152600383522054604051908152f35b80fd5b503461016c57608036600319011261016c57610189611788565b60243567ffffffffffffffff8111610382576101ac6101b2913690600401611727565b906119da565b91828152600560205260408120546040519063832321bf60e01b8252600482015260208160248160018060a01b037f0000000000000000000000000000000000000000000000000000000000000000165afa90811561037757829161033f575b50610228670de0b6b3a764000091604435611825565b0490613a98820291801592818104613a981484171561032b576127109004670de0b6b3a7640000810290808204670de0b6b3a7640000149015171561032b576305f5e100900492670de0b6b3a76400008202918204670de0b6b3a7640000141715610317576305f5e100900492601e840293808504601e1490151715610317576102de60809560018060a01b03831684526001602052604084208185526020526102d8606435604086205461186e565b92611ed2565b9081811115610310576102f192506117e2565b6127106040519383855204602084015280604084015210156060820152f35b50506102f1565b634e487b7160e01b82526011600452602482fd5b634e487b7160e01b83526011600452602483fd5b90506020813d60201161036f575b8161035a602093836117ef565b8101031261036b5751610228610212565b5f80fd5b3d915061034d565b6040513d84823e3d90fd5b8280fd5b503461016c578060031936011261016c57546040516001600160a01b039091168152602090f35b503461016c57602036600319011261016c5760406020916004358152600583522054604051908152f35b503461016c578060031936011261016c5760206040516103e88152f35b503461016c5761040336611755565b9160ff845460a01c1661043b57821561042c576104299291610424916119da565b611db0565b80f35b631f2a200560e01b8452600484fd5b6313d0ff5960e31b8452600484fd5b503461016c57606036600319011261016c5760043567ffffffffffffffff81116104bb5761047c903690600401611727565b6024359160ff845460a01c1661043b57610429929161049a916119da565b90806104ab575b5060443590611a08565b6104b59082611db0565b5f6104a1565b5080fd5b503461016c578060031936011261016c576020604051612ee08152f35b503461016c576104eb36611755565b9160ff845460a01c1661043b57821561042c5790610508916119da565b808352600460205260408320549091906001600160a01b031680156109835733845260026020526040842083855260205260408420549081831161096c5783855260056020908152604080872054905163832321bf60e01b8152600481019190915290816024817f00000000000000000000000000000000000000000000000000000000000000006001600160a01b03165afa9081156107d2578691610938575b506105bd670de0b6b3a76400009185611825565b04670de0b6b3a7640000810290808204670de0b6b3a76400001490151715610924576305f5e1009004601e810290808204601e14901517156109245761062861271087920493338352600160205260408320878452602052610623866040852054611825565b611838565b83811115610918578361063a916117e2565b915b3382526002602052604082208683526020526040822061065d8682546117e2565b9055610669848461186e565b33835260016020526040832087845260205261068a604084209182546117e2565b9055610696848461186e565b86835260036020526106ad604084209182546117e2565b9055803b156104bb57604051632770a7eb60e21b8152336004820152602481018690529082908290604490829084905af18015610377576108ff575b5050816107dd575b80610734575b60408051938452602084019190915282015233907ffbb68f61002cbf89cfd4502b79ed21c0d08c91666d4b22825cc11bf41333648e90606090a380f35b60405163a9059cbb60e01b815233600482015260248101829052602081604481896001600160a01b037f0000000000000000000000000000000000000000000000000000000000000000165af19081156107d25786916107a3575b506106f7576312171d8360e31b8552600485fd5b6107c5915060203d6020116107cb575b6107bd81836117ef565b810190611856565b5f61078f565b503d6107b3565b6040513d88823e3d90fd5b60405163095ea7b360e01b81527f00000000000000000000000000000000000000000000000000000000000000006001600160a01b03811660048301526024820184905290602081806044810103818a7f00000000000000000000000000000000000000000000000000000000000000006001600160a01b03165af180156108f4576108d7575b506040516364d6def960e01b81526004810184905230602482015290606090829060449082908a906001600160a01b03165af180156107d2576108a8575b506106f1565b6108c99060603d6060116108d0575b6108c181836117ef565b81019061187b565b50506108a2565b503d6108b7565b6108ef9060203d6020116107cb576107bd81836117ef565b610864565b6040513d89823e3d90fd5b81610909916117ef565b61091457845f6106e9565b8480fd5b5090915084809261063c565b634e487b7160e01b86526011600452602486fd5b90506020813d602011610964575b81610953602093836117ef565b8101031261036b57516105bd6105a9565b3d9150610946565b6044858484636943054d60e11b8352600452602452fd5b6326ef68cf60e01b84526004839052602484fd5b503461016c576109b3906109aa3661179e565b919391906119da565b9160018060a01b031690818152600160205260408120838252602052604081205491815260026020526040812083825260205260408120549283155f14610a1d575050610a195f195b604051938493846040919493926060820195825260208201520152565b0390f35b815260056020908152604080832054905163832321bf60e01b8152600481019190915290816024817f00000000000000000000000000000000000000000000000000000000000000006001600160a01b03165afa908115610377578291610af5575b50610a93670de0b6b3a76400009185611825565b04906305f5e10083028381046305f5e100148415171561031757670de0b6b3a76400009004906127108202918083046127101490151715610ae15750610a1991610adc91611838565b6109fc565b634e487b7160e01b81526011600452602490fd5b90506020813d602011610b21575b81610b10602093836117ef565b8101031261036b5751610a93610a7f565b3d9150610b03565b503461016c578060031936011261016c576020604051601e8152f35b503461016c57604036600319011261016c5760043567ffffffffffffffff81116104bb57610b77903690600401611727565b6024356001600160a01b0381169290839003610c555783546001600160a01b03163303610c46578215610c37579060608282610bd4817f9190ede1bbf154005e1cdc753cb24ff7912bf4412bf72342e5ab03ee770facf0966119da565b95868852600460205260408820816bffffffffffffffffffffffff60a01b8254161790558688526005602052866040892055604051948593604085528160408601528585013782820184018890526020830152601f01601f19168101030190a280f35b63d92e233d60e01b8452600484fd5b637bfa4b9f60e01b8452600484fd5b8380fd5b503461016c578060031936011261016c576040517f00000000000000000000000000000000000000000000000000000000000000006001600160a01b03168152602090f35b503461016c578060031936011261016c576020604051613a988152f35b503461016c57602036600319011261016c57610cd5611788565b8154906001600160a01b0382163303610d17576001600160a01b0316908115610d08576001600160a01b03191617815580f35b63d92e233d60e01b8352600483fd5b637bfa4b9f60e01b8352600483fd5b503461016c576020610d40610d3a3661179e565b91611896565b604051908152f35b503461016c578060031936011261016c576040517f00000000000000000000000000000000000000000000000000000000000000006001600160a01b03168152602090f35b503461016c578060031936011261016c5760ff6020915460a01c166040519015158152f35b503461016c57602036600319011261016c57602090600435815260048252604060018060a01b0391205416604051908152f35b503461016c57604036600319011261016c576020906040906001600160a01b03610e0d611788565b16815260018352818120602435825283522054604051908152f35b503461016c578060031936011261016c5760206040516127108152f35b503461016c57604036600319011261016c576020906040906001600160a01b03610e6d611788565b16815260028352818120602435825283522054604051908152f35b503461036b57610e973661179e565b60ff5f5460a01c166113b557610eac916119da565b90815f52600460205260018060a01b0360405f2054169081156113a25760018060a01b031690815f52600260205260405f20835f5260205260405f205490825f52600160205260405f20845f5260205260405f2054821561138657845f52600560205260405f20546040519063832321bf60e01b8252600482015260208160248160018060a01b037f0000000000000000000000000000000000000000000000000000000000000000165afa908115611312575f91611352575b50610f7a670de0b6b3a76400009185611825565b046305f5e10082028281046305f5e100148315171561132657670de0b6b3a7640000900461271081029080820461271014901517156113265781610fbd91611838565b612ee081101561133a5750670de0b6b3a7640000810290808204670de0b6b3a76400001490151715611326576305f5e1009004906103e882028281046103e814831517156113265761271061101391048361186e565b9281841161131d575b61102684836117e2565b91865f52600160205260405f20885f526020525f6040812055865f52600260205260405f20885f526020525f6040812055875f52600360205261106e60405f209182546117e2565b9055803b1561036b57604051632770a7eb60e21b815233600482015260248101869052905f908290604490829084905af18015611312576112f9575b509082918793611251575b80611116575b507f050df5bd39b9045b183cf260962616d90dc134df2b0da18110a7c2bc6c68468a92508082111561110e576110f190826117e2565b905b6040805194855260208501919091528301523391606090a480f35b5085906110f3565b60405163095ea7b360e01b81527f00000000000000000000000000000000000000000000000000000000000000006001600160a01b03811660048301526024820183905290919060208380604481010381897f00000000000000000000000000000000000000000000000000000000000000006001600160a01b03165af19182156107d2576060936111d293611234575b506040516364d6def960e01b8152600481019190915230602482015295869283919082906044820190565b03926001600160a01b03165af19283156108f4577f050df5bd39b9045b183cf260962616d90dc134df2b0da18110a7c2bc6c68468a93611215575b8793506110bb565b61122d9060603d6060116108d0576108c181836117ef565b505061120d565b61124c9060203d6020116107cb576107bd81836117ef565b6111a7565b60405163a9059cbb60e01b81523360048201526024810184905292935090916020816044818b6001600160a01b037f0000000000000000000000000000000000000000000000000000000000000000165af19081156112ee5788916112cf575b50156112c057908692916110b5565b6312171d8360e31b8752600487fd5b6112e8915060203d6020116107cb576107bd81836117ef565b5f6112b1565b6040513d8a823e3d90fd5b61130891939297505f906117ef565b5f9590915f6110aa565b6040513d5f823e3d90fd5b9250809261101c565b634e487b7160e01b5f52601160045260245ffd5b6301f7d11160e21b5f52600452612ee060245260445ffd5b90506020813d60201161137e575b8161136d602093836117ef565b8101031261036b5751610f7a610f66565b3d9150611360565b6301f7d11160e21b5f9081525f19600452612ee0602452604490fd5b826326ef68cf60e01b5f5260045260245ffd5b6313d0ff5960e31b5f5260045ffd5b3461036b576113d236611755565b919060ff5f5460a01c166113b557821561164a576113ef916119da565b90335f52600160205260405f20825f5260205260405f20548181106116355781611418916117e2565b335f52600260205260405f20835f5260205260405f205480611523575b50335f52600160205260405f20835f5260205260405f2055815f52600360205260405f206114648282546117e2565b905560405163a9059cbb60e01b8152336004820152602481018290526020816044815f6001600160a01b037f0000000000000000000000000000000000000000000000000000000000000000165af1908115611312575f91611504575b50156114f5576040519081527fe69cdf29a59dd324317b598bee3a9ed1fcffb99cc506db72633ed07b59dc6d0460203392a3005b6312171d8360e31b5f5260045ffd5b61151d915060203d6020116107cb576107bd81836117ef565b836114c1565b835f52600560205260405f20546040519063832321bf60e01b8252600482015260208160248160018060a01b037f0000000000000000000000000000000000000000000000000000000000000000165afa908115611312575f916115fb575b5061159690670de0b6b3a764000092611825565b046305f5e10082028281046305f5e100148315171561132657670de0b6b3a76400009004906127108202918083046127101490151715611326576115d991611838565b613a9881101561143557636a5a2d9160e11b5f52600452613a9860245260445ffd5b90506020813d60201161162d575b81611616602093836117ef565b8101031261036b5751670de0b6b3a7640000611582565b3d9150611609565b632c1f8ef160e21b5f5260045260245260445ffd5b631f2a200560e01b5f5260045ffd5b3461036b57602036600319011261036b5760043580151580910361036b575f54906001600160a01b03821633036116a45760ff60a01b1990911660a09190911b60ff60a01b16175f55005b637bfa4b9f60e01b5f5260045ffd5b3461036b575f36600319011261036b576040517f00000000000000000000000000000000000000000000000000000000000000006001600160a01b03168152602090f35b3461036b5761170536611755565b909160ff5f5460a01c166113b55761172592611720916119da565b611a08565b005b9181601f8401121561036b5782359167ffffffffffffffff831161036b576020838186019501011161036b57565b604060031982011261036b576004359067ffffffffffffffff821161036b5761178091600401611727565b909160243590565b600435906001600160a01b038216820361036b57565b90604060031983011261036b576004356001600160a01b038116810361036b57916024359067ffffffffffffffff821161036b576117de91600401611727565b9091565b9190820391821161132657565b90601f8019910116810190811067ffffffffffffffff82111761181157604052565b634e487b7160e01b5f52604160045260245ffd5b8181029291811591840414171561132657565b8115611842570490565b634e487b7160e01b5f52601260045260245ffd5b9081602091031261036b5751801515810361036b5790565b9190820180921161132657565b9081606091031261036b578051916040602083015192015190565b916118a0916119da565b9060018060a01b031690815f52600260205260405f20815f5260205260405f205480156119d257815f52600560205260405f20546040519063832321bf60e01b8252600482015260208160248160018060a01b037f0000000000000000000000000000000000000000000000000000000000000000165afa908115611312575f91611998575b5061193a90670de0b6b3a764000092611825565b04915f52600160205260405f20905f5260205260405f20546305f5e1008102908082046305f5e100149015171561132657670de0b6b3a764000090049061271082029180830461271014901517156113265761199591611838565b90565b90506020813d6020116119ca575b816119b3602093836117ef565b8101031261036b5751670de0b6b3a7640000611926565b3d91506119a6565b5050505f1990565b90611a02602060405183819483830196873781015f838201520301601f1981018352826117ef565b51902090565b90801561164a575f828152600460205260409020546001600160a01b031680156113a257825f52600560205260405f20546040519063832321bf60e01b8252600482015260208160248160018060a01b037f0000000000000000000000000000000000000000000000000000000000000000165afa908115611312575f91611d7c575b50611a9f670de0b6b3a76400009184611825565b04613a98810290801591818104613a9814831715611326576127109004670de0b6b3a7640000810290808204670de0b6b3a76400001490151715611326576305f5e100900491670de0b6b3a76400008202918204670de0b6b3a7640000141715611326576305f5e1009004601e810290808204601e149015171561132657612710900490335f52600160205260405f20855f5260205260405f2054611b448633611ed2565b80821115611d7457611b55916117e2565b8181106116355750335f52600260205260405f20855f5260205260405f20611b7e85825461186e565b905581611c0e575b823b1561036b576040516340c10f1960e01b815233600482015260248101859052925f908490604490829084905af1928315611312577fafa80970438fa6a8ad54574239a8d28d0cc4b50da6e4473eab194dea551c6c8793611bfe575b506040805194855260208501919091528301523391606090a3565b5f611c08916117ef565b5f611be3565b6040516323b872dd60e01b8152336004820152306024820152604481018390526001600160a01b037f000000000000000000000000000000000000000000000000000000000000000016906020816064815f865af1908115611312575f91611d55575b50156114f55760405163095ea7b360e01b81527f00000000000000000000000000000000000000000000000000000000000000006001600160a01b03811660048301526024820185905291602090829060449082905f905af1801561131257611d38575b506040516364d6def960e01b81526004810184905230602482015290606090829060449082905f906001600160a01b03165af1801561131257611d19575b50611b86565b611d319060603d6060116108d0576108c181836117ef565b5050611d13565b611d509060203d6020116107cb576107bd81836117ef565b611cd5565b611d6e915060203d6020116107cb576107bd81836117ef565b5f611c71565b50505f611b55565b90506020813d602011611da8575b81611d97602093836117ef565b8101031261036b5751611a9f611a8b565b3d9150611d8a565b5f818152600460205260409020549091906001600160a01b031615611ebf576040516323b872dd60e01b8152336004820152306024820152604481018290526020816064815f6001600160a01b037f0000000000000000000000000000000000000000000000000000000000000000165af1908115611312575f91611ea0575b50156114f557335f52600160205260405f20825f5260205260405f20611e5782825461186e565b9055815f52600360205260405f20611e7082825461186e565b90556040519081527f88df26d296ecbf594c8609f433503d1436d24afe03c0d9e5e29c8f6ed92ef9b460203392a3565b611eb9915060203d6020116107cb576107bd81836117ef565b5f611e30565b506326ef68cf60e01b5f5260045260245ffd5b60018060a01b03165f52600260205260405f20815f5260205260405f2054908115611fe9575f52600560205260405f20546040519063832321bf60e01b8252600482015260208160248160018060a01b037f0000000000000000000000000000000000000000000000000000000000000000165afa908115611312575f91611faf575b50611f6990670de0b6b3a764000092611825565b04613a98810290808204613a981490151715611326576127109004670de0b6b3a7640000810290808204670de0b6b3a76400001490151715611326576305f5e100900490565b90506020813d602011611fe1575b81611fca602093836117ef565b8101031261036b5751670de0b6b3a7640000611f55565b3d9150611fbd565b50505f9056fea26469706673582212209f47da8cf6c9182798fcf780fb1ad70194e7bb0ff5e919e35c13fbec2f4791df64736f6c63430008210033","linkReferences":{}},"methodIdentifiers":{"BPS()":"249d39e9","LIQUIDATION_BONUS_BPS()":"ecd1dae6","LIQUIDATION_RATIO()":"c4323fea","MIN_COLLATERAL_RATIO()":"7a9fffb7","TRADE_FEE_BPS()":"9185f598","admin()":"f851a440","burn(string,uint256)":"b48272cc","collateral(address,bytes32)":"29a723ee","debt(address,bytes32)":"1fbe11f9","depositAndMint(string,uint256,uint256)":"c44bac02","depositCollateral(string,uint256)":"c63e3835","feeSplitter()":"6052970c","getCollateralRatio(address,string)":"6dc827d9","getMintRequirements(address,string,uint256,uint256)":"fbaf7210","getPosition(address,string)":"b1ad0fa0","goodDollar()":"119e5bf3","liquidate(address,string)":"1f33a888","mint(string,uint256)":"056b01ce","oracle()":"7dc0d1d0","oracleKeys(bytes32)":"f32cd630","paused()":"5c975abb","registerAsset(string,address)":"8c2261ad","setAdmin(address)":"704b6c02","setPaused(bool)":"16c38b3c","syntheticAssets(bytes32)":"32725696","totalCollateral(bytes32)":"ffe3142e","withdrawCollateral(string,uint256)":"1ce96712"},"id":91}