{"abi":[{"type":"constructor","inputs":[{"name":"_goodDollar","type":"address","internalType":"address"},{"name":"_oracle","type":"address","internalType":"address"},{"name":"_feeSplitter","type":"address","internalType":"address"},{"name":"_admin","type":"address","internalType":"address"}],"stateMutability":"nonpayable"},{"type":"function","name":"BPS","inputs":[],"outputs":[{"name":"","type":"uint256","internalType":"uint256"}],"stateMutability":"view"},{"type":"function","name":"LIQUIDATION_BONUS_BPS","inputs":[],"outputs":[{"name":"","type":"uint256","internalType":"uint256"}],"stateMutability":"view"},{"type":"function","name":"LIQUIDATION_RATIO","inputs":[],"outputs":[{"name":"","type":"uint256","internalType":"uint256"}],"stateMutability":"view"},{"type":"function","name":"MIN_COLLATERAL_RATIO","inputs":[],"outputs":[{"name":"","type":"uint256","internalType":"uint256"}],"stateMutability":"view"},{"type":"function","name":"TRADE_FEE_BPS","inputs":[],"outputs":[{"name":"","type":"uint256","internalType":"uint256"}],"stateMutability":"view"},{"type":"function","name":"admin","inputs":[],"outputs":[{"name":"","type":"address","internalType":"address"}],"stateMutability":"view"},{"type":"function","name":"burn","inputs":[{"name":"ticker","type":"string","internalType":"string"},{"name":"syntheticAmount","type":"uint256","internalType":"uint256"}],"outputs":[],"stateMutability":"nonpayable"},{"type":"function","name":"collateral","inputs":[{"name":"","type":"address","internalType":"address"},{"name":"","type":"bytes32","internalType":"bytes32"}],"outputs":[{"name":"","type":"uint256","internalType":"uint256"}],"stateMutability":"view"},{"type":"function","name":"debt","inputs":[{"name":"","type":"address","internalType":"address"},{"name":"","type":"bytes32","internalType":"bytes32"}],"outputs":[{"name":"","type":"uint256","internalType":"uint256"}],"stateMutability":"view"},{"type":"function","name":"depositCollateral","inputs":[{"name":"ticker","type":"string","internalType":"string"},{"name":"amount","type":"uint256","internalType":"uint256"}],"outputs":[],"stateMutability":"nonpayable"},{"type":"function","name":"feeSplitter","inputs":[],"outputs":[{"name":"","type":"address","internalType":"address"}],"stateMutability":"view"},{"type":"function","name":"getCollateralRatio","inputs":[{"name":"user","type":"address","internalType":"address"},{"name":"ticker","type":"string","internalType":"string"}],"outputs":[{"name":"ratio","type":"uint256","internalType":"uint256"}],"stateMutability":"view"},{"type":"function","name":"getPosition","inputs":[{"name":"user","type":"address","internalType":"address"},{"name":"ticker","type":"string","internalType":"string"}],"outputs":[{"name":"userCollateral","type":"uint256","internalType":"uint256"},{"name":"userDebt","type":"uint256","internalType":"uint256"},{"name":"ratio","type":"uint256","internalType":"uint256"}],"stateMutability":"view"},{"type":"function","name":"goodDollar","inputs":[],"outputs":[{"name":"","type":"address","internalType":"contract IGoodDollarToken"}],"stateMutability":"view"},{"type":"function","name":"liquidate","inputs":[{"name":"user","type":"address","internalType":"address"},{"name":"ticker","type":"string","internalType":"string"}],"outputs":[],"stateMutability":"nonpayable"},{"type":"function","name":"mint","inputs":[{"name":"ticker","type":"string","internalType":"string"},{"name":"syntheticAmount","type":"uint256","internalType":"uint256"}],"outputs":[],"stateMutability":"nonpayable"},{"type":"function","name":"oracle","inputs":[],"outputs":[{"name":"","type":"address","internalType":"contract PriceOracle"}],"stateMutability":"view"},{"type":"function","name":"oracleKeys","inputs":[{"name":"","type":"bytes32","internalType":"bytes32"}],"outputs":[{"name":"","type":"bytes32","internalType":"bytes32"}],"stateMutability":"view"},{"type":"function","name":"paused","inputs":[],"outputs":[{"name":"","type":"bool","internalType":"bool"}],"stateMutability":"view"},{"type":"function","name":"registerAsset","inputs":[{"name":"ticker","type":"string","internalType":"string"},{"name":"syntheticAsset","type":"address","internalType":"address"}],"outputs":[],"stateMutability":"nonpayable"},{"type":"function","name":"setAdmin","inputs":[{"name":"newAdmin","type":"address","internalType":"address"}],"outputs":[],"stateMutability":"nonpayable"},{"type":"function","name":"setPaused","inputs":[{"name":"_paused","type":"bool","internalType":"bool"}],"outputs":[],"stateMutability":"nonpayable"},{"type":"function","name":"syntheticAssets","inputs":[{"name":"","type":"bytes32","internalType":"bytes32"}],"outputs":[{"name":"","type":"address","internalType":"address"}],"stateMutability":"view"},{"type":"function","name":"totalCollateral","inputs":[{"name":"","type":"bytes32","internalType":"bytes32"}],"outputs":[{"name":"","type":"uint256","internalType":"uint256"}],"stateMutability":"view"},{"type":"function","name":"withdrawCollateral","inputs":[{"name":"ticker","type":"string","internalType":"string"},{"name":"amount","type":"uint256","internalType":"uint256"}],"outputs":[],"stateMutability":"nonpayable"},{"type":"event","name":"AssetRegistered","inputs":[{"name":"key","type":"bytes32","indexed":true,"internalType":"bytes32"},{"name":"ticker","type":"string","indexed":false,"internalType":"string"},{"name":"syntheticAsset","type":"address","indexed":false,"internalType":"address"}],"anonymous":false},{"type":"event","name":"Burned","inputs":[{"name":"user","type":"address","indexed":true,"internalType":"address"},{"name":"ticker","type":"bytes32","indexed":true,"internalType":"bytes32"},{"name":"syntheticAmount","type":"uint256","indexed":false,"internalType":"uint256"},{"name":"collateralReturned","type":"uint256","indexed":false,"internalType":"uint256"},{"name":"fee","type":"uint256","indexed":false,"internalType":"uint256"}],"anonymous":false},{"type":"event","name":"CollateralDeposited","inputs":[{"name":"user","type":"address","indexed":true,"internalType":"address"},{"name":"ticker","type":"bytes32","indexed":true,"internalType":"bytes32"},{"name":"amount","type":"uint256","indexed":false,"internalType":"uint256"}],"anonymous":false},{"type":"event","name":"CollateralWithdrawn","inputs":[{"name":"user","type":"address","indexed":true,"internalType":"address"},{"name":"ticker","type":"bytes32","indexed":true,"internalType":"bytes32"},{"name":"amount","type":"uint256","indexed":false,"internalType":"uint256"}],"anonymous":false},{"type":"event","name":"Liquidated","inputs":[{"name":"liquidator","type":"address","indexed":true,"internalType":"address"},{"name":"user","type":"address","indexed":true,"internalType":"address"},{"name":"ticker","type":"bytes32","indexed":true,"internalType":"bytes32"},{"name":"syntheticRepaid","type":"uint256","indexed":false,"internalType":"uint256"},{"name":"collateralSeized","type":"uint256","indexed":false,"internalType":"uint256"},{"name":"bonus","type":"uint256","indexed":false,"internalType":"uint256"}],"anonymous":false},{"type":"event","name":"Minted","inputs":[{"name":"user","type":"address","indexed":true,"internalType":"address"},{"name":"ticker","type":"bytes32","indexed":true,"internalType":"bytes32"},{"name":"syntheticAmount","type":"uint256","indexed":false,"internalType":"uint256"},{"name":"collateralUsed","type":"uint256","indexed":false,"internalType":"uint256"},{"name":"fee","type":"uint256","indexed":false,"internalType":"uint256"}],"anonymous":false},{"type":"error","name":"AssetNotRegistered","inputs":[{"name":"key","type":"bytes32","internalType":"bytes32"}]},{"type":"error","name":"CollateralRatioTooLow","inputs":[{"name":"ratio","type":"uint256","internalType":"uint256"},{"name":"minimum","type":"uint256","internalType":"uint256"}]},{"type":"error","name":"InsufficientCollateral","inputs":[{"name":"have","type":"uint256","internalType":"uint256"},{"name":"need","type":"uint256","internalType":"uint256"}]},{"type":"error","name":"InsufficientDebt","inputs":[{"name":"have","type":"uint256","internalType":"uint256"},{"name":"repay","type":"uint256","internalType":"uint256"}]},{"type":"error","name":"NotAdmin","inputs":[]},{"type":"error","name":"Paused","inputs":[]},{"type":"error","name":"PositionHealthy","inputs":[{"name":"ratio","type":"uint256","internalType":"uint256"},{"name":"liquidationThreshold","type":"uint256","internalType":"uint256"}]},{"type":"error","name":"TransferFailed","inputs":[]},{"type":"error","name":"ZeroAddress","inputs":[]},{"type":"error","name":"ZeroAmount","inputs":[]}],"bytecode":{"object":"0x60e03461017a57601f611fd138819003918201601f19168301916001600160401b0383118484101761017e5780849260809460405283398101031261017a5761004781610192565b9061005460208201610192565b9161006d606061006660408501610192565b9301610192565b6001600160a01b0390911692831561016b576001600160a01b031690811561016b576001600160a01b0383161561016b576001600160a01b031692831561016b5760805260a05260c0525f80546001600160a01b031916919091179055604051611e2a90816101a7823960805181818161024201528181610603015281816106c30152818161102f0152818161114601528181611343015281816115560152611813015260a051818181610410015281816108ee01528181610b2a01528181610def015281816113f20152818161160001528181611bc50152611d2a015260c05181818161068001528181610c1901528181610fea01526118610152f35b63d92e233d60e01b5f5260045ffd5b5f80fd5b634e487b7160e01b5f52604160045260245ffd5b51906001600160a01b038216820361017a5756fe60806040526004361015610011575f80fd5b5f5f3560e01c8063056b01ce14611585578063119e5bf31461154057806316c38b3c146114f35780631ce96712146112755780631f33a88814610d435780631fbe11f914610d00578063249d39e914610ce357806329a723ee14610ca05780633272569614610c6d5780635c975abb14610c485780636052970c14610c035780636dc827d914610be1578063704b6c0214610b765780637a9fffb714610b595780637dc0d1d014610b145780638c2261ad14610a005780639185f598146109e4578063b1ad0fa01461083e578063b48272cc1461037b578063c4323fea1461035e578063c63e3835146101c7578063ecd1dae6146101aa578063f32cd63014610180578063f851a440146101595763ffe3142e1461012d575f80fd5b346101565760203660031901126101565760406020916004358152600383522054604051908152f35b80fd5b5034610156578060031936011261015657546040516001600160a01b039091168152602090f35b50346101565760203660031901126101565760406020916004358152600583522054604051908152f35b503461015657806003193601126101565760206040516103e88152f35b5034610156576101d636611a24565b9160ff845460a01c1661034f57821561034057906101f391611ca9565b808352600460205260408320549091906001600160a01b03161561032c576040516323b872dd60e01b815233600482015230602482015260448101829052602081606481876001600160a01b037f0000000000000000000000000000000000000000000000000000000000000000165af19081156103215784916102f2575b50156102e35733835260016020526040832082845260205260408320610299828254611abe565b90558183526003602052604083206102b2828254611abe565b90556040519081527f88df26d296ecbf594c8609f433503d1436d24afe03c0d9e5e29c8f6ed92ef9b460203392a380f35b6312171d8360e31b8352600483fd5b610314915060203d60201161031a575b61030c8183611acb565b810190611b01565b5f610272565b503d610302565b6040513d86823e3d90fd5b6326ef68cf60e01b83526004829052602483fd5b631f2a200560e01b8452600484fd5b6313d0ff5960e31b8452600484fd5b50346101565780600319360112610156576020604051612ee08152f35b50346101565761038a36611a24565b9160ff845460a01c1661034f57821561034057906103a791611ca9565b808352600460205260408320549091906001600160a01b0316801561082a573384526002602052604084208385526020526040842054908183116108135783855260056020908152604080872054905163832321bf60e01b8152600481019190915290816024817f00000000000000000000000000000000000000000000000000000000000000006001600160a01b03165afa9081156106665786916107db575b5061045c670de0b6b3a76400009185611b34565b04670de0b6b3a7640000810290808204670de0b6b3a764000014901517156107c7576305f5e1009004601e810290808204601e14901517156107c7576104c7612710879204933383526001602052604083208784526020526104c2866040852054611b34565b611b47565b838111156107bb57836104d991611ab1565b915b338252600260205260408220868352602052604082206104fc868254611ab1565b90556105088484611abe565b33835260016020526040832087845260205261052960408420918254611ab1565b90556105358484611abe565b868352600360205261054c60408420918254611ab1565b9055803b156107b757604051632770a7eb60e21b8152336004820152602481018690529082908290604490829084905af180156107ac57610793575b505081610671575b806105d8575b60408051938452602084019190915282015233907ffbb68f61002cbf89cfd4502b79ed21c0d08c91666d4b22825cc11bf41333648e9080606081015b0390a380f35b60405163a9059cbb60e01b815233600482015260248101829052602081604481896001600160a01b037f0000000000000000000000000000000000000000000000000000000000000000165af1908115610666578691610647575b50610596576312171d8360e31b8552600485fd5b610660915060203d60201161031a5761030c8183611acb565b5f610633565b6040513d88823e3d90fd5b60405163095ea7b360e01b81527f00000000000000000000000000000000000000000000000000000000000000006001600160a01b03811660048301526024820184905290602081806044810103818a7f00000000000000000000000000000000000000000000000000000000000000006001600160a01b03165af180156107885761076b575b506040516364d6def960e01b81526004810184905230602482015290606090829060449082908a906001600160a01b03165af180156106665761073c575b50610590565b61075d9060603d606011610764575b6107558183611acb565b810190611b19565b5050610736565b503d61074b565b6107839060203d60201161031a5761030c8183611acb565b6106f8565b6040513d89823e3d90fd5b8161079d91611acb565b6107a857845f610588565b8480fd5b6040513d84823e3d90fd5b5080fd5b509091508480926104db565b634e487b7160e01b86526011600452602486fd5b90506020813d60201161080b575b816107f660209383611acb565b81010312610807575161045c610448565b5f80fd5b3d91506107e9565b6044858484636943054d60e11b8352600452602452fd5b6326ef68cf60e01b84526004839052602484fd5b50346101565761085a9061085136611a6d565b91939190611ca9565b9160018060a01b031690818152600160205260408120838252602052604081205491815260026020526040812083825260205260408120549283155f146108c45750506108c05f195b604051938493846040919493926060820195825260208201520152565b0390f35b815260056020908152604080832054905163832321bf60e01b8152600481019190915290816024817f00000000000000000000000000000000000000000000000000000000000000006001600160a01b03165afa9081156107ac5782916109b0575b5061093a670de0b6b3a76400009185611b34565b04906305f5e10083028381046305f5e100148415171561099c57670de0b6b3a7640000900490612710820291808304612710149015171561098857506108c09161098391611b47565b6108a3565b634e487b7160e01b81526011600452602490fd5b634e487b7160e01b82526011600452602482fd5b90506020813d6020116109dc575b816109cb60209383611acb565b81010312610807575161093a610926565b3d91506109be565b50346101565780600319360112610156576020604051601e8152f35b50346101565760403660031901126101565760043567ffffffffffffffff81116107b757610a329036906004016119f6565b6024356001600160a01b0381169290839003610b105783546001600160a01b03163303610b01578215610af2579060608282610a8f817f9190ede1bbf154005e1cdc753cb24ff7912bf4412bf72342e5ab03ee770facf096611ca9565b95868852600460205260408820816bffffffffffffffffffffffff60a01b8254161790558688526005602052866040892055604051948593604085528160408601528585013782820184018890526020830152601f01601f19168101030190a280f35b63d92e233d60e01b8452600484fd5b637bfa4b9f60e01b8452600484fd5b8380fd5b50346101565780600319360112610156576040517f00000000000000000000000000000000000000000000000000000000000000006001600160a01b03168152602090f35b50346101565780600319360112610156576020604051613a988152f35b503461015657602036600319011261015657610b90611a57565b8154906001600160a01b0382163303610bd2576001600160a01b0316908115610bc3576001600160a01b03191617815580f35b63d92e233d60e01b8352600483fd5b637bfa4b9f60e01b8352600483fd5b5034610156576020610bfb610bf536611a6d565b91611b65565b604051908152f35b50346101565780600319360112610156576040517f00000000000000000000000000000000000000000000000000000000000000006001600160a01b03168152602090f35b503461015657806003193601126101565760ff6020915460a01c166040519015158152f35b503461015657602036600319011261015657602090600435815260048252604060018060a01b0391205416604051908152f35b5034610156576040366003190112610156576020906040906001600160a01b03610cc8611a57565b16815260018352818120602435825283522054604051908152f35b503461015657806003193601126101565760206040516127108152f35b5034610156576040366003190112610156576020906040906001600160a01b03610d28611a57565b16815260028352818120602435825283522054604051908152f35b503461015657610d5236611a6d565b9060ff845460a01c1661034f5790610d6991611ca9565b90818352600460205260018060a01b0360408420541690811561082a5760018060a01b0316908184526002602052604084208385526020526040842054908285526001602052604085208486526020526040852054821561125b5784865260056020908152604080882054905163832321bf60e01b8152600481019190915290816024817f00000000000000000000000000000000000000000000000000000000000000006001600160a01b03165afa908115610788578791611227575b50610e3b670de0b6b3a76400009185611b34565b046305f5e10082028281046305f5e10014831517156111e757670de0b6b3a7640000900461271081029080820461271014901517156111e75781610e7e91611b47565b612ee081101561120f5750670de0b6b3a7640000810290808204670de0b6b3a764000014901517156111fb576305f5e1009004906103e882028281046103e814831517156111e75790610ed8612710899594930483611abe565b928184116111de575b610eeb8483611ab1565b918786526001602052604086208987526020528560408120558786526002602052604086208987526020528560408120558886526003602052610f3360408720918254611ab1565b9055803b156107a857604051632770a7eb60e21b8152336004820152602481018790529085908290604490829084905af19081156111d35785916111be575b505082611116575b80610fdb575b507f050df5bd39b9045b183cf260962616d90dc134df2b0da18110a7c2bc6c68468a925080821115610fd357610fb69082611ab1565b905b6040805194855260208501919091528301523391606090a480f35b508590610fb8565b60405163095ea7b360e01b81527f00000000000000000000000000000000000000000000000000000000000000006001600160a01b03811660048301526024820183905290919060208380604481010381897f00000000000000000000000000000000000000000000000000000000000000006001600160a01b03165af191821561066657606093611097936110f9575b506040516364d6def960e01b8152600481019190915230602482015295869283919082906044820190565b03926001600160a01b03165af1928315610788577f050df5bd39b9045b183cf260962616d90dc134df2b0da18110a7c2bc6c68468a936110da575b879350610f80565b6110f29060603d606011610764576107558183611acb565b50506110d2565b6111119060203d60201161031a5761030c8183611acb565b61106c565b60405163a9059cbb60e01b81523360048201526024810184905292935090916020816044818b6001600160a01b037f0000000000000000000000000000000000000000000000000000000000000000165af19081156111b3578891611194575b50156111855790869291610f7a565b6312171d8360e31b8752600487fd5b6111ad915060203d60201161031a5761030c8183611acb565b5f611176565b6040513d8a823e3d90fd5b816111c891611acb565b610b1057835f610f72565b6040513d87823e3d90fd5b92508092610ee1565b634e487b7160e01b88526011600452602488fd5b634e487b7160e01b87526011600452602487fd5b6301f7d11160e21b8852600452612ee0602452604487fd5b90506020813d602011611253575b8161124260209383611acb565b810103126108075751610e3b610e27565b3d9150611235565b6301f7d11160e21b86525f19600452612ee0602452604486fd5b50346101565761128436611a24565b9160ff845460a01c1661034f57821561034057906112a191611ca9565b9033835260016020526040832082845260205260408320548181106114dd57816112ca91611ab1565b3384526002602052604084208385526020526040842054806113c7575b503384526001602052604084208385526020526040842055818352600360205260408320611316828254611ab1565b905560405163a9059cbb60e01b815233600482015260248101829052602081604481876001600160a01b037f0000000000000000000000000000000000000000000000000000000000000000165af19081156103215784916113a8575b50156102e3576040519081527fe69cdf29a59dd324317b598bee3a9ed1fcffb99cc506db72633ed07b59dc6d0460203392a380f35b6113c1915060203d60201161031a5761030c8183611acb565b5f611373565b83855260056020908152604080872054905163832321bf60e01b8152600481019190915290816024817f00000000000000000000000000000000000000000000000000000000000000006001600160a01b03165afa9081156106665786916114a3575b5061143e90670de0b6b3a764000092611b34565b046305f5e10082028281046305f5e10014831517156107c757670de0b6b3a7640000900461271081029080820461271014901517156107c7579061148191611b47565b613a988110156112e757636a5a2d9160e11b8552600452613a98602452604484fd5b90506020813d6020116114d5575b816114be60209383611acb565b810103126108075751670de0b6b3a764000061142a565b3d91506114b1565b632c1f8ef160e21b845260045260245250604490fd5b5034610156576020366003190112610156576004358015158091036107b7578154906001600160a01b0382163303610bd25760ff60a01b1990911660a09190911b60ff60a01b1617815580f35b50346101565780600319360112610156576040517f00000000000000000000000000000000000000000000000000000000000000006001600160a01b03168152602090f35b50346108075761159436611a24565b919060ff5f5460a01c166119e75782156119d8576115b191611ca9565b5f818152600460205260409020549091906001600160a01b031680156119c557825f52600560205260405f20546040519063832321bf60e01b8252600482015260208160248160018060a01b037f0000000000000000000000000000000000000000000000000000000000000000165afa9081156117de575f91611991575b50611644670de0b6b3a76400009184611b34565b04613a98810290801591818104613a981483171561197d576127109004670de0b6b3a7640000810290808204670de0b6b3a7640000149015171561197d576305f5e100900491670de0b6b3a76400008202918204670de0b6b3a764000014171561197d576305f5e1009004601e810290808204601e149015171561197d57612710900491335f52600160205260405f20855f5260205260405f20546116e98633611cd7565b80821115611975576116fa91611ab1565b82811061195e5750335f52600260205260405f20855f5260205260405f20611723858254611abe565b9055826117e9575b803b15610807576040516340c10f1960e01b815233600482015260248101859052905f908290604490829084905af180156117de576117a6575b5060408051938452602084019190915282015233907fafa80970438fa6a8ad54574239a8d28d0cc4b50da6e4473eab194dea551c6c879080606081016105d2565b7fafa80970438fa6a8ad54574239a8d28d0cc4b50da6e4473eab194dea551c6c87929195505f6117d591611acb565b5f949091611765565b6040513d5f823e3d90fd5b6040516323b872dd60e01b8152336004820152306024820152604481018490526001600160a01b037f000000000000000000000000000000000000000000000000000000000000000016906020816064815f865af19081156117de575f9161193f575b50156119305760405163095ea7b360e01b81527f00000000000000000000000000000000000000000000000000000000000000006001600160a01b03811660048301526024820186905291602090829060449082905f905af180156117de57611913575b506040516364d6def960e01b81526004810185905230602482015290606090829060449082905f906001600160a01b03165af180156117de576118f4575b5061172b565b61190c9060603d606011610764576107558183611acb565b50506118ee565b61192b9060203d60201161031a5761030c8183611acb565b6118b0565b6312171d8360e31b5f5260045ffd5b611958915060203d60201161031a5761030c8183611acb565b5f61184c565b9050632c1f8ef160e21b5f5260045260245260445ffd5b50505f6116fa565b634e487b7160e01b5f52601160045260245ffd5b90506020813d6020116119bd575b816119ac60209383611acb565b810103126108075751611644611630565b3d915061199f565b826326ef68cf60e01b5f5260045260245ffd5b631f2a200560e01b5f5260045ffd5b6313d0ff5960e31b5f5260045ffd5b9181601f840112156108075782359167ffffffffffffffff8311610807576020838186019501011161080757565b6040600319820112610807576004359067ffffffffffffffff821161080757611a4f916004016119f6565b909160243590565b600435906001600160a01b038216820361080757565b906040600319830112610807576004356001600160a01b038116810361080757916024359067ffffffffffffffff821161080757611aad916004016119f6565b9091565b9190820391821161197d57565b9190820180921161197d57565b90601f8019910116810190811067ffffffffffffffff821117611aed57604052565b634e487b7160e01b5f52604160045260245ffd5b90816020910312610807575180151581036108075790565b90816060910312610807578051916040602083015192015190565b8181029291811591840414171561197d57565b8115611b51570490565b634e487b7160e01b5f52601260045260245ffd5b91611b6f91611ca9565b9060018060a01b031690815f52600260205260405f20815f5260205260405f20548015611ca157815f52600560205260405f20546040519063832321bf60e01b8252600482015260208160248160018060a01b037f0000000000000000000000000000000000000000000000000000000000000000165afa9081156117de575f91611c67575b50611c0990670de0b6b3a764000092611b34565b04915f52600160205260405f20905f5260205260405f20546305f5e1008102908082046305f5e100149015171561197d57670de0b6b3a7640000900490612710820291808304612710149015171561197d57611c6491611b47565b90565b90506020813d602011611c99575b81611c8260209383611acb565b810103126108075751670de0b6b3a7640000611bf5565b3d9150611c75565b5050505f1990565b90611cd1602060405183819483830196873781015f838201520301601f198101835282611acb565b51902090565b60018060a01b03165f52600260205260405f20815f5260205260405f2054908115611dee575f52600560205260405f20546040519063832321bf60e01b8252600482015260208160248160018060a01b037f0000000000000000000000000000000000000000000000000000000000000000165afa9081156117de575f91611db4575b50611d6e90670de0b6b3a764000092611b34565b04613a98810290808204613a98149015171561197d576127109004670de0b6b3a7640000810290808204670de0b6b3a7640000149015171561197d576305f5e100900490565b90506020813d602011611de6575b81611dcf60209383611acb565b810103126108075751670de0b6b3a7640000611d5a565b3d9150611dc2565b50505f9056fea26469706673582212201da992badad1df819b9d831eef52c04c48e44f74f8d2bfa8118c5c7947e12ba064736f6c63430008210033","linkReferences":{}},"methodIdentifiers":{"BPS()":"249d39e9","LIQUIDATION_BONUS_BPS()":"ecd1dae6","LIQUIDATION_RATIO()":"c4323fea","MIN_COLLATERAL_RATIO()":"7a9fffb7","TRADE_FEE_BPS()":"9185f598","admin()":"f851a440","burn(string,uint256)":"b48272cc","collateral(address,bytes32)":"29a723ee","debt(address,bytes32)":"1fbe11f9","depositCollateral(string,uint256)":"c63e3835","feeSplitter()":"6052970c","getCollateralRatio(address,string)":"6dc827d9","getPosition(address,string)":"b1ad0fa0","goodDollar()":"119e5bf3","liquidate(address,string)":"1f33a888","mint(string,uint256)":"056b01ce","oracle()":"7dc0d1d0","oracleKeys(bytes32)":"f32cd630","paused()":"5c975abb","registerAsset(string,address)":"8c2261ad","setAdmin(address)":"704b6c02","setPaused(bool)":"16c38b3c","syntheticAssets(bytes32)":"32725696","totalCollateral(bytes32)":"ffe3142e","withdrawCollateral(string,uint256)":"1ce96712"},"id":19}